{
  "contractName": "JuriStakingPoolWithOracleMock",
  "abi": [
    {
      "constant": true,
      "inputs": [],
      "name": "getUsers",
      "outputs": [
        {
          "name": "",
          "type": "address[]"
        }
      ],
      "payable": false,
      "stateMutability": "view",
      "type": "function"
    },
    {
      "constant": false,
      "inputs": [
        {
          "name": "_updateIterationCount",
          "type": "uint256"
        }
      ],
      "name": "firstUpdateStakeForNextXAmountOfUsers",
      "outputs": [],
      "payable": false,
      "stateMutability": "nonpayable",
      "type": "function"
    },
    {
      "constant": true,
      "inputs": [],
      "name": "nextStakingRound",
      "outputs": [
        {
          "name": "totalAddedStake",
          "type": "uint256"
        }
      ],
      "payable": false,
      "stateMutability": "view",
      "type": "function"
    },
    {
      "constant": true,
      "inputs": [
        {
          "name": "_user",
          "type": "address"
        }
      ],
      "name": "getAdditionalStakeForUserInNextPeriod",
      "outputs": [
        {
          "name": "",
          "type": "uint256"
        }
      ],
      "payable": false,
      "stateMutability": "view",
      "type": "function"
    },
    {
      "constant": true,
      "inputs": [],
      "name": "juriAddress",
      "outputs": [
        {
          "name": "",
          "type": "address"
        }
      ],
      "payable": false,
      "stateMutability": "view",
      "type": "function"
    },
    {
      "constant": false,
      "inputs": [
        {
          "name": "_amount",
          "type": "uint256"
        }
      ],
      "name": "withdraw",
      "outputs": [],
      "payable": false,
      "stateMutability": "nonpayable",
      "type": "function"
    },
    {
      "constant": false,
      "inputs": [
        {
          "name": "_updateIterationCount",
          "type": "uint256"
        }
      ],
      "name": "checkNewAddedComplianceData",
      "outputs": [],
      "payable": false,
      "stateMutability": "nonpayable",
      "type": "function"
    },
    {
      "constant": true,
      "inputs": [
        {
          "name": "",
          "type": "uint256"
        }
      ],
      "name": "users",
      "outputs": [
        {
          "name": "",
          "type": "address"
        }
      ],
      "payable": false,
      "stateMutability": "view",
      "type": "function"
    },
    {
      "constant": true,
      "inputs": [],
      "name": "getIsCurrentRoundStaking",
      "outputs": [
        {
          "name": "",
          "type": "bool"
        }
      ],
      "payable": false,
      "stateMutability": "view",
      "type": "function"
    },
    {
      "constant": false,
      "inputs": [
        {
          "name": "_amount",
          "type": "uint256"
        }
      ],
      "name": "addOwnerFunds",
      "outputs": [],
      "payable": false,
      "stateMutability": "nonpayable",
      "type": "function"
    },
    {
      "constant": false,
      "inputs": [
        {
          "name": "_updateIterationCount",
          "type": "uint256"
        },
        {
          "name": "_wasCompliant",
          "type": "bool[]"
        }
      ],
      "name": "addWasCompliantDataForUsers",
      "outputs": [],
      "payable": false,
      "stateMutability": "nonpayable",
      "type": "function"
    },
    {
      "constant": true,
      "inputs": [
        {
          "name": "",
          "type": "uint256"
        },
        {
          "name": "",
          "type": "address"
        }
      ],
      "name": "complianceDataAtIndex",
      "outputs": [
        {
          "name": "",
          "type": "bool"
        }
      ],
      "payable": false,
      "stateMutability": "view",
      "type": "function"
    },
    {
      "constant": false,
      "inputs": [
        {
          "name": "_newJuriAddress",
          "type": "address"
        }
      ],
      "name": "setJuriAddress",
      "outputs": [],
      "payable": false,
      "stateMutability": "nonpayable",
      "type": "function"
    },
    {
      "constant": true,
      "inputs": [],
      "name": "currentStakingRound",
      "outputs": [
        {
          "name": "roundIndex",
          "type": "uint256"
        },
        {
          "name": "stage",
          "type": "uint8"
        },
        {
          "name": "addComplianceDataIndex",
          "type": "uint256"
        },
        {
          "name": "updateStaking1Index",
          "type": "uint256"
        },
        {
          "name": "updateStaking2Index",
          "type": "uint256"
        },
        {
          "name": "totalStakeToSlash",
          "type": "uint256"
        },
        {
          "name": "nonCompliancePenalty",
          "type": "uint256"
        },
        {
          "name": "totalPayout",
          "type": "uint256"
        },
        {
          "name": "juriFees",
          "type": "uint256"
        },
        {
          "name": "useMaxNonCompliancy",
          "type": "bool"
        }
      ],
      "payable": false,
      "stateMutability": "view",
      "type": "function"
    },
    {
      "constant": false,
      "inputs": [
        {
          "name": "_user",
          "type": "address"
        },
        {
          "name": "_amount",
          "type": "uint256"
        },
        {
          "name": "_canWithdrawAll",
          "type": "bool"
        }
      ],
      "name": "_withdrawForUser",
      "outputs": [],
      "payable": false,
      "stateMutability": "nonpayable",
      "type": "function"
    },
    {
      "constant": true,
      "inputs": [],
      "name": "complianceDataIndex",
      "outputs": [
        {
          "name": "",
          "type": "uint256"
        }
      ],
      "payable": false,
      "stateMutability": "view",
      "type": "function"
    },
    {
      "constant": true,
      "inputs": [],
      "name": "poolDefinition",
      "outputs": [
        {
          "name": "startTime",
          "type": "uint256"
        },
        {
          "name": "periodLength",
          "type": "uint256"
        },
        {
          "name": "feePercentage",
          "type": "uint256"
        },
        {
          "name": "compliantGainPercentage",
          "type": "uint256"
        },
        {
          "name": "maxNonCompliantPenaltyPercentage",
          "type": "uint256"
        },
        {
          "name": "maxNonCompliantFactor",
          "type": "uint256"
        },
        {
          "name": "minStakePerUser",
          "type": "uint256"
        },
        {
          "name": "maxStakePerUser",
          "type": "uint256"
        },
        {
          "name": "maxTotalStake",
          "type": "uint256"
        }
      ],
      "payable": false,
      "stateMutability": "view",
      "type": "function"
    },
    {
      "constant": false,
      "inputs": [],
      "name": "renounceOwnership",
      "outputs": [],
      "payable": false,
      "stateMutability": "nonpayable",
      "type": "function"
    },
    {
      "constant": true,
      "inputs": [
        {
          "name": "_user",
          "type": "address"
        }
      ],
      "name": "getStakeForUserAtRoundStart",
      "outputs": [
        {
          "name": "",
          "type": "uint256"
        }
      ],
      "payable": false,
      "stateMutability": "view",
      "type": "function"
    },
    {
      "constant": true,
      "inputs": [],
      "name": "getPoolUserCount",
      "outputs": [
        {
          "name": "",
          "type": "uint256"
        }
      ],
      "payable": false,
      "stateMutability": "view",
      "type": "function"
    },
    {
      "constant": false,
      "inputs": [
        {
          "name": "_amount",
          "type": "uint256"
        }
      ],
      "name": "addMoreStakeForNextPeriod",
      "outputs": [],
      "payable": false,
      "stateMutability": "nonpayable",
      "type": "function"
    },
    {
      "constant": false,
      "inputs": [
        {
          "name": "_updateIterationCount",
          "type": "uint256"
        }
      ],
      "name": "secondUpdateStakeForNextXAmountOfUsers",
      "outputs": [],
      "payable": false,
      "stateMutability": "nonpayable",
      "type": "function"
    },
    {
      "constant": true,
      "inputs": [],
      "name": "owner",
      "outputs": [
        {
          "name": "",
          "type": "address"
        }
      ],
      "payable": false,
      "stateMutability": "view",
      "type": "function"
    },
    {
      "constant": true,
      "inputs": [],
      "name": "isOwner",
      "outputs": [
        {
          "name": "",
          "type": "bool"
        }
      ],
      "payable": false,
      "stateMutability": "view",
      "type": "function"
    },
    {
      "constant": false,
      "inputs": [],
      "name": "optOutOfStakingForNextPeriod",
      "outputs": [],
      "payable": false,
      "stateMutability": "nonpayable",
      "type": "function"
    },
    {
      "constant": false,
      "inputs": [
        {
          "name": "_amount",
          "type": "uint256"
        }
      ],
      "name": "withdrawOwnerFunds",
      "outputs": [],
      "payable": false,
      "stateMutability": "nonpayable",
      "type": "function"
    },
    {
      "constant": false,
      "inputs": [],
      "name": "removeUserInNextPeriod",
      "outputs": [],
      "payable": false,
      "stateMutability": "nonpayable",
      "type": "function"
    },
    {
      "constant": true,
      "inputs": [],
      "name": "ownerFunds",
      "outputs": [
        {
          "name": "",
          "type": "uint256"
        }
      ],
      "payable": false,
      "stateMutability": "view",
      "type": "function"
    },
    {
      "constant": true,
      "inputs": [],
      "name": "totalUserStake",
      "outputs": [
        {
          "name": "",
          "type": "uint256"
        }
      ],
      "payable": false,
      "stateMutability": "view",
      "type": "function"
    },
    {
      "constant": true,
      "inputs": [],
      "name": "getIsNextRoundStaking",
      "outputs": [
        {
          "name": "",
          "type": "bool"
        }
      ],
      "payable": false,
      "stateMutability": "view",
      "type": "function"
    },
    {
      "constant": false,
      "inputs": [
        {
          "name": "_amount",
          "type": "uint256"
        }
      ],
      "name": "addUserInNextPeriod",
      "outputs": [],
      "payable": false,
      "stateMutability": "nonpayable",
      "type": "function"
    },
    {
      "constant": true,
      "inputs": [
        {
          "name": "_user",
          "type": "address"
        }
      ],
      "name": "getIsLeavingNextPeriodForUser",
      "outputs": [
        {
          "name": "",
          "type": "bool"
        }
      ],
      "payable": false,
      "stateMutability": "view",
      "type": "function"
    },
    {
      "constant": true,
      "inputs": [
        {
          "name": "_user",
          "type": "address"
        }
      ],
      "name": "getStakeForUserInCurrentPeriod",
      "outputs": [
        {
          "name": "",
          "type": "uint256"
        }
      ],
      "payable": false,
      "stateMutability": "view",
      "type": "function"
    },
    {
      "constant": true,
      "inputs": [],
      "name": "proxy",
      "outputs": [
        {
          "name": "",
          "type": "address"
        }
      ],
      "payable": false,
      "stateMutability": "view",
      "type": "function"
    },
    {
      "constant": false,
      "inputs": [],
      "name": "optInForStakingForNextPeriod",
      "outputs": [],
      "payable": false,
      "stateMutability": "nonpayable",
      "type": "function"
    },
    {
      "constant": false,
      "inputs": [
        {
          "name": "newOwner",
          "type": "address"
        }
      ],
      "name": "transferOwnership",
      "outputs": [],
      "payable": false,
      "stateMutability": "nonpayable",
      "type": "function"
    },
    {
      "constant": true,
      "inputs": [
        {
          "name": "_index",
          "type": "uint256"
        }
      ],
      "name": "getUserToBeAddedNextPeriod",
      "outputs": [
        {
          "name": "",
          "type": "address"
        }
      ],
      "payable": false,
      "stateMutability": "view",
      "type": "function"
    },
    {
      "constant": true,
      "inputs": [],
      "name": "token",
      "outputs": [
        {
          "name": "",
          "type": "address"
        }
      ],
      "payable": false,
      "stateMutability": "view",
      "type": "function"
    },
    {
      "inputs": [
        {
          "name": "_proxy",
          "type": "address"
        },
        {
          "name": "_token",
          "type": "address"
        },
        {
          "name": "_startTime",
          "type": "uint256"
        },
        {
          "name": "_periodLength",
          "type": "uint256"
        },
        {
          "name": "_feePercentage",
          "type": "uint256"
        },
        {
          "name": "_compliantGainPercentage",
          "type": "uint256"
        },
        {
          "name": "_maxNonCompliantPenaltyPercentage",
          "type": "uint256"
        },
        {
          "name": "_minStakePerUser",
          "type": "uint256"
        },
        {
          "name": "_maxStakePerUser",
          "type": "uint256"
        },
        {
          "name": "_maxTotalStake",
          "type": "uint256"
        },
        {
          "name": "_juriAddress",
          "type": "address"
        }
      ],
      "payable": false,
      "stateMutability": "nonpayable",
      "type": "constructor"
    },
    {
      "anonymous": false,
      "inputs": [
        {
          "indexed": false,
          "name": "user",
          "type": "address"
        },
        {
          "indexed": false,
          "name": "wasCompliant",
          "type": "bool"
        }
      ],
      "name": "AddedComplianceDataForUser",
      "type": "event"
    },
    {
      "anonymous": false,
      "inputs": [
        {
          "indexed": true,
          "name": "previousOwner",
          "type": "address"
        },
        {
          "indexed": true,
          "name": "newOwner",
          "type": "address"
        }
      ],
      "name": "OwnershipTransferred",
      "type": "event"
    },
    {
      "constant": false,
      "inputs": [
        {
          "name": "_users",
          "type": "address[]"
        }
      ],
      "name": "insertUsers",
      "outputs": [],
      "payable": false,
      "stateMutability": "nonpayable",
      "type": "function"
    },
    {
      "constant": false,
      "inputs": [
        {
          "name": "_roundIndex",
          "type": "uint256"
        },
        {
          "name": "_juriFees",
          "type": "uint256"
        }
      ],
      "name": "handleJuriFees",
      "outputs": [],
      "payable": false,
      "stateMutability": "nonpayable",
      "type": "function"
    }
  ],
  "bytecode": "0x60806040523480156200001157600080fd5b50604051620041cb380380620041cb83398181016040526101608110156200003857600080fd5b50805160208201516040808401516060850151608086015160a087015160c088015160e08901516101008a01516101208b0151610140909b0151600080546001600160a01b031916331780825599519b9c9a9b989a9799969895979496939592949391928d928d928d928d928d928d928d928d928d928d928d928c928c928c928c928c928c928c928c928c928c926001600160a01b0392909216917f8be0079c531659141344cd1fd0a4f28419497f9722a3daafe3b4186f6b6457e0908290a36001600160a01b038a166200016e57604080517f08c379a000000000000000000000000000000000000000000000000000000000815260206004820152601e60248201527f546f6b656e2061646472657373206d75737420626520646566696e6564210000604482015290519081900360640190fd5b428911620001c8576040517f08c379a0000000000000000000000000000000000000000000000000000000008152600401808060200182810382526021815260200180620041aa6021913960400191505060405180910390fd5b600088116200023857604080517f08c379a000000000000000000000000000000000000000000000000000000000815260206004820152601a60248201527f506572696f64206c656e6774682063616e6e6f74206265203021000000000000604482015290519081900360640190fd5b606487111562000294576040517f08c379a0000000000000000000000000000000000000000000000000000000008152600401808060200182810382526032815260200180620041106032913960400191505060405180910390fd5b6064861115620002f0576040517f08c379a000000000000000000000000000000000000000000000000000000000815260040180806020018281038252603d815260200180620040d3603d913960400191505060405180910390fd5b60648511156200034c576040517f08c379a0000000000000000000000000000000000000000000000000000000008152600401808060200182810382526048815260200180620041426048913960600191505060405180910390fd5b60008411620003bc57604080517f08c379a000000000000000000000000000000000000000000000000000000000815260206004820152601f60248201527f4d696e207374616b652070657220757365722063616e6e6f7420626520302100604482015290519081900360640190fd5b600083116200041b57604080517f08c379a000000000000000000000000000000000000000000000000000000000815260206004820152601f60248201526000805160206200418a833981519152604482015290519081900360640190fd5b600082116200047a57604080517f08c379a000000000000000000000000000000000000000000000000000000000815260206004820152601f60248201526000805160206200418a833981519152604482015290519081900360640190fd5b6001600160a01b038116620004f057604080517f08c379a000000000000000000000000000000000000000000000000000000000815260206004820152601960248201527f4a75726920616464726573732063616e6e6f7420626520302100000000000000604482015290519081900360640190fd5b6000601f8190556020819055602181905562000515906001600160e01b036200065016565b600180546001600160a01b03808d166001600160a01b031992831617909255600280549284169290911691909117905560408051610120810182528a815260208082018b905291810189905260608101889052608081018790529060a08201906200058e9060649089906200291262000720821b17901c565b8152602001858152602001848152602001838152506003600082015181600001556020820151816001015560408201518160020155606082015181600301556080820151816004015560a0820151816005015560c0820151816006015560e082015181600701556101008201518160080155905050505050505050505050508a602360006101000a8154816001600160a01b0302191690836001600160a01b03160217905550505050505050505050505050505050505050505050506200082c565b60408051610140810182528281526000602080830182905282840182905260608084018390526080840183905260a0840183905260c0840183905260e084018390526101008401839052610120909301829052600f8590556010805460ff19908116909155601183905560128390556013839055601483905560158390556016839055601783905560188054909116905583518085018381529381019485905283815290810191909152905190916019916200070f91601c9162000798565b506020820151816004015590505050565b6000828211156200079257604080517f08c379a000000000000000000000000000000000000000000000000000000000815260206004820152601260248201527f5361666553756220756e646572666c6f77210000000000000000000000000000604482015290519081900360640190fd5b50900390565b828054828255906000526020600020908101928215620007f0579160200282015b82811115620007f057825182546001600160a01b0319166001600160a01b03909116178255602090920191600190910190620007b9565b50620007fe92915062000802565b5090565b6200082991905b80821115620007fe5780546001600160a01b031916815560010162000809565b90565b613897806200083c6000396000f3fe608060405234801561001057600080fd5b50600436106102475760003560e01c8063837bee201161013b578063d1658d7f116100b8578063ec5568891161007c578063ec556889146107a0578063eed7dee9146107a8578063f2fde38b146107b0578063f9feab53146107d6578063fc0c546a146107f357610247565b8063d1658d7f14610727578063d2bbbbbb1461072f578063d3f6ca5714610737578063d8e98cbe14610754578063e434f13c1461077a57610247565b80638f32d59b116100ff5780638f32d59b146106ea578063962743cf146106f2578063ad1211be146106fa578063bc5b910914610717578063c12021311461071f57610247565b8063837bee20146105fd57806387d65ee71461060557806389356be1146106a85780638ab96b02146106c55780638da5cb5b146106e257610247565b80634696f41a116101c95780636ccb25961161018d5780636ccb2596146105445780636fd2395f1461057857806370360d3b14610580578063715018a6146105cf57806383321afb146105d757610247565b80634696f41a146103bd57806349d445d0146103da578063533722cf14610484578063573e57b7146104b057806365c2dc7e146104d657610247565b80632ada10b0116102105780632ada10b0146103265780632e1a7d4d1461034a578063364afaea14610367578063365b98b2146103845780633ab12565146103a157610247565b8062ce8e3e1461024c5780630315073b146102a457806312198604146102c35780631bb4fec3146102e65780631d3b32bc14610300575b600080fd5b6102546107fb565b60408051602080825283518183015283519192839290830191858101910280838360005b83811015610290578181015183820152602001610278565b505050509050019250505060405180910390f35b6102c1600480360360208110156102ba57600080fd5b503561085e565b005b6102c1600480360360408110156102d957600080fd5b5080359060200135610a3a565b6102ee610b2f565b60408051918252519081900360200190f35b6102ee6004803603602081101561031657600080fd5b50356001600160a01b0316610b35565b61032e610b54565b604080516001600160a01b039092168252519081900360200190f35b6102c16004803603602081101561036057600080fd5b5035610b63565b6102c16004803603602081101561037d57600080fd5b5035610c64565b61032e6004803603602081101561039a57600080fd5b5035610f61565b6103a9610f88565b604080519115158252519081900360200190f35b6102c1600480360360208110156103d357600080fd5b5035610f9e565b6102c1600480360360408110156103f057600080fd5b8135919081019060408101602082013564010000000081111561041257600080fd5b82018360208201111561042457600080fd5b8035906020019184602083028401116401000000008311171561044657600080fd5b91908080602002602001604051908101604052809392919081815260200183836020028082843760009201919091525092955061115a945050505050565b6103a96004803603604081101561049a57600080fd5b50803590602001356001600160a01b031661143a565b6102c1600480360360208110156104c657600080fd5b50356001600160a01b031661145a565b6104de611520565b604051808b81526020018a60028111156104f457fe5b60ff1681526020810199909952506040808901979097526060880195909552608087019390935260a086019190915260c085015260e0840152151561010083015251908190036101200192509050f35b6102c16004803603606081101561055a57600080fd5b506001600160a01b0381351690602081013590604001351515611548565b6102ee61164b565b610588611651565b60408051998a5260208a0198909852888801969096526060880194909452608087019290925260a086015260c085015260e084015261010083015251908190036101200190f35b6102c161166f565b6102ee600480360360208110156105ed57600080fd5b50356001600160a01b03166116fc565b6102ee611717565b6102c16004803603602081101561061b57600080fd5b81019060208101813564010000000081111561063657600080fd5b82018360208201111561064857600080fd5b8035906020019184602083028401116401000000008311171561066a57600080fd5b91908080602002602001604051908101604052809392919081815260200183836020028082843760009201919091525092955061171d945050505050565b6102c1600480360360208110156106be57600080fd5b503561177c565b6102c1600480360360208110156106db57600080fd5b5035611bae565b61032e611e5f565b6103a9611e6e565b6102c1611e7f565b6102c16004803603602081101561071057600080fd5b5035611ff1565b6102c161227f565b6102ee6123f6565b6102ee6123fc565b6103a9612402565b6102c16004803603602081101561074d57600080fd5b5035612418565b6103a96004803603602081101561076a57600080fd5b50356001600160a01b031661263b565b6102ee6004803603602081101561079057600080fd5b50356001600160a01b0316612659565b61032e612674565b6102c1612683565b6102c1600480360360208110156107c657600080fd5b50356001600160a01b03166127f8565b61032e600480360360208110156107ec57600080fd5b5035612844565b61032e612871565b6060601e80548060200260200160405190810160405280929190818152602001828054801561085357602002820191906000526020600020905b81546001600160a01b03168152600190910190602001808311610835575b505050505090505b90565b610866611e6e565b6108a15760405162461bcd60e51b81526004018080602001828103825260218152602001806136156021913960400191505060405180910390fd5b60018060105460ff1660028111156108b557fe5b146108f15760405162461bcd60e51b81526004018080602001828103825260278152602001806136366027913960400191505060405180910390fd5b6012545b601e54811080156109175750601254610914908463ffffffff61288016565b81105b15610a07576000601e828154811061092b57fe5b60009182526020808320909101546001600160a01b0316808352600c90915260409091205490915060ff1661096057506109ff565b600f5460009081526022602090815260408083206001600160a01b038516845290915281205460ff1690610993836116fc565b905081156109e45760006109a6826128d7565b905060006109ba828463ffffffff61291216565b6016549091506109d0908263ffffffff61288016565b6016556109dd8583612964565b50506109fb565b6014546109f7908263ffffffff61288016565b6014555b5050505b6001016108f5565b50601254610a1b908363ffffffff61288016565b6012819055601e5411610a36576010805460ff191660021790555b5050565b6001546023546040805163095ea7b360e01b81526001600160a01b039283166004820152602481018590529051919092169163095ea7b39160448083019260209291908290030181600087803b158015610a9357600080fd5b505af1158015610aa7573d6000803e3d6000fd5b505050506040513d6020811015610abd57600080fd5b505060235460408051630486618160e21b8152600481018590526024810184905290516001600160a01b039092169163121986049160448082019260009290919082900301818387803b158015610b1357600080fd5b505af1158015610b27573d6000803e3d6000fd5b505050505050565b601d5481565b6001600160a01b0381166000908152601a60205260409020545b919050565b6002546001600160a01b031681565b60008060105460ff166002811115610b7757fe5b14610bb35760405162461bcd60e51b81526004018080602001828103825260278152602001806136366027913960400191505060405180910390fd5b610c1733601e805480602002602001604051908101604052809291908181526020018280548015610c0d57602002820191906000526020600020905b81546001600160a01b03168152600190910190602001808311610bef575b5050505050612a5b565b610c525760405162461bcd60e51b815260040180806020018281038252602c8152602001806137b9602c913960400191505060405180910390fd5b6000610c5f338483611548565b505050565b610c6c611e6e565b610ca75760405162461bcd60e51b81526004018080602001828103825260218152602001806136156021913960400191505060405180910390fd5b60008060105460ff166002811115610cbb57fe5b14610cf75760405162461bcd60e51b81526004018080602001828103825260278152602001806136366027913960400191505060405180910390fd5b600454600f54600091610d2291610d139163ffffffff612aaf16565b6003549063ffffffff61288016565b9050804211610d625760405162461bcd60e51b81526004018080602001828103825260308152602001806138336030913960400191505060405180910390fd5b600f54602354604080516332401b5760e11b815290516001600160a01b039092169163648036ae91600480820192602092909190829003018186803b158015610daa57600080fd5b505afa158015610dbe573d6000803e3d6000fd5b505050506040513d6020811015610dd457600080fd5b50511015610e135760405162461bcd60e51b81526004018080602001828103825260308152602001806136906030913960400191505060405180910390fd5b6011545b601e5481108015610e395750601154610e36908563ffffffff61288016565b81105b15610f22576000601e8281548110610e4d57fe5b600091825260208083209190910154602354600f54604080516339d519c560e21b815260048101929092526001600160a01b039384166024830181905290519096508594939092169263e754671492604480840193829003018186803b158015610eb657600080fd5b505afa158015610eca573d6000803e3d6000fd5b505050506040513d6020811015610ee057600080fd5b505160215460009081526022602090815260408083206001600160a01b03909716835295905293909320805460ff191691909312151790915550600101610e17565b50601154610f36908463ffffffff61288016565b6011819055601e5411610c5f5750506021805460019081019091556010805460ff1916909117905550565b601e8181548110610f6e57fe5b6000918252602090912001546001600160a01b0316905081565b336000908152600c602052604090205460ff1690565b610fa6611e6e565b610fe15760405162461bcd60e51b81526004018080602001828103825260218152602001806136156021913960400191505060405180910390fd5b60008060105460ff166002811115610ff557fe5b146110315760405162461bcd60e51b81526004018080602001828103825260278152602001806136366027913960400191505060405180910390fd5b600082116110705760405162461bcd60e51b81526004018080602001828103825260248152602001806134f46024913960400191505060405180910390fd5b600154604080516323b872dd60e01b81523360048201523060248201526044810185905290516001600160a01b03909216916323b872dd916064808201926020929091908290030181600087803b1580156110ca57600080fd5b505af11580156110de573d6000803e3d6000fd5b505050506040513d60208110156110f457600080fd5b5051611140576040805162461bcd60e51b8152602060048201526016602482015275546f6b656e207472616e73666572206661696c65642160501b604482015290519081900360640190fd5b601f54611153908363ffffffff61288016565b601f555050565b6002546001600160a01b031633146111a35760405162461bcd60e51b81526004018080602001828103825260278152602001806137e56027913960400191505060405180910390fd5b60008060105460ff1660028111156111b757fe5b146111f35760405162461bcd60e51b81526004018080602001828103825260278152602001806136366027913960400191505060405180910390fd5b600454600f5460009161120f91610d139163ffffffff612aaf16565b905080421161124f5760405162461bcd60e51b81526004018080602001828103825260308152602001806138336030913960400191505060405180910390fd5b601e54601154611265908663ffffffff61288016565b11156112be57601e5483516011546112829163ffffffff61288016565b146112be5760405162461bcd60e51b815260040180806020018281038252603381526020018061365d6033913960400191505060405180910390fd5b60115460005b601e54821080156112e657506011546112e3908763ffffffff61288016565b82105b156113f8578481815181106112f757fe5b60200260200101516022600060215481526020019081526020016000206000601e858154811061132357fe5b6000918252602080832091909101546001600160a01b031683528201929092526040019020805460ff1916911515919091179055601e80547f69e514cdcec7511d4b905b7b81d960d84822e90a49c9ec4b9224c8f92a1378dc91908490811061138857fe5b9060005260206000200160009054906101000a90046001600160a01b03168683815181106113b257fe5b602002602001015160405180836001600160a01b03166001600160a01b03168152602001821515151581526020019250505060405180910390a1600191820191016112c4565b505060115461140d908563ffffffff61288016565b6011819055601e5411611434576021805460019081019091556010805460ff191690911790555b50505050565b602260209081526000928352604080842090915290825290205460ff1681565b6002546001600160a01b031633146114a35760405162461bcd60e51b81526004018080602001828103825260278152602001806137e56027913960400191505060405180910390fd5b6001600160a01b0381166114fe576040805162461bcd60e51b815260206004820152601d60248201527f4e6577204a75726920616464726573732063616e6e6f74206265203021000000604482015290519081900360640190fd5b600280546001600160a01b0319166001600160a01b0392909216919091179055565b600f5460105460115460125460135460145460155460165460175460185460ff98891698168a565b60006115548484612b12565b90508281101561157f576000611570848363ffffffff61291216565b905061157d858285612b7b565b505b6001546040805163a9059cbb60e01b81526001600160a01b038781166004830152602482018790529151919092169163a9059cbb9160448083019260209291908290030181600087803b1580156115d557600080fd5b505af11580156115e9573d6000803e3d6000fd5b505050506040513d60208110156115ff57600080fd5b5051611434576040805162461bcd60e51b8152602060048201526016602482015275546f6b656e207472616e73666572206661696c65642160501b604482015290519081900360640190fd5b60215481565b600354600454600554600654600754600854600954600a54600b5489565b611677611e6e565b6116b25760405162461bcd60e51b81526004018080602001828103825260218152602001806136156021913960400191505060405180910390fd5b600080546040516001600160a01b03909116907f8be0079c531659141344cd1fd0a4f28419497f9722a3daafe3b4186f6b6457e0908390a3600080546001600160a01b0319169055565b6001600160a01b03166000908152600e602052604090205490565b601e5490565b60005b8151811015610a3657601e82828151811061173757fe5b60209081029190910181015182546001808201855560009485529290932090920180546001600160a01b0319166001600160a01b039093169290921790915501611720565b60008060105460ff16600281111561179057fe5b146117cc5760405162461bcd60e51b81526004018080602001828103825260278152602001806136366027913960400191505060405180910390fd5b611831336019600301805480602002602001604051908101604052809291908181526020018280548015610c0d576020028201919060005260206000209081546001600160a01b03168152600190910190602001808311610bef575050505050612a5b565b80611899575061189933601e805480602002602001604051908101604052809291908181526020018280548015610c0d576020028201919060005260206000209081546001600160a01b03168152600190910190602001808311610bef575050505050612a5b565b6118d45760405162461bcd60e51b815260040180806020018281038252603c8152602001806135d9603c913960400191505060405180910390fd5b336000908152600d6020908152604080832054601a909252909120548361192c5760405162461bcd60e51b81526004018080602001828103825260248152602001806134f46024913960400191505060405180910390fd5b600a5461193f838363ffffffff61288016565b1061197b5760405162461bcd60e51b81526004018080602001828103825260448152602001806135706044913960600191505060405180910390fd5b600b54601d546020546119939163ffffffff61288016565b106119cf5760405162461bcd60e51b81526004018080602001828103825260428152602001806137776042913960600191505060405180910390fd5b60006119e1828663ffffffff61288016565b600a5490915085906119f9858463ffffffff61288016565b1115611a2457611a21611a12858563ffffffff61288016565b600a549063ffffffff61291216565b90505b6000611a36848363ffffffff61288016565b600b54601d546020549293509091611a65918491611a599163ffffffff61288016565b9063ffffffff61288016565b1115611a9757601d54602054611a9491611a85919063ffffffff61288016565b600b549063ffffffff61291216565b91505b600154604080516323b872dd60e01b81523360048201523060248201526044810185905290516001600160a01b03909216916323b872dd916064808201926020929091908290030181600087803b158015611af157600080fd5b505af1158015611b05573d6000803e3d6000fd5b505050506040513d6020811015611b1b57600080fd5b5051611b67576040805162461bcd60e51b8152602060048201526016602482015275546f6b656e207472616e73666572206661696c65642160501b604482015290519081900360640190fd5b6000611b79858463ffffffff61288016565b336000908152601a60205260409020819055601d54909150611ba1908463ffffffff61288016565b601d555050505050505050565b611bb6611e6e565b611bf15760405162461bcd60e51b81526004018080602001828103825260218152602001806136156021913960400191505060405180910390fd5b60028060105460ff166002811115611c0557fe5b14611c415760405162461bcd60e51b81526004018080602001828103825260278152602001806136366027913960400191505060405180910390fd5b601354611c6257611c50612be9565b6018805460ff19169115159190911790555b6013546000905b601e54611c7c828463ffffffff61291216565b1080611c985750601c54611c96828463ffffffff61291216565b105b8015611cb55750601354611cb2908563ffffffff61288016565b81105b15611e02576000611ccc828463ffffffff61291216565b601c54909150611ce390829063ffffffff61288016565b601e541115611d1657611d16601e8281548110611cfc57fe5b6000918252602090912001546001600160a01b0316612c24565b601e5481108015611d5f575060196002016000601e8381548110611d3657fe5b60009182526020808320909101546001600160a01b0316835282019290925260400190205460ff165b15611dc257600060196002016000601e8481548110611d7a57fe5b6000918252602080832091909101546001600160a01b031683528201929092526040019020805460ff1916911515919091179055611db781612ca8565b600190920191611df9565b601c54811015611df957611df960196003018281548110611ddf57fe5b6000918252602090912001546001600160a01b0316612d8a565b50600101611c69565b50601354611e28908290611e1c908663ffffffff61288016565b9063ffffffff61291216565b6013819055601e5411801590611e425750601c5460135410155b15610c5f57611e4f612e17565b611e57612f0e565b610c5f612f5f565b6000546001600160a01b031690565b6000546001600160a01b0316331490565b60008060105460ff166002811115611e9357fe5b14611ecf5760405162461bcd60e51b81526004018080602001828103825260278152602001806136366027913960400191505060405180910390fd5b611f34336019600301805480602002602001604051908101604052809291908181526020018280548015610c0d576020028201919060005260206000209081546001600160a01b03168152600190910190602001808311610bef575050505050612a5b565b80611f9c5750611f9c33601e805480602002602001604051908101604052809291908181526020018280548015610c0d576020028201919060005260206000209081546001600160a01b03168152600190910190602001808311610bef575050505050612a5b565b611fd75760405162461bcd60e51b815260040180806020018281038252603c8152602001806135d9603c913960400191505060405180910390fd5b50336000908152601960205260409020805460ff19169055565b611ff9611e6e565b6120345760405162461bcd60e51b81526004018080602001828103825260218152602001806136156021913960400191505060405180910390fd5b60008060105460ff16600281111561204857fe5b146120845760405162461bcd60e51b81526004018080602001828103825260278152602001806136366027913960400191505060405180910390fd5b81600061208f612f88565b9050600082116120d05760405162461bcd60e51b81526004018080602001828103825260258152602001806135b46025913960400191505060405180910390fd5b6000601f5411612127576040805162461bcd60e51b815260206004820152601f60248201527f4e6f2066756e647320617661696c61626c6520746f2077697468647261772100604482015290519081900360640190fd5b80600101601f541161216a5760405162461bcd60e51b81526004018080602001828103825260268152602001806137286026913960400191505060405180910390fd5b61217a818363ffffffff61288016565b601f54101561219957601f54612196908263ffffffff61291216565b91505b6001546040805163a9059cbb60e01b81523360048201526024810185905290516001600160a01b039092169163a9059cbb916044808201926020929091908290030181600087803b1580156121ed57600080fd5b505af1158015612201573d6000803e3d6000fd5b505050506040513d602081101561221757600080fd5b5051612263576040805162461bcd60e51b8152602060048201526016602482015275546f6b656e207472616e73666572206661696c65642160501b604482015290519081900360640190fd5b601f54612276908363ffffffff61291216565b601f5550505050565b6122e133601e805480602002602001604051908101604052809291908181526020018280548015610c0d576020028201919060005260206000209081546001600160a01b03168152600190910190602001808311610bef575050505050612a5b565b61231c5760405162461bcd60e51b815260040180806020018281038252602c8152602001806137b9602c913960400191505060405180910390fd5b60008060105460ff16600281111561233057fe5b1461236c5760405162461bcd60e51b81526004018080602001828103825260278152602001806136366027913960400191505060405180910390fd5b336000908152601b602052604090205460ff16156123d1576040805162461bcd60e51b815260206004820181905260248201527f5573657220616c7265616479206d61726b656420666f722072656d6f76616c21604482015290519081900360640190fd5b336000908152601b60205260409020805460ff191660011790556123f3611e7f565b50565b601f5481565b60205481565b3360009081526019602052604090205460ff1690565b61247d336019600301805480602002602001604051908101604052809291908181526020018280548015610c0d576020028201919060005260206000209081546001600160a01b03168152600190910190602001808311610bef575050505050612a5b565b156124b95760405162461bcd60e51b81526004018080602001828103825260328152602001806136f66032913960400191505060405180910390fd5b61251b33601e805480602002602001604051908101604052809291908181526020018280548015610c0d576020028201919060005260206000209081546001600160a01b03168152600190910190602001808311610bef575050505050612a5b565b156125575760405162461bcd60e51b815260040180806020018281038252602781526020018061380c6027913960400191505060405180910390fd5b60008060105460ff16600281111561256b57fe5b146125a75760405162461bcd60e51b81526004018080602001828103825260278152602001806136366027913960400191505060405180910390fd5b6009548210156125e85760405162461bcd60e51b81526004018080602001828103825260368152602001806136c06036913960400191505060405180910390fd5b601c80546001810182556000919091527f0e4562a10381dec21b205ed72637e6b1b523bdd0e4d4d50af5cd23dd4500a2110180546001600160a01b031916331790556126338261177c565b610a36612683565b6001600160a01b03166000908152601b602052604090205460ff1690565b6001600160a01b03166000908152600d602052604090205490565b6023546001600160a01b031681565b60008060105460ff16600281111561269757fe5b146126d35760405162461bcd60e51b81526004018080602001828103825260278152602001806136366027913960400191505060405180910390fd5b612738336019600301805480602002602001604051908101604052809291908181526020018280548015610c0d576020028201919060005260206000209081546001600160a01b03168152600190910190602001808311610bef575050505050612a5b565b806127a057506127a033601e805480602002602001604051908101604052809291908181526020018280548015610c0d576020028201919060005260206000209081546001600160a01b03168152600190910190602001808311610bef575050505050612a5b565b6127db5760405162461bcd60e51b815260040180806020018281038252603c8152602001806135d9603c913960400191505060405180910390fd5b50336000908152601960205260409020805460ff19166001179055565b612800611e6e565b61283b5760405162461bcd60e51b81526004018080602001828103825260218152602001806136156021913960400191505060405180910390fd5b6123f381612fd2565b60006019600301828154811061285657fe5b6000918252602090912001546001600160a01b031692915050565b6001546001600160a01b031681565b6000828201838110156128ce576040805162461bcd60e51b815260206004820152601160248201527053616665416464206f766572666c6f772160781b604482015290519081900360640190fd5b90505b92915050565b60006128d160646129066128f96003800154606461288090919063ffffffff16565b859063ffffffff612aaf16565b9063ffffffff61308116565b60008282111561295e576040805162461bcd60e51b81526020600482015260126024820152715361666553756220756e646572666c6f772160701b604482015290519081900360640190fd5b50900390565b6001600160a01b0382166000908152600d6020908152604080832054600e90925282205490919061299b908363ffffffff61291216565b6001600160a01b0385166000908152601a6020526040812054919250906129cf908390611e1c90879063ffffffff61288016565b6001600160a01b0386166000908152600d60209081526040808320849055600e8252808320849055601a9091528120559050828111612a2f57612a2a612a1b848363ffffffff61291216565b6020549063ffffffff61291216565b612a51565b612a51612a42828563ffffffff61291216565b6020549063ffffffff61288016565b6020555050505050565b600080805b8351811015612aa757846001600160a01b0316848281518110612a7f57fe5b60200260200101516001600160a01b03161415612a9f5760019150612aa7565b600101612a60565b509392505050565b600082612abe575060006128d1565b82820282848281612acb57fe5b04146128ce576040805162461bcd60e51b8152602060048201526011602482015270536166654d756c206f766572666c6f772160781b604482015290519081900360640190fd5b600080612b1e84610b35565b905080831015612b5a57612b38818463ffffffff61291216565b6001600160a01b0385166000908152601a6020526040902055508190506128d1565b6001600160a01b0384166000908152601a6020526040812055905092915050565b6000612b8684612659565b90506000612b9a828563ffffffff61291216565b90508215612bbd57602054612bb5908563ffffffff61291216565b602055612bc7565b612bc785826130eb565b6001600160a01b039094166000908152600d6020526040902093909355505050565b601454600090612bfb5750600161085b565b601454601654600091612c199161290690606463ffffffff612aaf16565b600754111591505090565b600f5460009081526022602090815260408083206001600160a01b038516845290915290205460ff1680158015612c7357506001600160a01b0382166000908152600c602052604090205460ff165b15612c9f576000612c83836116fc565b90506000612c9082613199565b9050612c9c8482612964565b50505b610a36826131e9565b6000601e8281548110612cb757fe5b60009182526020822001546001600160a01b03169150612ce2612cd983610b35565b611a5984612659565b90506001612cf1838383611548565b601e5460011015612d7057601e8054612d1190600163ffffffff61291216565b81548110612d1b57fe5b600091825260209091200154601e80546001600160a01b039092169186908110612d4157fe5b9060005260206000200160006101000a8154816001600160a01b0302191690836001600160a01b031602179055505b601e805490612d8390600019830161342c565b5050505050565b601e805460018101825560009182527f50bb669a95c7b50b7e8a6f09454034b2b14cf2b85c730dca9a539ca82cb6e3500180546001600160a01b0319166001600160a01b038416179055612ddf908290612964565b6001600160a01b0316600090815260196020908152604080832054600c909252909120805460ff191660ff9092161515919091179055565b6001546023546017546040805163095ea7b360e01b81526001600160a01b039384166004820152602481019290925251919092169163095ea7b39160448083019260209291908290030181600087803b158015612e7357600080fd5b505af1158015612e87573d6000803e3d6000fd5b505050506040513d6020811015612e9d57600080fd5b5050602354600f5460175460408051630486618160e21b815260048101939093526024830191909152516001600160a01b039092169163121986049160448082019260009290919082900301818387803b158015612efa57600080fd5b505af1158015611434573d6000803e3d6000fd5b60185460ff1615612f5d57600854601454600091612f3991606491612906919063ffffffff612aaf16565b601454909150600090612f52908363ffffffff61291216565b9050610a36816132a1565b565b600f54612f6e906001016132cd565b612f7661339b565b612f7e6133e7565b6017819055601655565b600080612fb5612fa66003800154606461288090919063ffffffff16565b6020549063ffffffff612aaf16565b9050612fcc6020548261291290919063ffffffff16565b91505090565b6001600160a01b038116613026576040805162461bcd60e51b81526020600482015260166024820152754e6577206f776e65722063616e6e6f7420626520302160501b604482015290519081900360640190fd5b600080546040516001600160a01b03808516939216917f8be0079c531659141344cd1fd0a4f28419497f9722a3daafe3b4186f6b6457e091a3600080546001600160a01b0319166001600160a01b0392909216919091179055565b60008082116130d7576040805162461bcd60e51b815260206004820152601b60248201527f536166654469762063616e6e6f74206469766964652062792030210000000000604482015290519081900360640190fd5b60008284816130e257fe5b04949350505050565b60006130f6836116fc565b905060006131038261340d565b90506000613117838363ffffffff61291216565b9050808410156131585760405162461bcd60e51b815260040180806020018281038252602e815260200180613518602e913960400191505060405180910390fd5b600954841015612d835760405162461bcd60e51b815260040180806020018281038252602a815260200180613546602a913960400191505060405180910390fd5b60185460009060ff16156131b7576131b08261340d565b9050610b4f565b6014546016546131e1826129066131d4828563ffffffff61291216565b879063ffffffff612aaf16565b949350505050565b60006131f482612659565b6001600160a01b0383166000908152600c602052604090205490915060ff16613268576001600160a01b0382166000908152601a6020526040902054613240908263ffffffff61288016565b6001600160a01b0383166000908152600d6020908152604080832093909355601a9052908120555b506001600160a01b0316600090815260196020908152604080832054600c909252909120805460ff191660ff9092161515919091179055565b6016546000906132b7908363ffffffff61291216565b601f54909150611153908263ffffffff61291216565b60408051610140810182528281526000602080830182905282840182905260608084018390526080840183905260a0840183905260c0840183905260e084018390526101008401839052610120909301829052600f8590556010805460ff199081169091556011839055601283905560138390556014839055601583905560168390556017839055601880549091169055835180850183815293810194859052838152908101919091529051909160199161338a91601c91613450565b506020820151816004015590505050565b60006133a5612f88565b905080601f54116123f35760405162461bcd60e51b815260040180806020018281038252602981526020018061374e6029913960400191505060405180910390fd5b60006134086064612906600360020154602054612aaf90919063ffffffff16565b905090565b60006128d1606461290660036005015485612aaf90919063ffffffff16565b815481835581811115610c5f57600083815260209020610c5f9181019083016134b5565b8280548282559060005260206000209081019282156134a5579160200282015b828111156134a557825182546001600160a01b0319166001600160a01b03909116178255602090920191600190910190613470565b506134b19291506134cf565b5090565b61085b91905b808211156134b157600081556001016134bb565b61085b91905b808211156134b15780546001600160a01b03191681556001016134d556fe506c65617365207061737320616e20616d6f756e7420686967686572207468616e20302143616e6e6f74207769746864726177206d6f7265207468616e2073616665207374616b696e6720616d6f756e742143616e6e6f74207769746864726177206d6f7265207468616e206d696e5374616b65506572557365722143616e6e6f7420616464206d6f72652066756e647320666f7220757365722c206265636175736520746865206d6178207065722075736572206973207265616368656421506c65617365207061737320616e20616d6f756e7420686967686572207468616e203021214f6e6c7920706f6f6c207573657273206f722070656e64696e6720706f6f6c2075736572732063616e2075736520746869732066756e6374696f6e214f6e6c79206f776e65722063616e2075736520746869732066756e6374696f6e2146756e6374696f6e2063616e6e6f742062652063616c6c656420617420746869732074696d6521436f6d706c69616e63652064617461206c656e677468206d757374206d6174636820706f6f6c2075736572732061727261792154686520726573756c747320666f722074686520726f756e6420617265206e6f7420617661696c61626c652079657421506c656173652070617373206174206c6561737420746865206d696e207374616b6520706572207573657220617320616d6f756e74214f6e6c79206e6f6e2d70656e64696e6720706f6f6c2075736572732063616e2075736520746869732066756e6374696f6e2143616e6e6f742077697468647261772062656c6f77206d696e206f776e65722066756e647321506f6f6c206973206e6f742073756666696369656e746c792066756e646564206279206f776e65722143616e6e6f7420616464206d6f72652066756e647320746f20706f6f6c2c206265636175736520746865206d617820696e20706f6f6c2069732072656163686564214f6e6c7920616464656420706f6f6c2075736572732063616e2075736520746869732066756e6374696f6e214f6e6c79206a757269416464726573732063616e2075736520746869732066756e6374696f6e214f6e6c79206e6f6e2d6d656d626572732063616e2075736520746869732066756e6374696f6e2143616e206f6e6c7920616464206e6577206461746120616674657220656e64206f6620706572696f644c656e67746821a265627a7a72305820c601775569d82f1097f6f51a177f96015dc98c7a4153196a55df2bc54aee180264736f6c634300050a0032436f6d706c69616e74206761696e2070657263656e74616765206d7573742062652061206e756d626572206265747765656e203020616e6420313030214665652070657263656e74616765206d7573742062652061206e756d626572206265747765656e203020616e6420313030214d6178206e6f6e2d636f6d706c69616e742070656e616c74792070657263656e74616765206d7573742062652061206e756d626572206265747765656e203020616e6420313030214d6178207374616b652070657220757365722063616e6e6f742062652030210053746172742074696d65206d75737420626520696e207468652066757475726521",
  "source": "pragma solidity 0.5.10;\r\n\r\nimport \"./JuriStakingPoolWithOracle.sol\";\r\n\r\ncontract JuriStakingPoolWithOracleMock is JuriStakingPoolWithOracle {\r\n    constructor(\r\n        JuriNetworkProxy _proxy,\r\n        IERC20 _token,\r\n        uint256 _startTime,\r\n        uint256 _periodLength,\r\n        uint256 _feePercentage,\r\n        uint256 _compliantGainPercentage,\r\n        uint256 _maxNonCompliantPenaltyPercentage,\r\n        uint256 _minStakePerUser,\r\n        uint256 _maxStakePerUser,\r\n        uint256 _maxTotalStake,\r\n        address _juriAddress\r\n    ) JuriStakingPoolWithOracle(\r\n        _proxy,\r\n        _token,\r\n        _startTime,\r\n        _periodLength,\r\n        _feePercentage,\r\n        _compliantGainPercentage,\r\n        _maxNonCompliantPenaltyPercentage,\r\n        _minStakePerUser,\r\n        _maxStakePerUser,\r\n        _maxTotalStake,\r\n        _juriAddress\r\n    ) public { }\r\n\r\n    function insertUsers(address[] memory _users) public {\r\n        for (uint256 i = 0; i < _users.length; i++) {\r\n            users.push(_users[i]);\r\n        }\r\n    }\r\n\r\n    function handleJuriFees(uint256 _roundIndex, uint256 _juriFees) external {\r\n        token.approve(address(proxy), _juriFees);\r\n        proxy.handleJuriFees(_roundIndex, _juriFees);\r\n    }\r\n}",
  "sourcePath": "C:/Users/mail/Personal/Juri/JuriOracle/contracts/JuriStakingPoolWithOracleMock.sol",
  "compiler": {
    "name": "solc",
    "version": "0.5.10+commit.5a6ea5b1.Emscripten.clang"
  },
  "schemaVersion": "3.0.14",
  "updatedAt": "2019-09-09T04:41:28.359Z",
  "devdoc": {
    "methods": {
      "addMoreStakeForNextPeriod(uint256)": {
        "details": "Add more stake for user once next staking period starts.\r",
        "params": {
          "_amount": "The amount to be added as stake.\r"
        }
      },
      "addOwnerFunds(uint256)": {
        "details": "Add owner funds to pool.\r"
      },
      "addUserInNextPeriod(uint256)": {
        "details": "Add user to pool once next staking period starts.\r",
        "params": {
          "_amount": "The amount to be added as stake for the user.\r"
        }
      },
      "addWasCompliantDataForUsers(uint256,bool[])": {
        "details": "Add user's compliancy data for current or past periods.\r",
        "params": {
          "_updateIterationCount": "The number defining the max for how much compliance\r data will be passed in a single function call to prevent out-of-gas errors.\r",
          "_wasCompliant": "The boolean array to indicate compliancy.\r"
        }
      },
      "checkNewAddedComplianceData(uint256)": {
        "details": "Add user's compliancy data for current or past periods.\r",
        "params": {
          "_updateIterationCount": "The number defining the max for how much compliance\r data will be passed in a single function call to prevent out-of-gas errors.\r"
        }
      },
      "firstUpdateStakeForNextXAmountOfUsers(uint256)": {
        "details": "First part for updating stakes of users for next X users.\r",
        "params": {
          "_updateIterationCount": "The number defining how many users should\r be updated in a single function call to prevent out-of-gas errors.\r"
        }
      },
      "getAdditionalStakeForUserInNextPeriod(address)": {
        "details": "Get added stake for user.\r",
        "return": "The amount of stake added in the next round for user.\r"
      },
      "getIsCurrentRoundStaking()": {
        "details": "Read if calling user is staking in the current round.\r",
        "return": "The boolean indicator if user is staking in the current round.\r"
      },
      "getIsLeavingNextPeriodForUser(address)": {
        "details": "Read if user will be removed in the next round.\r",
        "params": {
          "_user": "The user to be checked.\r"
        },
        "return": "The boolean indicator showing if user is leaving next round.\r"
      },
      "getIsNextRoundStaking()": {
        "details": "Read if calling user is staking in the next round.\r",
        "return": "The boolean indicator if user will be staking next round.\r"
      },
      "getPoolUserCount()": {
        "details": "Get the total pool user count.\r"
      },
      "getStakeForUserAtRoundStart(address)": {
        "details": "Get stake for user that will be used in current staking round.\r",
        "return": "The amount of stake used in the current round for user.\r"
      },
      "getStakeForUserInCurrentPeriod(address)": {
        "details": "Get current stake for user.\r",
        "return": "The amount of stake in the current round for user.\r"
      },
      "getUserToBeAddedNextPeriod(uint256)": {
        "details": "Read users to be added in the next round.\r",
        "params": {
          "_index": "The index in the array of pending user additions.\r"
        },
        "return": "The user to be added.\r"
      },
      "getUsers()": {
        "details": "Read users in pool.\r",
        "return": "The users in the pool.\r"
      },
      "isOwner()": {
        "return": "true if `msg.sender` is the owner of the contract.\r"
      },
      "optInForStakingForNextPeriod()": {
        "details": "Opt in for staking for user once next staking period starts.\r"
      },
      "optOutOfStakingForNextPeriod()": {
        "details": "Opt out of staking for user once next staking period starts.\r"
      },
      "owner()": {
        "return": "the address of the owner.\r"
      },
      "removeUserInNextPeriod()": {
        "details": "Remove user from pool once next staking period starts.\r"
      },
      "renounceOwnership()": {
        "details": "Allows the current owner to relinquish control of the contract.\r It will not be possible to call the functions with the `onlyOwner`\r modifier anymore.\r"
      },
      "secondUpdateStakeForNextXAmountOfUsers(uint256)": {
        "details": "Second part for updating stakes of users for next X users.\r",
        "params": {
          "_updateIterationCount": "The number defining how many users should\r be updated in a single function call to prevent out-of-gas errors.\r"
        }
      },
      "setJuriAddress(address)": {
        "details": "Set new Juri address.\r",
        "params": {
          "_newJuriAddress": "The new Juri address to be stored.\r"
        }
      },
      "transferOwnership(address)": {
        "details": "Allows the current owner to transfer control of the contract to a newOwner.\r",
        "params": {
          "newOwner": "The address to transfer ownership to.\r"
        }
      },
      "withdraw(uint256)": {
        "details": "Withdraw user stake funds from pool. Use funds added for next period\r first. Keep enough funds to pay non-compliant penalty if required.\r"
      },
      "withdrawOwnerFunds(uint256)": {
        "details": "Withdraw owner funds from pool.\r",
        "params": {
          "_amount": "The amount to withdraw.\r"
        }
      }
    }
  },
  "userdoc": {
    "methods": {
      "renounceOwnership()": {
        "notice": "Renouncing ownership will leave the contract without an owner,\r thereby removing any functionality that is only available to the owner.\r"
      }
    }
  }
}