{
  "contractName": "JuriBonding",
  "abi": [
    {
      "constant": true,
      "inputs": [
        {
          "name": "",
          "type": "address"
        }
      ],
      "name": "bondedStakes",
      "outputs": [
        {
          "name": "oldStake",
          "type": "uint256"
        },
        {
          "name": "newStake",
          "type": "uint256"
        },
        {
          "name": "afterRoundId",
          "type": "uint256"
        }
      ],
      "payable": false,
      "stateMutability": "view",
      "type": "function"
    },
    {
      "constant": true,
      "inputs": [
        {
          "name": "",
          "type": "uint256"
        },
        {
          "name": "",
          "type": "address"
        }
      ],
      "name": "changedStakeInRound",
      "outputs": [
        {
          "name": "",
          "type": "bool"
        }
      ],
      "payable": false,
      "stateMutability": "view",
      "type": "function"
    },
    {
      "constant": true,
      "inputs": [],
      "name": "notRevealPenalty",
      "outputs": [
        {
          "name": "",
          "type": "uint256"
        }
      ],
      "payable": false,
      "stateMutability": "view",
      "type": "function"
    },
    {
      "constant": true,
      "inputs": [
        {
          "name": "",
          "type": "address"
        }
      ],
      "name": "allowedWithdrawalAmounts",
      "outputs": [
        {
          "name": "amount",
          "type": "uint256"
        },
        {
          "name": "minRoundIndex",
          "type": "uint256"
        }
      ],
      "payable": false,
      "stateMutability": "view",
      "type": "function"
    },
    {
      "constant": true,
      "inputs": [
        {
          "name": "",
          "type": "uint256"
        },
        {
          "name": "",
          "type": "address"
        },
        {
          "name": "",
          "type": "uint256"
        }
      ],
      "name": "hasBeenSlashed",
      "outputs": [
        {
          "name": "",
          "type": "bool"
        }
      ],
      "payable": false,
      "stateMutability": "view",
      "type": "function"
    },
    {
      "constant": true,
      "inputs": [],
      "name": "totalBonded",
      "outputs": [
        {
          "name": "",
          "type": "uint256"
        }
      ],
      "payable": false,
      "stateMutability": "view",
      "type": "function"
    },
    {
      "constant": true,
      "inputs": [],
      "name": "juriFoundationFunds",
      "outputs": [
        {
          "name": "",
          "type": "uint256"
        }
      ],
      "payable": false,
      "stateMutability": "view",
      "type": "function"
    },
    {
      "constant": true,
      "inputs": [],
      "name": "offlinePenalty",
      "outputs": [
        {
          "name": "",
          "type": "uint256"
        }
      ],
      "payable": false,
      "stateMutability": "view",
      "type": "function"
    },
    {
      "constant": false,
      "inputs": [],
      "name": "renounceOwnership",
      "outputs": [],
      "payable": false,
      "stateMutability": "nonpayable",
      "type": "function"
    },
    {
      "constant": true,
      "inputs": [],
      "name": "owner",
      "outputs": [
        {
          "name": "",
          "type": "address"
        }
      ],
      "payable": false,
      "stateMutability": "view",
      "type": "function"
    },
    {
      "constant": true,
      "inputs": [],
      "name": "isOwner",
      "outputs": [
        {
          "name": "",
          "type": "bool"
        }
      ],
      "payable": false,
      "stateMutability": "view",
      "type": "function"
    },
    {
      "constant": true,
      "inputs": [
        {
          "name": "",
          "type": "uint256"
        }
      ],
      "name": "totalNodesCount",
      "outputs": [
        {
          "name": "",
          "type": "uint256"
        }
      ],
      "payable": false,
      "stateMutability": "view",
      "type": "function"
    },
    {
      "constant": true,
      "inputs": [],
      "name": "juriFoundation",
      "outputs": [
        {
          "name": "",
          "type": "address"
        }
      ],
      "payable": false,
      "stateMutability": "view",
      "type": "function"
    },
    {
      "constant": true,
      "inputs": [],
      "name": "incorrectResultPenalty",
      "outputs": [
        {
          "name": "",
          "type": "uint256"
        }
      ],
      "payable": false,
      "stateMutability": "view",
      "type": "function"
    },
    {
      "constant": true,
      "inputs": [
        {
          "name": "",
          "type": "uint256"
        }
      ],
      "name": "stakingNodesAddressCount",
      "outputs": [
        {
          "name": "",
          "type": "uint256"
        }
      ],
      "payable": false,
      "stateMutability": "view",
      "type": "function"
    },
    {
      "constant": true,
      "inputs": [],
      "name": "minStakePerNode",
      "outputs": [
        {
          "name": "",
          "type": "uint256"
        }
      ],
      "payable": false,
      "stateMutability": "view",
      "type": "function"
    },
    {
      "constant": true,
      "inputs": [],
      "name": "proxy",
      "outputs": [
        {
          "name": "",
          "type": "address"
        }
      ],
      "payable": false,
      "stateMutability": "view",
      "type": "function"
    },
    {
      "constant": false,
      "inputs": [
        {
          "name": "newOwner",
          "type": "address"
        }
      ],
      "name": "transferOwnership",
      "outputs": [],
      "payable": false,
      "stateMutability": "nonpayable",
      "type": "function"
    },
    {
      "constant": true,
      "inputs": [],
      "name": "incorrectDissentPenalty",
      "outputs": [
        {
          "name": "",
          "type": "uint256"
        }
      ],
      "payable": false,
      "stateMutability": "view",
      "type": "function"
    },
    {
      "constant": true,
      "inputs": [],
      "name": "token",
      "outputs": [
        {
          "name": "",
          "type": "address"
        }
      ],
      "payable": false,
      "stateMutability": "view",
      "type": "function"
    },
    {
      "inputs": [
        {
          "name": "_proxy",
          "type": "address"
        },
        {
          "name": "_token",
          "type": "address"
        },
        {
          "name": "_juriFoundation",
          "type": "address"
        },
        {
          "name": "_minStakePerNode",
          "type": "uint256"
        },
        {
          "name": "_offlinePenalty",
          "type": "uint256"
        },
        {
          "name": "_notRevealPenalty",
          "type": "uint256"
        },
        {
          "name": "_incorrectResultPenalty",
          "type": "uint256"
        },
        {
          "name": "_incorrectDissentPenalty",
          "type": "uint256"
        }
      ],
      "payable": false,
      "stateMutability": "nonpayable",
      "type": "constructor"
    },
    {
      "anonymous": false,
      "inputs": [
        {
          "indexed": false,
          "name": "roundIndex",
          "type": "uint256"
        },
        {
          "indexed": false,
          "name": "from",
          "type": "address"
        },
        {
          "indexed": false,
          "name": "to",
          "type": "address"
        },
        {
          "indexed": false,
          "name": "penalty",
          "type": "uint256"
        }
      ],
      "name": "SlashedStake",
      "type": "event"
    },
    {
      "anonymous": false,
      "inputs": [
        {
          "indexed": true,
          "name": "previousOwner",
          "type": "address"
        },
        {
          "indexed": true,
          "name": "newOwner",
          "type": "address"
        }
      ],
      "name": "OwnershipTransferred",
      "type": "event"
    },
    {
      "constant": false,
      "inputs": [
        {
          "name": "_toSlashNode",
          "type": "address"
        },
        {
          "name": "_dissentedUser",
          "type": "address"
        }
      ],
      "name": "slashStakeForBeingOffline",
      "outputs": [],
      "payable": false,
      "stateMutability": "nonpayable",
      "type": "function"
    },
    {
      "constant": false,
      "inputs": [
        {
          "name": "_toSlashNode",
          "type": "address"
        },
        {
          "name": "_notRevealedUser",
          "type": "address"
        }
      ],
      "name": "slashStakeForNotRevealing",
      "outputs": [],
      "payable": false,
      "stateMutability": "nonpayable",
      "type": "function"
    },
    {
      "constant": false,
      "inputs": [
        {
          "name": "_toSlashNode",
          "type": "address"
        },
        {
          "name": "_incorrectResultUser",
          "type": "address"
        }
      ],
      "name": "slashStakeForIncorrectResult",
      "outputs": [],
      "payable": false,
      "stateMutability": "nonpayable",
      "type": "function"
    },
    {
      "constant": false,
      "inputs": [
        {
          "name": "_toSlashNode",
          "type": "address"
        },
        {
          "name": "_incorrectDissentUser",
          "type": "address"
        }
      ],
      "name": "slashStakeForIncorrectDissenting",
      "outputs": [],
      "payable": false,
      "stateMutability": "nonpayable",
      "type": "function"
    },
    {
      "constant": false,
      "inputs": [],
      "name": "withdrawAllowedStakes",
      "outputs": [],
      "payable": false,
      "stateMutability": "nonpayable",
      "type": "function"
    },
    {
      "constant": false,
      "inputs": [
        {
          "name": "_amount",
          "type": "uint256"
        }
      ],
      "name": "bondStake",
      "outputs": [],
      "payable": false,
      "stateMutability": "nonpayable",
      "type": "function"
    },
    {
      "constant": false,
      "inputs": [
        {
          "name": "_amount",
          "type": "uint256"
        }
      ],
      "name": "unbondStake",
      "outputs": [],
      "payable": false,
      "stateMutability": "nonpayable",
      "type": "function"
    },
    {
      "constant": false,
      "inputs": [
        {
          "name": "_amount",
          "type": "uint256"
        }
      ],
      "name": "withdrawJuriFoundationStake",
      "outputs": [],
      "payable": false,
      "stateMutability": "nonpayable",
      "type": "function"
    },
    {
      "constant": false,
      "inputs": [
        {
          "name": "_newRoundIndex",
          "type": "uint256"
        }
      ],
      "name": "moveToNextRound",
      "outputs": [],
      "payable": false,
      "stateMutability": "nonpayable",
      "type": "function"
    },
    {
      "constant": true,
      "inputs": [
        {
          "name": "_node",
          "type": "address"
        }
      ],
      "name": "getBondedStakeOfNode",
      "outputs": [
        {
          "name": "",
          "type": "uint256"
        }
      ],
      "payable": false,
      "stateMutability": "view",
      "type": "function"
    },
    {
      "constant": true,
      "inputs": [],
      "name": "getAllStakingNodes",
      "outputs": [
        {
          "name": "",
          "type": "address[]"
        }
      ],
      "payable": false,
      "stateMutability": "view",
      "type": "function"
    },
    {
      "constant": true,
      "inputs": [
        {
          "name": "_nodeIndex",
          "type": "uint256"
        },
        {
          "name": "_nodesCount",
          "type": "uint256"
        }
      ],
      "name": "receiveNodesAtIndex",
      "outputs": [
        {
          "name": "",
          "type": "address[]"
        }
      ],
      "payable": false,
      "stateMutability": "view",
      "type": "function"
    }
  ],
  "bytecode": "0x608060405234801561001057600080fd5b50604051613358380380613358833981810160405261010081101561003457600080fd5b50805160208201516040808401516060850151608086015160a087015160c088015160e090980151600080546001600160a01b031916331780825596519899979895979496939592949391926001600160a01b0392909216917f8be0079c531659141344cd1fd0a4f28419497f9722a3daafe3b4186f6b6457e0908290a3600180546001600160a01b03199081166001600160a01b039a8b1617909155600280548216988a1698909817909755600480549097169590971694909417909455600d91909155600e55600f919091556010556011556000600581905561323990819061011f90396000f3fe608060405234801561001057600080fd5b50600436106101f05760003560e01c80638f32d59b1161010f578063d57632ea116100a2578063ec55688911610071578063ec55688914610579578063f2fde38b14610581578063f5dede21146105a7578063fc0c546a146105af576101f0565b8063d57632ea1461052f578063d815b4c61461054c578063dd95dd4b14610554578063e5f95a9914610571576101f0565b8063c070bd2b116100de578063c070bd2b146104ce578063c35da4be146104f1578063c745c5331461051f578063d42e9cee14610527576101f0565b80638f32d59b1461046f578063a2aadc0314610477578063a43fa4ab14610494578063b641dd5a146104b1576101f0565b80634d5e8f991161018757806379015f431161015657806379015f43146103c957806386ab6a54146103f75780638da5cb5b146104255780638e4179db14610449576101f0565b80634d5e8f991461038357806350d4074b1461038b57806364630e5f14610393578063715018a6146103c1576101f0565b80633be53609116101c35780633be53609146102d25780633ff368021461030457806344c170701461035c57806344d96e951461037b576101f0565b80630831756a146101f5578063097a389e146102395780630d0ce700146102795780632e95489714610293575b600080fd5b61021b6004803603602081101561020b57600080fd5b50356001600160a01b03166105b7565b60408051938452602084019290925282820152519081900360600190f35b6102656004803603604081101561024f57600080fd5b50803590602001356001600160a01b03166105d8565b604080519115158252519081900360200190f35b6102816105f8565b60408051918252519081900360200190f35b6102b9600480360360208110156102a957600080fd5b50356001600160a01b03166105fe565b6040805192835260208301919091528051918290030190f35b610265600480360360608110156102e857600080fd5b508035906001600160a01b036020820135169060400135610617565b61030c61063d565b60408051602080825283518183015283519192839290830191858101910280838360005b83811015610348578181015183820152602001610330565b505050509050019250505060405180910390f35b6103796004803603602081101561037257600080fd5b50356107d8565b005b6102816108d1565b6102816108d7565b6102816108dd565b610379600480360360408110156103a957600080fd5b506001600160a01b03813581169160200135166108e3565b610379610c5a565b610379600480360360408110156103df57600080fd5b506001600160a01b0381358116916020013516610ce7565b6103796004803603604081101561040d57600080fd5b506001600160a01b038135811691602001351661100e565b61042d61136f565b604080516001600160a01b039092168252519081900360200190f35b6102816004803603602081101561045f57600080fd5b50356001600160a01b031661137e565b610265611461565b6103796004803603602081101561048d57600080fd5b5035611472565b610281600480360360208110156104aa57600080fd5b50356118ca565b610379600480360360208110156104c757600080fd5b50356118dc565b61030c600480360360408110156104e457600080fd5b5080359060200135611a05565b6103796004803603604081101561050757600080fd5b506001600160a01b0381358116916020013516611b94565b61042d611f8d565b610281611f9c565b6102816004803603602081101561054557600080fd5b5035611fa2565b610379611fb4565b6103796004803603602081101561056a57600080fd5b5035612197565b610281612608565b61042d61260e565b6103796004803603602081101561059757600080fd5b50356001600160a01b031661261d565b61028161266c565b61042d612672565b60096020526000908152604090208054600182015460029092015490919083565b600b60209081526000928352604080842090915290825290205460ff1681565b600f5481565b6006602052600090815260409020805460019091015482565b600a60209081526000938452604080852082529284528284209052825290205460ff1681565b6060600061064b6003612681565b905060008111610698576040805162461bcd60e51b81526020600482015260136024820152724e6f206e6f64657320617661696c61626c652160681b604482015290519081900360640190fd5b6060816040519080825280602002602001820160405280156106c4578160200160208202803883390190505b50600160009081527f3617319a054d772f909f7c479a2cebe5066e836a939412e32403c99029b92eff6020527ff5d2b9d7b7dcf31fafb527f48cb641b3e286ba85117ea973378ae75f2b0f27c95482519293506001600160a01b03169183919061072a57fe5b6001600160a01b039092166020928302919091019091015260015b828110156107d157600360008361076384600163ffffffff6126c016565b8151811061076d57fe5b6020908102919091018101516001600160a01b039081168352828201939093526040918201600090812060018252909152205483519116908390839081106107b157fe5b6001600160a01b0390921660209283029190910190910152600101610745565b5091505090565b6107e0611461565b61081b5760405162461bcd60e51b81526004018080602001828103825260218152602001806130156021913960400191505060405180910390fd5b600081815260086020526040902054610857576008600061084383600163ffffffff6126c016565b815260200190815260200160002054610867565b6000818152600860205260409020545b6000828152600860209081526040808320939093556007905220546108af576007600061089b83600163ffffffff6126c016565b8152602001908152602001600020546108bf565b6000818152600760205260409020545b60009182526007602052604090912055565b600c5481565b60055481565b600e5481565b600154604080516316fd755360e21b815290516006926001600160a01b031691635bf5d54c916004808301926020929190829003018186803b15801561092857600080fd5b505afa15801561093c573d6000803e3d6000fd5b505050506040513d602081101561095257600080fd5b5051600681111561095f57fe5b1461099f576040805162461bcd60e51b815260206004820181905260248201526000805160206131b0833981519152604482015290519081900360640190fd5b600154604080516332401b5760e11b815290516000926001600160a01b03169163648036ae916004808301926020929190829003018186803b1580156109e457600080fd5b505afa1580156109f8573d6000803e3d6000fd5b505050506040513d6020811015610a0e57600080fd5b50516000818152600a602090815260408083206001600160a01b0387168452825280832083805290915290205490915060ff1615610a7d5760405162461bcd60e51b815260040180806020018281038252603481526020018061317c6034913960400191505060405180910390fd5b6000818152600a602090815260408083206001600160a01b038087168086529184528285208580528452828520805460ff1916600190811790915554835163033c01ad60e31b815260048101889052602481019390935292519216926319e00d6892604480840193829003018186803b158015610af957600080fd5b505afa158015610b0d573d6000803e3d6000fd5b505050506040513d6020811015610b2357600080fd5b5051600154604080516396623d1960e01b8152600481018690526001600160a01b0388811660248301528781166044830152915193945060009391909216916396623d19916064808301926020929190829003018186803b158015610b8757600080fd5b505afa158015610b9b573d6000803e3d6000fd5b505050506040513d6020811015610bb157600080fd5b5051905081610bf15760405162461bcd60e51b8152600401808060200182810382526022815260200180612e7d6022913960400191505060405180910390fd5b8015610c44576040805162461bcd60e51b815260206004820181905260248201527f54686520706173736564206e6f646520776173206e6f74206f66666c696e6521604482015290519081900360640190fd5b610c52838633600e54612712565b505050505050565b610c62611461565b610c9d5760405162461bcd60e51b81526004018080602001828103825260218152602001806130156021913960400191505060405180910390fd5b600080546040516001600160a01b03909116907f8be0079c531659141344cd1fd0a4f28419497f9722a3daafe3b4186f6b6457e0908390a3600080546001600160a01b0319169055565b600154604080516316fd755360e21b815290516006926001600160a01b031691635bf5d54c916004808301926020929190829003018186803b158015610d2c57600080fd5b505afa158015610d40573d6000803e3d6000fd5b505050506040513d6020811015610d5657600080fd5b50516006811115610d6357fe5b14610da3576040805162461bcd60e51b815260206004820181905260248201526000805160206131b0833981519152604482015290519081900360640190fd5b600154604080516332401b5760e11b815290516000926001600160a01b03169163648036ae916004808301926020929190829003018186803b158015610de857600080fd5b505afa158015610dfc573d6000803e3d6000fd5b505050506040513d6020811015610e1257600080fd5b50516000818152600a602090815260408083206001600160a01b038716845282528083206002845290915290205490915060ff1615610e825760405162461bcd60e51b815260040180806020018281038252603a815260200180612edc603a913960400191505060405180910390fd5b6000818152600a602090815260408083206001600160a01b03808716808652918452828520600286528452828520805460ff1916600190811790915554835163eff4b6d960e01b81526004810188905289831660248201526044810193909352925192169263eff4b6d992606480840193829003018186803b158015610f0757600080fd5b505afa158015610f1b573d6000803e3d6000fd5b505050506040513d6020811015610f3157600080fd5b5051600154604080516339d519c560e21b8152600481018690526001600160a01b03878116602483015291519394506000938493929092169163e754671491604480820192602092909190829003018186803b158015610f9057600080fd5b505afa158015610fa4573d6000803e3d6000fd5b505050506040513d6020811015610fba57600080fd5b50511390508115158114156110005760405162461bcd60e51b8152600401808060200182810382526031815260200180612fe46031913960400191505060405180910390fd5b610c52838633601054612712565b600154604080516316fd755360e21b815290516006926001600160a01b031691635bf5d54c916004808301926020929190829003018186803b15801561105357600080fd5b505afa158015611067573d6000803e3d6000fd5b505050506040513d602081101561107d57600080fd5b5051600681111561108a57fe5b146110ca576040805162461bcd60e51b815260206004820181905260248201526000805160206131b0833981519152604482015290519081900360640190fd5b600154604080516332401b5760e11b815290516000926001600160a01b03169163648036ae916004808301926020929190829003018186803b15801561110f57600080fd5b505afa158015611123573d6000803e3d6000fd5b505050506040513d602081101561113957600080fd5b50516000818152600a602090815260408083206001600160a01b038716845282528083206001845290915290205490915060ff16156111a95760405162461bcd60e51b815260040180806020018281038252603481526020018061311d6034913960400191505060405180910390fd5b6000818152600a602090815260408083206001600160a01b038087168086529184528285206001808752908552838620805460ff191682179055548351633f8ed75160e11b815260048101889052898316602482015260448101939093529251921692637f1daea292606480840193829003018186803b15801561122c57600080fd5b505afa158015611240573d6000803e3d6000fd5b505050506040513d602081101561125657600080fd5b50519050806112965760405162461bcd60e51b815260040180806020018281038252603081526020018061305f6030913960400191505060405180910390fd5b60015460408051636ff002ff60e11b8152600481018590526001600160a01b03878116602483015286811660448301529151919092169163dfe005fe916064808301926020929190829003018186803b1580156112f257600080fd5b505afa158015611306573d6000803e3d6000fd5b505050506040513d602081101561131c57600080fd5b50511561135a5760405162461bcd60e51b815260040180806020018281038252602c8152602001806130f1602c913960400191505060405180910390fd5b611368828533600f54612712565b5050505050565b6000546001600160a01b031690565b600080600160009054906101000a90046001600160a01b03166001600160a01b031663648036ae6040518163ffffffff1660e01b815260040160206040518083038186803b1580156113cf57600080fd5b505afa1580156113e3573d6000803e3d6000fd5b505050506040513d60208110156113f957600080fd5b50519050611405612df1565b506001600160a01b0383166000908152600960209081526040918290208251606081018452815481526001820154928101929092526002015491810182905290821015611453578051611459565b80602001515b949350505050565b6000546001600160a01b0316331490565b600154604080516332401b5760e11b815290516000926001600160a01b03169163648036ae916004808301926020929190829003018186803b1580156114b757600080fd5b505afa1580156114cb573d6000803e3d6000fd5b505050506040513d60208110156114e157600080fd5b5051600154604080516332401b5760e11b815290519293506000926001600160a01b039092169163648036ae91600480820192602092909190829003018186803b15801561152e57600080fd5b505afa158015611542573d6000803e3d6000fd5b505050506040513d602081101561155857600080fd5b50516000838152600b602090815260408083203384529091529020546001909101915060ff16156115ba5760405162461bcd60e51b815260040180806020018281038252602b815260200180613151602b913960400191505060405180910390fd5b6000828152600b602090815260408083203384529091529020805460ff191660011790556115e6612df1565b5033600090815260096020908152604080832081516060810183528154815260018201549381019390935260020154908201819052909190841061162f57506020810151611633565b5080515b60008511611688576040805162461bcd60e51b815260206004820152601e60248201527f506c65617365207061737320616e20616d6f756e742061626f76652030210000604482015290519081900360640190fd5b848110156116c75760405162461bcd60e51b8152600401808060200182810382526026815260200180612e2d6026913960400191505060405180910390fd5b60006116d9828763ffffffff6126c016565b905060006116f2600d54846129ae90919063ffffffff16565b9050600d5482101580611703575081155b61173e5760405162461bcd60e51b815260040180806020018281038252603d815260200180612e9f603d913960400191505060405180910390fd5b60408051808201825288815260208082018881523360008181526006845285812094518555915160019485015584516060810186528881528084018881528187018c81529284526009909452949091209351845590519183019190915551600290910155600c546117b5908863ffffffff6126c016565b600c55600d546000906117cf90849063ffffffff6129ae16565b905060006117e3838363ffffffff6126c016565b6000888152600860205260408120549192509061180e5760008981526008602052604090205461181e565b6000888152600860205260409020545b9050611830818363ffffffff6126c016565b600089815260086020526040902055846118be5761185560033363ffffffff612a1816565b5060008881526007602052604090205461188e5760008981526007602052604090205461188990600163ffffffff6126c016565b6118ae565b6000888152600760205260409020546118ae90600163ffffffff6126c016565b6000898152600760205260409020555b50505050505050505050565b60086020526000908152604090205481565b6004546001600160a01b031633146119255760405162461bcd60e51b815260040180806020018281038252602d8152602001806130c4602d913960400191505060405180910390fd5b6005548111156119665760405162461bcd60e51b81526004018080602001828103825260358152602001806131d06035913960400191505060405180910390fd5b600554611979908263ffffffff6126c016565b600555600254600480546040805163a9059cbb60e01b81526001600160a01b0392831693810193909352602483018590525192169163a9059cbb916044808201926020929091908290030181600087803b1580156119d657600080fd5b505af11580156119ea573d6000803e3d6000fd5b505050506040513d6020811015611a0057600080fd5b505050565b606060008211611a465760405162461bcd60e51b815260040180806020018281038252602a815260200180612e53602a913960400191505060405180910390fd5b606082604051908082528060200260200182016040528015611a72578160200160208202803883390190505b50600160008190527f3617319a054d772f909f7c479a2cebe5066e836a939412e32403c99029b92eff6020527ff5d2b9d7b7dcf31fafb527f48cb641b3e286ba85117ea973378ae75f2b0f27c9549192506001600160a01b03909116905b848601811015611b88576001600160a01b038216611b1f5760405162461bcd60e51b8152600401808060200182810382526033815260200180612fb16033913960400191505060405180910390fd5b85811115611b5757818387830381518110611b3657fe5b60200260200101906001600160a01b031690816001600160a01b0316815250505b6001600160a01b03918216600090815260036020908152604080832060018085529252909120549092169101611ad0565b50909150505b92915050565b600154604080516316fd755360e21b815290516006926001600160a01b031691635bf5d54c916004808301926020929190829003018186803b158015611bd957600080fd5b505afa158015611bed573d6000803e3d6000fd5b505050506040513d6020811015611c0357600080fd5b50516006811115611c1057fe5b14611c50576040805162461bcd60e51b815260206004820181905260248201526000805160206131b0833981519152604482015290519081900360640190fd5b600154604080516332401b5760e11b815290516000926001600160a01b03169163648036ae916004808301926020929190829003018186803b158015611c9557600080fd5b505afa158015611ca9573d6000803e3d6000fd5b505050506040513d6020811015611cbf57600080fd5b50516000818152600a602090815260408083206001600160a01b038716845282528083206003845290915290205490915060ff1615611d2f5760405162461bcd60e51b815260040180806020018281038252603b815260200180612f76603b913960400191505060405180910390fd5b6000818152600a602090815260408083206001600160a01b03808716808652918452828520600386528452828520805460ff1916600190811790915554835163328d704d60e21b81526004810188905289831660248201526044810193909352925192169263ca35c13492606480840193829003018186803b158015611db457600080fd5b505afa158015611dc8573d6000803e3d6000fd5b505050506040513d6020811015611dde57600080fd5b505160015460408051637913460360e11b8152600481018690526001600160a01b03878116602483015291519394506000938493929092169163f2268c0691604480820192602092909190829003018186803b158015611e3d57600080fd5b505afa158015611e51573d6000803e3d6000fd5b505050506040513d6020811015611e6757600080fd5b5051600154604080516339d519c560e21b8152600481018890526001600160a01b03898116602483015291519490931394506000938493919092169163e754671491604480820192602092909190829003018186803b158015611ec957600080fd5b505afa158015611edd573d6000803e3d6000fd5b505050506040513d6020811015611ef357600080fd5b505113905082611f345760405162461bcd60e51b8152600401808060200182810382526033815260200180612f166033913960400191505060405180910390fd5b80151582151514611f765760405162461bcd60e51b81526004018080602001828103825260298152602001806130366029913960400191505060405180910390fd5b611f84848733601154612712565b50505050505050565b6004546001600160a01b031681565b60105481565b60076020526000908152604090205481565b600154604080516332401b5760e11b815290516000926001600160a01b03169163648036ae916004808301926020929190829003018186803b158015611ff957600080fd5b505afa15801561200d573d6000803e3d6000fd5b505050506040513d602081101561202357600080fd5b5051905061202f612e12565b5033600090815260066020908152604091829020825180840190935280548352600101549082018190528210156120ad576040805162461bcd60e51b815260206004820152601c60248201527f4e6f742079657420616c6c6f77656420746f2077697468647261772100000000604482015290519081900360640190fd5b6040805180820182526000808252602080830182815233808452600683528584209451855590516001909401939093556002548551855163a9059cbb60e01b81526004810195909552602485015293516001600160a01b039094169363a9059cbb93604480820194918390030190829087803b15801561212c57600080fd5b505af1158015612140573d6000803e3d6000fd5b505050506040513d602081101561215657600080fd5b50516121935760405162461bcd60e51b815260040180806020018281038252603581526020018061308f6035913960400191505060405180910390fd5b5050565b600154604080516332401b5760e11b815290516000926001600160a01b03169163648036ae916004808301926020929190829003018186803b1580156121dc57600080fd5b505afa1580156121f0573d6000803e3d6000fd5b505050506040513d602081101561220657600080fd5b5051600154604080516332401b5760e11b815290519293506000926001600160a01b039092169163648036ae91600480820192602092909190829003018186803b15801561225357600080fd5b505afa158015612267573d6000803e3d6000fd5b505050506040513d602081101561227d57600080fd5b5051600254604080516323b872dd60e01b8152336004820152306024820152604481018790529051600190930193506001600160a01b03909116916323b872dd916064808201926020929091908290030181600087803b1580156122e057600080fd5b505af11580156122f4573d6000803e3d6000fd5b505050506040513d602081101561230a57600080fd5b505161235d576040805162461bcd60e51b815260206004820152601e60248201527f4e6f7420656e6f75676820746f6b656e7320666f7220626f6e64696e67210000604482015290519081900360640190fd5b6000828152600b6020908152604080832033845290915290205460ff16156123b65760405162461bcd60e51b815260040180806020018281038252602b815260200180613151602b913960400191505060405180910390fd5b6000828152600b602090815260408083203384529091529020805460ff191660011790556123e2612df1565b5033600090815260096020908152604080832081516060810183528154815260018201549381019390935260020154908201819052909190841061242b5750602081015161242f565b5080515b806124b15761244860036000338163ffffffff612ac916565b506000838152600760205260409020546124815760008481526007602052604090205461247c90600163ffffffff612b3f16565b6124a1565b6000838152600760205260409020546124a190600163ffffffff612b3f16565b6000848152600760205260409020555b60006124c3828763ffffffff612b3f16565b905060006124dc600d54846129ae90919063ffffffff16565b6040805160608101825285815260208082018681528284018a8152336000908152600990935293909120915182555160018201559051600290910155600c5490915061252e908863ffffffff612b3f16565b600c55600d548210156125725760405162461bcd60e51b815260040180806020018281038252602d815260200180612f49602d913960400191505060405180910390fd5b6000612589600d54846129ae90919063ffffffff16565b9050600061259d828463ffffffff6126c016565b600088815260086020526040812054919250906125c8576000898152600860205260409020546125d8565b6000888152600860205260409020545b90506125ea818363ffffffff612b3f16565b60009889526008602052604090982097909755505050505050505050565b600d5481565b6001546001600160a01b031681565b612625611461565b6126605760405162461bcd60e51b81526004018080602001828103825260218152602001806130156021913960400191505060405180910390fd5b61266981612b94565b50565b60115481565b6002546001600160a01b031681565b600080808061269285826001612c43565b90935091505b6001600160a01b03821615611459576126b385836001612c43565b9093509150600101612698565b60008282111561270c576040805162461bcd60e51b81526020600482015260126024820152715361666553756220756e646572666c6f772160701b604482015290519081900360640190fd5b50900390565b600060018501612720612df1565b506001600160a01b0385166000908152600960209081526040918290208251606081018452815481526001820154928101929092526002015491810191909152612768612df1565b506001600160a01b038516600090815260096020908152604080832081516060810183528154815260018201549381019390935260020154828201528301519091908910156127b85782516127be565b82602001515b9050600089836040015111156127d55782516127db565b82602001515b9050600061280060646127f4858b63ffffffff612c9316565b9063ffffffff6129ae16565b9050600061281582600263ffffffff6129ae16565b905060006128308388602001516126c090919063ffffffff16565b9050600061284b838860200151612b3f90919063ffffffff16565b905060405180606001604052808781526020018381526020018a815250600960008f6001600160a01b03166001600160a01b0316815260200190815260200160002060008201518160000155602082015181600101556040820151816002015590505060405180606001604052808681526020018281526020018a815250600960008e6001600160a01b03166001600160a01b0316815260200190815260200160002060008201518160000155602082015181600101556040820151816002015590505061292483600554612b3f90919063ffffffff16565b6005819055507fb0f9aff79729f95cfd3c5a53434ea39810e21e8ad1cc3d50a22bd4a6aecb876e8e8e8e8e60405180858152602001846001600160a01b03166001600160a01b03168152602001836001600160a01b03166001600160a01b0316815260200182815260200194505050505060405180910390a1505050505050505050949350505050565b6000808211612a04576040805162461bcd60e51b815260206004820152601b60248201527f536166654469762063616e6e6f74206469766964652062792030210000000000604482015290519081900360640190fd5b6000828481612a0f57fe5b04949350505050565b60006001600160a01b0382161580612a375750612a358383612cf6565b155b15612a4457506000611b8e565b6001600160a01b038281166000908152602085815260408083208380529091528082205460018084529190922054612a83938793811692911690612d94565b506001600160a01b03811660009081526020928352604080822082805290935282812080546001600160a01b031990811690915560018252929020805490921690915590565b6000612ad58584612cf6565b158015612ae75750612ae78585612cf6565b15612b34576001600160a01b03808516600090815260208781526040808320861515845290915290205416612b1e86868686612d94565b612b2a86858386612d94565b6001915050611459565b506000949350505050565b600082820183811015612b8d576040805162461bcd60e51b815260206004820152601160248201527053616665416464206f766572666c6f772160781b604482015290519081900360640190fd5b9392505050565b6001600160a01b038116612be8576040805162461bcd60e51b81526020600482015260166024820152754e6577206f776e65722063616e6e6f7420626520302160501b604482015290519081900360640190fd5b600080546040516001600160a01b03808516939216917f8be0079c531659141344cd1fd0a4f28419497f9722a3daafe3b4186f6b6457e091a3600080546001600160a01b0319166001600160a01b0392909216919091179055565b600080612c508585612cf6565b612c5f57506000905080612c8b565b50506001600160a01b038083166000908152602085815260408083208515158452909152902054600191165b935093915050565b600082612ca257506000611b8e565b82820282848281612caf57fe5b0414612b8d576040805162461bcd60e51b8152602060048201526011602482015270536166654d756c206f766572666c6f772160781b604482015290519081900360640190fd5b6001600160a01b03818116600090815260208481526040808320838052909152812054909116158015612d4b57506001600160a01b038281166000908152602085815260408083206001845290915290205416155b15612d8c57600080805260208481526040808320600184529091529020546001600160a01b0383811691161415612d8457506001611b8e565b506000611b8e565b506001611b8e565b6001600160a01b0391821660008181526020868152604080832094158084529482528083208054969097166001600160a01b0319968716811790975595825295865284812092158152919094529190912080549091169091179055565b60405180606001604052806000815260200160008152602001600081525090565b60405180604001604052806000815260200160008152509056fe596f7520646f6e2774206861766520656e6f756768207374616b6520746f20756e626f6e6421506173736564206e6f64657320636f756e74206d7573742062652067726561746572207468616e20302154686520706173736564207573657220776173206e6f742064697373656e74656421596f75206d6179206f6e6c7920756e626f6e6420757020746f20746865206d696e696d756d20616c6c6f77616e6365206f7220616c6c207374616b6521546865206e6f64652068617320616c7265616479206265656e20736c617368656420666f7220616e20696e636f727265637420726573756c742154686520706173736564206e6f646520646964206e6f742064697373656e7420746f2074686520706173736564207573657221596f75206d75737420626f6e64206174206c6561737420746865206d696e696d756d20616c6c6f77616e636521546865206e6f64652068617320616c7265616479206265656e20736c617368656420666f7220616e20696e636f72726563742064697373656e74214e6f646573206c69737420746f6f2073686f727420666f7220676976656e206e6f646520696e646578206f7220636f756e742154686520706173736564206e6f646520646964206e6f74206769766520616e20696e636f727265637420726573756c74214f6e6c79206f776e65722063616e2075736520746869732066756e6374696f6e215468652064697373656e742066726f6d20706173736564206e6f64652077617320636f72726563742154686520706173736564206e6f646520776173206e6f742061737369676e656420746f207061737365642075736572214e6f7420656e6f75676820746f6b656e7320696e20626f6e64696e6720636f6e747261637420666f72207769746864726177616c214f6e6c79206a757269466f756e646174696f6e206d61792077697468647261772074686569722066756e64732154686520706173736564206e6f6465206861732072657665616c65642068697320636f6d6d69746d656e7421546865206e6f64652068617320616c7265616479206265656e20736c617368656420666f72206e6f742072657665616c696e6721596f75206d6179206f6e6c7920626f6e64206f7220756e626f6e64206f6e63652070657220726f756e6421546865206e6f64652068617320616c7265616479206265656e20736c617368656420666f72206265696e67206f66666c696e652150726f7879206d75737420626520696e20736c617368696e67207374616765214e6f7420656e6f7567682066756e647320746f2077697468647261772066726f6d206a7572466f756e646174696f6e46756e647321a265627a7a72305820b3163118b9e6a69cc8898e6fbe4b236b9e4e83129bcd75e56fe131bad39dceec64736f6c634300050a0032",
  "source": "pragma solidity 0.5.10;\r\n\r\nimport \"./JuriNetworkProxy.sol\";\r\nimport \"./lib/custom/LinkedListLib.sol\";\r\n\r\nimport \"./lib/IERC20.sol\";\r\nimport \"./lib/Ownable.sol\";\r\nimport \"./lib/SafeMath.sol\";\r\n\r\ncontract JuriBonding is Ownable {\r\n    using LinkedListLib for LinkedListLib.LinkedList;\r\n    using SafeMath for uint256;\r\n\r\n    address constant HEAD = address(0);\r\n    bool constant PREV = false;\r\n    bool constant NEXT = true;\r\n    uint256 constant OFFLINE_SLASH = 0;\r\n    uint256 constant NOT_REVEAL_SLASH = 1;\r\n    uint256 constant INCORRECT_RESULT_SLASH = 2;\r\n    uint256 constant INCORRECT_DISSENT_SLASH = 3;\r\n\r\n    struct ValidStakeAfter {\r\n        uint256 oldStake;\r\n        uint256 newStake;\r\n        uint256 afterRoundId;\r\n    }\r\n\r\n    struct AllowedWithdrawalAfter {\r\n        uint256 amount;\r\n        uint256 minRoundIndex;\r\n    }\r\n\r\n    event SlashedStake(\r\n        uint256 roundIndex,\r\n        address from,\r\n        address to,\r\n        uint256 penalty\r\n    );\r\n\r\n    JuriNetworkProxy public proxy;\r\n    IERC20 public token;\r\n    LinkedListLib.LinkedList stakingNodes;\r\n\r\n    address public juriFoundation;\r\n    uint256 public juriFoundationFunds;\r\n\r\n    mapping (address => AllowedWithdrawalAfter) public allowedWithdrawalAmounts;\r\n    mapping (uint256 => uint256) public stakingNodesAddressCount;\r\n    mapping (uint256 => uint256) public totalNodesCount;\r\n    mapping (address => ValidStakeAfter) public bondedStakes;\r\n    mapping (uint256 => mapping (address => mapping (uint256 => bool))) public hasBeenSlashed;\r\n    mapping (uint256 => mapping (address => bool)) public changedStakeInRound;\r\n    \r\n    uint256 public totalBonded;\r\n    uint256 public minStakePerNode;\r\n    uint256 public offlinePenalty;\r\n    uint256 public notRevealPenalty;\r\n    uint256 public incorrectResultPenalty;\r\n    uint256 public incorrectDissentPenalty;\r\n\r\n    constructor(\r\n        JuriNetworkProxy _proxy,\r\n        IERC20 _token,\r\n        address _juriFoundation,\r\n        uint256 _minStakePerNode,\r\n        uint256 _offlinePenalty,\r\n        uint256 _notRevealPenalty,\r\n        uint256 _incorrectResultPenalty,\r\n        uint256 _incorrectDissentPenalty\r\n    ) public {\r\n        proxy = _proxy;\r\n        token = _token;\r\n        juriFoundation = _juriFoundation;\r\n        minStakePerNode = _minStakePerNode;\r\n        offlinePenalty = _offlinePenalty;\r\n        notRevealPenalty = _notRevealPenalty;\r\n        incorrectResultPenalty = _incorrectResultPenalty;\r\n        incorrectDissentPenalty = _incorrectDissentPenalty;\r\n\r\n        juriFoundationFunds = 0;\r\n    }\r\n\r\n    function slashStakeForBeingOffline(address _toSlashNode, address _dissentedUser) public {\r\n        require(\r\n            proxy.currentStage() == JuriNetworkProxy.Stages.SLASHING_PERIOD,\r\n            'Proxy must be in slashing stage!'\r\n        );\r\n        uint256 roundIndex = proxy.roundIndex();\r\n\r\n        require(\r\n            !hasBeenSlashed[roundIndex][_dissentedUser][OFFLINE_SLASH],\r\n            \"The node has already been slashed for being offline!\"\r\n        );\r\n        hasBeenSlashed[roundIndex][_dissentedUser][OFFLINE_SLASH] = true;\r\n\r\n        bool userWasDissented = proxy.getDissented(roundIndex, _dissentedUser);\r\n        bytes32 commitment = proxy.getUserComplianceDataCommitment(roundIndex, _toSlashNode, _dissentedUser);\r\n\r\n        require(userWasDissented, \"The passed user was not dissented!\");\r\n        require(\r\n            commitment == 0x0,\r\n            \"The passed node was not offline!\"\r\n        );\r\n\r\n        _slashStake(roundIndex, _toSlashNode, msg.sender, offlinePenalty);\r\n    }\r\n\r\n    function slashStakeForNotRevealing(address _toSlashNode, address _notRevealedUser) public {\r\n        require(\r\n            proxy.currentStage() == JuriNetworkProxy.Stages.SLASHING_PERIOD,\r\n            'Proxy must be in slashing stage!'\r\n        );\r\n        uint256 roundIndex = proxy.roundIndex();\r\n\r\n        require(\r\n            !hasBeenSlashed[roundIndex][_notRevealedUser][NOT_REVEAL_SLASH],\r\n            \"The node has already been slashed for not revealing!\"\r\n        );\r\n        hasBeenSlashed[roundIndex][_notRevealedUser][NOT_REVEAL_SLASH] = true;\r\n\r\n        bool wasAssignedToUser = proxy.getWasAssignedToUser(\r\n            roundIndex,\r\n            _toSlashNode,\r\n            _notRevealedUser\r\n        );\r\n        \r\n        require(\r\n            wasAssignedToUser,\r\n            \"The passed node was not assigned to passed user!\"\r\n        );\r\n        require(\r\n            !proxy.getHasRevealed(roundIndex, _toSlashNode, _notRevealedUser),\r\n            \"The passed node has revealed his commitment!\"\r\n        );\r\n        \r\n        _slashStake(roundIndex, _toSlashNode, msg.sender, notRevealPenalty);\r\n    }\r\n\r\n    function slashStakeForIncorrectResult(address _toSlashNode, address _incorrectResultUser) public {\r\n        require(\r\n            proxy.currentStage() == JuriNetworkProxy.Stages.SLASHING_PERIOD,\r\n            'Proxy must be in slashing stage!'\r\n        );\r\n        uint256 roundIndex = proxy.roundIndex();\r\n\r\n        require(\r\n            !hasBeenSlashed[roundIndex][_incorrectResultUser][INCORRECT_RESULT_SLASH],\r\n            \"The node has already been slashed for an incorrect result!\"\r\n        );\r\n        hasBeenSlashed[roundIndex][_incorrectResultUser][INCORRECT_RESULT_SLASH] = true;\r\n\r\n        bool givenAnswer = proxy.getGivenNodeResult(roundIndex, _toSlashNode, _incorrectResultUser);\r\n        bool acceptedAnswer = proxy.getUserComplianceData(roundIndex, _incorrectResultUser) > 0;\r\n\r\n        require(\r\n            givenAnswer != acceptedAnswer,\r\n            \"The passed node did not give an incorrect result!\"\r\n        );\r\n\r\n        _slashStake(roundIndex, _toSlashNode, msg.sender, incorrectResultPenalty);\r\n    }\r\n\r\n    function slashStakeForIncorrectDissenting(address _toSlashNode, address _incorrectDissentUser) public {\r\n        require(\r\n            proxy.currentStage() == JuriNetworkProxy.Stages.SLASHING_PERIOD,\r\n            'Proxy must be in slashing stage!'\r\n        );\r\n        uint256 roundIndex = proxy.roundIndex();\r\n\r\n        require(\r\n            !hasBeenSlashed[roundIndex][_incorrectDissentUser][INCORRECT_DISSENT_SLASH],\r\n            \"The node has already been slashed for an incorrect dissent!\"\r\n        );\r\n        hasBeenSlashed[roundIndex][_incorrectDissentUser][INCORRECT_DISSENT_SLASH] = true;\r\n\r\n        bool hasDissented = proxy.getHasDissented(roundIndex, _toSlashNode, _incorrectDissentUser);\r\n        bool previousAnswer = proxy.getComplianceDataBeforeDissent(roundIndex, _incorrectDissentUser) > 0;\r\n        bool acceptedAnswer = proxy.getUserComplianceData(roundIndex, _incorrectDissentUser) > 0;\r\n\r\n        require(\r\n            hasDissented,\r\n            \"The passed node did not dissent to the passed user!\"\r\n        );\r\n\r\n        require(\r\n            previousAnswer == acceptedAnswer,\r\n            \"The dissent from passed node was correct!\"\r\n        );\r\n\r\n        _slashStake(roundIndex, _toSlashNode, msg.sender, incorrectDissentPenalty);\r\n    }\r\n\r\n    function withdrawAllowedStakes() public {\r\n        uint256 roundIndex = proxy.roundIndex();\r\n        AllowedWithdrawalAfter memory allowed = allowedWithdrawalAmounts[msg.sender];\r\n\r\n        require(\r\n            roundIndex >= allowed.minRoundIndex,\r\n            \"Not yet allowed to withdraw!\"\r\n        );\r\n\r\n        allowedWithdrawalAmounts[msg.sender] = AllowedWithdrawalAfter(0, 0);\r\n        require(\r\n            token.transfer(msg.sender, allowed.amount),\r\n            \"Not enough tokens in bonding contract for withdrawal!\"\r\n        );\r\n    }\r\n\r\n    function bondStake(uint256 _amount) public {\r\n        uint256 roundIndex = proxy.roundIndex();\r\n        uint256 nextRoundIndex = proxy.roundIndex() + 1;\r\n\r\n        require(\r\n            token.transferFrom(msg.sender, address(this), _amount),\r\n            \"Not enough tokens for bonding!\"\r\n        );\r\n        require(\r\n            !changedStakeInRound[roundIndex][msg.sender],\r\n            \"You may only bond or unbond once per round!\"\r\n        );\r\n\r\n        changedStakeInRound[roundIndex][msg.sender] = true;\r\n\r\n        ValidStakeAfter memory currentStakeAfter = bondedStakes[msg.sender];\r\n        uint256 oldNodeStake;\r\n\r\n        if (currentStakeAfter.afterRoundId <= roundIndex) {\r\n            oldNodeStake = currentStakeAfter.newStake;\r\n        } else {\r\n            oldNodeStake = currentStakeAfter.oldStake;\r\n        }\r\n\r\n        if (oldNodeStake == 0) {\r\n            stakingNodes.insert(HEAD, msg.sender, PREV);\r\n            stakingNodesAddressCount[nextRoundIndex]\r\n                = stakingNodesAddressCount[nextRoundIndex] > 0\r\n                    ? stakingNodesAddressCount[nextRoundIndex].add(1)\r\n                    : stakingNodesAddressCount[roundIndex].add(1);\r\n        }\r\n\r\n        uint256 newNodeStake = oldNodeStake.add(_amount);\r\n        uint256 oldNodeQualityCount = oldNodeStake.div(minStakePerNode);\r\n\r\n        bondedStakes[msg.sender]\r\n            = ValidStakeAfter(oldNodeStake, newNodeStake, nextRoundIndex);\r\n        totalBonded = totalBonded.add(_amount);\r\n\r\n        require(\r\n            newNodeStake >= minStakePerNode,\r\n            \"You must bond at least the minimum allowance!\"\r\n        );\r\n\r\n        uint256 newNodeQualityCount = newNodeStake.div(minStakePerNode);\r\n        uint256 addedNodeQuality = newNodeQualityCount.sub(oldNodeQualityCount);\r\n\r\n        uint256 oldNextTotalNodesCount = totalNodesCount[nextRoundIndex] > 0\r\n            ? totalNodesCount[nextRoundIndex]\r\n            : totalNodesCount[roundIndex];\r\n        totalNodesCount[nextRoundIndex] = oldNextTotalNodesCount.add(addedNodeQuality);\r\n    }\r\n\r\n    function unbondStake(uint256 _amount) public {\r\n        uint256 roundIndex = proxy.roundIndex();\r\n        uint256 nextRoundIndex = proxy.roundIndex() + 1;\r\n\r\n        require(\r\n            !changedStakeInRound[roundIndex][msg.sender],\r\n            \"You may only bond or unbond once per round!\"\r\n        );\r\n        changedStakeInRound[roundIndex][msg.sender] = true;\r\n\r\n        ValidStakeAfter memory currentStakeAfter = bondedStakes[msg.sender];\r\n        uint256 oldNodeStake;\r\n\r\n        if (currentStakeAfter.afterRoundId <= roundIndex) {\r\n            oldNodeStake = currentStakeAfter.newStake;\r\n        } else {\r\n            oldNodeStake = currentStakeAfter.oldStake;\r\n        }\r\n\r\n        require(\r\n            _amount > 0,\r\n            \"Please pass an amount above 0!\"\r\n        );\r\n        require(\r\n            oldNodeStake >= _amount,\r\n            \"You don't have enough stake to unbond!\"\r\n        );\r\n\r\n        uint256 newNodeStake = oldNodeStake.sub(_amount);\r\n        uint256 oldNodeQualityCount = oldNodeStake.div(minStakePerNode);\r\n        require(\r\n            newNodeStake >= minStakePerNode || newNodeStake == 0,\r\n            \"You may only unbond up to the minimum allowance or all stake!\"\r\n        );\r\n        \r\n        allowedWithdrawalAmounts[msg.sender]\r\n            = AllowedWithdrawalAfter(_amount, nextRoundIndex);\r\n        bondedStakes[msg.sender]\r\n            = ValidStakeAfter(oldNodeStake, newNodeStake, nextRoundIndex);\r\n        totalBonded = totalBonded.sub(_amount);\r\n\r\n        uint256 newNodeQualityCount = newNodeStake.div(minStakePerNode);\r\n        uint256 removedNodeQuality = oldNodeQualityCount.sub(newNodeQualityCount);\r\n\r\n        uint256 oldNextTotalNodesCount = totalNodesCount[nextRoundIndex] > 0\r\n            ? totalNodesCount[nextRoundIndex]\r\n            : totalNodesCount[roundIndex];\r\n        totalNodesCount[nextRoundIndex]\r\n            = oldNextTotalNodesCount.sub(removedNodeQuality);\r\n\r\n        if (newNodeStake == 0) {\r\n            stakingNodes.remove(msg.sender);\r\n\r\n            stakingNodesAddressCount[nextRoundIndex]\r\n                = stakingNodesAddressCount[nextRoundIndex] > 0\r\n                    ? stakingNodesAddressCount[nextRoundIndex].sub(1)\r\n                    : stakingNodesAddressCount[roundIndex].sub(1);\r\n        }\r\n    }\r\n\r\n    function withdrawJuriFoundationStake(uint256 _amount) external {\r\n        require(\r\n            msg.sender == juriFoundation,\r\n            'Only juriFoundation may withdraw their funds!'\r\n        );\r\n\r\n        require(\r\n            _amount <= juriFoundationFunds,\r\n            'Not enough funds to withdraw from jurFoundationFunds!'\r\n        );\r\n\r\n        juriFoundationFunds = juriFoundationFunds.sub(_amount);\r\n        token.transfer(juriFoundation, _amount);\r\n    }\r\n\r\n    function moveToNextRound(uint256 _newRoundIndex) external onlyOwner {\r\n        totalNodesCount[_newRoundIndex] = totalNodesCount[_newRoundIndex] > 0\r\n            ? totalNodesCount[_newRoundIndex]\r\n            : totalNodesCount[_newRoundIndex.sub(1)];\r\n        stakingNodesAddressCount[_newRoundIndex]\r\n            = stakingNodesAddressCount[_newRoundIndex] > 0\r\n                ? stakingNodesAddressCount[_newRoundIndex]\r\n                : stakingNodesAddressCount[_newRoundIndex.sub(1)];\r\n    }\r\n\r\n    function getBondedStakeOfNode(\r\n        address _node\r\n    ) public view returns (uint256) {\r\n        uint256 roundIndex = proxy.roundIndex();\r\n\r\n        ValidStakeAfter memory currentStakeAfter = bondedStakes[_node];\r\n\r\n        return currentStakeAfter.afterRoundId <= roundIndex\r\n            ? currentStakeAfter.newStake\r\n            : currentStakeAfter.oldStake;\r\n    }\r\n\r\n    function getAllStakingNodes() public view returns (address[] memory) {\r\n        uint256 stakingNodesCount = stakingNodes.sizeOf();\r\n        require(stakingNodesCount > 0, 'No nodes available!');\r\n\r\n        address[] memory stakingNodesList = new address[](stakingNodesCount);\r\n\r\n        stakingNodesList[0] = stakingNodes.list[HEAD][NEXT];\r\n\r\n        for (uint256 i = 1; i < stakingNodesCount; i++) {\r\n            stakingNodesList[i]\r\n                = stakingNodes.list[stakingNodesList[i.sub(1)]][NEXT];\r\n        }\r\n\r\n        return stakingNodesList;\r\n    }\r\n\r\n    function receiveNodesAtIndex(\r\n        uint256 _nodeIndex,\r\n        uint256 _nodesCount\r\n    ) public view returns (address[] memory) {\r\n        require(\r\n            _nodesCount > 0,\r\n            'Passed nodes count must be greater than 0!'\r\n        );\r\n\r\n        address[] memory resultNodesList = new address[](_nodesCount);\r\n\r\n        address node = stakingNodes.list[HEAD][NEXT];\r\n\r\n        for (uint256 i = 1; i < _nodeIndex + _nodesCount; i++) {\r\n            require(\r\n                node != HEAD,\r\n                'Nodes list too short for given node index or count!'\r\n            );\r\n\r\n            if (i > _nodeIndex) {\r\n                resultNodesList[i - _nodeIndex] = node;\r\n            }\r\n\r\n            node = stakingNodes.list[node][NEXT];\r\n        }\r\n\r\n        return resultNodesList;\r\n    }\r\n\r\n    function _slashStake(\r\n        uint256 _roundIndex,\r\n        address _from,\r\n        address _to,\r\n        uint256 _penalty\r\n    ) private returns (uint256) {\r\n        uint256 nextRoundIndex = _roundIndex + 1;\r\n        ValidStakeAfter memory stakeAfterFrom = bondedStakes[_from];\r\n        ValidStakeAfter memory stakeAfterTo = bondedStakes[_to];\r\n\r\n        uint256 stakeFrom = stakeAfterFrom.afterRoundId <= _roundIndex\r\n            ? stakeAfterFrom.newStake\r\n            : stakeAfterFrom.oldStake;\r\n        uint256 stakeTo = stakeAfterTo.afterRoundId <= _roundIndex\r\n            ? stakeAfterTo.newStake\r\n            : stakeAfterTo.oldStake;\r\n\r\n        uint256 slashedStake = stakeFrom.mul(_penalty).div(100);\r\n        uint256 slashedStakeHalf = slashedStake.div(2);\r\n\r\n        uint256 newStakeFrom = stakeAfterFrom.newStake.sub(slashedStake);\r\n        uint256 newStakeTo = stakeAfterTo.newStake.add(slashedStakeHalf);\r\n\r\n        bondedStakes[_from]\r\n            = ValidStakeAfter(stakeFrom, newStakeFrom, nextRoundIndex);\r\n        bondedStakes[_to]\r\n            = ValidStakeAfter(stakeTo, newStakeTo, nextRoundIndex);\r\n        juriFoundationFunds = juriFoundationFunds\r\n            .add(slashedStakeHalf);\r\n\r\n        emit SlashedStake(_roundIndex, _from, _to, _penalty);\r\n    }\r\n}",
  "sourcePath": "C:\\Users\\mail\\Personal\\Juri\\JuriOracle\\contracts\\JuriBonding.sol",
  "compiler": {
    "name": "solc",
    "version": "0.5.10+commit.5a6ea5b1.Emscripten.clang"
  },
  "schemaVersion": "3.0.14",
  "updatedAt": "2019-09-23T02:05:58.456Z",
  "devdoc": {
    "methods": {
      "isOwner()": {
        "return": "true if `msg.sender` is the owner of the contract.\r"
      },
      "owner()": {
        "return": "the address of the owner.\r"
      },
      "renounceOwnership()": {
        "details": "Allows the current owner to relinquish control of the contract.\r It will not be possible to call the functions with the `onlyOwner`\r modifier anymore.\r"
      },
      "transferOwnership(address)": {
        "details": "Allows the current owner to transfer control of the contract to a newOwner.\r",
        "params": {
          "newOwner": "The address to transfer ownership to.\r"
        }
      }
    }
  },
  "userdoc": {
    "methods": {
      "renounceOwnership()": {
        "notice": "Renouncing ownership will leave the contract without an owner,\r thereby removing any functionality that is only available to the owner.\r"
      }
    }
  }
}