{
  "contractName": "JuriNetworkProxyMock",
  "abi": [
    {
      "constant": true,
      "inputs": [],
      "name": "skaleFileStorage",
      "outputs": [
        {
          "name": "",
          "type": "address"
        }
      ],
      "payable": false,
      "stateMutability": "view",
      "type": "function"
    },
    {
      "constant": true,
      "inputs": [],
      "name": "currentStage",
      "outputs": [
        {
          "name": "",
          "type": "uint8"
        }
      ],
      "payable": false,
      "stateMutability": "view",
      "type": "function"
    },
    {
      "constant": true,
      "inputs": [],
      "name": "roundIndex",
      "outputs": [
        {
          "name": "",
          "type": "uint256"
        }
      ],
      "payable": false,
      "stateMutability": "view",
      "type": "function"
    },
    {
      "constant": true,
      "inputs": [
        {
          "name": "",
          "type": "uint256"
        }
      ],
      "name": "timesForStages",
      "outputs": [
        {
          "name": "",
          "type": "uint256"
        }
      ],
      "payable": false,
      "stateMutability": "view",
      "type": "function"
    },
    {
      "constant": true,
      "inputs": [],
      "name": "startTime",
      "outputs": [
        {
          "name": "",
          "type": "uint256"
        }
      ],
      "payable": false,
      "stateMutability": "view",
      "type": "function"
    },
    {
      "constant": true,
      "inputs": [
        {
          "name": "",
          "type": "uint256"
        }
      ],
      "name": "dissentedUsers",
      "outputs": [
        {
          "name": "",
          "type": "address"
        }
      ],
      "payable": false,
      "stateMutability": "view",
      "type": "function"
    },
    {
      "constant": true,
      "inputs": [],
      "name": "totalJuriFees",
      "outputs": [
        {
          "name": "",
          "type": "uint256"
        }
      ],
      "payable": false,
      "stateMutability": "view",
      "type": "function"
    },
    {
      "constant": true,
      "inputs": [],
      "name": "lastStageUpdate",
      "outputs": [
        {
          "name": "",
          "type": "uint256"
        }
      ],
      "payable": false,
      "stateMutability": "view",
      "type": "function"
    },
    {
      "constant": true,
      "inputs": [],
      "name": "nodeVerifierCount",
      "outputs": [
        {
          "name": "",
          "type": "uint256"
        }
      ],
      "payable": false,
      "stateMutability": "view",
      "type": "function"
    },
    {
      "constant": true,
      "inputs": [],
      "name": "bonding",
      "outputs": [
        {
          "name": "",
          "type": "address"
        }
      ],
      "payable": false,
      "stateMutability": "view",
      "type": "function"
    },
    {
      "constant": true,
      "inputs": [],
      "name": "juriFeesToken",
      "outputs": [
        {
          "name": "",
          "type": "address"
        }
      ],
      "payable": false,
      "stateMutability": "view",
      "type": "function"
    },
    {
      "constant": true,
      "inputs": [
        {
          "name": "",
          "type": "address"
        }
      ],
      "name": "isRegisteredJuriStakingPool",
      "outputs": [
        {
          "name": "",
          "type": "bool"
        }
      ],
      "payable": false,
      "stateMutability": "view",
      "type": "function"
    },
    {
      "inputs": [
        {
          "name": "_juriFeesToken",
          "type": "address"
        },
        {
          "name": "_juriToken",
          "type": "address"
        },
        {
          "name": "_juriFoundation",
          "type": "address"
        },
        {
          "name": "_minStakePerNode",
          "type": "uint256"
        },
        {
          "name": "_offlinePenalty",
          "type": "uint256"
        },
        {
          "name": "_notRevealPenalty",
          "type": "uint256"
        },
        {
          "name": "_incorrectResultPenalty",
          "type": "uint256"
        },
        {
          "name": "_incorrectDissentPenalty",
          "type": "uint256"
        }
      ],
      "payable": false,
      "stateMutability": "nonpayable",
      "type": "constructor"
    },
    {
      "anonymous": false,
      "inputs": [
        {
          "indexed": false,
          "name": "user",
          "type": "address"
        },
        {
          "indexed": false,
          "name": "removedNode",
          "type": "address"
        }
      ],
      "name": "RemovedMax",
      "type": "event"
    },
    {
      "anonymous": false,
      "inputs": [
        {
          "indexed": false,
          "name": "user",
          "type": "address"
        },
        {
          "indexed": false,
          "name": "node",
          "type": "address"
        },
        {
          "indexed": false,
          "name": "verifierHash",
          "type": "bytes32"
        }
      ],
      "name": "AddedVerifierHash",
      "type": "event"
    },
    {
      "anonymous": false,
      "inputs": [
        {
          "indexed": false,
          "name": "maxVerifierHash",
          "type": "bytes32"
        }
      ],
      "name": "OLD_MAX",
      "type": "event"
    },
    {
      "anonymous": false,
      "inputs": [
        {
          "indexed": false,
          "name": "maxVerifierHash",
          "type": "bytes32"
        }
      ],
      "name": "NEW_MAX",
      "type": "event"
    },
    {
      "constant": false,
      "inputs": [],
      "name": "moveToNextStage",
      "outputs": [],
      "payable": false,
      "stateMutability": "nonpayable",
      "type": "function"
    },
    {
      "constant": false,
      "inputs": [],
      "name": "incrementRoundIndex",
      "outputs": [],
      "payable": false,
      "stateMutability": "nonpayable",
      "type": "function"
    },
    {
      "constant": false,
      "inputs": [
        {
          "name": "_node",
          "type": "address"
        }
      ],
      "name": "increaseNodeActivity",
      "outputs": [],
      "payable": false,
      "stateMutability": "nonpayable",
      "type": "function"
    },
    {
      "constant": false,
      "inputs": [
        {
          "name": "_users",
          "type": "address[]"
        },
        {
          "name": "_complianceData",
          "type": "int256[]"
        }
      ],
      "name": "addComplianceDataForUsers",
      "outputs": [],
      "payable": false,
      "stateMutability": "nonpayable",
      "type": "function"
    },
    {
      "constant": true,
      "inputs": [
        {
          "name": "_roundIndex",
          "type": "uint256"
        },
        {
          "name": "_user",
          "type": "address"
        }
      ],
      "name": "getUserWorkAssignmentHashes",
      "outputs": [
        {
          "name": "",
          "type": "uint256[]"
        }
      ],
      "payable": false,
      "stateMutability": "view",
      "type": "function"
    },
    {
      "constant": true,
      "inputs": [
        {
          "name": "_roundIndex",
          "type": "uint256"
        },
        {
          "name": "_user",
          "type": "address"
        }
      ],
      "name": "getDissented",
      "outputs": [
        {
          "name": "",
          "type": "bool"
        }
      ],
      "payable": false,
      "stateMutability": "view",
      "type": "function"
    },
    {
      "constant": true,
      "inputs": [
        {
          "name": "_roundIndex",
          "type": "uint256"
        },
        {
          "name": "_user",
          "type": "address"
        }
      ],
      "name": "getComplianceDataBeforeDissent",
      "outputs": [
        {
          "name": "",
          "type": "int256"
        }
      ],
      "payable": false,
      "stateMutability": "view",
      "type": "function"
    },
    {
      "constant": true,
      "inputs": [
        {
          "name": "_roundIndex",
          "type": "uint256"
        },
        {
          "name": "_node",
          "type": "address"
        },
        {
          "name": "_user",
          "type": "address"
        }
      ],
      "name": "getHasRevealed",
      "outputs": [
        {
          "name": "",
          "type": "bool"
        }
      ],
      "payable": false,
      "stateMutability": "view",
      "type": "function"
    },
    {
      "constant": true,
      "inputs": [
        {
          "name": "_roundIndex",
          "type": "uint256"
        },
        {
          "name": "_node",
          "type": "address"
        }
      ],
      "name": "getNodeActivityCount",
      "outputs": [
        {
          "name": "",
          "type": "uint256"
        }
      ],
      "payable": false,
      "stateMutability": "view",
      "type": "function"
    },
    {
      "constant": true,
      "inputs": [
        {
          "name": "_roundIndex",
          "type": "uint256"
        }
      ],
      "name": "getTotalActivityCount",
      "outputs": [
        {
          "name": "",
          "type": "uint256"
        }
      ],
      "payable": false,
      "stateMutability": "view",
      "type": "function"
    },
    {
      "constant": true,
      "inputs": [
        {
          "name": "_roundIndex",
          "type": "uint256"
        },
        {
          "name": "_node",
          "type": "address"
        },
        {
          "name": "_user",
          "type": "address"
        }
      ],
      "name": "getUserComplianceDataCommitment",
      "outputs": [
        {
          "name": "",
          "type": "bytes32"
        }
      ],
      "payable": false,
      "stateMutability": "view",
      "type": "function"
    },
    {
      "constant": true,
      "inputs": [
        {
          "name": "_roundIndex",
          "type": "uint256"
        },
        {
          "name": "_node",
          "type": "address"
        },
        {
          "name": "_user",
          "type": "address"
        }
      ],
      "name": "getGivenNodeResult",
      "outputs": [
        {
          "name": "",
          "type": "bool"
        }
      ],
      "payable": false,
      "stateMutability": "view",
      "type": "function"
    },
    {
      "constant": true,
      "inputs": [
        {
          "name": "_roundIndex",
          "type": "uint256"
        },
        {
          "name": "_node",
          "type": "address"
        },
        {
          "name": "_user",
          "type": "address"
        }
      ],
      "name": "getWasAssignedToUser",
      "outputs": [
        {
          "name": "",
          "type": "bool"
        }
      ],
      "payable": false,
      "stateMutability": "view",
      "type": "function"
    },
    {
      "constant": true,
      "inputs": [
        {
          "name": "_roundIndex",
          "type": "uint256"
        },
        {
          "name": "_node",
          "type": "address"
        },
        {
          "name": "_user",
          "type": "address"
        }
      ],
      "name": "getHasDissented",
      "outputs": [
        {
          "name": "",
          "type": "bool"
        }
      ],
      "payable": false,
      "stateMutability": "view",
      "type": "function"
    },
    {
      "constant": true,
      "inputs": [
        {
          "name": "_roundIndex",
          "type": "uint256"
        },
        {
          "name": "_user",
          "type": "address"
        }
      ],
      "name": "getUserComplianceData",
      "outputs": [
        {
          "name": "",
          "type": "int256"
        }
      ],
      "payable": false,
      "stateMutability": "view",
      "type": "function"
    }
  ],
  "bytecode": "0x608060405234801561001057600080fd5b50604051613de4380380613de4833981810160405261010081101561003457600080fd5b50805160208201516040808401516060850151608086015160a087015160c088015160e09098015194519697959693959294919390929190309088908890889088908890889088906100859061014c565b6001600160a01b0398891681529688166020880152949096166040808701919091526060860193909352608085019190915260a084015260c083019390935260e082015290519081900361010001906000f0801580156100e9573d6000803e3d6000fd5b50600080546001600160a01b039283166001600160a01b0319918216178255600180549b9093169a169990991781556002805460ff60a01b1916905560038990554260048190556005556006989098555050506007949094555061015992505050565b6130bd80610d2783390190565b610bbf806101686000396000f3fe608060405234801561001057600080fd5b50600436106101a95760003560e01c806383ae417b116100f9578063dfe005fe11610097578063e881602311610071578063e8816023146105b6578063ecd8b0ff146105e2578063eff4b6d914610608578063f2268c061461063c576101a9565b8063dfe005fe1461054e578063e6d50d3714610582578063e75467141461058a576101a9565b806396623d19116100d357806396623d19146104d6578063984575591461050a578063ca35c13414610512578063dcdd653a14610546576101a9565b806383ae417b146104be5780638e423325146104c657806394a484d1146104ce576101a9565b8063648036ae1161016657806378e979251161014057806378e979251461045d57806379c6966f146104655780637f1daea21461048257806382bebb1f146104b6576101a9565b8063648036ae146103bc57806364a5511f146103c457806371e5dda914610440576101a9565b806308fec067146101ae57806319e00d68146102d757806326b158cd1461031757806338ceac631461033b5780633f94ce54146103615780635bf5d54c14610390575b600080fd5b6102d5600480360360408110156101c457600080fd5b8101906020810181356401000000008111156101df57600080fd5b8201836020820111156101f157600080fd5b8035906020019184602083028401116401000000008311171561021357600080fd5b919080806020026020016040519081016040528093929190818152602001838360200280828437600092019190915250929594936020810193503591505064010000000081111561026357600080fd5b82018360208201111561027557600080fd5b8035906020019184602083028401116401000000008311171561029757600080fd5b919080806020026020016040519081016040528093929190818152602001838360200280828437600092019190915250929550610668945050505050565b005b610303600480360360408110156102ed57600080fd5b50803590602001356001600160a01b03166106e2565b604080519115158252519081900360200190f35b61031f610710565b604080516001600160a01b039092168252519081900360200190f35b6102d56004803603602081101561035157600080fd5b50356001600160a01b031661071f565b61037e6004803603602081101561037757600080fd5b5035610769565b60408051918252519081900360200190f35b61039861077e565b604051808260068111156103a857fe5b60ff16815260200191505060405180910390f35b61037e61078e565b6103f0600480360360408110156103da57600080fd5b50803590602001356001600160a01b0316610794565b60408051602080825283518183015283519192839290830191858101910280838360005b8381101561042c578181015183820152602001610414565b505050509050019250505060405180910390f35b61037e6004803603602081101561045657600080fd5b5035610899565b61037e6108ab565b61031f6004803603602081101561047b57600080fd5b50356108b1565b6103036004803603606081101561049857600080fd5b508035906001600160a01b03602082013581169160400135166108d8565b61037e610917565b6102d561091d565b61037e61098c565b61037e610992565b61037e600480360360608110156104ec57600080fd5b508035906001600160a01b0360208201358116916040013516610998565b61031f6109d1565b6103036004803603606081101561052857600080fd5b508035906001600160a01b03602082013581169160400135166109e0565b6102d5610a1e565b6103036004803603606081101561056457600080fd5b508035906001600160a01b0360208201358116916040013516610a72565b61031f610aa8565b61037e600480360360408110156105a057600080fd5b50803590602001356001600160a01b0316610ab7565b61037e600480360360408110156105cc57600080fd5b50803590602001356001600160a01b0316610ae2565b610303600480360360208110156105f857600080fd5b50356001600160a01b0316610b11565b6103036004803603606081101561061e57600080fd5b508035906001600160a01b0360208201358116916040013516610b26565b61037e6004803603604081101561065257600080fd5b50803590602001356001600160a01b0316610b5f565b60005b82518110156106dd5781818151811061068057fe5b6020026020010151600b6000600354815260200190815260200160002060000160008584815181106106ae57fe5b6020908102919091018101516001600160a01b031682528101919091526040016000206002015560010161066b565b505050565b6000918252600b602090815260408084206001600160a01b0393909316845291905290206005015460ff1690565b6002546001600160a01b031681565b600380546000908152600b602081815260408084206001600160a01b0390961684526001958601825280842060029081018054880190559454845291905290200180549091019055565b6000908152600b602052604090206002015490565b600254600160a01b900460ff1681565b60035481565b6000828152600b602090815260408083206001600160a01b0385168452909152808220815163203df14760e01b81526004810191909152905160609273__MaxHeapLibrary________________________9263203df1479260248083019392829003018186803b15801561080757600080fd5b505af415801561081b573d6000803e3d6000fd5b505050506040513d6000823e601f3d908101601f19168201604052602081101561084457600080fd5b81019080805164010000000081111561085c57600080fd5b8201602081018481111561086f57600080fd5b815185602082028301116401000000008211171561088c57600080fd5b5090979650505050505050565b60096020526000908152604090205481565b60045481565b600881815481106108be57fe5b6000918252602090912001546001600160a01b0316905081565b6000928352600b602090815260408085206001600160a01b03948516865260010182528085209290931684525290206002015462010000900460ff1690565b60065481565b6003805460010190819055600080546040805163044c170760e41b81526004810194909452516001600160a01b03909116926344c1707092602480830193919282900301818387803b15801561097257600080fd5b505af1158015610986573d6000803e3d6000fd5b50505050565b60055481565b60075481565b6000928352600b602090815260408085206001600160a01b03948516865260019081018352818620939094168552919052909120015490565b6000546001600160a01b031681565b6000928352600b602090815260408085206001600160a01b039485168652600101825280852092909316845252902060020154610100900460ff1690565b600254600790600160a01b900460ff166006811115610a3957fe5b60010181610a4357fe5b066006811115610a4f57fe5b6002805460ff60a01b1916600160a01b836006811115610a6b57fe5b0217905550565b6000928352600b602090815260408085206001600160a01b03948516865260010182528085209290931684525290205460ff1690565b6001546001600160a01b031681565b6000918252600b602090815260408084206001600160a01b0393909316845291905290206002015490565b6000828152600b602090815260408083206001600160a01b038516845260010190915290206002015492915050565b600a6020526000908152604090205460ff1681565b6000928352600b602090815260408085206001600160a01b03948516865260010182528085209290931684525290206002015460ff1690565b6000918252600b602090815260408084206001600160a01b039390931684529190529020600101549056fea265627a7a723058208704612314b62281c33924a19bfb7df2f960f2f007d4018737ad3e6049089a8264736f6c634300050a0032608060405234801561001057600080fd5b506040516130bd3803806130bd833981810160405261010081101561003457600080fd5b50805160208201516040808401516060850151608086015160a087015160c088015160e090980151600080546001600160a01b031916331780825596519899979895979496939592949391926001600160a01b0392909216917f8be0079c531659141344cd1fd0a4f28419497f9722a3daafe3b4186f6b6457e0908290a3600180546001600160a01b03199081166001600160a01b039a8b1617909155600280548216988a1698909817909755600480549097169590971694909417909455600d91909155600e55600f9190915560105560115560006005819055612f9e90819061011f90396000f3fe608060405234801561001057600080fd5b50600436106101cf5760003560e01c80638e4179db11610104578063d57632ea116100a2578063ec55688911610071578063ec55688914610525578063f2fde38b1461052d578063f5dede2114610553578063fc0c546a1461055b576101cf565b8063d57632ea146104db578063d815b4c6146104f8578063dd95dd4b14610500578063e5f95a991461051d576101cf565b8063a43fa4ab116100de578063a43fa4ab1461046b578063b641dd5a14610488578063c35da4be146104a5578063d42e9cee146104d3576101cf565b80638e4179db146104205780638f32d59b14610446578063a2aadc031461044e576101cf565b806344d96e9511610171578063715018a61161014b578063715018a61461039857806379015f43146103a057806386ab6a54146103ce5780638da5cb5b146103fc576101cf565b806344d96e951461035a57806350d4074b1461036257806364630e5f1461036a576101cf565b80632e954897116101ad5780632e954897146102725780633be53609146102b15780633ff36802146102e357806344c170701461033b576101cf565b80630831756a146101d4578063097a389e146102185780630d0ce70014610258575b600080fd5b6101fa600480360360208110156101ea57600080fd5b50356001600160a01b0316610563565b60408051938452602084019290925282820152519081900360600190f35b6102446004803603604081101561022e57600080fd5b50803590602001356001600160a01b0316610584565b604080519115158252519081900360200190f35b6102606105a4565b60408051918252519081900360200190f35b6102986004803603602081101561028857600080fd5b50356001600160a01b03166105aa565b6040805192835260208301919091528051918290030190f35b610244600480360360608110156102c757600080fd5b508035906001600160a01b0360208201351690604001356105c3565b6102eb6105e9565b60408051602080825283518183015283519192839290830191858101910280838360005b8381101561032757818101518382015260200161030f565b505050509050019250505060405180910390f35b6103586004803603602081101561035157600080fd5b5035610739565b005b610260610832565b610260610838565b6103586004803603604081101561038057600080fd5b506001600160a01b038135811691602001351661083e565b610358610bb5565b610358600480360360408110156103b657600080fd5b506001600160a01b0381358116916020013516610c42565b610358600480360360408110156103e457600080fd5b506001600160a01b0381358116916020013516610f69565b6104046112ca565b604080516001600160a01b039092168252519081900360200190f35b6102606004803603602081101561043657600080fd5b50356001600160a01b03166112d9565b6102446113bc565b6103586004803603602081101561046457600080fd5b50356113cd565b6102606004803603602081101561048157600080fd5b5035611825565b6103586004803603602081101561049e57600080fd5b5035611837565b610358600480360360408110156104bb57600080fd5b506001600160a01b0381358116916020013516611960565b610260611d59565b610260600480360360208110156104f157600080fd5b5035611d5f565b610358611d71565b6103586004803603602081101561051657600080fd5b5035611f54565b6102606123c5565b6104046123cb565b6103586004803603602081101561054357600080fd5b50356001600160a01b03166123da565b610260612429565b61040461242f565b60096020526000908152604090208054600182015460029092015490919083565b600b60209081526000928352604080842090915290825290205460ff1681565b600f5481565b6006602052600090815260409020805460019091015482565b600a60209081526000938452604080852082529284528284209052825290205460ff1681565b606060006105f7600361243e565b9050606081604051908082528060200260200182016040528015610625578160200160208202803883390190505b50600160009081527f3617319a054d772f909f7c479a2cebe5066e836a939412e32403c99029b92eff6020527ff5d2b9d7b7dcf31fafb527f48cb641b3e286ba85117ea973378ae75f2b0f27c95482519293506001600160a01b03169183919061068b57fe5b6001600160a01b039092166020928302919091019091015260015b828110156107325760036000836106c484600163ffffffff61247d16565b815181106106ce57fe5b6020908102919091018101516001600160a01b0390811683528282019390935260409182016000908120600182529091522054835191169083908390811061071257fe5b6001600160a01b03909216602092830291909101909101526001016106a6565b5091505090565b6107416113bc565b61077c5760405162461bcd60e51b8152600401808060200182810382526021815260200180612d7a6021913960400191505060405180910390fd5b6000818152600860205260409020546107b857600860006107a483600163ffffffff61247d16565b8152602001908152602001600020546107c8565b6000818152600860205260409020545b60008281526008602090815260408083209390935560079052205461081057600760006107fc83600163ffffffff61247d16565b815260200190815260200160002054610820565b6000818152600760205260409020545b60009182526007602052604090912055565b600c5481565b600e5481565b600154604080516316fd755360e21b815290516006926001600160a01b031691635bf5d54c916004808301926020929190829003018186803b15801561088357600080fd5b505afa158015610897573d6000803e3d6000fd5b505050506040513d60208110156108ad57600080fd5b505160068111156108ba57fe5b146108fa576040805162461bcd60e51b81526020600482018190526024820152600080516020612f15833981519152604482015290519081900360640190fd5b600154604080516332401b5760e11b815290516000926001600160a01b03169163648036ae916004808301926020929190829003018186803b15801561093f57600080fd5b505afa158015610953573d6000803e3d6000fd5b505050506040513d602081101561096957600080fd5b50516000818152600a602090815260408083206001600160a01b0387168452825280832083805290915290205490915060ff16156109d85760405162461bcd60e51b8152600401808060200182810382526034815260200180612ee16034913960400191505060405180910390fd5b6000818152600a602090815260408083206001600160a01b038087168086529184528285208580528452828520805460ff1916600190811790915554835163033c01ad60e31b815260048101889052602481019390935292519216926319e00d6892604480840193829003018186803b158015610a5457600080fd5b505afa158015610a68573d6000803e3d6000fd5b505050506040513d6020811015610a7e57600080fd5b5051600154604080516396623d1960e01b8152600481018690526001600160a01b0388811660248301528781166044830152915193945060009391909216916396623d19916064808301926020929190829003018186803b158015610ae257600080fd5b505afa158015610af6573d6000803e3d6000fd5b505050506040513d6020811015610b0c57600080fd5b5051905081610b4c5760405162461bcd60e51b8152600401808060200182810382526022815260200180612c156022913960400191505060405180910390fd5b8015610b9f576040805162461bcd60e51b815260206004820181905260248201527f54686520706173736564206e6f646520776173206e6f74206f66666c696e6521604482015290519081900360640190fd5b610bad838633600e546124d4565b505050505050565b610bbd6113bc565b610bf85760405162461bcd60e51b8152600401808060200182810382526021815260200180612d7a6021913960400191505060405180910390fd5b600080546040516001600160a01b03909116907f8be0079c531659141344cd1fd0a4f28419497f9722a3daafe3b4186f6b6457e0908390a3600080546001600160a01b0319169055565b600154604080516316fd755360e21b815290516006926001600160a01b031691635bf5d54c916004808301926020929190829003018186803b158015610c8757600080fd5b505afa158015610c9b573d6000803e3d6000fd5b505050506040513d6020811015610cb157600080fd5b50516006811115610cbe57fe5b14610cfe576040805162461bcd60e51b81526020600482018190526024820152600080516020612f15833981519152604482015290519081900360640190fd5b600154604080516332401b5760e11b815290516000926001600160a01b03169163648036ae916004808301926020929190829003018186803b158015610d4357600080fd5b505afa158015610d57573d6000803e3d6000fd5b505050506040513d6020811015610d6d57600080fd5b50516000818152600a602090815260408083206001600160a01b038716845282528083206002845290915290205490915060ff1615610ddd5760405162461bcd60e51b815260040180806020018281038252603a815260200180612c74603a913960400191505060405180910390fd5b6000818152600a602090815260408083206001600160a01b03808716808652918452828520600286528452828520805460ff1916600190811790915554835163eff4b6d960e01b81526004810188905289831660248201526044810193909352925192169263eff4b6d992606480840193829003018186803b158015610e6257600080fd5b505afa158015610e76573d6000803e3d6000fd5b505050506040513d6020811015610e8c57600080fd5b5051600154604080516339d519c560e21b8152600481018690526001600160a01b03878116602483015291519394506000938493929092169163e754671491604480820192602092909190829003018186803b158015610eeb57600080fd5b505afa158015610eff573d6000803e3d6000fd5b505050506040513d6020811015610f1557600080fd5b5051139050811515811415610f5b5760405162461bcd60e51b8152600401808060200182810382526031815260200180612d496031913960400191505060405180910390fd5b610bad8386336010546124d4565b600154604080516316fd755360e21b815290516006926001600160a01b031691635bf5d54c916004808301926020929190829003018186803b158015610fae57600080fd5b505afa158015610fc2573d6000803e3d6000fd5b505050506040513d6020811015610fd857600080fd5b50516006811115610fe557fe5b14611025576040805162461bcd60e51b81526020600482018190526024820152600080516020612f15833981519152604482015290519081900360640190fd5b600154604080516332401b5760e11b815290516000926001600160a01b03169163648036ae916004808301926020929190829003018186803b15801561106a57600080fd5b505afa15801561107e573d6000803e3d6000fd5b505050506040513d602081101561109457600080fd5b50516000818152600a602090815260408083206001600160a01b038716845282528083206001845290915290205490915060ff16156111045760405162461bcd60e51b8152600401808060200182810382526034815260200180612e826034913960400191505060405180910390fd5b6000818152600a602090815260408083206001600160a01b038087168086529184528285206001808752908552838620805460ff191682179055548351633f8ed75160e11b815260048101889052898316602482015260448101939093529251921692637f1daea292606480840193829003018186803b15801561118757600080fd5b505afa15801561119b573d6000803e3d6000fd5b505050506040513d60208110156111b157600080fd5b50519050806111f15760405162461bcd60e51b8152600401808060200182810382526030815260200180612dc46030913960400191505060405180910390fd5b60015460408051636ff002ff60e11b8152600481018590526001600160a01b03878116602483015286811660448301529151919092169163dfe005fe916064808301926020929190829003018186803b15801561124d57600080fd5b505afa158015611261573d6000803e3d6000fd5b505050506040513d602081101561127757600080fd5b5051156112b55760405162461bcd60e51b815260040180806020018281038252602c815260200180612e56602c913960400191505060405180910390fd5b6112c3828533600f546124d4565b5050505050565b6000546001600160a01b031690565b600080600160009054906101000a90046001600160a01b03166001600160a01b031663648036ae6040518163ffffffff1660e01b815260040160206040518083038186803b15801561132a57600080fd5b505afa15801561133e573d6000803e3d6000fd5b505050506040513d602081101561135457600080fd5b50519050611360612bb3565b506001600160a01b03831660009081526009602090815260409182902082516060810184528154815260018201549281019290925260020154918101829052908210156113ae5780516113b4565b80602001515b949350505050565b6000546001600160a01b0316331490565b600154604080516332401b5760e11b815290516000926001600160a01b03169163648036ae916004808301926020929190829003018186803b15801561141257600080fd5b505afa158015611426573d6000803e3d6000fd5b505050506040513d602081101561143c57600080fd5b5051600154604080516332401b5760e11b815290519293506000926001600160a01b039092169163648036ae91600480820192602092909190829003018186803b15801561148957600080fd5b505afa15801561149d573d6000803e3d6000fd5b505050506040513d60208110156114b357600080fd5b50516000838152600b602090815260408083203384529091529020546001909101915060ff16156115155760405162461bcd60e51b815260040180806020018281038252602b815260200180612eb6602b913960400191505060405180910390fd5b6000828152600b602090815260408083203384529091529020805460ff19166001179055611541612bb3565b5033600090815260096020908152604080832081516060810183528154815260018201549381019390935260020154908201819052909190841061158a5750602081015161158e565b5080515b600085116115e3576040805162461bcd60e51b815260206004820152601e60248201527f506c65617365207061737320616e20616d6f756e742061626f76652030210000604482015290519081900360640190fd5b848110156116225760405162461bcd60e51b8152600401808060200182810382526026815260200180612bef6026913960400191505060405180910390fd5b6000611634828763ffffffff61247d16565b9050600061164d600d548461277090919063ffffffff16565b9050600d548210158061165e575081155b6116995760405162461bcd60e51b815260040180806020018281038252603d815260200180612c37603d913960400191505060405180910390fd5b60408051808201825288815260208082018881523360008181526006845285812094518555915160019485015584516060810186528881528084018881528187018c81529284526009909452949091209351845590519183019190915551600290910155600c54611710908863ffffffff61247d16565b600c55600d5460009061172a90849063ffffffff61277016565b9050600061173e838363ffffffff61247d16565b6000888152600860205260408120549192509061176957600089815260086020526040902054611779565b6000888152600860205260409020545b905061178b818363ffffffff61247d16565b60008981526008602052604090205584611819576117b060033363ffffffff6127da16565b506000888152600760205260409020546117e9576000898152600760205260409020546117e490600163ffffffff61247d16565b611809565b60008881526007602052604090205461180990600163ffffffff61247d16565b6000898152600760205260409020555b50505050505050505050565b60086020526000908152604090205481565b6004546001600160a01b031633146118805760405162461bcd60e51b815260040180806020018281038252602d815260200180612e29602d913960400191505060405180910390fd5b6005548111156118c15760405162461bcd60e51b8152600401808060200182810382526035815260200180612f356035913960400191505060405180910390fd5b6005546118d4908263ffffffff61247d16565b600555600254600480546040805163a9059cbb60e01b81526001600160a01b0392831693810193909352602483018590525192169163a9059cbb916044808201926020929091908290030181600087803b15801561193157600080fd5b505af1158015611945573d6000803e3d6000fd5b505050506040513d602081101561195b57600080fd5b505050565b600154604080516316fd755360e21b815290516006926001600160a01b031691635bf5d54c916004808301926020929190829003018186803b1580156119a557600080fd5b505afa1580156119b9573d6000803e3d6000fd5b505050506040513d60208110156119cf57600080fd5b505160068111156119dc57fe5b14611a1c576040805162461bcd60e51b81526020600482018190526024820152600080516020612f15833981519152604482015290519081900360640190fd5b600154604080516332401b5760e11b815290516000926001600160a01b03169163648036ae916004808301926020929190829003018186803b158015611a6157600080fd5b505afa158015611a75573d6000803e3d6000fd5b505050506040513d6020811015611a8b57600080fd5b50516000818152600a602090815260408083206001600160a01b038716845282528083206003845290915290205490915060ff1615611afb5760405162461bcd60e51b815260040180806020018281038252603b815260200180612d0e603b913960400191505060405180910390fd5b6000818152600a602090815260408083206001600160a01b03808716808652918452828520600386528452828520805460ff1916600190811790915554835163328d704d60e21b81526004810188905289831660248201526044810193909352925192169263ca35c13492606480840193829003018186803b158015611b8057600080fd5b505afa158015611b94573d6000803e3d6000fd5b505050506040513d6020811015611baa57600080fd5b505160015460408051637913460360e11b8152600481018690526001600160a01b03878116602483015291519394506000938493929092169163f2268c0691604480820192602092909190829003018186803b158015611c0957600080fd5b505afa158015611c1d573d6000803e3d6000fd5b505050506040513d6020811015611c3357600080fd5b5051600154604080516339d519c560e21b8152600481018890526001600160a01b03898116602483015291519490931394506000938493919092169163e754671491604480820192602092909190829003018186803b158015611c9557600080fd5b505afa158015611ca9573d6000803e3d6000fd5b505050506040513d6020811015611cbf57600080fd5b505113905082611d005760405162461bcd60e51b8152600401808060200182810382526033815260200180612cae6033913960400191505060405180910390fd5b80151582151514611d425760405162461bcd60e51b8152600401808060200182810382526029815260200180612d9b6029913960400191505060405180910390fd5b611d508487336011546124d4565b50505050505050565b60105481565b60076020526000908152604090205481565b600154604080516332401b5760e11b815290516000926001600160a01b03169163648036ae916004808301926020929190829003018186803b158015611db657600080fd5b505afa158015611dca573d6000803e3d6000fd5b505050506040513d6020811015611de057600080fd5b50519050611dec612bd4565b503360009081526006602090815260409182902082518084019093528054835260010154908201819052821015611e6a576040805162461bcd60e51b815260206004820152601c60248201527f4e6f742079657420616c6c6f77656420746f2077697468647261772100000000604482015290519081900360640190fd5b6040805180820182526000808252602080830182815233808452600683528584209451855590516001909401939093556002548551855163a9059cbb60e01b81526004810195909552602485015293516001600160a01b039094169363a9059cbb93604480820194918390030190829087803b158015611ee957600080fd5b505af1158015611efd573d6000803e3d6000fd5b505050506040513d6020811015611f1357600080fd5b5051611f505760405162461bcd60e51b8152600401808060200182810382526035815260200180612df46035913960400191505060405180910390fd5b5050565b600154604080516332401b5760e11b815290516000926001600160a01b03169163648036ae916004808301926020929190829003018186803b158015611f9957600080fd5b505afa158015611fad573d6000803e3d6000fd5b505050506040513d6020811015611fc357600080fd5b5051600154604080516332401b5760e11b815290519293506000926001600160a01b039092169163648036ae91600480820192602092909190829003018186803b15801561201057600080fd5b505afa158015612024573d6000803e3d6000fd5b505050506040513d602081101561203a57600080fd5b5051600254604080516323b872dd60e01b8152336004820152306024820152604481018790529051600190930193506001600160a01b03909116916323b872dd916064808201926020929091908290030181600087803b15801561209d57600080fd5b505af11580156120b1573d6000803e3d6000fd5b505050506040513d60208110156120c757600080fd5b505161211a576040805162461bcd60e51b815260206004820152601e60248201527f4e6f7420656e6f75676820746f6b656e7320666f7220626f6e64696e67210000604482015290519081900360640190fd5b6000828152600b6020908152604080832033845290915290205460ff16156121735760405162461bcd60e51b815260040180806020018281038252602b815260200180612eb6602b913960400191505060405180910390fd5b6000828152600b602090815260408083203384529091529020805460ff1916600117905561219f612bb3565b503360009081526009602090815260408083208151606081018352815481526001820154938101939093526002015490820181905290919084106121e8575060208101516121ec565b5080515b8061226e5761220560036000338163ffffffff61288b16565b5060008381526007602052604090205461223e5760008481526007602052604090205461223990600163ffffffff61290116565b61225e565b60008381526007602052604090205461225e90600163ffffffff61290116565b6000848152600760205260409020555b6000612280828763ffffffff61290116565b90506000612299600d548461277090919063ffffffff16565b6040805160608101825285815260208082018681528284018a8152336000908152600990935293909120915182555160018201559051600290910155600c549091506122eb908863ffffffff61290116565b600c55600d5482101561232f5760405162461bcd60e51b815260040180806020018281038252602d815260200180612ce1602d913960400191505060405180910390fd5b6000612346600d548461277090919063ffffffff16565b9050600061235a828463ffffffff61247d16565b6000888152600860205260408120549192509061238557600089815260086020526040902054612395565b6000888152600860205260409020545b90506123a7818363ffffffff61290116565b60009889526008602052604090982097909755505050505050505050565b600d5481565b6001546001600160a01b031681565b6123e26113bc565b61241d5760405162461bcd60e51b8152600401808060200182810382526021815260200180612d7a6021913960400191505060405180910390fd5b61242681612956565b50565b60115481565b6002546001600160a01b031681565b600080808061244f85826001612a05565b90935091505b6001600160a01b038216156113b45761247085836001612a05565b9093509150600101612455565b6000828211156124c9576040805162461bcd60e51b81526020600482015260126024820152715361666553756220756e646572666c6f772160701b604482015290519081900360640190fd5b508082035b92915050565b6000600185016124e2612bb3565b506001600160a01b038516600090815260096020908152604091829020825160608101845281548152600182015492810192909252600201549181019190915261252a612bb3565b506001600160a01b0385166000908152600960209081526040808320815160608101835281548152600182015493810193909352600201548282015283015190919089101561257a578251612580565b82602001515b90506000898360400151111561259757825161259d565b82602001515b905060006125c260646125b6858b63ffffffff612a5516565b9063ffffffff61277016565b905060006125d782600263ffffffff61277016565b905060006125f283886020015161247d90919063ffffffff16565b9050600061260d83886020015161290190919063ffffffff16565b905060405180606001604052808781526020018381526020018a815250600960008f6001600160a01b03166001600160a01b0316815260200190815260200160002060008201518160000155602082015181600101556040820151816002015590505060405180606001604052808681526020018281526020018a815250600960008e6001600160a01b03166001600160a01b031681526020019081526020016000206000820151816000015560208201518160010155604082015181600201559050506126e68360055461290190919063ffffffff16565b6005819055507fb0f9aff79729f95cfd3c5a53434ea39810e21e8ad1cc3d50a22bd4a6aecb876e8e8e8e8e60405180858152602001846001600160a01b03166001600160a01b03168152602001836001600160a01b03166001600160a01b0316815260200182815260200194505050505060405180910390a1505050505050505050949350505050565b60008082116127c6576040805162461bcd60e51b815260206004820152601b60248201527f536166654469762063616e6e6f74206469766964652062792030210000000000604482015290519081900360640190fd5b60008284816127d157fe5b04949350505050565b60006001600160a01b03821615806127f957506127f78383612ab8565b155b15612806575060006124ce565b6001600160a01b038281166000908152602085815260408083208380529091528082205460018084529190922054612845938793811692911690612b56565b506001600160a01b03811660009081526020928352604080822082805290935282812080546001600160a01b031990811690915560018252929020805490921690915590565b60006128978584612ab8565b1580156128a957506128a98585612ab8565b156128f6576001600160a01b038085166000908152602087815260408083208615158452909152902054166128e086868686612b56565b6128ec86858386612b56565b60019150506113b4565b506000949350505050565b60008282018381101561294f576040805162461bcd60e51b815260206004820152601160248201527053616665416464206f766572666c6f772160781b604482015290519081900360640190fd5b9392505050565b6001600160a01b0381166129aa576040805162461bcd60e51b81526020600482015260166024820152754e6577206f776e65722063616e6e6f7420626520302160501b604482015290519081900360640190fd5b600080546040516001600160a01b03808516939216917f8be0079c531659141344cd1fd0a4f28419497f9722a3daafe3b4186f6b6457e091a3600080546001600160a01b0319166001600160a01b0392909216919091179055565b600080612a128585612ab8565b612a2157506000905080612a4d565b50506001600160a01b038083166000908152602085815260408083208515158452909152902054600191165b935093915050565b600082612a64575060006124ce565b82820282848281612a7157fe5b041461294f576040805162461bcd60e51b8152602060048201526011602482015270536166654d756c206f766572666c6f772160781b604482015290519081900360640190fd5b6001600160a01b03818116600090815260208481526040808320838052909152812054909116158015612b0d57506001600160a01b038281166000908152602085815260408083206001845290915290205416155b15612b4e57600080805260208481526040808320600184529091529020546001600160a01b0383811691161415612b46575060016124ce565b5060006124ce565b5060016124ce565b6001600160a01b0391821660008181526020868152604080832094158084529482528083208054969097166001600160a01b0319968716811790975595825295865284812092158152919094529190912080549091169091179055565b60405180606001604052806000815260200160008152602001600081525090565b60405180604001604052806000815260200160008152509056fe596f7520646f6e2774206861766520656e6f756768207374616b6520746f20756e626f6e642154686520706173736564207573657220776173206e6f742064697373656e74656421596f75206d6179206f6e6c7920756e626f6e6420757020746f20746865206d696e696d756d20616c6c6f77616e6365206f7220616c6c207374616b6521546865206e6f64652068617320616c7265616479206265656e20736c617368656420666f7220616e20696e636f727265637420726573756c742154686520706173736564206e6f646520646964206e6f742064697373656e7420746f2074686520706173736564207573657221596f75206d75737420626f6e64206174206c6561737420746865206d696e696d756d20616c6c6f77616e636521546865206e6f64652068617320616c7265616479206265656e20736c617368656420666f7220616e20696e636f72726563742064697373656e742154686520706173736564206e6f646520646964206e6f74206769766520616e20696e636f727265637420726573756c74214f6e6c79206f776e65722063616e2075736520746869732066756e6374696f6e215468652064697373656e742066726f6d20706173736564206e6f64652077617320636f72726563742154686520706173736564206e6f646520776173206e6f742061737369676e656420746f207061737365642075736572214e6f7420656e6f75676820746f6b656e7320696e20626f6e64696e6720636f6e747261637420666f72207769746864726177616c214f6e6c79206a757269466f756e646174696f6e206d61792077697468647261772074686569722066756e64732154686520706173736564206e6f6465206861732072657665616c65642068697320636f6d6d69746d656e7421546865206e6f64652068617320616c7265616479206265656e20736c617368656420666f72206e6f742072657665616c696e6721596f75206d6179206f6e6c7920626f6e64206f7220756e626f6e64206f6e63652070657220726f756e6421546865206e6f64652068617320616c7265616479206265656e20736c617368656420666f72206265696e67206f66666c696e652150726f7879206d75737420626520696e20736c617368696e67207374616765214e6f7420656e6f7567682066756e647320746f2077697468647261772066726f6d206a7572466f756e646174696f6e46756e647321a265627a7a7230582011eb554ec9ea6de97a9c2ada71858e4fd4e77c2a09527186221354bb285f903564736f6c634300050a0032",
  "source": "pragma solidity 0.5.10;\r\n\r\nimport \"../lib/IERC20.sol\";\r\nimport \"../lib/SafeMath.sol\";\r\n\r\nimport \"./lib/MaxHeapLibrary.sol\";\r\nimport \"./JuriBonding.sol\";\r\nimport \"./JuriNetworkProxy.sol\";\r\n\r\ncontract JuriNetworkProxyMock {\r\n    using SafeMath for uint256;\r\n    using MaxHeapLibrary for MaxHeapLibrary.heapStruct;\r\n\r\n    event RemovedMax(address user, address removedNode);\r\n    event AddedVerifierHash(address user, address node, bytes32 verifierHash);\r\n\r\n    event OLD_MAX(bytes32 maxVerifierHash);\r\n    event NEW_MAX(bytes32 maxVerifierHash);\r\n\r\n    enum Stages {\r\n        USER_ADDING_HEART_RATE_DATA,\r\n        NODES_ADDING_RESULT_COMMITMENTS,\r\n        NODES_ADDING_RESULT_REVEALS,\r\n        DISSENTING_PERIOD,\r\n        DISSENTS_NODES_ADDING_RESULT_COMMITMENTS,\r\n        DISSENTS_NODES_ADDING_RESULT_REVEALS,\r\n        SLASHING_PERIOD\r\n    }\r\n\r\n    struct UserState {\r\n        MaxHeapLibrary.heapStruct verifierHashesMaxHeap;\r\n        int256 complianceDataBeforeDissent;\r\n        int256 userComplianceData;\r\n        bytes32 userWorkoutSignature;\r\n        string userHeartRateDataStoragePath;\r\n        bool dissented;\r\n    }\r\n\r\n    struct NodeForUserState {\r\n        bool hasRevealed;\r\n        bytes32 complianceDataCommitment;\r\n        bool givenNodeResult;\r\n        bool hasDissented;\r\n        bool wasAssignedToUser;\r\n    }\r\n\r\n    struct NodeState {\r\n        mapping (address => NodeForUserState) nodeForUserStates;\r\n        bool hasRetrievedRewards;\r\n        uint256 activityCount;\r\n    }\r\n\r\n    struct JuriRound {\r\n        mapping (address => UserState) userStates;\r\n        mapping (address => NodeState) nodeStates;\r\n        uint256 totalActivityCount;\r\n    }\r\n\r\n    JuriBonding public bonding;\r\n    IERC20 public juriFeesToken;\r\n    SkaleFileStorageInterface public skaleFileStorage;\r\n\r\n    Stages public currentStage;\r\n    uint256 public roundIndex;\r\n    uint256 public startTime;\r\n    uint256 public lastStageUpdate;\r\n    uint256 public totalJuriFees;\r\n    uint256 public nodeVerifierCount;\r\n    address[] public dissentedUsers;\r\n\r\n    mapping (uint256 => uint256) public timesForStages;\r\n    mapping (address => bool) public isRegisteredJuriStakingPool;\r\n    mapping (uint256 => JuriRound) private stateForRound;\r\n\r\n    constructor(\r\n        IERC20 _juriFeesToken,\r\n        IERC20 _juriToken,\r\n        address _juriFoundation,\r\n        uint256 _minStakePerNode,\r\n        uint256 _offlinePenalty,\r\n        uint256 _notRevealPenalty,\r\n        uint256 _incorrectResultPenalty,\r\n        uint256 _incorrectDissentPenalty\r\n    ) public {\r\n        bonding = new JuriBonding(\r\n            JuriNetworkProxy(address(this)),\r\n            _juriToken,\r\n            _juriFoundation,\r\n            _minStakePerNode,\r\n            _offlinePenalty,\r\n            _notRevealPenalty,\r\n            _incorrectResultPenalty,\r\n            _incorrectDissentPenalty\r\n        );\r\n\r\n        juriFeesToken = _juriFeesToken;\r\n        currentStage = Stages.USER_ADDING_HEART_RATE_DATA;\r\n        roundIndex = 0;\r\n        startTime = now;\r\n        lastStageUpdate = now;\r\n        totalJuriFees = 0;\r\n        nodeVerifierCount = 1;\r\n    }\r\n\r\n    function moveToNextStage() public {\r\n        currentStage = Stages((uint256(currentStage) + 1) % 7);\r\n    }\r\n\r\n    function incrementRoundIndex() public {\r\n        roundIndex++;\r\n\r\n        bonding.moveToNextRound(roundIndex);\r\n    }\r\n\r\n    function increaseNodeActivity(address _node) public {\r\n        stateForRound[roundIndex].nodeStates[_node].activityCount++;\r\n        stateForRound[roundIndex].totalActivityCount++;\r\n    }\r\n\r\n    function addComplianceDataForUsers(\r\n        address[] memory _users,\r\n        int256[] memory _complianceData\r\n    ) public {\r\n        for (uint256 i = 0; i < _users.length; i++) {\r\n            stateForRound[roundIndex].userStates[_users[i]].userComplianceData\r\n                = _complianceData[i];\r\n        }\r\n    }\r\n\r\n    function getUserWorkAssignmentHashes(uint256 _roundIndex, address _user)\r\n        public\r\n        view\r\n        returns (uint256[] memory) {\r\n        return stateForRound[_roundIndex].userStates[_user].verifierHashesMaxHeap.getLowestHashes();\r\n    }\r\n\r\n    function getDissented(uint256 _roundIndex, address _user)\r\n        public\r\n        view\r\n        returns (bool) {\r\n        return stateForRound[_roundIndex].userStates[_user].dissented;\r\n    }\r\n\r\n    function getComplianceDataBeforeDissent(uint256 _roundIndex, address _user)\r\n        public\r\n        view\r\n        returns (int256) {\r\n        return stateForRound[_roundIndex].userStates[_user].complianceDataBeforeDissent;\r\n    }\r\n\r\n    function getHasRevealed(uint256 _roundIndex, address _node, address _user)\r\n        public\r\n        view\r\n        returns (bool) {\r\n        return stateForRound[_roundIndex].nodeStates[_node].nodeForUserStates[_user].hasRevealed;\r\n    }\r\n\r\n    function getNodeActivityCount(uint256 _roundIndex, address _node)\r\n        public\r\n        view\r\n        returns (uint256) {\r\n        return stateForRound[_roundIndex].nodeStates[_node].activityCount;\r\n    }\r\n\r\n    function getTotalActivityCount(uint256 _roundIndex)\r\n        public\r\n        view\r\n        returns (uint256) {\r\n        return stateForRound[_roundIndex].totalActivityCount;\r\n    }\r\n\r\n    function getUserComplianceDataCommitment(\r\n        uint256 _roundIndex,\r\n        address _node,\r\n        address _user\r\n    ) public view returns (bytes32) {\r\n        return stateForRound[_roundIndex].nodeStates[_node].nodeForUserStates[_user].complianceDataCommitment;\r\n    }\r\n\r\n    function getGivenNodeResult(\r\n        uint256 _roundIndex,\r\n        address _node,\r\n        address _user\r\n    ) public view returns (bool) {\r\n        return stateForRound[_roundIndex].nodeStates[_node].nodeForUserStates[_user].givenNodeResult;\r\n    }\r\n\r\n    function getWasAssignedToUser(\r\n        uint256 _roundIndex,\r\n        address _node,\r\n        address _user\r\n    ) public view returns (bool) {\r\n        return stateForRound[_roundIndex].nodeStates[_node].nodeForUserStates[_user].wasAssignedToUser;\r\n    }\r\n\r\n    function getHasDissented(uint256 _roundIndex, address _node, address _user)\r\n        public\r\n        view\r\n        returns (bool) {\r\n        return stateForRound[_roundIndex].nodeStates[_node].nodeForUserStates[_user].hasDissented;\r\n    }\r\n\r\n    function getUserComplianceData(uint256 _roundIndex, address _user)\r\n        public\r\n        view\r\n        returns (int256) {\r\n        return stateForRound[_roundIndex].userStates[_user].userComplianceData;\r\n    }\r\n}",
  "sourcePath": "C:/Users/mail/Personal/Juri/JuriStakingContract/contracts/research/JuriNetworkProxyMock.sol",
  "compiler": {
    "name": "solc",
    "version": "0.5.10+commit.5a6ea5b1.Emscripten.clang"
  },
  "schemaVersion": "3.0.11",
  "updatedAt": "2019-08-26T23:41:08.226Z",
  "devdoc": {
    "methods": {}
  },
  "userdoc": {
    "methods": {}
  }
}