{
  "contractName": "JuriStakingPoolWithOracleMock",
  "abi": [
    {
      "constant": true,
      "inputs": [],
      "name": "getUsers",
      "outputs": [
        {
          "name": "",
          "type": "address[]"
        }
      ],
      "payable": false,
      "stateMutability": "view",
      "type": "function"
    },
    {
      "constant": false,
      "inputs": [
        {
          "name": "_updateIterationCount",
          "type": "uint256"
        }
      ],
      "name": "firstUpdateStakeForNextXAmountOfUsers",
      "outputs": [],
      "payable": false,
      "stateMutability": "nonpayable",
      "type": "function"
    },
    {
      "constant": true,
      "inputs": [],
      "name": "nextStakingRound",
      "outputs": [
        {
          "name": "totalAddedStake",
          "type": "uint256"
        }
      ],
      "payable": false,
      "stateMutability": "view",
      "type": "function"
    },
    {
      "constant": true,
      "inputs": [
        {
          "name": "_user",
          "type": "address"
        }
      ],
      "name": "getAdditionalStakeForUserInNextPeriod",
      "outputs": [
        {
          "name": "",
          "type": "uint256"
        }
      ],
      "payable": false,
      "stateMutability": "view",
      "type": "function"
    },
    {
      "constant": true,
      "inputs": [],
      "name": "juriAddress",
      "outputs": [
        {
          "name": "",
          "type": "address"
        }
      ],
      "payable": false,
      "stateMutability": "view",
      "type": "function"
    },
    {
      "constant": false,
      "inputs": [
        {
          "name": "_amount",
          "type": "uint256"
        }
      ],
      "name": "withdraw",
      "outputs": [],
      "payable": false,
      "stateMutability": "nonpayable",
      "type": "function"
    },
    {
      "constant": false,
      "inputs": [
        {
          "name": "_updateIterationCount",
          "type": "uint256"
        }
      ],
      "name": "checkNewAddedComplianceData",
      "outputs": [],
      "payable": false,
      "stateMutability": "nonpayable",
      "type": "function"
    },
    {
      "constant": true,
      "inputs": [
        {
          "name": "",
          "type": "uint256"
        }
      ],
      "name": "users",
      "outputs": [
        {
          "name": "",
          "type": "address"
        }
      ],
      "payable": false,
      "stateMutability": "view",
      "type": "function"
    },
    {
      "constant": true,
      "inputs": [],
      "name": "getIsCurrentRoundStaking",
      "outputs": [
        {
          "name": "",
          "type": "bool"
        }
      ],
      "payable": false,
      "stateMutability": "view",
      "type": "function"
    },
    {
      "constant": false,
      "inputs": [
        {
          "name": "_amount",
          "type": "uint256"
        }
      ],
      "name": "addOwnerFunds",
      "outputs": [],
      "payable": false,
      "stateMutability": "nonpayable",
      "type": "function"
    },
    {
      "constant": false,
      "inputs": [
        {
          "name": "_updateIterationCount",
          "type": "uint256"
        },
        {
          "name": "_wasCompliant",
          "type": "bool[]"
        }
      ],
      "name": "addWasCompliantDataForUsers",
      "outputs": [],
      "payable": false,
      "stateMutability": "nonpayable",
      "type": "function"
    },
    {
      "constant": true,
      "inputs": [
        {
          "name": "",
          "type": "uint256"
        },
        {
          "name": "",
          "type": "address"
        }
      ],
      "name": "complianceDataAtIndex",
      "outputs": [
        {
          "name": "",
          "type": "bool"
        }
      ],
      "payable": false,
      "stateMutability": "view",
      "type": "function"
    },
    {
      "constant": false,
      "inputs": [
        {
          "name": "_newJuriAddress",
          "type": "address"
        }
      ],
      "name": "setJuriAddress",
      "outputs": [],
      "payable": false,
      "stateMutability": "nonpayable",
      "type": "function"
    },
    {
      "constant": true,
      "inputs": [],
      "name": "currentStakingRound",
      "outputs": [
        {
          "name": "roundIndex",
          "type": "uint256"
        },
        {
          "name": "stage",
          "type": "uint8"
        },
        {
          "name": "addComplianceDataIndex",
          "type": "uint256"
        },
        {
          "name": "updateStaking1Index",
          "type": "uint256"
        },
        {
          "name": "updateStaking2Index",
          "type": "uint256"
        },
        {
          "name": "totalStakeToSlash",
          "type": "uint256"
        },
        {
          "name": "nonCompliancePenalty",
          "type": "uint256"
        },
        {
          "name": "totalPayout",
          "type": "uint256"
        },
        {
          "name": "juriFees",
          "type": "uint256"
        },
        {
          "name": "useMaxNonCompliancy",
          "type": "bool"
        }
      ],
      "payable": false,
      "stateMutability": "view",
      "type": "function"
    },
    {
      "constant": false,
      "inputs": [
        {
          "name": "_user",
          "type": "address"
        },
        {
          "name": "_amount",
          "type": "uint256"
        },
        {
          "name": "_canWithdrawAll",
          "type": "bool"
        }
      ],
      "name": "_withdrawForUser",
      "outputs": [],
      "payable": false,
      "stateMutability": "nonpayable",
      "type": "function"
    },
    {
      "constant": true,
      "inputs": [],
      "name": "complianceDataIndex",
      "outputs": [
        {
          "name": "",
          "type": "uint256"
        }
      ],
      "payable": false,
      "stateMutability": "view",
      "type": "function"
    },
    {
      "constant": true,
      "inputs": [],
      "name": "poolDefinition",
      "outputs": [
        {
          "name": "startTime",
          "type": "uint256"
        },
        {
          "name": "periodLength",
          "type": "uint256"
        },
        {
          "name": "feePercentage",
          "type": "uint256"
        },
        {
          "name": "compliantGainPercentage",
          "type": "uint256"
        },
        {
          "name": "maxNonCompliantPenaltyPercentage",
          "type": "uint256"
        },
        {
          "name": "maxNonCompliantFactor",
          "type": "uint256"
        },
        {
          "name": "minStakePerUser",
          "type": "uint256"
        },
        {
          "name": "maxStakePerUser",
          "type": "uint256"
        },
        {
          "name": "maxTotalStake",
          "type": "uint256"
        }
      ],
      "payable": false,
      "stateMutability": "view",
      "type": "function"
    },
    {
      "constant": false,
      "inputs": [],
      "name": "renounceOwnership",
      "outputs": [],
      "payable": false,
      "stateMutability": "nonpayable",
      "type": "function"
    },
    {
      "constant": true,
      "inputs": [
        {
          "name": "_user",
          "type": "address"
        }
      ],
      "name": "getStakeForUserAtRoundStart",
      "outputs": [
        {
          "name": "",
          "type": "uint256"
        }
      ],
      "payable": false,
      "stateMutability": "view",
      "type": "function"
    },
    {
      "constant": true,
      "inputs": [],
      "name": "getPoolUserCount",
      "outputs": [
        {
          "name": "",
          "type": "uint256"
        }
      ],
      "payable": false,
      "stateMutability": "view",
      "type": "function"
    },
    {
      "constant": false,
      "inputs": [
        {
          "name": "_amount",
          "type": "uint256"
        }
      ],
      "name": "addMoreStakeForNextPeriod",
      "outputs": [],
      "payable": false,
      "stateMutability": "nonpayable",
      "type": "function"
    },
    {
      "constant": false,
      "inputs": [
        {
          "name": "_updateIterationCount",
          "type": "uint256"
        }
      ],
      "name": "secondUpdateStakeForNextXAmountOfUsers",
      "outputs": [],
      "payable": false,
      "stateMutability": "nonpayable",
      "type": "function"
    },
    {
      "constant": true,
      "inputs": [],
      "name": "owner",
      "outputs": [
        {
          "name": "",
          "type": "address"
        }
      ],
      "payable": false,
      "stateMutability": "view",
      "type": "function"
    },
    {
      "constant": true,
      "inputs": [],
      "name": "isOwner",
      "outputs": [
        {
          "name": "",
          "type": "bool"
        }
      ],
      "payable": false,
      "stateMutability": "view",
      "type": "function"
    },
    {
      "constant": false,
      "inputs": [],
      "name": "optOutOfStakingForNextPeriod",
      "outputs": [],
      "payable": false,
      "stateMutability": "nonpayable",
      "type": "function"
    },
    {
      "constant": false,
      "inputs": [
        {
          "name": "_amount",
          "type": "uint256"
        }
      ],
      "name": "withdrawOwnerFunds",
      "outputs": [],
      "payable": false,
      "stateMutability": "nonpayable",
      "type": "function"
    },
    {
      "constant": false,
      "inputs": [],
      "name": "removeUserInNextPeriod",
      "outputs": [],
      "payable": false,
      "stateMutability": "nonpayable",
      "type": "function"
    },
    {
      "constant": true,
      "inputs": [],
      "name": "ownerFunds",
      "outputs": [
        {
          "name": "",
          "type": "uint256"
        }
      ],
      "payable": false,
      "stateMutability": "view",
      "type": "function"
    },
    {
      "constant": true,
      "inputs": [],
      "name": "totalUserStake",
      "outputs": [
        {
          "name": "",
          "type": "uint256"
        }
      ],
      "payable": false,
      "stateMutability": "view",
      "type": "function"
    },
    {
      "constant": true,
      "inputs": [],
      "name": "getIsNextRoundStaking",
      "outputs": [
        {
          "name": "",
          "type": "bool"
        }
      ],
      "payable": false,
      "stateMutability": "view",
      "type": "function"
    },
    {
      "constant": false,
      "inputs": [
        {
          "name": "_amount",
          "type": "uint256"
        }
      ],
      "name": "addUserInNextPeriod",
      "outputs": [],
      "payable": false,
      "stateMutability": "nonpayable",
      "type": "function"
    },
    {
      "constant": true,
      "inputs": [
        {
          "name": "_user",
          "type": "address"
        }
      ],
      "name": "getIsLeavingNextPeriodForUser",
      "outputs": [
        {
          "name": "",
          "type": "bool"
        }
      ],
      "payable": false,
      "stateMutability": "view",
      "type": "function"
    },
    {
      "constant": true,
      "inputs": [
        {
          "name": "_user",
          "type": "address"
        }
      ],
      "name": "getStakeForUserInCurrentPeriod",
      "outputs": [
        {
          "name": "",
          "type": "uint256"
        }
      ],
      "payable": false,
      "stateMutability": "view",
      "type": "function"
    },
    {
      "constant": true,
      "inputs": [],
      "name": "proxy",
      "outputs": [
        {
          "name": "",
          "type": "address"
        }
      ],
      "payable": false,
      "stateMutability": "view",
      "type": "function"
    },
    {
      "constant": false,
      "inputs": [],
      "name": "optInForStakingForNextPeriod",
      "outputs": [],
      "payable": false,
      "stateMutability": "nonpayable",
      "type": "function"
    },
    {
      "constant": false,
      "inputs": [
        {
          "name": "newOwner",
          "type": "address"
        }
      ],
      "name": "transferOwnership",
      "outputs": [],
      "payable": false,
      "stateMutability": "nonpayable",
      "type": "function"
    },
    {
      "constant": true,
      "inputs": [
        {
          "name": "_index",
          "type": "uint256"
        }
      ],
      "name": "getUserToBeAddedNextPeriod",
      "outputs": [
        {
          "name": "",
          "type": "address"
        }
      ],
      "payable": false,
      "stateMutability": "view",
      "type": "function"
    },
    {
      "constant": true,
      "inputs": [],
      "name": "token",
      "outputs": [
        {
          "name": "",
          "type": "address"
        }
      ],
      "payable": false,
      "stateMutability": "view",
      "type": "function"
    },
    {
      "inputs": [
        {
          "name": "_proxy",
          "type": "address"
        },
        {
          "name": "_token",
          "type": "address"
        },
        {
          "name": "_startTime",
          "type": "uint256"
        },
        {
          "name": "_periodLength",
          "type": "uint256"
        },
        {
          "name": "_feePercentage",
          "type": "uint256"
        },
        {
          "name": "_compliantGainPercentage",
          "type": "uint256"
        },
        {
          "name": "_maxNonCompliantPenaltyPercentage",
          "type": "uint256"
        },
        {
          "name": "_minStakePerUser",
          "type": "uint256"
        },
        {
          "name": "_maxStakePerUser",
          "type": "uint256"
        },
        {
          "name": "_maxTotalStake",
          "type": "uint256"
        },
        {
          "name": "_juriAddress",
          "type": "address"
        }
      ],
      "payable": false,
      "stateMutability": "nonpayable",
      "type": "constructor"
    },
    {
      "anonymous": false,
      "inputs": [
        {
          "indexed": false,
          "name": "user",
          "type": "address"
        },
        {
          "indexed": false,
          "name": "wasCompliant",
          "type": "bool"
        }
      ],
      "name": "AddedComplianceDataForUser",
      "type": "event"
    },
    {
      "anonymous": false,
      "inputs": [
        {
          "indexed": true,
          "name": "previousOwner",
          "type": "address"
        },
        {
          "indexed": true,
          "name": "newOwner",
          "type": "address"
        }
      ],
      "name": "OwnershipTransferred",
      "type": "event"
    },
    {
      "constant": false,
      "inputs": [
        {
          "name": "_users",
          "type": "address[]"
        }
      ],
      "name": "insertUsers",
      "outputs": [],
      "payable": false,
      "stateMutability": "nonpayable",
      "type": "function"
    }
  ],
  "bytecode": "0x60806040523480156200001157600080fd5b506040516200408a3803806200408a83398181016040526101608110156200003857600080fd5b50805160208201516040808401516060850151608086015160a087015160c088015160e08901516101008a01516101208b0151610140909b0151600080546001600160a01b031916331780825599519b9c9a9b989a9799969895979496939592949391928d928d928d928d928d928d928d928d928d928d928d928c928c928c928c928c928c928c928c928c928c926001600160a01b0392909216917f8be0079c531659141344cd1fd0a4f28419497f9722a3daafe3b4186f6b6457e0908290a36001600160a01b038a166200016e57604080517f08c379a000000000000000000000000000000000000000000000000000000000815260206004820152601e60248201527f546f6b656e2061646472657373206d75737420626520646566696e6564210000604482015290519081900360640190fd5b428911620001c8576040517f08c379a0000000000000000000000000000000000000000000000000000000008152600401808060200182810382526021815260200180620040696021913960400191505060405180910390fd5b600088116200023857604080517f08c379a000000000000000000000000000000000000000000000000000000000815260206004820152601a60248201527f506572696f64206c656e6774682063616e6e6f74206265203021000000000000604482015290519081900360640190fd5b606487111562000294576040517f08c379a000000000000000000000000000000000000000000000000000000000815260040180806020018281038252603281526020018062003fcf6032913960400191505060405180910390fd5b6064861115620002f0576040517f08c379a000000000000000000000000000000000000000000000000000000000815260040180806020018281038252603d81526020018062003f92603d913960400191505060405180910390fd5b60648511156200034c576040517f08c379a0000000000000000000000000000000000000000000000000000000008152600401808060200182810382526048815260200180620040016048913960600191505060405180910390fd5b60008411620003bc57604080517f08c379a000000000000000000000000000000000000000000000000000000000815260206004820152601f60248201527f4d696e207374616b652070657220757365722063616e6e6f7420626520302100604482015290519081900360640190fd5b600083116200041b57604080517f08c379a000000000000000000000000000000000000000000000000000000000815260206004820152601f602482015260008051602062004049833981519152604482015290519081900360640190fd5b600082116200047a57604080517f08c379a000000000000000000000000000000000000000000000000000000000815260206004820152601f602482015260008051602062004049833981519152604482015290519081900360640190fd5b6001600160a01b038116620004f057604080517f08c379a000000000000000000000000000000000000000000000000000000000815260206004820152601960248201527f4a75726920616464726573732063616e6e6f7420626520302100000000000000604482015290519081900360640190fd5b6000601f8190556020819055602181905562000515906001600160e01b036200065016565b600180546001600160a01b03808d166001600160a01b031992831617909255600280549284169290911691909117905560408051610120810182528a815260208082018b905291810189905260608101889052608081018790529060a08201906200058e906064908990620027ef62000720821b17901c565b8152602001858152602001848152602001838152506003600082015181600001556020820151816001015560408201518160020155606082015181600301556080820151816004015560a0820151816005015560c0820151816006015560e082015181600701556101008201518160080155905050505050505050505050508a602360006101000a8154816001600160a01b0302191690836001600160a01b03160217905550505050505050505050505050505050505050505050506200082c565b60408051610140810182528281526000602080830182905282840182905260608084018390526080840183905260a0840183905260c0840183905260e084018390526101008401839052610120909301829052600f8590556010805460ff19908116909155601183905560128390556013839055601483905560158390556016839055601783905560188054909116905583518085018381529381019485905283815290810191909152905190916019916200070f91601c9162000798565b506020820151816004015590505050565b6000828211156200079257604080517f08c379a000000000000000000000000000000000000000000000000000000000815260206004820152601260248201527f5361666553756220756e646572666c6f77210000000000000000000000000000604482015290519081900360640190fd5b50900390565b828054828255906000526020600020908101928215620007f0579160200282015b82811115620007f057825182546001600160a01b0319166001600160a01b03909116178255602090920191600190910190620007b9565b50620007fe92915062000802565b5090565b6200082991905b80821115620007fe5780546001600160a01b031916815560010162000809565b90565b613756806200083c6000396000f3fe608060405234801561001057600080fd5b506004361061023c5760003560e01c8063837bee201161013b578063d1658d7f116100b8578063ec5568891161007c578063ec55688914610772578063eed7dee91461077a578063f2fde38b14610782578063f9feab53146107a8578063fc0c546a146107c55761023c565b8063d1658d7f146106f9578063d2bbbbbb14610701578063d3f6ca5714610709578063d8e98cbe14610726578063e434f13c1461074c5761023c565b80638f32d59b116100ff5780638f32d59b146106bc578063962743cf146106c4578063ad1211be146106cc578063bc5b9109146106e9578063c1202131146106f15761023c565b8063837bee20146105cf57806387d65ee7146105d757806389356be11461067a5780638ab96b02146106975780638da5cb5b146106b45761023c565b80634696f41a116101c95780636ccb25961161018d5780636ccb2596146105165780636fd2395f1461054a57806370360d3b14610552578063715018a6146105a157806383321afb146105a95761023c565b80634696f41a1461038f57806349d445d0146103ac578063533722cf14610456578063573e57b71461048257806365c2dc7e146104a85761023c565b80632ada10b0116102105780632ada10b0146102f85780632e1a7d4d1461031c578063364afaea14610339578063365b98b2146103565780633ab12565146103735761023c565b8062ce8e3e146102415780630315073b146102995780631bb4fec3146102b85780631d3b32bc146102d2575b600080fd5b6102496107cd565b60408051602080825283518183015283519192839290830191858101910280838360005b8381101561028557818101518382015260200161026d565b505050509050019250505060405180910390f35b6102b6600480360360208110156102af57600080fd5b5035610830565b005b6102c0610a0c565b60408051918252519081900360200190f35b6102c0600480360360208110156102e857600080fd5b50356001600160a01b0316610a12565b610300610a31565b604080516001600160a01b039092168252519081900360200190f35b6102b66004803603602081101561033257600080fd5b5035610a40565b6102b66004803603602081101561034f57600080fd5b5035610b41565b6103006004803603602081101561036c57600080fd5b5035610e3e565b61037b610e65565b604080519115158252519081900360200190f35b6102b6600480360360208110156103a557600080fd5b5035610e7b565b6102b6600480360360408110156103c257600080fd5b813591908101906040810160208201356401000000008111156103e457600080fd5b8201836020820111156103f657600080fd5b8035906020019184602083028401116401000000008311171561041857600080fd5b919080806020026020016040519081016040528093929190818152602001838360200280828437600092019190915250929550611037945050505050565b61037b6004803603604081101561046c57600080fd5b50803590602001356001600160a01b0316611317565b6102b66004803603602081101561049857600080fd5b50356001600160a01b0316611337565b6104b06113fd565b604051808b81526020018a60028111156104c657fe5b60ff1681526020810199909952506040808901979097526060880195909552608087019390935260a086019190915260c085015260e0840152151561010083015251908190036101200192509050f35b6102b66004803603606081101561052c57600080fd5b506001600160a01b0381351690602081013590604001351515611425565b6102c0611528565b61055a61152e565b60408051998a5260208a0198909852888801969096526060880194909452608087019290925260a086015260c085015260e084015261010083015251908190036101200190f35b6102b661154c565b6102c0600480360360208110156105bf57600080fd5b50356001600160a01b03166115d9565b6102c06115f4565b6102b6600480360360208110156105ed57600080fd5b81019060208101813564010000000081111561060857600080fd5b82018360208201111561061a57600080fd5b8035906020019184602083028401116401000000008311171561063c57600080fd5b9190808060200260200160405190810160405280939291908181526020018383602002808284376000920191909152509295506115fa945050505050565b6102b66004803603602081101561069057600080fd5b5035611659565b6102b6600480360360208110156106ad57600080fd5b5035611a8b565b610300611d3c565b61037b611d4b565b6102b6611d5c565b6102b6600480360360208110156106e257600080fd5b5035611ece565b6102b661215c565b6102c06122d3565b6102c06122d9565b61037b6122df565b6102b66004803603602081101561071f57600080fd5b50356122f5565b61037b6004803603602081101561073c57600080fd5b50356001600160a01b0316612518565b6102c06004803603602081101561076257600080fd5b50356001600160a01b0316612536565b610300612551565b6102b6612560565b6102b66004803603602081101561079857600080fd5b50356001600160a01b03166126d5565b610300600480360360208110156107be57600080fd5b5035612721565b61030061274e565b6060601e80548060200260200160405190810160405280929190818152602001828054801561082557602002820191906000526020600020905b81546001600160a01b03168152600190910190602001808311610807575b505050505090505b90565b610838611d4b565b6108735760405162461bcd60e51b81526004018080602001828103825260218152602001806134d46021913960400191505060405180910390fd5b60018060105460ff16600281111561088757fe5b146108c35760405162461bcd60e51b81526004018080602001828103825260278152602001806134f56027913960400191505060405180910390fd5b6012545b601e54811080156108e957506012546108e6908463ffffffff61275d16565b81105b156109d9576000601e82815481106108fd57fe5b60009182526020808320909101546001600160a01b0316808352600c90915260409091205490915060ff1661093257506109d1565b600f5460009081526022602090815260408083206001600160a01b038516845290915281205460ff1690610965836115d9565b905081156109b6576000610978826127b4565b9050600061098c828463ffffffff6127ef16565b6016549091506109a2908263ffffffff61275d16565b6016556109af8583612841565b50506109cd565b6014546109c9908263ffffffff61275d16565b6014555b5050505b6001016108c7565b506012546109ed908363ffffffff61275d16565b6012819055601e5411610a08576010805460ff191660021790555b5050565b601d5481565b6001600160a01b0381166000908152601a60205260409020545b919050565b6002546001600160a01b031681565b60008060105460ff166002811115610a5457fe5b14610a905760405162461bcd60e51b81526004018080602001828103825260278152602001806134f56027913960400191505060405180910390fd5b610af433601e805480602002602001604051908101604052809291908181526020018280548015610aea57602002820191906000526020600020905b81546001600160a01b03168152600190910190602001808311610acc575b5050505050612938565b610b2f5760405162461bcd60e51b815260040180806020018281038252602c815260200180613678602c913960400191505060405180910390fd5b6000610b3c338483611425565b505050565b610b49611d4b565b610b845760405162461bcd60e51b81526004018080602001828103825260218152602001806134d46021913960400191505060405180910390fd5b60008060105460ff166002811115610b9857fe5b14610bd45760405162461bcd60e51b81526004018080602001828103825260278152602001806134f56027913960400191505060405180910390fd5b600454600f54600091610bff91610bf09163ffffffff61298c16565b6003549063ffffffff61275d16565b9050804211610c3f5760405162461bcd60e51b81526004018080602001828103825260308152602001806136f26030913960400191505060405180910390fd5b600f54602354604080516332401b5760e11b815290516001600160a01b039092169163648036ae91600480820192602092909190829003018186803b158015610c8757600080fd5b505afa158015610c9b573d6000803e3d6000fd5b505050506040513d6020811015610cb157600080fd5b50511015610cf05760405162461bcd60e51b815260040180806020018281038252603081526020018061354f6030913960400191505060405180910390fd5b6011545b601e5481108015610d165750601154610d13908563ffffffff61275d16565b81105b15610dff576000601e8281548110610d2a57fe5b600091825260208083209190910154602354600f54604080516339d519c560e21b815260048101929092526001600160a01b039384166024830181905290519096508594939092169263e754671492604480840193829003018186803b158015610d9357600080fd5b505afa158015610da7573d6000803e3d6000fd5b505050506040513d6020811015610dbd57600080fd5b505160215460009081526022602090815260408083206001600160a01b03909716835295905293909320805460ff191691909312151790915550600101610cf4565b50601154610e13908463ffffffff61275d16565b6011819055601e5411610b3c5750506021805460019081019091556010805460ff1916909117905550565b601e8181548110610e4b57fe5b6000918252602090912001546001600160a01b0316905081565b336000908152600c602052604090205460ff1690565b610e83611d4b565b610ebe5760405162461bcd60e51b81526004018080602001828103825260218152602001806134d46021913960400191505060405180910390fd5b60008060105460ff166002811115610ed257fe5b14610f0e5760405162461bcd60e51b81526004018080602001828103825260278152602001806134f56027913960400191505060405180910390fd5b60008211610f4d5760405162461bcd60e51b81526004018080602001828103825260248152602001806133b36024913960400191505060405180910390fd5b600154604080516323b872dd60e01b81523360048201523060248201526044810185905290516001600160a01b03909216916323b872dd916064808201926020929091908290030181600087803b158015610fa757600080fd5b505af1158015610fbb573d6000803e3d6000fd5b505050506040513d6020811015610fd157600080fd5b505161101d576040805162461bcd60e51b8152602060048201526016602482015275546f6b656e207472616e73666572206661696c65642160501b604482015290519081900360640190fd5b601f54611030908363ffffffff61275d16565b601f555050565b6002546001600160a01b031633146110805760405162461bcd60e51b81526004018080602001828103825260278152602001806136a46027913960400191505060405180910390fd5b60008060105460ff16600281111561109457fe5b146110d05760405162461bcd60e51b81526004018080602001828103825260278152602001806134f56027913960400191505060405180910390fd5b600454600f546000916110ec91610bf09163ffffffff61298c16565b905080421161112c5760405162461bcd60e51b81526004018080602001828103825260308152602001806136f26030913960400191505060405180910390fd5b601e54601154611142908663ffffffff61275d16565b111561119b57601e54835160115461115f9163ffffffff61275d16565b1461119b5760405162461bcd60e51b815260040180806020018281038252603381526020018061351c6033913960400191505060405180910390fd5b60115460005b601e54821080156111c357506011546111c0908763ffffffff61275d16565b82105b156112d5578481815181106111d457fe5b60200260200101516022600060215481526020019081526020016000206000601e858154811061120057fe5b6000918252602080832091909101546001600160a01b031683528201929092526040019020805460ff1916911515919091179055601e80547f69e514cdcec7511d4b905b7b81d960d84822e90a49c9ec4b9224c8f92a1378dc91908490811061126557fe5b9060005260206000200160009054906101000a90046001600160a01b031686838151811061128f57fe5b602002602001015160405180836001600160a01b03166001600160a01b03168152602001821515151581526020019250505060405180910390a1600191820191016111a1565b50506011546112ea908563ffffffff61275d16565b6011819055601e5411611311576021805460019081019091556010805460ff191690911790555b50505050565b602260209081526000928352604080842090915290825290205460ff1681565b6002546001600160a01b031633146113805760405162461bcd60e51b81526004018080602001828103825260278152602001806136a46027913960400191505060405180910390fd5b6001600160a01b0381166113db576040805162461bcd60e51b815260206004820152601d60248201527f4e6577204a75726920616464726573732063616e6e6f74206265203021000000604482015290519081900360640190fd5b600280546001600160a01b0319166001600160a01b0392909216919091179055565b600f5460105460115460125460135460145460155460165460175460185460ff98891698168a565b600061143184846129ef565b90508281101561145c57600061144d848363ffffffff6127ef16565b905061145a858285612a58565b505b6001546040805163a9059cbb60e01b81526001600160a01b038781166004830152602482018790529151919092169163a9059cbb9160448083019260209291908290030181600087803b1580156114b257600080fd5b505af11580156114c6573d6000803e3d6000fd5b505050506040513d60208110156114dc57600080fd5b5051611311576040805162461bcd60e51b8152602060048201526016602482015275546f6b656e207472616e73666572206661696c65642160501b604482015290519081900360640190fd5b60215481565b600354600454600554600654600754600854600954600a54600b5489565b611554611d4b565b61158f5760405162461bcd60e51b81526004018080602001828103825260218152602001806134d46021913960400191505060405180910390fd5b600080546040516001600160a01b03909116907f8be0079c531659141344cd1fd0a4f28419497f9722a3daafe3b4186f6b6457e0908390a3600080546001600160a01b0319169055565b6001600160a01b03166000908152600e602052604090205490565b601e5490565b60005b8151811015610a0857601e82828151811061161457fe5b60209081029190910181015182546001808201855560009485529290932090920180546001600160a01b0319166001600160a01b0390931692909217909155016115fd565b60008060105460ff16600281111561166d57fe5b146116a95760405162461bcd60e51b81526004018080602001828103825260278152602001806134f56027913960400191505060405180910390fd5b61170e336019600301805480602002602001604051908101604052809291908181526020018280548015610aea576020028201919060005260206000209081546001600160a01b03168152600190910190602001808311610acc575050505050612938565b80611776575061177633601e805480602002602001604051908101604052809291908181526020018280548015610aea576020028201919060005260206000209081546001600160a01b03168152600190910190602001808311610acc575050505050612938565b6117b15760405162461bcd60e51b815260040180806020018281038252603c815260200180613498603c913960400191505060405180910390fd5b336000908152600d6020908152604080832054601a90925290912054836118095760405162461bcd60e51b81526004018080602001828103825260248152602001806133b36024913960400191505060405180910390fd5b600a5461181c838363ffffffff61275d16565b106118585760405162461bcd60e51b815260040180806020018281038252604481526020018061342f6044913960600191505060405180910390fd5b600b54601d546020546118709163ffffffff61275d16565b106118ac5760405162461bcd60e51b81526004018080602001828103825260428152602001806136366042913960600191505060405180910390fd5b60006118be828663ffffffff61275d16565b600a5490915085906118d6858463ffffffff61275d16565b1115611901576118fe6118ef858563ffffffff61275d16565b600a549063ffffffff6127ef16565b90505b6000611913848363ffffffff61275d16565b600b54601d5460205492935090916119429184916119369163ffffffff61275d16565b9063ffffffff61275d16565b111561197457601d5460205461197191611962919063ffffffff61275d16565b600b549063ffffffff6127ef16565b91505b600154604080516323b872dd60e01b81523360048201523060248201526044810185905290516001600160a01b03909216916323b872dd916064808201926020929091908290030181600087803b1580156119ce57600080fd5b505af11580156119e2573d6000803e3d6000fd5b505050506040513d60208110156119f857600080fd5b5051611a44576040805162461bcd60e51b8152602060048201526016602482015275546f6b656e207472616e73666572206661696c65642160501b604482015290519081900360640190fd5b6000611a56858463ffffffff61275d16565b336000908152601a60205260409020819055601d54909150611a7e908463ffffffff61275d16565b601d555050505050505050565b611a93611d4b565b611ace5760405162461bcd60e51b81526004018080602001828103825260218152602001806134d46021913960400191505060405180910390fd5b60028060105460ff166002811115611ae257fe5b14611b1e5760405162461bcd60e51b81526004018080602001828103825260278152602001806134f56027913960400191505060405180910390fd5b601354611b3f57611b2d612ac6565b6018805460ff19169115159190911790555b6013546000905b601e54611b59828463ffffffff6127ef16565b1080611b755750601c54611b73828463ffffffff6127ef16565b105b8015611b925750601354611b8f908563ffffffff61275d16565b81105b15611cdf576000611ba9828463ffffffff6127ef16565b601c54909150611bc090829063ffffffff61275d16565b601e541115611bf357611bf3601e8281548110611bd957fe5b6000918252602090912001546001600160a01b0316612b01565b601e5481108015611c3c575060196002016000601e8381548110611c1357fe5b60009182526020808320909101546001600160a01b0316835282019290925260400190205460ff165b15611c9f57600060196002016000601e8481548110611c5757fe5b6000918252602080832091909101546001600160a01b031683528201929092526040019020805460ff1916911515919091179055611c9481612b85565b600190920191611cd6565b601c54811015611cd657611cd660196003018281548110611cbc57fe5b6000918252602090912001546001600160a01b0316612c67565b50600101611b46565b50601354611d05908290611cf9908663ffffffff61275d16565b9063ffffffff6127ef16565b6013819055601e5411801590611d1f5750601c5460135410155b15610b3c57611d2c612cf4565b611d34612dcf565b610b3c612e1e565b6000546001600160a01b031690565b6000546001600160a01b0316331490565b60008060105460ff166002811115611d7057fe5b14611dac5760405162461bcd60e51b81526004018080602001828103825260278152602001806134f56027913960400191505060405180910390fd5b611e11336019600301805480602002602001604051908101604052809291908181526020018280548015610aea576020028201919060005260206000209081546001600160a01b03168152600190910190602001808311610acc575050505050612938565b80611e795750611e7933601e805480602002602001604051908101604052809291908181526020018280548015610aea576020028201919060005260206000209081546001600160a01b03168152600190910190602001808311610acc575050505050612938565b611eb45760405162461bcd60e51b815260040180806020018281038252603c815260200180613498603c913960400191505060405180910390fd5b50336000908152601960205260409020805460ff19169055565b611ed6611d4b565b611f115760405162461bcd60e51b81526004018080602001828103825260218152602001806134d46021913960400191505060405180910390fd5b60008060105460ff166002811115611f2557fe5b14611f615760405162461bcd60e51b81526004018080602001828103825260278152602001806134f56027913960400191505060405180910390fd5b816000611f6c612e47565b905060008211611fad5760405162461bcd60e51b81526004018080602001828103825260258152602001806134736025913960400191505060405180910390fd5b6000601f5411612004576040805162461bcd60e51b815260206004820152601f60248201527f4e6f2066756e647320617661696c61626c6520746f2077697468647261772100604482015290519081900360640190fd5b80600101601f54116120475760405162461bcd60e51b81526004018080602001828103825260268152602001806135e76026913960400191505060405180910390fd5b612057818363ffffffff61275d16565b601f54101561207657601f54612073908263ffffffff6127ef16565b91505b6001546040805163a9059cbb60e01b81523360048201526024810185905290516001600160a01b039092169163a9059cbb916044808201926020929091908290030181600087803b1580156120ca57600080fd5b505af11580156120de573d6000803e3d6000fd5b505050506040513d60208110156120f457600080fd5b5051612140576040805162461bcd60e51b8152602060048201526016602482015275546f6b656e207472616e73666572206661696c65642160501b604482015290519081900360640190fd5b601f54612153908363ffffffff6127ef16565b601f5550505050565b6121be33601e805480602002602001604051908101604052809291908181526020018280548015610aea576020028201919060005260206000209081546001600160a01b03168152600190910190602001808311610acc575050505050612938565b6121f95760405162461bcd60e51b815260040180806020018281038252602c815260200180613678602c913960400191505060405180910390fd5b60008060105460ff16600281111561220d57fe5b146122495760405162461bcd60e51b81526004018080602001828103825260278152602001806134f56027913960400191505060405180910390fd5b336000908152601b602052604090205460ff16156122ae576040805162461bcd60e51b815260206004820181905260248201527f5573657220616c7265616479206d61726b656420666f722072656d6f76616c21604482015290519081900360640190fd5b336000908152601b60205260409020805460ff191660011790556122d0611d5c565b50565b601f5481565b60205481565b3360009081526019602052604090205460ff1690565b61235a336019600301805480602002602001604051908101604052809291908181526020018280548015610aea576020028201919060005260206000209081546001600160a01b03168152600190910190602001808311610acc575050505050612938565b156123965760405162461bcd60e51b81526004018080602001828103825260328152602001806135b56032913960400191505060405180910390fd5b6123f833601e805480602002602001604051908101604052809291908181526020018280548015610aea576020028201919060005260206000209081546001600160a01b03168152600190910190602001808311610acc575050505050612938565b156124345760405162461bcd60e51b81526004018080602001828103825260278152602001806136cb6027913960400191505060405180910390fd5b60008060105460ff16600281111561244857fe5b146124845760405162461bcd60e51b81526004018080602001828103825260278152602001806134f56027913960400191505060405180910390fd5b6009548210156124c55760405162461bcd60e51b815260040180806020018281038252603681526020018061357f6036913960400191505060405180910390fd5b601c80546001810182556000919091527f0e4562a10381dec21b205ed72637e6b1b523bdd0e4d4d50af5cd23dd4500a2110180546001600160a01b0319163317905561251082611659565b610a08612560565b6001600160a01b03166000908152601b602052604090205460ff1690565b6001600160a01b03166000908152600d602052604090205490565b6023546001600160a01b031681565b60008060105460ff16600281111561257457fe5b146125b05760405162461bcd60e51b81526004018080602001828103825260278152602001806134f56027913960400191505060405180910390fd5b612615336019600301805480602002602001604051908101604052809291908181526020018280548015610aea576020028201919060005260206000209081546001600160a01b03168152600190910190602001808311610acc575050505050612938565b8061267d575061267d33601e805480602002602001604051908101604052809291908181526020018280548015610aea576020028201919060005260206000209081546001600160a01b03168152600190910190602001808311610acc575050505050612938565b6126b85760405162461bcd60e51b815260040180806020018281038252603c815260200180613498603c913960400191505060405180910390fd5b50336000908152601960205260409020805460ff19166001179055565b6126dd611d4b565b6127185760405162461bcd60e51b81526004018080602001828103825260218152602001806134d46021913960400191505060405180910390fd5b6122d081612e91565b60006019600301828154811061273357fe5b6000918252602090912001546001600160a01b031692915050565b6001546001600160a01b031681565b6000828201838110156127ab576040805162461bcd60e51b815260206004820152601160248201527053616665416464206f766572666c6f772160781b604482015290519081900360640190fd5b90505b92915050565b60006127ae60646127e36127d66003800154606461275d90919063ffffffff16565b859063ffffffff61298c16565b9063ffffffff612f4016565b60008282111561283b576040805162461bcd60e51b81526020600482015260126024820152715361666553756220756e646572666c6f772160701b604482015290519081900360640190fd5b50900390565b6001600160a01b0382166000908152600d6020908152604080832054600e909252822054909190612878908363ffffffff6127ef16565b6001600160a01b0385166000908152601a6020526040812054919250906128ac908390611cf990879063ffffffff61275d16565b6001600160a01b0386166000908152600d60209081526040808320849055600e8252808320849055601a909152812055905082811161290c576129076128f8848363ffffffff6127ef16565b6020549063ffffffff6127ef16565b61292e565b61292e61291f828563ffffffff6127ef16565b6020549063ffffffff61275d16565b6020555050505050565b600080805b835181101561298457846001600160a01b031684828151811061295c57fe5b60200260200101516001600160a01b0316141561297c5760019150612984565b60010161293d565b509392505050565b60008261299b575060006127ae565b828202828482816129a857fe5b04146127ab576040805162461bcd60e51b8152602060048201526011602482015270536166654d756c206f766572666c6f772160781b604482015290519081900360640190fd5b6000806129fb84610a12565b905080831015612a3757612a15818463ffffffff6127ef16565b6001600160a01b0385166000908152601a6020526040902055508190506127ae565b6001600160a01b0384166000908152601a6020526040812055905092915050565b6000612a6384612536565b90506000612a77828563ffffffff6127ef16565b90508215612a9a57602054612a92908563ffffffff6127ef16565b602055612aa4565b612aa48582612faa565b6001600160a01b039094166000908152600d6020526040902093909355505050565b601454600090612ad85750600161082d565b601454601654600091612af6916127e390606463ffffffff61298c16565b600754111591505090565b600f5460009081526022602090815260408083206001600160a01b038516845290915290205460ff1680158015612b5057506001600160a01b0382166000908152600c602052604090205460ff165b15612b7c576000612b60836115d9565b90506000612b6d82613058565b9050612b798482612841565b50505b610a08826130a8565b6000601e8281548110612b9457fe5b60009182526020822001546001600160a01b03169150612bbf612bb683610a12565b61193684612536565b90506001612bce838383611425565b601e5460011015612c4d57601e8054612bee90600163ffffffff6127ef16565b81548110612bf857fe5b600091825260209091200154601e80546001600160a01b039092169186908110612c1e57fe5b9060005260206000200160006101000a8154816001600160a01b0302191690836001600160a01b031602179055505b601e805490612c609060001983016132eb565b5050505050565b601e805460018101825560009182527f50bb669a95c7b50b7e8a6f09454034b2b14cf2b85c730dca9a539ca82cb6e3500180546001600160a01b0319166001600160a01b038416179055612cbc908290612841565b6001600160a01b0316600090815260196020908152604080832054600c909252909120805460ff191660ff9092161515919091179055565b6001546002546017546040805163a9059cbb60e01b81526001600160a01b039384166004820152602481019290925251919092169163a9059cbb9160448083019260209291908290030181600087803b158015612d5057600080fd5b505af1158015612d64573d6000803e3d6000fd5b505050506040513d6020811015612d7a57600080fd5b5051612dcd576040805162461bcd60e51b815260206004820181905260248201527f4a757269206665657320746f6b656e207472616e73666572206661696c656421604482015290519081900360640190fd5b565b60185460ff1615612dcd57600854601454600091612dfa916064916127e3919063ffffffff61298c16565b601454909150600090612e13908363ffffffff6127ef16565b9050610a0881613160565b600f54612e2d9060010161318c565b612e3561325a565b612e3d6132a6565b6017819055601655565b600080612e74612e656003800154606461275d90919063ffffffff16565b6020549063ffffffff61298c16565b9050612e8b602054826127ef90919063ffffffff16565b91505090565b6001600160a01b038116612ee5576040805162461bcd60e51b81526020600482015260166024820152754e6577206f776e65722063616e6e6f7420626520302160501b604482015290519081900360640190fd5b600080546040516001600160a01b03808516939216917f8be0079c531659141344cd1fd0a4f28419497f9722a3daafe3b4186f6b6457e091a3600080546001600160a01b0319166001600160a01b0392909216919091179055565b6000808211612f96576040805162461bcd60e51b815260206004820152601b60248201527f536166654469762063616e6e6f74206469766964652062792030210000000000604482015290519081900360640190fd5b6000828481612fa157fe5b04949350505050565b6000612fb5836115d9565b90506000612fc2826132cc565b90506000612fd6838363ffffffff6127ef16565b9050808410156130175760405162461bcd60e51b815260040180806020018281038252602e8152602001806133d7602e913960400191505060405180910390fd5b600954841015612c605760405162461bcd60e51b815260040180806020018281038252602a815260200180613405602a913960400191505060405180910390fd5b60185460009060ff16156130765761306f826132cc565b9050610a2c565b6014546016546130a0826127e3613093828563ffffffff6127ef16565b879063ffffffff61298c16565b949350505050565b60006130b382612536565b6001600160a01b0383166000908152600c602052604090205490915060ff16613127576001600160a01b0382166000908152601a60205260409020546130ff908263ffffffff61275d16565b6001600160a01b0383166000908152600d6020908152604080832093909355601a9052908120555b506001600160a01b0316600090815260196020908152604080832054600c909252909120805460ff191660ff9092161515919091179055565b601654600090613176908363ffffffff6127ef16565b601f54909150611030908263ffffffff6127ef16565b60408051610140810182528281526000602080830182905282840182905260608084018390526080840183905260a0840183905260c0840183905260e084018390526101008401839052610120909301829052600f8590556010805460ff199081169091556011839055601283905560138390556014839055601583905560168390556017839055601880549091169055835180850183815293810194859052838152908101919091529051909160199161324991601c9161330f565b506020820151816004015590505050565b6000613264612e47565b905080601f54116122d05760405162461bcd60e51b815260040180806020018281038252602981526020018061360d6029913960400191505060405180910390fd5b60006132c760646127e360036002015460205461298c90919063ffffffff16565b905090565b60006127ae60646127e36003600501548561298c90919063ffffffff16565b815481835581811115610b3c57600083815260209020610b3c918101908301613374565b828054828255906000526020600020908101928215613364579160200282015b8281111561336457825182546001600160a01b0319166001600160a01b0390911617825560209092019160019091019061332f565b5061337092915061338e565b5090565b61082d91905b80821115613370576000815560010161337a565b61082d91905b808211156133705780546001600160a01b031916815560010161339456fe506c65617365207061737320616e20616d6f756e7420686967686572207468616e20302143616e6e6f74207769746864726177206d6f7265207468616e2073616665207374616b696e6720616d6f756e742143616e6e6f74207769746864726177206d6f7265207468616e206d696e5374616b65506572557365722143616e6e6f7420616464206d6f72652066756e647320666f7220757365722c206265636175736520746865206d6178207065722075736572206973207265616368656421506c65617365207061737320616e20616d6f756e7420686967686572207468616e203021214f6e6c7920706f6f6c207573657273206f722070656e64696e6720706f6f6c2075736572732063616e2075736520746869732066756e6374696f6e214f6e6c79206f776e65722063616e2075736520746869732066756e6374696f6e2146756e6374696f6e2063616e6e6f742062652063616c6c656420617420746869732074696d6521436f6d706c69616e63652064617461206c656e677468206d757374206d6174636820706f6f6c2075736572732061727261792154686520726573756c747320666f722074686520726f756e6420617265206e6f7420617661696c61626c652079657421506c656173652070617373206174206c6561737420746865206d696e207374616b6520706572207573657220617320616d6f756e74214f6e6c79206e6f6e2d70656e64696e6720706f6f6c2075736572732063616e2075736520746869732066756e6374696f6e2143616e6e6f742077697468647261772062656c6f77206d696e206f776e65722066756e647321506f6f6c206973206e6f742073756666696369656e746c792066756e646564206279206f776e65722143616e6e6f7420616464206d6f72652066756e647320746f20706f6f6c2c206265636175736520746865206d617820696e20706f6f6c2069732072656163686564214f6e6c7920616464656420706f6f6c2075736572732063616e2075736520746869732066756e6374696f6e214f6e6c79206a757269416464726573732063616e2075736520746869732066756e6374696f6e214f6e6c79206e6f6e2d6d656d626572732063616e2075736520746869732066756e6374696f6e2143616e206f6e6c7920616464206e6577206461746120616674657220656e64206f6620706572696f644c656e67746821a265627a7a72305820d197525317f4818a7a3df517e42bae75287e6ea4961c1a117f2603871f6104b064736f6c634300050a0032436f6d706c69616e74206761696e2070657263656e74616765206d7573742062652061206e756d626572206265747765656e203020616e6420313030214665652070657263656e74616765206d7573742062652061206e756d626572206265747765656e203020616e6420313030214d6178206e6f6e2d636f6d706c69616e742070656e616c74792070657263656e74616765206d7573742062652061206e756d626572206265747765656e203020616e6420313030214d6178207374616b652070657220757365722063616e6e6f742062652030210053746172742074696d65206d75737420626520696e207468652066757475726521",
  "source": "pragma solidity 0.5.10;\r\n\r\nimport \"./JuriStakingPoolWithOracle.sol\";\r\n\r\ncontract JuriStakingPoolWithOracleMock is JuriStakingPoolWithOracle {\r\n    constructor(\r\n        JuriNetworkProxy _proxy,\r\n        IERC20 _token,\r\n        uint256 _startTime,\r\n        uint256 _periodLength,\r\n        uint256 _feePercentage,\r\n        uint256 _compliantGainPercentage,\r\n        uint256 _maxNonCompliantPenaltyPercentage,\r\n        uint256 _minStakePerUser,\r\n        uint256 _maxStakePerUser,\r\n        uint256 _maxTotalStake,\r\n        address _juriAddress\r\n    ) JuriStakingPoolWithOracle(\r\n        _proxy,\r\n        _token,\r\n        _startTime,\r\n        _periodLength,\r\n        _feePercentage,\r\n        _compliantGainPercentage,\r\n        _maxNonCompliantPenaltyPercentage,\r\n        _minStakePerUser,\r\n        _maxStakePerUser,\r\n        _maxTotalStake,\r\n        _juriAddress\r\n    ) public { }\r\n\r\n    function insertUsers(address[] memory _users) public {\r\n        for (uint256 i = 0; i < _users.length; i++) {\r\n            users.push(_users[i]);\r\n        }\r\n    }\r\n}",
  "sourcePath": "C:/Users/mail/Personal/Juri/JuriStakingContract/contracts/research/JuriStakingPoolWithOracleMock.sol",
  "compiler": {
    "name": "solc",
    "version": "0.5.10+commit.5a6ea5b1.Emscripten.clang"
  },
  "schemaVersion": "3.0.11",
  "updatedAt": "2019-08-26T23:41:04.887Z",
  "devdoc": {
    "methods": {
      "addMoreStakeForNextPeriod(uint256)": {
        "details": "Add more stake for user once next staking period starts.\r",
        "params": {
          "_amount": "The amount to be added as stake.\r"
        }
      },
      "addOwnerFunds(uint256)": {
        "details": "Add owner funds to pool.\r"
      },
      "addUserInNextPeriod(uint256)": {
        "details": "Add user to pool once next staking period starts.\r",
        "params": {
          "_amount": "The amount to be added as stake for the user.\r"
        }
      },
      "addWasCompliantDataForUsers(uint256,bool[])": {
        "details": "Add user's compliancy data for current or past periods.\r",
        "params": {
          "_updateIterationCount": "The number defining the max for how much compliance\r data will be passed in a single function call to prevent out-of-gas errors.\r",
          "_wasCompliant": "The boolean array to indicate compliancy.\r"
        }
      },
      "checkNewAddedComplianceData(uint256)": {
        "details": "Add user's compliancy data for current or past periods.\r",
        "params": {
          "_updateIterationCount": "The number defining the max for how much compliance\r data will be passed in a single function call to prevent out-of-gas errors.\r"
        }
      },
      "firstUpdateStakeForNextXAmountOfUsers(uint256)": {
        "details": "First part for updating stakes of users for next X users.\r",
        "params": {
          "_updateIterationCount": "The number defining how many users should\r be updated in a single function call to prevent out-of-gas errors.\r"
        }
      },
      "getAdditionalStakeForUserInNextPeriod(address)": {
        "details": "Get added stake for user.\r",
        "return": "The amount of stake added in the next round for user.\r"
      },
      "getIsCurrentRoundStaking()": {
        "details": "Read if calling user is staking in the current round.\r",
        "return": "The boolean indicator if user is staking in the current round.\r"
      },
      "getIsLeavingNextPeriodForUser(address)": {
        "details": "Read if user will be removed in the next round.\r",
        "params": {
          "_user": "The user to be checked.\r"
        },
        "return": "The boolean indicator showing if user is leaving next round.\r"
      },
      "getIsNextRoundStaking()": {
        "details": "Read if calling user is staking in the next round.\r",
        "return": "The boolean indicator if user will be staking next round.\r"
      },
      "getPoolUserCount()": {
        "details": "Get the total pool user count.\r"
      },
      "getStakeForUserAtRoundStart(address)": {
        "details": "Get stake for user that will be used in current staking round.\r",
        "return": "The amount of stake used in the current round for user.\r"
      },
      "getStakeForUserInCurrentPeriod(address)": {
        "details": "Get current stake for user.\r",
        "return": "The amount of stake in the current round for user.\r"
      },
      "getUserToBeAddedNextPeriod(uint256)": {
        "details": "Read users to be added in the next round.\r",
        "params": {
          "_index": "The index in the array of pending user additions.\r"
        },
        "return": "The user to be added.\r"
      },
      "getUsers()": {
        "details": "Read users in pool.\r",
        "return": "The users in the pool.\r"
      },
      "isOwner()": {
        "return": "true if `msg.sender` is the owner of the contract.\r"
      },
      "optInForStakingForNextPeriod()": {
        "details": "Opt in for staking for user once next staking period starts.\r"
      },
      "optOutOfStakingForNextPeriod()": {
        "details": "Opt out of staking for user once next staking period starts.\r"
      },
      "owner()": {
        "return": "the address of the owner.\r"
      },
      "removeUserInNextPeriod()": {
        "details": "Remove user from pool once next staking period starts.\r"
      },
      "renounceOwnership()": {
        "details": "Allows the current owner to relinquish control of the contract.\r It will not be possible to call the functions with the `onlyOwner`\r modifier anymore.\r"
      },
      "secondUpdateStakeForNextXAmountOfUsers(uint256)": {
        "details": "Second part for updating stakes of users for next X users.\r",
        "params": {
          "_updateIterationCount": "The number defining how many users should\r be updated in a single function call to prevent out-of-gas errors.\r"
        }
      },
      "setJuriAddress(address)": {
        "details": "Set new Juri address.\r",
        "params": {
          "_newJuriAddress": "The new Juri address to be stored.\r"
        }
      },
      "transferOwnership(address)": {
        "details": "Allows the current owner to transfer control of the contract to a newOwner.\r",
        "params": {
          "newOwner": "The address to transfer ownership to.\r"
        }
      },
      "withdraw(uint256)": {
        "details": "Withdraw user stake funds from pool. Use funds added for next period\r first. Keep enough funds to pay non-compliant penalty if required.\r"
      },
      "withdrawOwnerFunds(uint256)": {
        "details": "Withdraw owner funds from pool.\r",
        "params": {
          "_amount": "The amount to withdraw.\r"
        }
      }
    }
  },
  "userdoc": {
    "methods": {
      "renounceOwnership()": {
        "notice": "Renouncing ownership will leave the contract without an owner,\r thereby removing any functionality that is only available to the owner.\r"
      }
    }
  }
}