{
  "contractName": "JuriStakingPool",
  "abi": [
    {
      "constant": true,
      "inputs": [],
      "name": "nextStakingRound",
      "outputs": [
        {
          "name": "totalAddedStake",
          "type": "uint256"
        }
      ],
      "payable": false,
      "stateMutability": "view",
      "type": "function"
    },
    {
      "constant": true,
      "inputs": [],
      "name": "juriAddress",
      "outputs": [
        {
          "name": "",
          "type": "address"
        }
      ],
      "payable": false,
      "stateMutability": "view",
      "type": "function"
    },
    {
      "constant": true,
      "inputs": [
        {
          "name": "",
          "type": "uint256"
        }
      ],
      "name": "users",
      "outputs": [
        {
          "name": "",
          "type": "address"
        }
      ],
      "payable": false,
      "stateMutability": "view",
      "type": "function"
    },
    {
      "constant": true,
      "inputs": [
        {
          "name": "",
          "type": "uint256"
        },
        {
          "name": "",
          "type": "address"
        }
      ],
      "name": "complianceDataAtIndex",
      "outputs": [
        {
          "name": "",
          "type": "bool"
        }
      ],
      "payable": false,
      "stateMutability": "view",
      "type": "function"
    },
    {
      "constant": true,
      "inputs": [],
      "name": "currentStakingRound",
      "outputs": [
        {
          "name": "roundIndex",
          "type": "uint256"
        },
        {
          "name": "stage",
          "type": "uint8"
        },
        {
          "name": "addComplianceDataIndex",
          "type": "uint256"
        },
        {
          "name": "updateStaking1Index",
          "type": "uint256"
        },
        {
          "name": "updateStaking2Index",
          "type": "uint256"
        },
        {
          "name": "totalStakeToSlash",
          "type": "uint256"
        },
        {
          "name": "nonCompliancePenalty",
          "type": "uint256"
        },
        {
          "name": "totalPayout",
          "type": "uint256"
        },
        {
          "name": "juriFees",
          "type": "uint256"
        },
        {
          "name": "useMaxNonCompliancy",
          "type": "bool"
        }
      ],
      "payable": false,
      "stateMutability": "view",
      "type": "function"
    },
    {
      "constant": true,
      "inputs": [],
      "name": "complianceDataIndex",
      "outputs": [
        {
          "name": "",
          "type": "uint256"
        }
      ],
      "payable": false,
      "stateMutability": "view",
      "type": "function"
    },
    {
      "constant": true,
      "inputs": [],
      "name": "poolDefinition",
      "outputs": [
        {
          "name": "startTime",
          "type": "uint256"
        },
        {
          "name": "periodLength",
          "type": "uint256"
        },
        {
          "name": "feePercentage",
          "type": "uint256"
        },
        {
          "name": "compliantGainPercentage",
          "type": "uint256"
        },
        {
          "name": "maxNonCompliantPenaltyPercentage",
          "type": "uint256"
        },
        {
          "name": "maxNonCompliantFactor",
          "type": "uint256"
        },
        {
          "name": "minStakePerUser",
          "type": "uint256"
        },
        {
          "name": "maxStakePerUser",
          "type": "uint256"
        },
        {
          "name": "maxTotalStake",
          "type": "uint256"
        }
      ],
      "payable": false,
      "stateMutability": "view",
      "type": "function"
    },
    {
      "constant": false,
      "inputs": [],
      "name": "renounceOwnership",
      "outputs": [],
      "payable": false,
      "stateMutability": "nonpayable",
      "type": "function"
    },
    {
      "constant": true,
      "inputs": [],
      "name": "owner",
      "outputs": [
        {
          "name": "",
          "type": "address"
        }
      ],
      "payable": false,
      "stateMutability": "view",
      "type": "function"
    },
    {
      "constant": true,
      "inputs": [],
      "name": "isOwner",
      "outputs": [
        {
          "name": "",
          "type": "bool"
        }
      ],
      "payable": false,
      "stateMutability": "view",
      "type": "function"
    },
    {
      "constant": true,
      "inputs": [],
      "name": "ownerFunds",
      "outputs": [
        {
          "name": "",
          "type": "uint256"
        }
      ],
      "payable": false,
      "stateMutability": "view",
      "type": "function"
    },
    {
      "constant": true,
      "inputs": [],
      "name": "totalUserStake",
      "outputs": [
        {
          "name": "",
          "type": "uint256"
        }
      ],
      "payable": false,
      "stateMutability": "view",
      "type": "function"
    },
    {
      "constant": false,
      "inputs": [
        {
          "name": "newOwner",
          "type": "address"
        }
      ],
      "name": "transferOwnership",
      "outputs": [],
      "payable": false,
      "stateMutability": "nonpayable",
      "type": "function"
    },
    {
      "constant": true,
      "inputs": [],
      "name": "token",
      "outputs": [
        {
          "name": "",
          "type": "address"
        }
      ],
      "payable": false,
      "stateMutability": "view",
      "type": "function"
    },
    {
      "inputs": [
        {
          "name": "_token",
          "type": "address"
        },
        {
          "name": "_startTime",
          "type": "uint256"
        },
        {
          "name": "_periodLength",
          "type": "uint256"
        },
        {
          "name": "_feePercentage",
          "type": "uint256"
        },
        {
          "name": "_compliantGainPercentage",
          "type": "uint256"
        },
        {
          "name": "_maxNonCompliantPenaltyPercentage",
          "type": "uint256"
        },
        {
          "name": "_minStakePerUser",
          "type": "uint256"
        },
        {
          "name": "_maxStakePerUser",
          "type": "uint256"
        },
        {
          "name": "_maxTotalStake",
          "type": "uint256"
        },
        {
          "name": "_juriAddress",
          "type": "address"
        }
      ],
      "payable": false,
      "stateMutability": "nonpayable",
      "type": "constructor"
    },
    {
      "anonymous": false,
      "inputs": [
        {
          "indexed": false,
          "name": "user",
          "type": "address"
        },
        {
          "indexed": false,
          "name": "wasCompliant",
          "type": "bool"
        }
      ],
      "name": "AddedComplianceDataForUser",
      "type": "event"
    },
    {
      "anonymous": false,
      "inputs": [
        {
          "indexed": true,
          "name": "previousOwner",
          "type": "address"
        },
        {
          "indexed": true,
          "name": "newOwner",
          "type": "address"
        }
      ],
      "name": "OwnershipTransferred",
      "type": "event"
    },
    {
      "constant": false,
      "inputs": [
        {
          "name": "_amount",
          "type": "uint256"
        }
      ],
      "name": "addUserInNextPeriod",
      "outputs": [],
      "payable": false,
      "stateMutability": "nonpayable",
      "type": "function"
    },
    {
      "constant": false,
      "inputs": [],
      "name": "removeUserInNextPeriod",
      "outputs": [],
      "payable": false,
      "stateMutability": "nonpayable",
      "type": "function"
    },
    {
      "constant": false,
      "inputs": [
        {
          "name": "_amount",
          "type": "uint256"
        }
      ],
      "name": "addMoreStakeForNextPeriod",
      "outputs": [],
      "payable": false,
      "stateMutability": "nonpayable",
      "type": "function"
    },
    {
      "constant": false,
      "inputs": [],
      "name": "optInForStakingForNextPeriod",
      "outputs": [],
      "payable": false,
      "stateMutability": "nonpayable",
      "type": "function"
    },
    {
      "constant": false,
      "inputs": [],
      "name": "optOutOfStakingForNextPeriod",
      "outputs": [],
      "payable": false,
      "stateMutability": "nonpayable",
      "type": "function"
    },
    {
      "constant": false,
      "inputs": [
        {
          "name": "_amount",
          "type": "uint256"
        }
      ],
      "name": "withdraw",
      "outputs": [],
      "payable": false,
      "stateMutability": "nonpayable",
      "type": "function"
    },
    {
      "constant": false,
      "inputs": [
        {
          "name": "_amount",
          "type": "uint256"
        }
      ],
      "name": "addOwnerFunds",
      "outputs": [],
      "payable": false,
      "stateMutability": "nonpayable",
      "type": "function"
    },
    {
      "constant": false,
      "inputs": [
        {
          "name": "_amount",
          "type": "uint256"
        }
      ],
      "name": "withdrawOwnerFunds",
      "outputs": [],
      "payable": false,
      "stateMutability": "nonpayable",
      "type": "function"
    },
    {
      "constant": false,
      "inputs": [
        {
          "name": "_updateIterationCount",
          "type": "uint256"
        },
        {
          "name": "_wasCompliant",
          "type": "bool[]"
        }
      ],
      "name": "addWasCompliantDataForUsers",
      "outputs": [],
      "payable": false,
      "stateMutability": "nonpayable",
      "type": "function"
    },
    {
      "constant": false,
      "inputs": [
        {
          "name": "_updateIterationCount",
          "type": "uint256"
        }
      ],
      "name": "firstUpdateStakeForNextXAmountOfUsers",
      "outputs": [],
      "payable": false,
      "stateMutability": "nonpayable",
      "type": "function"
    },
    {
      "constant": false,
      "inputs": [
        {
          "name": "_updateIterationCount",
          "type": "uint256"
        }
      ],
      "name": "secondUpdateStakeForNextXAmountOfUsers",
      "outputs": [],
      "payable": false,
      "stateMutability": "nonpayable",
      "type": "function"
    },
    {
      "constant": false,
      "inputs": [
        {
          "name": "_newJuriAddress",
          "type": "address"
        }
      ],
      "name": "setJuriAddress",
      "outputs": [],
      "payable": false,
      "stateMutability": "nonpayable",
      "type": "function"
    },
    {
      "constant": true,
      "inputs": [],
      "name": "getPoolUserCount",
      "outputs": [
        {
          "name": "",
          "type": "uint256"
        }
      ],
      "payable": false,
      "stateMutability": "view",
      "type": "function"
    },
    {
      "constant": true,
      "inputs": [
        {
          "name": "_index",
          "type": "uint256"
        }
      ],
      "name": "getUserToBeAddedNextPeriod",
      "outputs": [
        {
          "name": "",
          "type": "address"
        }
      ],
      "payable": false,
      "stateMutability": "view",
      "type": "function"
    },
    {
      "constant": true,
      "inputs": [],
      "name": "getIsCurrentRoundStaking",
      "outputs": [
        {
          "name": "",
          "type": "bool"
        }
      ],
      "payable": false,
      "stateMutability": "view",
      "type": "function"
    },
    {
      "constant": true,
      "inputs": [],
      "name": "getIsNextRoundStaking",
      "outputs": [
        {
          "name": "",
          "type": "bool"
        }
      ],
      "payable": false,
      "stateMutability": "view",
      "type": "function"
    },
    {
      "constant": true,
      "inputs": [
        {
          "name": "_user",
          "type": "address"
        }
      ],
      "name": "getIsLeavingNextPeriodForUser",
      "outputs": [
        {
          "name": "",
          "type": "bool"
        }
      ],
      "payable": false,
      "stateMutability": "view",
      "type": "function"
    },
    {
      "constant": true,
      "inputs": [
        {
          "name": "_user",
          "type": "address"
        }
      ],
      "name": "getStakeForUserInCurrentPeriod",
      "outputs": [
        {
          "name": "",
          "type": "uint256"
        }
      ],
      "payable": false,
      "stateMutability": "view",
      "type": "function"
    },
    {
      "constant": true,
      "inputs": [
        {
          "name": "_user",
          "type": "address"
        }
      ],
      "name": "getStakeForUserAtRoundStart",
      "outputs": [
        {
          "name": "",
          "type": "uint256"
        }
      ],
      "payable": false,
      "stateMutability": "view",
      "type": "function"
    },
    {
      "constant": true,
      "inputs": [
        {
          "name": "_user",
          "type": "address"
        }
      ],
      "name": "getAdditionalStakeForUserInNextPeriod",
      "outputs": [
        {
          "name": "",
          "type": "uint256"
        }
      ],
      "payable": false,
      "stateMutability": "view",
      "type": "function"
    },
    {
      "constant": true,
      "inputs": [],
      "name": "getUsers",
      "outputs": [
        {
          "name": "",
          "type": "address[]"
        }
      ],
      "payable": false,
      "stateMutability": "view",
      "type": "function"
    },
    {
      "constant": false,
      "inputs": [
        {
          "name": "_user",
          "type": "address"
        },
        {
          "name": "_amount",
          "type": "uint256"
        },
        {
          "name": "_canWithdrawAll",
          "type": "bool"
        }
      ],
      "name": "_withdrawForUser",
      "outputs": [],
      "payable": false,
      "stateMutability": "nonpayable",
      "type": "function"
    }
  ],
  "bytecode": "0x60806040523480156200001157600080fd5b5060405162003b8938038062003b8983398181016040526101408110156200003857600080fd5b50805160208201516040808401516060850151608086015160a087015160c088015160e08901516101008a0151610120909a0151600080546001600160a01b031916331780825598519a9b999a97999698959794969395929491926001600160a01b0316917f8be0079c531659141344cd1fd0a4f28419497f9722a3daafe3b4186f6b6457e0908290a36001600160a01b038a166200013857604080517f08c379a000000000000000000000000000000000000000000000000000000000815260206004820152601e60248201527f546f6b656e2061646472657373206d75737420626520646566696e6564210000604482015290519081900360640190fd5b42891162000192576040517f08c379a000000000000000000000000000000000000000000000000000000000815260040180806020018281038252602181526020018062003b686021913960400191505060405180910390fd5b600088116200020257604080517f08c379a000000000000000000000000000000000000000000000000000000000815260206004820152601a60248201527f506572696f64206c656e6774682063616e6e6f74206265203021000000000000604482015290519081900360640190fd5b60648711156200025e576040517f08c379a000000000000000000000000000000000000000000000000000000000815260040180806020018281038252603281526020018062003ace6032913960400191505060405180910390fd5b6064861115620002ba576040517f08c379a000000000000000000000000000000000000000000000000000000000815260040180806020018281038252603d81526020018062003a91603d913960400191505060405180910390fd5b606485111562000316576040517f08c379a000000000000000000000000000000000000000000000000000000000815260040180806020018281038252604881526020018062003b006048913960600191505060405180910390fd5b600084116200038657604080517f08c379a000000000000000000000000000000000000000000000000000000000815260206004820152601f60248201527f4d696e207374616b652070657220757365722063616e6e6f7420626520302100604482015290519081900360640190fd5b60008311620003e557604080517f08c379a000000000000000000000000000000000000000000000000000000000815260206004820152601f602482015260008051602062003b48833981519152604482015290519081900360640190fd5b600082116200044457604080517f08c379a000000000000000000000000000000000000000000000000000000000815260206004820152601f602482015260008051602062003b48833981519152604482015290519081900360640190fd5b6001600160a01b038116620004ba57604080517f08c379a000000000000000000000000000000000000000000000000000000000815260206004820152601960248201527f4a75726920616464726573732063616e6e6f7420626520302100000000000000604482015290519081900360640190fd5b6000601f81905560208190556021819055620004df906001600160e01b03620005c416565b600180546001600160a01b03808d166001600160a01b031992831617909255600280549284169290911691909117905560408051610120810182528a815260208082018b905291810189905260608101889052608081018790529060a082019062000558906064908990620023aa62000694821b17901c565b81526020808201969096526040808201959095526060908101939093528051600355938401516004555090820151600555810151600655608081015160075560a081015160085560c081015160095560e0810151600a556101000151600b5550620007a0945050505050565b60408051610140810182528281526000602080830182905282840182905260608084018390526080840183905260a0840183905260c0840183905260e084018390526101008401839052610120909301829052600f8590556010805460ff19908116909155601183905560128390556013839055601483905560158390556016839055601783905560188054909116905583518085018381529381019485905283815290810191909152905190916019916200068391601c916200070c565b506020820151816004015590505050565b6000828211156200070657604080517f08c379a000000000000000000000000000000000000000000000000000000000815260206004820152601260248201527f5361666553756220756e646572666c6f77210000000000000000000000000000604482015290519081900360640190fd5b50900390565b82805482825590600052602060002090810192821562000764579160200282015b828111156200076457825182546001600160a01b0319166001600160a01b039091161782556020909201916001909101906200072d565b506200077292915062000776565b5090565b6200079d91905b80821115620007725780546001600160a01b03191681556001016200077d565b90565b6132e180620007b06000396000f3fe608060405234801561001057600080fd5b506004361061021b5760003560e01c8063837bee2011610125578063d1658d7f116100ad578063e434f13c1161007c578063e434f13c1461066b578063eed7dee914610691578063f2fde38b14610699578063f9feab53146106bf578063fc0c546a146106dc5761021b565b8063d1658d7f14610618578063d2bbbbbb14610620578063d3f6ca5714610628578063d8e98cbe146106455761021b565b80638f32d59b116100f45780638f32d59b146105db578063962743cf146105e3578063ad1211be146105eb578063bc5b910914610608578063c1202131146106105761021b565b8063837bee201461059157806389356be1146105995780638ab96b02146105b65780638da5cb5b146105d35761021b565b806349d445d0116101a85780636ccb2596116101775780636ccb2596146104d85780636fd2395f1461050c57806370360d3b14610514578063715018a61461056357806383321afb1461056b5761021b565b806349d445d01461036e578063533722cf14610418578063573e57b71461044457806365c2dc7e1461046a5761021b565b80632ada10b0116101ef5780632ada10b0146102d75780632e1a7d4d146102fb578063365b98b2146103185780633ab12565146103355780634696f41a146103515761021b565b8062ce8e3e146102205780630315073b146102785780631bb4fec3146102975780631d3b32bc146102b1575b600080fd5b6102286106e4565b60408051602080825283518183015283519192839290830191858101910280838360005b8381101561026457818101518382015260200161024c565b505050509050019250505060405180910390f35b6102956004803603602081101561028e57600080fd5b5035610747565b005b61029f610923565b60408051918252519081900360200190f35b61029f600480360360208110156102c757600080fd5b50356001600160a01b0316610929565b6102df610948565b604080516001600160a01b039092168252519081900360200190f35b6102956004803603602081101561031157600080fd5b5035610957565b6102df6004803603602081101561032e57600080fd5b5035610a58565b61033d610a7f565b604080519115158252519081900360200190f35b6102956004803603602081101561036757600080fd5b5035610a95565b6102956004803603604081101561038457600080fd5b813591908101906040810160208201356401000000008111156103a657600080fd5b8201836020820111156103b857600080fd5b803590602001918460208302840111640100000000831117156103da57600080fd5b919080806020026020016040519081016040528093929190818152602001838360200280828437600092019190915250929550610c51945050505050565b61033d6004803603604081101561042e57600080fd5b50803590602001356001600160a01b0316610f40565b6102956004803603602081101561045a57600080fd5b50356001600160a01b0316610f60565b610472611026565b604051808b81526020018a600281111561048857fe5b60ff1681526020810199909952506040808901979097526060880195909552608087019390935260a086019190915260c085015260e0840152151561010083015251908190036101200192509050f35b610295600480360360608110156104ee57600080fd5b506001600160a01b038135169060208101359060400135151561104e565b61029f611151565b61051c611157565b60408051998a5260208a0198909852888801969096526060880194909452608087019290925260a086015260c085015260e084015261010083015251908190036101200190f35b610295611175565b61029f6004803603602081101561058157600080fd5b50356001600160a01b0316611202565b61029f61121d565b610295600480360360208110156105af57600080fd5b5035611223565b610295600480360360208110156105cc57600080fd5b5035611655565b6102df611906565b61033d611915565b610295611926565b6102956004803603602081101561060157600080fd5b5035611a98565b610295611d26565b61029f611e9d565b61029f611ea3565b61033d611ea9565b6102956004803603602081101561063e57600080fd5b5035611ebf565b61033d6004803603602081101561065b57600080fd5b50356001600160a01b03166120e2565b61029f6004803603602081101561068157600080fd5b50356001600160a01b0316612100565b61029561211b565b610295600480360360208110156106af57600080fd5b50356001600160a01b0316612290565b6102df600480360360208110156106d557600080fd5b50356122dc565b6102df612309565b6060601e80548060200260200160405190810160405280929190818152602001828054801561073c57602002820191906000526020600020905b81546001600160a01b0316815260019091019060200180831161071e575b505050505090505b90565b61074f611915565b61078a5760405162461bcd60e51b815260040180806020018281038252602181526020018061308f6021913960400191505060405180910390fd5b60018060105460ff16600281111561079e57fe5b146107da5760405162461bcd60e51b81526004018080602001828103825260278152602001806130b06027913960400191505060405180910390fd5b6012545b601e548110801561080057506012546107fd908463ffffffff61231816565b81105b156108f0576000601e828154811061081457fe5b60009182526020808320909101546001600160a01b0316808352600c90915260409091205490915060ff1661084957506108e8565b600f5460009081526022602090815260408083206001600160a01b038516845290915281205460ff169061087c83611202565b905081156108cd57600061088f8261236f565b905060006108a3828463ffffffff6123aa16565b6016549091506108b9908263ffffffff61231816565b6016556108c685836123fc565b50506108e4565b6014546108e0908263ffffffff61231816565b6014555b5050505b6001016107de565b50601254610904908363ffffffff61231816565b6012819055601e541161091f576010805460ff191660021790555b5050565b601d5481565b6001600160a01b0381166000908152601a60205260409020545b919050565b6002546001600160a01b031681565b60008060105460ff16600281111561096b57fe5b146109a75760405162461bcd60e51b81526004018080602001828103825260278152602001806130b06027913960400191505060405180910390fd5b610a0b33601e805480602002602001604051908101604052809291908181526020018280548015610a0157602002820191906000526020600020905b81546001600160a01b031681526001909101906020018083116109e3575b50505050506124f3565b610a465760405162461bcd60e51b815260040180806020018281038252602c815260200180613203602c913960400191505060405180910390fd5b6000610a5333848361104e565b505050565b601e8181548110610a6557fe5b6000918252602090912001546001600160a01b0316905081565b336000908152600c602052604090205460ff1690565b610a9d611915565b610ad85760405162461bcd60e51b815260040180806020018281038252602181526020018061308f6021913960400191505060405180910390fd5b60008060105460ff166002811115610aec57fe5b14610b285760405162461bcd60e51b81526004018080602001828103825260278152602001806130b06027913960400191505060405180910390fd5b60008211610b675760405162461bcd60e51b8152600401808060200182810382526024815260200180612f6e6024913960400191505060405180910390fd5b600154604080516323b872dd60e01b81523360048201523060248201526044810185905290516001600160a01b03909216916323b872dd916064808201926020929091908290030181600087803b158015610bc157600080fd5b505af1158015610bd5573d6000803e3d6000fd5b505050506040513d6020811015610beb57600080fd5b5051610c37576040805162461bcd60e51b8152602060048201526016602482015275546f6b656e207472616e73666572206661696c65642160501b604482015290519081900360640190fd5b601f54610c4a908363ffffffff61231816565b601f555050565b6002546001600160a01b03163314610c9a5760405162461bcd60e51b815260040180806020018281038252602781526020018061322f6027913960400191505060405180910390fd5b60008060105460ff166002811115610cae57fe5b14610cea5760405162461bcd60e51b81526004018080602001828103825260278152602001806130b06027913960400191505060405180910390fd5b600454600f54600091610d1591610d069163ffffffff61254716565b6003549063ffffffff61231816565b9050804211610d555760405162461bcd60e51b815260040180806020018281038252603081526020018061327d6030913960400191505060405180910390fd5b601e54601154610d6b908663ffffffff61231816565b1115610dc457601e548351601154610d889163ffffffff61231816565b14610dc45760405162461bcd60e51b81526004018080602001828103825260338152602001806130d76033913960400191505060405180910390fd5b60115460005b601e5482108015610dec5750601154610de9908763ffffffff61231816565b82105b15610efe57848181518110610dfd57fe5b60200260200101516022600060215481526020019081526020016000206000601e8581548110610e2957fe5b6000918252602080832091909101546001600160a01b031683528201929092526040019020805460ff1916911515919091179055601e80547f69e514cdcec7511d4b905b7b81d960d84822e90a49c9ec4b9224c8f92a1378dc919084908110610e8e57fe5b9060005260206000200160009054906101000a90046001600160a01b0316868381518110610eb857fe5b602002602001015160405180836001600160a01b03166001600160a01b03168152602001821515151581526020019250505060405180910390a160019182019101610dca565b5050601154610f13908563ffffffff61231816565b6011819055601e5411610f3a576021805460019081019091556010805460ff191690911790555b50505050565b602260209081526000928352604080842090915290825290205460ff1681565b6002546001600160a01b03163314610fa95760405162461bcd60e51b815260040180806020018281038252602781526020018061322f6027913960400191505060405180910390fd5b6001600160a01b038116611004576040805162461bcd60e51b815260206004820152601d60248201527f4e6577204a75726920616464726573732063616e6e6f74206265203021000000604482015290519081900360640190fd5b600280546001600160a01b0319166001600160a01b0392909216919091179055565b600f5460105460115460125460135460145460155460165460175460185460ff98891698168a565b600061105a84846125aa565b905082811015611085576000611076848363ffffffff6123aa16565b9050611083858285612613565b505b6001546040805163a9059cbb60e01b81526001600160a01b038781166004830152602482018790529151919092169163a9059cbb9160448083019260209291908290030181600087803b1580156110db57600080fd5b505af11580156110ef573d6000803e3d6000fd5b505050506040513d602081101561110557600080fd5b5051610f3a576040805162461bcd60e51b8152602060048201526016602482015275546f6b656e207472616e73666572206661696c65642160501b604482015290519081900360640190fd5b60215481565b600354600454600554600654600754600854600954600a54600b5489565b61117d611915565b6111b85760405162461bcd60e51b815260040180806020018281038252602181526020018061308f6021913960400191505060405180910390fd5b600080546040516001600160a01b03909116907f8be0079c531659141344cd1fd0a4f28419497f9722a3daafe3b4186f6b6457e0908390a3600080546001600160a01b0319169055565b6001600160a01b03166000908152600e602052604090205490565b601e5490565b60008060105460ff16600281111561123757fe5b146112735760405162461bcd60e51b81526004018080602001828103825260278152602001806130b06027913960400191505060405180910390fd5b6112d8336019600301805480602002602001604051908101604052809291908181526020018280548015610a01576020028201919060005260206000209081546001600160a01b031681526001909101906020018083116109e35750505050506124f3565b80611340575061134033601e805480602002602001604051908101604052809291908181526020018280548015610a01576020028201919060005260206000209081546001600160a01b031681526001909101906020018083116109e35750505050506124f3565b61137b5760405162461bcd60e51b815260040180806020018281038252603c815260200180613053603c913960400191505060405180910390fd5b336000908152600d6020908152604080832054601a90925290912054836113d35760405162461bcd60e51b8152600401808060200182810382526024815260200180612f6e6024913960400191505060405180910390fd5b600a546113e6838363ffffffff61231816565b106114225760405162461bcd60e51b8152600401808060200182810382526044815260200180612fea6044913960600191505060405180910390fd5b600b54601d5460205461143a9163ffffffff61231816565b106114765760405162461bcd60e51b81526004018080602001828103825260428152602001806131c16042913960600191505060405180910390fd5b6000611488828663ffffffff61231816565b600a5490915085906114a0858463ffffffff61231816565b11156114cb576114c86114b9858563ffffffff61231816565b600a549063ffffffff6123aa16565b90505b60006114dd848363ffffffff61231816565b600b54601d54602054929350909161150c9184916115009163ffffffff61231816565b9063ffffffff61231816565b111561153e57601d5460205461153b9161152c919063ffffffff61231816565b600b549063ffffffff6123aa16565b91505b600154604080516323b872dd60e01b81523360048201523060248201526044810185905290516001600160a01b03909216916323b872dd916064808201926020929091908290030181600087803b15801561159857600080fd5b505af11580156115ac573d6000803e3d6000fd5b505050506040513d60208110156115c257600080fd5b505161160e576040805162461bcd60e51b8152602060048201526016602482015275546f6b656e207472616e73666572206661696c65642160501b604482015290519081900360640190fd5b6000611620858463ffffffff61231816565b336000908152601a60205260409020819055601d54909150611648908463ffffffff61231816565b601d555050505050505050565b61165d611915565b6116985760405162461bcd60e51b815260040180806020018281038252602181526020018061308f6021913960400191505060405180910390fd5b60028060105460ff1660028111156116ac57fe5b146116e85760405162461bcd60e51b81526004018080602001828103825260278152602001806130b06027913960400191505060405180910390fd5b601354611709576116f7612681565b6018805460ff19169115159190911790555b6013546000905b601e54611723828463ffffffff6123aa16565b108061173f5750601c5461173d828463ffffffff6123aa16565b105b801561175c5750601354611759908563ffffffff61231816565b81105b156118a9576000611773828463ffffffff6123aa16565b601c5490915061178a90829063ffffffff61231816565b601e5411156117bd576117bd601e82815481106117a357fe5b6000918252602090912001546001600160a01b03166126bc565b601e5481108015611806575060196002016000601e83815481106117dd57fe5b60009182526020808320909101546001600160a01b0316835282019290925260400190205460ff165b1561186957600060196002016000601e848154811061182157fe5b6000918252602080832091909101546001600160a01b031683528201929092526040019020805460ff191691151591909117905561185e81612740565b6001909201916118a0565b601c548110156118a0576118a06019600301828154811061188657fe5b6000918252602090912001546001600160a01b0316612822565b50600101611710565b506013546118cf9082906118c3908663ffffffff61231816565b9063ffffffff6123aa16565b6013819055601e54118015906118e95750601c5460135410155b15610a53576118f66128af565b6118fe61298a565b610a536129d9565b6000546001600160a01b031690565b6000546001600160a01b0316331490565b60008060105460ff16600281111561193a57fe5b146119765760405162461bcd60e51b81526004018080602001828103825260278152602001806130b06027913960400191505060405180910390fd5b6119db336019600301805480602002602001604051908101604052809291908181526020018280548015610a01576020028201919060005260206000209081546001600160a01b031681526001909101906020018083116109e35750505050506124f3565b80611a435750611a4333601e805480602002602001604051908101604052809291908181526020018280548015610a01576020028201919060005260206000209081546001600160a01b031681526001909101906020018083116109e35750505050506124f3565b611a7e5760405162461bcd60e51b815260040180806020018281038252603c815260200180613053603c913960400191505060405180910390fd5b50336000908152601960205260409020805460ff19169055565b611aa0611915565b611adb5760405162461bcd60e51b815260040180806020018281038252602181526020018061308f6021913960400191505060405180910390fd5b60008060105460ff166002811115611aef57fe5b14611b2b5760405162461bcd60e51b81526004018080602001828103825260278152602001806130b06027913960400191505060405180910390fd5b816000611b36612a02565b905060008211611b775760405162461bcd60e51b815260040180806020018281038252602581526020018061302e6025913960400191505060405180910390fd5b6000601f5411611bce576040805162461bcd60e51b815260206004820152601f60248201527f4e6f2066756e647320617661696c61626c6520746f2077697468647261772100604482015290519081900360640190fd5b80600101601f5411611c115760405162461bcd60e51b81526004018080602001828103825260268152602001806131726026913960400191505060405180910390fd5b611c21818363ffffffff61231816565b601f541015611c4057601f54611c3d908263ffffffff6123aa16565b91505b6001546040805163a9059cbb60e01b81523360048201526024810185905290516001600160a01b039092169163a9059cbb916044808201926020929091908290030181600087803b158015611c9457600080fd5b505af1158015611ca8573d6000803e3d6000fd5b505050506040513d6020811015611cbe57600080fd5b5051611d0a576040805162461bcd60e51b8152602060048201526016602482015275546f6b656e207472616e73666572206661696c65642160501b604482015290519081900360640190fd5b601f54611d1d908363ffffffff6123aa16565b601f5550505050565b611d8833601e805480602002602001604051908101604052809291908181526020018280548015610a01576020028201919060005260206000209081546001600160a01b031681526001909101906020018083116109e35750505050506124f3565b611dc35760405162461bcd60e51b815260040180806020018281038252602c815260200180613203602c913960400191505060405180910390fd5b60008060105460ff166002811115611dd757fe5b14611e135760405162461bcd60e51b81526004018080602001828103825260278152602001806130b06027913960400191505060405180910390fd5b336000908152601b602052604090205460ff1615611e78576040805162461bcd60e51b815260206004820181905260248201527f5573657220616c7265616479206d61726b656420666f722072656d6f76616c21604482015290519081900360640190fd5b336000908152601b60205260409020805460ff19166001179055611e9a611926565b50565b601f5481565b60205481565b3360009081526019602052604090205460ff1690565b611f24336019600301805480602002602001604051908101604052809291908181526020018280548015610a01576020028201919060005260206000209081546001600160a01b031681526001909101906020018083116109e35750505050506124f3565b15611f605760405162461bcd60e51b81526004018080602001828103825260328152602001806131406032913960400191505060405180910390fd5b611fc233601e805480602002602001604051908101604052809291908181526020018280548015610a01576020028201919060005260206000209081546001600160a01b031681526001909101906020018083116109e35750505050506124f3565b15611ffe5760405162461bcd60e51b81526004018080602001828103825260278152602001806132566027913960400191505060405180910390fd5b60008060105460ff16600281111561201257fe5b1461204e5760405162461bcd60e51b81526004018080602001828103825260278152602001806130b06027913960400191505060405180910390fd5b60095482101561208f5760405162461bcd60e51b815260040180806020018281038252603681526020018061310a6036913960400191505060405180910390fd5b601c80546001810182556000919091527f0e4562a10381dec21b205ed72637e6b1b523bdd0e4d4d50af5cd23dd4500a2110180546001600160a01b031916331790556120da82611223565b61091f61211b565b6001600160a01b03166000908152601b602052604090205460ff1690565b6001600160a01b03166000908152600d602052604090205490565b60008060105460ff16600281111561212f57fe5b1461216b5760405162461bcd60e51b81526004018080602001828103825260278152602001806130b06027913960400191505060405180910390fd5b6121d0336019600301805480602002602001604051908101604052809291908181526020018280548015610a01576020028201919060005260206000209081546001600160a01b031681526001909101906020018083116109e35750505050506124f3565b80612238575061223833601e805480602002602001604051908101604052809291908181526020018280548015610a01576020028201919060005260206000209081546001600160a01b031681526001909101906020018083116109e35750505050506124f3565b6122735760405162461bcd60e51b815260040180806020018281038252603c815260200180613053603c913960400191505060405180910390fd5b50336000908152601960205260409020805460ff19166001179055565b612298611915565b6122d35760405162461bcd60e51b815260040180806020018281038252602181526020018061308f6021913960400191505060405180910390fd5b611e9a81612a4c565b6000601960030182815481106122ee57fe5b6000918252602090912001546001600160a01b031692915050565b6001546001600160a01b031681565b600082820183811015612366576040805162461bcd60e51b815260206004820152601160248201527053616665416464206f766572666c6f772160781b604482015290519081900360640190fd5b90505b92915050565b6000612369606461239e6123916003800154606461231890919063ffffffff16565b859063ffffffff61254716565b9063ffffffff612afb16565b6000828211156123f6576040805162461bcd60e51b81526020600482015260126024820152715361666553756220756e646572666c6f772160701b604482015290519081900360640190fd5b50900390565b6001600160a01b0382166000908152600d6020908152604080832054600e909252822054909190612433908363ffffffff6123aa16565b6001600160a01b0385166000908152601a6020526040812054919250906124679083906118c390879063ffffffff61231816565b6001600160a01b0386166000908152600d60209081526040808320849055600e8252808320849055601a90915281205590508281116124c7576124c26124b3848363ffffffff6123aa16565b6020549063ffffffff6123aa16565b6124e9565b6124e96124da828563ffffffff6123aa16565b6020549063ffffffff61231816565b6020555050505050565b600080805b835181101561253f57846001600160a01b031684828151811061251757fe5b60200260200101516001600160a01b03161415612537576001915061253f565b6001016124f8565b509392505050565b60008261255657506000612369565b8282028284828161256357fe5b0414612366576040805162461bcd60e51b8152602060048201526011602482015270536166654d756c206f766572666c6f772160781b604482015290519081900360640190fd5b6000806125b684610929565b9050808310156125f2576125d0818463ffffffff6123aa16565b6001600160a01b0385166000908152601a602052604090205550819050612369565b6001600160a01b0384166000908152601a6020526040812055905092915050565b600061261e84612100565b90506000612632828563ffffffff6123aa16565b905082156126555760205461264d908563ffffffff6123aa16565b60205561265f565b61265f8582612b65565b6001600160a01b039094166000908152600d6020526040902093909355505050565b60145460009061269357506001610744565b6014546016546000916126b19161239e90606463ffffffff61254716565b600754111591505090565b600f5460009081526022602090815260408083206001600160a01b038516845290915290205460ff168015801561270b57506001600160a01b0382166000908152600c602052604090205460ff165b1561273757600061271b83611202565b9050600061272882612c13565b905061273484826123fc565b50505b61091f82612c63565b6000601e828154811061274f57fe5b60009182526020822001546001600160a01b0316915061277a61277183610929565b61150084612100565b9050600161278983838361104e565b601e546001101561280857601e80546127a990600163ffffffff6123aa16565b815481106127b357fe5b600091825260209091200154601e80546001600160a01b0390921691869081106127d957fe5b9060005260206000200160006101000a8154816001600160a01b0302191690836001600160a01b031602179055505b601e80549061281b906000198301612ea6565b5050505050565b601e805460018101825560009182527f50bb669a95c7b50b7e8a6f09454034b2b14cf2b85c730dca9a539ca82cb6e3500180546001600160a01b0319166001600160a01b0384161790556128779082906123fc565b6001600160a01b0316600090815260196020908152604080832054600c909252909120805460ff191660ff9092161515919091179055565b6001546002546017546040805163a9059cbb60e01b81526001600160a01b039384166004820152602481019290925251919092169163a9059cbb9160448083019260209291908290030181600087803b15801561290b57600080fd5b505af115801561291f573d6000803e3d6000fd5b505050506040513d602081101561293557600080fd5b5051612988576040805162461bcd60e51b815260206004820181905260248201527f4a757269206665657320746f6b656e207472616e73666572206661696c656421604482015290519081900360640190fd5b565b60185460ff1615612988576008546014546000916129b59160649161239e919063ffffffff61254716565b6014549091506000906129ce908363ffffffff6123aa16565b905061091f81612d1b565b600f546129e890600101612d47565b6129f0612e15565b6129f8612e61565b6017819055601655565b600080612a2f612a206003800154606461231890919063ffffffff16565b6020549063ffffffff61254716565b9050612a46602054826123aa90919063ffffffff16565b91505090565b6001600160a01b038116612aa0576040805162461bcd60e51b81526020600482015260166024820152754e6577206f776e65722063616e6e6f7420626520302160501b604482015290519081900360640190fd5b600080546040516001600160a01b03808516939216917f8be0079c531659141344cd1fd0a4f28419497f9722a3daafe3b4186f6b6457e091a3600080546001600160a01b0319166001600160a01b0392909216919091179055565b6000808211612b51576040805162461bcd60e51b815260206004820152601b60248201527f536166654469762063616e6e6f74206469766964652062792030210000000000604482015290519081900360640190fd5b6000828481612b5c57fe5b04949350505050565b6000612b7083611202565b90506000612b7d82612e87565b90506000612b91838363ffffffff6123aa16565b905080841015612bd25760405162461bcd60e51b815260040180806020018281038252602e815260200180612f92602e913960400191505060405180910390fd5b60095484101561281b5760405162461bcd60e51b815260040180806020018281038252602a815260200180612fc0602a913960400191505060405180910390fd5b60185460009060ff1615612c3157612c2a82612e87565b9050610943565b601454601654612c5b8261239e612c4e828563ffffffff6123aa16565b879063ffffffff61254716565b949350505050565b6000612c6e82612100565b6001600160a01b0383166000908152600c602052604090205490915060ff16612ce2576001600160a01b0382166000908152601a6020526040902054612cba908263ffffffff61231816565b6001600160a01b0383166000908152600d6020908152604080832093909355601a9052908120555b506001600160a01b0316600090815260196020908152604080832054600c909252909120805460ff191660ff9092161515919091179055565b601654600090612d31908363ffffffff6123aa16565b601f54909150610c4a908263ffffffff6123aa16565b60408051610140810182528281526000602080830182905282840182905260608084018390526080840183905260a0840183905260c0840183905260e084018390526101008401839052610120909301829052600f8590556010805460ff1990811690915560118390556012839055601383905560148390556015839055601683905560178390556018805490911690558351808501838152938101948590528381529081019190915290519091601991612e0491601c91612eca565b506020820151816004015590505050565b6000612e1f612a02565b905080601f5411611e9a5760405162461bcd60e51b81526004018080602001828103825260298152602001806131986029913960400191505060405180910390fd5b6000612e82606461239e60036002015460205461254790919063ffffffff16565b905090565b6000612369606461239e6003600501548561254790919063ffffffff16565b815481835581811115610a5357600083815260209020610a53918101908301612f2f565b828054828255906000526020600020908101928215612f1f579160200282015b82811115612f1f57825182546001600160a01b0319166001600160a01b03909116178255602090920191600190910190612eea565b50612f2b929150612f49565b5090565b61074491905b80821115612f2b5760008155600101612f35565b61074491905b80821115612f2b5780546001600160a01b0319168155600101612f4f56fe506c65617365207061737320616e20616d6f756e7420686967686572207468616e20302143616e6e6f74207769746864726177206d6f7265207468616e2073616665207374616b696e6720616d6f756e742143616e6e6f74207769746864726177206d6f7265207468616e206d696e5374616b65506572557365722143616e6e6f7420616464206d6f72652066756e647320666f7220757365722c206265636175736520746865206d6178207065722075736572206973207265616368656421506c65617365207061737320616e20616d6f756e7420686967686572207468616e203021214f6e6c7920706f6f6c207573657273206f722070656e64696e6720706f6f6c2075736572732063616e2075736520746869732066756e6374696f6e214f6e6c79206f776e65722063616e2075736520746869732066756e6374696f6e2146756e6374696f6e2063616e6e6f742062652063616c6c656420617420746869732074696d6521436f6d706c69616e63652064617461206c656e677468206d757374206d6174636820706f6f6c20757365727320617272617921506c656173652070617373206174206c6561737420746865206d696e207374616b6520706572207573657220617320616d6f756e74214f6e6c79206e6f6e2d70656e64696e6720706f6f6c2075736572732063616e2075736520746869732066756e6374696f6e2143616e6e6f742077697468647261772062656c6f77206d696e206f776e65722066756e647321506f6f6c206973206e6f742073756666696369656e746c792066756e646564206279206f776e65722143616e6e6f7420616464206d6f72652066756e647320746f20706f6f6c2c206265636175736520746865206d617820696e20706f6f6c2069732072656163686564214f6e6c7920616464656420706f6f6c2075736572732063616e2075736520746869732066756e6374696f6e214f6e6c79206a757269416464726573732063616e2075736520746869732066756e6374696f6e214f6e6c79206e6f6e2d6d656d626572732063616e2075736520746869732066756e6374696f6e2143616e206f6e6c7920616464206e6577206461746120616674657220656e64206f6620706572696f644c656e67746821a265627a7a7230582071cc49f13c8b6f2d9f1c24652fe9b7621a357d9ee95c57d7a6622cd40953705b64736f6c634300050a0032436f6d706c69616e74206761696e2070657263656e74616765206d7573742062652061206e756d626572206265747765656e203020616e6420313030214665652070657263656e74616765206d7573742062652061206e756d626572206265747765656e203020616e6420313030214d6178206e6f6e2d636f6d706c69616e742070656e616c74792070657263656e74616765206d7573742062652061206e756d626572206265747765656e203020616e6420313030214d6178207374616b652070657220757365722063616e6e6f742062652030210053746172742074696d65206d75737420626520696e207468652066757475726521",
  "source": "pragma solidity 0.5.10;\r\n\r\nimport \"./lib/IERC20.sol\";\r\nimport \"./lib/Math.sol\";\r\nimport \"./lib/Ownable.sol\";\r\nimport \"./lib/SafeMath.sol\";\r\n\r\ncontract JuriStakingPool is Ownable {\r\n    using SafeMath for uint256;\r\n\r\n    enum Stages {\r\n        AWAITING_COMPLIANCE_DATA,\r\n        AWAITING_FIRST_UPDATE,\r\n        AWAITING_SECOND_UPDATE\r\n    }\r\n\r\n    struct PoolDefinition {\r\n        uint256 startTime;\r\n        uint256 periodLength;\r\n        uint256 feePercentage;\r\n        uint256 compliantGainPercentage;\r\n        uint256 maxNonCompliantPenaltyPercentage;\r\n        uint256 maxNonCompliantFactor;\r\n        uint256 minStakePerUser;\r\n        uint256 maxStakePerUser;\r\n        uint256 maxTotalStake;\r\n    }\r\n\r\n    struct CurrentStakingRound {\r\n        mapping (address => bool) userIsStaking;\r\n        mapping (address => uint256) userStakes;\r\n        mapping (address => uint256) userStakesAtRoundStart;\r\n\r\n        uint256 roundIndex;\r\n        Stages stage;\r\n\r\n        uint256 addComplianceDataIndex;\r\n        uint256 updateStaking1Index;\r\n        uint256 updateStaking2Index;\r\n\r\n        uint256 totalStakeToSlash;\r\n        uint256 nonCompliancePenalty;\r\n        uint256 totalPayout;\r\n        uint256 juriFees;\r\n\r\n        bool useMaxNonCompliancy;\r\n    }\r\n\r\n    struct NextStakingRound {\r\n        mapping (address => bool) userIsStaking;\r\n        mapping (address => uint256) addedUserStakes;\r\n        mapping (address => bool) userIsLeaving;\r\n        address[] usersToAdd;\r\n        uint256 totalAddedStake;\r\n    }\r\n\r\n    IERC20 public token;\r\n    address public juriAddress;\r\n    PoolDefinition public poolDefinition;\r\n\r\n    // Pool state\r\n    CurrentStakingRound public currentStakingRound;\r\n    NextStakingRound public nextStakingRound;\r\n\r\n    address[] public users;\r\n    uint256 public ownerFunds;\r\n    uint256 public totalUserStake;\r\n\r\n    uint256 public complianceDataIndex;\r\n    mapping (uint256 => mapping(address => bool)) public complianceDataAtIndex;\r\n\r\n    event AddedComplianceDataForUser(address user, bool wasCompliant);\r\n\r\n    /**\r\n     * @dev Reverts if called in incorrect stage.\r\n     * @param _stage The allowed stage for the given function.\r\n     */\r\n    modifier atStage(Stages _stage) {\r\n        require(\r\n            currentStakingRound.stage == _stage,\r\n            \"Function cannot be called at this time!\"\r\n        );\r\n\r\n        _;\r\n    }\r\n\r\n    /**\r\n     * @dev Reverts if called by any account other than a pool user.\r\n     */\r\n    modifier isPoolUser() {\r\n        require(\r\n            _isInArray(msg.sender, users),\r\n            \"Only added pool users can use this function!\"\r\n        );\r\n\r\n        _;\r\n    }\r\n\r\n    /**\r\n     * @dev Reverts if called by any pool user account.\r\n     */\r\n    modifier isNotPoolUser() {\r\n        require(\r\n            !_isInArray(msg.sender, users),\r\n            \"Only non-members can use this function!\"\r\n        );\r\n\r\n        _;\r\n    }\r\n\r\n    /**\r\n     * @dev Reverts if called by any pool user account.\r\n     */\r\n    modifier isNotPendingPoolUser() {\r\n        require(\r\n            !_isInArray(msg.sender, nextStakingRound.usersToAdd),\r\n            \"Only non-pending pool users can use this function!\"\r\n        );\r\n\r\n        _;\r\n    }\r\n\r\n    /**\r\n     * @dev Reverts if called by any pool user account.\r\n     */\r\n    modifier isPoolUserOrPendingPoolUser() {\r\n        require(\r\n            _isInArray(msg.sender, nextStakingRound.usersToAdd)\r\n            || _isInArray(msg.sender, users),\r\n            \"Only pool users or pending pool users can use this function!\"\r\n        );\r\n\r\n        _;\r\n    }\r\n\r\n    /**\r\n     * @dev Reverts if called by any account other than the Juri address.\r\n     */\r\n    modifier isJuriNetwork() {\r\n        require(\r\n            msg.sender == juriAddress,\r\n            \"Only juriAddress can use this function!\"\r\n        );\r\n\r\n        _;\r\n    }\r\n\r\n    /**\r\n     * @dev JuriStakingPool constructor.\r\n     * @param _token The ERC-20 token to be used for staking.\r\n     * @param _periodLength The length of a staking period.\r\n     * @param _feePercentage The fee percentage for the Juri protocol (0-100).\r\n     * @param _compliantGainPercentage The staking gain percentage for\r\n     * compliant users (0-100).\r\n     * @param _maxNonCompliantPenaltyPercentage The maximum penalty percentage\r\n     * for non-compliant users (0-100).\r\n     * @param _minStakePerUser The minimum amount to stake for users.\r\n     * @param _maxStakePerUser The maximum amount to stake for users.\r\n     * @param _maxTotalStake The maximum amount of total stake in the pool.\r\n     * @param _juriAddress The address of the Juri protocol.\r\n     */\r\n    constructor(\r\n        IERC20 _token,\r\n        uint256 _startTime,\r\n        uint256 _periodLength,\r\n        uint256 _feePercentage,\r\n        uint256 _compliantGainPercentage,\r\n        uint256 _maxNonCompliantPenaltyPercentage,\r\n        uint256 _minStakePerUser,\r\n        uint256 _maxStakePerUser,\r\n        uint256 _maxTotalStake,\r\n        address _juriAddress\r\n    ) public {\r\n        require(\r\n            address(_token) != address(0),\r\n            \"Token address must be defined!\"\r\n        );\r\n        require(_startTime > now, \"Start time must be in the future!\");\r\n        require(_periodLength > 0, \"Period length cannot be 0!\");\r\n        require(\r\n            _feePercentage >= 0 && _feePercentage <= 100,\r\n            \"Fee percentage must be a number between 0 and 100!\"\r\n        );\r\n        require(\r\n            _compliantGainPercentage >= 0 && _compliantGainPercentage <= 100,\r\n            \"Compliant gain percentage must be a number between 0 and 100!\"\r\n        );\r\n        require(\r\n            _maxNonCompliantPenaltyPercentage >= 0 && _maxNonCompliantPenaltyPercentage <= 100,\r\n            \"Max non-compliant penalty percentage must be a number between 0 and 100!\"\r\n        );\r\n        require(_minStakePerUser > 0, \"Min stake per user cannot be 0!\");\r\n        require(_maxStakePerUser > 0, \"Max stake per user cannot be 0!\");\r\n        require(_maxTotalStake > 0, \"Max stake per user cannot be 0!\");\r\n        require(_juriAddress != address(0), \"Juri address cannot be 0!\");\r\n\r\n        ownerFunds = 0;\r\n        totalUserStake = 0;\r\n        complianceDataIndex = 0;\r\n\r\n        _setStakingPeriodVariables(0);\r\n\r\n        token = _token;\r\n        juriAddress = _juriAddress;\r\n\r\n        poolDefinition = PoolDefinition(\r\n            _startTime,\r\n            _periodLength,\r\n            _feePercentage,\r\n            _compliantGainPercentage,\r\n            _maxNonCompliantPenaltyPercentage,\r\n            uint256(100).sub(_maxNonCompliantPenaltyPercentage),\r\n            _minStakePerUser,\r\n            _maxStakePerUser,\r\n            _maxTotalStake\r\n        );\r\n    }\r\n\r\n    /**\r\n     * @dev Add user to pool once next staking period starts.\r\n     * @param _amount The amount to be added as stake for the user.\r\n     */\r\n    function addUserInNextPeriod(uint256 _amount)\r\n        public\r\n        isNotPendingPoolUser\r\n        isNotPoolUser\r\n        atStage(Stages.AWAITING_COMPLIANCE_DATA)\r\n    {\r\n        require(\r\n            _amount >= poolDefinition.minStakePerUser,\r\n            'Please pass at least the min stake per user as amount!'\r\n        );\r\n\r\n        nextStakingRound.usersToAdd.push(msg.sender);\r\n\r\n        addMoreStakeForNextPeriod(_amount);\r\n        optInForStakingForNextPeriod();\r\n    }\r\n\r\n    /**\r\n     * @dev Remove user from pool once next staking period starts.\r\n     */\r\n    function removeUserInNextPeriod()\r\n        public\r\n        isPoolUser\r\n        atStage(Stages.AWAITING_COMPLIANCE_DATA)\r\n    {\r\n        require(\r\n            !nextStakingRound.userIsLeaving[msg.sender],\r\n            \"User already marked for removal!\"\r\n        );\r\n\r\n        nextStakingRound.userIsLeaving[msg.sender] = true;\r\n        optOutOfStakingForNextPeriod();\r\n    }\r\n\r\n    /**\r\n     * @dev Add more stake for user once next staking period starts.\r\n     * @param _amount The amount to be added as stake.\r\n     */\r\n    function addMoreStakeForNextPeriod(uint256 _amount)\r\n        public\r\n        atStage(Stages.AWAITING_COMPLIANCE_DATA)\r\n        isPoolUserOrPendingPoolUser\r\n    {\r\n        // TODO think about time restrictions:\r\n        // what if compliance data is not added in time?\r\n        uint256 stakeInCurrentPeriod\r\n            = currentStakingRound.userStakes[msg.sender];\r\n        uint256 stakeInNextPeriod\r\n            = nextStakingRound.addedUserStakes[msg.sender];\r\n\r\n        require(_amount > 0, \"Please pass an amount higher than 0!\");\r\n        require(\r\n            stakeInCurrentPeriod.add(stakeInNextPeriod) < poolDefinition.maxStakePerUser,\r\n            \"Cannot add more funds for user, because the max per user is reached!\"\r\n        );\r\n        require(\r\n            totalUserStake.add(nextStakingRound.totalAddedStake) < poolDefinition.maxTotalStake,\r\n            \"Cannot add more funds to pool, because the max in pool is reached!\"\r\n        );\r\n\r\n        uint256 newStakeInNextPeriod = stakeInNextPeriod.add(_amount);\r\n        uint256 adjustedAddedStake = _amount;\r\n\r\n        if (\r\n            stakeInCurrentPeriod.add(newStakeInNextPeriod)\r\n                > poolDefinition.maxStakePerUser\r\n        ) {\r\n            adjustedAddedStake = poolDefinition.maxStakePerUser.sub(\r\n                stakeInCurrentPeriod.add(stakeInNextPeriod)\r\n            );\r\n        }\r\n\r\n        uint256 adjustedNewStakeInNextPeriod\r\n            = stakeInNextPeriod.add(adjustedAddedStake);\r\n\r\n        if (\r\n            totalUserStake\r\n                .add(nextStakingRound.totalAddedStake)\r\n                .add(adjustedNewStakeInNextPeriod)\r\n                > poolDefinition.maxTotalStake\r\n        ) {\r\n            adjustedAddedStake = poolDefinition.maxTotalStake.sub(\r\n                totalUserStake.add(nextStakingRound.totalAddedStake)\r\n            );\r\n        }\r\n\r\n        require(\r\n            token.transferFrom(msg.sender, address(this), adjustedAddedStake),\r\n            \"Token transfer failed!\"\r\n        );\r\n\r\n        uint256 newStakeBalanceInNextPeriod\r\n            = stakeInNextPeriod.add(adjustedAddedStake);\r\n        nextStakingRound.addedUserStakes[msg.sender]\r\n            = newStakeBalanceInNextPeriod;\r\n        nextStakingRound.totalAddedStake = nextStakingRound.totalAddedStake\r\n            .add(adjustedAddedStake);\r\n    }\r\n\r\n    /**\r\n     * @dev Opt in for staking for user once next staking period starts.\r\n     */\r\n    function optInForStakingForNextPeriod()\r\n        public\r\n        atStage(Stages.AWAITING_COMPLIANCE_DATA)\r\n        isPoolUserOrPendingPoolUser\r\n    {\r\n        nextStakingRound.userIsStaking[msg.sender] = true;\r\n    }\r\n\r\n    /**\r\n     * @dev Opt out of staking for user once next staking period starts.\r\n     */\r\n    function optOutOfStakingForNextPeriod()\r\n        public\r\n        atStage(Stages.AWAITING_COMPLIANCE_DATA)\r\n        isPoolUserOrPendingPoolUser\r\n    {\r\n        nextStakingRound.userIsStaking[msg.sender] = false;\r\n    }\r\n\r\n    /**\r\n     * @dev Withdraw user stake funds from pool. Use funds added for next period\r\n     * first. Keep enough funds to pay non-compliant penalty if required.\r\n     */\r\n    function withdraw(\r\n        uint256 _amount\r\n    ) public atStage(Stages.AWAITING_COMPLIANCE_DATA) isPoolUser {\r\n        bool canWithdrawAll = false;\r\n        _withdrawForUser(msg.sender, _amount, canWithdrawAll);\r\n    }\r\n\r\n    /**\r\n     * @dev Add owner funds to pool.\r\n     */\r\n    function addOwnerFunds(uint256 _amount)\r\n        public\r\n        onlyOwner\r\n        atStage(Stages.AWAITING_COMPLIANCE_DATA)\r\n    {\r\n        require(_amount > 0, \"Please pass an amount higher than 0!\");\r\n        require(\r\n            token.transferFrom(msg.sender, address(this), _amount),\r\n            \"Token transfer failed!\"\r\n        );\r\n\r\n        ownerFunds = ownerFunds.add(_amount);\r\n    }\r\n\r\n    /**\r\n     * @dev Withdraw owner funds from pool.\r\n     * @param _amount The amount to withdraw.\r\n     */\r\n    function withdrawOwnerFunds(\r\n        uint256 _amount\r\n    ) public onlyOwner atStage(Stages.AWAITING_COMPLIANCE_DATA) {\r\n        uint256 amount = _amount;\r\n        uint256 minOwnerFunds = _computeMinOwnerFunds();\r\n\r\n        require(amount > 0, \"Please pass an amount higher than 0!!\");\r\n        require(ownerFunds > 0, \"No funds available to withdraw!\");\r\n\r\n        require(\r\n            ownerFunds > minOwnerFunds + 1,\r\n            \"Cannot withdraw below min owner funds!\"\r\n        );\r\n\r\n        if (ownerFunds < minOwnerFunds.add(amount)) {\r\n            amount = ownerFunds.sub(minOwnerFunds);\r\n        }\r\n\r\n        require(\r\n            token.transfer(msg.sender, amount),\r\n            \"Token transfer failed!\"\r\n        );\r\n        ownerFunds = ownerFunds.sub(amount);\r\n    }\r\n\r\n    /**\r\n     * @dev Add user's compliancy data for current or past periods.\r\n     * @param _updateIterationCount The number defining the max for how much compliance\r\n     * data will be passed in a single function call to prevent out-of-gas errors.\r\n     * @param _wasCompliant The boolean array to indicate compliancy.\r\n     */\r\n    function addWasCompliantDataForUsers(\r\n        uint256 _updateIterationCount,\r\n        bool[] memory _wasCompliant\r\n    )\r\n        public\r\n        isJuriNetwork\r\n        atStage(Stages.AWAITING_COMPLIANCE_DATA)\r\n    {\r\n        // Commented out, because currently not supported anyways to add\r\n        // multiple compliance data lists due to stage restriction.\r\n        /* require(\r\n            complianceDataIndex <= currentStakingPeriodIndex,\r\n            \"Cannot add compliance data for future periods!\"\r\n        ); */\r\n\r\n        uint256 nextStakingPeriodEndTime = poolDefinition.startTime.add(\r\n            currentStakingRound.roundIndex.mul(poolDefinition.periodLength)\r\n        );\r\n        require(\r\n            now > nextStakingPeriodEndTime,\r\n            \"Can only add new data after end of periodLength!\"\r\n        );\r\n\r\n        if (currentStakingRound.addComplianceDataIndex\r\n            .add(_updateIterationCount) > users.length\r\n        ) {\r\n            require(\r\n                currentStakingRound.addComplianceDataIndex\r\n                    .add(_wasCompliant.length) == users.length,\r\n                \"Compliance data length must match pool users array!\"\r\n            );\r\n        }\r\n\r\n        for (\r\n            (uint256 i, uint256 j) = (currentStakingRound.addComplianceDataIndex, 0);\r\n            i < users.length && i <\r\n                currentStakingRound.addComplianceDataIndex\r\n                    .add(_updateIterationCount);\r\n            (i++, j++)\r\n        ) {\r\n            complianceDataAtIndex[complianceDataIndex][users[i]]\r\n                = _wasCompliant[j];\r\n            emit AddedComplianceDataForUser(users[i], _wasCompliant[j]);\r\n        }\r\n\r\n        currentStakingRound.addComplianceDataIndex\r\n            = currentStakingRound.addComplianceDataIndex\r\n                .add(_updateIterationCount);\r\n\r\n        if (currentStakingRound.addComplianceDataIndex >= users.length) {\r\n            complianceDataIndex++;\r\n            currentStakingRound.stage = Stages.AWAITING_FIRST_UPDATE;\r\n        }\r\n    }\r\n\r\n    /**\r\n     * @dev First part for updating stakes of users for next X users.\r\n     * @param _updateIterationCount The number defining how many users should\r\n     * be updated in a single function call to prevent out-of-gas errors.\r\n     */\r\n    function firstUpdateStakeForNextXAmountOfUsers(\r\n        uint256 _updateIterationCount\r\n    )\r\n        public\r\n        onlyOwner\r\n        atStage(Stages.AWAITING_FIRST_UPDATE)\r\n    {\r\n        for (\r\n            uint256 i = currentStakingRound.updateStaking1Index;\r\n            i < users.length && i <\r\n                currentStakingRound.updateStaking1Index\r\n                    .add(_updateIterationCount);\r\n            i++\r\n        ) {\r\n            address user = users[i];\r\n\r\n            if (!currentStakingRound.userIsStaking[user]) {\r\n                continue;\r\n            }\r\n\r\n            bool wasCompliant = complianceDataAtIndex\r\n                [currentStakingRound.roundIndex]\r\n                [user];\r\n\r\n            uint256 stake = getStakeForUserAtRoundStart(user);\r\n\r\n            if (wasCompliant) {\r\n                uint256 newStake = _computeNewCompliantStake(stake);\r\n                uint256 gain = newStake.sub(stake);\r\n                currentStakingRound.totalPayout\r\n                    = currentStakingRound.totalPayout.add(gain);\r\n\r\n                _moveStakeToNextPeriod(user, newStake);\r\n            } else {\r\n                currentStakingRound.totalStakeToSlash\r\n                    = currentStakingRound.totalStakeToSlash.add(stake);\r\n            }\r\n        }\r\n\r\n        currentStakingRound.updateStaking1Index\r\n            = currentStakingRound.updateStaking1Index\r\n                .add(_updateIterationCount);\r\n\r\n        if (currentStakingRound.updateStaking1Index >= users.length) {\r\n            currentStakingRound.stage = Stages.AWAITING_SECOND_UPDATE;\r\n        }\r\n    }\r\n\r\n    /**\r\n     * @dev Second part for updating stakes of users for next X users.\r\n     * @param _updateIterationCount The number defining how many users should\r\n     * be updated in a single function call to prevent out-of-gas errors.\r\n     */\r\n    function secondUpdateStakeForNextXAmountOfUsers(\r\n        uint256 _updateIterationCount\r\n    )\r\n        public\r\n        onlyOwner\r\n        atStage(Stages.AWAITING_SECOND_UPDATE)\r\n    {\r\n        if (currentStakingRound.updateStaking2Index == 0) {\r\n            currentStakingRound.useMaxNonCompliancy = _computeUseMaxNonCompliancy();\r\n        }\r\n\r\n        uint256 removedUserCount = 0;\r\n\r\n        for (\r\n            uint256 iteration = currentStakingRound.updateStaking2Index;\r\n            (iteration.sub(removedUserCount) < users.length\r\n                || iteration.sub(removedUserCount) < nextStakingRound.usersToAdd.length\r\n            ) && iteration < currentStakingRound.updateStaking2Index\r\n                .add(_updateIterationCount);\r\n            iteration++\r\n        ) {\r\n            uint256 i = iteration.sub(removedUserCount);\r\n\r\n            if (users.length > i.add(nextStakingRound.usersToAdd.length)) {\r\n                _handleSecondUpdateForUser(users[i]);\r\n            }\r\n\r\n            if (users.length > i && nextStakingRound.userIsLeaving[users[i]]) {\r\n                nextStakingRound.userIsLeaving[users[i]] = false;\r\n                _removeUserAtIndex(i);\r\n                removedUserCount++;\r\n            } else if (nextStakingRound.usersToAdd.length > i) {\r\n                _addPendingUser(nextStakingRound.usersToAdd[i]);\r\n            }\r\n        }\r\n\r\n        currentStakingRound.updateStaking2Index\r\n            = currentStakingRound.updateStaking2Index.add(_updateIterationCount)\r\n                .sub(removedUserCount);\r\n\r\n        if (currentStakingRound.updateStaking2Index >= users.length &&\r\n            currentStakingRound.updateStaking2Index >= nextStakingRound.usersToAdd.length\r\n        ) {\r\n            _handleJuriFees();\r\n            _handleUnderwriting();\r\n            _resetPoolForNextPeriod();\r\n        }\r\n    }\r\n\r\n    /**\r\n     * @dev Set new Juri address.\r\n     * @param _newJuriAddress The new Juri address to be stored.\r\n     */\r\n    function setJuriAddress(address _newJuriAddress) public isJuriNetwork {\r\n        require(_newJuriAddress != address(0), \"New Juri address cannot be 0!\");\r\n\r\n        juriAddress = _newJuriAddress;\r\n    }\r\n\r\n    /**\r\n     * @dev Get the total pool user count.\r\n     */\r\n    function getPoolUserCount() public view returns (uint256) {\r\n        return users.length;\r\n    }\r\n\r\n    /**\r\n     * @dev Read users to be added in the next round.\r\n     * @param _index The index in the array of pending user additions.\r\n     * @return The user to be added.\r\n     */\r\n    function getUserToBeAddedNextPeriod(uint256 _index)\r\n        public\r\n        view\r\n        returns (address)\r\n    {\r\n        return nextStakingRound.usersToAdd[_index];\r\n    }\r\n\r\n    /**\r\n     * @dev Read if calling user is staking in the current round.\r\n     * @return The boolean indicator if user is staking in the current round.\r\n     */\r\n    function getIsCurrentRoundStaking()\r\n        public\r\n        view\r\n        returns (bool)\r\n    {\r\n        return currentStakingRound.userIsStaking[msg.sender];\r\n    }\r\n\r\n    /**\r\n     * @dev Read if calling user is staking in the next round.\r\n     * @return The boolean indicator if user will be staking next round.\r\n     */\r\n    function getIsNextRoundStaking()\r\n        public\r\n        view\r\n        returns (bool)\r\n    {\r\n        return nextStakingRound.userIsStaking[msg.sender];\r\n    }\r\n\r\n    /**\r\n     * @dev Read if user will be removed in the next round.\r\n     * @param _user The user to be checked.\r\n     * @return The boolean indicator showing if user is leaving next round.\r\n     */\r\n    function getIsLeavingNextPeriodForUser(address _user)\r\n        public\r\n        view\r\n        returns (bool)\r\n    {\r\n        return nextStakingRound.userIsLeaving[_user];\r\n    }\r\n\r\n    /**\r\n     * @dev Get current stake for user.\r\n     * @return The amount of stake in the current round for user.\r\n     */\r\n    function getStakeForUserInCurrentPeriod(\r\n        address _user\r\n    ) public view returns (uint256) {\r\n        return currentStakingRound.userStakes[_user];\r\n    }\r\n\r\n    /**\r\n     * @dev Get stake for user that will be used in current staking round.\r\n     * @return The amount of stake used in the current round for user.\r\n     */\r\n    function getStakeForUserAtRoundStart(\r\n        address _user\r\n    ) public view returns (uint256) {\r\n        return currentStakingRound.userStakesAtRoundStart[_user];\r\n    }\r\n\r\n    /**\r\n     * @dev Get added stake for user.\r\n     * @return The amount of stake added in the next round for user.\r\n     */\r\n    function getAdditionalStakeForUserInNextPeriod(\r\n        address _user\r\n    ) public view returns (uint256) {\r\n        return nextStakingRound.addedUserStakes[_user];\r\n    }\r\n\r\n    /**\r\n     * @dev Read users in pool.\r\n     * @return The users in the pool.\r\n     */\r\n    function getUsers()\r\n        public\r\n        view\r\n        returns (address[] memory)\r\n    {\r\n        return users;\r\n    }\r\n\r\n    /**\r\n     * @dev Returns index of user address in array. If not found, returns -1.\r\n     * @param _user The user to be searched in array.\r\n     * @param _array The array to be used.\r\n     */\r\n    function _getIndexInArray(\r\n        address _user,\r\n        address[] memory _array\r\n    ) private pure returns (int256) {\r\n        for (uint256 i = 0; i < _array.length; i++) {\r\n            if (_array[i] == _user) {\r\n                return int256(i);\r\n            }\r\n        }\r\n\r\n        return -1;\r\n    }\r\n\r\n    /**\r\n     * @dev Returns if array contains at least one instance of user.\r\n     * @param _user The user to be searched in array.\r\n     * @param _array The array to be used.\r\n     */\r\n    function _isInArray(\r\n        address _user,\r\n        address[] memory _array\r\n    ) private pure returns (bool) {\r\n        bool isInArray = false;\r\n\r\n        for (uint256 i = 0; i < _array.length; i++) {\r\n            if (_array[i] == _user) {\r\n                isInArray = true;\r\n                break;\r\n            }\r\n        }\r\n\r\n        return isInArray;\r\n    }\r\n\r\n    function _getNextStakingPeriodIndex() private view returns (uint256) {\r\n        return currentStakingRound.roundIndex + 1;\r\n    }\r\n\r\n    function _moveStakeToNextPeriod(address _user, uint256 _newStake) private {\r\n        uint256 oldStake = currentStakingRound.userStakes[_user];\r\n        uint256 withdrawn = currentStakingRound.userStakesAtRoundStart[_user]\r\n            .sub(currentStakingRound.userStakes[_user]);\r\n\r\n        uint256 updatedStake = _newStake\r\n            .add(nextStakingRound.addedUserStakes[_user])\r\n            .sub(withdrawn);\r\n\r\n        currentStakingRound.userStakes[_user] = updatedStake;\r\n        currentStakingRound.userStakesAtRoundStart[_user] = updatedStake;\r\n        nextStakingRound.addedUserStakes[_user] = 0;\r\n\r\n        totalUserStake = updatedStake > oldStake\r\n            ? totalUserStake.add(updatedStake.sub(oldStake))\r\n            : totalUserStake.sub(oldStake.sub(updatedStake));\r\n    }\r\n\r\n    function _withdrawFromCurrentPeriod(\r\n        address _user,\r\n        uint256 _amount,\r\n        bool _canWithdrawAll\r\n    ) private {\r\n        uint256 stake = getStakeForUserInCurrentPeriod(_user);\r\n        uint256 stakeAfterWithdraw = stake.sub(_amount);\r\n\r\n        if (_canWithdrawAll) {\r\n            totalUserStake = totalUserStake.sub(_amount);\r\n        } else {\r\n            _ensureSufficientStakeLeftForUser(_user, stakeAfterWithdraw);\r\n        }\r\n\r\n        currentStakingRound.userStakes[_user] = stakeAfterWithdraw;\r\n    }\r\n\r\n    function _ensureSufficientStakeLeftForUser(\r\n        address _user,\r\n        uint256 _stakeAfterWithdraw\r\n    ) private view {\r\n        uint256 stakeAtRoundStart = getStakeForUserAtRoundStart(_user);\r\n        uint256 stakeAfterLoss = _computeMaxLossNewStake(stakeAtRoundStart);\r\n        uint256 maxLoss = stakeAtRoundStart.sub(stakeAfterLoss);\r\n\r\n        require(\r\n            _stakeAfterWithdraw >= maxLoss,\r\n            \"Cannot withdraw more than safe staking amount!\"\r\n        );\r\n\r\n        require(\r\n            _stakeAfterWithdraw >= poolDefinition.minStakePerUser,\r\n            \"Cannot withdraw more than minStakePerUser!\"\r\n        );\r\n    }\r\n\r\n    function _withdrawFromNextPeriod(\r\n        address _user,\r\n        uint256 _amount\r\n    ) private returns (uint256) {\r\n        uint256 stakeForNextPeriod = getAdditionalStakeForUserInNextPeriod(\r\n            _user\r\n        );\r\n\r\n        if (_amount < stakeForNextPeriod) {\r\n            nextStakingRound.addedUserStakes[_user]\r\n                = stakeForNextPeriod.sub(_amount);\r\n\r\n            return _amount;\r\n        }\r\n\r\n        nextStakingRound.addedUserStakes[_user] = 0;\r\n        return stakeForNextPeriod;\r\n    }\r\n\r\n    function _withdrawForUser(\r\n        address _user,\r\n        uint256 _amount,\r\n        bool _canWithdrawAll\r\n    ) public {\r\n        uint256 withdrawnFromNextPeriod\r\n            = _withdrawFromNextPeriod(_user, _amount);\r\n\r\n        if (withdrawnFromNextPeriod < _amount) {\r\n            uint256 withdrawFromCurrentPeriod = _amount.sub(withdrawnFromNextPeriod);\r\n            _withdrawFromCurrentPeriod(_user, withdrawFromCurrentPeriod, _canWithdrawAll);\r\n        }\r\n\r\n        require(\r\n            token.transfer(_user, _amount),\r\n            \"Token transfer failed!\"\r\n        );\r\n    }\r\n\r\n    function _addPendingUser(address _newUser) private {\r\n        users.push(_newUser);\r\n        _moveStakeToNextPeriod(_newUser, 0);\r\n\r\n        currentStakingRound.userIsStaking[_newUser]\r\n            = nextStakingRound.userIsStaking[_newUser];\r\n    }\r\n\r\n    function _removeUserAtIndex(uint256 _index) private {\r\n        address userToRemove = users[_index];\r\n\r\n        uint256 userBalance = getStakeForUserInCurrentPeriod(userToRemove)\r\n            .add(getAdditionalStakeForUserInNextPeriod(userToRemove));\r\n        bool canWithdrawAll = true;\r\n        _withdrawForUser(userToRemove, userBalance, canWithdrawAll);\r\n\r\n        if (users.length > 1) {\r\n            users[_index] = users[users.length.sub(1)]; // changes order in users!\r\n        }\r\n        users.length--;\r\n    }\r\n\r\n    function _computeMinOwnerFunds() private view returns (uint256) {\r\n        uint256 maxNewStakeAfterRound = totalUserStake.mul(\r\n            uint256(100).add(poolDefinition.compliantGainPercentage)\r\n        );\r\n\r\n        return maxNewStakeAfterRound.sub(totalUserStake);\r\n    }\r\n\r\n    function _ensureContractIsFundedForNextRound() private view {\r\n        uint256 minOwnerFunds = _computeMinOwnerFunds();\r\n\r\n        require(\r\n            ownerFunds > minOwnerFunds,\r\n            \"Pool is not sufficiently funded by owner!\"\r\n        );\r\n    }\r\n\r\n    function _handleSecondUpdateForUser(address _user) private {\r\n        bool wasCompliant = complianceDataAtIndex\r\n            [currentStakingRound.roundIndex]\r\n            [_user];\r\n\r\n        if (!wasCompliant && currentStakingRound.userIsStaking[_user]) {\r\n            uint256 oldStake = getStakeForUserAtRoundStart(_user);\r\n            uint256 newStake = _computeNewNonCompliantStake(oldStake);\r\n            _moveStakeToNextPeriod(_user, newStake);\r\n        }\r\n\r\n        _moveUserToNextRound(_user);\r\n    }\r\n\r\n    function _computeNewCompliantStake(uint256 _userStake)\r\n        private\r\n        view\r\n        returns (uint256)\r\n    {\r\n        return _userStake\r\n            .mul(uint256(100).add(poolDefinition.compliantGainPercentage))\r\n            .div(100);\r\n    }\r\n\r\n    function _computeUseMaxNonCompliancy() private view returns (bool) {\r\n        if (currentStakingRound.totalStakeToSlash == 0) {\r\n            // avoid division by 0\r\n            return true;\r\n        }\r\n\r\n        uint256 nonCompliantFactor = currentStakingRound.totalPayout\r\n            .mul(100)\r\n            .div(currentStakingRound.totalStakeToSlash);\r\n\r\n        return nonCompliantFactor >=\r\n            poolDefinition.maxNonCompliantPenaltyPercentage;\r\n    }\r\n\r\n    function _computeMaxLossNewStake(uint256 _userStake)\r\n        private\r\n        view\r\n        returns (uint256)\r\n    {\r\n        return _userStake.mul(poolDefinition.maxNonCompliantFactor).div(100);\r\n    }\r\n\r\n    function _computeNewNonCompliantStake(uint256 _userStake)\r\n        private\r\n        view\r\n        returns (uint256)\r\n    {\r\n        if (currentStakingRound.useMaxNonCompliancy) {\r\n            return _computeMaxLossNewStake(_userStake);\r\n        }\r\n\r\n        uint256 totalStakeToSlash = currentStakingRound.totalStakeToSlash;\r\n        uint256 totalPayout = currentStakingRound.totalPayout;\r\n\r\n        // TODO totalPayout > totalStakeToSlash ever possible?\r\n        // probably not, because useMaxNonCompliancy would be true\r\n        return _userStake\r\n            .mul(totalStakeToSlash.sub(totalPayout))\r\n            .div(totalStakeToSlash);\r\n    }\r\n\r\n    function _moveUserToNextRound(address _user) private {\r\n        uint256 stake = getStakeForUserInCurrentPeriod(_user);\r\n\r\n        if (!currentStakingRound.userIsStaking[_user]) {\r\n            currentStakingRound.userStakes[_user]\r\n                = nextStakingRound.addedUserStakes[_user].add(stake);\r\n            nextStakingRound.addedUserStakes[_user] = 0;\r\n        }\r\n\r\n        currentStakingRound.userIsStaking[_user]\r\n            = nextStakingRound.userIsStaking[_user];\r\n    }\r\n\r\n    function _computeJuriFees() private view returns (uint256) {\r\n        return totalUserStake.mul(poolDefinition.feePercentage).div(100);\r\n    }\r\n\r\n    function _handleJuriFees() private {\r\n        require(\r\n            token.transfer(juriAddress, currentStakingRound.juriFees),\r\n            \"Juri fees token transfer failed!\"\r\n        );\r\n    }\r\n\r\n    function _handleUnderwriting() private {\r\n        if (currentStakingRound.useMaxNonCompliancy) {\r\n            uint256 slashedStake = currentStakingRound.totalStakeToSlash\r\n                .mul(poolDefinition.maxNonCompliantFactor)\r\n                .div(100);\r\n            uint256 fundedPayoutFromSlashedStake\r\n                = currentStakingRound.totalStakeToSlash.sub(slashedStake);\r\n            _fundUserStakesFromOwnerFunds(fundedPayoutFromSlashedStake);\r\n        }\r\n    }\r\n\r\n    function _fundUserStakesFromOwnerFunds(\r\n        uint256 _fundedPayoutFromSlashedStake\r\n    )\r\n        private\r\n    {\r\n        uint256 underwriterLiability = currentStakingRound.totalPayout\r\n            .sub(_fundedPayoutFromSlashedStake);\r\n        ownerFunds = ownerFunds.sub(underwriterLiability);\r\n    }\r\n\r\n    function _setStakingPeriodVariables(uint256 _roundIndex) private {\r\n        currentStakingRound = CurrentStakingRound(\r\n            _roundIndex, Stages.AWAITING_COMPLIANCE_DATA, 0, 0, 0, 0, 0, 0, 0, false\r\n        );\r\n\r\n        nextStakingRound = NextStakingRound(\r\n            new address[](0), 0\r\n        );\r\n    }\r\n\r\n    function _resetPoolForNextPeriod() private {\r\n        _setStakingPeriodVariables(currentStakingRound.roundIndex + 1);\r\n        _ensureContractIsFundedForNextRound();\r\n\r\n        // for next round\r\n        currentStakingRound.juriFees = _computeJuriFees();\r\n        currentStakingRound.totalPayout = currentStakingRound.juriFees;\r\n    }\r\n}",
  "sourcePath": "C:\\Users\\mail\\Personal\\Juri\\JuriStakingContract\\contracts\\JuriStakingPool.sol",
  "compiler": {
    "name": "solc",
    "version": "0.5.10+commit.5a6ea5b1.Emscripten.clang"
  },
  "schemaVersion": "3.0.11",
  "updatedAt": "2019-08-26T23:40:09.039Z",
  "devdoc": {
    "methods": {
      "addMoreStakeForNextPeriod(uint256)": {
        "details": "Add more stake for user once next staking period starts.\r",
        "params": {
          "_amount": "The amount to be added as stake.\r"
        }
      },
      "addOwnerFunds(uint256)": {
        "details": "Add owner funds to pool.\r"
      },
      "addUserInNextPeriod(uint256)": {
        "details": "Add user to pool once next staking period starts.\r",
        "params": {
          "_amount": "The amount to be added as stake for the user.\r"
        }
      },
      "addWasCompliantDataForUsers(uint256,bool[])": {
        "details": "Add user's compliancy data for current or past periods.\r",
        "params": {
          "_updateIterationCount": "The number defining the max for how much compliance\r data will be passed in a single function call to prevent out-of-gas errors.\r",
          "_wasCompliant": "The boolean array to indicate compliancy.\r"
        }
      },
      "constructor": {
        "details": "JuriStakingPool constructor.\r",
        "params": {
          "_compliantGainPercentage": "The staking gain percentage for\r compliant users (0-100).\r",
          "_feePercentage": "The fee percentage for the Juri protocol (0-100).\r",
          "_juriAddress": "The address of the Juri protocol.\r",
          "_maxNonCompliantPenaltyPercentage": "The maximum penalty percentage\r for non-compliant users (0-100).\r",
          "_maxStakePerUser": "The maximum amount to stake for users.\r",
          "_maxTotalStake": "The maximum amount of total stake in the pool.\r",
          "_minStakePerUser": "The minimum amount to stake for users.\r",
          "_periodLength": "The length of a staking period.\r",
          "_token": "The ERC-20 token to be used for staking.\r"
        }
      },
      "firstUpdateStakeForNextXAmountOfUsers(uint256)": {
        "details": "First part for updating stakes of users for next X users.\r",
        "params": {
          "_updateIterationCount": "The number defining how many users should\r be updated in a single function call to prevent out-of-gas errors.\r"
        }
      },
      "getAdditionalStakeForUserInNextPeriod(address)": {
        "details": "Get added stake for user.\r",
        "return": "The amount of stake added in the next round for user.\r"
      },
      "getIsCurrentRoundStaking()": {
        "details": "Read if calling user is staking in the current round.\r",
        "return": "The boolean indicator if user is staking in the current round.\r"
      },
      "getIsLeavingNextPeriodForUser(address)": {
        "details": "Read if user will be removed in the next round.\r",
        "params": {
          "_user": "The user to be checked.\r"
        },
        "return": "The boolean indicator showing if user is leaving next round.\r"
      },
      "getIsNextRoundStaking()": {
        "details": "Read if calling user is staking in the next round.\r",
        "return": "The boolean indicator if user will be staking next round.\r"
      },
      "getPoolUserCount()": {
        "details": "Get the total pool user count.\r"
      },
      "getStakeForUserAtRoundStart(address)": {
        "details": "Get stake for user that will be used in current staking round.\r",
        "return": "The amount of stake used in the current round for user.\r"
      },
      "getStakeForUserInCurrentPeriod(address)": {
        "details": "Get current stake for user.\r",
        "return": "The amount of stake in the current round for user.\r"
      },
      "getUserToBeAddedNextPeriod(uint256)": {
        "details": "Read users to be added in the next round.\r",
        "params": {
          "_index": "The index in the array of pending user additions.\r"
        },
        "return": "The user to be added.\r"
      },
      "getUsers()": {
        "details": "Read users in pool.\r",
        "return": "The users in the pool.\r"
      },
      "isOwner()": {
        "return": "true if `msg.sender` is the owner of the contract.\r"
      },
      "optInForStakingForNextPeriod()": {
        "details": "Opt in for staking for user once next staking period starts.\r"
      },
      "optOutOfStakingForNextPeriod()": {
        "details": "Opt out of staking for user once next staking period starts.\r"
      },
      "owner()": {
        "return": "the address of the owner.\r"
      },
      "removeUserInNextPeriod()": {
        "details": "Remove user from pool once next staking period starts.\r"
      },
      "renounceOwnership()": {
        "details": "Allows the current owner to relinquish control of the contract.\r It will not be possible to call the functions with the `onlyOwner`\r modifier anymore.\r"
      },
      "secondUpdateStakeForNextXAmountOfUsers(uint256)": {
        "details": "Second part for updating stakes of users for next X users.\r",
        "params": {
          "_updateIterationCount": "The number defining how many users should\r be updated in a single function call to prevent out-of-gas errors.\r"
        }
      },
      "setJuriAddress(address)": {
        "details": "Set new Juri address.\r",
        "params": {
          "_newJuriAddress": "The new Juri address to be stored.\r"
        }
      },
      "transferOwnership(address)": {
        "details": "Allows the current owner to transfer control of the contract to a newOwner.\r",
        "params": {
          "newOwner": "The address to transfer ownership to.\r"
        }
      },
      "withdraw(uint256)": {
        "details": "Withdraw user stake funds from pool. Use funds added for next period\r first. Keep enough funds to pay non-compliant penalty if required.\r"
      },
      "withdrawOwnerFunds(uint256)": {
        "details": "Withdraw owner funds from pool.\r",
        "params": {
          "_amount": "The amount to withdraw.\r"
        }
      }
    }
  },
  "userdoc": {
    "methods": {
      "renounceOwnership()": {
        "notice": "Renouncing ownership will leave the contract without an owner,\r thereby removing any functionality that is only available to the owner.\r"
      }
    }
  }
}