{
  "contractName": "JuriBonding",
  "abi": [
    {
      "constant": true,
      "inputs": [
        {
          "name": "",
          "type": "address"
        }
      ],
      "name": "bondedStakes",
      "outputs": [
        {
          "name": "oldStake",
          "type": "uint256"
        },
        {
          "name": "newStake",
          "type": "uint256"
        },
        {
          "name": "afterRoundId",
          "type": "uint256"
        }
      ],
      "payable": false,
      "stateMutability": "view",
      "type": "function"
    },
    {
      "constant": true,
      "inputs": [
        {
          "name": "",
          "type": "uint256"
        },
        {
          "name": "",
          "type": "address"
        }
      ],
      "name": "changedStakeInRound",
      "outputs": [
        {
          "name": "",
          "type": "bool"
        }
      ],
      "payable": false,
      "stateMutability": "view",
      "type": "function"
    },
    {
      "constant": true,
      "inputs": [],
      "name": "notRevealPenalty",
      "outputs": [
        {
          "name": "",
          "type": "uint256"
        }
      ],
      "payable": false,
      "stateMutability": "view",
      "type": "function"
    },
    {
      "constant": true,
      "inputs": [
        {
          "name": "",
          "type": "address"
        }
      ],
      "name": "allowedWithdrawalAmounts",
      "outputs": [
        {
          "name": "amount",
          "type": "uint256"
        },
        {
          "name": "minRoundIndex",
          "type": "uint256"
        }
      ],
      "payable": false,
      "stateMutability": "view",
      "type": "function"
    },
    {
      "constant": true,
      "inputs": [
        {
          "name": "",
          "type": "uint256"
        },
        {
          "name": "",
          "type": "address"
        },
        {
          "name": "",
          "type": "uint256"
        }
      ],
      "name": "hasBeenSlashed",
      "outputs": [
        {
          "name": "",
          "type": "bool"
        }
      ],
      "payable": false,
      "stateMutability": "view",
      "type": "function"
    },
    {
      "constant": true,
      "inputs": [],
      "name": "totalBonded",
      "outputs": [
        {
          "name": "",
          "type": "uint256"
        }
      ],
      "payable": false,
      "stateMutability": "view",
      "type": "function"
    },
    {
      "constant": true,
      "inputs": [],
      "name": "offlinePenalty",
      "outputs": [
        {
          "name": "",
          "type": "uint256"
        }
      ],
      "payable": false,
      "stateMutability": "view",
      "type": "function"
    },
    {
      "constant": false,
      "inputs": [],
      "name": "renounceOwnership",
      "outputs": [],
      "payable": false,
      "stateMutability": "nonpayable",
      "type": "function"
    },
    {
      "constant": true,
      "inputs": [],
      "name": "owner",
      "outputs": [
        {
          "name": "",
          "type": "address"
        }
      ],
      "payable": false,
      "stateMutability": "view",
      "type": "function"
    },
    {
      "constant": true,
      "inputs": [],
      "name": "isOwner",
      "outputs": [
        {
          "name": "",
          "type": "bool"
        }
      ],
      "payable": false,
      "stateMutability": "view",
      "type": "function"
    },
    {
      "constant": true,
      "inputs": [
        {
          "name": "",
          "type": "uint256"
        }
      ],
      "name": "totalNodesCount",
      "outputs": [
        {
          "name": "",
          "type": "uint256"
        }
      ],
      "payable": false,
      "stateMutability": "view",
      "type": "function"
    },
    {
      "constant": true,
      "inputs": [],
      "name": "incorrectResultPenalty",
      "outputs": [
        {
          "name": "",
          "type": "uint256"
        }
      ],
      "payable": false,
      "stateMutability": "view",
      "type": "function"
    },
    {
      "constant": true,
      "inputs": [
        {
          "name": "",
          "type": "uint256"
        }
      ],
      "name": "stakingNodesAddressCount",
      "outputs": [
        {
          "name": "",
          "type": "uint256"
        }
      ],
      "payable": false,
      "stateMutability": "view",
      "type": "function"
    },
    {
      "constant": true,
      "inputs": [],
      "name": "minStakePerNode",
      "outputs": [
        {
          "name": "",
          "type": "uint256"
        }
      ],
      "payable": false,
      "stateMutability": "view",
      "type": "function"
    },
    {
      "constant": true,
      "inputs": [],
      "name": "proxy",
      "outputs": [
        {
          "name": "",
          "type": "address"
        }
      ],
      "payable": false,
      "stateMutability": "view",
      "type": "function"
    },
    {
      "constant": false,
      "inputs": [
        {
          "name": "newOwner",
          "type": "address"
        }
      ],
      "name": "transferOwnership",
      "outputs": [],
      "payable": false,
      "stateMutability": "nonpayable",
      "type": "function"
    },
    {
      "constant": true,
      "inputs": [],
      "name": "incorrectDissentPenalty",
      "outputs": [
        {
          "name": "",
          "type": "uint256"
        }
      ],
      "payable": false,
      "stateMutability": "view",
      "type": "function"
    },
    {
      "constant": true,
      "inputs": [],
      "name": "token",
      "outputs": [
        {
          "name": "",
          "type": "address"
        }
      ],
      "payable": false,
      "stateMutability": "view",
      "type": "function"
    },
    {
      "inputs": [
        {
          "name": "_proxy",
          "type": "address"
        },
        {
          "name": "_token",
          "type": "address"
        },
        {
          "name": "_juriFoundation",
          "type": "address"
        },
        {
          "name": "_minStakePerNode",
          "type": "uint256"
        },
        {
          "name": "_offlinePenalty",
          "type": "uint256"
        },
        {
          "name": "_notRevealPenalty",
          "type": "uint256"
        },
        {
          "name": "_incorrectResultPenalty",
          "type": "uint256"
        },
        {
          "name": "_incorrectDissentPenalty",
          "type": "uint256"
        }
      ],
      "payable": false,
      "stateMutability": "nonpayable",
      "type": "constructor"
    },
    {
      "anonymous": false,
      "inputs": [
        {
          "indexed": false,
          "name": "roundIndex",
          "type": "uint256"
        },
        {
          "indexed": false,
          "name": "from",
          "type": "address"
        },
        {
          "indexed": false,
          "name": "to",
          "type": "address"
        },
        {
          "indexed": false,
          "name": "penalty",
          "type": "uint256"
        }
      ],
      "name": "SlashedStake",
      "type": "event"
    },
    {
      "anonymous": false,
      "inputs": [
        {
          "indexed": true,
          "name": "previousOwner",
          "type": "address"
        },
        {
          "indexed": true,
          "name": "newOwner",
          "type": "address"
        }
      ],
      "name": "OwnershipTransferred",
      "type": "event"
    },
    {
      "constant": false,
      "inputs": [
        {
          "name": "_toSlashNode",
          "type": "address"
        },
        {
          "name": "_dissentedUser",
          "type": "address"
        }
      ],
      "name": "slashStakeForBeingOffline",
      "outputs": [],
      "payable": false,
      "stateMutability": "nonpayable",
      "type": "function"
    },
    {
      "constant": false,
      "inputs": [
        {
          "name": "_toSlashNode",
          "type": "address"
        },
        {
          "name": "_notRevealedUser",
          "type": "address"
        }
      ],
      "name": "slashStakeForNotRevealing",
      "outputs": [],
      "payable": false,
      "stateMutability": "nonpayable",
      "type": "function"
    },
    {
      "constant": false,
      "inputs": [
        {
          "name": "_toSlashNode",
          "type": "address"
        },
        {
          "name": "_incorrectResultUser",
          "type": "address"
        }
      ],
      "name": "slashStakeForIncorrectResult",
      "outputs": [],
      "payable": false,
      "stateMutability": "nonpayable",
      "type": "function"
    },
    {
      "constant": false,
      "inputs": [
        {
          "name": "_toSlashNode",
          "type": "address"
        },
        {
          "name": "_incorrectDissentUser",
          "type": "address"
        }
      ],
      "name": "slashStakeForIncorrectDissenting",
      "outputs": [],
      "payable": false,
      "stateMutability": "nonpayable",
      "type": "function"
    },
    {
      "constant": false,
      "inputs": [],
      "name": "withdrawAllowedStakes",
      "outputs": [],
      "payable": false,
      "stateMutability": "nonpayable",
      "type": "function"
    },
    {
      "constant": false,
      "inputs": [
        {
          "name": "_amount",
          "type": "uint256"
        }
      ],
      "name": "bondStake",
      "outputs": [],
      "payable": false,
      "stateMutability": "nonpayable",
      "type": "function"
    },
    {
      "constant": false,
      "inputs": [
        {
          "name": "_amount",
          "type": "uint256"
        }
      ],
      "name": "unbondStake",
      "outputs": [],
      "payable": false,
      "stateMutability": "nonpayable",
      "type": "function"
    },
    {
      "constant": false,
      "inputs": [
        {
          "name": "_amount",
          "type": "uint256"
        }
      ],
      "name": "withdrawJuriFoundationStake",
      "outputs": [],
      "payable": false,
      "stateMutability": "nonpayable",
      "type": "function"
    },
    {
      "constant": false,
      "inputs": [
        {
          "name": "_newRoundIndex",
          "type": "uint256"
        }
      ],
      "name": "moveToNextRound",
      "outputs": [],
      "payable": false,
      "stateMutability": "nonpayable",
      "type": "function"
    },
    {
      "constant": true,
      "inputs": [
        {
          "name": "_node",
          "type": "address"
        }
      ],
      "name": "getBondedStakeOfNode",
      "outputs": [
        {
          "name": "",
          "type": "uint256"
        }
      ],
      "payable": false,
      "stateMutability": "view",
      "type": "function"
    },
    {
      "constant": true,
      "inputs": [],
      "name": "getAllStakingNodes",
      "outputs": [
        {
          "name": "",
          "type": "address[]"
        }
      ],
      "payable": false,
      "stateMutability": "view",
      "type": "function"
    }
  ],
  "bytecode": "0x608060405234801561001057600080fd5b506040516130bd3803806130bd833981810160405261010081101561003457600080fd5b50805160208201516040808401516060850151608086015160a087015160c088015160e090980151600080546001600160a01b031916331780825596519899979895979496939592949391926001600160a01b0392909216917f8be0079c531659141344cd1fd0a4f28419497f9722a3daafe3b4186f6b6457e0908290a3600180546001600160a01b03199081166001600160a01b039a8b1617909155600280548216988a1698909817909755600480549097169590971694909417909455600d91909155600e55600f9190915560105560115560006005819055612f9e90819061011f90396000f3fe608060405234801561001057600080fd5b50600436106101cf5760003560e01c80638e4179db11610104578063d57632ea116100a2578063ec55688911610071578063ec55688914610525578063f2fde38b1461052d578063f5dede2114610553578063fc0c546a1461055b576101cf565b8063d57632ea146104db578063d815b4c6146104f8578063dd95dd4b14610500578063e5f95a991461051d576101cf565b8063a43fa4ab116100de578063a43fa4ab1461046b578063b641dd5a14610488578063c35da4be146104a5578063d42e9cee146104d3576101cf565b80638e4179db146104205780638f32d59b14610446578063a2aadc031461044e576101cf565b806344d96e9511610171578063715018a61161014b578063715018a61461039857806379015f43146103a057806386ab6a54146103ce5780638da5cb5b146103fc576101cf565b806344d96e951461035a57806350d4074b1461036257806364630e5f1461036a576101cf565b80632e954897116101ad5780632e954897146102725780633be53609146102b15780633ff36802146102e357806344c170701461033b576101cf565b80630831756a146101d4578063097a389e146102185780630d0ce70014610258575b600080fd5b6101fa600480360360208110156101ea57600080fd5b50356001600160a01b0316610563565b60408051938452602084019290925282820152519081900360600190f35b6102446004803603604081101561022e57600080fd5b50803590602001356001600160a01b0316610584565b604080519115158252519081900360200190f35b6102606105a4565b60408051918252519081900360200190f35b6102986004803603602081101561028857600080fd5b50356001600160a01b03166105aa565b6040805192835260208301919091528051918290030190f35b610244600480360360608110156102c757600080fd5b508035906001600160a01b0360208201351690604001356105c3565b6102eb6105e9565b60408051602080825283518183015283519192839290830191858101910280838360005b8381101561032757818101518382015260200161030f565b505050509050019250505060405180910390f35b6103586004803603602081101561035157600080fd5b5035610739565b005b610260610832565b610260610838565b6103586004803603604081101561038057600080fd5b506001600160a01b038135811691602001351661083e565b610358610bb5565b610358600480360360408110156103b657600080fd5b506001600160a01b0381358116916020013516610c42565b610358600480360360408110156103e457600080fd5b506001600160a01b0381358116916020013516610f69565b6104046112ca565b604080516001600160a01b039092168252519081900360200190f35b6102606004803603602081101561043657600080fd5b50356001600160a01b03166112d9565b6102446113bc565b6103586004803603602081101561046457600080fd5b50356113cd565b6102606004803603602081101561048157600080fd5b5035611825565b6103586004803603602081101561049e57600080fd5b5035611837565b610358600480360360408110156104bb57600080fd5b506001600160a01b0381358116916020013516611960565b610260611d59565b610260600480360360208110156104f157600080fd5b5035611d5f565b610358611d71565b6103586004803603602081101561051657600080fd5b5035611f54565b6102606123c5565b6104046123cb565b6103586004803603602081101561054357600080fd5b50356001600160a01b03166123da565b610260612429565b61040461242f565b60096020526000908152604090208054600182015460029092015490919083565b600b60209081526000928352604080842090915290825290205460ff1681565b600f5481565b6006602052600090815260409020805460019091015482565b600a60209081526000938452604080852082529284528284209052825290205460ff1681565b606060006105f7600361243e565b9050606081604051908082528060200260200182016040528015610625578160200160208202803883390190505b50600160009081527f3617319a054d772f909f7c479a2cebe5066e836a939412e32403c99029b92eff6020527ff5d2b9d7b7dcf31fafb527f48cb641b3e286ba85117ea973378ae75f2b0f27c95482519293506001600160a01b03169183919061068b57fe5b6001600160a01b039092166020928302919091019091015260015b828110156107325760036000836106c484600163ffffffff61247d16565b815181106106ce57fe5b6020908102919091018101516001600160a01b0390811683528282019390935260409182016000908120600182529091522054835191169083908390811061071257fe5b6001600160a01b03909216602092830291909101909101526001016106a6565b5091505090565b6107416113bc565b61077c5760405162461bcd60e51b8152600401808060200182810382526021815260200180612d7a6021913960400191505060405180910390fd5b6000818152600860205260409020546107b857600860006107a483600163ffffffff61247d16565b8152602001908152602001600020546107c8565b6000818152600860205260409020545b60008281526008602090815260408083209390935560079052205461081057600760006107fc83600163ffffffff61247d16565b815260200190815260200160002054610820565b6000818152600760205260409020545b60009182526007602052604090912055565b600c5481565b600e5481565b600154604080516316fd755360e21b815290516006926001600160a01b031691635bf5d54c916004808301926020929190829003018186803b15801561088357600080fd5b505afa158015610897573d6000803e3d6000fd5b505050506040513d60208110156108ad57600080fd5b505160068111156108ba57fe5b146108fa576040805162461bcd60e51b81526020600482018190526024820152600080516020612f15833981519152604482015290519081900360640190fd5b600154604080516332401b5760e11b815290516000926001600160a01b03169163648036ae916004808301926020929190829003018186803b15801561093f57600080fd5b505afa158015610953573d6000803e3d6000fd5b505050506040513d602081101561096957600080fd5b50516000818152600a602090815260408083206001600160a01b0387168452825280832083805290915290205490915060ff16156109d85760405162461bcd60e51b8152600401808060200182810382526034815260200180612ee16034913960400191505060405180910390fd5b6000818152600a602090815260408083206001600160a01b038087168086529184528285208580528452828520805460ff1916600190811790915554835163033c01ad60e31b815260048101889052602481019390935292519216926319e00d6892604480840193829003018186803b158015610a5457600080fd5b505afa158015610a68573d6000803e3d6000fd5b505050506040513d6020811015610a7e57600080fd5b5051600154604080516396623d1960e01b8152600481018690526001600160a01b0388811660248301528781166044830152915193945060009391909216916396623d19916064808301926020929190829003018186803b158015610ae257600080fd5b505afa158015610af6573d6000803e3d6000fd5b505050506040513d6020811015610b0c57600080fd5b5051905081610b4c5760405162461bcd60e51b8152600401808060200182810382526022815260200180612c156022913960400191505060405180910390fd5b8015610b9f576040805162461bcd60e51b815260206004820181905260248201527f54686520706173736564206e6f646520776173206e6f74206f66666c696e6521604482015290519081900360640190fd5b610bad838633600e546124d4565b505050505050565b610bbd6113bc565b610bf85760405162461bcd60e51b8152600401808060200182810382526021815260200180612d7a6021913960400191505060405180910390fd5b600080546040516001600160a01b03909116907f8be0079c531659141344cd1fd0a4f28419497f9722a3daafe3b4186f6b6457e0908390a3600080546001600160a01b0319169055565b600154604080516316fd755360e21b815290516006926001600160a01b031691635bf5d54c916004808301926020929190829003018186803b158015610c8757600080fd5b505afa158015610c9b573d6000803e3d6000fd5b505050506040513d6020811015610cb157600080fd5b50516006811115610cbe57fe5b14610cfe576040805162461bcd60e51b81526020600482018190526024820152600080516020612f15833981519152604482015290519081900360640190fd5b600154604080516332401b5760e11b815290516000926001600160a01b03169163648036ae916004808301926020929190829003018186803b158015610d4357600080fd5b505afa158015610d57573d6000803e3d6000fd5b505050506040513d6020811015610d6d57600080fd5b50516000818152600a602090815260408083206001600160a01b038716845282528083206002845290915290205490915060ff1615610ddd5760405162461bcd60e51b815260040180806020018281038252603a815260200180612c74603a913960400191505060405180910390fd5b6000818152600a602090815260408083206001600160a01b03808716808652918452828520600286528452828520805460ff1916600190811790915554835163eff4b6d960e01b81526004810188905289831660248201526044810193909352925192169263eff4b6d992606480840193829003018186803b158015610e6257600080fd5b505afa158015610e76573d6000803e3d6000fd5b505050506040513d6020811015610e8c57600080fd5b5051600154604080516339d519c560e21b8152600481018690526001600160a01b03878116602483015291519394506000938493929092169163e754671491604480820192602092909190829003018186803b158015610eeb57600080fd5b505afa158015610eff573d6000803e3d6000fd5b505050506040513d6020811015610f1557600080fd5b5051139050811515811415610f5b5760405162461bcd60e51b8152600401808060200182810382526031815260200180612d496031913960400191505060405180910390fd5b610bad8386336010546124d4565b600154604080516316fd755360e21b815290516006926001600160a01b031691635bf5d54c916004808301926020929190829003018186803b158015610fae57600080fd5b505afa158015610fc2573d6000803e3d6000fd5b505050506040513d6020811015610fd857600080fd5b50516006811115610fe557fe5b14611025576040805162461bcd60e51b81526020600482018190526024820152600080516020612f15833981519152604482015290519081900360640190fd5b600154604080516332401b5760e11b815290516000926001600160a01b03169163648036ae916004808301926020929190829003018186803b15801561106a57600080fd5b505afa15801561107e573d6000803e3d6000fd5b505050506040513d602081101561109457600080fd5b50516000818152600a602090815260408083206001600160a01b038716845282528083206001845290915290205490915060ff16156111045760405162461bcd60e51b8152600401808060200182810382526034815260200180612e826034913960400191505060405180910390fd5b6000818152600a602090815260408083206001600160a01b038087168086529184528285206001808752908552838620805460ff191682179055548351633f8ed75160e11b815260048101889052898316602482015260448101939093529251921692637f1daea292606480840193829003018186803b15801561118757600080fd5b505afa15801561119b573d6000803e3d6000fd5b505050506040513d60208110156111b157600080fd5b50519050806111f15760405162461bcd60e51b8152600401808060200182810382526030815260200180612dc46030913960400191505060405180910390fd5b60015460408051636ff002ff60e11b8152600481018590526001600160a01b03878116602483015286811660448301529151919092169163dfe005fe916064808301926020929190829003018186803b15801561124d57600080fd5b505afa158015611261573d6000803e3d6000fd5b505050506040513d602081101561127757600080fd5b5051156112b55760405162461bcd60e51b815260040180806020018281038252602c815260200180612e56602c913960400191505060405180910390fd5b6112c3828533600f546124d4565b5050505050565b6000546001600160a01b031690565b600080600160009054906101000a90046001600160a01b03166001600160a01b031663648036ae6040518163ffffffff1660e01b815260040160206040518083038186803b15801561132a57600080fd5b505afa15801561133e573d6000803e3d6000fd5b505050506040513d602081101561135457600080fd5b50519050611360612bb3565b506001600160a01b03831660009081526009602090815260409182902082516060810184528154815260018201549281019290925260020154918101829052908210156113ae5780516113b4565b80602001515b949350505050565b6000546001600160a01b0316331490565b600154604080516332401b5760e11b815290516000926001600160a01b03169163648036ae916004808301926020929190829003018186803b15801561141257600080fd5b505afa158015611426573d6000803e3d6000fd5b505050506040513d602081101561143c57600080fd5b5051600154604080516332401b5760e11b815290519293506000926001600160a01b039092169163648036ae91600480820192602092909190829003018186803b15801561148957600080fd5b505afa15801561149d573d6000803e3d6000fd5b505050506040513d60208110156114b357600080fd5b50516000838152600b602090815260408083203384529091529020546001909101915060ff16156115155760405162461bcd60e51b815260040180806020018281038252602b815260200180612eb6602b913960400191505060405180910390fd5b6000828152600b602090815260408083203384529091529020805460ff19166001179055611541612bb3565b5033600090815260096020908152604080832081516060810183528154815260018201549381019390935260020154908201819052909190841061158a5750602081015161158e565b5080515b600085116115e3576040805162461bcd60e51b815260206004820152601e60248201527f506c65617365207061737320616e20616d6f756e742061626f76652030210000604482015290519081900360640190fd5b848110156116225760405162461bcd60e51b8152600401808060200182810382526026815260200180612bef6026913960400191505060405180910390fd5b6000611634828763ffffffff61247d16565b9050600061164d600d548461277090919063ffffffff16565b9050600d548210158061165e575081155b6116995760405162461bcd60e51b815260040180806020018281038252603d815260200180612c37603d913960400191505060405180910390fd5b60408051808201825288815260208082018881523360008181526006845285812094518555915160019485015584516060810186528881528084018881528187018c81529284526009909452949091209351845590519183019190915551600290910155600c54611710908863ffffffff61247d16565b600c55600d5460009061172a90849063ffffffff61277016565b9050600061173e838363ffffffff61247d16565b6000888152600860205260408120549192509061176957600089815260086020526040902054611779565b6000888152600860205260409020545b905061178b818363ffffffff61247d16565b60008981526008602052604090205584611819576117b060033363ffffffff6127da16565b506000888152600760205260409020546117e9576000898152600760205260409020546117e490600163ffffffff61247d16565b611809565b60008881526007602052604090205461180990600163ffffffff61247d16565b6000898152600760205260409020555b50505050505050505050565b60086020526000908152604090205481565b6004546001600160a01b031633146118805760405162461bcd60e51b815260040180806020018281038252602d815260200180612e29602d913960400191505060405180910390fd5b6005548111156118c15760405162461bcd60e51b8152600401808060200182810382526035815260200180612f356035913960400191505060405180910390fd5b6005546118d4908263ffffffff61247d16565b600555600254600480546040805163a9059cbb60e01b81526001600160a01b0392831693810193909352602483018590525192169163a9059cbb916044808201926020929091908290030181600087803b15801561193157600080fd5b505af1158015611945573d6000803e3d6000fd5b505050506040513d602081101561195b57600080fd5b505050565b600154604080516316fd755360e21b815290516006926001600160a01b031691635bf5d54c916004808301926020929190829003018186803b1580156119a557600080fd5b505afa1580156119b9573d6000803e3d6000fd5b505050506040513d60208110156119cf57600080fd5b505160068111156119dc57fe5b14611a1c576040805162461bcd60e51b81526020600482018190526024820152600080516020612f15833981519152604482015290519081900360640190fd5b600154604080516332401b5760e11b815290516000926001600160a01b03169163648036ae916004808301926020929190829003018186803b158015611a6157600080fd5b505afa158015611a75573d6000803e3d6000fd5b505050506040513d6020811015611a8b57600080fd5b50516000818152600a602090815260408083206001600160a01b038716845282528083206003845290915290205490915060ff1615611afb5760405162461bcd60e51b815260040180806020018281038252603b815260200180612d0e603b913960400191505060405180910390fd5b6000818152600a602090815260408083206001600160a01b03808716808652918452828520600386528452828520805460ff1916600190811790915554835163328d704d60e21b81526004810188905289831660248201526044810193909352925192169263ca35c13492606480840193829003018186803b158015611b8057600080fd5b505afa158015611b94573d6000803e3d6000fd5b505050506040513d6020811015611baa57600080fd5b505160015460408051637913460360e11b8152600481018690526001600160a01b03878116602483015291519394506000938493929092169163f2268c0691604480820192602092909190829003018186803b158015611c0957600080fd5b505afa158015611c1d573d6000803e3d6000fd5b505050506040513d6020811015611c3357600080fd5b5051600154604080516339d519c560e21b8152600481018890526001600160a01b03898116602483015291519490931394506000938493919092169163e754671491604480820192602092909190829003018186803b158015611c9557600080fd5b505afa158015611ca9573d6000803e3d6000fd5b505050506040513d6020811015611cbf57600080fd5b505113905082611d005760405162461bcd60e51b8152600401808060200182810382526033815260200180612cae6033913960400191505060405180910390fd5b80151582151514611d425760405162461bcd60e51b8152600401808060200182810382526029815260200180612d9b6029913960400191505060405180910390fd5b611d508487336011546124d4565b50505050505050565b60105481565b60076020526000908152604090205481565b600154604080516332401b5760e11b815290516000926001600160a01b03169163648036ae916004808301926020929190829003018186803b158015611db657600080fd5b505afa158015611dca573d6000803e3d6000fd5b505050506040513d6020811015611de057600080fd5b50519050611dec612bd4565b503360009081526006602090815260409182902082518084019093528054835260010154908201819052821015611e6a576040805162461bcd60e51b815260206004820152601c60248201527f4e6f742079657420616c6c6f77656420746f2077697468647261772100000000604482015290519081900360640190fd5b6040805180820182526000808252602080830182815233808452600683528584209451855590516001909401939093556002548551855163a9059cbb60e01b81526004810195909552602485015293516001600160a01b039094169363a9059cbb93604480820194918390030190829087803b158015611ee957600080fd5b505af1158015611efd573d6000803e3d6000fd5b505050506040513d6020811015611f1357600080fd5b5051611f505760405162461bcd60e51b8152600401808060200182810382526035815260200180612df46035913960400191505060405180910390fd5b5050565b600154604080516332401b5760e11b815290516000926001600160a01b03169163648036ae916004808301926020929190829003018186803b158015611f9957600080fd5b505afa158015611fad573d6000803e3d6000fd5b505050506040513d6020811015611fc357600080fd5b5051600154604080516332401b5760e11b815290519293506000926001600160a01b039092169163648036ae91600480820192602092909190829003018186803b15801561201057600080fd5b505afa158015612024573d6000803e3d6000fd5b505050506040513d602081101561203a57600080fd5b5051600254604080516323b872dd60e01b8152336004820152306024820152604481018790529051600190930193506001600160a01b03909116916323b872dd916064808201926020929091908290030181600087803b15801561209d57600080fd5b505af11580156120b1573d6000803e3d6000fd5b505050506040513d60208110156120c757600080fd5b505161211a576040805162461bcd60e51b815260206004820152601e60248201527f4e6f7420656e6f75676820746f6b656e7320666f7220626f6e64696e67210000604482015290519081900360640190fd5b6000828152600b6020908152604080832033845290915290205460ff16156121735760405162461bcd60e51b815260040180806020018281038252602b815260200180612eb6602b913960400191505060405180910390fd5b6000828152600b602090815260408083203384529091529020805460ff1916600117905561219f612bb3565b503360009081526009602090815260408083208151606081018352815481526001820154938101939093526002015490820181905290919084106121e8575060208101516121ec565b5080515b8061226e5761220560036000338163ffffffff61288b16565b5060008381526007602052604090205461223e5760008481526007602052604090205461223990600163ffffffff61290116565b61225e565b60008381526007602052604090205461225e90600163ffffffff61290116565b6000848152600760205260409020555b6000612280828763ffffffff61290116565b90506000612299600d548461277090919063ffffffff16565b6040805160608101825285815260208082018681528284018a8152336000908152600990935293909120915182555160018201559051600290910155600c549091506122eb908863ffffffff61290116565b600c55600d5482101561232f5760405162461bcd60e51b815260040180806020018281038252602d815260200180612ce1602d913960400191505060405180910390fd5b6000612346600d548461277090919063ffffffff16565b9050600061235a828463ffffffff61247d16565b6000888152600860205260408120549192509061238557600089815260086020526040902054612395565b6000888152600860205260409020545b90506123a7818363ffffffff61290116565b60009889526008602052604090982097909755505050505050505050565b600d5481565b6001546001600160a01b031681565b6123e26113bc565b61241d5760405162461bcd60e51b8152600401808060200182810382526021815260200180612d7a6021913960400191505060405180910390fd5b61242681612956565b50565b60115481565b6002546001600160a01b031681565b600080808061244f85826001612a05565b90935091505b6001600160a01b038216156113b45761247085836001612a05565b9093509150600101612455565b6000828211156124c9576040805162461bcd60e51b81526020600482015260126024820152715361666553756220756e646572666c6f772160701b604482015290519081900360640190fd5b508082035b92915050565b6000600185016124e2612bb3565b506001600160a01b038516600090815260096020908152604091829020825160608101845281548152600182015492810192909252600201549181019190915261252a612bb3565b506001600160a01b0385166000908152600960209081526040808320815160608101835281548152600182015493810193909352600201548282015283015190919089101561257a578251612580565b82602001515b90506000898360400151111561259757825161259d565b82602001515b905060006125c260646125b6858b63ffffffff612a5516565b9063ffffffff61277016565b905060006125d782600263ffffffff61277016565b905060006125f283886020015161247d90919063ffffffff16565b9050600061260d83886020015161290190919063ffffffff16565b905060405180606001604052808781526020018381526020018a815250600960008f6001600160a01b03166001600160a01b0316815260200190815260200160002060008201518160000155602082015181600101556040820151816002015590505060405180606001604052808681526020018281526020018a815250600960008e6001600160a01b03166001600160a01b031681526020019081526020016000206000820151816000015560208201518160010155604082015181600201559050506126e68360055461290190919063ffffffff16565b6005819055507fb0f9aff79729f95cfd3c5a53434ea39810e21e8ad1cc3d50a22bd4a6aecb876e8e8e8e8e60405180858152602001846001600160a01b03166001600160a01b03168152602001836001600160a01b03166001600160a01b0316815260200182815260200194505050505060405180910390a1505050505050505050949350505050565b60008082116127c6576040805162461bcd60e51b815260206004820152601b60248201527f536166654469762063616e6e6f74206469766964652062792030210000000000604482015290519081900360640190fd5b60008284816127d157fe5b04949350505050565b60006001600160a01b03821615806127f957506127f78383612ab8565b155b15612806575060006124ce565b6001600160a01b038281166000908152602085815260408083208380529091528082205460018084529190922054612845938793811692911690612b56565b506001600160a01b03811660009081526020928352604080822082805290935282812080546001600160a01b031990811690915560018252929020805490921690915590565b60006128978584612ab8565b1580156128a957506128a98585612ab8565b156128f6576001600160a01b038085166000908152602087815260408083208615158452909152902054166128e086868686612b56565b6128ec86858386612b56565b60019150506113b4565b506000949350505050565b60008282018381101561294f576040805162461bcd60e51b815260206004820152601160248201527053616665416464206f766572666c6f772160781b604482015290519081900360640190fd5b9392505050565b6001600160a01b0381166129aa576040805162461bcd60e51b81526020600482015260166024820152754e6577206f776e65722063616e6e6f7420626520302160501b604482015290519081900360640190fd5b600080546040516001600160a01b03808516939216917f8be0079c531659141344cd1fd0a4f28419497f9722a3daafe3b4186f6b6457e091a3600080546001600160a01b0319166001600160a01b0392909216919091179055565b600080612a128585612ab8565b612a2157506000905080612a4d565b50506001600160a01b038083166000908152602085815260408083208515158452909152902054600191165b935093915050565b600082612a64575060006124ce565b82820282848281612a7157fe5b041461294f576040805162461bcd60e51b8152602060048201526011602482015270536166654d756c206f766572666c6f772160781b604482015290519081900360640190fd5b6001600160a01b03818116600090815260208481526040808320838052909152812054909116158015612b0d57506001600160a01b038281166000908152602085815260408083206001845290915290205416155b15612b4e57600080805260208481526040808320600184529091529020546001600160a01b0383811691161415612b46575060016124ce565b5060006124ce565b5060016124ce565b6001600160a01b0391821660008181526020868152604080832094158084529482528083208054969097166001600160a01b0319968716811790975595825295865284812092158152919094529190912080549091169091179055565b60405180606001604052806000815260200160008152602001600081525090565b60405180604001604052806000815260200160008152509056fe596f7520646f6e2774206861766520656e6f756768207374616b6520746f20756e626f6e642154686520706173736564207573657220776173206e6f742064697373656e74656421596f75206d6179206f6e6c7920756e626f6e6420757020746f20746865206d696e696d756d20616c6c6f77616e6365206f7220616c6c207374616b6521546865206e6f64652068617320616c7265616479206265656e20736c617368656420666f7220616e20696e636f727265637420726573756c742154686520706173736564206e6f646520646964206e6f742064697373656e7420746f2074686520706173736564207573657221596f75206d75737420626f6e64206174206c6561737420746865206d696e696d756d20616c6c6f77616e636521546865206e6f64652068617320616c7265616479206265656e20736c617368656420666f7220616e20696e636f72726563742064697373656e742154686520706173736564206e6f646520646964206e6f74206769766520616e20696e636f727265637420726573756c74214f6e6c79206f776e65722063616e2075736520746869732066756e6374696f6e215468652064697373656e742066726f6d20706173736564206e6f64652077617320636f72726563742154686520706173736564206e6f646520776173206e6f742061737369676e656420746f207061737365642075736572214e6f7420656e6f75676820746f6b656e7320696e20626f6e64696e6720636f6e747261637420666f72207769746864726177616c214f6e6c79206a757269466f756e646174696f6e206d61792077697468647261772074686569722066756e64732154686520706173736564206e6f6465206861732072657665616c65642068697320636f6d6d69746d656e7421546865206e6f64652068617320616c7265616479206265656e20736c617368656420666f72206e6f742072657665616c696e6721596f75206d6179206f6e6c7920626f6e64206f7220756e626f6e64206f6e63652070657220726f756e6421546865206e6f64652068617320616c7265616479206265656e20736c617368656420666f72206265696e67206f66666c696e652150726f7879206d75737420626520696e20736c617368696e67207374616765214e6f7420656e6f7567682066756e647320746f2077697468647261772066726f6d206a7572466f756e646174696f6e46756e647321a265627a7a7230582011eb554ec9ea6de97a9c2ada71858e4fd4e77c2a09527186221354bb285f903564736f6c634300050a0032",
  "source": "pragma solidity 0.5.10;\r\n\r\nimport \"./JuriNetworkProxy.sol\";\r\nimport \"./lib/LinkedListLib.sol\";\r\n\r\nimport \"../lib/IERC20.sol\";\r\nimport \"../lib/Ownable.sol\";\r\nimport \"../lib/SafeMath.sol\";\r\n\r\ncontract JuriBonding is Ownable {\r\n    using LinkedListLib for LinkedListLib.LinkedList;\r\n    using SafeMath for uint256;\r\n\r\n    address constant HEAD = address(0);\r\n    bool constant PREV = false;\r\n    bool constant NEXT = true;\r\n    uint256 constant OFFLINE_SLASH = 0;\r\n    uint256 constant NOT_REVEAL_SLASH = 1;\r\n    uint256 constant INCORRECT_RESULT_SLASH = 2;\r\n    uint256 constant INCORRECT_DISSENT_SLASH = 3;\r\n\r\n    struct ValidStakeAfter {\r\n        uint256 oldStake;\r\n        uint256 newStake;\r\n        uint256 afterRoundId;\r\n    }\r\n\r\n    struct AllowedWithdrawalAfter {\r\n        uint256 amount;\r\n        uint256 minRoundIndex;\r\n    }\r\n\r\n    event SlashedStake(\r\n        uint256 roundIndex,\r\n        address from,\r\n        address to,\r\n        uint256 penalty\r\n    );\r\n\r\n    JuriNetworkProxy public proxy;\r\n    IERC20 public token;\r\n    LinkedListLib.LinkedList stakingNodes;\r\n\r\n    address juriFoundation;\r\n    uint256 juriFoundationFunds;\r\n\r\n    mapping (address => AllowedWithdrawalAfter) public allowedWithdrawalAmounts;\r\n    mapping (uint256 => uint256) public stakingNodesAddressCount;\r\n    mapping (uint256 => uint256) public totalNodesCount;\r\n    mapping (address => ValidStakeAfter) public bondedStakes;\r\n    mapping (uint256 => mapping (address => mapping (uint256 => bool))) public hasBeenSlashed;\r\n    mapping (uint256 => mapping (address => bool)) public changedStakeInRound;\r\n    \r\n    uint256 public totalBonded;\r\n    uint256 public minStakePerNode;\r\n    uint256 public offlinePenalty;\r\n    uint256 public notRevealPenalty;\r\n    uint256 public incorrectResultPenalty;\r\n    uint256 public incorrectDissentPenalty;\r\n\r\n    constructor(\r\n        JuriNetworkProxy _proxy,\r\n        IERC20 _token,\r\n        address _juriFoundation,\r\n        uint256 _minStakePerNode,\r\n        uint256 _offlinePenalty,\r\n        uint256 _notRevealPenalty,\r\n        uint256 _incorrectResultPenalty,\r\n        uint256 _incorrectDissentPenalty\r\n    ) public {\r\n        proxy = _proxy;\r\n        token = _token;\r\n        juriFoundation = _juriFoundation;\r\n        minStakePerNode = _minStakePerNode;\r\n        offlinePenalty = _offlinePenalty;\r\n        notRevealPenalty = _notRevealPenalty;\r\n        incorrectResultPenalty = _incorrectResultPenalty;\r\n        incorrectDissentPenalty = _incorrectDissentPenalty;\r\n\r\n        juriFoundationFunds = 0;\r\n    }\r\n\r\n    function slashStakeForBeingOffline(address _toSlashNode, address _dissentedUser) public {\r\n        require(\r\n            proxy.currentStage() == JuriNetworkProxy.Stages.SLASHING_PERIOD,\r\n            'Proxy must be in slashing stage!'\r\n        );\r\n        uint256 roundIndex = proxy.roundIndex();\r\n\r\n        require(\r\n            !hasBeenSlashed[roundIndex][_dissentedUser][OFFLINE_SLASH],\r\n            \"The node has already been slashed for being offline!\"\r\n        );\r\n        hasBeenSlashed[roundIndex][_dissentedUser][OFFLINE_SLASH] = true;\r\n\r\n        bool userWasDissented = proxy.getDissented(roundIndex, _dissentedUser);\r\n        bytes32 commitment = proxy.getUserComplianceDataCommitment(roundIndex, _toSlashNode, _dissentedUser);\r\n\r\n        require(userWasDissented, \"The passed user was not dissented!\");\r\n        require(\r\n            commitment == 0x0,\r\n            \"The passed node was not offline!\"\r\n        );\r\n\r\n        _slashStake(roundIndex, _toSlashNode, msg.sender, offlinePenalty);\r\n    }\r\n\r\n    function slashStakeForNotRevealing(address _toSlashNode, address _notRevealedUser) public {\r\n        require(\r\n            proxy.currentStage() == JuriNetworkProxy.Stages.SLASHING_PERIOD,\r\n            'Proxy must be in slashing stage!'\r\n        );\r\n        uint256 roundIndex = proxy.roundIndex();\r\n\r\n        require(\r\n            !hasBeenSlashed[roundIndex][_notRevealedUser][NOT_REVEAL_SLASH],\r\n            \"The node has already been slashed for not revealing!\"\r\n        );\r\n        hasBeenSlashed[roundIndex][_notRevealedUser][NOT_REVEAL_SLASH] = true;\r\n\r\n        bool wasAssignedToUser = proxy.getWasAssignedToUser(\r\n            roundIndex,\r\n            _toSlashNode,\r\n            _notRevealedUser\r\n        );\r\n        \r\n        require(\r\n            wasAssignedToUser,\r\n            \"The passed node was not assigned to passed user!\"\r\n        );\r\n        require(\r\n            !proxy.getHasRevealed(roundIndex, _toSlashNode, _notRevealedUser),\r\n            \"The passed node has revealed his commitment!\"\r\n        );\r\n        \r\n        _slashStake(roundIndex, _toSlashNode, msg.sender, notRevealPenalty);\r\n    }\r\n\r\n    function slashStakeForIncorrectResult(address _toSlashNode, address _incorrectResultUser) public {\r\n        require(\r\n            proxy.currentStage() == JuriNetworkProxy.Stages.SLASHING_PERIOD,\r\n            'Proxy must be in slashing stage!'\r\n        );\r\n        uint256 roundIndex = proxy.roundIndex();\r\n\r\n        require(\r\n            !hasBeenSlashed[roundIndex][_incorrectResultUser][INCORRECT_RESULT_SLASH],\r\n            \"The node has already been slashed for an incorrect result!\"\r\n        );\r\n        hasBeenSlashed[roundIndex][_incorrectResultUser][INCORRECT_RESULT_SLASH] = true;\r\n\r\n        bool givenAnswer = proxy.getGivenNodeResult(roundIndex, _toSlashNode, _incorrectResultUser);\r\n        bool acceptedAnswer = proxy.getUserComplianceData(roundIndex, _incorrectResultUser) > 0;\r\n\r\n        require(\r\n            givenAnswer != acceptedAnswer,\r\n            \"The passed node did not give an incorrect result!\"\r\n        );\r\n\r\n        _slashStake(roundIndex, _toSlashNode, msg.sender, incorrectResultPenalty);\r\n    }\r\n\r\n    function slashStakeForIncorrectDissenting(address _toSlashNode, address _incorrectDissentUser) public {\r\n        require(\r\n            proxy.currentStage() == JuriNetworkProxy.Stages.SLASHING_PERIOD,\r\n            'Proxy must be in slashing stage!'\r\n        );\r\n        uint256 roundIndex = proxy.roundIndex();\r\n\r\n        require(\r\n            !hasBeenSlashed[roundIndex][_incorrectDissentUser][INCORRECT_DISSENT_SLASH],\r\n            \"The node has already been slashed for an incorrect dissent!\"\r\n        );\r\n        hasBeenSlashed[roundIndex][_incorrectDissentUser][INCORRECT_DISSENT_SLASH] = true;\r\n\r\n        bool hasDissented = proxy.getHasDissented(roundIndex, _toSlashNode, _incorrectDissentUser);\r\n        bool previousAnswer = proxy.getComplianceDataBeforeDissent(roundIndex, _incorrectDissentUser) > 0;\r\n        bool acceptedAnswer = proxy.getUserComplianceData(roundIndex, _incorrectDissentUser) > 0;\r\n\r\n        require(\r\n            hasDissented,\r\n            \"The passed node did not dissent to the passed user!\"\r\n        );\r\n\r\n        require(\r\n            previousAnswer == acceptedAnswer,\r\n            \"The dissent from passed node was correct!\"\r\n        );\r\n\r\n        _slashStake(roundIndex, _toSlashNode, msg.sender, incorrectDissentPenalty);\r\n    }\r\n\r\n    function withdrawAllowedStakes() public {\r\n        uint256 roundIndex = proxy.roundIndex();\r\n        AllowedWithdrawalAfter memory allowed = allowedWithdrawalAmounts[msg.sender];\r\n\r\n        require(\r\n            roundIndex >= allowed.minRoundIndex,\r\n            \"Not yet allowed to withdraw!\"\r\n        );\r\n\r\n        allowedWithdrawalAmounts[msg.sender] = AllowedWithdrawalAfter(0, 0);\r\n        require(\r\n            token.transfer(msg.sender, allowed.amount),\r\n            \"Not enough tokens in bonding contract for withdrawal!\"\r\n        );\r\n    }\r\n\r\n    function bondStake(uint256 _amount) public {\r\n        uint256 roundIndex = proxy.roundIndex();\r\n        uint256 nextRoundIndex = proxy.roundIndex() + 1;\r\n\r\n        require(\r\n            token.transferFrom(msg.sender, address(this), _amount),\r\n            \"Not enough tokens for bonding!\"\r\n        );\r\n        require(\r\n            !changedStakeInRound[roundIndex][msg.sender],\r\n            \"You may only bond or unbond once per round!\"\r\n        );\r\n\r\n        changedStakeInRound[roundIndex][msg.sender] = true;\r\n\r\n        ValidStakeAfter memory currentStakeAfter = bondedStakes[msg.sender];\r\n        uint256 oldNodeStake;\r\n\r\n        if (currentStakeAfter.afterRoundId <= roundIndex) {\r\n            oldNodeStake = currentStakeAfter.newStake;\r\n        } else {\r\n            oldNodeStake = currentStakeAfter.oldStake;\r\n        }\r\n\r\n        if (oldNodeStake == 0) {\r\n            stakingNodes.insert(HEAD, msg.sender, PREV);\r\n            stakingNodesAddressCount[nextRoundIndex]\r\n                = stakingNodesAddressCount[nextRoundIndex] > 0\r\n                    ? stakingNodesAddressCount[nextRoundIndex].add(1)\r\n                    : stakingNodesAddressCount[roundIndex].add(1);\r\n        }\r\n\r\n        uint256 newNodeStake = oldNodeStake.add(_amount);\r\n        uint256 oldNodeQualityCount = oldNodeStake.div(minStakePerNode);\r\n\r\n        bondedStakes[msg.sender]\r\n            = ValidStakeAfter(oldNodeStake, newNodeStake, nextRoundIndex);\r\n        totalBonded = totalBonded.add(_amount);\r\n\r\n        require(\r\n            newNodeStake >= minStakePerNode,\r\n            \"You must bond at least the minimum allowance!\"\r\n        );\r\n\r\n        uint256 newNodeQualityCount = newNodeStake.div(minStakePerNode);\r\n        uint256 addedNodeQuality = newNodeQualityCount.sub(oldNodeQualityCount);\r\n\r\n        uint256 oldNextTotalNodesCount = totalNodesCount[nextRoundIndex] > 0\r\n            ? totalNodesCount[nextRoundIndex]\r\n            : totalNodesCount[roundIndex];\r\n        totalNodesCount[nextRoundIndex] = oldNextTotalNodesCount.add(addedNodeQuality);\r\n    }\r\n\r\n    function unbondStake(uint256 _amount) public {\r\n        uint256 roundIndex = proxy.roundIndex();\r\n        uint256 nextRoundIndex = proxy.roundIndex() + 1;\r\n\r\n        require(\r\n            !changedStakeInRound[roundIndex][msg.sender],\r\n            \"You may only bond or unbond once per round!\"\r\n        );\r\n        changedStakeInRound[roundIndex][msg.sender] = true;\r\n\r\n        ValidStakeAfter memory currentStakeAfter = bondedStakes[msg.sender];\r\n        uint256 oldNodeStake;\r\n\r\n        if (currentStakeAfter.afterRoundId <= roundIndex) {\r\n            oldNodeStake = currentStakeAfter.newStake;\r\n        } else {\r\n            oldNodeStake = currentStakeAfter.oldStake;\r\n        }\r\n\r\n        require(\r\n            _amount > 0,\r\n            \"Please pass an amount above 0!\"\r\n        );\r\n        require(\r\n            oldNodeStake >= _amount,\r\n            \"You don't have enough stake to unbond!\"\r\n        );\r\n\r\n        uint256 newNodeStake = oldNodeStake.sub(_amount);\r\n        uint256 oldNodeQualityCount = oldNodeStake.div(minStakePerNode);\r\n        require(\r\n            newNodeStake >= minStakePerNode || newNodeStake == 0,\r\n            \"You may only unbond up to the minimum allowance or all stake!\"\r\n        );\r\n        \r\n        allowedWithdrawalAmounts[msg.sender]\r\n            = AllowedWithdrawalAfter(_amount, nextRoundIndex);\r\n        bondedStakes[msg.sender]\r\n            = ValidStakeAfter(oldNodeStake, newNodeStake, nextRoundIndex);\r\n        totalBonded = totalBonded.sub(_amount);\r\n\r\n        uint256 newNodeQualityCount = newNodeStake.div(minStakePerNode);\r\n        uint256 removedNodeQuality = oldNodeQualityCount.sub(newNodeQualityCount);\r\n\r\n        uint256 oldNextTotalNodesCount = totalNodesCount[nextRoundIndex] > 0\r\n            ? totalNodesCount[nextRoundIndex]\r\n            : totalNodesCount[roundIndex];\r\n        totalNodesCount[nextRoundIndex]\r\n            = oldNextTotalNodesCount.sub(removedNodeQuality);\r\n\r\n        if (newNodeStake == 0) {\r\n            stakingNodes.remove(msg.sender);\r\n\r\n            stakingNodesAddressCount[nextRoundIndex]\r\n                = stakingNodesAddressCount[nextRoundIndex] > 0\r\n                    ? stakingNodesAddressCount[nextRoundIndex].sub(1)\r\n                    : stakingNodesAddressCount[roundIndex].sub(1);\r\n        }\r\n    }\r\n\r\n    function withdrawJuriFoundationStake(uint256 _amount) external {\r\n        require(\r\n            msg.sender == juriFoundation,\r\n            'Only juriFoundation may withdraw their funds!'\r\n        );\r\n\r\n        require(\r\n            _amount <= juriFoundationFunds,\r\n            'Not enough funds to withdraw from jurFoundationFunds!'\r\n        );\r\n\r\n        juriFoundationFunds = juriFoundationFunds.sub(_amount);\r\n        token.transfer(juriFoundation, _amount);\r\n    }\r\n\r\n    function moveToNextRound(uint256 _newRoundIndex) external onlyOwner {\r\n        totalNodesCount[_newRoundIndex] = totalNodesCount[_newRoundIndex] > 0\r\n            ? totalNodesCount[_newRoundIndex]\r\n            : totalNodesCount[_newRoundIndex.sub(1)];\r\n        stakingNodesAddressCount[_newRoundIndex]\r\n            = stakingNodesAddressCount[_newRoundIndex] > 0\r\n                ? stakingNodesAddressCount[_newRoundIndex]\r\n                : stakingNodesAddressCount[_newRoundIndex.sub(1)];\r\n    }\r\n\r\n    function getBondedStakeOfNode(\r\n        address _node\r\n    ) public view returns (uint256) {\r\n        uint256 roundIndex = proxy.roundIndex();\r\n\r\n        ValidStakeAfter memory currentStakeAfter = bondedStakes[_node];\r\n\r\n        return currentStakeAfter.afterRoundId <= roundIndex\r\n            ? currentStakeAfter.newStake\r\n            : currentStakeAfter.oldStake;\r\n    }\r\n\r\n    function getAllStakingNodes() public view returns (address[] memory) {\r\n        uint256 stakingNodesCount = stakingNodes.sizeOf();\r\n        address[] memory stakingNodesList = new address[](stakingNodesCount);\r\n\r\n        stakingNodesList[0] = stakingNodes.list[HEAD][NEXT];\r\n\r\n        for (uint256 i = 1; i < stakingNodesCount; i++) {\r\n            stakingNodesList[i]\r\n                = stakingNodes.list[stakingNodesList[i.sub(1)]][NEXT];\r\n        }\r\n\r\n        return stakingNodesList;\r\n    }\r\n\r\n    function _slashStake(\r\n        uint256 _roundIndex,\r\n        address _from,\r\n        address _to,\r\n        uint256 _penalty\r\n    ) private returns (uint256) {\r\n        uint256 nextRoundIndex = _roundIndex + 1;\r\n        ValidStakeAfter memory stakeAfterFrom = bondedStakes[_from];\r\n        ValidStakeAfter memory stakeAfterTo = bondedStakes[_to];\r\n\r\n        uint256 stakeFrom = stakeAfterFrom.afterRoundId <= _roundIndex\r\n            ? stakeAfterFrom.newStake\r\n            : stakeAfterFrom.oldStake;\r\n        uint256 stakeTo = stakeAfterTo.afterRoundId <= _roundIndex\r\n            ? stakeAfterTo.newStake\r\n            : stakeAfterTo.oldStake;\r\n\r\n        uint256 slashedStake = stakeFrom.mul(_penalty).div(100);\r\n        uint256 slashedStakeHalf = slashedStake.div(2);\r\n\r\n        uint256 newStakeFrom = stakeAfterFrom.newStake.sub(slashedStake);\r\n        uint256 newStakeTo = stakeAfterTo.newStake.add(slashedStakeHalf);\r\n\r\n        bondedStakes[_from]\r\n            = ValidStakeAfter(stakeFrom, newStakeFrom, nextRoundIndex);\r\n        bondedStakes[_to]\r\n            = ValidStakeAfter(stakeTo, newStakeTo, nextRoundIndex);\r\n        juriFoundationFunds = juriFoundationFunds\r\n            .add(slashedStakeHalf);\r\n\r\n        emit SlashedStake(_roundIndex, _from, _to, _penalty);\r\n    }\r\n}",
  "sourcePath": "C:\\Users\\mail\\Personal\\Juri\\JuriStakingContract\\contracts\\research\\JuriBonding.sol",
  "compiler": {
    "name": "solc",
    "version": "0.5.10+commit.5a6ea5b1.Emscripten.clang"
  },
  "schemaVersion": "3.0.11",
  "updatedAt": "2019-08-26T23:35:56.690Z",
  "devdoc": {
    "methods": {
      "isOwner()": {
        "return": "true if `msg.sender` is the owner of the contract.\r"
      },
      "owner()": {
        "return": "the address of the owner.\r"
      },
      "renounceOwnership()": {
        "details": "Allows the current owner to relinquish control of the contract.\r It will not be possible to call the functions with the `onlyOwner`\r modifier anymore.\r"
      },
      "transferOwnership(address)": {
        "details": "Allows the current owner to transfer control of the contract to a newOwner.\r",
        "params": {
          "newOwner": "The address to transfer ownership to.\r"
        }
      }
    }
  },
  "userdoc": {
    "methods": {
      "renounceOwnership()": {
        "notice": "Renouncing ownership will leave the contract without an owner,\r thereby removing any functionality that is only available to the owner.\r"
      }
    }
  }
}