{
  "contractName": "JuriNetworkProxyMock",
  "abi": [
    {
      "constant": true,
      "inputs": [
        {
          "name": "_roundIndex",
          "type": "uint256"
        },
        {
          "name": "_user",
          "type": "address"
        }
      ],
      "name": "getUserWorkoutSignature",
      "outputs": [
        {
          "name": "",
          "type": "bytes32"
        }
      ],
      "payable": false,
      "stateMutability": "view",
      "type": "function"
    },
    {
      "constant": false,
      "inputs": [],
      "name": "moveFromDissentToNextPeriod",
      "outputs": [],
      "payable": false,
      "stateMutability": "nonpayable",
      "type": "function"
    },
    {
      "constant": false,
      "inputs": [
        {
          "name": "_userWorkoutSignature",
          "type": "bytes32"
        },
        {
          "name": "_heartRateDataStoragePath",
          "type": "string"
        }
      ],
      "name": "addHeartRateDateForPoolUser",
      "outputs": [],
      "payable": false,
      "stateMutability": "nonpayable",
      "type": "function"
    },
    {
      "constant": true,
      "inputs": [],
      "name": "getDissentedUsers",
      "outputs": [
        {
          "name": "",
          "type": "address[]"
        }
      ],
      "payable": false,
      "stateMutability": "view",
      "type": "function"
    },
    {
      "constant": false,
      "inputs": [
        {
          "name": "_roundIndex",
          "type": "uint256"
        },
        {
          "name": "_juriFeesTokenAmount",
          "type": "uint256"
        }
      ],
      "name": "handleJuriFees",
      "outputs": [],
      "payable": false,
      "stateMutability": "nonpayable",
      "type": "function"
    },
    {
      "constant": true,
      "inputs": [
        {
          "name": "_roundIndex",
          "type": "uint256"
        },
        {
          "name": "_user",
          "type": "address"
        }
      ],
      "name": "getDissented",
      "outputs": [
        {
          "name": "",
          "type": "bool"
        }
      ],
      "payable": false,
      "stateMutability": "view",
      "type": "function"
    },
    {
      "constant": true,
      "inputs": [],
      "name": "skaleFileStorage",
      "outputs": [
        {
          "name": "",
          "type": "address"
        }
      ],
      "payable": false,
      "stateMutability": "view",
      "type": "function"
    },
    {
      "constant": false,
      "inputs": [
        {
          "name": "_users",
          "type": "address[]"
        },
        {
          "name": "_wasCompliantDataCommitments",
          "type": "bytes32[]"
        },
        {
          "name": "_proofIndices",
          "type": "uint256[]"
        }
      ],
      "name": "addWasCompliantDataCommitmentsForUsers",
      "outputs": [],
      "payable": false,
      "stateMutability": "nonpayable",
      "type": "function"
    },
    {
      "constant": false,
      "inputs": [
        {
          "name": "_poolAddress",
          "type": "address"
        }
      ],
      "name": "registerJuriStakingPool",
      "outputs": [],
      "payable": false,
      "stateMutability": "nonpayable",
      "type": "function"
    },
    {
      "constant": true,
      "inputs": [],
      "name": "skaleMessageProxySide",
      "outputs": [
        {
          "name": "",
          "type": "address"
        }
      ],
      "payable": false,
      "stateMutability": "view",
      "type": "function"
    },
    {
      "constant": true,
      "inputs": [
        {
          "name": "",
          "type": "uint256"
        }
      ],
      "name": "totalJuriFees",
      "outputs": [
        {
          "name": "",
          "type": "uint256"
        }
      ],
      "payable": false,
      "stateMutability": "view",
      "type": "function"
    },
    {
      "constant": true,
      "inputs": [
        {
          "name": "_roundIndex",
          "type": "uint256"
        }
      ],
      "name": "getTotalActivityCount",
      "outputs": [
        {
          "name": "",
          "type": "uint256"
        }
      ],
      "payable": false,
      "stateMutability": "view",
      "type": "function"
    },
    {
      "constant": false,
      "inputs": [
        {
          "name": "_users",
          "type": "address[]"
        },
        {
          "name": "_wasCompliantData",
          "type": "bool[]"
        },
        {
          "name": "_randomNonces",
          "type": "bytes32[]"
        }
      ],
      "name": "addWasCompliantDataForUsers",
      "outputs": [],
      "payable": false,
      "stateMutability": "nonpayable",
      "type": "function"
    },
    {
      "constant": false,
      "inputs": [
        {
          "name": "_users",
          "type": "address[]"
        },
        {
          "name": "_wasCompliantDataCommitments",
          "type": "bytes32[]"
        }
      ],
      "name": "addDissentWasCompliantDataCommitmentsForUsers",
      "outputs": [],
      "payable": false,
      "stateMutability": "nonpayable",
      "type": "function"
    },
    {
      "constant": true,
      "inputs": [],
      "name": "getRegisteredJuriStakingPools",
      "outputs": [
        {
          "name": "",
          "type": "address[]"
        }
      ],
      "payable": false,
      "stateMutability": "view",
      "type": "function"
    },
    {
      "constant": true,
      "inputs": [],
      "name": "currentStage",
      "outputs": [
        {
          "name": "",
          "type": "uint8"
        }
      ],
      "payable": false,
      "stateMutability": "view",
      "type": "function"
    },
    {
      "constant": false,
      "inputs": [],
      "name": "moveToDissentPeriod",
      "outputs": [],
      "payable": false,
      "stateMutability": "nonpayable",
      "type": "function"
    },
    {
      "constant": true,
      "inputs": [
        {
          "name": "_user",
          "type": "address"
        }
      ],
      "name": "getCurrentHighestHashForUser",
      "outputs": [
        {
          "name": "",
          "type": "uint256"
        }
      ],
      "payable": false,
      "stateMutability": "view",
      "type": "function"
    },
    {
      "constant": true,
      "inputs": [],
      "name": "roundIndex",
      "outputs": [
        {
          "name": "",
          "type": "uint256"
        }
      ],
      "payable": false,
      "stateMutability": "view",
      "type": "function"
    },
    {
      "constant": true,
      "inputs": [
        {
          "name": "_roundIndex",
          "type": "uint256"
        },
        {
          "name": "_user",
          "type": "address"
        }
      ],
      "name": "getUserWorkAssignmentHashes",
      "outputs": [
        {
          "name": "",
          "type": "uint256[]"
        }
      ],
      "payable": false,
      "stateMutability": "view",
      "type": "function"
    },
    {
      "constant": false,
      "inputs": [
        {
          "name": "_roundIndex",
          "type": "uint256"
        }
      ],
      "name": "retrieveRoundJuriFees",
      "outputs": [],
      "payable": false,
      "stateMutability": "nonpayable",
      "type": "function"
    },
    {
      "constant": false,
      "inputs": [
        {
          "name": "_users",
          "type": "address[]"
        }
      ],
      "name": "dissentToAcceptedAnswers",
      "outputs": [],
      "payable": false,
      "stateMutability": "nonpayable",
      "type": "function"
    },
    {
      "constant": false,
      "inputs": [],
      "name": "renounceOwnership",
      "outputs": [],
      "payable": false,
      "stateMutability": "nonpayable",
      "type": "function"
    },
    {
      "constant": true,
      "inputs": [
        {
          "name": "",
          "type": "uint256"
        }
      ],
      "name": "timesForStages",
      "outputs": [
        {
          "name": "",
          "type": "uint256"
        }
      ],
      "payable": false,
      "stateMutability": "view",
      "type": "function"
    },
    {
      "constant": true,
      "inputs": [],
      "name": "startTime",
      "outputs": [
        {
          "name": "",
          "type": "uint256"
        }
      ],
      "payable": false,
      "stateMutability": "view",
      "type": "function"
    },
    {
      "constant": true,
      "inputs": [
        {
          "name": "",
          "type": "uint256"
        }
      ],
      "name": "dissentedUsers",
      "outputs": [
        {
          "name": "",
          "type": "address"
        }
      ],
      "payable": false,
      "stateMutability": "view",
      "type": "function"
    },
    {
      "constant": true,
      "inputs": [
        {
          "name": "_roundIndex",
          "type": "uint256"
        },
        {
          "name": "_node",
          "type": "address"
        },
        {
          "name": "_user",
          "type": "address"
        }
      ],
      "name": "getWasAssignedToUser",
      "outputs": [
        {
          "name": "",
          "type": "bool"
        }
      ],
      "payable": false,
      "stateMutability": "view",
      "type": "function"
    },
    {
      "constant": true,
      "inputs": [],
      "name": "skaleMessageProxyAddressMain",
      "outputs": [
        {
          "name": "",
          "type": "address"
        }
      ],
      "payable": false,
      "stateMutability": "view",
      "type": "function"
    },
    {
      "constant": true,
      "inputs": [],
      "name": "owner",
      "outputs": [
        {
          "name": "",
          "type": "address"
        }
      ],
      "payable": false,
      "stateMutability": "view",
      "type": "function"
    },
    {
      "constant": true,
      "inputs": [],
      "name": "lastStageUpdate",
      "outputs": [
        {
          "name": "",
          "type": "uint256"
        }
      ],
      "payable": false,
      "stateMutability": "view",
      "type": "function"
    },
    {
      "constant": true,
      "inputs": [],
      "name": "isOwner",
      "outputs": [
        {
          "name": "",
          "type": "bool"
        }
      ],
      "payable": false,
      "stateMutability": "view",
      "type": "function"
    },
    {
      "constant": true,
      "inputs": [],
      "name": "nodeVerifierCount",
      "outputs": [
        {
          "name": "",
          "type": "uint256"
        }
      ],
      "payable": false,
      "stateMutability": "view",
      "type": "function"
    },
    {
      "constant": true,
      "inputs": [
        {
          "name": "_roundIndex",
          "type": "uint256"
        },
        {
          "name": "_node",
          "type": "address"
        },
        {
          "name": "_user",
          "type": "address"
        }
      ],
      "name": "getUserComplianceDataCommitment",
      "outputs": [
        {
          "name": "",
          "type": "bytes32"
        }
      ],
      "payable": false,
      "stateMutability": "view",
      "type": "function"
    },
    {
      "constant": true,
      "inputs": [],
      "name": "bonding",
      "outputs": [
        {
          "name": "",
          "type": "address"
        }
      ],
      "payable": false,
      "stateMutability": "view",
      "type": "function"
    },
    {
      "constant": false,
      "inputs": [
        {
          "name": "_poolAddress",
          "type": "address"
        },
        {
          "name": "_removalIndex",
          "type": "uint256"
        }
      ],
      "name": "removeJuriStakingPool",
      "outputs": [],
      "payable": false,
      "stateMutability": "nonpayable",
      "type": "function"
    },
    {
      "constant": true,
      "inputs": [
        {
          "name": "_isFirstAddition",
          "type": "bool"
        },
        {
          "name": "_totalActivity",
          "type": "uint32"
        },
        {
          "name": "_totalBonded",
          "type": "uint256"
        },
        {
          "name": "_nodes",
          "type": "address[]"
        },
        {
          "name": "_nodeActivities",
          "type": "uint32[]"
        }
      ],
      "name": "_encodeIMABytes",
      "outputs": [
        {
          "name": "",
          "type": "bytes"
        }
      ],
      "payable": false,
      "stateMutability": "pure",
      "type": "function"
    },
    {
      "constant": true,
      "inputs": [
        {
          "name": "",
          "type": "uint256"
        },
        {
          "name": "",
          "type": "address"
        }
      ],
      "name": "totalJuriFeesAtWithdrawalTimes",
      "outputs": [
        {
          "name": "",
          "type": "uint256"
        }
      ],
      "payable": false,
      "stateMutability": "view",
      "type": "function"
    },
    {
      "constant": false,
      "inputs": [],
      "name": "moveToNextRound",
      "outputs": [],
      "payable": false,
      "stateMutability": "nonpayable",
      "type": "function"
    },
    {
      "constant": true,
      "inputs": [
        {
          "name": "_roundIndex",
          "type": "uint256"
        },
        {
          "name": "_node",
          "type": "address"
        },
        {
          "name": "_user",
          "type": "address"
        }
      ],
      "name": "getHasDissented",
      "outputs": [
        {
          "name": "",
          "type": "bool"
        }
      ],
      "payable": false,
      "stateMutability": "view",
      "type": "function"
    },
    {
      "constant": true,
      "inputs": [
        {
          "name": "",
          "type": "uint256"
        }
      ],
      "name": "registeredJuriStakingPools",
      "outputs": [
        {
          "name": "",
          "type": "address"
        }
      ],
      "payable": false,
      "stateMutability": "view",
      "type": "function"
    },
    {
      "constant": true,
      "inputs": [],
      "name": "juriTokenMainAddress",
      "outputs": [
        {
          "name": "",
          "type": "address"
        }
      ],
      "payable": false,
      "stateMutability": "view",
      "type": "function"
    },
    {
      "constant": true,
      "inputs": [
        {
          "name": "_roundIndex",
          "type": "uint256"
        },
        {
          "name": "_node",
          "type": "address"
        },
        {
          "name": "_user",
          "type": "address"
        }
      ],
      "name": "getHasRevealed",
      "outputs": [
        {
          "name": "",
          "type": "bool"
        }
      ],
      "payable": false,
      "stateMutability": "view",
      "type": "function"
    },
    {
      "constant": false,
      "inputs": [],
      "name": "moveToSlashingPeriod",
      "outputs": [],
      "payable": false,
      "stateMutability": "nonpayable",
      "type": "function"
    },
    {
      "constant": true,
      "inputs": [],
      "name": "juriFeesToken",
      "outputs": [
        {
          "name": "",
          "type": "address"
        }
      ],
      "payable": false,
      "stateMutability": "view",
      "type": "function"
    },
    {
      "constant": true,
      "inputs": [
        {
          "name": "_roundIndex",
          "type": "uint256"
        },
        {
          "name": "_user",
          "type": "address"
        }
      ],
      "name": "getUserComplianceData",
      "outputs": [
        {
          "name": "",
          "type": "int256"
        }
      ],
      "payable": false,
      "stateMutability": "view",
      "type": "function"
    },
    {
      "constant": true,
      "inputs": [
        {
          "name": "_roundIndex",
          "type": "uint256"
        },
        {
          "name": "_node",
          "type": "address"
        }
      ],
      "name": "getNodeActivityCount",
      "outputs": [
        {
          "name": "",
          "type": "uint256"
        }
      ],
      "payable": false,
      "stateMutability": "view",
      "type": "function"
    },
    {
      "constant": true,
      "inputs": [
        {
          "name": "",
          "type": "address"
        }
      ],
      "name": "isRegisteredJuriStakingPool",
      "outputs": [
        {
          "name": "",
          "type": "bool"
        }
      ],
      "payable": false,
      "stateMutability": "view",
      "type": "function"
    },
    {
      "constant": false,
      "inputs": [
        {
          "name": "_users",
          "type": "address[]"
        },
        {
          "name": "_wasCompliantData",
          "type": "bool[]"
        },
        {
          "name": "_randomNonces",
          "type": "bytes32[]"
        }
      ],
      "name": "addDissentWasCompliantDataForUsers",
      "outputs": [],
      "payable": false,
      "stateMutability": "nonpayable",
      "type": "function"
    },
    {
      "constant": true,
      "inputs": [
        {
          "name": "_roundIndex",
          "type": "uint256"
        },
        {
          "name": "_node",
          "type": "address"
        },
        {
          "name": "_user",
          "type": "address"
        }
      ],
      "name": "getGivenNodeResult",
      "outputs": [
        {
          "name": "",
          "type": "bool"
        }
      ],
      "payable": false,
      "stateMutability": "view",
      "type": "function"
    },
    {
      "constant": true,
      "inputs": [
        {
          "name": "_roundIndex",
          "type": "uint256"
        },
        {
          "name": "_user",
          "type": "address"
        }
      ],
      "name": "getComplianceDataBeforeDissent",
      "outputs": [
        {
          "name": "",
          "type": "int256"
        }
      ],
      "payable": false,
      "stateMutability": "view",
      "type": "function"
    },
    {
      "constant": false,
      "inputs": [
        {
          "name": "newOwner",
          "type": "address"
        }
      ],
      "name": "transferOwnership",
      "outputs": [],
      "payable": false,
      "stateMutability": "nonpayable",
      "type": "function"
    },
    {
      "constant": true,
      "inputs": [
        {
          "name": "_roundIndex",
          "type": "uint256"
        },
        {
          "name": "_user",
          "type": "address"
        }
      ],
      "name": "getHeartRateDataStoragePath",
      "outputs": [
        {
          "name": "",
          "type": "string"
        }
      ],
      "payable": false,
      "stateMutability": "view",
      "type": "function"
    },
    {
      "inputs": [
        {
          "name": "_juriFeesToken",
          "type": "address"
        },
        {
          "name": "_juriTokenSide",
          "type": "address"
        },
        {
          "name": "_juriTokenMain",
          "type": "address"
        },
        {
          "name": "_skaleMessageProxySide",
          "type": "address"
        },
        {
          "name": "_skaleMessageProxyAddressMain",
          "type": "address"
        },
        {
          "name": "_skaleFileStorage",
          "type": "address"
        },
        {
          "name": "_juriFoundation",
          "type": "address"
        },
        {
          "name": "_times",
          "type": "uint256[]"
        },
        {
          "name": "_penalties",
          "type": "uint256[]"
        },
        {
          "name": "_minStakePerNode",
          "type": "uint256"
        }
      ],
      "payable": false,
      "stateMutability": "nonpayable",
      "type": "constructor"
    },
    {
      "anonymous": false,
      "inputs": [
        {
          "indexed": false,
          "name": "user",
          "type": "address"
        },
        {
          "indexed": false,
          "name": "removedNode",
          "type": "address"
        }
      ],
      "name": "RemovedMax",
      "type": "event"
    },
    {
      "anonymous": false,
      "inputs": [
        {
          "indexed": false,
          "name": "user",
          "type": "address"
        },
        {
          "indexed": false,
          "name": "node",
          "type": "address"
        },
        {
          "indexed": false,
          "name": "verifierHash",
          "type": "bytes32"
        }
      ],
      "name": "AddedVerifierHash",
      "type": "event"
    },
    {
      "anonymous": false,
      "inputs": [
        {
          "indexed": false,
          "name": "maxVerifierHash",
          "type": "bytes32"
        }
      ],
      "name": "OLD_MAX",
      "type": "event"
    },
    {
      "anonymous": false,
      "inputs": [
        {
          "indexed": false,
          "name": "maxVerifierHash",
          "type": "bytes32"
        }
      ],
      "name": "NEW_MAX",
      "type": "event"
    },
    {
      "anonymous": false,
      "inputs": [
        {
          "indexed": true,
          "name": "previousOwner",
          "type": "address"
        },
        {
          "indexed": true,
          "name": "newOwner",
          "type": "address"
        }
      ],
      "name": "OwnershipTransferred",
      "type": "event"
    },
    {
      "constant": false,
      "inputs": [],
      "name": "moveToNextStage",
      "outputs": [],
      "payable": false,
      "stateMutability": "nonpayable",
      "type": "function"
    },
    {
      "constant": false,
      "inputs": [],
      "name": "moveToUserAddingHeartRateDataStage",
      "outputs": [],
      "payable": false,
      "stateMutability": "nonpayable",
      "type": "function"
    },
    {
      "constant": false,
      "inputs": [],
      "name": "moveToAddingCommitmentStage",
      "outputs": [],
      "payable": false,
      "stateMutability": "nonpayable",
      "type": "function"
    },
    {
      "constant": true,
      "inputs": [],
      "name": "debugMoveToNextRound",
      "outputs": [
        {
          "name": "",
          "type": "bytes"
        }
      ],
      "payable": false,
      "stateMutability": "view",
      "type": "function"
    },
    {
      "constant": false,
      "inputs": [],
      "name": "debugIncreaseRoundIndex",
      "outputs": [],
      "payable": false,
      "stateMutability": "nonpayable",
      "type": "function"
    },
    {
      "constant": false,
      "inputs": [],
      "name": "moveTimeToNextStage",
      "outputs": [],
      "payable": false,
      "stateMutability": "nonpayable",
      "type": "function"
    }
  ],
  "bytecode": "0x60806040523480156200001157600080fd5b5060405162008b2738038062008b2783398181016040526101408110156200003857600080fd5b8151602083015160408401516060850151608086015160a087015160c088015160e089018051979996989597949693959294919392830192916401000000008111156200008457600080fd5b820160208101848111156200009857600080fd5b8151856020820283011164010000000082111715620000b657600080fd5b50509291906020018051640100000000811115620000d357600080fd5b82016020810184811115620000e757600080fd5b81518560208202830111640100000000821117156200010557600080fd5b5050602090910151600080546001600160a01b03191633178082556040519395509193508c928c928c928c928c928c928c928c928c928c926001600160a01b0392909216917f8be0079c531659141344cd1fd0a4f28419497f9722a3daafe3b4186f6b6457e0908290a3826000815181106200017d57fe5b6020026020010151600f60008060068111156200019657fe5b81526020019081526020016000208190555082600181518110620001b657fe5b6020026020010151600f600060016006811115620001d057fe5b81526020019081526020016000208190555082600281518110620001f057fe5b6020026020010151600f6000600260068111156200020a57fe5b815260200190815260200160002081905550826003815181106200022a57fe5b6020026020010151600f6000600360068111156200024457fe5b815260200190815260200160002081905550826004815181106200026457fe5b6020026020010151600f6000600460068111156200027e57fe5b815260200190815260200160002081905550826005815181106200029e57fe5b6020026020010151600f600060056006811115620002b857fe5b81526020019081526020016000208190555082600681518110620002d857fe5b6020026020010151600f6000600680811115620002f157fe5b81526020019081526020016000208190555030898583856000815181106200031557fe5b6020026020010151866001815181106200032b57fe5b6020026020010151876002815181106200034157fe5b6020026020010151886003815181106200035757fe5b60200260200101516040516200036d9062000562565b6001600160a01b0398891681529688166020880152949096166040808701919091526060860193909352608085019190915260a084015260c083019390935260e082015290519081900361010001906000f080158015620003d2573d6000803e3d6000fd5b50600160006101000a8154816001600160a01b0302191690836001600160a01b03160217905550600160106000600160009054906101000a90046001600160a01b03166001600160a01b03166001600160a01b0316815260200190815260200160002060006101000a81548160ff02191690831515021790555086600360006101000a8154816001600160a01b0302191690836001600160a01b0316021790555085600460006101000a8154816001600160a01b0302191690836001600160a01b0316021790555084600560006101000a8154816001600160a01b0302191690836001600160a01b0316021790555087600660006101000a8154816001600160a01b0302191690836001600160a01b0316021790555089600260006101000a8154816001600160a01b0302191690836001600160a01b031602179055506000600660146101000a81548160ff021916908360068111156200052f57fe5b0217905550506000600755505042600881905560095550506001600a5550620005709d5050505050505050505050505050565b61337580620057b283390190565b61523280620005806000396000f3fe608060405234801561001057600080fd5b506004361061038e5760003560e01c80638b2d5d24116101de578063dcdd653a1161010f578063e7824694116100ad578063eff4b6d91161007c578063eff4b6d914611173578063f2268c06146111a7578063f2fde38b146111d3578063f4a47edd146111f95761038e565b8063e782469414610f74578063e881602314610f7c578063ecd8b0ff14610fa8578063ed860dc514610fce5761038e565b8063dfe42ee1116100e9578063dfe42ee114610f30578063e57797d514610f38578063e6d50d3714610f40578063e754671414610f485761038e565b8063dcdd653a14610eec578063dd8a5f3f14610ef4578063dfe005fe14610efc5761038e565b80639bfe96331161017c578063b8793da911610156578063b8793da914610e8b578063ca2f484514610e93578063ca35c13414610e9b578063cc200a0814610ecf5761038e565b80639bfe963314610c80578063b1055e8814610cac578063b52765ac14610e5f5761038e565b80638f32d59b116101b85780638f32d59b14610c3457806394a484d114610c3c57806396623d1914610c445780639845755914610c785761038e565b80638b2d5d2414610c1c5780638da5cb5b14610c245780638e42332514610c2c5761038e565b806343e23bf2116102c3578063658ed1741161026157806378e979251161023057806378e9792514610bbb57806379c6966f14610bc35780637f1daea214610be057806382ed0e8e14610c145761038e565b8063658ed17414610ad85780636e51b2d414610af5578063715018a614610b9657806371e5dda914610b9e5761038e565b806360239d371161029d57806360239d3714610a7657806364147c4914610a7e578063648036ae14610aa457806364a5511f14610aac5761038e565b806343e23bf21461091f57806359ef88d414610a425780635bf5d54c14610a4a5761038e565b806326b158cd1161033057806336281b001161030a57806336281b001461073857806339ba0e31146107405780633f94ce541461075d57806343c70cee1461077a5761038e565b806326b158cd146105495780633241d9ea1461056d57806334b90e0a146107125761038e565b80630a9699061161036c5780630a9699061461048657806310f407361461048e57806312198604146104e657806319e00d68146105095761038e565b8063023628051461039357806305732b70146103d157806307a35f37146103db575b600080fd5b6103bf600480360360408110156103a957600080fd5b50803590602001356001600160a01b0316611225565b60408051918252519081900360200190f35b6103d9611252565b005b6103d9600480360360408110156103f157600080fd5b81359190810190604081016020820135600160201b81111561041257600080fd5b82018360208201111561042457600080fd5b803590602001918460018302840111600160201b8311171561044557600080fd5b91908080601f0160208091040260200160405190810160405280939291908181526020018383808284376000920191909152509295506113e0945050505050565b6103d96116ec565b61049661186a565b60408051602080825283518183015283519192839290830191858101910280838360005b838110156104d25781810151838201526020016104ba565b505050509050019250505060405180910390f35b6103d9600480360360408110156104fc57600080fd5b50803590602001356118cd565b6105356004803603604081101561051f57600080fd5b50803590602001356001600160a01b03166119c3565b604080519115158252519081900360200190f35b6105516119f1565b604080516001600160a01b039092168252519081900360200190f35b6103d96004803603606081101561058357600080fd5b810190602081018135600160201b81111561059d57600080fd5b8201836020820111156105af57600080fd5b803590602001918460208302840111600160201b831117156105d057600080fd5b9190808060200260200160405190810160405280939291908181526020018383602002808284376000920191909152509295949360208101935035915050600160201b81111561061f57600080fd5b82018360208201111561063157600080fd5b803590602001918460208302840111600160201b8311171561065257600080fd5b9190808060200260200160405190810160405280939291908181526020018383602002808284376000920191909152509295949360208101935035915050600160201b8111156106a157600080fd5b8201836020820111156106b357600080fd5b803590602001918460208302840111600160201b831117156106d457600080fd5b919080806020026020016040519081016040528093929190818152602001838360200280828437600092019190915250929550611a00945050505050565b6103d96004803603602081101561072857600080fd5b50356001600160a01b0316611b9b565b610551611c44565b6103bf6004803603602081101561075657600080fd5b5035611c53565b6103bf6004803603602081101561077357600080fd5b5035611c65565b6103d96004803603606081101561079057600080fd5b810190602081018135600160201b8111156107aa57600080fd5b8201836020820111156107bc57600080fd5b803590602001918460208302840111600160201b831117156107dd57600080fd5b9190808060200260200160405190810160405280939291908181526020018383602002808284376000920191909152509295949360208101935035915050600160201b81111561082c57600080fd5b82018360208201111561083e57600080fd5b803590602001918460208302840111600160201b8311171561085f57600080fd5b9190808060200260200160405190810160405280939291908181526020018383602002808284376000920191909152509295949360208101935035915050600160201b8111156108ae57600080fd5b8201836020820111156108c057600080fd5b803590602001918460208302840111600160201b831117156108e157600080fd5b919080806020026020016040519081016040528093929190818152602001838360200280828437600092019190915250929550611c80945050505050565b6103d96004803603604081101561093557600080fd5b810190602081018135600160201b81111561094f57600080fd5b82018360208201111561096157600080fd5b803590602001918460208302840111600160201b8311171561098257600080fd5b9190808060200260200160405190810160405280939291908181526020018383602002808284376000920191909152509295949360208101935035915050600160201b8111156109d157600080fd5b8201836020820111156109e357600080fd5b803590602001918460208302840111600160201b83111715610a0457600080fd5b919080806020026020016040519081016040528093929190818152602001838360200280828437600092019190915250929550611e15945050505050565b610496611fb8565b610a52612018565b60405180826006811115610a6257fe5b60ff16815260200191505060405180910390f35b6103d9612028565b6103bf60048036036020811015610a9457600080fd5b50356001600160a01b0316612030565b6103bf61216a565b61049660048036036040811015610ac257600080fd5b50803590602001356001600160a01b0316612170565b6103d960048036036020811015610aee57600080fd5b5035612273565b6103d960048036036020811015610b0b57600080fd5b810190602081018135600160201b811115610b2557600080fd5b820183602082011115610b3757600080fd5b803590602001918460208302840111600160201b83111715610b5857600080fd5b91908080602002602001604051908101604052809392919081815260200183836020028082843760009201919091525092955061250d945050505050565b6103d961298e565b6103bf60048036036020811015610bb457600080fd5b5035612a1b565b6103bf612a2d565b61055160048036036020811015610bd957600080fd5b5035612a33565b61053560048036036060811015610bf657600080fd5b508035906001600160a01b0360208201358116916040013516612a5a565b6103d9612aa1565b610551612ac2565b610551612ad1565b6103bf612ae0565b610535612ae6565b6103bf612af7565b6103bf60048036036060811015610c5a57600080fd5b508035906001600160a01b0360208201358116916040013516612afd565b610551612b30565b6103d960048036036040811015610c9657600080fd5b506001600160a01b038135169060200135612b3f565b610dea600480360360a0811015610cc257600080fd5b813515159163ffffffff6020820135169160408201359190810190608081016060820135600160201b811115610cf757600080fd5b820183602082011115610d0957600080fd5b803590602001918460208302840111600160201b83111715610d2a57600080fd5b9190808060200260200160405190810160405280939291908181526020018383602002808284376000920191909152509295949360208101935035915050600160201b811115610d7957600080fd5b820183602082011115610d8b57600080fd5b803590602001918460208302840111600160201b83111715610dac57600080fd5b919080806020026020016040519081016040528093929190818152602001838360200280828437600092019190915250929550612cce945050505050565b6040805160208082528351818301528351919283929083019185019080838360005b83811015610e24578181015183820152602001610e0c565b50505050905090810190601f168015610e515780820380516001836020036101000a031916815260200191505b509250505060405180910390f35b6103bf60048036036040811015610e7557600080fd5b50803590602001356001600160a01b0316612edf565b6103d9612efc565b610dea61350d565b61053560048036036060811015610eb157600080fd5b508035906001600160a01b0360208201358116916040013516613825565b61055160048036036020811015610ee557600080fd5b5035613867565b6103d9613874565b61055161391e565b61053560048036036060811015610f1257600080fd5b508035906001600160a01b036020820135811691604001351661392d565b6103d9613969565b6103d9613971565b61055161398b565b6103bf60048036036040811015610f5e57600080fd5b50803590602001356001600160a01b031661399a565b6103d9613a14565b6103bf60048036036040811015610f9257600080fd5b50803590602001356001600160a01b0316613a5e565b61053560048036036020811015610fbe57600080fd5b50356001600160a01b0316613a98565b6103d960048036036060811015610fe457600080fd5b810190602081018135600160201b811115610ffe57600080fd5b82018360208201111561101057600080fd5b803590602001918460208302840111600160201b8311171561103157600080fd5b9190808060200260200160405190810160405280939291908181526020018383602002808284376000920191909152509295949360208101935035915050600160201b81111561108057600080fd5b82018360208201111561109257600080fd5b803590602001918460208302840111600160201b831117156110b357600080fd5b9190808060200260200160405190810160405280939291908181526020018383602002808284376000920191909152509295949360208101935035915050600160201b81111561110257600080fd5b82018360208201111561111457600080fd5b803590602001918460208302840111600160201b8311171561113557600080fd5b919080806020026020016040519081016040528093929190818152602001838360200280828437600092019190915250929550613aad945050505050565b6105356004803603606081101561118957600080fd5b508035906001600160a01b0360208201358116916040013516613be7565b6103bf600480360360408110156111bd57600080fd5b50803590602001356001600160a01b0316613c28565b6103d9600480360360208110156111e957600080fd5b50356001600160a01b0316613c53565b610dea6004803603604081101561120f57600080fd5b50803590602001356001600160a01b0316613ca2565b60008281526011602090815260408083206001600160a01b03851684529091529020600301545b92915050565b6003805b60068054600160a01b900460ff169081111561126e57fe5b146112aa5760405162461bcd60e51b81526004018080602001828103825260278152602001806150106027913960400191505060405180910390fd5b6000600f6000600660149054906101000a900460ff1660068111156112cb57fe5b81526020810191909152604001600090812054915060068054600160a01b900460ff16908111156112f857fe5b141561134657600061131560085442613d5890919063ffffffff16565b9050600061132e83600754613daa90919063ffffffff16565b905080821061133f5761133f613e0d565b50506113dc565b6006808054600160a01b900460ff169081111561135f57fe5b14156113bb57600954611378908263ffffffff613eb716565b4210156113b65760405162461bcd60e51b81526004018080602001828103825260458152602001806150e56045913960600191505060405180910390fd5b6113dc565b6009546113ce908263ffffffff613eb716565b42106113dc576113dc613e0d565b5050565b6000600f6000600660149054906101000a900460ff16600681111561140157fe5b81526020810191909152604001600090812054915060068054600160a01b900460ff169081111561142e57fe5b141561147c57600061144b60085442613d5890919063ffffffff16565b9050600061146483600754613daa90919063ffffffff16565b905080821061147557611475613e0d565b5050611512565b6006808054600160a01b900460ff169081111561149557fe5b14156114f1576009546114ae908263ffffffff613eb716565b4210156114ec5760405162461bcd60e51b81526004018080602001828103825260458152602001806150e56045913960600191505060405180910390fd5b611512565b600954611504908263ffffffff613eb716565b421061151257611512613e0d565b60008060068054600160a01b900460ff169081111561152d57fe5b146115695760405162461bcd60e51b81526004018080602001828103825260278152602001806150106027913960400191505060405180910390fd5b600554604051630917a7dd60e11b81526020600482018181528651602484015286516000946001600160a01b03169363122f4fba938993928392604401918501908083838b5b838110156115c75781810151838201526020016115af565b50505050905090810190601f1680156115f45780820380516001836020036101000a031916815260200191505b5092505050602060405180830381600087803b15801561161357600080fd5b505af1158015611627573d6000803e3d6000fd5b505050506040513d602081101561163d57600080fd5b50519050600260ff821614611699576040805162461bcd60e51b815260206004820152601b60248201527f496e76616c69642073746f726167652070617468207061737365640000000000604482015290519081900360640190fd5b600780546000908152601160208181526040808420338086529083528185206003018b905594548452918152818320938352928352902085516116e492600490920191870190614d49565b505050505050565b6116f4612ae6565b61172f5760405162461bcd60e51b8152600401808060200182810382526021815260200180614fef6021913960400191505060405180910390fd5b60078054600190810191829055546040805163044c170760e41b81526004810193909352516001600160a01b03909116916344c1707091602480830192600092919082900301818387803b15801561178657600080fd5b505af115801561179a573d6000803e3d6000fd5b505060408051600081526020810191829052516117bb9350600c9250614dc3565b5060015460075460408051636abb197560e11b815260048101929092525161184a926003926001600160a01b039091169163d57632ea91602480820192602092909190829003018186803b15801561181257600080fd5b505afa158015611826573d6000803e3d6000fd5b505050506040513d602081101561183c57600080fd5b50519063ffffffff613f0516565b600a55600680546000919060ff60a01b1916600160a01b835b0217905550565b6060600c8054806020026020016040519081016040528092919081815260200182805480156118c257602002820191906000526020600020905b81546001600160a01b031681526001909101906020018083116118a4575b505050505090505b90565b600254604080516323b872dd60e01b81523360048201523060248201526044810184905290516001600160a01b03909216916323b872dd916064808201926020929091908290030181600087803b15801561192757600080fd5b505af115801561193b573d6000803e3d6000fd5b505050506040513d602081101561195157600080fd5b505161198e5760405162461bcd60e51b81526004018080602001828103825260398152602001806151786039913960400191505060405180910390fd5b6000828152600e60205260409020546119ad908263ffffffff613eb716565b6000928352600e60205260409092209190915550565b60009182526011602090815260408084206001600160a01b0393909316845291905290206005015460ff1690565b6005546001600160a01b031681565b6000600f6000600660149054906101000a900460ff166006811115611a2157fe5b81526020810191909152604001600090812054915060068054600160a01b900460ff1690811115611a4e57fe5b1415611a9c576000611a6b60085442613d5890919063ffffffff16565b90506000611a8483600754613daa90919063ffffffff16565b9050808210611a9557611a95613e0d565b5050611b32565b6006808054600160a01b900460ff1690811115611ab557fe5b1415611b1157600954611ace908263ffffffff613eb716565b421015611b0c5760405162461bcd60e51b81526004018080602001828103825260458152602001806150e56045913960600191505060405180910390fd5b611b32565b600954611b24908263ffffffff613eb716565b4210611b3257611b32613e0d565b60018060068054600160a01b900460ff1690811115611b4d57fe5b14611b895760405162461bcd60e51b81526004018080602001828103825260278152602001806150106027913960400191505060405180910390fd5b611b94858585613f6f565b5050505050565b611ba3612ae6565b611bde5760405162461bcd60e51b8152600401808060200182810382526021815260200180614fef6021913960400191505060405180910390fd5b6001600160a01b03166000818152601060205260408120805460ff19166001908117909155600b805491820181559091527f0175b7a638427703f0dbe7bb9bbf987a2551717b34e79f33b5b1008d1fa01db90180546001600160a01b0319169091179055565b6003546001600160a01b031681565b600e6020526000908152604090205481565b60009081526011602052604090206003015463ffffffff1690565b6000600f6000600660149054906101000a900460ff166006811115611ca157fe5b81526020810191909152604001600090812054915060068054600160a01b900460ff1690811115611cce57fe5b1415611d1c576000611ceb60085442613d5890919063ffffffff16565b90506000611d0483600754613daa90919063ffffffff16565b9050808210611d1557611d15613e0d565b5050611db2565b6006808054600160a01b900460ff1690811115611d3557fe5b1415611d9157600954611d4e908263ffffffff613eb716565b421015611d8c5760405162461bcd60e51b81526004018080602001828103825260458152602001806150e56045913960600191505060405180910390fd5b611db2565b600954611da4908263ffffffff613eb716565b4210611db257611db2613e0d565b6002805b60068054600160a01b900460ff1690811115611dce57fe5b14611e0a5760405162461bcd60e51b81526004018080602001828103825260278152602001806150106027913960400191505060405180910390fd5b611b94858585614215565b6000600f6000600660149054906101000a900460ff166006811115611e3657fe5b81526020810191909152604001600090812054915060068054600160a01b900460ff1690811115611e6357fe5b1415611eb1576000611e8060085442613d5890919063ffffffff16565b90506000611e9983600754613daa90919063ffffffff16565b9050808210611eaa57611eaa613e0d565b5050611f47565b6006808054600160a01b900460ff1690811115611eca57fe5b1415611f2657600954611ee3908263ffffffff613eb716565b421015611f215760405162461bcd60e51b81526004018080602001828103825260458152602001806150e56045913960600191505060405180910390fd5b611f47565b600954611f39908263ffffffff613eb716565b4210611f4757611f47613e0d565b60048060068054600160a01b900460ff1690811115611f6257fe5b14611f9e5760405162461bcd60e51b81526004018080602001828103825260278152602001806150106027913960400191505060405180910390fd5b604080516000815260208101909152611b94858583613f6f565b6060600b8054806020026020016040519081016040528092919081815260200182805480156118c2576020028201919060005260206000209081546001600160a01b031681526001909101906020018083116118a4575050505050905090565b600654600160a01b900460ff1681565b600280611256565b60008061203c83614554565b600001905060008173__MaxHeapLibrary________________________634959698990916040518263ffffffff1660e01b81526004018082815260200191505060206040518083038186803b15801561209457600080fd5b505af41580156120a8573d6000803e3d6000fd5b505050506040513d60208110156120be57600080fd5b505190506000816120d0576000612161565b8273__MaxHeapLibrary________________________63b9f7ccc990916040518263ffffffff1660e01b81526004018082815260200191505060206040518083038186803b15801561212157600080fd5b505af4158015612135573d6000803e3d6000fd5b505050506040513d601f19601f82011682018060405250602081101561215a57600080fd5b5051600101545b95945050505050565b60075481565b60008281526011602090815260408083206001600160a01b0385168452909152808220815163203df14760e01b81526004810191909152905160609273__MaxHeapLibrary________________________9263203df1479260248083019392829003018186803b1580156121e357600080fd5b505af41580156121f7573d6000803e3d6000fd5b505050506040513d6000823e601f3d908101601f19168201604052602081101561222057600080fd5b810190808051600160201b81111561223757600080fd5b8201602081018481111561224a57600080fd5b81518560208202830111600160201b8211171561226657600080fd5b5090979650505050505050565b3361227c614e24565b5060008281526011602090815260408083206001600160a01b0385168452600190810183528184208251808401845291015460ff81161515825263ffffffff6101009091048116828501819052878652600e855283862054600d8652848720338852909552928520549194929392906122f99084908490613d5816565b90506007548710612351576040805162461bcd60e51b815260206004820152601760248201527f526f756e64206e6f74207965742066696e697368656421000000000000000000604482015290519081900360640190fd5b600084116123905760405162461bcd60e51b81526004018080602001828103825260248152602001806151b16024913960400191505060405180910390fd5b600081116123e5576040805162461bcd60e51b815260206004820152601e60248201527f4e6f7468696e6720617661696c61626c6520746f207769746864726177210000604482015290519081900360640190fd5b600087815260116020526040812060030154620f42409163ffffffff91821691612425908390612419908a908790613daa16565b9063ffffffff613f0516565b9050600061243d84612419878563ffffffff613daa16565b60008c8152600d6020908152604080832033845282528083208b90558e8352601182528083206001600160a01b038f8116808652600192830185528386208301805460ff1916909317909255600254835163a9059cbb60e01b81526004810193909352602483018790529251959650919091169363a9059cbb93604480840194938390030190829087803b1580156124d457600080fd5b505af11580156124e8573d6000803e3d6000fd5b505050506040513d60208110156124fe57600080fd5b50505050505050505050505050565b6000600f6000600660149054906101000a900460ff16600681111561252e57fe5b81526020810191909152604001600090812054915060068054600160a01b900460ff169081111561255b57fe5b14156125a957600061257860085442613d5890919063ffffffff16565b9050600061259183600754613daa90919063ffffffff16565b90508082106125a2576125a2613e0d565b505061263f565b6006808054600160a01b900460ff16908111156125c257fe5b141561261e576009546125db908263ffffffff613eb716565b4210156126195760405162461bcd60e51b81526004018080602001828103825260458152602001806150e56045913960600191505060405180910390fd5b61263f565b600954612631908263ffffffff613eb716565b421061263f5761263f613e0d565b60038060068054600160a01b900460ff169081111561265a57fe5b146126965760405162461bcd60e51b81526004018080602001828103825260278152602001806150106027913960400191505060405180910390fd5b825133906000906126ee576040805162461bcd60e51b815260206004820152601c60248201527f55736572732061727261792063616e6e6f7420626520656d7074792100000000604482015290519081900360640190fd5b60005b855181101561278957600086828151811061270857fe5b6020026020010151905061271c848261457d565b600101546301000000900460ff166127655760405162461bcd60e51b8152600401808060200182810382526028815260200180614ecc6028913960400191505060405180910390fd5b61276e81614554565b6005015460ff16612780576001909201915b506001016126f1565b50600081116127df576040805162461bcd60e51b815260206004820152601d60248201527f5573657273207765726520616c72656164792064697373656e74656421000000604482015290519081900360640190fd5b60608160405190808252806020026020018201604052801561280b578160200160208202803883390190505b5090506000805b87518110156128895761283788828151811061282a57fe5b6020026020010151614554565b6005015460ff166128815787818151811061284e57fe5b602002602001015183838151811061286257fe5b6001600160a01b03909216602092830291909101909101526001909101905b600101612812565b5060005b82518110156129845760008382815181106128a457fe5b602002602001015190506128b781614554565b600201546007805460009081526011602081815260408084206001600160a01b03978816808652908352818520600190810197909755855485528383528185208186528352818520600501805460ff19168817905594548452918152818320958b16835294840185528082208383529094529283208201805462ff0000191662010000179055600c8054808401825593527fdf6966c971051c3d54ec59162606531493a51404a002842f56009d7e5cf4a8c790920180546001600160a01b0319169092179091550161288d565b5050505050505050565b612996612ae6565b6129d15760405162461bcd60e51b8152600401808060200182810382526021815260200180614fef6021913960400191505060405180910390fd5b600080546040516001600160a01b03909116907f8be0079c531659141344cd1fd0a4f28419497f9722a3daafe3b4186f6b6457e0908390a3600080546001600160a01b0319169055565b600f6020526000908152604090205481565b60085481565b600c8181548110612a4057fe5b6000918252602090912001546001600160a01b0316905081565b60008381526011602090815260408083206001600160a01b03868116855260019182018452828520908616855290925290912001546301000000900460ff165b9392505050565b600680546001919060ff60a01b1916600160a01b835b021790555042600955565b6004546001600160a01b031681565b6000546001600160a01b031690565b60095481565b6000546001600160a01b0316331490565b600a5481565b60009283526011602090815260408085206001600160a01b03948516865260010182528085209290931684525290205490565b6001546001600160a01b031681565b612b47612ae6565b612b825760405162461bcd60e51b8152600401808060200182810382526021815260200180614fef6021913960400191505060405180910390fd5b600b54612bc05760405162461bcd60e51b815260040180806020018281038252602c81526020018061505d602c913960400191505060405180910390fd5b816001600160a01b0316600b8281548110612bd757fe5b6000918252602090912001546001600160a01b031614612c285760405162461bcd60e51b81526004018080602001828103825260268152602001806150376026913960400191505060405180910390fd5b6001600160a01b0382166000908152601060205260409020805460ff19169055600b8054612c5d90600163ffffffff613d5816565b81548110612c6757fe5b600091825260209091200154600b80546001600160a01b039092169183908110612c8d57fe5b600091825260209091200180546001600160a01b0319166001600160a01b0392909216919091179055600b805490612cc9906000198301614e3b565b505050565b6060600086612cde576000612ce1565b60015b84519091506025906018810260008a612cfb576001612cfd565b835b820190506060816040519080825280601f01601f191660200182016040528015612d2e576020820181803883390190505b509050602081018681538c15612d6a57600181016005820160188e901c82538d60101c60018301538d60081c60028301538d60038301538c9052505b60008d612d7a5781600101612d7e565b8682015b8b51909150601402810160005b8c51811015612e6e5760008d8281518110612da257fe5b60200260200101519050600082601402850190508160981c81538160901c60018201538160881c60028201538160801c60038201538160781c60048201538160701c60058201538160681c60068201538160601c60078201538160581c60088201538160501c60098201538160481c600a8201538160401c600b8201538160381c600c8201538160301c600d8201538160281c600e8201538160201c600f8201538160181c60108201538160101c60118201538160081c60128201538160138201535050600101612d8b565b5060005b8b51811015612ecb5760008c8281518110612e8957fe5b602002602001015163ffffffff169050600082600402840190508160181c81538160101c60018201538160081c60028201538160038201535050600101612e72565b50929e9d5050505050505050505050505050565b600d60209081526000928352604080842090915290825290205481565b60068060068054600160a01b900460ff1690811115612f1757fe5b14612f535760405162461bcd60e51b81526004018080602001828103825260278152602001806150106027913960400191505060405180910390fd5b6007546000908152601160209081526040808320600281015460039091015460015483516344d96e9560e01b81529351929563ffffffff9092169491936001600160a01b03909116926344d96e9592600480840193919291829003018186803b158015612fbf57600080fd5b505afa158015612fd3573d6000803e3d6000fd5b505050506040513d6020811015612fe957600080fd5b505160015460075460408051636abb197560e11b81526004810192909252519293506000926001600160a01b039092169163d57632ea91602480820192602092909190829003018186803b15801561304057600080fd5b505afa158015613054573d6000803e3d6000fd5b505050506040513d602081101561306a57600080fd5b5051905060006002821161307e5781613081565b60025b6001546040805163c070bd2b60e01b8152600481018990526002602482015290519293506060926001600160a01b039092169163c070bd2b91604480820192600092909190829003018186803b1580156130da57600080fd5b505afa1580156130ee573d6000803e3d6000fd5b505050506040513d6000823e601f3d908101601f19168201604052602081101561311757600080fd5b810190808051600160201b81111561312e57600080fd5b8201602081018481111561314157600080fd5b81518560208202830111600160201b8211171561315d57600080fd5b50509291905050509050606082604051908082528060200260200182016040528015613193578160200160208202803883390190505b50905060005b838110156131fa576131bd8382815181106131b057fe5b60200260200101516145b4565b60010160019054906101000a900463ffffffff168282815181106131dd57fe5b63ffffffff90921660209283029190910190910152600101613199565b50861560606132b9828061320f57600061322b565b60075460009081526011602052604090206003015463ffffffff165b846132375760006132b2565b600160009054906101000a90046001600160a01b03166001600160a01b03166344d96e956040518163ffffffff1660e01b815260040160206040518083038186803b15801561328557600080fd5b505afa158015613299573d6000803e3d6000fd5b505050506040513d60208110156132af57600080fd5b50515b8787612cce565b60035460048054600654604051631118b48f60e11b81526001600160a01b03928316602482018190526000604483018190529284166064830181905260a0958301958652600760a48401526613585a5b9b995d60ca1b60c484015260e060848401908152885160e485015288519899509490961696632231691e969195939491938993909283929091610104019060208601908083838b5b83811015613369578181015183820152602001613351565b50505050905090810190601f1680156133965780820380516001836020036101000a031916815260200191505b509650505050505050600060405180830381600087803b1580156133b957600080fd5b505af11580156133cd573d6000803e3d6000fd5b505050506133e4858a613eb790919063ffffffff16565b6007805460009081526011602052604080822060029081019490945591548152200154861161350157600780546001908101918290556006805460ff60a01b19169055546040805163044c170760e41b81526004810193909352516001600160a01b03909116916344c1707091602480830192600092919082900301818387803b15801561347157600080fd5b505af1158015613485573d6000803e3d6000fd5b505060408051600081526020810191829052516134a69350600c9250614dc3565b5060015460075460408051636abb197560e11b81526004810192909252516134fd926003926001600160a01b039091169163d57632ea91602480820192602092909190829003018186803b15801561181257600080fd5b600a555b50505050505050505050565b606060068060068054600160a01b900460ff169081111561352a57fe5b146135665760405162461bcd60e51b81526004018080602001828103825260278152602001806150106027913960400191505060405180910390fd5b6007546000908152601160209081526040808320600281015460039091015460015483516344d96e9560e01b81529351929563ffffffff9092169491936001600160a01b03909116926344d96e9592600480840193919291829003018186803b1580156135d257600080fd5b505afa1580156135e6573d6000803e3d6000fd5b505050506040513d60208110156135fc57600080fd5b505160015460075460408051636abb197560e11b81526004810192909252519293506000926001600160a01b039092169163d57632ea91602480820192602092909190829003018186803b15801561365357600080fd5b505afa158015613667573d6000803e3d6000fd5b505050506040513d602081101561367d57600080fd5b505190506000600282116136915781613694565b60025b6001546040805163c070bd2b60e01b8152600481018990526002602482015290519293506060926001600160a01b039092169163c070bd2b91604480820192600092909190829003018186803b1580156136ed57600080fd5b505afa158015613701573d6000803e3d6000fd5b505050506040513d6000823e601f3d908101601f19168201604052602081101561372a57600080fd5b810190808051600160201b81111561374157600080fd5b8201602081018481111561375457600080fd5b81518560208202830111600160201b8211171561377057600080fd5b505092919050505090506060826040519080825280602002602001820160405280156137a6578160200160208202803883390190505b50905060005b83811015613800576137c38382815181106131b057fe5b60010160019054906101000a900463ffffffff168282815181106137e357fe5b63ffffffff909216602092830291909101909101526001016137ac565b5086156060613815828061320f57600061322b565b9a505050505050505050505b5090565b60009283526011602090815260408085206001600160a01b03948516865260019081018352818620939094168552919052909120015462010000900460ff1690565b600b8181548110612a4057fe5b42600955600360068054600160a01b900460ff169081111561389257fe5b14156138ce57600c546138a65760066138a9565b60045b6006805460ff60a01b1916600160a01b83838111156138c457fe5b021790555061391c565b6007600660149054906101000a900460ff1660068111156138eb57fe5b600101816138f557fe5b06600681111561390157fe5b6006805460ff60a01b1916600160a01b838381111561186357fe5b565b6006546001600160a01b031681565b60009283526011602090815260408085206001600160a01b03948516865260019081018352818620939094168552919052909120015460ff1690565b600580611256565b600680546000919060ff60a01b1916600160a01b83612ab7565b6002546001600160a01b031681565b3360009081526010602052604081205460ff166139e85760405162461bcd60e51b815260040180806020018281038252602b815260200180614f55602b913960400191505060405180910390fd5b5060009182526011602090815260408084206001600160a01b0393909316845291905290206002015490565b6000600f6000600660149054906101000a900460ff166006811115613a3557fe5b81526020810191909152604001600020549050613a58428263ffffffff613d5816565b60095550565b60009182526011602090815260408084206001600160a01b0393909316845260019283019091529091200154610100900463ffffffff1690565b60106020526000908152604090205460ff1681565b6000600f6000600660149054906101000a900460ff166006811115613ace57fe5b81526020810191909152604001600090812054915060068054600160a01b900460ff1690811115613afb57fe5b1415613b49576000613b1860085442613d5890919063ffffffff16565b90506000613b3183600754613daa90919063ffffffff16565b9050808210613b4257613b42613e0d565b5050613bdf565b6006808054600160a01b900460ff1690811115613b6257fe5b1415613bbe57600954613b7b908263ffffffff613eb716565b421015613bb95760405162461bcd60e51b81526004018080602001828103825260458152602001806150e56045913960600191505060405180910390fd5b613bdf565b600954613bd1908263ffffffff613eb716565b4210613bdf57613bdf613e0d565b600580611db6565b60009283526011602090815260408085206001600160a01b039485168652600190810183528186209390941685529190529091200154610100900460ff1690565b60009182526011602090815260408084206001600160a01b0393909316845291905290206001015490565b613c5b612ae6565b613c965760405162461bcd60e51b8152600401808060200182810382526021815260200180614fef6021913960400191505060405180910390fd5b613c9f816145e1565b50565b60008281526011602090815260408083206001600160a01b038516845282529182902060040180548351601f6002600019610100600186161502019093169290920491820184900484028101840190945280845260609392830182828015613d4b5780601f10613d2057610100808354040283529160200191613d4b565b820191906000526020600020905b815481529060010190602001808311613d2e57829003601f168201915b5050505050905092915050565b600082821115613da4576040805162461bcd60e51b81526020600482015260126024820152715361666553756220756e646572666c6f772160701b604482015290519081900360640190fd5b50900390565b600082613db95750600061124c565b82820282848281613dc657fe5b0414612a9a576040805162461bcd60e51b8152602060048201526011602482015270536166654d756c206f766572666c6f772160781b604482015290519081900360640190fd5b600360068054600160a01b900460ff1690811115613e2757fe5b1415613e6357600c54613e3b576006613e3e565b60045b6006805460ff60a01b1916600160a01b8383811115613e5957fe5b0217905550613eb1565b6007600660149054906101000a900460ff166006811115613e8057fe5b60010181613e8a57fe5b066006811115613e9657fe5b6006805460ff60a01b1916600160a01b8383811115612ab757fe5b42600955565b600082820183811015612a9a576040805162461bcd60e51b815260206004820152601160248201527053616665416464206f766572666c6f772160781b604482015290519081900360640190fd5b6000808211613f5b576040805162461bcd60e51b815260206004820152601b60248201527f536166654469762063616e6e6f74206469766964652062792030210000000000604482015290519081900360640190fd5b6000828481613f6657fe5b04949350505050565b81518351339114613fb15760405162461bcd60e51b8152600401808060200182810382526036815260200180614f806036913960400191505060405180910390fd5b815184511480613fd85750600460068054600160a01b900460ff1690811115613fd657fe5b145b6140135760405162461bcd60e51b81526004018080602001828103825260278152602001806151516027913960400191505060405180910390fd5b6000805b855181101561419c57600086828151811061402e57fe5b60200260200101519050600086838151811061404657fe5b60200260200101519050614058614e5f565b614062868461457d565b6040805160a0810182528254815260019092015460ff808216158015602086015261010083048216151593850193909352620100008204811615156060850152630100000090910416151560808301529091506140f05760405162461bcd60e51b81526004018080602001828103825260258152602001806150896025913960400191505060405180910390fd5b6140f983614554565b6005015460ff16806141475750614124838789878151811061411757fe5b6020026020010151614690565b80156141475750600160068054600160a01b900460ff169081111561414557fe5b145b156141915780516001909501946141915760075460009081526011602090815260408083206001600160a01b03808b16855260019091018352818420908716845290915290208290555b505050600101614017565b50600081116141eb576040805162461bcd60e51b81526020600482015260166024820152754e6f2076616c696420757365727320746f206164642160501b604482015290519081900360640190fd5b600160068054600160a01b900460ff169081111561420557fe5b1415611b9457611b9482826149c7565b815183513391146142575760405162461bcd60e51b81526004018080602001828103825260378152602001806150ae6037913960400191505060405180910390fd5b81518451146142975760405162461bcd60e51b8152600401808060200182810382526039815260200180614fb66039913960400191505060405180910390fd5b60005b8451811015611b945760008582815181106142b157fe5b602002602001015190506142c3614e5f565b6142cd848361457d565b6040805160a0810182528254815260019092015460ff8082161515602085015261010082048116151592840192909252620100008104821615156060840152630100000090041615156080820152865190915060009087908590811061432f57fe5b60200260200101519050600082600001519050600087868151811061435057fe5b602002602001015190506000838260405160200180831515151560f81b81526001018281526020019250505060405160208183030381529060405280519060200120905061439d86614554565b6005015460ff16806143b0575084608001515b6143eb5760405162461bcd60e51b8152600401808060200182810382526022815260200180614ef46022913960400191505060405180910390fd5b84602001511561442c5760405162461bcd60e51b81526004018080602001828103825260258152602001806150896025913960400191505060405180910390fd5b6007546000908152601160209081526040808320338452600190810183528184206001600160a01b038b1685529092529091208101805460ff191690911790558083146144aa5760405162461bcd60e51b815260040180806020018281038252602781526020018061512a6027913960400191505060405180910390fd5b60075460009081526011602090815260408083206001600160a01b038c8116855260019182018452828520908b168552909252822001805461ff001916610100871515021790556144fa87614554565b6002015490508461450e5760018103614513565b806001015b60075460009081526011602090815260408083206001600160a01b03909b168352999052979097206002019690965550506001909401935061429a92505050565b60075460009081526011602090815260408083206001600160a01b039490941683529290522090565b60075460009081526011602090815260408083206001600160a01b0395861684526001018252808320939094168252919091522090565b60075460009081526011602090815260408083206001600160a01b03851684526001019091529020919050565b6001600160a01b038116614635576040805162461bcd60e51b81526020600482015260166024820152754e6577206f776e65722063616e6e6f7420626520302160501b604482015290519081900360640190fd5b600080546040516001600160a01b03808516939216917f8be0079c531659141344cd1fd0a4f28419497f9722a3daafe3b4186f6b6457e091a3600080546001600160a01b0319166001600160a01b0392909216919091179055565b60008061469c85614554565b905060006146a986612030565b600383015460015460408051638e4179db60e01b81526001600160a01b038a81166004830152915194955092936000939190921691638e4179db91602480820192602092909190829003018186803b15801561470457600080fd5b505afa158015614718573d6000803e3d6000fd5b505050506040513d602081101561472e57600080fd5b505190508161476e5760405162461bcd60e51b81526004018080602001828103825260298152602001806151d56029913960400191505060405180910390fd5b61478681670de0b6b3a764000063ffffffff613f0516565b86106147c35760405162461bcd60e51b815260040180806020018281038252603f815260200180614f16603f913960400191505060405180910390fd5b6040805160208082018590526bffffffffffffffffffffffff1960608b901b168284015260548083018a90528351808403909101815260748301808552815191830191909120600a54634959698960e01b9092526078840189905293518893919273__MaxHeapLibrary________________________9263495969899260988083019392829003018186803b15801561485b57600080fd5b505af415801561486f573d6000803e3d6000fd5b505050506040513d602081101561488557600080fd5b5051108061489257508482105b156149b7576148a2898b84614a54565b600a548173__MaxHeapLibrary________________________634959698990916040518263ffffffff1660e01b81526004018082815260200191505060206040518083038186803b1580156148f657600080fd5b505af415801561490a573d6000803e3d6000fd5b505050506040513d602081101561492057600080fd5b505111156149a8577f81eb635ae266c3de79b5eb888447c4f47bb2bd3f7e8f15f68c43b706be02f8336149528b612030565b60408051918252519081900360200190a161496c8a614b79565b7fd807f35ad23d587028eb2dcca5083429a910db54d00da39c3cee6df5d3e0a9476149968b612030565b60408051918252519081900360200190a15b60019650505050505050612a9a565b5060009998505050505050505050565b806149d1836145b4565b6001908101546007805460009081526011602081815260408084206001600160a01b03909a1684529886018152888320909501805463ffffffff61010096879004811698909801881690950264ffffffff00199095169490941790935590548152915292909220600301805480841690920190921663ffffffff19909116179055565b6000614a5f83614554565b604080516317651b2b60e21b8152600481018390526001600160a01b038716602482015260448101859052905191925073__MaxHeapLibrary________________________91635d946cac91606480820192600092909190829003018186803b158015614acb57600080fd5b505af4158015614adf573d6000803e3d6000fd5b5050604080516001600160a01b0380881682528816602082015280820186905290517f05181bb92216966bea512248cecd685c53838b1e3714f5cda3608b863854642e9350908190036060019150a1505060075460009081526011602090815260408083206001600160a01b039586168452600190810183528184209490951683529290522001805463ff00000019166301000000179055565b6000614b8482614554565b600001905060008173__MaxHeapLibrary________________________639a39c5c390916040518263ffffffff1660e01b81526004018082815260200191505060206040518083038186803b158015614bdc57600080fd5b505af4158015614bf0573d6000803e3d6000fd5b505050506040513d6020811015614c0657600080fd5b5051604080516001600160a01b0380871682528316602082015281519293507f3fa6100e640756fbdacaf4e089ef6fbc98de8b2d41a794f62801bd043e2f3aae929081900390910190a16007805460009081526011602081815260408084206001600160a01b0380881680875260019283018552838720918b168088529185528387208301805463ff00000019169055965486529383528185209585529490940181528383209183525290812055612cc9816001614cc3826145b4565b6001908101546007805460009081526011602081815260408084206001600160a01b039990991684529786018152878320909501805464ffffffff0019166101009586900463ffffffff9081169890980388169095029490941790935590548152915291909120600301805463ffffffff19811690831660001901909216919091179055565b828054600181600116156101000203166002900490600052602060002090601f016020900481019282601f10614d8a57805160ff1916838001178555614db7565b82800160010185558215614db7579182015b82811115614db7578251825591602001919060010190614d9c565b50613821929150614e8d565b828054828255906000526020600020908101928215614e18579160200282015b82811115614e1857825182546001600160a01b0319166001600160a01b03909116178255602090920191600190910190614de3565b50613821929150614ea7565b604080518082019091526000808252602082015290565b815481835581811115612cc957600083815260209020612cc9918101908301614e8d565b6040805160a08101825260008082526020820181905291810182905260608101829052608081019190915290565b6118ca91905b808211156138215760008155600101614e93565b6118ca91905b808211156138215780546001600160a01b0319168155600101614ead56fe596f752077657265206e6f742061737369676e656420746f2074686520676976656e207573657221596f752077657265206e6f742061737369676e656420746f207468652075736572215468652070726f6f6620696e646578206d75737420626520736d616c6c6572207468616e2074686520626f6e646564207374616b6520706572203165313821506f6f6c206973206e6f74207265676973746572656420746f2072656365697665206e65772064617461215573657273206c656e6774682073686f756c64206d6174636820776173436f6d706c69616e7444617461436f6d6d69746d656e747321546865207573657273206c656e677468206d757374206d61746368207468652072616e646f6d4e6f6e6365732064617461206c656e677468214f6e6c79206f776e65722063616e2075736520746869732066756e6374696f6e2146756e6374696f6e2063616e6e6f742062652063616c6c656420617420746869732074696d652152656d6f76616c20696e646578206d757374206d6174636820706f6f6c20616464726573732152656769737465726564204a757269205374616b696e6720506f6f6c73206c69737420697320656d70747921596f7520616c72656164792061646465642074686520636f6d706c69616e63654461746121546865207573657273206c656e677468206d757374206d617463682074686520636f6d706c69616e63652064617461206c656e67746821596f752063616e6e6f74206d6f766520746f20746865206e65787420726f756e64206265666f726520736c617368696e6720706572696f642069732066696e697368656421546865207061737365642072616e646f6d206e6f6e636520646f6573206e6f74206d61746368215573657273206c656e6774682073686f756c64206d617463682070726f6f66496e6469636573214a7572695374616b696e67506f6f6c20646f6573206e6f7420686176652073756666696369656e74204a7572692066656520746f6b656e73214e6f646520646964206e6f74207061727469636970617465207468697320726f756e6421546865207573657220646964206e6f742061646420616e792068656172742072617465206461746121a265627a7a7230582078ec9ce54554ee3cd180ebae5a93544243238c097149a24e7591ea5f718f293564736f6c634300050a0032608060405234801561001057600080fd5b50604051613375380380613375833981810160405261010081101561003457600080fd5b50805160208201516040808401516060850151608086015160a087015160c088015160e090980151600080546001600160a01b031916331780825596519899979895979496939592949391926001600160a01b0392909216917f8be0079c531659141344cd1fd0a4f28419497f9722a3daafe3b4186f6b6457e0908290a3600180546001600160a01b03199081166001600160a01b039a8b1617909155600280548216988a1698909817909755600480549097169590971694909417909455600d91909155600e55600f919091556010556011556000600581905561325690819061011f90396000f3fe608060405234801561001057600080fd5b50600436106101f05760003560e01c80638f32d59b1161010f578063d57632ea116100a2578063ec55688911610071578063ec55688914610579578063f2fde38b14610581578063f5dede21146105a7578063fc0c546a146105af576101f0565b8063d57632ea1461052f578063d815b4c61461054c578063dd95dd4b14610554578063e5f95a9914610571576101f0565b8063c070bd2b116100de578063c070bd2b146104ce578063c35da4be146104f1578063c745c5331461051f578063d42e9cee14610527576101f0565b80638f32d59b1461046f578063a2aadc0314610477578063a43fa4ab14610494578063b641dd5a146104b1576101f0565b80634d5e8f991161018757806379015f431161015657806379015f43146103c957806386ab6a54146103f75780638da5cb5b146104255780638e4179db14610449576101f0565b80634d5e8f991461038357806350d4074b1461038b57806364630e5f14610393578063715018a6146103c1576101f0565b80633be53609116101c35780633be53609146102d25780633ff368021461030457806344c170701461035c57806344d96e951461037b576101f0565b80630831756a146101f5578063097a389e146102395780630d0ce700146102795780632e95489714610293575b600080fd5b61021b6004803603602081101561020b57600080fd5b50356001600160a01b03166105b7565b60408051938452602084019290925282820152519081900360600190f35b6102656004803603604081101561024f57600080fd5b50803590602001356001600160a01b03166105d8565b604080519115158252519081900360200190f35b6102816105f8565b60408051918252519081900360200190f35b6102b9600480360360208110156102a957600080fd5b50356001600160a01b03166105fe565b6040805192835260208301919091528051918290030190f35b610265600480360360608110156102e857600080fd5b508035906001600160a01b036020820135169060400135610617565b61030c61063d565b60408051602080825283518183015283519192839290830191858101910280838360005b83811015610348578181015183820152602001610330565b505050509050019250505060405180910390f35b6103796004803603602081101561037257600080fd5b50356107d8565b005b6102816108d1565b6102816108d7565b6102816108dd565b610379600480360360408110156103a957600080fd5b506001600160a01b03813581169160200135166108e3565b610379610c5a565b610379600480360360408110156103df57600080fd5b506001600160a01b0381358116916020013516610ce7565b6103796004803603604081101561040d57600080fd5b506001600160a01b038135811691602001351661100e565b61042d61136f565b604080516001600160a01b039092168252519081900360200190f35b6102816004803603602081101561045f57600080fd5b50356001600160a01b031661137e565b610265611461565b6103796004803603602081101561048d57600080fd5b5035611472565b610281600480360360208110156104aa57600080fd5b50356118ca565b610379600480360360208110156104c757600080fd5b50356118dc565b61030c600480360360408110156104e457600080fd5b5080359060200135611a05565b6103796004803603604081101561050757600080fd5b506001600160a01b0381358116916020013516611bb1565b61042d611faa565b610281611fb9565b6102816004803603602081101561054557600080fd5b5035611fbf565b610379611fd1565b6103796004803603602081101561056a57600080fd5b50356121b4565b610281612625565b61042d61262b565b6103796004803603602081101561059757600080fd5b50356001600160a01b031661263a565b610281612689565b61042d61268f565b60096020526000908152604090208054600182015460029092015490919083565b600b60209081526000928352604080842090915290825290205460ff1681565b600f5481565b6006602052600090815260409020805460019091015482565b600a60209081526000938452604080852082529284528284209052825290205460ff1681565b6060600061064b600361269e565b905060008111610698576040805162461bcd60e51b81526020600482015260136024820152724e6f206e6f64657320617661696c61626c652160681b604482015290519081900360640190fd5b6060816040519080825280602002602001820160405280156106c4578160200160208202803883390190505b50600160009081527f3617319a054d772f909f7c479a2cebe5066e836a939412e32403c99029b92eff6020527ff5d2b9d7b7dcf31fafb527f48cb641b3e286ba85117ea973378ae75f2b0f27c95482519293506001600160a01b03169183919061072a57fe5b6001600160a01b039092166020928302919091019091015260015b828110156107d157600360008361076384600163ffffffff6126dd16565b8151811061076d57fe5b6020908102919091018101516001600160a01b039081168352828201939093526040918201600090812060018252909152205483519116908390839081106107b157fe5b6001600160a01b0390921660209283029190910190910152600101610745565b5091505090565b6107e0611461565b61081b5760405162461bcd60e51b81526004018080602001828103825260218152602001806130326021913960400191505060405180910390fd5b600081815260086020526040902054610857576008600061084383600163ffffffff6126dd16565b815260200190815260200160002054610867565b6000818152600860205260409020545b6000828152600860209081526040808320939093556007905220546108af576007600061089b83600163ffffffff6126dd16565b8152602001908152602001600020546108bf565b6000818152600760205260409020545b60009182526007602052604090912055565b600c5481565b60055481565b600e5481565b600154604080516316fd755360e21b815290516006926001600160a01b031691635bf5d54c916004808301926020929190829003018186803b15801561092857600080fd5b505afa15801561093c573d6000803e3d6000fd5b505050506040513d602081101561095257600080fd5b5051600681111561095f57fe5b1461099f576040805162461bcd60e51b815260206004820181905260248201526000805160206131cd833981519152604482015290519081900360640190fd5b600154604080516332401b5760e11b815290516000926001600160a01b03169163648036ae916004808301926020929190829003018186803b1580156109e457600080fd5b505afa1580156109f8573d6000803e3d6000fd5b505050506040513d6020811015610a0e57600080fd5b50516000818152600a602090815260408083206001600160a01b0387168452825280832083805290915290205490915060ff1615610a7d5760405162461bcd60e51b81526004018080602001828103825260348152602001806131996034913960400191505060405180910390fd5b6000818152600a602090815260408083206001600160a01b038087168086529184528285208580528452828520805460ff1916600190811790915554835163033c01ad60e31b815260048101889052602481019390935292519216926319e00d6892604480840193829003018186803b158015610af957600080fd5b505afa158015610b0d573d6000803e3d6000fd5b505050506040513d6020811015610b2357600080fd5b5051600154604080516396623d1960e01b8152600481018690526001600160a01b0388811660248301528781166044830152915193945060009391909216916396623d19916064808301926020929190829003018186803b158015610b8757600080fd5b505afa158015610b9b573d6000803e3d6000fd5b505050506040513d6020811015610bb157600080fd5b5051905081610bf15760405162461bcd60e51b8152600401808060200182810382526022815260200180612e9a6022913960400191505060405180910390fd5b8015610c44576040805162461bcd60e51b815260206004820181905260248201527f54686520706173736564206e6f646520776173206e6f74206f66666c696e6521604482015290519081900360640190fd5b610c52838633600e5461272f565b505050505050565b610c62611461565b610c9d5760405162461bcd60e51b81526004018080602001828103825260218152602001806130326021913960400191505060405180910390fd5b600080546040516001600160a01b03909116907f8be0079c531659141344cd1fd0a4f28419497f9722a3daafe3b4186f6b6457e0908390a3600080546001600160a01b0319169055565b600154604080516316fd755360e21b815290516006926001600160a01b031691635bf5d54c916004808301926020929190829003018186803b158015610d2c57600080fd5b505afa158015610d40573d6000803e3d6000fd5b505050506040513d6020811015610d5657600080fd5b50516006811115610d6357fe5b14610da3576040805162461bcd60e51b815260206004820181905260248201526000805160206131cd833981519152604482015290519081900360640190fd5b600154604080516332401b5760e11b815290516000926001600160a01b03169163648036ae916004808301926020929190829003018186803b158015610de857600080fd5b505afa158015610dfc573d6000803e3d6000fd5b505050506040513d6020811015610e1257600080fd5b50516000818152600a602090815260408083206001600160a01b038716845282528083206002845290915290205490915060ff1615610e825760405162461bcd60e51b815260040180806020018281038252603a815260200180612ef9603a913960400191505060405180910390fd5b6000818152600a602090815260408083206001600160a01b03808716808652918452828520600286528452828520805460ff1916600190811790915554835163eff4b6d960e01b81526004810188905289831660248201526044810193909352925192169263eff4b6d992606480840193829003018186803b158015610f0757600080fd5b505afa158015610f1b573d6000803e3d6000fd5b505050506040513d6020811015610f3157600080fd5b5051600154604080516339d519c560e21b8152600481018690526001600160a01b03878116602483015291519394506000938493929092169163e754671491604480820192602092909190829003018186803b158015610f9057600080fd5b505afa158015610fa4573d6000803e3d6000fd5b505050506040513d6020811015610fba57600080fd5b50511390508115158114156110005760405162461bcd60e51b81526004018080602001828103825260318152602001806130016031913960400191505060405180910390fd5b610c5283863360105461272f565b600154604080516316fd755360e21b815290516006926001600160a01b031691635bf5d54c916004808301926020929190829003018186803b15801561105357600080fd5b505afa158015611067573d6000803e3d6000fd5b505050506040513d602081101561107d57600080fd5b5051600681111561108a57fe5b146110ca576040805162461bcd60e51b815260206004820181905260248201526000805160206131cd833981519152604482015290519081900360640190fd5b600154604080516332401b5760e11b815290516000926001600160a01b03169163648036ae916004808301926020929190829003018186803b15801561110f57600080fd5b505afa158015611123573d6000803e3d6000fd5b505050506040513d602081101561113957600080fd5b50516000818152600a602090815260408083206001600160a01b038716845282528083206001845290915290205490915060ff16156111a95760405162461bcd60e51b815260040180806020018281038252603481526020018061313a6034913960400191505060405180910390fd5b6000818152600a602090815260408083206001600160a01b038087168086529184528285206001808752908552838620805460ff191682179055548351633f8ed75160e11b815260048101889052898316602482015260448101939093529251921692637f1daea292606480840193829003018186803b15801561122c57600080fd5b505afa158015611240573d6000803e3d6000fd5b505050506040513d602081101561125657600080fd5b50519050806112965760405162461bcd60e51b815260040180806020018281038252603081526020018061307c6030913960400191505060405180910390fd5b60015460408051636ff002ff60e11b8152600481018590526001600160a01b03878116602483015286811660448301529151919092169163dfe005fe916064808301926020929190829003018186803b1580156112f257600080fd5b505afa158015611306573d6000803e3d6000fd5b505050506040513d602081101561131c57600080fd5b50511561135a5760405162461bcd60e51b815260040180806020018281038252602c81526020018061310e602c913960400191505060405180910390fd5b611368828533600f5461272f565b5050505050565b6000546001600160a01b031690565b600080600160009054906101000a90046001600160a01b03166001600160a01b031663648036ae6040518163ffffffff1660e01b815260040160206040518083038186803b1580156113cf57600080fd5b505afa1580156113e3573d6000803e3d6000fd5b505050506040513d60208110156113f957600080fd5b50519050611405612e0e565b506001600160a01b0383166000908152600960209081526040918290208251606081018452815481526001820154928101929092526002015491810182905290821015611453578051611459565b80602001515b949350505050565b6000546001600160a01b0316331490565b600154604080516332401b5760e11b815290516000926001600160a01b03169163648036ae916004808301926020929190829003018186803b1580156114b757600080fd5b505afa1580156114cb573d6000803e3d6000fd5b505050506040513d60208110156114e157600080fd5b5051600154604080516332401b5760e11b815290519293506000926001600160a01b039092169163648036ae91600480820192602092909190829003018186803b15801561152e57600080fd5b505afa158015611542573d6000803e3d6000fd5b505050506040513d602081101561155857600080fd5b50516000838152600b602090815260408083203384529091529020546001909101915060ff16156115ba5760405162461bcd60e51b815260040180806020018281038252602b81526020018061316e602b913960400191505060405180910390fd5b6000828152600b602090815260408083203384529091529020805460ff191660011790556115e6612e0e565b5033600090815260096020908152604080832081516060810183528154815260018201549381019390935260020154908201819052909190841061162f57506020810151611633565b5080515b60008511611688576040805162461bcd60e51b815260206004820152601e60248201527f506c65617365207061737320616e20616d6f756e742061626f76652030210000604482015290519081900360640190fd5b848110156116c75760405162461bcd60e51b8152600401808060200182810382526026815260200180612e4a6026913960400191505060405180910390fd5b60006116d9828763ffffffff6126dd16565b905060006116f2600d54846129cb90919063ffffffff16565b9050600d5482101580611703575081155b61173e5760405162461bcd60e51b815260040180806020018281038252603d815260200180612ebc603d913960400191505060405180910390fd5b60408051808201825288815260208082018881523360008181526006845285812094518555915160019485015584516060810186528881528084018881528187018c81529284526009909452949091209351845590519183019190915551600290910155600c546117b5908863ffffffff6126dd16565b600c55600d546000906117cf90849063ffffffff6129cb16565b905060006117e3838363ffffffff6126dd16565b6000888152600860205260408120549192509061180e5760008981526008602052604090205461181e565b6000888152600860205260409020545b9050611830818363ffffffff6126dd16565b600089815260086020526040902055846118be5761185560033363ffffffff612a3516565b5060008881526007602052604090205461188e5760008981526007602052604090205461188990600163ffffffff6126dd16565b6118ae565b6000888152600760205260409020546118ae90600163ffffffff6126dd16565b6000898152600760205260409020555b50505050505050505050565b60086020526000908152604090205481565b6004546001600160a01b031633146119255760405162461bcd60e51b815260040180806020018281038252602d8152602001806130e1602d913960400191505060405180910390fd5b6005548111156119665760405162461bcd60e51b81526004018080602001828103825260358152602001806131ed6035913960400191505060405180910390fd5b600554611979908263ffffffff6126dd16565b600555600254600480546040805163a9059cbb60e01b81526001600160a01b0392831693810193909352602483018590525192169163a9059cbb916044808201926020929091908290030181600087803b1580156119d657600080fd5b505af11580156119ea573d6000803e3d6000fd5b505050506040513d6020811015611a0057600080fd5b505050565b606060008211611a465760405162461bcd60e51b815260040180806020018281038252602a815260200180612e70602a913960400191505060405180910390fd5b606082604051908082528060200260200182016040528015611a72578160200160208202803883390190505b50600160008190527f3617319a054d772f909f7c479a2cebe5066e836a939412e32403c99029b92eff6020527ff5d2b9d7b7dcf31fafb527f48cb641b3e286ba85117ea973378ae75f2b0f27c9549192506001600160a01b03909116905b8486018111611ba5576001600160a01b038216611b1e5760405162461bcd60e51b8152600401808060200182810382526033815260200180612fce6033913960400191505060405180910390fd5b85811115611b74578183611b496001611b3d858b63ffffffff6126dd16565b9063ffffffff6126dd16565b81518110611b5357fe5b60200260200101906001600160a01b031690816001600160a01b0316815250505b6001600160a01b03918216600090815260036020908152604080832060018085529252909120549092169101611ad0565b50909150505b92915050565b600154604080516316fd755360e21b815290516006926001600160a01b031691635bf5d54c916004808301926020929190829003018186803b158015611bf657600080fd5b505afa158015611c0a573d6000803e3d6000fd5b505050506040513d6020811015611c2057600080fd5b50516006811115611c2d57fe5b14611c6d576040805162461bcd60e51b815260206004820181905260248201526000805160206131cd833981519152604482015290519081900360640190fd5b600154604080516332401b5760e11b815290516000926001600160a01b03169163648036ae916004808301926020929190829003018186803b158015611cb257600080fd5b505afa158015611cc6573d6000803e3d6000fd5b505050506040513d6020811015611cdc57600080fd5b50516000818152600a602090815260408083206001600160a01b038716845282528083206003845290915290205490915060ff1615611d4c5760405162461bcd60e51b815260040180806020018281038252603b815260200180612f93603b913960400191505060405180910390fd5b6000818152600a602090815260408083206001600160a01b03808716808652918452828520600386528452828520805460ff1916600190811790915554835163328d704d60e21b81526004810188905289831660248201526044810193909352925192169263ca35c13492606480840193829003018186803b158015611dd157600080fd5b505afa158015611de5573d6000803e3d6000fd5b505050506040513d6020811015611dfb57600080fd5b505160015460408051637913460360e11b8152600481018690526001600160a01b03878116602483015291519394506000938493929092169163f2268c0691604480820192602092909190829003018186803b158015611e5a57600080fd5b505afa158015611e6e573d6000803e3d6000fd5b505050506040513d6020811015611e8457600080fd5b5051600154604080516339d519c560e21b8152600481018890526001600160a01b03898116602483015291519490931394506000938493919092169163e754671491604480820192602092909190829003018186803b158015611ee657600080fd5b505afa158015611efa573d6000803e3d6000fd5b505050506040513d6020811015611f1057600080fd5b505113905082611f515760405162461bcd60e51b8152600401808060200182810382526033815260200180612f336033913960400191505060405180910390fd5b80151582151514611f935760405162461bcd60e51b81526004018080602001828103825260298152602001806130536029913960400191505060405180910390fd5b611fa184873360115461272f565b50505050505050565b6004546001600160a01b031681565b60105481565b60076020526000908152604090205481565b600154604080516332401b5760e11b815290516000926001600160a01b03169163648036ae916004808301926020929190829003018186803b15801561201657600080fd5b505afa15801561202a573d6000803e3d6000fd5b505050506040513d602081101561204057600080fd5b5051905061204c612e2f565b5033600090815260066020908152604091829020825180840190935280548352600101549082018190528210156120ca576040805162461bcd60e51b815260206004820152601c60248201527f4e6f742079657420616c6c6f77656420746f2077697468647261772100000000604482015290519081900360640190fd5b6040805180820182526000808252602080830182815233808452600683528584209451855590516001909401939093556002548551855163a9059cbb60e01b81526004810195909552602485015293516001600160a01b039094169363a9059cbb93604480820194918390030190829087803b15801561214957600080fd5b505af115801561215d573d6000803e3d6000fd5b505050506040513d602081101561217357600080fd5b50516121b05760405162461bcd60e51b81526004018080602001828103825260358152602001806130ac6035913960400191505060405180910390fd5b5050565b600154604080516332401b5760e11b815290516000926001600160a01b03169163648036ae916004808301926020929190829003018186803b1580156121f957600080fd5b505afa15801561220d573d6000803e3d6000fd5b505050506040513d602081101561222357600080fd5b5051600154604080516332401b5760e11b815290519293506000926001600160a01b039092169163648036ae91600480820192602092909190829003018186803b15801561227057600080fd5b505afa158015612284573d6000803e3d6000fd5b505050506040513d602081101561229a57600080fd5b5051600254604080516323b872dd60e01b8152336004820152306024820152604481018790529051600190930193506001600160a01b03909116916323b872dd916064808201926020929091908290030181600087803b1580156122fd57600080fd5b505af1158015612311573d6000803e3d6000fd5b505050506040513d602081101561232757600080fd5b505161237a576040805162461bcd60e51b815260206004820152601e60248201527f4e6f7420656e6f75676820746f6b656e7320666f7220626f6e64696e67210000604482015290519081900360640190fd5b6000828152600b6020908152604080832033845290915290205460ff16156123d35760405162461bcd60e51b815260040180806020018281038252602b81526020018061316e602b913960400191505060405180910390fd5b6000828152600b602090815260408083203384529091529020805460ff191660011790556123ff612e0e565b503360009081526009602090815260408083208151606081018352815481526001820154938101939093526002015490820181905290919084106124485750602081015161244c565b5080515b806124ce5761246560036000338163ffffffff612ae616565b5060008381526007602052604090205461249e5760008481526007602052604090205461249990600163ffffffff612b5c16565b6124be565b6000838152600760205260409020546124be90600163ffffffff612b5c16565b6000848152600760205260409020555b60006124e0828763ffffffff612b5c16565b905060006124f9600d54846129cb90919063ffffffff16565b6040805160608101825285815260208082018681528284018a8152336000908152600990935293909120915182555160018201559051600290910155600c5490915061254b908863ffffffff612b5c16565b600c55600d5482101561258f5760405162461bcd60e51b815260040180806020018281038252602d815260200180612f66602d913960400191505060405180910390fd5b60006125a6600d54846129cb90919063ffffffff16565b905060006125ba828463ffffffff6126dd16565b600088815260086020526040812054919250906125e5576000898152600860205260409020546125f5565b6000888152600860205260409020545b9050612607818363ffffffff612b5c16565b60009889526008602052604090982097909755505050505050505050565b600d5481565b6001546001600160a01b031681565b612642611461565b61267d5760405162461bcd60e51b81526004018080602001828103825260218152602001806130326021913960400191505060405180910390fd5b61268681612bb1565b50565b60115481565b6002546001600160a01b031681565b60008080806126af85826001612c60565b90935091505b6001600160a01b03821615611459576126d085836001612c60565b90935091506001016126b5565b600082821115612729576040805162461bcd60e51b81526020600482015260126024820152715361666553756220756e646572666c6f772160701b604482015290519081900360640190fd5b50900390565b60006001850161273d612e0e565b506001600160a01b0385166000908152600960209081526040918290208251606081018452815481526001820154928101929092526002015491810191909152612785612e0e565b506001600160a01b038516600090815260096020908152604080832081516060810183528154815260018201549381019390935260020154828201528301519091908910156127d55782516127db565b82602001515b9050600089836040015111156127f25782516127f8565b82602001515b9050600061281d6064612811858b63ffffffff612cb016565b9063ffffffff6129cb16565b9050600061283282600263ffffffff6129cb16565b9050600061284d8388602001516126dd90919063ffffffff16565b90506000612868838860200151612b5c90919063ffffffff16565b905060405180606001604052808781526020018381526020018a815250600960008f6001600160a01b03166001600160a01b0316815260200190815260200160002060008201518160000155602082015181600101556040820151816002015590505060405180606001604052808681526020018281526020018a815250600960008e6001600160a01b03166001600160a01b0316815260200190815260200160002060008201518160000155602082015181600101556040820151816002015590505061294183600554612b5c90919063ffffffff16565b6005819055507fb0f9aff79729f95cfd3c5a53434ea39810e21e8ad1cc3d50a22bd4a6aecb876e8e8e8e8e60405180858152602001846001600160a01b03166001600160a01b03168152602001836001600160a01b03166001600160a01b0316815260200182815260200194505050505060405180910390a1505050505050505050949350505050565b6000808211612a21576040805162461bcd60e51b815260206004820152601b60248201527f536166654469762063616e6e6f74206469766964652062792030210000000000604482015290519081900360640190fd5b6000828481612a2c57fe5b04949350505050565b60006001600160a01b0382161580612a545750612a528383612d13565b155b15612a6157506000611bab565b6001600160a01b038281166000908152602085815260408083208380529091528082205460018084529190922054612aa0938793811692911690612db1565b506001600160a01b03811660009081526020928352604080822082805290935282812080546001600160a01b031990811690915560018252929020805490921690915590565b6000612af28584612d13565b158015612b045750612b048585612d13565b15612b51576001600160a01b03808516600090815260208781526040808320861515845290915290205416612b3b86868686612db1565b612b4786858386612db1565b6001915050611459565b506000949350505050565b600082820183811015612baa576040805162461bcd60e51b815260206004820152601160248201527053616665416464206f766572666c6f772160781b604482015290519081900360640190fd5b9392505050565b6001600160a01b038116612c05576040805162461bcd60e51b81526020600482015260166024820152754e6577206f776e65722063616e6e6f7420626520302160501b604482015290519081900360640190fd5b600080546040516001600160a01b03808516939216917f8be0079c531659141344cd1fd0a4f28419497f9722a3daafe3b4186f6b6457e091a3600080546001600160a01b0319166001600160a01b0392909216919091179055565b600080612c6d8585612d13565b612c7c57506000905080612ca8565b50506001600160a01b038083166000908152602085815260408083208515158452909152902054600191165b935093915050565b600082612cbf57506000611bab565b82820282848281612ccc57fe5b0414612baa576040805162461bcd60e51b8152602060048201526011602482015270536166654d756c206f766572666c6f772160781b604482015290519081900360640190fd5b6001600160a01b03818116600090815260208481526040808320838052909152812054909116158015612d6857506001600160a01b038281166000908152602085815260408083206001845290915290205416155b15612da957600080805260208481526040808320600184529091529020546001600160a01b0383811691161415612da157506001611bab565b506000611bab565b506001611bab565b6001600160a01b0391821660008181526020868152604080832094158084529482528083208054969097166001600160a01b0319968716811790975595825295865284812092158152919094529190912080549091169091179055565b60405180606001604052806000815260200160008152602001600081525090565b60405180604001604052806000815260200160008152509056fe596f7520646f6e2774206861766520656e6f756768207374616b6520746f20756e626f6e6421506173736564206e6f64657320636f756e74206d7573742062652067726561746572207468616e20302154686520706173736564207573657220776173206e6f742064697373656e74656421596f75206d6179206f6e6c7920756e626f6e6420757020746f20746865206d696e696d756d20616c6c6f77616e6365206f7220616c6c207374616b6521546865206e6f64652068617320616c7265616479206265656e20736c617368656420666f7220616e20696e636f727265637420726573756c742154686520706173736564206e6f646520646964206e6f742064697373656e7420746f2074686520706173736564207573657221596f75206d75737420626f6e64206174206c6561737420746865206d696e696d756d20616c6c6f77616e636521546865206e6f64652068617320616c7265616479206265656e20736c617368656420666f7220616e20696e636f72726563742064697373656e74214e6f646573206c69737420746f6f2073686f727420666f7220676976656e206e6f646520696e646578206f7220636f756e742154686520706173736564206e6f646520646964206e6f74206769766520616e20696e636f727265637420726573756c74214f6e6c79206f776e65722063616e2075736520746869732066756e6374696f6e215468652064697373656e742066726f6d20706173736564206e6f64652077617320636f72726563742154686520706173736564206e6f646520776173206e6f742061737369676e656420746f207061737365642075736572214e6f7420656e6f75676820746f6b656e7320696e20626f6e64696e6720636f6e747261637420666f72207769746864726177616c214f6e6c79206a757269466f756e646174696f6e206d61792077697468647261772074686569722066756e64732154686520706173736564206e6f6465206861732072657665616c65642068697320636f6d6d69746d656e7421546865206e6f64652068617320616c7265616479206265656e20736c617368656420666f72206e6f742072657665616c696e6721596f75206d6179206f6e6c7920626f6e64206f7220756e626f6e64206f6e63652070657220726f756e6421546865206e6f64652068617320616c7265616479206265656e20736c617368656420666f72206265696e67206f66666c696e652150726f7879206d75737420626520696e20736c617368696e67207374616765214e6f7420656e6f7567682066756e647320746f2077697468647261772066726f6d206a7572466f756e646174696f6e46756e647321a265627a7a723058201e906f53eadf916801d1f9f10a35c704bc5223d22ef957b5bcc39f82914687dd64736f6c634300050a0032",
  "source": "pragma solidity 0.5.10;\r\n\r\nimport \"./JuriNetworkProxy.sol\";\r\n\r\ncontract JuriNetworkProxyMock is JuriNetworkProxy {\r\n    constructor(\r\n        IERC20 _juriFeesToken,\r\n        IERC20 _juriTokenSide,\r\n        IERC20 _juriTokenMain,\r\n        SkaleMessageProxyInterface _skaleMessageProxySide,\r\n        address _skaleMessageProxyAddressMain,\r\n        SkaleFileStorageInterface _skaleFileStorage,\r\n        address _juriFoundation,\r\n        uint256[] memory _times,\r\n        uint256[] memory _penalties,\r\n        uint256 _minStakePerNode\r\n    ) JuriNetworkProxy(\r\n        _juriFeesToken,\r\n        _juriTokenSide,\r\n        _juriTokenMain,\r\n        _skaleMessageProxySide,\r\n        _skaleMessageProxyAddressMain,\r\n        _skaleFileStorage,\r\n        _juriFoundation,\r\n        _times,\r\n        _penalties,\r\n        _minStakePerNode\r\n    ) public { }\r\n\r\n    function moveToNextStage() public {\r\n        lastStageUpdate = now;\r\n\r\n        if (currentStage == Stages.DISSENTING_PERIOD) {\r\n            currentStage = dissentedUsers.length > 0\r\n                ? Stages.DISSENTS_NODES_ADDING_RESULT_COMMITMENTS\r\n                : Stages.SLASHING_PERIOD;\r\n        } else {\r\n            currentStage = Stages((uint256(currentStage) + 1) % 7);\r\n        }\r\n    }\r\n\r\n    function moveToUserAddingHeartRateDataStage() public {\r\n        currentStage = Stages.USER_ADDING_HEART_RATE_DATA;\r\n        lastStageUpdate = now;\r\n    }\r\n\r\n    function moveToAddingCommitmentStage() public {\r\n        currentStage = Stages.NODES_ADDING_RESULT_COMMITMENTS;\r\n        lastStageUpdate = now;\r\n    }\r\n\r\n    function debugMoveToNextRound()\r\n        public\r\n        view\r\n        atStage(Stages.SLASHING_PERIOD)\r\n        returns (bytes memory) {\r\n        uint256 nodesUpdateIndex = stateForRound[roundIndex].nodesUpdateIndex;\r\n        uint32 totalActivity\r\n            = stateForRound[roundIndex].totalActivityCount;\r\n        uint256 totalBonded = bonding.totalBonded();\r\n\r\n        uint256 totalNodesCount = bonding.stakingNodesAddressCount(roundIndex);\r\n        uint256 updateNodesCount = totalNodesCount > MAX_NODES_PER_UPDATE\r\n            ? MAX_NODES_PER_UPDATE\r\n            : totalNodesCount;\r\n\r\n        address[] memory nodesToUpdate\r\n            = bonding.receiveNodesAtIndex(nodesUpdateIndex, MAX_NODES_PER_UPDATE);\r\n        uint32[] memory nodesActivity = new uint32[](updateNodesCount);\r\n        \r\n        for (uint256 i = 0; i < updateNodesCount; i++) {\r\n            nodesActivity[i]\r\n                = _getCurrentStateForNode(nodesToUpdate[i]).activityCount;\r\n        }\r\n\r\n        bool isFirstAddition = nodesUpdateIndex == 0;\r\n\r\n        bytes memory data = _encodeIMABytes(\r\n            isFirstAddition,\r\n            isFirstAddition ? uint32(stateForRound[roundIndex].totalActivityCount) : 0,\r\n            isFirstAddition ? bonding.totalBonded() : 0,\r\n            nodesToUpdate,\r\n            nodesActivity\r\n        );\r\n\r\n        return data;\r\n    }\r\n\r\n    function debugIncreaseRoundIndex() public onlyOwner {\r\n        roundIndex++;\r\n        bonding.moveToNextRound(roundIndex);\r\n        dissentedUsers = new address[](0);\r\n        nodeVerifierCount = bonding.stakingNodesAddressCount(roundIndex).div(3);\r\n        currentStage = Stages.USER_ADDING_HEART_RATE_DATA;\r\n    }\r\n\r\n    function moveTimeToNextStage() public {\r\n        uint256 timeForStage = timesForStages[uint256(currentStage)];\r\n        lastStageUpdate = now.sub(timeForStage);\r\n    }\r\n}",
  "sourcePath": "C:/Users/mail/Personal/Juri/JuriOracle/contracts/JuriNetworkProxyMock.sol",
  "compiler": {
    "name": "solc",
    "version": "0.5.10+commit.5a6ea5b1.Emscripten.clang"
  },
  "schemaVersion": "3.0.16",
  "updatedAt": "2019-09-30T01:11:23.754Z",
  "devdoc": {
    "methods": {
      "getRegisteredJuriStakingPools()": {
        "details": "Read registered staking pools.\r",
        "return": "The registered staking pools.\r"
      },
      "isOwner()": {
        "return": "true if `msg.sender` is the owner of the contract.\r"
      },
      "owner()": {
        "return": "the address of the owner.\r"
      },
      "renounceOwnership()": {
        "details": "Allows the current owner to relinquish control of the contract.\r It will not be possible to call the functions with the `onlyOwner`\r modifier anymore.\r"
      },
      "transferOwnership(address)": {
        "details": "Allows the current owner to transfer control of the contract to a newOwner.\r",
        "params": {
          "newOwner": "The address to transfer ownership to.\r"
        }
      }
    }
  },
  "userdoc": {
    "methods": {
      "_encodeIMABytes(bool,uint32,uint256,address[],uint32[])": {
        "notice": "PRIVATE METHODS"
      },
      "handleJuriFees(uint256,uint256)": {
        "notice": "INTERFACE METHODS"
      },
      "renounceOwnership()": {
        "notice": "Renouncing ownership will leave the contract without an owner,\r thereby removing any functionality that is only available to the owner.\r"
      }
    }
  }
}