{
  "contractName": "JuriNetworkProxy",
  "abi": [
    {
      "constant": true,
      "inputs": [],
      "name": "skaleFileStorage",
      "outputs": [
        {
          "name": "",
          "type": "address"
        }
      ],
      "payable": false,
      "stateMutability": "view",
      "type": "function"
    },
    {
      "constant": true,
      "inputs": [],
      "name": "currentStage",
      "outputs": [
        {
          "name": "",
          "type": "uint8"
        }
      ],
      "payable": false,
      "stateMutability": "view",
      "type": "function"
    },
    {
      "constant": true,
      "inputs": [],
      "name": "roundIndex",
      "outputs": [
        {
          "name": "",
          "type": "uint256"
        }
      ],
      "payable": false,
      "stateMutability": "view",
      "type": "function"
    },
    {
      "constant": false,
      "inputs": [],
      "name": "renounceOwnership",
      "outputs": [],
      "payable": false,
      "stateMutability": "nonpayable",
      "type": "function"
    },
    {
      "constant": true,
      "inputs": [
        {
          "name": "",
          "type": "uint256"
        }
      ],
      "name": "timesForStages",
      "outputs": [
        {
          "name": "",
          "type": "uint256"
        }
      ],
      "payable": false,
      "stateMutability": "view",
      "type": "function"
    },
    {
      "constant": true,
      "inputs": [],
      "name": "startTime",
      "outputs": [
        {
          "name": "",
          "type": "uint256"
        }
      ],
      "payable": false,
      "stateMutability": "view",
      "type": "function"
    },
    {
      "constant": true,
      "inputs": [
        {
          "name": "",
          "type": "uint256"
        }
      ],
      "name": "dissentedUsers",
      "outputs": [
        {
          "name": "",
          "type": "address"
        }
      ],
      "payable": false,
      "stateMutability": "view",
      "type": "function"
    },
    {
      "constant": true,
      "inputs": [],
      "name": "totalJuriFees",
      "outputs": [
        {
          "name": "",
          "type": "uint256"
        }
      ],
      "payable": false,
      "stateMutability": "view",
      "type": "function"
    },
    {
      "constant": true,
      "inputs": [],
      "name": "owner",
      "outputs": [
        {
          "name": "",
          "type": "address"
        }
      ],
      "payable": false,
      "stateMutability": "view",
      "type": "function"
    },
    {
      "constant": true,
      "inputs": [],
      "name": "lastStageUpdate",
      "outputs": [
        {
          "name": "",
          "type": "uint256"
        }
      ],
      "payable": false,
      "stateMutability": "view",
      "type": "function"
    },
    {
      "constant": true,
      "inputs": [],
      "name": "isOwner",
      "outputs": [
        {
          "name": "",
          "type": "bool"
        }
      ],
      "payable": false,
      "stateMutability": "view",
      "type": "function"
    },
    {
      "constant": true,
      "inputs": [],
      "name": "nodeVerifierCount",
      "outputs": [
        {
          "name": "",
          "type": "uint256"
        }
      ],
      "payable": false,
      "stateMutability": "view",
      "type": "function"
    },
    {
      "constant": true,
      "inputs": [],
      "name": "bonding",
      "outputs": [
        {
          "name": "",
          "type": "address"
        }
      ],
      "payable": false,
      "stateMutability": "view",
      "type": "function"
    },
    {
      "constant": true,
      "inputs": [
        {
          "name": "",
          "type": "uint256"
        }
      ],
      "name": "registeredJuriStakingPools",
      "outputs": [
        {
          "name": "",
          "type": "address"
        }
      ],
      "payable": false,
      "stateMutability": "view",
      "type": "function"
    },
    {
      "constant": true,
      "inputs": [],
      "name": "juriFeesToken",
      "outputs": [
        {
          "name": "",
          "type": "address"
        }
      ],
      "payable": false,
      "stateMutability": "view",
      "type": "function"
    },
    {
      "constant": true,
      "inputs": [
        {
          "name": "",
          "type": "address"
        }
      ],
      "name": "isRegisteredJuriStakingPool",
      "outputs": [
        {
          "name": "",
          "type": "bool"
        }
      ],
      "payable": false,
      "stateMutability": "view",
      "type": "function"
    },
    {
      "constant": false,
      "inputs": [
        {
          "name": "newOwner",
          "type": "address"
        }
      ],
      "name": "transferOwnership",
      "outputs": [],
      "payable": false,
      "stateMutability": "nonpayable",
      "type": "function"
    },
    {
      "inputs": [
        {
          "name": "_juriFeesToken",
          "type": "address"
        },
        {
          "name": "_juriToken",
          "type": "address"
        },
        {
          "name": "_skaleFileStorage",
          "type": "address"
        },
        {
          "name": "_juriFoundation",
          "type": "address"
        },
        {
          "name": "_timeForAddingHeartRateData",
          "type": "uint256"
        },
        {
          "name": "_timeForCommitmentStage",
          "type": "uint256"
        },
        {
          "name": "_timeForRevealStage",
          "type": "uint256"
        },
        {
          "name": "_timeForDissentStage",
          "type": "uint256"
        },
        {
          "name": "_timeForDissentCommitmentStage",
          "type": "uint256"
        },
        {
          "name": "_timeForDissentRevealStage",
          "type": "uint256"
        },
        {
          "name": "_timeForSlashingStage",
          "type": "uint256"
        },
        {
          "name": "_minStakePerNode",
          "type": "uint256"
        },
        {
          "name": "_offlinePenalty",
          "type": "uint256"
        },
        {
          "name": "_notRevealPenalty",
          "type": "uint256"
        },
        {
          "name": "_incorrectResultPenalty",
          "type": "uint256"
        },
        {
          "name": "_incorrectDissentPenalty",
          "type": "uint256"
        }
      ],
      "payable": false,
      "stateMutability": "nonpayable",
      "type": "constructor"
    },
    {
      "anonymous": false,
      "inputs": [
        {
          "indexed": false,
          "name": "user",
          "type": "address"
        },
        {
          "indexed": false,
          "name": "removedNode",
          "type": "address"
        }
      ],
      "name": "RemovedMax",
      "type": "event"
    },
    {
      "anonymous": false,
      "inputs": [
        {
          "indexed": false,
          "name": "user",
          "type": "address"
        },
        {
          "indexed": false,
          "name": "node",
          "type": "address"
        },
        {
          "indexed": false,
          "name": "verifierHash",
          "type": "bytes32"
        }
      ],
      "name": "AddedVerifierHash",
      "type": "event"
    },
    {
      "anonymous": false,
      "inputs": [
        {
          "indexed": false,
          "name": "maxVerifierHash",
          "type": "bytes32"
        }
      ],
      "name": "OLD_MAX",
      "type": "event"
    },
    {
      "anonymous": false,
      "inputs": [
        {
          "indexed": false,
          "name": "maxVerifierHash",
          "type": "bytes32"
        }
      ],
      "name": "NEW_MAX",
      "type": "event"
    },
    {
      "anonymous": false,
      "inputs": [
        {
          "indexed": true,
          "name": "previousOwner",
          "type": "address"
        },
        {
          "indexed": true,
          "name": "newOwner",
          "type": "address"
        }
      ],
      "name": "OwnershipTransferred",
      "type": "event"
    },
    {
      "constant": false,
      "inputs": [
        {
          "name": "_poolAddress",
          "type": "address"
        }
      ],
      "name": "registerJuriStakingPool",
      "outputs": [],
      "payable": false,
      "stateMutability": "nonpayable",
      "type": "function"
    },
    {
      "constant": false,
      "inputs": [
        {
          "name": "_poolAddress",
          "type": "address"
        },
        {
          "name": "_removalIndex",
          "type": "uint256"
        }
      ],
      "name": "removeJuriStakingPool",
      "outputs": [],
      "payable": false,
      "stateMutability": "nonpayable",
      "type": "function"
    },
    {
      "constant": false,
      "inputs": [],
      "name": "debugIncreaseRoundIndex",
      "outputs": [],
      "payable": false,
      "stateMutability": "nonpayable",
      "type": "function"
    },
    {
      "constant": false,
      "inputs": [],
      "name": "moveToNextStage",
      "outputs": [],
      "payable": false,
      "stateMutability": "nonpayable",
      "type": "function"
    },
    {
      "constant": false,
      "inputs": [],
      "name": "moveToUserAddingHeartRateDataStage",
      "outputs": [],
      "payable": false,
      "stateMutability": "nonpayable",
      "type": "function"
    },
    {
      "constant": false,
      "inputs": [],
      "name": "moveToNextRound",
      "outputs": [],
      "payable": false,
      "stateMutability": "nonpayable",
      "type": "function"
    },
    {
      "constant": false,
      "inputs": [],
      "name": "moveToDissentPeriod",
      "outputs": [],
      "payable": false,
      "stateMutability": "nonpayable",
      "type": "function"
    },
    {
      "constant": false,
      "inputs": [],
      "name": "moveToSlashingPeriod",
      "outputs": [],
      "payable": false,
      "stateMutability": "nonpayable",
      "type": "function"
    },
    {
      "constant": false,
      "inputs": [],
      "name": "moveFromDissentToNextPeriod",
      "outputs": [],
      "payable": false,
      "stateMutability": "nonpayable",
      "type": "function"
    },
    {
      "constant": false,
      "inputs": [
        {
          "name": "_userWorkoutSignature",
          "type": "bytes32"
        },
        {
          "name": "_heartRateDataStoragePath",
          "type": "string"
        }
      ],
      "name": "addHeartRateDateForPoolUser",
      "outputs": [],
      "payable": false,
      "stateMutability": "nonpayable",
      "type": "function"
    },
    {
      "constant": false,
      "inputs": [
        {
          "name": "_users",
          "type": "address[]"
        },
        {
          "name": "_wasCompliantDataCommitments",
          "type": "bytes32[]"
        },
        {
          "name": "_proofIndices",
          "type": "uint256[]"
        }
      ],
      "name": "addWasCompliantDataCommitmentsForUsers",
      "outputs": [],
      "payable": false,
      "stateMutability": "nonpayable",
      "type": "function"
    },
    {
      "constant": false,
      "inputs": [
        {
          "name": "_users",
          "type": "address[]"
        },
        {
          "name": "_wasCompliantDataCommitments",
          "type": "bytes32[]"
        }
      ],
      "name": "addDissentWasCompliantDataCommitmentsForUsers",
      "outputs": [],
      "payable": false,
      "stateMutability": "nonpayable",
      "type": "function"
    },
    {
      "constant": false,
      "inputs": [
        {
          "name": "_users",
          "type": "address[]"
        },
        {
          "name": "_wasCompliantData",
          "type": "bool[]"
        },
        {
          "name": "_randomNonces",
          "type": "bytes32[]"
        }
      ],
      "name": "addWasCompliantDataForUsers",
      "outputs": [],
      "payable": false,
      "stateMutability": "nonpayable",
      "type": "function"
    },
    {
      "constant": false,
      "inputs": [
        {
          "name": "_users",
          "type": "address[]"
        },
        {
          "name": "_wasCompliantData",
          "type": "bool[]"
        },
        {
          "name": "_randomNonces",
          "type": "bytes32[]"
        }
      ],
      "name": "addDissentWasCompliantDataForUsers",
      "outputs": [],
      "payable": false,
      "stateMutability": "nonpayable",
      "type": "function"
    },
    {
      "constant": false,
      "inputs": [
        {
          "name": "_users",
          "type": "address[]"
        }
      ],
      "name": "dissentToAcceptedAnswers",
      "outputs": [],
      "payable": false,
      "stateMutability": "nonpayable",
      "type": "function"
    },
    {
      "constant": false,
      "inputs": [
        {
          "name": "_roundIndex",
          "type": "uint256"
        }
      ],
      "name": "retrieveRoundJuriFees",
      "outputs": [],
      "payable": false,
      "stateMutability": "nonpayable",
      "type": "function"
    },
    {
      "constant": true,
      "inputs": [
        {
          "name": "_roundIndex",
          "type": "uint256"
        },
        {
          "name": "_user",
          "type": "address"
        }
      ],
      "name": "getUserWorkAssignmentHashes",
      "outputs": [
        {
          "name": "",
          "type": "uint256[]"
        }
      ],
      "payable": false,
      "stateMutability": "view",
      "type": "function"
    },
    {
      "constant": true,
      "inputs": [
        {
          "name": "_roundIndex",
          "type": "uint256"
        },
        {
          "name": "_user",
          "type": "address"
        }
      ],
      "name": "getDissented",
      "outputs": [
        {
          "name": "",
          "type": "bool"
        }
      ],
      "payable": false,
      "stateMutability": "view",
      "type": "function"
    },
    {
      "constant": true,
      "inputs": [
        {
          "name": "_roundIndex",
          "type": "uint256"
        },
        {
          "name": "_user",
          "type": "address"
        }
      ],
      "name": "getComplianceDataBeforeDissent",
      "outputs": [
        {
          "name": "",
          "type": "int256"
        }
      ],
      "payable": false,
      "stateMutability": "view",
      "type": "function"
    },
    {
      "constant": true,
      "inputs": [
        {
          "name": "_roundIndex",
          "type": "uint256"
        },
        {
          "name": "_node",
          "type": "address"
        },
        {
          "name": "_user",
          "type": "address"
        }
      ],
      "name": "getHasRevealed",
      "outputs": [
        {
          "name": "",
          "type": "bool"
        }
      ],
      "payable": false,
      "stateMutability": "view",
      "type": "function"
    },
    {
      "constant": true,
      "inputs": [
        {
          "name": "_roundIndex",
          "type": "uint256"
        },
        {
          "name": "_node",
          "type": "address"
        }
      ],
      "name": "getNodeActivityCount",
      "outputs": [
        {
          "name": "",
          "type": "uint256"
        }
      ],
      "payable": false,
      "stateMutability": "view",
      "type": "function"
    },
    {
      "constant": true,
      "inputs": [
        {
          "name": "_roundIndex",
          "type": "uint256"
        }
      ],
      "name": "getTotalActivityCount",
      "outputs": [
        {
          "name": "",
          "type": "uint256"
        }
      ],
      "payable": false,
      "stateMutability": "view",
      "type": "function"
    },
    {
      "constant": true,
      "inputs": [
        {
          "name": "_roundIndex",
          "type": "uint256"
        },
        {
          "name": "_node",
          "type": "address"
        },
        {
          "name": "_user",
          "type": "address"
        }
      ],
      "name": "getUserComplianceDataCommitment",
      "outputs": [
        {
          "name": "",
          "type": "bytes32"
        }
      ],
      "payable": false,
      "stateMutability": "view",
      "type": "function"
    },
    {
      "constant": true,
      "inputs": [
        {
          "name": "_roundIndex",
          "type": "uint256"
        },
        {
          "name": "_node",
          "type": "address"
        },
        {
          "name": "_user",
          "type": "address"
        }
      ],
      "name": "getGivenNodeResult",
      "outputs": [
        {
          "name": "",
          "type": "bool"
        }
      ],
      "payable": false,
      "stateMutability": "view",
      "type": "function"
    },
    {
      "constant": true,
      "inputs": [
        {
          "name": "_roundIndex",
          "type": "uint256"
        },
        {
          "name": "_node",
          "type": "address"
        },
        {
          "name": "_user",
          "type": "address"
        }
      ],
      "name": "getWasAssignedToUser",
      "outputs": [
        {
          "name": "",
          "type": "bool"
        }
      ],
      "payable": false,
      "stateMutability": "view",
      "type": "function"
    },
    {
      "constant": true,
      "inputs": [
        {
          "name": "_roundIndex",
          "type": "uint256"
        },
        {
          "name": "_node",
          "type": "address"
        },
        {
          "name": "_user",
          "type": "address"
        }
      ],
      "name": "getHasDissented",
      "outputs": [
        {
          "name": "",
          "type": "bool"
        }
      ],
      "payable": false,
      "stateMutability": "view",
      "type": "function"
    },
    {
      "constant": true,
      "inputs": [
        {
          "name": "_roundIndex",
          "type": "uint256"
        },
        {
          "name": "_user",
          "type": "address"
        }
      ],
      "name": "getUserComplianceData",
      "outputs": [
        {
          "name": "",
          "type": "int256"
        }
      ],
      "payable": false,
      "stateMutability": "view",
      "type": "function"
    },
    {
      "constant": true,
      "inputs": [
        {
          "name": "_roundIndex",
          "type": "uint256"
        },
        {
          "name": "_user",
          "type": "address"
        }
      ],
      "name": "getUserWorkoutSignature",
      "outputs": [
        {
          "name": "",
          "type": "bytes32"
        }
      ],
      "payable": false,
      "stateMutability": "view",
      "type": "function"
    },
    {
      "constant": true,
      "inputs": [],
      "name": "getRegisteredJuriStakingPools",
      "outputs": [
        {
          "name": "",
          "type": "address[]"
        }
      ],
      "payable": false,
      "stateMutability": "view",
      "type": "function"
    },
    {
      "constant": true,
      "inputs": [],
      "name": "getDissentedUsers",
      "outputs": [
        {
          "name": "",
          "type": "address[]"
        }
      ],
      "payable": false,
      "stateMutability": "view",
      "type": "function"
    },
    {
      "constant": true,
      "inputs": [
        {
          "name": "_user",
          "type": "address"
        }
      ],
      "name": "getCurrentHighestHashForUser",
      "outputs": [
        {
          "name": "",
          "type": "uint256"
        }
      ],
      "payable": false,
      "stateMutability": "view",
      "type": "function"
    }
  ],
  "bytecode": "0x60806040523480156200001157600080fd5b50604051620073d2380380620073d283398181016040526102008110156200003857600080fd5b8101908080519060200190929190805190602001909291908051906020019092919080519060200190929190805190602001909291908051906020019092919080519060200190929190805190602001909291908051906020019092919080519060200190929190805190602001909291908051906020019092919080519060200190929190805190602001909291908051906020019092919080519060200190929190505050336000806101000a8154816001600160a01b0302191690836001600160a01b031602179055506000809054906101000a90046001600160a01b03166001600160a01b031660006001600160a01b03167f8be0079c531659141344cd1fd0a4f28419497f9722a3daafe3b4186f6b6457e060405160405180910390a3600b60208190527fdf7de25b7f1fd6d0b5205f0e18f1f35bd7b8d84cce336588d184533ce43a6f768d90557f72c6bfb7988af3a1efa6568f02a999bc52252641c659d85961ca3d372b57d5cf8c90557fa50eece07c7db1631545c0069bd8f5f54d5935e215d59097edf258a44ba916348b90557f64c15cc42be7899b001f818cf4433057002112c418d1d3a67cd5cb453051d33e8a90557f12d0c11577e2f0950f57c455c117796550b79f444811db8ba2f69c57b646c784899055600560009081527febae6141bae5521e99e0a8d610356b0f501fea54980b59c84841db43ba7204f48990558791906006815260200190815260200160002081905550308f8e87878787876040516200026d90620003ee565b6001600160a01b0398891681529688166020880152949096166040808701919091526060860193909352608085019190915260a084015260c083019390935260e082015290519081900361010001906000f080158015620002d2573d6000803e3d6000fd5b50600160006101000a8154816001600160a01b0302191690836001600160a01b031602179055506001600c6000600160009054906101000a90046001600160a01b03166001600160a01b03166001600160a01b0316815260200190815260200160002060006101000a81548160ff0219169083151502179055508d600360006101000a8154816001600160a01b0302191690836001600160a01b031602179055508f600260006101000a8154816001600160a01b0302191690836001600160a01b031602179055506000600360146101000a81548160ff02191690836006811115620003ba57fe5b021790555050600060048190554260058190556006556007555050600160085550620003fc9b505050505050505050505050565b6130bd806200431583390190565b613f09806200040c6000396000f3fe608060405234801561001057600080fd5b50600436106102a05760003560e01c80637f1daea211610167578063dcdd653a116100ce578063e881602311610087578063e881602314610c47578063ecd8b0ff14610c73578063ed860dc514610c99578063eff4b6d914610e3e578063f2268c0614610e72578063f2fde38b14610e9e576102a0565b8063dcdd653a14610bc7578063dfe005fe14610bcf578063dfe42ee114610c03578063e57797d514610c0b578063e6d50d3714610c13578063e754671414610c1b576102a0565b806396623d191161012057806396623d1914610b065780639845755914610b3a5780639bfe963314610b42578063b8793da914610b6e578063ca35c13414610b76578063cc200a0814610baa576102a0565b80637f1daea214610aaa57806382bebb1f14610ade5780638da5cb5b14610ae65780638e42332514610aee5780638f32d59b14610af657806394a484d114610afe576102a0565b806359ef88d41161020b578063658ed174116101c4578063658ed174146109a25780636e51b2d4146109bf578063715018a614610a6057806371e5dda914610a6857806378e9792514610a8557806379c6966f14610a8d576102a0565b806359ef88d41461090c5780635bf5d54c1461091457806360239d371461094057806364147c4914610948578063648036ae1461096e57806364a5511f14610976576102a0565b806326b158cd1161025d57806326b158cd146104385780633241d9ea1461045c57806334b90e0a146106015780633f94ce541461062757806343c70cee1461064457806343e23bf2146107e9576102a0565b806302362805146102a557806305732b70146102e357806307a35f37146102ed5780630a9699061461039857806310f40736146103a057806319e00d68146103f8575b600080fd5b6102d1600480360360408110156102bb57600080fd5b50803590602001356001600160a01b0316610ec4565b60408051918252519081900360200190f35b6102eb610ef1565b005b6102eb6004803603604081101561030357600080fd5b81359190810190604081016020820135600160201b81111561032457600080fd5b82018360208201111561033657600080fd5b803590602001918460018302840111600160201b8311171561035757600080fd5b91908080601f01602080910402602001604051908101604052809392919081815260200183838082843760009201919091525092955061100a945050505050565b6102eb6112a0565b6103a8611494565b60408051602080825283518183015283519192839290830191858101910280838360005b838110156103e45781810151838201526020016103cc565b505050509050019250505060405180910390f35b6104246004803603604081101561040e57600080fd5b50803590602001356001600160a01b03166114f7565b604080519115158252519081900360200190f35b610440611525565b604080516001600160a01b039092168252519081900360200190f35b6102eb6004803603606081101561047257600080fd5b810190602081018135600160201b81111561048c57600080fd5b82018360208201111561049e57600080fd5b803590602001918460208302840111600160201b831117156104bf57600080fd5b9190808060200260200160405190810160405280939291908181526020018383602002808284376000920191909152509295949360208101935035915050600160201b81111561050e57600080fd5b82018360208201111561052057600080fd5b803590602001918460208302840111600160201b8311171561054157600080fd5b9190808060200260200160405190810160405280939291908181526020018383602002808284376000920191909152509295949360208101935035915050600160201b81111561059057600080fd5b8201836020820111156105a257600080fd5b803590602001918460208302840111600160201b831117156105c357600080fd5b919080806020026020016040519081016040528093929190818152602001838360200280828437600092019190915250929550611534945050505050565b6102eb6004803603602081101561061757600080fd5b50356001600160a01b031661165a565b6102d16004803603602081101561063d57600080fd5b5035611703565b6102eb6004803603606081101561065a57600080fd5b810190602081018135600160201b81111561067457600080fd5b82018360208201111561068657600080fd5b803590602001918460208302840111600160201b831117156106a757600080fd5b9190808060200260200160405190810160405280939291908181526020018383602002808284376000920191909152509295949360208101935035915050600160201b8111156106f657600080fd5b82018360208201111561070857600080fd5b803590602001918460208302840111600160201b8311171561072957600080fd5b9190808060200260200160405190810160405280939291908181526020018383602002808284376000920191909152509295949360208101935035915050600160201b81111561077857600080fd5b82018360208201111561078a57600080fd5b803590602001918460208302840111600160201b831117156107ab57600080fd5b919080806020026020016040519081016040528093929190818152602001838360200280828437600092019190915250929550611718945050505050565b6102eb600480360360408110156107ff57600080fd5b810190602081018135600160201b81111561081957600080fd5b82018360208201111561082b57600080fd5b803590602001918460208302840111600160201b8311171561084c57600080fd5b9190808060200260200160405190810160405280939291908181526020018383602002808284376000920191909152509295949360208101935035915050600160201b81111561089b57600080fd5b8201836020820111156108ad57600080fd5b803590602001918460208302840111600160201b831117156108ce57600080fd5b919080806020026020016040519081016040528093929190818152602001838360200280828437600092019190915250929550611838945050505050565b6103a8611966565b61091c6119c6565b6040518082600681111561092c57fe5b60ff16815260200191505060405180910390f35b6102eb6119d6565b6102d16004803603602081101561095e57600080fd5b50356001600160a01b03166119de565b6102d1611b18565b6103a86004803603604081101561098c57600080fd5b50803590602001356001600160a01b0316611b1e565b6102eb600480360360208110156109b857600080fd5b5035611c21565b6102eb600480360360208110156109d557600080fd5b810190602081018135600160201b8111156109ef57600080fd5b820183602082011115610a0157600080fd5b803590602001918460208302840111600160201b83111715610a2257600080fd5b919080806020026020016040519081016040528093929190818152602001838360200280828437600092019190915250929550611e51945050505050565b6102eb612207565b6102d160048036036020811015610a7e57600080fd5b5035612294565b6102d16122a6565b61044060048036036020811015610aa357600080fd5b50356122ac565b61042460048036036060811015610ac057600080fd5b508035906001600160a01b03602082013581169160400135166122d3565b6102d161231a565b610440612320565b6102d161232f565b610424612335565b6102d1612346565b6102d160048036036060811015610b1c57600080fd5b508035906001600160a01b036020820135811691604001351661234c565b61044061237f565b6102eb60048036036040811015610b5857600080fd5b506001600160a01b03813516906020013561238e565b6102eb61251d565b61042460048036036060811015610b8c57600080fd5b508035906001600160a01b036020820135811691604001351661279f565b61044060048036036020811015610bc057600080fd5b50356127e1565b6102eb6127ee565b61042460048036036060811015610be557600080fd5b508035906001600160a01b0360208201358116916040013516612846565b6102eb612882565b6102eb61288a565b6104406128a4565b6102d160048036036040811015610c3157600080fd5b50803590602001356001600160a01b03166128b3565b6102d160048036036040811015610c5d57600080fd5b50803590602001356001600160a01b031661292d565b61042460048036036020811015610c8957600080fd5b50356001600160a01b031661295c565b6102eb60048036036060811015610caf57600080fd5b810190602081018135600160201b811115610cc957600080fd5b820183602082011115610cdb57600080fd5b803590602001918460208302840111600160201b83111715610cfc57600080fd5b9190808060200260200160405190810160405280939291908181526020018383602002808284376000920191909152509295949360208101935035915050600160201b811115610d4b57600080fd5b820183602082011115610d5d57600080fd5b803590602001918460208302840111600160201b83111715610d7e57600080fd5b9190808060200260200160405190810160405280939291908181526020018383602002808284376000920191909152509295949360208101935035915050600160201b811115610dcd57600080fd5b820183602082011115610ddf57600080fd5b803590602001918460208302840111600160201b83111715610e0057600080fd5b919080806020026020016040519081016040528093929190818152602001838360200280828437600092019190915250929550612971945050505050565b61042460048036036060811015610e5457600080fd5b508035906001600160a01b0360208201358116916040013516612a36565b6102d160048036036040811015610e8857600080fd5b50803590602001356001600160a01b0316612a77565b6102eb60048036036020811015610eb457600080fd5b50356001600160a01b0316612aa2565b6000828152600d602090815260408083206001600160a01b03851684529091529020600301545b92915050565b6003805b600354600160a01b900460ff166006811115610f0d57fe5b14610f495760405162461bcd60e51b8152600401808060200182810382526027815260200180613d656027913960400191505060405180910390fd5b6000600b6000600360149054906101000a900460ff166006811115610f6a57fe5b815260208101919091526040016000205490506006600354600160a01b900460ff166006811115610f9757fe5b1415610fe5576000610fb460055442612af190919063ffffffff16565b90506000610fcd83600454612b4390919063ffffffff16565b9050808210610fde57610fde612ba6565b5050611006565b600654610ff8908263ffffffff612bed16565b421061100657611006612ba6565b5050565b6000600b6000600360149054906101000a900460ff16600681111561102b57fe5b815260208101919091526040016000205490506006600354600160a01b900460ff16600681111561105857fe5b14156110a657600061107560055442612af190919063ffffffff16565b9050600061108e83600454612b4390919063ffffffff16565b905080821061109f5761109f612ba6565b50506110c7565b6006546110b9908263ffffffff612bed16565b42106110c7576110c7612ba6565b600080600354600160a01b900460ff1660068111156110e257fe5b1461111e5760405162461bcd60e51b8152600401808060200182810382526027815260200180613d656027913960400191505060405180910390fd5b600354604051630917a7dd60e11b81526020600482018181528651602484015286516000946001600160a01b03169363122f4fba938993928392604401918501908083838b5b8381101561117c578181015183820152602001611164565b50505050905090810190601f1680156111a95780820380516001836020036101000a031916815260200191505b5092505050602060405180830381600087803b1580156111c857600080fd5b505af11580156111dc573d6000803e3d6000fd5b505050506040513d60208110156111f257600080fd5b50519050600260ff82161461124e576040805162461bcd60e51b815260206004820152601b60248201527f496e76616c69642073746f726167652070617468207061737365640000000000604482015290519081900360640190fd5b600480546000908152600d60208181526040808420338086529083528185206003018b90558554855292825280842092845291815291208651611298939190910191870190613a6c565b505050505050565b6112a8612335565b6112e35760405162461bcd60e51b8152600401808060200182810382526021815260200180613d446021913960400191505060405180910390fd5b60048054600190810180835590546040805163044c170760e41b81529384019290925290516001600160a01b03909116916344c1707091602480830192600092919082900301818387803b15801561133a57600080fd5b505af115801561134e573d6000803e3d6000fd5b5050604080516000815260208101918290525161136f9350600a9250613aea565b506114086003600160009054906101000a90046001600160a01b03166001600160a01b031663d57632ea6004546040518263ffffffff1660e01b81526004018082815260200191505060206040518083038186803b1580156113d057600080fd5b505afa1580156113e4573d6000803e3d6000fd5b505050506040513d60208110156113fa57600080fd5b50519063ffffffff612c3b16565b600855600254604080516370a0823160e01b815230600482015290516001600160a01b03909216916370a0823191602480820192602092909190829003018186803b15801561145657600080fd5b505afa15801561146a573d6000803e3d6000fd5b505050506040513d602081101561148057600080fd5b50516007556003805460ff60a01b19169055565b6060600a8054806020026020016040519081016040528092919081815260200182805480156114ec57602002820191906000526020600020905b81546001600160a01b031681526001909101906020018083116114ce575b505050505090505b90565b6000918252600d602090815260408084206001600160a01b0393909316845291905290206005015460ff1690565b6003546001600160a01b031681565b6000600b6000600360149054906101000a900460ff16600681111561155557fe5b815260208101919091526040016000205490506006600354600160a01b900460ff16600681111561158257fe5b14156115d057600061159f60055442612af190919063ffffffff16565b905060006115b883600454612b4390919063ffffffff16565b90508082106115c9576115c9612ba6565b50506115f1565b6006546115e3908263ffffffff612bed16565b42106115f1576115f1612ba6565b600180600354600160a01b900460ff16600681111561160c57fe5b146116485760405162461bcd60e51b8152600401808060200182810382526027815260200180613d656027913960400191505060405180910390fd5b611653858585612ca5565b5050505050565b611662612335565b61169d5760405162461bcd60e51b8152600401808060200182810382526021815260200180613d446021913960400191505060405180910390fd5b6001600160a01b03166000818152600c60205260408120805460ff191660019081179091556009805491820181559091527f6e1540171b6c0c960b71a7020d9f60077f6af931a8bbf590da0223dacf75c7af0180546001600160a01b0319169091179055565b6000908152600d602052604090206002015490565b6000600b6000600360149054906101000a900460ff16600681111561173957fe5b815260208101919091526040016000205490506006600354600160a01b900460ff16600681111561176657fe5b14156117b457600061178360055442612af190919063ffffffff16565b9050600061179c83600454612b4390919063ffffffff16565b90508082106117ad576117ad612ba6565b50506117d5565b6006546117c7908263ffffffff612bed16565b42106117d5576117d5612ba6565b6002805b600354600160a01b900460ff1660068111156117f157fe5b1461182d5760405162461bcd60e51b8152600401808060200182810382526027815260200180613d656027913960400191505060405180910390fd5b611653858585612f4b565b6000600b6000600360149054906101000a900460ff16600681111561185957fe5b815260208101919091526040016000205490506006600354600160a01b900460ff16600681111561188657fe5b14156118d45760006118a360055442612af190919063ffffffff16565b905060006118bc83600454612b4390919063ffffffff16565b90508082106118cd576118cd612ba6565b50506118f5565b6006546118e7908263ffffffff612bed16565b42106118f5576118f5612ba6565b600480600354600160a01b900460ff16600681111561191057fe5b1461194c5760405162461bcd60e51b8152600401808060200182810382526027815260200180613d656027913960400191505060405180910390fd5b604080516000815260208101909152611653858583612ca5565b606060098054806020026020016040519081016040528092919081815260200182805480156114ec576020028201919060005260206000209081546001600160a01b031681526001909101906020018083116114ce575050505050905090565b600354600160a01b900460ff1681565b600280610ef5565b6000806119ea8361328a565b600001905060008173__MaxHeapLibrary________________________634959698990916040518263ffffffff1660e01b81526004018082815260200191505060206040518083038186803b158015611a4257600080fd5b505af4158015611a56573d6000803e3d6000fd5b505050506040513d6020811015611a6c57600080fd5b50519050600081611a7e576000611b0f565b8273__MaxHeapLibrary________________________63b9f7ccc990916040518263ffffffff1660e01b81526004018082815260200191505060206040518083038186803b158015611acf57600080fd5b505af4158015611ae3573d6000803e3d6000fd5b505050506040513d601f19601f820116820180604052506020811015611b0857600080fd5b5051600101545b95945050505050565b60045481565b6000828152600d602090815260408083206001600160a01b0385168452909152808220815163203df14760e01b81526004810191909152905160609273__MaxHeapLibrary________________________9263203df1479260248083019392829003018186803b158015611b9157600080fd5b505af4158015611ba5573d6000803e3d6000fd5b505050506040513d6000823e601f3d908101601f191682016040526020811015611bce57600080fd5b810190808051600160201b811115611be557600080fd5b82016020810184811115611bf857600080fd5b81518560208202830111600160201b82111715611c1457600080fd5b5090979650505050505050565b33611c2a613b4b565b506000828152600d602090815260408083206001600160a01b0385168452600190810183529281902081518083019092529283015460ff16151581526002909201549082018190526004548410611cc8576040805162461bcd60e51b815260206004820152601760248201527f526f756e64206e6f74207965742066696e697368656421000000000000000000604482015290519081900360640190fd5b815115611d065760405162461bcd60e51b815260040180806020018281038252602e815260200180613ca7602e913960400191505060405180910390fd5b60008111611d455760405162461bcd60e51b8152600401808060200182810382526024815260200180613e886024913960400191505060405180910390fd5b6000848152600d6020526040812060020154620f424091611d7c82611d70868663ffffffff612b4316565b9063ffffffff612c3b16565b90506000611d9984611d7084600754612b4390919063ffffffff16565b6000898152600d602090815260408083206001600160a01b03808d16808652600192830185528386208301805460ff1916909317909255600254835163a9059cbb60e01b81526004810193909352602483018790529251959650919091169363a9059cbb93604480840194938390030190829087803b158015611e1b57600080fd5b505af1158015611e2f573d6000803e3d6000fd5b505050506040513d6020811015611e4557600080fd5b50505050505050505050565b6000600b6000600360149054906101000a900460ff166006811115611e7257fe5b815260208101919091526040016000205490506006600354600160a01b900460ff166006811115611e9f57fe5b1415611eed576000611ebc60055442612af190919063ffffffff16565b90506000611ed583600454612b4390919063ffffffff16565b9050808210611ee657611ee6612ba6565b5050611f0e565b600654611f00908263ffffffff612bed16565b4210611f0e57611f0e612ba6565b600380600354600160a01b900460ff166006811115611f2957fe5b14611f655760405162461bcd60e51b8152600401808060200182810382526027815260200180613d656027913960400191505060405180910390fd5b336000805b8551811015612002576000868281518110611f8157fe5b60200260200101519050611f9584826132b3565b600101546301000000900460ff16611fde5760405162461bcd60e51b8152600401808060200182810382526028815260200180613bf36028913960400191505060405180910390fd5b611fe78161328a565b6005015460ff16611ff9576001909201915b50600101611f6a565b5060008111612058576040805162461bcd60e51b815260206004820152601d60248201527f5573657273207765726520616c72656164792064697373656e74656421000000604482015290519081900360640190fd5b606081604051908082528060200260200182016040528015612084578160200160208202803883390190505b5090506000805b8751811015612102576120b08882815181106120a357fe5b602002602001015161328a565b6005015460ff166120fa578781815181106120c757fe5b60200260200101518383815181106120db57fe5b6001600160a01b03909216602092830291909101909101526001909101905b60010161208b565b5060005b82518110156121fd57600083828151811061211d57fe5b602002602001015190506121308161328a565b60020154600480546000908152600d602081815260408084206001600160a01b03978816808652908352818520600190810197909755855485528383528185208186528352818520600501805460ff19168817905594548452918152818320958b16835294840185528082208383529094529283208201805462ff0000191662010000179055600a8054808401825593527fc65a7bb8d6351c1cf70c95a316cc6a92839c986682d98bc35f958f4883f9d2a890920180546001600160a01b03191690921790915501612106565b5050505050505050565b61220f612335565b61224a5760405162461bcd60e51b8152600401808060200182810382526021815260200180613d446021913960400191505060405180910390fd5b600080546040516001600160a01b03909116907f8be0079c531659141344cd1fd0a4f28419497f9722a3daafe3b4186f6b6457e0908390a3600080546001600160a01b0319169055565b600b6020526000908152604090205481565b60055481565b600a81815481106122b957fe5b6000918252602090912001546001600160a01b0316905081565b6000838152600d602090815260408083206001600160a01b03868116855260019182018452828520908616855290925290912001546301000000900460ff165b9392505050565b60075481565b6000546001600160a01b031690565b60065481565b6000546001600160a01b0316331490565b60085481565b6000928352600d602090815260408085206001600160a01b03948516865260010182528085209290931684525290205490565b6001546001600160a01b031681565b612396612335565b6123d15760405162461bcd60e51b8152600401808060200182810382526021815260200180613d446021913960400191505060405180910390fd5b60095461240f5760405162461bcd60e51b815260040180806020018281038252602c815260200180613db2602c913960400191505060405180910390fd5b816001600160a01b03166009828154811061242657fe5b6000918252602090912001546001600160a01b0316146124775760405162461bcd60e51b8152600401808060200182810382526026815260200180613d8c6026913960400191505060405180910390fd5b6001600160a01b0382166000908152600c60205260409020805460ff19169055600980546124ac90600163ffffffff612af116565b815481106124b657fe5b600091825260209091200154600980546001600160a01b0390921691839081106124dc57fe5b600091825260209091200180546001600160a01b0319166001600160a01b03929092169190911790556009805490612518906000198301613b62565b505050565b600680600354600160a01b900460ff16600681111561253857fe5b146125745760405162461bcd60e51b8152600401808060200182810382526027815260200180613d656027913960400191505060405180910390fd5b6000600b6000600360149054906101000a900460ff16600681111561259557fe5b815260208101919091526040016000205490506006600354600160a01b900460ff1660068111156125c257fe5b14156126105760006125df60055442612af190919063ffffffff16565b905060006125f883600454612b4390919063ffffffff16565b905080821061260957612609612ba6565b5050612631565b600654612623908263ffffffff612bed16565b421061263157612631612ba6565b60048054600190810180835590546040805163044c170760e41b81529384019290925290516001600160a01b03909116916344c1707091602480830192600092919082900301818387803b15801561268857600080fd5b505af115801561269c573d6000803e3d6000fd5b505060408051600081526020810191829052516126bd9350600a9250613aea565b5061271e6003600160009054906101000a90046001600160a01b03166001600160a01b031663d57632ea6004546040518263ffffffff1660e01b81526004018082815260200191505060206040518083038186803b1580156113d057600080fd5b600855600254604080516370a0823160e01b815230600482015290516001600160a01b03909216916370a0823191602480820192602092909190829003018186803b15801561276c57600080fd5b505afa158015612780573d6000803e3d6000fd5b505050506040513d602081101561279657600080fd5b50516007555050565b6000928352600d602090815260408085206001600160a01b03948516865260019081018352818620939094168552919052909120015462010000900460ff1690565b600981815481106122b957fe5b600354600790600160a01b900460ff16600681111561280957fe5b6001018161281357fe5b06600681111561281f57fe5b6003805460ff60a01b1916600160a01b83600681111561283b57fe5b021790555042600655565b6000928352600d602090815260408085206001600160a01b03948516865260019081018352818620939094168552919052909120015460ff1690565b600580610ef5565b600380546000919060ff60a01b1916600160a01b8361283b565b6002546001600160a01b031681565b336000908152600c602052604081205460ff166129015760405162461bcd60e51b815260040180806020018281038252602b815260200180613c7c602b913960400191505060405180910390fd5b506000918252600d602090815260408084206001600160a01b0393909316845291905290206002015490565b6000828152600d602090815260408083206001600160a01b038516845260010190915290206002015492915050565b600c6020526000908152604090205460ff1681565b6000600b6000600360149054906101000a900460ff16600681111561299257fe5b815260208101919091526040016000205490506006600354600160a01b900460ff1660068111156129bf57fe5b1415612a0d5760006129dc60055442612af190919063ffffffff16565b905060006129f583600454612b4390919063ffffffff16565b9050808210612a0657612a06612ba6565b5050612a2e565b600654612a20908263ffffffff612bed16565b4210612a2e57612a2e612ba6565b6005806117d9565b6000928352600d602090815260408085206001600160a01b039485168652600190810183528186209390941685529190529091200154610100900460ff1690565b6000918252600d602090815260408084206001600160a01b0393909316845291905290206001015490565b612aaa612335565b612ae55760405162461bcd60e51b8152600401808060200182810382526021815260200180613d446021913960400191505060405180910390fd5b612aee816132ea565b50565b600082821115612b3d576040805162461bcd60e51b81526020600482015260126024820152715361666553756220756e646572666c6f772160701b604482015290519081900360640190fd5b50900390565b600082612b5257506000610eeb565b82820282848281612b5f57fe5b0414612313576040805162461bcd60e51b8152602060048201526011602482015270536166654d756c206f766572666c6f772160781b604482015290519081900360640190fd5b60038054600160a01b900460ff166006811115612bbf57fe5b14156127ee57600a54612bd357600661281f565b600380546004919060ff60a01b1916600160a01b8361283b565b600082820183811015612313576040805162461bcd60e51b815260206004820152601160248201527053616665416464206f766572666c6f772160781b604482015290519081900360640190fd5b6000808211612c91576040805162461bcd60e51b815260206004820152601b60248201527f536166654469762063616e6e6f74206469766964652062792030210000000000604482015290519081900360640190fd5b6000828481612c9c57fe5b04949350505050565b81518351339114612ce75760405162461bcd60e51b8152600401808060200182810382526036815260200180613cd56036913960400191505060405180910390fd5b815184511480612d0e57506004600354600160a01b900460ff166006811115612d0c57fe5b145b612d495760405162461bcd60e51b8152600401808060200182810382526027815260200180613e616027913960400191505060405180910390fd5b6000805b8551811015612ed2576000868281518110612d6457fe5b602002602001015190506000868381518110612d7c57fe5b60200260200101519050612d8e613b86565b612d9886846132b3565b6040805160a0810182528254815260019092015460ff80821615801560208601526101008304821615159385019390935262010000820481161515606085015263010000009091041615156080830152909150612e265760405162461bcd60e51b8152600401808060200182810382526025815260200180613dde6025913960400191505060405180910390fd5b612e2f8361328a565b6005015460ff1680612e7d5750612e5a8387898781518110612e4d57fe5b6020026020010151613399565b8015612e7d57506001600354600160a01b900460ff166006811115612e7b57fe5b145b15612ec7578051600190950194612ec7576004546000908152600d602090815260408083206001600160a01b03808b16855260019091018352818420908716845290915290208290555b505050600101612d4d565b5060008111612f21576040805162461bcd60e51b81526020600482015260166024820152754e6f2076616c696420757365727320746f206164642160501b604482015290519081900360640190fd5b6001600354600160a01b900460ff166006811115612f3b57fe5b14156116535761165382826136d0565b81518351339114612f8d5760405162461bcd60e51b8152600401808060200182810382526037815260200180613e036037913960400191505060405180910390fd5b8151845114612fcd5760405162461bcd60e51b8152600401808060200182810382526039815260200180613d0b6039913960400191505060405180910390fd5b60005b8451811015611653576000858281518110612fe757fe5b60200260200101519050612ff9613b86565b61300384836132b3565b6040805160a0810182528254815260019092015460ff8082161515602085015261010082048116151592840192909252620100008104821615156060840152630100000090041615156080820152865190915060009087908590811061306557fe5b60200260200101519050600082600001519050600087868151811061308657fe5b602002602001015190506000838260405160200180831515151560f81b8152600101828152602001925050506040516020818303038152906040528051906020012090506130d38661328a565b6005015460ff16806130e6575084608001515b6131215760405162461bcd60e51b8152600401808060200182810382526022815260200180613c1b6022913960400191505060405180910390fd5b8460200151156131625760405162461bcd60e51b8152600401808060200182810382526025815260200180613dde6025913960400191505060405180910390fd5b6004546000908152600d60209081526040808320338452600190810183528184206001600160a01b038b1685529092529091208101805460ff191690911790558083146131e05760405162461bcd60e51b8152600401808060200182810382526027815260200180613e3a6027913960400191505060405180910390fd5b6004546000908152600d602090815260408083206001600160a01b038c8116855260019182018452828520908b168552909252822001805461ff001916610100871515021790556132308761328a565b600201549050846132445760018103613249565b806001015b6004546000908152600d602090815260408083206001600160a01b03909b1683529990529790972060020196909655505060019094019350612fd092505050565b6004546000908152600d602090815260408083206001600160a01b039490941683529290522090565b6004546000908152600d602090815260408083206001600160a01b0395861684526001018252808320939094168252919091522090565b6001600160a01b03811661333e576040805162461bcd60e51b81526020600482015260166024820152754e6577206f776e65722063616e6e6f7420626520302160501b604482015290519081900360640190fd5b600080546040516001600160a01b03808516939216917f8be0079c531659141344cd1fd0a4f28419497f9722a3daafe3b4186f6b6457e091a3600080546001600160a01b0319166001600160a01b0392909216919091179055565b6000806133a58561328a565b905060006133b2866119de565b600383015460015460408051638e4179db60e01b81526001600160a01b038a81166004830152915194955092936000939190921691638e4179db91602480820192602092909190829003018186803b15801561340d57600080fd5b505afa158015613421573d6000803e3d6000fd5b505050506040513d602081101561343757600080fd5b50519050816134775760405162461bcd60e51b8152600401808060200182810382526029815260200180613eac6029913960400191505060405180910390fd5b61348f81670de0b6b3a764000063ffffffff612c3b16565b86106134cc5760405162461bcd60e51b815260040180806020018281038252603f815260200180613c3d603f913960400191505060405180910390fd5b6040805160208082018590526bffffffffffffffffffffffff1960608b901b168284015260548083018a90528351808403909101815260748301808552815191830191909120600854634959698960e01b9092526078840189905293518893919273__MaxHeapLibrary________________________9263495969899260988083019392829003018186803b15801561356457600080fd5b505af4158015613578573d6000803e3d6000fd5b505050506040513d602081101561358e57600080fd5b5051108061359b57508482105b156136c0576135ab898b84613750565b6008548173__MaxHeapLibrary________________________634959698990916040518263ffffffff1660e01b81526004018082815260200191505060206040518083038186803b1580156135ff57600080fd5b505af4158015613613573d6000803e3d6000fd5b505050506040513d602081101561362957600080fd5b505111156136b1577f81eb635ae266c3de79b5eb888447c4f47bb2bd3f7e8f15f68c43b706be02f83361365b8b6119de565b60408051918252519081900360200190a16136758a613875565b7fd807f35ad23d587028eb2dcca5083429a910db54d00da39c3cee6df5d3e0a94761369f8b6119de565b60408051918252519081900360200190a15b60019650505050505050612313565b5060009998505050505050505050565b6136ed816136dd846139b9565b600201549063ffffffff612bed16565b600480546000908152600d602081815260408084206001600160a01b038916855260010182528084206002908101969096559354835252200154613737908263ffffffff612bed16565b6004546000908152600d60205260409020600201555050565b600061375b8361328a565b604080516317651b2b60e21b8152600481018390526001600160a01b038716602482015260448101859052905191925073__MaxHeapLibrary________________________91635d946cac91606480820192600092909190829003018186803b1580156137c757600080fd5b505af41580156137db573d6000803e3d6000fd5b5050604080516001600160a01b0380881682528816602082015280820186905290517f05181bb92216966bea512248cecd685c53838b1e3714f5cda3608b863854642e9350908190036060019150a150506004546000908152600d602090815260408083206001600160a01b039586168452600190810183528184209490951683529290522001805463ff00000019166301000000179055565b60006138808261328a565b600001905060008173__MaxHeapLibrary________________________639a39c5c390916040518263ffffffff1660e01b81526004018082815260200191505060206040518083038186803b1580156138d857600080fd5b505af41580156138ec573d6000803e3d6000fd5b505050506040513d602081101561390257600080fd5b5051604080516001600160a01b0380871682528316602082015281519293507f3fa6100e640756fbdacaf4e089ef6fbc98de8b2d41a794f62801bd043e2f3aae929081900390910190a1600480546000908152600d602081815260408084206001600160a01b0380881680875260019283018552838720918b168088529185528387208301805463ff00000019169055965486529383528185209585529490940181528383209183525290812055612518816139e6565b6004546000908152600d602090815260408083206001600160a01b03851684526001019091529020919050565b613a0460016139f4836139b9565b600201549063ffffffff612af116565b600480546000908152600d602081815260408084206001600160a01b03881685526001908101835281852060029081019790975594548452919052902090910154613a549163ffffffff612af116565b6004546000908152600d602052604090206002015550565b828054600181600116156101000203166002900490600052602060002090601f016020900481019282601f10613aad57805160ff1916838001178555613ada565b82800160010185558215613ada579182015b82811115613ada578251825591602001919060010190613abf565b50613ae6929150613bb4565b5090565b828054828255906000526020600020908101928215613b3f579160200282015b82811115613b3f57825182546001600160a01b0319166001600160a01b03909116178255602090920191600190910190613b0a565b50613ae6929150613bce565b604080518082019091526000808252602082015290565b81548183558181111561251857600083815260209020612518918101908301613bb4565b6040805160a08101825260008082526020820181905291810182905260608101829052608081019190915290565b6114f491905b80821115613ae65760008155600101613bba565b6114f491905b80821115613ae65780546001600160a01b0319168155600101613bd456fe596f752077657265206e6f742061737369676e656420746f2074686520676976656e207573657221596f752077657265206e6f742061737369676e656420746f207468652075736572215468652070726f6f6620696e646578206d75737420626520736d616c6c6572207468616e2074686520626f6e646564207374616b6520706572203165313821506f6f6c206973206e6f74207265676973746572656420746f2072656365697665206e6577206461746121596f7520616c72656164792072657472696576656420796f75722072657761726473207468697320726f756e64215573657273206c656e6774682073686f756c64206d6174636820776173436f6d706c69616e7444617461436f6d6d69746d656e747321546865207573657273206c656e677468206d757374206d61746368207468652072616e646f6d4e6f6e6365732064617461206c656e677468214f6e6c79206f776e65722063616e2075736520746869732066756e6374696f6e2146756e6374696f6e2063616e6e6f742062652063616c6c656420617420746869732074696d652152656d6f76616c20696e646578206d757374206d6174636820706f6f6c20616464726573732152656769737465726564204a757269205374616b696e6720506f6f6c73206c69737420697320656d70747921596f7520616c72656164792061646465642074686520636f6d706c69616e63654461746121546865207573657273206c656e677468206d757374206d617463682074686520636f6d706c69616e63652064617461206c656e67746821546865207061737365642072616e646f6d206e6f6e636520646f6573206e6f74206d61746368215573657273206c656e6774682073686f756c64206d617463682070726f6f66496e6469636573214e6f646520646964206e6f74207061727469636970617465207468697320726f756e6421546865207573657220646964206e6f742061646420616e792068656172742072617465206461746121a265627a7a723058206b3cce0b742023a6e9653bf40804ee69410f31b2ff3ed14b956f2d48a7dcfaaa64736f6c634300050a0032608060405234801561001057600080fd5b506040516130bd3803806130bd833981810160405261010081101561003457600080fd5b50805160208201516040808401516060850151608086015160a087015160c088015160e090980151600080546001600160a01b031916331780825596519899979895979496939592949391926001600160a01b0392909216917f8be0079c531659141344cd1fd0a4f28419497f9722a3daafe3b4186f6b6457e0908290a3600180546001600160a01b03199081166001600160a01b039a8b1617909155600280548216988a1698909817909755600480549097169590971694909417909455600d91909155600e55600f9190915560105560115560006005819055612f9e90819061011f90396000f3fe608060405234801561001057600080fd5b50600436106101cf5760003560e01c80638e4179db11610104578063d57632ea116100a2578063ec55688911610071578063ec55688914610525578063f2fde38b1461052d578063f5dede2114610553578063fc0c546a1461055b576101cf565b8063d57632ea146104db578063d815b4c6146104f8578063dd95dd4b14610500578063e5f95a991461051d576101cf565b8063a43fa4ab116100de578063a43fa4ab1461046b578063b641dd5a14610488578063c35da4be146104a5578063d42e9cee146104d3576101cf565b80638e4179db146104205780638f32d59b14610446578063a2aadc031461044e576101cf565b806344d96e9511610171578063715018a61161014b578063715018a61461039857806379015f43146103a057806386ab6a54146103ce5780638da5cb5b146103fc576101cf565b806344d96e951461035a57806350d4074b1461036257806364630e5f1461036a576101cf565b80632e954897116101ad5780632e954897146102725780633be53609146102b15780633ff36802146102e357806344c170701461033b576101cf565b80630831756a146101d4578063097a389e146102185780630d0ce70014610258575b600080fd5b6101fa600480360360208110156101ea57600080fd5b50356001600160a01b0316610563565b60408051938452602084019290925282820152519081900360600190f35b6102446004803603604081101561022e57600080fd5b50803590602001356001600160a01b0316610584565b604080519115158252519081900360200190f35b6102606105a4565b60408051918252519081900360200190f35b6102986004803603602081101561028857600080fd5b50356001600160a01b03166105aa565b6040805192835260208301919091528051918290030190f35b610244600480360360608110156102c757600080fd5b508035906001600160a01b0360208201351690604001356105c3565b6102eb6105e9565b60408051602080825283518183015283519192839290830191858101910280838360005b8381101561032757818101518382015260200161030f565b505050509050019250505060405180910390f35b6103586004803603602081101561035157600080fd5b5035610739565b005b610260610832565b610260610838565b6103586004803603604081101561038057600080fd5b506001600160a01b038135811691602001351661083e565b610358610bb5565b610358600480360360408110156103b657600080fd5b506001600160a01b0381358116916020013516610c42565b610358600480360360408110156103e457600080fd5b506001600160a01b0381358116916020013516610f69565b6104046112ca565b604080516001600160a01b039092168252519081900360200190f35b6102606004803603602081101561043657600080fd5b50356001600160a01b03166112d9565b6102446113bc565b6103586004803603602081101561046457600080fd5b50356113cd565b6102606004803603602081101561048157600080fd5b5035611825565b6103586004803603602081101561049e57600080fd5b5035611837565b610358600480360360408110156104bb57600080fd5b506001600160a01b0381358116916020013516611960565b610260611d59565b610260600480360360208110156104f157600080fd5b5035611d5f565b610358611d71565b6103586004803603602081101561051657600080fd5b5035611f54565b6102606123c5565b6104046123cb565b6103586004803603602081101561054357600080fd5b50356001600160a01b03166123da565b610260612429565b61040461242f565b60096020526000908152604090208054600182015460029092015490919083565b600b60209081526000928352604080842090915290825290205460ff1681565b600f5481565b6006602052600090815260409020805460019091015482565b600a60209081526000938452604080852082529284528284209052825290205460ff1681565b606060006105f7600361243e565b9050606081604051908082528060200260200182016040528015610625578160200160208202803883390190505b50600160009081527f3617319a054d772f909f7c479a2cebe5066e836a939412e32403c99029b92eff6020527ff5d2b9d7b7dcf31fafb527f48cb641b3e286ba85117ea973378ae75f2b0f27c95482519293506001600160a01b03169183919061068b57fe5b6001600160a01b039092166020928302919091019091015260015b828110156107325760036000836106c484600163ffffffff61247d16565b815181106106ce57fe5b6020908102919091018101516001600160a01b0390811683528282019390935260409182016000908120600182529091522054835191169083908390811061071257fe5b6001600160a01b03909216602092830291909101909101526001016106a6565b5091505090565b6107416113bc565b61077c5760405162461bcd60e51b8152600401808060200182810382526021815260200180612d7a6021913960400191505060405180910390fd5b6000818152600860205260409020546107b857600860006107a483600163ffffffff61247d16565b8152602001908152602001600020546107c8565b6000818152600860205260409020545b60008281526008602090815260408083209390935560079052205461081057600760006107fc83600163ffffffff61247d16565b815260200190815260200160002054610820565b6000818152600760205260409020545b60009182526007602052604090912055565b600c5481565b600e5481565b600154604080516316fd755360e21b815290516006926001600160a01b031691635bf5d54c916004808301926020929190829003018186803b15801561088357600080fd5b505afa158015610897573d6000803e3d6000fd5b505050506040513d60208110156108ad57600080fd5b505160068111156108ba57fe5b146108fa576040805162461bcd60e51b81526020600482018190526024820152600080516020612f15833981519152604482015290519081900360640190fd5b600154604080516332401b5760e11b815290516000926001600160a01b03169163648036ae916004808301926020929190829003018186803b15801561093f57600080fd5b505afa158015610953573d6000803e3d6000fd5b505050506040513d602081101561096957600080fd5b50516000818152600a602090815260408083206001600160a01b0387168452825280832083805290915290205490915060ff16156109d85760405162461bcd60e51b8152600401808060200182810382526034815260200180612ee16034913960400191505060405180910390fd5b6000818152600a602090815260408083206001600160a01b038087168086529184528285208580528452828520805460ff1916600190811790915554835163033c01ad60e31b815260048101889052602481019390935292519216926319e00d6892604480840193829003018186803b158015610a5457600080fd5b505afa158015610a68573d6000803e3d6000fd5b505050506040513d6020811015610a7e57600080fd5b5051600154604080516396623d1960e01b8152600481018690526001600160a01b0388811660248301528781166044830152915193945060009391909216916396623d19916064808301926020929190829003018186803b158015610ae257600080fd5b505afa158015610af6573d6000803e3d6000fd5b505050506040513d6020811015610b0c57600080fd5b5051905081610b4c5760405162461bcd60e51b8152600401808060200182810382526022815260200180612c156022913960400191505060405180910390fd5b8015610b9f576040805162461bcd60e51b815260206004820181905260248201527f54686520706173736564206e6f646520776173206e6f74206f66666c696e6521604482015290519081900360640190fd5b610bad838633600e546124d4565b505050505050565b610bbd6113bc565b610bf85760405162461bcd60e51b8152600401808060200182810382526021815260200180612d7a6021913960400191505060405180910390fd5b600080546040516001600160a01b03909116907f8be0079c531659141344cd1fd0a4f28419497f9722a3daafe3b4186f6b6457e0908390a3600080546001600160a01b0319169055565b600154604080516316fd755360e21b815290516006926001600160a01b031691635bf5d54c916004808301926020929190829003018186803b158015610c8757600080fd5b505afa158015610c9b573d6000803e3d6000fd5b505050506040513d6020811015610cb157600080fd5b50516006811115610cbe57fe5b14610cfe576040805162461bcd60e51b81526020600482018190526024820152600080516020612f15833981519152604482015290519081900360640190fd5b600154604080516332401b5760e11b815290516000926001600160a01b03169163648036ae916004808301926020929190829003018186803b158015610d4357600080fd5b505afa158015610d57573d6000803e3d6000fd5b505050506040513d6020811015610d6d57600080fd5b50516000818152600a602090815260408083206001600160a01b038716845282528083206002845290915290205490915060ff1615610ddd5760405162461bcd60e51b815260040180806020018281038252603a815260200180612c74603a913960400191505060405180910390fd5b6000818152600a602090815260408083206001600160a01b03808716808652918452828520600286528452828520805460ff1916600190811790915554835163eff4b6d960e01b81526004810188905289831660248201526044810193909352925192169263eff4b6d992606480840193829003018186803b158015610e6257600080fd5b505afa158015610e76573d6000803e3d6000fd5b505050506040513d6020811015610e8c57600080fd5b5051600154604080516339d519c560e21b8152600481018690526001600160a01b03878116602483015291519394506000938493929092169163e754671491604480820192602092909190829003018186803b158015610eeb57600080fd5b505afa158015610eff573d6000803e3d6000fd5b505050506040513d6020811015610f1557600080fd5b5051139050811515811415610f5b5760405162461bcd60e51b8152600401808060200182810382526031815260200180612d496031913960400191505060405180910390fd5b610bad8386336010546124d4565b600154604080516316fd755360e21b815290516006926001600160a01b031691635bf5d54c916004808301926020929190829003018186803b158015610fae57600080fd5b505afa158015610fc2573d6000803e3d6000fd5b505050506040513d6020811015610fd857600080fd5b50516006811115610fe557fe5b14611025576040805162461bcd60e51b81526020600482018190526024820152600080516020612f15833981519152604482015290519081900360640190fd5b600154604080516332401b5760e11b815290516000926001600160a01b03169163648036ae916004808301926020929190829003018186803b15801561106a57600080fd5b505afa15801561107e573d6000803e3d6000fd5b505050506040513d602081101561109457600080fd5b50516000818152600a602090815260408083206001600160a01b038716845282528083206001845290915290205490915060ff16156111045760405162461bcd60e51b8152600401808060200182810382526034815260200180612e826034913960400191505060405180910390fd5b6000818152600a602090815260408083206001600160a01b038087168086529184528285206001808752908552838620805460ff191682179055548351633f8ed75160e11b815260048101889052898316602482015260448101939093529251921692637f1daea292606480840193829003018186803b15801561118757600080fd5b505afa15801561119b573d6000803e3d6000fd5b505050506040513d60208110156111b157600080fd5b50519050806111f15760405162461bcd60e51b8152600401808060200182810382526030815260200180612dc46030913960400191505060405180910390fd5b60015460408051636ff002ff60e11b8152600481018590526001600160a01b03878116602483015286811660448301529151919092169163dfe005fe916064808301926020929190829003018186803b15801561124d57600080fd5b505afa158015611261573d6000803e3d6000fd5b505050506040513d602081101561127757600080fd5b5051156112b55760405162461bcd60e51b815260040180806020018281038252602c815260200180612e56602c913960400191505060405180910390fd5b6112c3828533600f546124d4565b5050505050565b6000546001600160a01b031690565b600080600160009054906101000a90046001600160a01b03166001600160a01b031663648036ae6040518163ffffffff1660e01b815260040160206040518083038186803b15801561132a57600080fd5b505afa15801561133e573d6000803e3d6000fd5b505050506040513d602081101561135457600080fd5b50519050611360612bb3565b506001600160a01b03831660009081526009602090815260409182902082516060810184528154815260018201549281019290925260020154918101829052908210156113ae5780516113b4565b80602001515b949350505050565b6000546001600160a01b0316331490565b600154604080516332401b5760e11b815290516000926001600160a01b03169163648036ae916004808301926020929190829003018186803b15801561141257600080fd5b505afa158015611426573d6000803e3d6000fd5b505050506040513d602081101561143c57600080fd5b5051600154604080516332401b5760e11b815290519293506000926001600160a01b039092169163648036ae91600480820192602092909190829003018186803b15801561148957600080fd5b505afa15801561149d573d6000803e3d6000fd5b505050506040513d60208110156114b357600080fd5b50516000838152600b602090815260408083203384529091529020546001909101915060ff16156115155760405162461bcd60e51b815260040180806020018281038252602b815260200180612eb6602b913960400191505060405180910390fd5b6000828152600b602090815260408083203384529091529020805460ff19166001179055611541612bb3565b5033600090815260096020908152604080832081516060810183528154815260018201549381019390935260020154908201819052909190841061158a5750602081015161158e565b5080515b600085116115e3576040805162461bcd60e51b815260206004820152601e60248201527f506c65617365207061737320616e20616d6f756e742061626f76652030210000604482015290519081900360640190fd5b848110156116225760405162461bcd60e51b8152600401808060200182810382526026815260200180612bef6026913960400191505060405180910390fd5b6000611634828763ffffffff61247d16565b9050600061164d600d548461277090919063ffffffff16565b9050600d548210158061165e575081155b6116995760405162461bcd60e51b815260040180806020018281038252603d815260200180612c37603d913960400191505060405180910390fd5b60408051808201825288815260208082018881523360008181526006845285812094518555915160019485015584516060810186528881528084018881528187018c81529284526009909452949091209351845590519183019190915551600290910155600c54611710908863ffffffff61247d16565b600c55600d5460009061172a90849063ffffffff61277016565b9050600061173e838363ffffffff61247d16565b6000888152600860205260408120549192509061176957600089815260086020526040902054611779565b6000888152600860205260409020545b905061178b818363ffffffff61247d16565b60008981526008602052604090205584611819576117b060033363ffffffff6127da16565b506000888152600760205260409020546117e9576000898152600760205260409020546117e490600163ffffffff61247d16565b611809565b60008881526007602052604090205461180990600163ffffffff61247d16565b6000898152600760205260409020555b50505050505050505050565b60086020526000908152604090205481565b6004546001600160a01b031633146118805760405162461bcd60e51b815260040180806020018281038252602d815260200180612e29602d913960400191505060405180910390fd5b6005548111156118c15760405162461bcd60e51b8152600401808060200182810382526035815260200180612f356035913960400191505060405180910390fd5b6005546118d4908263ffffffff61247d16565b600555600254600480546040805163a9059cbb60e01b81526001600160a01b0392831693810193909352602483018590525192169163a9059cbb916044808201926020929091908290030181600087803b15801561193157600080fd5b505af1158015611945573d6000803e3d6000fd5b505050506040513d602081101561195b57600080fd5b505050565b600154604080516316fd755360e21b815290516006926001600160a01b031691635bf5d54c916004808301926020929190829003018186803b1580156119a557600080fd5b505afa1580156119b9573d6000803e3d6000fd5b505050506040513d60208110156119cf57600080fd5b505160068111156119dc57fe5b14611a1c576040805162461bcd60e51b81526020600482018190526024820152600080516020612f15833981519152604482015290519081900360640190fd5b600154604080516332401b5760e11b815290516000926001600160a01b03169163648036ae916004808301926020929190829003018186803b158015611a6157600080fd5b505afa158015611a75573d6000803e3d6000fd5b505050506040513d6020811015611a8b57600080fd5b50516000818152600a602090815260408083206001600160a01b038716845282528083206003845290915290205490915060ff1615611afb5760405162461bcd60e51b815260040180806020018281038252603b815260200180612d0e603b913960400191505060405180910390fd5b6000818152600a602090815260408083206001600160a01b03808716808652918452828520600386528452828520805460ff1916600190811790915554835163328d704d60e21b81526004810188905289831660248201526044810193909352925192169263ca35c13492606480840193829003018186803b158015611b8057600080fd5b505afa158015611b94573d6000803e3d6000fd5b505050506040513d6020811015611baa57600080fd5b505160015460408051637913460360e11b8152600481018690526001600160a01b03878116602483015291519394506000938493929092169163f2268c0691604480820192602092909190829003018186803b158015611c0957600080fd5b505afa158015611c1d573d6000803e3d6000fd5b505050506040513d6020811015611c3357600080fd5b5051600154604080516339d519c560e21b8152600481018890526001600160a01b03898116602483015291519490931394506000938493919092169163e754671491604480820192602092909190829003018186803b158015611c9557600080fd5b505afa158015611ca9573d6000803e3d6000fd5b505050506040513d6020811015611cbf57600080fd5b505113905082611d005760405162461bcd60e51b8152600401808060200182810382526033815260200180612cae6033913960400191505060405180910390fd5b80151582151514611d425760405162461bcd60e51b8152600401808060200182810382526029815260200180612d9b6029913960400191505060405180910390fd5b611d508487336011546124d4565b50505050505050565b60105481565b60076020526000908152604090205481565b600154604080516332401b5760e11b815290516000926001600160a01b03169163648036ae916004808301926020929190829003018186803b158015611db657600080fd5b505afa158015611dca573d6000803e3d6000fd5b505050506040513d6020811015611de057600080fd5b50519050611dec612bd4565b503360009081526006602090815260409182902082518084019093528054835260010154908201819052821015611e6a576040805162461bcd60e51b815260206004820152601c60248201527f4e6f742079657420616c6c6f77656420746f2077697468647261772100000000604482015290519081900360640190fd5b6040805180820182526000808252602080830182815233808452600683528584209451855590516001909401939093556002548551855163a9059cbb60e01b81526004810195909552602485015293516001600160a01b039094169363a9059cbb93604480820194918390030190829087803b158015611ee957600080fd5b505af1158015611efd573d6000803e3d6000fd5b505050506040513d6020811015611f1357600080fd5b5051611f505760405162461bcd60e51b8152600401808060200182810382526035815260200180612df46035913960400191505060405180910390fd5b5050565b600154604080516332401b5760e11b815290516000926001600160a01b03169163648036ae916004808301926020929190829003018186803b158015611f9957600080fd5b505afa158015611fad573d6000803e3d6000fd5b505050506040513d6020811015611fc357600080fd5b5051600154604080516332401b5760e11b815290519293506000926001600160a01b039092169163648036ae91600480820192602092909190829003018186803b15801561201057600080fd5b505afa158015612024573d6000803e3d6000fd5b505050506040513d602081101561203a57600080fd5b5051600254604080516323b872dd60e01b8152336004820152306024820152604481018790529051600190930193506001600160a01b03909116916323b872dd916064808201926020929091908290030181600087803b15801561209d57600080fd5b505af11580156120b1573d6000803e3d6000fd5b505050506040513d60208110156120c757600080fd5b505161211a576040805162461bcd60e51b815260206004820152601e60248201527f4e6f7420656e6f75676820746f6b656e7320666f7220626f6e64696e67210000604482015290519081900360640190fd5b6000828152600b6020908152604080832033845290915290205460ff16156121735760405162461bcd60e51b815260040180806020018281038252602b815260200180612eb6602b913960400191505060405180910390fd5b6000828152600b602090815260408083203384529091529020805460ff1916600117905561219f612bb3565b503360009081526009602090815260408083208151606081018352815481526001820154938101939093526002015490820181905290919084106121e8575060208101516121ec565b5080515b8061226e5761220560036000338163ffffffff61288b16565b5060008381526007602052604090205461223e5760008481526007602052604090205461223990600163ffffffff61290116565b61225e565b60008381526007602052604090205461225e90600163ffffffff61290116565b6000848152600760205260409020555b6000612280828763ffffffff61290116565b90506000612299600d548461277090919063ffffffff16565b6040805160608101825285815260208082018681528284018a8152336000908152600990935293909120915182555160018201559051600290910155600c549091506122eb908863ffffffff61290116565b600c55600d5482101561232f5760405162461bcd60e51b815260040180806020018281038252602d815260200180612ce1602d913960400191505060405180910390fd5b6000612346600d548461277090919063ffffffff16565b9050600061235a828463ffffffff61247d16565b6000888152600860205260408120549192509061238557600089815260086020526040902054612395565b6000888152600860205260409020545b90506123a7818363ffffffff61290116565b60009889526008602052604090982097909755505050505050505050565b600d5481565b6001546001600160a01b031681565b6123e26113bc565b61241d5760405162461bcd60e51b8152600401808060200182810382526021815260200180612d7a6021913960400191505060405180910390fd5b61242681612956565b50565b60115481565b6002546001600160a01b031681565b600080808061244f85826001612a05565b90935091505b6001600160a01b038216156113b45761247085836001612a05565b9093509150600101612455565b6000828211156124c9576040805162461bcd60e51b81526020600482015260126024820152715361666553756220756e646572666c6f772160701b604482015290519081900360640190fd5b508082035b92915050565b6000600185016124e2612bb3565b506001600160a01b038516600090815260096020908152604091829020825160608101845281548152600182015492810192909252600201549181019190915261252a612bb3565b506001600160a01b0385166000908152600960209081526040808320815160608101835281548152600182015493810193909352600201548282015283015190919089101561257a578251612580565b82602001515b90506000898360400151111561259757825161259d565b82602001515b905060006125c260646125b6858b63ffffffff612a5516565b9063ffffffff61277016565b905060006125d782600263ffffffff61277016565b905060006125f283886020015161247d90919063ffffffff16565b9050600061260d83886020015161290190919063ffffffff16565b905060405180606001604052808781526020018381526020018a815250600960008f6001600160a01b03166001600160a01b0316815260200190815260200160002060008201518160000155602082015181600101556040820151816002015590505060405180606001604052808681526020018281526020018a815250600960008e6001600160a01b03166001600160a01b031681526020019081526020016000206000820151816000015560208201518160010155604082015181600201559050506126e68360055461290190919063ffffffff16565b6005819055507fb0f9aff79729f95cfd3c5a53434ea39810e21e8ad1cc3d50a22bd4a6aecb876e8e8e8e8e60405180858152602001846001600160a01b03166001600160a01b03168152602001836001600160a01b03166001600160a01b0316815260200182815260200194505050505060405180910390a1505050505050505050949350505050565b60008082116127c6576040805162461bcd60e51b815260206004820152601b60248201527f536166654469762063616e6e6f74206469766964652062792030210000000000604482015290519081900360640190fd5b60008284816127d157fe5b04949350505050565b60006001600160a01b03821615806127f957506127f78383612ab8565b155b15612806575060006124ce565b6001600160a01b038281166000908152602085815260408083208380529091528082205460018084529190922054612845938793811692911690612b56565b506001600160a01b03811660009081526020928352604080822082805290935282812080546001600160a01b031990811690915560018252929020805490921690915590565b60006128978584612ab8565b1580156128a957506128a98585612ab8565b156128f6576001600160a01b038085166000908152602087815260408083208615158452909152902054166128e086868686612b56565b6128ec86858386612b56565b60019150506113b4565b506000949350505050565b60008282018381101561294f576040805162461bcd60e51b815260206004820152601160248201527053616665416464206f766572666c6f772160781b604482015290519081900360640190fd5b9392505050565b6001600160a01b0381166129aa576040805162461bcd60e51b81526020600482015260166024820152754e6577206f776e65722063616e6e6f7420626520302160501b604482015290519081900360640190fd5b600080546040516001600160a01b03808516939216917f8be0079c531659141344cd1fd0a4f28419497f9722a3daafe3b4186f6b6457e091a3600080546001600160a01b0319166001600160a01b0392909216919091179055565b600080612a128585612ab8565b612a2157506000905080612a4d565b50506001600160a01b038083166000908152602085815260408083208515158452909152902054600191165b935093915050565b600082612a64575060006124ce565b82820282848281612a7157fe5b041461294f576040805162461bcd60e51b8152602060048201526011602482015270536166654d756c206f766572666c6f772160781b604482015290519081900360640190fd5b6001600160a01b03818116600090815260208481526040808320838052909152812054909116158015612b0d57506001600160a01b038281166000908152602085815260408083206001845290915290205416155b15612b4e57600080805260208481526040808320600184529091529020546001600160a01b0383811691161415612b46575060016124ce565b5060006124ce565b5060016124ce565b6001600160a01b0391821660008181526020868152604080832094158084529482528083208054969097166001600160a01b0319968716811790975595825295865284812092158152919094529190912080549091169091179055565b60405180606001604052806000815260200160008152602001600081525090565b60405180604001604052806000815260200160008152509056fe596f7520646f6e2774206861766520656e6f756768207374616b6520746f20756e626f6e642154686520706173736564207573657220776173206e6f742064697373656e74656421596f75206d6179206f6e6c7920756e626f6e6420757020746f20746865206d696e696d756d20616c6c6f77616e6365206f7220616c6c207374616b6521546865206e6f64652068617320616c7265616479206265656e20736c617368656420666f7220616e20696e636f727265637420726573756c742154686520706173736564206e6f646520646964206e6f742064697373656e7420746f2074686520706173736564207573657221596f75206d75737420626f6e64206174206c6561737420746865206d696e696d756d20616c6c6f77616e636521546865206e6f64652068617320616c7265616479206265656e20736c617368656420666f7220616e20696e636f72726563742064697373656e742154686520706173736564206e6f646520646964206e6f74206769766520616e20696e636f727265637420726573756c74214f6e6c79206f776e65722063616e2075736520746869732066756e6374696f6e215468652064697373656e742066726f6d20706173736564206e6f64652077617320636f72726563742154686520706173736564206e6f646520776173206e6f742061737369676e656420746f207061737365642075736572214e6f7420656e6f75676820746f6b656e7320696e20626f6e64696e6720636f6e747261637420666f72207769746864726177616c214f6e6c79206a757269466f756e646174696f6e206d61792077697468647261772074686569722066756e64732154686520706173736564206e6f6465206861732072657665616c65642068697320636f6d6d69746d656e7421546865206e6f64652068617320616c7265616479206265656e20736c617368656420666f72206e6f742072657665616c696e6721596f75206d6179206f6e6c7920626f6e64206f7220756e626f6e64206f6e63652070657220726f756e6421546865206e6f64652068617320616c7265616479206265656e20736c617368656420666f72206265696e67206f66666c696e652150726f7879206d75737420626520696e20736c617368696e67207374616765214e6f7420656e6f7567682066756e647320746f2077697468647261772066726f6d206a7572466f756e646174696f6e46756e647321a265627a7a7230582011eb554ec9ea6de97a9c2ada71858e4fd4e77c2a09527186221354bb285f903564736f6c634300050a0032",
  "source": "pragma solidity 0.5.10;\r\n\r\nimport \"../lib/IERC20.sol\";\r\nimport \"../lib/Ownable.sol\";\r\nimport \"../lib/SafeMath.sol\";\r\n\r\nimport \"./JuriBonding.sol\";\r\nimport \"./lib/MaxHeapLibrary.sol\";\r\nimport \"./lib/SkaleFileStorageInterface.sol\";\r\n\r\ncontract JuriNetworkProxy is Ownable {\r\n    using SafeMath for uint256;\r\n    using MaxHeapLibrary for MaxHeapLibrary.heapStruct;\r\n\r\n    event RemovedMax(address user, address removedNode);\r\n    event AddedVerifierHash(address user, address node, bytes32 verifierHash);\r\n\r\n    event OLD_MAX(bytes32 maxVerifierHash);\r\n    event NEW_MAX(bytes32 maxVerifierHash);\r\n\r\n    enum Stages {\r\n        USER_ADDING_HEART_RATE_DATA,\r\n        NODES_ADDING_RESULT_COMMITMENTS,\r\n        NODES_ADDING_RESULT_REVEALS,\r\n        DISSENTING_PERIOD,\r\n        DISSENTS_NODES_ADDING_RESULT_COMMITMENTS,\r\n        DISSENTS_NODES_ADDING_RESULT_REVEALS,\r\n        SLASHING_PERIOD\r\n    }\r\n\r\n    struct UserState {\r\n        MaxHeapLibrary.heapStruct verifierHashesMaxHeap;\r\n        int256 complianceDataBeforeDissent;\r\n        int256 userComplianceData;\r\n        bytes32 userWorkoutSignature;\r\n        string userHeartRateDataStoragePath;\r\n        bool dissented;\r\n    }\r\n\r\n    struct NodeForUserState {\r\n        bytes32 complianceDataCommitment;\r\n        bool hasRevealed;\r\n        bool givenNodeResult;\r\n        bool hasDissented;\r\n        bool wasAssignedToUser;\r\n    }\r\n\r\n    struct NodeState {\r\n        mapping (address => NodeForUserState) nodeForUserStates;\r\n        bool hasRetrievedRewards;\r\n        uint256 activityCount;\r\n    }\r\n\r\n    struct JuriRound {\r\n        mapping (address => UserState) userStates;\r\n        mapping (address => NodeState) nodeStates;\r\n        uint256 totalActivityCount;\r\n    }\r\n\r\n    /**\r\n     * @dev Reverts if called in incorrect stage.\r\n     * @param _stage The allowed stage for the given function.\r\n     */\r\n    modifier atStage(Stages _stage) {\r\n        require(\r\n            currentStage == _stage,\r\n            \"Function cannot be called at this time!\"\r\n        );\r\n\r\n        _;\r\n    }\r\n\r\n    modifier checkIfNextStage() {\r\n        uint256 timeForStage = timesForStages[uint256(currentStage)];\r\n\r\n        if (currentStage == Stages.SLASHING_PERIOD) {\r\n            uint256 secondsSinceStart = now.sub(startTime);\r\n            uint256 secondsSinceStartNextPeriod = roundIndex.mul(timeForStage);\r\n\r\n            if (secondsSinceStart >= secondsSinceStartNextPeriod) {\r\n                _moveToNextStage();\r\n            }\r\n        } else if (now >= lastStageUpdate.add(timeForStage)) {\r\n            _moveToNextStage();\r\n        }\r\n\r\n        _;\r\n    }\r\n\r\n    JuriBonding public bonding;\r\n    IERC20 public juriFeesToken;\r\n    SkaleFileStorageInterface public skaleFileStorage;\r\n\r\n    Stages public currentStage;\r\n    uint256 public roundIndex;\r\n    uint256 public startTime;\r\n    uint256 public lastStageUpdate;\r\n    uint256 public totalJuriFees;\r\n    uint256 public nodeVerifierCount;\r\n    address[] public registeredJuriStakingPools;\r\n    address[] public dissentedUsers;\r\n\r\n    mapping (uint256 => uint256) public timesForStages;\r\n    mapping (address => bool) public isRegisteredJuriStakingPool;\r\n    mapping (uint256 => JuriRound) internal stateForRound;\r\n\r\n    constructor(\r\n        IERC20 _juriFeesToken,\r\n        IERC20 _juriToken,\r\n        SkaleFileStorageInterface _skaleFileStorage,\r\n        address _juriFoundation,\r\n        uint256 _timeForAddingHeartRateData,\r\n        uint256 _timeForCommitmentStage,\r\n        uint256 _timeForRevealStage,\r\n        uint256 _timeForDissentStage,\r\n        uint256 _timeForDissentCommitmentStage,\r\n        uint256 _timeForDissentRevealStage,\r\n        uint256 _timeForSlashingStage,\r\n        uint256 _minStakePerNode,\r\n        uint256 _offlinePenalty,\r\n        uint256 _notRevealPenalty,\r\n        uint256 _incorrectResultPenalty,\r\n        uint256 _incorrectDissentPenalty\r\n    ) public {\r\n        timesForStages[uint256(Stages.USER_ADDING_HEART_RATE_DATA)] = _timeForAddingHeartRateData;\r\n        timesForStages[uint256(Stages.NODES_ADDING_RESULT_COMMITMENTS)] = _timeForCommitmentStage;\r\n        timesForStages[uint256(Stages.NODES_ADDING_RESULT_REVEALS)] = _timeForRevealStage;\r\n        timesForStages[uint256(Stages.DISSENTING_PERIOD)] = _timeForDissentStage;\r\n        timesForStages[uint256(Stages.DISSENTS_NODES_ADDING_RESULT_COMMITMENTS)] = _timeForDissentCommitmentStage;\r\n        timesForStages[uint256(Stages.DISSENTS_NODES_ADDING_RESULT_REVEALS)] = _timeForDissentRevealStage;\r\n        timesForStages[uint256(Stages.SLASHING_PERIOD)] = _timeForSlashingStage;\r\n\r\n        bonding = new JuriBonding(\r\n            this,\r\n            _juriToken,\r\n            _juriFoundation,\r\n            _minStakePerNode,\r\n            _offlinePenalty,\r\n            _notRevealPenalty,\r\n            _incorrectResultPenalty,\r\n            _incorrectDissentPenalty\r\n        );\r\n        isRegisteredJuriStakingPool[address(bonding)] = true;\r\n\r\n        skaleFileStorage = _skaleFileStorage;\r\n        juriFeesToken = _juriFeesToken;\r\n        currentStage = Stages.USER_ADDING_HEART_RATE_DATA;\r\n        roundIndex = 0;\r\n        startTime = now;\r\n        lastStageUpdate = now;\r\n        totalJuriFees = 0;\r\n        nodeVerifierCount = 1;\r\n    }\r\n\r\n    // PUBLIC METHODS\r\n\r\n    function registerJuriStakingPool(address _poolAddress) public onlyOwner {\r\n        isRegisteredJuriStakingPool[_poolAddress] = true;\r\n        registeredJuriStakingPools.push(_poolAddress);\r\n    }\r\n\r\n    function removeJuriStakingPool(address _poolAddress, uint256 _removalIndex) public onlyOwner {\r\n        require(\r\n            registeredJuriStakingPools.length > 0,\r\n            'Registered Juri Staking Pools list is empty!'\r\n        );\r\n        require(\r\n            registeredJuriStakingPools[_removalIndex] == _poolAddress,\r\n            'Removal index must match pool address!'\r\n        );\r\n\r\n        isRegisteredJuriStakingPool[_poolAddress] = false;\r\n        registeredJuriStakingPools[_removalIndex]\r\n            = registeredJuriStakingPools[registeredJuriStakingPools.length.sub(1)];\r\n        registeredJuriStakingPools.length--;\r\n    }\r\n\r\n    // TODO remove\r\n    function debugIncreaseRoundIndex() public onlyOwner {\r\n        roundIndex++;\r\n\r\n        bonding.moveToNextRound(roundIndex);\r\n\r\n        dissentedUsers = new address[](0);\r\n        // nodeVerifierCount = bonding.totalNodesCount(roundIndex).div(3); // TODO\r\n    \r\n        // maybe also count only active nodes\r\n        // https://juriproject.slack.com/archives/CHKB3D1GF/p1565926038000200\r\n        nodeVerifierCount = bonding.stakingNodesAddressCount(roundIndex).div(3);\r\n        totalJuriFees = juriFeesToken.balanceOf(address(this));\r\n\r\n        currentStage = Stages.USER_ADDING_HEART_RATE_DATA;\r\n    }\r\n\r\n    // TODO remove\r\n    function moveToNextStage() public {\r\n        currentStage = Stages((uint256(currentStage) + 1) % 7);\r\n        lastStageUpdate = now;\r\n    }\r\n\r\n    // TODO remove\r\n    function moveToUserAddingHeartRateDataStage() public {\r\n        currentStage = Stages.USER_ADDING_HEART_RATE_DATA;\r\n        lastStageUpdate = now;\r\n    }\r\n\r\n    function moveToNextRound()\r\n        public\r\n        atStage(Stages.SLASHING_PERIOD)\r\n        checkIfNextStage {\r\n        roundIndex++;\r\n\r\n        bonding.moveToNextRound(roundIndex);\r\n    \r\n        dissentedUsers = new address[](0);\r\n        // nodeVerifierCount = bonding.totalNodesCount(roundIndex).div(3);\r\n        nodeVerifierCount = bonding.stakingNodesAddressCount(roundIndex).div(3);\r\n        totalJuriFees = juriFeesToken.balanceOf(address(this));\r\n    }\r\n\r\n    function moveToDissentPeriod()\r\n        public\r\n        atStage(Stages.NODES_ADDING_RESULT_REVEALS)\r\n        checkIfNextStage {\r\n        // do nothing\r\n    }\r\n\r\n    function moveToSlashingPeriod()\r\n        public\r\n        atStage(Stages.DISSENTS_NODES_ADDING_RESULT_REVEALS)\r\n        checkIfNextStage {\r\n        // do nothing\r\n    }\r\n\r\n    function moveFromDissentToNextPeriod()\r\n        public\r\n        atStage(Stages.DISSENTING_PERIOD)\r\n        checkIfNextStage {\r\n        // do nothing\r\n    }\r\n\r\n    function addHeartRateDateForPoolUser(\r\n        bytes32 _userWorkoutSignature,\r\n        string memory _heartRateDataStoragePath\r\n    ) public checkIfNextStage atStage(Stages.USER_ADDING_HEART_RATE_DATA) {\r\n        // TODO verify signature, HOW ?\r\n\r\n        // TODO optional: enforce storage path fits msg.sender\r\n\r\n        uint8 fileStatus\r\n            = skaleFileStorage.getFileStatus(_heartRateDataStoragePath);\r\n        require(\r\n            fileStatus == 2, // => file exists\r\n            \"Invalid storage path passed\"\r\n        );\r\n\r\n        stateForRound[roundIndex]\r\n            .userStates[msg.sender]\r\n            .userWorkoutSignature = _userWorkoutSignature;\r\n        stateForRound[roundIndex]\r\n            .userStates[msg.sender]\r\n            .userHeartRateDataStoragePath = _heartRateDataStoragePath;\r\n    }\r\n\r\n    function addWasCompliantDataCommitmentsForUsers(\r\n        address[] memory _users,\r\n        bytes32[] memory _wasCompliantDataCommitments,\r\n        uint256[] memory _proofIndices\r\n    ) public checkIfNextStage atStage(Stages.NODES_ADDING_RESULT_COMMITMENTS) {\r\n        _addWasCompliantDataCommitmentsForUsers(\r\n            _users,\r\n            _wasCompliantDataCommitments,\r\n            _proofIndices\r\n        );\r\n    }\r\n\r\n    function addDissentWasCompliantDataCommitmentsForUsers(\r\n        address[] memory _users,\r\n        bytes32[] memory _wasCompliantDataCommitments\r\n        \r\n    ) public\r\n        checkIfNextStage\r\n        atStage(Stages.DISSENTS_NODES_ADDING_RESULT_COMMITMENTS) {\r\n        uint256[] memory _proofIndices = new uint256[](0);\r\n\r\n        _addWasCompliantDataCommitmentsForUsers(\r\n            _users,\r\n            _wasCompliantDataCommitments,\r\n            _proofIndices\r\n        );\r\n    }\r\n\r\n    function addWasCompliantDataForUsers(\r\n        address[] memory _users,\r\n        bool[] memory _wasCompliantData,\r\n        bytes32[] memory _randomNonces\r\n    ) public checkIfNextStage atStage(Stages.NODES_ADDING_RESULT_REVEALS) {\r\n        _addWasCompliantDataForUsers(\r\n            _users,\r\n            _wasCompliantData,\r\n            _randomNonces\r\n        );\r\n    }\r\n\r\n    function addDissentWasCompliantDataForUsers(\r\n        address[] memory _users,\r\n        bool[] memory _wasCompliantData,\r\n        bytes32[] memory _randomNonces\r\n    ) public\r\n        checkIfNextStage\r\n        atStage(Stages.DISSENTS_NODES_ADDING_RESULT_REVEALS) {\r\n        _addWasCompliantDataForUsers(\r\n            _users,\r\n            _wasCompliantData,\r\n            _randomNonces\r\n        );\r\n    }\r\n\r\n    function dissentToAcceptedAnswers(address[] memory _users)\r\n        public\r\n        checkIfNextStage\r\n        atStage(Stages.DISSENTING_PERIOD)\r\n    {\r\n        address node = msg.sender;\r\n        uint256 usersToDissentCount = 0;\r\n\r\n        for (uint256 i = 0; i < _users.length; i++) {\r\n            address user = _users[i];\r\n\r\n            require(\r\n                _getCurrentStateForNodeForUser(node, user).wasAssignedToUser,\r\n                'You were not assigned to the given user!'\r\n            );\r\n\r\n            if (!_getCurrentStateForUser(user).dissented) {\r\n                usersToDissentCount++;\r\n            }\r\n\r\n            // TODO only allow if node gave different previous result ?\r\n        }\r\n\r\n        require(\r\n            usersToDissentCount > 0,\r\n            \"Users were already dissented!\"\r\n        );\r\n        address[] memory usersToDissent = new address[](usersToDissentCount);\r\n        uint256 usersToDissentIndex = 0;\r\n\r\n        for (uint256 i = 0; i < _users.length; i++) {\r\n            if (!_getCurrentStateForUser(_users[i]).dissented) {\r\n                usersToDissent[usersToDissentIndex] = _users[i];\r\n                usersToDissentIndex++;\r\n            }\r\n        }\r\n\r\n        for (uint256 i = 0; i < usersToDissent.length; i++) {\r\n            address user = usersToDissent[i];\r\n\r\n            stateForRound[roundIndex].userStates[user].complianceDataBeforeDissent\r\n                = _getCurrentStateForUser(user).userComplianceData;\r\n            stateForRound[roundIndex]\r\n                .userStates[user]\r\n                .dissented = true;\r\n            stateForRound[roundIndex]\r\n                .nodeStates[node]\r\n                .nodeForUserStates[user]\r\n                .hasDissented = true;\r\n\r\n            dissentedUsers.push(user);\r\n        }\r\n    }\r\n\r\n    function retrieveRoundJuriFees(uint256 _roundIndex) public {\r\n        address node = msg.sender;\r\n        NodeState memory nodeState = stateForRound[_roundIndex].nodeStates[node];\r\n        uint256 activityCount = nodeState.activityCount;\r\n\r\n        require(_roundIndex < roundIndex, \"Round not yet finished!\");\r\n        require(\r\n            !nodeState.hasRetrievedRewards,\r\n            \"You already retrieved your rewards this round!\"\r\n        );\r\n        require(activityCount > 0, \"Node did not participate this round!\");\r\n\r\n        uint256 multiplier = 1000000;\r\n        uint256 totalNodeActivityCount\r\n            = stateForRound[_roundIndex].totalActivityCount;\r\n        uint256 activityShare = activityCount.mul(multiplier).div(totalNodeActivityCount);\r\n        uint256 juriFeesTokenAmount = totalJuriFees.mul(activityShare).div(multiplier);\r\n\r\n        stateForRound[_roundIndex].nodeStates[node].hasRetrievedRewards = true;\r\n        juriFeesToken.transfer(node, juriFeesTokenAmount);\r\n    }\r\n\r\n    /// INTERFACE METHODS\r\n\r\n    function getUserWorkAssignmentHashes(uint256 _roundIndex, address _user)\r\n        public\r\n        view\r\n        returns (uint256[] memory) {\r\n        return stateForRound[_roundIndex].userStates[_user].verifierHashesMaxHeap.getLowestHashes();\r\n    }\r\n\r\n    function getDissented(uint256 _roundIndex, address _user)\r\n        public\r\n        view\r\n        returns (bool) {\r\n        return stateForRound[_roundIndex].userStates[_user].dissented;\r\n    }\r\n\r\n    function getComplianceDataBeforeDissent(uint256 _roundIndex, address _user)\r\n        public\r\n        view\r\n        returns (int256) {\r\n        return stateForRound[_roundIndex].userStates[_user].complianceDataBeforeDissent;\r\n    }\r\n\r\n    function getHasRevealed(uint256 _roundIndex, address _node, address _user)\r\n        public\r\n        view\r\n        returns (bool) {\r\n        return stateForRound[_roundIndex].nodeStates[_node].nodeForUserStates[_user].hasRevealed;\r\n    }\r\n\r\n    function getNodeActivityCount(uint256 _roundIndex, address _node)\r\n        public\r\n        view\r\n        returns (uint256) {\r\n        return stateForRound[_roundIndex].nodeStates[_node].activityCount;\r\n    }\r\n\r\n    function getTotalActivityCount(uint256 _roundIndex)\r\n        public\r\n        view\r\n        returns (uint256) {\r\n        return stateForRound[_roundIndex].totalActivityCount;\r\n    }\r\n\r\n    function getUserComplianceDataCommitment(\r\n        uint256 _roundIndex,\r\n        address _node,\r\n        address _user\r\n    ) public view returns (bytes32) {\r\n        return stateForRound[_roundIndex].nodeStates[_node].nodeForUserStates[_user].complianceDataCommitment;\r\n    }\r\n\r\n    function getGivenNodeResult(\r\n        uint256 _roundIndex,\r\n        address _node,\r\n        address _user\r\n    ) public view returns (bool) {\r\n        return stateForRound[_roundIndex].nodeStates[_node].nodeForUserStates[_user].givenNodeResult;\r\n    }\r\n\r\n    function getWasAssignedToUser(\r\n        uint256 _roundIndex,\r\n        address _node,\r\n        address _user\r\n    ) public view returns (bool) {\r\n        return stateForRound[_roundIndex].nodeStates[_node].nodeForUserStates[_user].wasAssignedToUser;\r\n    }\r\n\r\n    function getHasDissented(uint256 _roundIndex, address _node, address _user)\r\n        public\r\n        view\r\n        returns (bool) {\r\n        return stateForRound[_roundIndex].nodeStates[_node].nodeForUserStates[_user].hasDissented;\r\n    }\r\n\r\n    function getUserComplianceData(uint256 _roundIndex, address _user)\r\n        public\r\n        view\r\n        returns (int256) {\r\n        require(\r\n            isRegisteredJuriStakingPool[msg.sender],\r\n            \"Pool is not registered to receive new data!\"\r\n        );\r\n\r\n        return stateForRound[_roundIndex].userStates[_user].userComplianceData;\r\n    }\r\n\r\n    function getUserWorkoutSignature(uint256 _roundIndex, address _user)\r\n        public\r\n        view\r\n        returns (bytes32) {\r\n        return stateForRound[_roundIndex].userStates[_user].userWorkoutSignature;\r\n    }\r\n\r\n    /**\r\n     * @dev Read registered staking pools.\r\n     * @return The registered staking pools.\r\n     */\r\n    function getRegisteredJuriStakingPools()\r\n        public\r\n        view\r\n        returns (address[] memory)\r\n    {\r\n        return registeredJuriStakingPools;\r\n    }\r\n\r\n    function getDissentedUsers()\r\n        public\r\n        view\r\n        returns (address[] memory)\r\n    {\r\n        return dissentedUsers;\r\n    }\r\n\r\n    function getCurrentHighestHashForUser(address _user)\r\n        public\r\n        view\r\n        returns (uint256) {\r\n        MaxHeapLibrary.heapStruct storage verifierHashesMaxHeap\r\n            = _getCurrentStateForUser(_user).verifierHashesMaxHeap;\r\n\r\n        uint256 hashesCount = verifierHashesMaxHeap.getLength();\r\n        uint256 highestHash = hashesCount > 0\r\n            ? verifierHashesMaxHeap.getMax().value\r\n            : 0;\r\n\r\n        return highestHash;\r\n    }\r\n\r\n    /// PRIVATE METHODS\r\n\r\n    function _increaseActivityCountForNode(\r\n        address _node,\r\n        uint256 _activityCount\r\n    ) internal {\r\n        stateForRound[roundIndex]\r\n            .nodeStates[_node]\r\n            .activityCount = _getCurrentStateForNode(_node)\r\n                .activityCount\r\n                .add(_activityCount);\r\n        stateForRound[roundIndex].totalActivityCount\r\n            = stateForRound[roundIndex].totalActivityCount.add(_activityCount);\r\n    }\r\n\r\n    function _decrementActivityCountForNode(address _node) internal {\r\n        stateForRound[roundIndex]\r\n            .nodeStates[_node]\r\n            .activityCount\r\n                = _getCurrentStateForNode(_node).activityCount.sub(1);\r\n        stateForRound[roundIndex].totalActivityCount\r\n            = stateForRound[roundIndex].totalActivityCount.sub(1);\r\n    }\r\n\r\n    function _moveToNextStage() internal {\r\n        if (currentStage == Stages.DISSENTING_PERIOD) {\r\n            currentStage = dissentedUsers.length > 0\r\n                ? Stages.DISSENTS_NODES_ADDING_RESULT_COMMITMENTS\r\n                : Stages.SLASHING_PERIOD;\r\n        } else {\r\n            currentStage = Stages((uint256(currentStage) + 1) % 7);\r\n        }\r\n\r\n        lastStageUpdate = now;\r\n    }\r\n\r\n    function _addWasCompliantDataCommitmentsForUsers(\r\n        address[] memory _users,\r\n        bytes32[] memory _wasCompliantDataCommitments,\r\n        uint256[] memory _proofIndices\r\n    ) internal {\r\n        address node = msg.sender;\r\n\r\n        require(\r\n            _users.length == _wasCompliantDataCommitments.length,\r\n            'Users length should match wasCompliantDataCommitments!'\r\n        );\r\n        require(\r\n            _users.length == _proofIndices.length\r\n            || currentStage == Stages.DISSENTS_NODES_ADDING_RESULT_COMMITMENTS,\r\n            'Users length should match proofIndices!'\r\n        );\r\n\r\n        uint256 validUserCount = 0;\r\n\r\n        for (uint256 i = 0; i < _users.length; i++) {\r\n            address user = _users[i];\r\n            bytes32 wasCompliantCommitment = _wasCompliantDataCommitments[i];\r\n\r\n            NodeForUserState memory nodeForUserState\r\n                = _getCurrentStateForNodeForUser(node, user);\r\n            require(\r\n                !nodeForUserState.hasRevealed,\r\n                \"You already added the complianceData!\"\r\n            );\r\n\r\n            if (_getCurrentStateForUser(user).dissented\r\n                || (_verifyValidComplianceAddition(user, node, _proofIndices[i])\r\n                && currentStage == Stages.NODES_ADDING_RESULT_COMMITMENTS)\r\n            ) {\r\n                validUserCount++;\r\n\r\n                if (nodeForUserState.complianceDataCommitment == 0x0) {\r\n                    stateForRound[roundIndex]\r\n                        .nodeStates[node]\r\n                        .nodeForUserStates[user]\r\n                        .complianceDataCommitment\r\n                            = wasCompliantCommitment;\r\n                }\r\n            }\r\n        }\r\n        \r\n        require(validUserCount > 0, 'No valid users to add!');\r\n\r\n        if (currentStage == Stages.NODES_ADDING_RESULT_COMMITMENTS) {\r\n            // dont count dissent rounds as activity\r\n            // because nodes have an incentive anyways to participate\r\n            // due to not getting offline slashed\r\n            _increaseActivityCountForNode(node, validUserCount);\r\n        }\r\n    }\r\n\r\n    function _addWasCompliantDataForUsers(\r\n        address[] memory _users,\r\n        bool[] memory _wasCompliantData,\r\n        bytes32[] memory _randomNonces\r\n    ) internal {\r\n        address node = msg.sender;\r\n\r\n        require(\r\n            _users.length == _wasCompliantData.length,\r\n            \"The users length must match the compliance data length!\"\r\n        );\r\n        require(\r\n            _users.length == _randomNonces.length,\r\n            \"The users length must match the randomNonces data length!\"\r\n        );\r\n\r\n        for (uint256 i = 0; i < _users.length; i++) {\r\n            address user = _users[i];\r\n            NodeForUserState memory nodeForUserState\r\n                = _getCurrentStateForNodeForUser(node, user);\r\n            bool wasCompliant = _wasCompliantData[i];\r\n            bytes32 commitment = nodeForUserState.complianceDataCommitment;\r\n            bytes32 randomNonce = _randomNonces[i];\r\n            bytes32 verifierNonceHash = keccak256(\r\n                abi.encodePacked(wasCompliant, randomNonce)\r\n            );\r\n\r\n            require(\r\n                _getCurrentStateForUser(user).dissented\r\n                    || nodeForUserState.wasAssignedToUser,\r\n                'You were not assigned to the user!'\r\n            );\r\n            require(\r\n                !nodeForUserState.hasRevealed,\r\n                \"You already added the complianceData!\"\r\n            );\r\n            stateForRound[roundIndex].nodeStates[msg.sender].nodeForUserStates[user].hasRevealed = true;\r\n    \r\n            require(\r\n                verifierNonceHash == commitment,\r\n                \"The passed random nonce does not match!\"\r\n            );\r\n\r\n            stateForRound[roundIndex]\r\n                .nodeStates[node]\r\n                .nodeForUserStates[user]\r\n                .givenNodeResult = wasCompliant;\r\n    \r\n            int256 currentCompliance = _getCurrentStateForUser(user)\r\n                .userComplianceData;\r\n            stateForRound[roundIndex].userStates[user].userComplianceData\r\n                = wasCompliant ? currentCompliance + 1 : currentCompliance - 1;\r\n        }\r\n    }\r\n\r\n    function _getStateForCurrentRound()\r\n        internal\r\n        view\r\n        returns (JuriRound storage) {\r\n        return stateForRound[roundIndex];\r\n    }\r\n\r\n    function _getCurrentStateForUser(address _user)\r\n        internal\r\n        view\r\n        returns (UserState storage) {\r\n        return stateForRound[roundIndex].userStates[_user];\r\n    }\r\n\r\n    function _getCurrentStateForNode(address _node)\r\n        internal\r\n        view\r\n        returns (NodeState storage) {\r\n        return stateForRound[roundIndex].nodeStates[_node];\r\n    }\r\n\r\n    function _getCurrentStateForNodeForUser(address _node, address _user)\r\n        internal\r\n        view\r\n        returns (NodeForUserState storage) {\r\n        return stateForRound[roundIndex].nodeStates[_node].nodeForUserStates[_user];\r\n    }\r\n\r\n    function _verifyValidComplianceAddition(\r\n        address _user,\r\n        address _node,\r\n        uint256 _proofIndex\r\n    ) internal returns (bool) {\r\n        UserState storage userState = _getCurrentStateForUser(_user);\r\n\r\n        uint256 currentHighestHash = _getCurrentHighestHashForUser(_user);\r\n        bytes32 userWorkoutSignature = userState.userWorkoutSignature;\r\n        uint256 bondedStake = bonding.getBondedStakeOfNode(_node);\r\n\r\n        require(\r\n            userWorkoutSignature != 0x0,\r\n            \"The user did not add any heart rate data!\"\r\n        );\r\n\r\n        require(\r\n            _proofIndex < bondedStake.div(1e18),\r\n            \"The proof index must be smaller than the bonded stake per 1e18!\"\r\n        );\r\n\r\n        uint256 verifierHash = uint256(\r\n            keccak256(abi.encodePacked(userWorkoutSignature, _node, _proofIndex))\r\n        );\r\n\r\n        MaxHeapLibrary.heapStruct storage verifierHashesMaxHeap\r\n            = userState.verifierHashesMaxHeap;\r\n\r\n        if (verifierHashesMaxHeap.getLength() < nodeVerifierCount // TODO count node quality ??\r\n            || verifierHash < currentHighestHash) {\r\n            _addNewVerifierHashForUser(_node, _user, verifierHash);\r\n\r\n            if (verifierHashesMaxHeap.getLength() > nodeVerifierCount) {\r\n                emit OLD_MAX(bytes32(_getCurrentHighestHashForUser(_user)));\r\n                _removeMaxVerifierHashForUser(_user);\r\n                emit NEW_MAX(bytes32(_getCurrentHighestHashForUser(_user)));\r\n            }\r\n\r\n            return true;\r\n        }\r\n\r\n        return false;\r\n    }\r\n\r\n    function _getCurrentHighestHashForUser(address _user)\r\n        internal\r\n        view\r\n        returns (uint256) {\r\n        MaxHeapLibrary.heapStruct storage verifierHashesMaxHeap\r\n            = _getCurrentStateForUser(_user).verifierHashesMaxHeap;\r\n\r\n        uint256 hashesCount = verifierHashesMaxHeap.getLength();\r\n        uint256 highestHash = hashesCount > 0\r\n            ? verifierHashesMaxHeap.getMax().value\r\n            : 0;\r\n\r\n        return highestHash;\r\n    }\r\n\r\n    function _removeMaxVerifierHashForUser(\r\n        address _user\r\n    ) internal {\r\n        MaxHeapLibrary.heapStruct storage verifierHashesMaxHeap\r\n            = _getCurrentStateForUser(_user).verifierHashesMaxHeap;\r\n        address removedNode = verifierHashesMaxHeap.removeMax();\r\n\r\n        emit RemovedMax(_user, removedNode);\r\n\r\n        stateForRound[roundIndex]\r\n            .nodeStates[removedNode]\r\n            .nodeForUserStates[_user]\r\n            .wasAssignedToUser = false;\r\n        stateForRound[roundIndex]\r\n            .nodeStates[removedNode]\r\n            .nodeForUserStates[_user]\r\n            .complianceDataCommitment = 0x0;\r\n\r\n        _decrementActivityCountForNode(removedNode);\r\n    }\r\n\r\n    function _addNewVerifierHashForUser(\r\n        address _node,\r\n        address _user,\r\n        uint256 _verifierHash\r\n    ) internal {        \r\n        MaxHeapLibrary.heapStruct storage verifierHashesMaxHeap\r\n            = _getCurrentStateForUser(_user).verifierHashesMaxHeap;\r\n        verifierHashesMaxHeap.insert(_node, _verifierHash);\r\n\r\n        emit AddedVerifierHash(_user, _node, bytes32(_verifierHash));\r\n\r\n        stateForRound[roundIndex]\r\n            .nodeStates[_node]\r\n            .nodeForUserStates[_user]\r\n            .wasAssignedToUser = true;\r\n    }\r\n}",
  "sourcePath": "C:\\Users\\mail\\Personal\\Juri\\JuriStakingContract\\contracts\\research\\JuriNetworkProxy.sol",
  "compiler": {
    "name": "solc",
    "version": "0.5.10+commit.5a6ea5b1.Emscripten.clang"
  },
  "schemaVersion": "3.0.11",
  "updatedAt": "2019-08-26T23:41:04.855Z",
  "devdoc": {
    "methods": {
      "getRegisteredJuriStakingPools()": {
        "details": "Read registered staking pools.\r",
        "return": "The registered staking pools.\r"
      },
      "isOwner()": {
        "return": "true if `msg.sender` is the owner of the contract.\r"
      },
      "owner()": {
        "return": "the address of the owner.\r"
      },
      "renounceOwnership()": {
        "details": "Allows the current owner to relinquish control of the contract.\r It will not be possible to call the functions with the `onlyOwner`\r modifier anymore.\r"
      },
      "transferOwnership(address)": {
        "details": "Allows the current owner to transfer control of the contract to a newOwner.\r",
        "params": {
          "newOwner": "The address to transfer ownership to.\r"
        }
      }
    }
  },
  "userdoc": {
    "methods": {
      "getUserWorkAssignmentHashes(uint256,address)": {
        "notice": "INTERFACE METHODS"
      },
      "renounceOwnership()": {
        "notice": "Renouncing ownership will leave the contract without an owner,\r thereby removing any functionality that is only available to the owner.\r"
      }
    }
  }
}