{
  "contractName": "JuriNetworkProxy",
  "abi": [
    {
      "constant": true,
      "inputs": [],
      "name": "skaleFileStorage",
      "outputs": [
        {
          "name": "",
          "type": "address"
        }
      ],
      "payable": false,
      "stateMutability": "view",
      "type": "function"
    },
    {
      "constant": true,
      "inputs": [
        {
          "name": "",
          "type": "uint256"
        }
      ],
      "name": "totalJuriFees",
      "outputs": [
        {
          "name": "",
          "type": "uint256"
        }
      ],
      "payable": false,
      "stateMutability": "view",
      "type": "function"
    },
    {
      "constant": true,
      "inputs": [],
      "name": "currentStage",
      "outputs": [
        {
          "name": "",
          "type": "uint8"
        }
      ],
      "payable": false,
      "stateMutability": "view",
      "type": "function"
    },
    {
      "constant": true,
      "inputs": [],
      "name": "roundIndex",
      "outputs": [
        {
          "name": "",
          "type": "uint256"
        }
      ],
      "payable": false,
      "stateMutability": "view",
      "type": "function"
    },
    {
      "constant": false,
      "inputs": [],
      "name": "renounceOwnership",
      "outputs": [],
      "payable": false,
      "stateMutability": "nonpayable",
      "type": "function"
    },
    {
      "constant": true,
      "inputs": [
        {
          "name": "",
          "type": "uint256"
        }
      ],
      "name": "timesForStages",
      "outputs": [
        {
          "name": "",
          "type": "uint256"
        }
      ],
      "payable": false,
      "stateMutability": "view",
      "type": "function"
    },
    {
      "constant": true,
      "inputs": [],
      "name": "startTime",
      "outputs": [
        {
          "name": "",
          "type": "uint256"
        }
      ],
      "payable": false,
      "stateMutability": "view",
      "type": "function"
    },
    {
      "constant": true,
      "inputs": [
        {
          "name": "",
          "type": "uint256"
        }
      ],
      "name": "dissentedUsers",
      "outputs": [
        {
          "name": "",
          "type": "address"
        }
      ],
      "payable": false,
      "stateMutability": "view",
      "type": "function"
    },
    {
      "constant": true,
      "inputs": [],
      "name": "owner",
      "outputs": [
        {
          "name": "",
          "type": "address"
        }
      ],
      "payable": false,
      "stateMutability": "view",
      "type": "function"
    },
    {
      "constant": true,
      "inputs": [],
      "name": "lastStageUpdate",
      "outputs": [
        {
          "name": "",
          "type": "uint256"
        }
      ],
      "payable": false,
      "stateMutability": "view",
      "type": "function"
    },
    {
      "constant": true,
      "inputs": [],
      "name": "isOwner",
      "outputs": [
        {
          "name": "",
          "type": "bool"
        }
      ],
      "payable": false,
      "stateMutability": "view",
      "type": "function"
    },
    {
      "constant": true,
      "inputs": [],
      "name": "nodeVerifierCount",
      "outputs": [
        {
          "name": "",
          "type": "uint256"
        }
      ],
      "payable": false,
      "stateMutability": "view",
      "type": "function"
    },
    {
      "constant": true,
      "inputs": [],
      "name": "bonding",
      "outputs": [
        {
          "name": "",
          "type": "address"
        }
      ],
      "payable": false,
      "stateMutability": "view",
      "type": "function"
    },
    {
      "constant": true,
      "inputs": [
        {
          "name": "",
          "type": "uint256"
        },
        {
          "name": "",
          "type": "address"
        }
      ],
      "name": "totalJuriFeesAtWithdrawalTimes",
      "outputs": [
        {
          "name": "",
          "type": "uint256"
        }
      ],
      "payable": false,
      "stateMutability": "view",
      "type": "function"
    },
    {
      "constant": true,
      "inputs": [
        {
          "name": "",
          "type": "uint256"
        }
      ],
      "name": "registeredJuriStakingPools",
      "outputs": [
        {
          "name": "",
          "type": "address"
        }
      ],
      "payable": false,
      "stateMutability": "view",
      "type": "function"
    },
    {
      "constant": true,
      "inputs": [],
      "name": "juriFeesToken",
      "outputs": [
        {
          "name": "",
          "type": "address"
        }
      ],
      "payable": false,
      "stateMutability": "view",
      "type": "function"
    },
    {
      "constant": true,
      "inputs": [
        {
          "name": "",
          "type": "address"
        }
      ],
      "name": "isRegisteredJuriStakingPool",
      "outputs": [
        {
          "name": "",
          "type": "bool"
        }
      ],
      "payable": false,
      "stateMutability": "view",
      "type": "function"
    },
    {
      "constant": false,
      "inputs": [
        {
          "name": "newOwner",
          "type": "address"
        }
      ],
      "name": "transferOwnership",
      "outputs": [],
      "payable": false,
      "stateMutability": "nonpayable",
      "type": "function"
    },
    {
      "inputs": [
        {
          "name": "_juriFeesToken",
          "type": "address"
        },
        {
          "name": "_juriToken",
          "type": "address"
        },
        {
          "name": "_skaleFileStorage",
          "type": "address"
        },
        {
          "name": "_juriFoundation",
          "type": "address"
        },
        {
          "name": "_timeForAddingHeartRateData",
          "type": "uint256"
        },
        {
          "name": "_timeForCommitmentStage",
          "type": "uint256"
        },
        {
          "name": "_timeForRevealStage",
          "type": "uint256"
        },
        {
          "name": "_timeForDissentStage",
          "type": "uint256"
        },
        {
          "name": "_timeForDissentCommitmentStage",
          "type": "uint256"
        },
        {
          "name": "_timeForDissentRevealStage",
          "type": "uint256"
        },
        {
          "name": "_timeForSlashingStage",
          "type": "uint256"
        },
        {
          "name": "_minStakePerNode",
          "type": "uint256"
        },
        {
          "name": "_offlinePenalty",
          "type": "uint256"
        },
        {
          "name": "_notRevealPenalty",
          "type": "uint256"
        },
        {
          "name": "_incorrectResultPenalty",
          "type": "uint256"
        },
        {
          "name": "_incorrectDissentPenalty",
          "type": "uint256"
        }
      ],
      "payable": false,
      "stateMutability": "nonpayable",
      "type": "constructor"
    },
    {
      "anonymous": false,
      "inputs": [
        {
          "indexed": false,
          "name": "user",
          "type": "address"
        },
        {
          "indexed": false,
          "name": "removedNode",
          "type": "address"
        }
      ],
      "name": "RemovedMax",
      "type": "event"
    },
    {
      "anonymous": false,
      "inputs": [
        {
          "indexed": false,
          "name": "user",
          "type": "address"
        },
        {
          "indexed": false,
          "name": "node",
          "type": "address"
        },
        {
          "indexed": false,
          "name": "verifierHash",
          "type": "bytes32"
        }
      ],
      "name": "AddedVerifierHash",
      "type": "event"
    },
    {
      "anonymous": false,
      "inputs": [
        {
          "indexed": false,
          "name": "maxVerifierHash",
          "type": "bytes32"
        }
      ],
      "name": "OLD_MAX",
      "type": "event"
    },
    {
      "anonymous": false,
      "inputs": [
        {
          "indexed": false,
          "name": "maxVerifierHash",
          "type": "bytes32"
        }
      ],
      "name": "NEW_MAX",
      "type": "event"
    },
    {
      "anonymous": false,
      "inputs": [
        {
          "indexed": true,
          "name": "previousOwner",
          "type": "address"
        },
        {
          "indexed": true,
          "name": "newOwner",
          "type": "address"
        }
      ],
      "name": "OwnershipTransferred",
      "type": "event"
    },
    {
      "constant": false,
      "inputs": [
        {
          "name": "_poolAddress",
          "type": "address"
        }
      ],
      "name": "registerJuriStakingPool",
      "outputs": [],
      "payable": false,
      "stateMutability": "nonpayable",
      "type": "function"
    },
    {
      "constant": false,
      "inputs": [
        {
          "name": "_poolAddress",
          "type": "address"
        },
        {
          "name": "_removalIndex",
          "type": "uint256"
        }
      ],
      "name": "removeJuriStakingPool",
      "outputs": [],
      "payable": false,
      "stateMutability": "nonpayable",
      "type": "function"
    },
    {
      "constant": false,
      "inputs": [],
      "name": "debugIncreaseRoundIndex",
      "outputs": [],
      "payable": false,
      "stateMutability": "nonpayable",
      "type": "function"
    },
    {
      "constant": false,
      "inputs": [],
      "name": "moveToNextStage",
      "outputs": [],
      "payable": false,
      "stateMutability": "nonpayable",
      "type": "function"
    },
    {
      "constant": false,
      "inputs": [],
      "name": "moveToUserAddingHeartRateDataStage",
      "outputs": [],
      "payable": false,
      "stateMutability": "nonpayable",
      "type": "function"
    },
    {
      "constant": false,
      "inputs": [],
      "name": "moveToNextRound",
      "outputs": [],
      "payable": false,
      "stateMutability": "nonpayable",
      "type": "function"
    },
    {
      "constant": false,
      "inputs": [],
      "name": "moveToDissentPeriod",
      "outputs": [],
      "payable": false,
      "stateMutability": "nonpayable",
      "type": "function"
    },
    {
      "constant": false,
      "inputs": [],
      "name": "moveToSlashingPeriod",
      "outputs": [],
      "payable": false,
      "stateMutability": "nonpayable",
      "type": "function"
    },
    {
      "constant": false,
      "inputs": [],
      "name": "moveFromDissentToNextPeriod",
      "outputs": [],
      "payable": false,
      "stateMutability": "nonpayable",
      "type": "function"
    },
    {
      "constant": false,
      "inputs": [
        {
          "name": "_userWorkoutSignature",
          "type": "bytes32"
        },
        {
          "name": "_heartRateDataStoragePath",
          "type": "string"
        }
      ],
      "name": "addHeartRateDateForPoolUser",
      "outputs": [],
      "payable": false,
      "stateMutability": "nonpayable",
      "type": "function"
    },
    {
      "constant": false,
      "inputs": [
        {
          "name": "_users",
          "type": "address[]"
        },
        {
          "name": "_wasCompliantDataCommitments",
          "type": "bytes32[]"
        },
        {
          "name": "_proofIndices",
          "type": "uint256[]"
        }
      ],
      "name": "addWasCompliantDataCommitmentsForUsers",
      "outputs": [],
      "payable": false,
      "stateMutability": "nonpayable",
      "type": "function"
    },
    {
      "constant": false,
      "inputs": [
        {
          "name": "_users",
          "type": "address[]"
        },
        {
          "name": "_wasCompliantDataCommitments",
          "type": "bytes32[]"
        }
      ],
      "name": "addDissentWasCompliantDataCommitmentsForUsers",
      "outputs": [],
      "payable": false,
      "stateMutability": "nonpayable",
      "type": "function"
    },
    {
      "constant": false,
      "inputs": [
        {
          "name": "_users",
          "type": "address[]"
        },
        {
          "name": "_wasCompliantData",
          "type": "bool[]"
        },
        {
          "name": "_randomNonces",
          "type": "bytes32[]"
        }
      ],
      "name": "addWasCompliantDataForUsers",
      "outputs": [],
      "payable": false,
      "stateMutability": "nonpayable",
      "type": "function"
    },
    {
      "constant": false,
      "inputs": [
        {
          "name": "_users",
          "type": "address[]"
        },
        {
          "name": "_wasCompliantData",
          "type": "bool[]"
        },
        {
          "name": "_randomNonces",
          "type": "bytes32[]"
        }
      ],
      "name": "addDissentWasCompliantDataForUsers",
      "outputs": [],
      "payable": false,
      "stateMutability": "nonpayable",
      "type": "function"
    },
    {
      "constant": false,
      "inputs": [
        {
          "name": "_users",
          "type": "address[]"
        }
      ],
      "name": "dissentToAcceptedAnswers",
      "outputs": [],
      "payable": false,
      "stateMutability": "nonpayable",
      "type": "function"
    },
    {
      "constant": false,
      "inputs": [
        {
          "name": "_roundIndex",
          "type": "uint256"
        }
      ],
      "name": "retrieveRoundJuriFees",
      "outputs": [],
      "payable": false,
      "stateMutability": "nonpayable",
      "type": "function"
    },
    {
      "constant": false,
      "inputs": [
        {
          "name": "_roundIndex",
          "type": "uint256"
        },
        {
          "name": "_juriFeesTokenAmount",
          "type": "uint256"
        }
      ],
      "name": "handleJuriFees",
      "outputs": [],
      "payable": false,
      "stateMutability": "nonpayable",
      "type": "function"
    },
    {
      "constant": true,
      "inputs": [
        {
          "name": "_roundIndex",
          "type": "uint256"
        },
        {
          "name": "_user",
          "type": "address"
        }
      ],
      "name": "getUserWorkAssignmentHashes",
      "outputs": [
        {
          "name": "",
          "type": "uint256[]"
        }
      ],
      "payable": false,
      "stateMutability": "view",
      "type": "function"
    },
    {
      "constant": true,
      "inputs": [
        {
          "name": "_roundIndex",
          "type": "uint256"
        },
        {
          "name": "_user",
          "type": "address"
        }
      ],
      "name": "getDissented",
      "outputs": [
        {
          "name": "",
          "type": "bool"
        }
      ],
      "payable": false,
      "stateMutability": "view",
      "type": "function"
    },
    {
      "constant": true,
      "inputs": [
        {
          "name": "_roundIndex",
          "type": "uint256"
        },
        {
          "name": "_user",
          "type": "address"
        }
      ],
      "name": "getComplianceDataBeforeDissent",
      "outputs": [
        {
          "name": "",
          "type": "int256"
        }
      ],
      "payable": false,
      "stateMutability": "view",
      "type": "function"
    },
    {
      "constant": true,
      "inputs": [
        {
          "name": "_roundIndex",
          "type": "uint256"
        },
        {
          "name": "_node",
          "type": "address"
        },
        {
          "name": "_user",
          "type": "address"
        }
      ],
      "name": "getHasRevealed",
      "outputs": [
        {
          "name": "",
          "type": "bool"
        }
      ],
      "payable": false,
      "stateMutability": "view",
      "type": "function"
    },
    {
      "constant": true,
      "inputs": [
        {
          "name": "_roundIndex",
          "type": "uint256"
        },
        {
          "name": "_node",
          "type": "address"
        }
      ],
      "name": "getNodeActivityCount",
      "outputs": [
        {
          "name": "",
          "type": "uint256"
        }
      ],
      "payable": false,
      "stateMutability": "view",
      "type": "function"
    },
    {
      "constant": true,
      "inputs": [
        {
          "name": "_roundIndex",
          "type": "uint256"
        }
      ],
      "name": "getTotalActivityCount",
      "outputs": [
        {
          "name": "",
          "type": "uint256"
        }
      ],
      "payable": false,
      "stateMutability": "view",
      "type": "function"
    },
    {
      "constant": true,
      "inputs": [
        {
          "name": "_roundIndex",
          "type": "uint256"
        },
        {
          "name": "_node",
          "type": "address"
        },
        {
          "name": "_user",
          "type": "address"
        }
      ],
      "name": "getUserComplianceDataCommitment",
      "outputs": [
        {
          "name": "",
          "type": "bytes32"
        }
      ],
      "payable": false,
      "stateMutability": "view",
      "type": "function"
    },
    {
      "constant": true,
      "inputs": [
        {
          "name": "_roundIndex",
          "type": "uint256"
        },
        {
          "name": "_node",
          "type": "address"
        },
        {
          "name": "_user",
          "type": "address"
        }
      ],
      "name": "getGivenNodeResult",
      "outputs": [
        {
          "name": "",
          "type": "bool"
        }
      ],
      "payable": false,
      "stateMutability": "view",
      "type": "function"
    },
    {
      "constant": true,
      "inputs": [
        {
          "name": "_roundIndex",
          "type": "uint256"
        },
        {
          "name": "_node",
          "type": "address"
        },
        {
          "name": "_user",
          "type": "address"
        }
      ],
      "name": "getWasAssignedToUser",
      "outputs": [
        {
          "name": "",
          "type": "bool"
        }
      ],
      "payable": false,
      "stateMutability": "view",
      "type": "function"
    },
    {
      "constant": true,
      "inputs": [
        {
          "name": "_roundIndex",
          "type": "uint256"
        },
        {
          "name": "_node",
          "type": "address"
        },
        {
          "name": "_user",
          "type": "address"
        }
      ],
      "name": "getHasDissented",
      "outputs": [
        {
          "name": "",
          "type": "bool"
        }
      ],
      "payable": false,
      "stateMutability": "view",
      "type": "function"
    },
    {
      "constant": true,
      "inputs": [
        {
          "name": "_roundIndex",
          "type": "uint256"
        },
        {
          "name": "_user",
          "type": "address"
        }
      ],
      "name": "getUserComplianceData",
      "outputs": [
        {
          "name": "",
          "type": "int256"
        }
      ],
      "payable": false,
      "stateMutability": "view",
      "type": "function"
    },
    {
      "constant": true,
      "inputs": [
        {
          "name": "_roundIndex",
          "type": "uint256"
        },
        {
          "name": "_user",
          "type": "address"
        }
      ],
      "name": "getUserWorkoutSignature",
      "outputs": [
        {
          "name": "",
          "type": "bytes32"
        }
      ],
      "payable": false,
      "stateMutability": "view",
      "type": "function"
    },
    {
      "constant": true,
      "inputs": [],
      "name": "getRegisteredJuriStakingPools",
      "outputs": [
        {
          "name": "",
          "type": "address[]"
        }
      ],
      "payable": false,
      "stateMutability": "view",
      "type": "function"
    },
    {
      "constant": true,
      "inputs": [],
      "name": "getDissentedUsers",
      "outputs": [
        {
          "name": "",
          "type": "address[]"
        }
      ],
      "payable": false,
      "stateMutability": "view",
      "type": "function"
    },
    {
      "constant": true,
      "inputs": [
        {
          "name": "_user",
          "type": "address"
        }
      ],
      "name": "getCurrentHighestHashForUser",
      "outputs": [
        {
          "name": "",
          "type": "uint256"
        }
      ],
      "payable": false,
      "stateMutability": "view",
      "type": "function"
    }
  ],
  "bytecode": "0x60806040523480156200001157600080fd5b50604051620077113803806200771183398181016040526102008110156200003857600080fd5b8101908080519060200190929190805190602001909291908051906020019092919080519060200190929190805190602001909291908051906020019092919080519060200190929190805190602001909291908051906020019092919080519060200190929190805190602001909291908051906020019092919080519060200190929190805190602001909291908051906020019092919080519060200190929190505050336000806101000a8154816001600160a01b0302191690836001600160a01b031602179055506000809054906101000a90046001600160a01b03166001600160a01b031660006001600160a01b03167f8be0079c531659141344cd1fd0a4f28419497f9722a3daafe3b4186f6b6457e060405160405180910390a3600c60208190527f13649b2456f1b42fef0f0040b3aaeabcd21a76a0f3f5defd4f583839455116e88d90557fd421a5181c571bba3f01190c922c3b2a896fc1d84e86c9f17ac10e67ebef8b5c8c90557f5d6016397a73f5e079297ac5a36fef17b4d9c3831618e63ab105738020ddd7208b90557fc0da782485e77ae272268ae0a3ff44c1552ecb60b3743924de17a815e0a3cfd78a90557f5b84bb9e0f5aa9cc45a8bb66468db5d4816d1e75ff86b5e1f1dd8d144dab8097899055600560009081527f2cd9ebf6ff19cdd7ffcc447d7c7d47b5991f5c7392a04512134e765802361fa68990558791906006815260200190815260200160002081905550308f8e87878787876040516200026d90620003e9565b6001600160a01b0398891681529688166020880152949096166040808701919091526060860193909352608085019190915260a084015260c083019390935260e082015290519081900361010001906000f080158015620002d2573d6000803e3d6000fd5b50600160006101000a8154816001600160a01b0302191690836001600160a01b031602179055506001600d6000600160009054906101000a90046001600160a01b03166001600160a01b03166001600160a01b0316815260200190815260200160002060006101000a81548160ff0219169083151502179055508d600360006101000a8154816001600160a01b0302191690836001600160a01b031602179055508f600260006101000a8154816001600160a01b0302191690836001600160a01b031602179055506000600360146101000a81548160ff02191690836006811115620003ba57fe5b021790555050600060045550504260058190556006555050600160075550620003f79950505050505050505050565b613108806200460983390190565b61420280620004076000396000f3fe608060405234801561001057600080fd5b50600436106102d65760003560e01c806379c6966f11610182578063cc200a08116100e9578063e7546714116100a2578063ed860dc51161007c578063ed860dc514610d33578063eff4b6d914610ed8578063f2268c0614610f0c578063f2fde38b14610f38576102d6565b8063e754671414610cb5578063e881602314610ce1578063ecd8b0ff14610d0d576102d6565b8063cc200a0814610c44578063dcdd653a14610c61578063dfe005fe14610c69578063dfe42ee114610c9d578063e57797d514610ca5578063e6d50d3714610cad576102d6565b806396623d191161013b57806396623d1914610b745780639845755914610ba85780639bfe963314610bb0578063b52765ac14610bdc578063b8793da914610c08578063ca35c13414610c10576102d6565b806379c6966f14610b035780637f1daea214610b205780638da5cb5b14610b545780638e42332514610b5c5780638f32d59b14610b6457806394a484d114610b6c576102d6565b806343c70cee11610241578063648036ae116101fa5780636e51b2d4116101d45780636e51b2d414610a35578063715018a614610ad657806371e5dda914610ade57806378e9792514610afb576102d6565b8063648036ae146109e457806364a5511f146109ec578063658ed17414610a18576102d6565b806343c70cee146106ba57806343e23bf21461085f57806359ef88d4146109825780635bf5d54c1461098a57806360239d37146109b657806364147c49146109be576102d6565b806319e00d681161029357806319e00d681461045157806326b158cd146104915780633241d9ea146104b557806334b90e0a1461065a57806339ba0e31146106805780633f94ce541461069d576102d6565b806302362805146102db57806305732b701461031957806307a35f37146103235780630a969906146103ce57806310f40736146103d6578063121986041461042e575b600080fd5b610307600480360360408110156102f157600080fd5b50803590602001356001600160a01b0316610f5e565b60408051918252519081900360200190f35b610321610f8b565b005b6103216004803603604081101561033957600080fd5b81359190810190604081016020820135600160201b81111561035a57600080fd5b82018360208201111561036c57600080fd5b803590602001918460018302840111600160201b8311171561038d57600080fd5b91908080601f0160208091040260200160405190810160405280939291908181526020018383808284376000920191909152509295506110a4945050505050565b61032161133a565b6103de6114b4565b60408051602080825283518183015283519192839290830191858101910280838360005b8381101561041a578181015183820152602001610402565b505050509050019250505060405180910390f35b6103216004803603604081101561044457600080fd5b5080359060200135611517565b61047d6004803603604081101561046757600080fd5b50803590602001356001600160a01b031661160d565b604080519115158252519081900360200190f35b61049961163b565b604080516001600160a01b039092168252519081900360200190f35b610321600480360360608110156104cb57600080fd5b810190602081018135600160201b8111156104e557600080fd5b8201836020820111156104f757600080fd5b803590602001918460208302840111600160201b8311171561051857600080fd5b9190808060200260200160405190810160405280939291908181526020018383602002808284376000920191909152509295949360208101935035915050600160201b81111561056757600080fd5b82018360208201111561057957600080fd5b803590602001918460208302840111600160201b8311171561059a57600080fd5b9190808060200260200160405190810160405280939291908181526020018383602002808284376000920191909152509295949360208101935035915050600160201b8111156105e957600080fd5b8201836020820111156105fb57600080fd5b803590602001918460208302840111600160201b8311171561061c57600080fd5b91908080602002602001604051908101604052809392919081815260200183836020028082843760009201919091525092955061164a945050505050565b6103216004803603602081101561067057600080fd5b50356001600160a01b0316611770565b6103076004803603602081101561069657600080fd5b5035611819565b610307600480360360208110156106b357600080fd5b503561182b565b610321600480360360608110156106d057600080fd5b810190602081018135600160201b8111156106ea57600080fd5b8201836020820111156106fc57600080fd5b803590602001918460208302840111600160201b8311171561071d57600080fd5b9190808060200260200160405190810160405280939291908181526020018383602002808284376000920191909152509295949360208101935035915050600160201b81111561076c57600080fd5b82018360208201111561077e57600080fd5b803590602001918460208302840111600160201b8311171561079f57600080fd5b9190808060200260200160405190810160405280939291908181526020018383602002808284376000920191909152509295949360208101935035915050600160201b8111156107ee57600080fd5b82018360208201111561080057600080fd5b803590602001918460208302840111600160201b8311171561082157600080fd5b919080806020026020016040519081016040528093929190818152602001838360200280828437600092019190915250929550611840945050505050565b6103216004803603604081101561087557600080fd5b810190602081018135600160201b81111561088f57600080fd5b8201836020820111156108a157600080fd5b803590602001918460208302840111600160201b831117156108c257600080fd5b9190808060200260200160405190810160405280939291908181526020018383602002808284376000920191909152509295949360208101935035915050600160201b81111561091157600080fd5b82018360208201111561092357600080fd5b803590602001918460208302840111600160201b8311171561094457600080fd5b919080806020026020016040519081016040528093929190818152602001838360200280828437600092019190915250929550611960945050505050565b6103de611a8e565b610992611aee565b604051808260068111156109a257fe5b60ff16815260200191505060405180910390f35b610321611afe565b610307600480360360208110156109d457600080fd5b50356001600160a01b0316611b06565b610307611c40565b6103de60048036036040811015610a0257600080fd5b50803590602001356001600160a01b0316611c46565b61032160048036036020811015610a2e57600080fd5b5035611d49565b61032160048036036020811015610a4b57600080fd5b810190602081018135600160201b811115610a6557600080fd5b820183602082011115610a7757600080fd5b803590602001918460208302840111600160201b83111715610a9857600080fd5b919080806020026020016040519081016040528093929190818152602001838360200280828437600092019190915250929550611fd2945050505050565b6103216123de565b61030760048036036020811015610af457600080fd5b503561246b565b61030761247d565b61049960048036036020811015610b1957600080fd5b5035612483565b61047d60048036036060811015610b3657600080fd5b508035906001600160a01b03602082013581169160400135166124aa565b6104996124f1565b610307612500565b61047d612506565b610307612517565b61030760048036036060811015610b8a57600080fd5b508035906001600160a01b036020820135811691604001351661251d565b610499612550565b61032160048036036040811015610bc657600080fd5b506001600160a01b03813516906020013561255f565b61030760048036036040811015610bf257600080fd5b50803590602001356001600160a01b03166126ee565b61032161270b565b61047d60048036036060811015610c2657600080fd5b508035906001600160a01b0360208201358116916040013516612913565b61049960048036036020811015610c5a57600080fd5b5035612955565b610321612962565b61047d60048036036060811015610c7f57600080fd5b508035906001600160a01b0360208201358116916040013516612acb565b610321612b07565b610321612b0f565b610499612b30565b61030760048036036040811015610ccb57600080fd5b50803590602001356001600160a01b0316612b3f565b61030760048036036040811015610cf757600080fd5b50803590602001356001600160a01b0316612bb9565b61047d60048036036020811015610d2357600080fd5b50356001600160a01b0316612be8565b61032160048036036060811015610d4957600080fd5b810190602081018135600160201b811115610d6357600080fd5b820183602082011115610d7557600080fd5b803590602001918460208302840111600160201b83111715610d9657600080fd5b9190808060200260200160405190810160405280939291908181526020018383602002808284376000920191909152509295949360208101935035915050600160201b811115610de557600080fd5b820183602082011115610df757600080fd5b803590602001918460208302840111600160201b83111715610e1857600080fd5b9190808060200260200160405190810160405280939291908181526020018383602002808284376000920191909152509295949360208101935035915050600160201b811115610e6757600080fd5b820183602082011115610e7957600080fd5b803590602001918460208302840111600160201b83111715610e9a57600080fd5b919080806020026020016040519081016040528093929190818152602001838360200280828437600092019190915250929550612bfd945050505050565b61047d60048036036060811015610eee57600080fd5b508035906001600160a01b0360208201358116916040013516612cc2565b61030760048036036040811015610f2257600080fd5b50803590602001356001600160a01b0316612d03565b61032160048036036020811015610f4e57600080fd5b50356001600160a01b0316612d2e565b6000828152600e602090815260408083206001600160a01b03851684529091529020600301545b92915050565b6003805b600354600160a01b900460ff166006811115610fa757fe5b14610fe35760405162461bcd60e51b81526004018080602001828103825260278152602001806140256027913960400191505060405180910390fd5b6000600c6000600360149054906101000a900460ff16600681111561100457fe5b815260208101919091526040016000205490506006600354600160a01b900460ff16600681111561103157fe5b141561107f57600061104e60055442612d7d90919063ffffffff16565b9050600061106783600454612dcf90919063ffffffff16565b905080821061107857611078612e32565b50506110a0565b600654611092908263ffffffff612edb16565b42106110a0576110a0612e32565b5050565b6000600c6000600360149054906101000a900460ff1660068111156110c557fe5b815260208101919091526040016000205490506006600354600160a01b900460ff1660068111156110f257fe5b141561114057600061110f60055442612d7d90919063ffffffff16565b9050600061112883600454612dcf90919063ffffffff16565b905080821061113957611139612e32565b5050611161565b600654611153908263ffffffff612edb16565b421061116157611161612e32565b600080600354600160a01b900460ff16600681111561117c57fe5b146111b85760405162461bcd60e51b81526004018080602001828103825260278152602001806140256027913960400191505060405180910390fd5b600354604051630917a7dd60e11b81526020600482018181528651602484015286516000946001600160a01b03169363122f4fba938993928392604401918501908083838b5b838110156112165781810151838201526020016111fe565b50505050905090810190601f1680156112435780820380516001836020036101000a031916815260200191505b5092505050602060405180830381600087803b15801561126257600080fd5b505af1158015611276573d6000803e3d6000fd5b505050506040513d602081101561128c57600080fd5b50519050600260ff8216146112e8576040805162461bcd60e51b815260206004820152601b60248201527f496e76616c69642073746f726167652070617468207061737365640000000000604482015290519081900360640190fd5b600480546000908152600e60208181526040808420338086529083528185206003018b90558554855292825280842092845291815291208651611332939190910191870190613d5a565b505050505050565b611342612506565b61137d5760405162461bcd60e51b81526004018080602001828103825260218152602001806140046021913960400191505060405180910390fd5b60048054600190810180835590546040805163044c170760e41b81529384019290925290516001600160a01b03909116916344c1707091602480830192600092919082900301818387803b1580156113d457600080fd5b505af11580156113e8573d6000803e3d6000fd5b50506040805160008152602081019182905251611409935060099250613dd8565b506114a26003600160009054906101000a90046001600160a01b03166001600160a01b031663d57632ea6004546040518263ffffffff1660e01b81526004018082815260200191505060206040518083038186803b15801561146a57600080fd5b505afa15801561147e573d6000803e3d6000fd5b505050506040513d602081101561149457600080fd5b50519063ffffffff612f2916565b6007556003805460ff60a01b19169055565b6060600980548060200260200160405190810160405280929190818152602001828054801561150c57602002820191906000526020600020905b81546001600160a01b031681526001909101906020018083116114ee575b505050505090505b90565b600254604080516323b872dd60e01b81523360048201523060248201526044810184905290516001600160a01b03909216916323b872dd916064808201926020929091908290030181600087803b15801561157157600080fd5b505af1158015611585573d6000803e3d6000fd5b505050506040513d602081101561159b57600080fd5b50516115d85760405162461bcd60e51b81526004018080602001828103825260398152602001806141486039913960400191505060405180910390fd5b6000828152600b60205260409020546115f7908263ffffffff612edb16565b6000928352600b60205260409092209190915550565b6000918252600e602090815260408084206001600160a01b0393909316845291905290206005015460ff1690565b6003546001600160a01b031681565b6000600c6000600360149054906101000a900460ff16600681111561166b57fe5b815260208101919091526040016000205490506006600354600160a01b900460ff16600681111561169857fe5b14156116e65760006116b560055442612d7d90919063ffffffff16565b905060006116ce83600454612dcf90919063ffffffff16565b90508082106116df576116df612e32565b5050611707565b6006546116f9908263ffffffff612edb16565b421061170757611707612e32565b600180600354600160a01b900460ff16600681111561172257fe5b1461175e5760405162461bcd60e51b81526004018080602001828103825260278152602001806140256027913960400191505060405180910390fd5b611769858585612f93565b5050505050565b611778612506565b6117b35760405162461bcd60e51b81526004018080602001828103825260218152602001806140046021913960400191505060405180910390fd5b6001600160a01b03166000818152600d60205260408120805460ff191660019081179091556008805491820181559091527ff3f7a9fe364faab93b216da50a3214154f22a0a2b415b23a84c8169e8b636ee30180546001600160a01b0319169091179055565b600b6020526000908152604090205481565b6000908152600e602052604090206002015490565b6000600c6000600360149054906101000a900460ff16600681111561186157fe5b815260208101919091526040016000205490506006600354600160a01b900460ff16600681111561188e57fe5b14156118dc5760006118ab60055442612d7d90919063ffffffff16565b905060006118c483600454612dcf90919063ffffffff16565b90508082106118d5576118d5612e32565b50506118fd565b6006546118ef908263ffffffff612edb16565b42106118fd576118fd612e32565b6002805b600354600160a01b900460ff16600681111561191957fe5b146119555760405162461bcd60e51b81526004018080602001828103825260278152602001806140256027913960400191505060405180910390fd5b611769858585613239565b6000600c6000600360149054906101000a900460ff16600681111561198157fe5b815260208101919091526040016000205490506006600354600160a01b900460ff1660068111156119ae57fe5b14156119fc5760006119cb60055442612d7d90919063ffffffff16565b905060006119e483600454612dcf90919063ffffffff16565b90508082106119f5576119f5612e32565b5050611a1d565b600654611a0f908263ffffffff612edb16565b4210611a1d57611a1d612e32565b600480600354600160a01b900460ff166006811115611a3857fe5b14611a745760405162461bcd60e51b81526004018080602001828103825260278152602001806140256027913960400191505060405180910390fd5b604080516000815260208101909152611769858583612f93565b6060600880548060200260200160405190810160405280929190818152602001828054801561150c576020028201919060005260206000209081546001600160a01b031681526001909101906020018083116114ee575050505050905090565b600354600160a01b900460ff1681565b600280610f8f565b600080611b1283613578565b600001905060008173__MaxHeapLibrary________________________634959698990916040518263ffffffff1660e01b81526004018082815260200191505060206040518083038186803b158015611b6a57600080fd5b505af4158015611b7e573d6000803e3d6000fd5b505050506040513d6020811015611b9457600080fd5b50519050600081611ba6576000611c37565b8273__MaxHeapLibrary________________________63b9f7ccc990916040518263ffffffff1660e01b81526004018082815260200191505060206040518083038186803b158015611bf757600080fd5b505af4158015611c0b573d6000803e3d6000fd5b505050506040513d601f19601f820116820180604052506020811015611c3057600080fd5b5051600101545b95945050505050565b60045481565b6000828152600e602090815260408083206001600160a01b0385168452909152808220815163203df14760e01b81526004810191909152905160609273__MaxHeapLibrary________________________9263203df1479260248083019392829003018186803b158015611cb957600080fd5b505af4158015611ccd573d6000803e3d6000fd5b505050506040513d6000823e601f3d908101601f191682016040526020811015611cf657600080fd5b810190808051600160201b811115611d0d57600080fd5b82016020810184811115611d2057600080fd5b81518560208202830111600160201b82111715611d3c57600080fd5b5090979650505050505050565b33611d52613e39565b506000828152600e602090815260408083206001600160a01b038516845260019081018352818420825180840184529181015460ff161515825260020154818401819052868552600b845282852054600a8552838620338752909452918420549093919291611dc7838363ffffffff612d7d16565b90506004548710611e1f576040805162461bcd60e51b815260206004820152601760248201527f526f756e64206e6f74207965742066696e697368656421000000000000000000604482015290519081900360640190fd5b60008411611e5e5760405162461bcd60e51b81526004018080602001828103825260248152602001806141816024913960400191505060405180910390fd5b60008111611eb3576040805162461bcd60e51b815260206004820152601e60248201527f4e6f7468696e6720617661696c61626c6520746f207769746864726177210000604482015290519081900360640190fd5b6000878152600e6020526040812060020154620f424091611eea82611ede898663ffffffff612dcf16565b9063ffffffff612f2916565b90506000611f0284611ede878563ffffffff612dcf16565b60008c8152600a6020908152604080832033845282528083208b90558e8352600e82528083206001600160a01b038f8116808652600192830185528386208301805460ff1916909317909255600254835163a9059cbb60e01b81526004810193909352602483018790529251959650919091169363a9059cbb93604480840194938390030190829087803b158015611f9957600080fd5b505af1158015611fad573d6000803e3d6000fd5b505050506040513d6020811015611fc357600080fd5b50505050505050505050505050565b6000600c6000600360149054906101000a900460ff166006811115611ff357fe5b815260208101919091526040016000205490506006600354600160a01b900460ff16600681111561202057fe5b141561206e57600061203d60055442612d7d90919063ffffffff16565b9050600061205683600454612dcf90919063ffffffff16565b905080821061206757612067612e32565b505061208f565b600654612081908263ffffffff612edb16565b421061208f5761208f612e32565b600380600354600160a01b900460ff1660068111156120aa57fe5b146120e65760405162461bcd60e51b81526004018080602001828103825260278152602001806140256027913960400191505060405180910390fd5b8251339060009061213e576040805162461bcd60e51b815260206004820152601c60248201527f55736572732061727261792063616e6e6f7420626520656d7074792100000000604482015290519081900360640190fd5b60005b85518110156121d957600086828151811061215857fe5b6020026020010151905061216c84826135a1565b600101546301000000900460ff166121b55760405162461bcd60e51b8152600401808060200182810382526028815260200180613ee16028913960400191505060405180910390fd5b6121be81613578565b6005015460ff166121d0576001909201915b50600101612141565b506000811161222f576040805162461bcd60e51b815260206004820152601d60248201527f5573657273207765726520616c72656164792064697373656e74656421000000604482015290519081900360640190fd5b60608160405190808252806020026020018201604052801561225b578160200160208202803883390190505b5090506000805b87518110156122d95761228788828151811061227a57fe5b6020026020010151613578565b6005015460ff166122d15787818151811061229e57fe5b60200260200101518383815181106122b257fe5b6001600160a01b03909216602092830291909101909101526001909101905b600101612262565b5060005b82518110156123d45760008382815181106122f457fe5b6020026020010151905061230781613578565b60020154600480546000908152600e602081815260408084206001600160a01b03978816808652908352818520600190810197909755855485528383528185208186528352818520600501805460ff19168817905594548452918152818320958b16835294840185528082208383529094529283208201805462ff000019166201000017905560098054808401825593527f6e1540171b6c0c960b71a7020d9f60077f6af931a8bbf590da0223dacf75c7af90920180546001600160a01b031916909217909155016122dd565b5050505050505050565b6123e6612506565b6124215760405162461bcd60e51b81526004018080602001828103825260218152602001806140046021913960400191505060405180910390fd5b600080546040516001600160a01b03909116907f8be0079c531659141344cd1fd0a4f28419497f9722a3daafe3b4186f6b6457e0908390a3600080546001600160a01b0319169055565b600c6020526000908152604090205481565b60055481565b6009818154811061249057fe5b6000918252602090912001546001600160a01b0316905081565b6000838152600e602090815260408083206001600160a01b03868116855260019182018452828520908616855290925290912001546301000000900460ff165b9392505050565b6000546001600160a01b031690565b60065481565b6000546001600160a01b0316331490565b60075481565b6000928352600e602090815260408085206001600160a01b03948516865260010182528085209290931684525290205490565b6001546001600160a01b031681565b612567612506565b6125a25760405162461bcd60e51b81526004018080602001828103825260218152602001806140046021913960400191505060405180910390fd5b6008546125e05760405162461bcd60e51b815260040180806020018281038252602c815260200180614072602c913960400191505060405180910390fd5b816001600160a01b0316600882815481106125f757fe5b6000918252602090912001546001600160a01b0316146126485760405162461bcd60e51b815260040180806020018281038252602681526020018061404c6026913960400191505060405180910390fd5b6001600160a01b0382166000908152600d60205260409020805460ff191690556008805461267d90600163ffffffff612d7d16565b8154811061268757fe5b600091825260209091200154600880546001600160a01b0390921691839081106126ad57fe5b600091825260209091200180546001600160a01b0319166001600160a01b039290921691909117905560088054906126e9906000198301613e50565b505050565b600a60209081526000928352604080842090915290825290205481565b600680600354600160a01b900460ff16600681111561272657fe5b146127625760405162461bcd60e51b81526004018080602001828103825260278152602001806140256027913960400191505060405180910390fd5b6000600c6000600360149054906101000a900460ff16600681111561278357fe5b815260208101919091526040016000205490506006600354600160a01b900460ff1660068111156127b057fe5b14156127fe5760006127cd60055442612d7d90919063ffffffff16565b905060006127e683600454612dcf90919063ffffffff16565b90508082106127f7576127f7612e32565b505061281f565b600654612811908263ffffffff612edb16565b421061281f5761281f612e32565b60048054600190810180835590546040805163044c170760e41b81529384019290925290516001600160a01b03909116916344c1707091602480830192600092919082900301818387803b15801561287657600080fd5b505af115801561288a573d6000803e3d6000fd5b505060408051600081526020810191829052516128ab935060099250613dd8565b5061290c6003600160009054906101000a90046001600160a01b03166001600160a01b031663d57632ea6004546040518263ffffffff1660e01b81526004018082815260200191505060206040518083038186803b15801561146a57600080fd5b6007555050565b6000928352600e602090815260408085206001600160a01b03948516865260019081018352818620939094168552919052909120015462010000900460ff1690565b6008818154811061249057fe5b600354600790600160a01b900460ff16600681111561297d57fe5b6001018161298757fe5b06600681111561299357fe5b6003805460ff60a01b1916600160a01b8360068111156129af57fe5b0217905550426006556000600354600160a01b900460ff1660068111156129d257fe5b1415612ac95760048054600190810180835590546040805163044c170760e41b81529384019290925290516001600160a01b03909116916344c1707091602480830192600092919082900301818387803b158015612a2f57600080fd5b505af1158015612a43573d6000803e3d6000fd5b50506040805160008152602081019182905251612a64935060099250613dd8565b50612ac56003600160009054906101000a90046001600160a01b03166001600160a01b031663d57632ea6004546040518263ffffffff1660e01b81526004018082815260200191505060206040518083038186803b15801561146a57600080fd5b6007555b565b6000928352600e602090815260408085206001600160a01b03948516865260019081018352818620939094168552919052909120015460ff1690565b600580610f8f565b600380546000919060ff60a01b1916600160a01b835b021790555042600655565b6002546001600160a01b031681565b336000908152600d602052604081205460ff16612b8d5760405162461bcd60e51b815260040180806020018281038252602b815260200180613f6a602b913960400191505060405180910390fd5b506000918252600e602090815260408084206001600160a01b0393909316845291905290206002015490565b6000828152600e602090815260408083206001600160a01b038516845260010190915290206002015492915050565b600d6020526000908152604090205460ff1681565b6000600c6000600360149054906101000a900460ff166006811115612c1e57fe5b815260208101919091526040016000205490506006600354600160a01b900460ff166006811115612c4b57fe5b1415612c99576000612c6860055442612d7d90919063ffffffff16565b90506000612c8183600454612dcf90919063ffffffff16565b9050808210612c9257612c92612e32565b5050612cba565b600654612cac908263ffffffff612edb16565b4210612cba57612cba612e32565b600580611901565b6000928352600e602090815260408085206001600160a01b039485168652600190810183528186209390941685529190529091200154610100900460ff1690565b6000918252600e602090815260408084206001600160a01b0393909316845291905290206001015490565b612d36612506565b612d715760405162461bcd60e51b81526004018080602001828103825260218152602001806140046021913960400191505060405180910390fd5b612d7a816135d8565b50565b600082821115612dc9576040805162461bcd60e51b81526020600482015260126024820152715361666553756220756e646572666c6f772160701b604482015290519081900360640190fd5b50900390565b600082612dde57506000610f85565b82820282848281612deb57fe5b04146124ea576040805162461bcd60e51b8152602060048201526011602482015270536166654d756c206f766572666c6f772160781b604482015290519081900360640190fd5b60038054600160a01b900460ff166006811115612e4b57fe5b1415612e8857600954612e5f576006612e62565b60045b6003805460ff60a01b1916600160a01b836006811115612e7e57fe5b0217905550612ed5565b600354600790600160a01b900460ff166006811115612ea357fe5b60010181612ead57fe5b066006811115612eb957fe5b6003805460ff60a01b1916600160a01b836006811115612b2557fe5b42600655565b6000828201838110156124ea576040805162461bcd60e51b815260206004820152601160248201527053616665416464206f766572666c6f772160781b604482015290519081900360640190fd5b6000808211612f7f576040805162461bcd60e51b815260206004820152601b60248201527f536166654469762063616e6e6f74206469766964652062792030210000000000604482015290519081900360640190fd5b6000828481612f8a57fe5b04949350505050565b81518351339114612fd55760405162461bcd60e51b8152600401808060200182810382526036815260200180613f956036913960400191505060405180910390fd5b815184511480612ffc57506004600354600160a01b900460ff166006811115612ffa57fe5b145b6130375760405162461bcd60e51b81526004018080602001828103825260278152602001806141216027913960400191505060405180910390fd5b6000805b85518110156131c057600086828151811061305257fe5b60200260200101519050600086838151811061306a57fe5b6020026020010151905061307c613e74565b61308686846135a1565b6040805160a0810182528254815260019092015460ff808216158015602086015261010083048216151593850193909352620100008204811615156060850152630100000090910416151560808301529091506131145760405162461bcd60e51b815260040180806020018281038252602581526020018061409e6025913960400191505060405180910390fd5b61311d83613578565b6005015460ff168061316b5750613148838789878151811061313b57fe5b6020026020010151613687565b801561316b57506001600354600160a01b900460ff16600681111561316957fe5b145b156131b55780516001909501946131b5576004546000908152600e602090815260408083206001600160a01b03808b16855260019091018352818420908716845290915290208290555b50505060010161303b565b506000811161320f576040805162461bcd60e51b81526020600482015260166024820152754e6f2076616c696420757365727320746f206164642160501b604482015290519081900360640190fd5b6001600354600160a01b900460ff16600681111561322957fe5b14156117695761176982826139be565b8151835133911461327b5760405162461bcd60e51b81526004018080602001828103825260378152602001806140c36037913960400191505060405180910390fd5b81518451146132bb5760405162461bcd60e51b8152600401808060200182810382526039815260200180613fcb6039913960400191505060405180910390fd5b60005b84518110156117695760008582815181106132d557fe5b602002602001015190506132e7613e74565b6132f184836135a1565b6040805160a0810182528254815260019092015460ff8082161515602085015261010082048116151592840192909252620100008104821615156060840152630100000090041615156080820152865190915060009087908590811061335357fe5b60200260200101519050600082600001519050600087868151811061337457fe5b602002602001015190506000838260405160200180831515151560f81b8152600101828152602001925050506040516020818303038152906040528051906020012090506133c186613578565b6005015460ff16806133d4575084608001515b61340f5760405162461bcd60e51b8152600401808060200182810382526022815260200180613f096022913960400191505060405180910390fd5b8460200151156134505760405162461bcd60e51b815260040180806020018281038252602581526020018061409e6025913960400191505060405180910390fd5b6004546000908152600e60209081526040808320338452600190810183528184206001600160a01b038b1685529092529091208101805460ff191690911790558083146134ce5760405162461bcd60e51b81526004018080602001828103825260278152602001806140fa6027913960400191505060405180910390fd5b6004546000908152600e602090815260408083206001600160a01b038c8116855260019182018452828520908b168552909252822001805461ff0019166101008715150217905561351e87613578565b600201549050846135325760018103613537565b806001015b6004546000908152600e602090815260408083206001600160a01b03909b16835299905297909720600201969096555050600190940193506132be92505050565b6004546000908152600e602090815260408083206001600160a01b039490941683529290522090565b6004546000908152600e602090815260408083206001600160a01b0395861684526001018252808320939094168252919091522090565b6001600160a01b03811661362c576040805162461bcd60e51b81526020600482015260166024820152754e6577206f776e65722063616e6e6f7420626520302160501b604482015290519081900360640190fd5b600080546040516001600160a01b03808516939216917f8be0079c531659141344cd1fd0a4f28419497f9722a3daafe3b4186f6b6457e091a3600080546001600160a01b0319166001600160a01b0392909216919091179055565b60008061369385613578565b905060006136a086611b06565b600383015460015460408051638e4179db60e01b81526001600160a01b038a81166004830152915194955092936000939190921691638e4179db91602480820192602092909190829003018186803b1580156136fb57600080fd5b505afa15801561370f573d6000803e3d6000fd5b505050506040513d602081101561372557600080fd5b50519050816137655760405162461bcd60e51b81526004018080602001828103825260298152602001806141a56029913960400191505060405180910390fd5b61377d81670de0b6b3a764000063ffffffff612f2916565b86106137ba5760405162461bcd60e51b815260040180806020018281038252603f815260200180613f2b603f913960400191505060405180910390fd5b6040805160208082018590526bffffffffffffffffffffffff1960608b901b168284015260548083018a90528351808403909101815260748301808552815191830191909120600754634959698960e01b9092526078840189905293518893919273__MaxHeapLibrary________________________9263495969899260988083019392829003018186803b15801561385257600080fd5b505af4158015613866573d6000803e3d6000fd5b505050506040513d602081101561387c57600080fd5b5051108061388957508482105b156139ae57613899898b84613a3e565b6007548173__MaxHeapLibrary________________________634959698990916040518263ffffffff1660e01b81526004018082815260200191505060206040518083038186803b1580156138ed57600080fd5b505af4158015613901573d6000803e3d6000fd5b505050506040513d602081101561391757600080fd5b5051111561399f577f81eb635ae266c3de79b5eb888447c4f47bb2bd3f7e8f15f68c43b706be02f8336139498b611b06565b60408051918252519081900360200190a16139638a613b63565b7fd807f35ad23d587028eb2dcca5083429a910db54d00da39c3cee6df5d3e0a94761398d8b611b06565b60408051918252519081900360200190a15b600196505050505050506124ea565b5060009998505050505050505050565b6139db816139cb84613ca7565b600201549063ffffffff612edb16565b600480546000908152600e602081815260408084206001600160a01b038916855260010182528084206002908101969096559354835252200154613a25908263ffffffff612edb16565b6004546000908152600e60205260409020600201555050565b6000613a4983613578565b604080516317651b2b60e21b8152600481018390526001600160a01b038716602482015260448101859052905191925073__MaxHeapLibrary________________________91635d946cac91606480820192600092909190829003018186803b158015613ab557600080fd5b505af4158015613ac9573d6000803e3d6000fd5b5050604080516001600160a01b0380881682528816602082015280820186905290517f05181bb92216966bea512248cecd685c53838b1e3714f5cda3608b863854642e9350908190036060019150a150506004546000908152600e602090815260408083206001600160a01b039586168452600190810183528184209490951683529290522001805463ff00000019166301000000179055565b6000613b6e82613578565b600001905060008173__MaxHeapLibrary________________________639a39c5c390916040518263ffffffff1660e01b81526004018082815260200191505060206040518083038186803b158015613bc657600080fd5b505af4158015613bda573d6000803e3d6000fd5b505050506040513d6020811015613bf057600080fd5b5051604080516001600160a01b0380871682528316602082015281519293507f3fa6100e640756fbdacaf4e089ef6fbc98de8b2d41a794f62801bd043e2f3aae929081900390910190a1600480546000908152600e602081815260408084206001600160a01b0380881680875260019283018552838720918b168088529185528387208301805463ff000000191690559654865293835281852095855294909401815283832091835252908120556126e981613cd4565b6004546000908152600e602090815260408083206001600160a01b03851684526001019091529020919050565b613cf26001613ce283613ca7565b600201549063ffffffff612d7d16565b600480546000908152600e602081815260408084206001600160a01b03881685526001908101835281852060029081019790975594548452919052902090910154613d429163ffffffff612d7d16565b6004546000908152600e602052604090206002015550565b828054600181600116156101000203166002900490600052602060002090601f016020900481019282601f10613d9b57805160ff1916838001178555613dc8565b82800160010185558215613dc8579182015b82811115613dc8578251825591602001919060010190613dad565b50613dd4929150613ea2565b5090565b828054828255906000526020600020908101928215613e2d579160200282015b82811115613e2d57825182546001600160a01b0319166001600160a01b03909116178255602090920191600190910190613df8565b50613dd4929150613ebc565b604080518082019091526000808252602082015290565b8154818355818111156126e9576000838152602090206126e9918101908301613ea2565b6040805160a08101825260008082526020820181905291810182905260608101829052608081019190915290565b61151491905b80821115613dd45760008155600101613ea8565b61151491905b80821115613dd45780546001600160a01b0319168155600101613ec256fe596f752077657265206e6f742061737369676e656420746f2074686520676976656e207573657221596f752077657265206e6f742061737369676e656420746f207468652075736572215468652070726f6f6620696e646578206d75737420626520736d616c6c6572207468616e2074686520626f6e646564207374616b6520706572203165313821506f6f6c206973206e6f74207265676973746572656420746f2072656365697665206e65772064617461215573657273206c656e6774682073686f756c64206d6174636820776173436f6d706c69616e7444617461436f6d6d69746d656e747321546865207573657273206c656e677468206d757374206d61746368207468652072616e646f6d4e6f6e6365732064617461206c656e677468214f6e6c79206f776e65722063616e2075736520746869732066756e6374696f6e2146756e6374696f6e2063616e6e6f742062652063616c6c656420617420746869732074696d652152656d6f76616c20696e646578206d757374206d6174636820706f6f6c20616464726573732152656769737465726564204a757269205374616b696e6720506f6f6c73206c69737420697320656d70747921596f7520616c72656164792061646465642074686520636f6d706c69616e63654461746121546865207573657273206c656e677468206d757374206d617463682074686520636f6d706c69616e63652064617461206c656e67746821546865207061737365642072616e646f6d206e6f6e636520646f6573206e6f74206d61746368215573657273206c656e6774682073686f756c64206d617463682070726f6f66496e6469636573214a7572695374616b696e67506f6f6c20646f6573206e6f7420686176652073756666696369656e74204a7572692066656520746f6b656e73214e6f646520646964206e6f74207061727469636970617465207468697320726f756e6421546865207573657220646964206e6f742061646420616e792068656172742072617465206461746121a265627a7a72305820a45de9df88c0ab8fa8a636cfd9a652b392bb2d863b039db2376674ffb767abda64736f6c634300050a0032608060405234801561001057600080fd5b50604051613108380380613108833981810160405261010081101561003457600080fd5b50805160208201516040808401516060850151608086015160a087015160c088015160e090980151600080546001600160a01b031916331780825596519899979895979496939592949391926001600160a01b0392909216917f8be0079c531659141344cd1fd0a4f28419497f9722a3daafe3b4186f6b6457e0908290a3600180546001600160a01b03199081166001600160a01b039a8b1617909155600280548216988a1698909817909755600480549097169590971694909417909455600d91909155600e55600f9190915560105560115560006005819055612fe990819061011f90396000f3fe608060405234801561001057600080fd5b50600436106101cf5760003560e01c80638e4179db11610104578063d57632ea116100a2578063ec55688911610071578063ec55688914610525578063f2fde38b1461052d578063f5dede2114610553578063fc0c546a1461055b576101cf565b8063d57632ea146104db578063d815b4c6146104f8578063dd95dd4b14610500578063e5f95a991461051d576101cf565b8063a43fa4ab116100de578063a43fa4ab1461046b578063b641dd5a14610488578063c35da4be146104a5578063d42e9cee146104d3576101cf565b80638e4179db146104205780638f32d59b14610446578063a2aadc031461044e576101cf565b806344d96e9511610171578063715018a61161014b578063715018a61461039857806379015f43146103a057806386ab6a54146103ce5780638da5cb5b146103fc576101cf565b806344d96e951461035a57806350d4074b1461036257806364630e5f1461036a576101cf565b80632e954897116101ad5780632e954897146102725780633be53609146102b15780633ff36802146102e357806344c170701461033b576101cf565b80630831756a146101d4578063097a389e146102185780630d0ce70014610258575b600080fd5b6101fa600480360360208110156101ea57600080fd5b50356001600160a01b0316610563565b60408051938452602084019290925282820152519081900360600190f35b6102446004803603604081101561022e57600080fd5b50803590602001356001600160a01b0316610584565b604080519115158252519081900360200190f35b6102606105a4565b60408051918252519081900360200190f35b6102986004803603602081101561028857600080fd5b50356001600160a01b03166105aa565b6040805192835260208301919091528051918290030190f35b610244600480360360608110156102c757600080fd5b508035906001600160a01b0360208201351690604001356105c3565b6102eb6105e9565b60408051602080825283518183015283519192839290830191858101910280838360005b8381101561032757818101518382015260200161030f565b505050509050019250505060405180910390f35b6103586004803603602081101561035157600080fd5b5035610784565b005b61026061087d565b610260610883565b6103586004803603604081101561038057600080fd5b506001600160a01b0381358116916020013516610889565b610358610c00565b610358600480360360408110156103b657600080fd5b506001600160a01b0381358116916020013516610c8d565b610358600480360360408110156103e457600080fd5b506001600160a01b0381358116916020013516610fb4565b610404611315565b604080516001600160a01b039092168252519081900360200190f35b6102606004803603602081101561043657600080fd5b50356001600160a01b0316611324565b610244611407565b6103586004803603602081101561046457600080fd5b5035611418565b6102606004803603602081101561048157600080fd5b5035611870565b6103586004803603602081101561049e57600080fd5b5035611882565b610358600480360360408110156104bb57600080fd5b506001600160a01b03813581169160200135166119ab565b610260611da4565b610260600480360360208110156104f157600080fd5b5035611daa565b610358611dbc565b6103586004803603602081101561051657600080fd5b5035611f9f565b610260612410565b610404612416565b6103586004803603602081101561054357600080fd5b50356001600160a01b0316612425565b610260612474565b61040461247a565b60096020526000908152604090208054600182015460029092015490919083565b600b60209081526000928352604080842090915290825290205460ff1681565b600f5481565b6006602052600090815260409020805460019091015482565b600a60209081526000938452604080852082529284528284209052825290205460ff1681565b606060006105f76003612489565b905060008111610644576040805162461bcd60e51b81526020600482015260136024820152724e6f206e6f64657320617661696c61626c652160681b604482015290519081900360640190fd5b606081604051908082528060200260200182016040528015610670578160200160208202803883390190505b50600160009081527f3617319a054d772f909f7c479a2cebe5066e836a939412e32403c99029b92eff6020527ff5d2b9d7b7dcf31fafb527f48cb641b3e286ba85117ea973378ae75f2b0f27c95482519293506001600160a01b0316918391906106d657fe5b6001600160a01b039092166020928302919091019091015260015b8281101561077d57600360008361070f84600163ffffffff6124c816565b8151811061071957fe5b6020908102919091018101516001600160a01b0390811683528282019390935260409182016000908120600182529091522054835191169083908390811061075d57fe5b6001600160a01b03909216602092830291909101909101526001016106f1565b5091505090565b61078c611407565b6107c75760405162461bcd60e51b8152600401808060200182810382526021815260200180612dc56021913960400191505060405180910390fd5b60008181526008602052604090205461080357600860006107ef83600163ffffffff6124c816565b815260200190815260200160002054610813565b6000818152600860205260409020545b60008281526008602090815260408083209390935560079052205461085b576007600061084783600163ffffffff6124c816565b81526020019081526020016000205461086b565b6000818152600760205260409020545b60009182526007602052604090912055565b600c5481565b600e5481565b600154604080516316fd755360e21b815290516006926001600160a01b031691635bf5d54c916004808301926020929190829003018186803b1580156108ce57600080fd5b505afa1580156108e2573d6000803e3d6000fd5b505050506040513d60208110156108f857600080fd5b5051600681111561090557fe5b14610945576040805162461bcd60e51b81526020600482018190526024820152600080516020612f60833981519152604482015290519081900360640190fd5b600154604080516332401b5760e11b815290516000926001600160a01b03169163648036ae916004808301926020929190829003018186803b15801561098a57600080fd5b505afa15801561099e573d6000803e3d6000fd5b505050506040513d60208110156109b457600080fd5b50516000818152600a602090815260408083206001600160a01b0387168452825280832083805290915290205490915060ff1615610a235760405162461bcd60e51b8152600401808060200182810382526034815260200180612f2c6034913960400191505060405180910390fd5b6000818152600a602090815260408083206001600160a01b038087168086529184528285208580528452828520805460ff1916600190811790915554835163033c01ad60e31b815260048101889052602481019390935292519216926319e00d6892604480840193829003018186803b158015610a9f57600080fd5b505afa158015610ab3573d6000803e3d6000fd5b505050506040513d6020811015610ac957600080fd5b5051600154604080516396623d1960e01b8152600481018690526001600160a01b0388811660248301528781166044830152915193945060009391909216916396623d19916064808301926020929190829003018186803b158015610b2d57600080fd5b505afa158015610b41573d6000803e3d6000fd5b505050506040513d6020811015610b5757600080fd5b5051905081610b975760405162461bcd60e51b8152600401808060200182810382526022815260200180612c606022913960400191505060405180910390fd5b8015610bea576040805162461bcd60e51b815260206004820181905260248201527f54686520706173736564206e6f646520776173206e6f74206f66666c696e6521604482015290519081900360640190fd5b610bf8838633600e5461251f565b505050505050565b610c08611407565b610c435760405162461bcd60e51b8152600401808060200182810382526021815260200180612dc56021913960400191505060405180910390fd5b600080546040516001600160a01b03909116907f8be0079c531659141344cd1fd0a4f28419497f9722a3daafe3b4186f6b6457e0908390a3600080546001600160a01b0319169055565b600154604080516316fd755360e21b815290516006926001600160a01b031691635bf5d54c916004808301926020929190829003018186803b158015610cd257600080fd5b505afa158015610ce6573d6000803e3d6000fd5b505050506040513d6020811015610cfc57600080fd5b50516006811115610d0957fe5b14610d49576040805162461bcd60e51b81526020600482018190526024820152600080516020612f60833981519152604482015290519081900360640190fd5b600154604080516332401b5760e11b815290516000926001600160a01b03169163648036ae916004808301926020929190829003018186803b158015610d8e57600080fd5b505afa158015610da2573d6000803e3d6000fd5b505050506040513d6020811015610db857600080fd5b50516000818152600a602090815260408083206001600160a01b038716845282528083206002845290915290205490915060ff1615610e285760405162461bcd60e51b815260040180806020018281038252603a815260200180612cbf603a913960400191505060405180910390fd5b6000818152600a602090815260408083206001600160a01b03808716808652918452828520600286528452828520805460ff1916600190811790915554835163eff4b6d960e01b81526004810188905289831660248201526044810193909352925192169263eff4b6d992606480840193829003018186803b158015610ead57600080fd5b505afa158015610ec1573d6000803e3d6000fd5b505050506040513d6020811015610ed757600080fd5b5051600154604080516339d519c560e21b8152600481018690526001600160a01b03878116602483015291519394506000938493929092169163e754671491604480820192602092909190829003018186803b158015610f3657600080fd5b505afa158015610f4a573d6000803e3d6000fd5b505050506040513d6020811015610f6057600080fd5b5051139050811515811415610fa65760405162461bcd60e51b8152600401808060200182810382526031815260200180612d946031913960400191505060405180910390fd5b610bf883863360105461251f565b600154604080516316fd755360e21b815290516006926001600160a01b031691635bf5d54c916004808301926020929190829003018186803b158015610ff957600080fd5b505afa15801561100d573d6000803e3d6000fd5b505050506040513d602081101561102357600080fd5b5051600681111561103057fe5b14611070576040805162461bcd60e51b81526020600482018190526024820152600080516020612f60833981519152604482015290519081900360640190fd5b600154604080516332401b5760e11b815290516000926001600160a01b03169163648036ae916004808301926020929190829003018186803b1580156110b557600080fd5b505afa1580156110c9573d6000803e3d6000fd5b505050506040513d60208110156110df57600080fd5b50516000818152600a602090815260408083206001600160a01b038716845282528083206001845290915290205490915060ff161561114f5760405162461bcd60e51b8152600401808060200182810382526034815260200180612ecd6034913960400191505060405180910390fd5b6000818152600a602090815260408083206001600160a01b038087168086529184528285206001808752908552838620805460ff191682179055548351633f8ed75160e11b815260048101889052898316602482015260448101939093529251921692637f1daea292606480840193829003018186803b1580156111d257600080fd5b505afa1580156111e6573d6000803e3d6000fd5b505050506040513d60208110156111fc57600080fd5b505190508061123c5760405162461bcd60e51b8152600401808060200182810382526030815260200180612e0f6030913960400191505060405180910390fd5b60015460408051636ff002ff60e11b8152600481018590526001600160a01b03878116602483015286811660448301529151919092169163dfe005fe916064808301926020929190829003018186803b15801561129857600080fd5b505afa1580156112ac573d6000803e3d6000fd5b505050506040513d60208110156112c257600080fd5b5051156113005760405162461bcd60e51b815260040180806020018281038252602c815260200180612ea1602c913960400191505060405180910390fd5b61130e828533600f5461251f565b5050505050565b6000546001600160a01b031690565b600080600160009054906101000a90046001600160a01b03166001600160a01b031663648036ae6040518163ffffffff1660e01b815260040160206040518083038186803b15801561137557600080fd5b505afa158015611389573d6000803e3d6000fd5b505050506040513d602081101561139f57600080fd5b505190506113ab612bfe565b506001600160a01b03831660009081526009602090815260409182902082516060810184528154815260018201549281019290925260020154918101829052908210156113f95780516113ff565b80602001515b949350505050565b6000546001600160a01b0316331490565b600154604080516332401b5760e11b815290516000926001600160a01b03169163648036ae916004808301926020929190829003018186803b15801561145d57600080fd5b505afa158015611471573d6000803e3d6000fd5b505050506040513d602081101561148757600080fd5b5051600154604080516332401b5760e11b815290519293506000926001600160a01b039092169163648036ae91600480820192602092909190829003018186803b1580156114d457600080fd5b505afa1580156114e8573d6000803e3d6000fd5b505050506040513d60208110156114fe57600080fd5b50516000838152600b602090815260408083203384529091529020546001909101915060ff16156115605760405162461bcd60e51b815260040180806020018281038252602b815260200180612f01602b913960400191505060405180910390fd5b6000828152600b602090815260408083203384529091529020805460ff1916600117905561158c612bfe565b503360009081526009602090815260408083208151606081018352815481526001820154938101939093526002015490820181905290919084106115d5575060208101516115d9565b5080515b6000851161162e576040805162461bcd60e51b815260206004820152601e60248201527f506c65617365207061737320616e20616d6f756e742061626f76652030210000604482015290519081900360640190fd5b8481101561166d5760405162461bcd60e51b8152600401808060200182810382526026815260200180612c3a6026913960400191505060405180910390fd5b600061167f828763ffffffff6124c816565b90506000611698600d54846127bb90919063ffffffff16565b9050600d54821015806116a9575081155b6116e45760405162461bcd60e51b815260040180806020018281038252603d815260200180612c82603d913960400191505060405180910390fd5b60408051808201825288815260208082018881523360008181526006845285812094518555915160019485015584516060810186528881528084018881528187018c81529284526009909452949091209351845590519183019190915551600290910155600c5461175b908863ffffffff6124c816565b600c55600d5460009061177590849063ffffffff6127bb16565b90506000611789838363ffffffff6124c816565b600088815260086020526040812054919250906117b4576000898152600860205260409020546117c4565b6000888152600860205260409020545b90506117d6818363ffffffff6124c816565b60008981526008602052604090205584611864576117fb60033363ffffffff61282516565b506000888152600760205260409020546118345760008981526007602052604090205461182f90600163ffffffff6124c816565b611854565b60008881526007602052604090205461185490600163ffffffff6124c816565b6000898152600760205260409020555b50505050505050505050565b60086020526000908152604090205481565b6004546001600160a01b031633146118cb5760405162461bcd60e51b815260040180806020018281038252602d815260200180612e74602d913960400191505060405180910390fd5b60055481111561190c5760405162461bcd60e51b8152600401808060200182810382526035815260200180612f806035913960400191505060405180910390fd5b60055461191f908263ffffffff6124c816565b600555600254600480546040805163a9059cbb60e01b81526001600160a01b0392831693810193909352602483018590525192169163a9059cbb916044808201926020929091908290030181600087803b15801561197c57600080fd5b505af1158015611990573d6000803e3d6000fd5b505050506040513d60208110156119a657600080fd5b505050565b600154604080516316fd755360e21b815290516006926001600160a01b031691635bf5d54c916004808301926020929190829003018186803b1580156119f057600080fd5b505afa158015611a04573d6000803e3d6000fd5b505050506040513d6020811015611a1a57600080fd5b50516006811115611a2757fe5b14611a67576040805162461bcd60e51b81526020600482018190526024820152600080516020612f60833981519152604482015290519081900360640190fd5b600154604080516332401b5760e11b815290516000926001600160a01b03169163648036ae916004808301926020929190829003018186803b158015611aac57600080fd5b505afa158015611ac0573d6000803e3d6000fd5b505050506040513d6020811015611ad657600080fd5b50516000818152600a602090815260408083206001600160a01b038716845282528083206003845290915290205490915060ff1615611b465760405162461bcd60e51b815260040180806020018281038252603b815260200180612d59603b913960400191505060405180910390fd5b6000818152600a602090815260408083206001600160a01b03808716808652918452828520600386528452828520805460ff1916600190811790915554835163328d704d60e21b81526004810188905289831660248201526044810193909352925192169263ca35c13492606480840193829003018186803b158015611bcb57600080fd5b505afa158015611bdf573d6000803e3d6000fd5b505050506040513d6020811015611bf557600080fd5b505160015460408051637913460360e11b8152600481018690526001600160a01b03878116602483015291519394506000938493929092169163f2268c0691604480820192602092909190829003018186803b158015611c5457600080fd5b505afa158015611c68573d6000803e3d6000fd5b505050506040513d6020811015611c7e57600080fd5b5051600154604080516339d519c560e21b8152600481018890526001600160a01b03898116602483015291519490931394506000938493919092169163e754671491604480820192602092909190829003018186803b158015611ce057600080fd5b505afa158015611cf4573d6000803e3d6000fd5b505050506040513d6020811015611d0a57600080fd5b505113905082611d4b5760405162461bcd60e51b8152600401808060200182810382526033815260200180612cf96033913960400191505060405180910390fd5b80151582151514611d8d5760405162461bcd60e51b8152600401808060200182810382526029815260200180612de66029913960400191505060405180910390fd5b611d9b84873360115461251f565b50505050505050565b60105481565b60076020526000908152604090205481565b600154604080516332401b5760e11b815290516000926001600160a01b03169163648036ae916004808301926020929190829003018186803b158015611e0157600080fd5b505afa158015611e15573d6000803e3d6000fd5b505050506040513d6020811015611e2b57600080fd5b50519050611e37612c1f565b503360009081526006602090815260409182902082518084019093528054835260010154908201819052821015611eb5576040805162461bcd60e51b815260206004820152601c60248201527f4e6f742079657420616c6c6f77656420746f2077697468647261772100000000604482015290519081900360640190fd5b6040805180820182526000808252602080830182815233808452600683528584209451855590516001909401939093556002548551855163a9059cbb60e01b81526004810195909552602485015293516001600160a01b039094169363a9059cbb93604480820194918390030190829087803b158015611f3457600080fd5b505af1158015611f48573d6000803e3d6000fd5b505050506040513d6020811015611f5e57600080fd5b5051611f9b5760405162461bcd60e51b8152600401808060200182810382526035815260200180612e3f6035913960400191505060405180910390fd5b5050565b600154604080516332401b5760e11b815290516000926001600160a01b03169163648036ae916004808301926020929190829003018186803b158015611fe457600080fd5b505afa158015611ff8573d6000803e3d6000fd5b505050506040513d602081101561200e57600080fd5b5051600154604080516332401b5760e11b815290519293506000926001600160a01b039092169163648036ae91600480820192602092909190829003018186803b15801561205b57600080fd5b505afa15801561206f573d6000803e3d6000fd5b505050506040513d602081101561208557600080fd5b5051600254604080516323b872dd60e01b8152336004820152306024820152604481018790529051600190930193506001600160a01b03909116916323b872dd916064808201926020929091908290030181600087803b1580156120e857600080fd5b505af11580156120fc573d6000803e3d6000fd5b505050506040513d602081101561211257600080fd5b5051612165576040805162461bcd60e51b815260206004820152601e60248201527f4e6f7420656e6f75676820746f6b656e7320666f7220626f6e64696e67210000604482015290519081900360640190fd5b6000828152600b6020908152604080832033845290915290205460ff16156121be5760405162461bcd60e51b815260040180806020018281038252602b815260200180612f01602b913960400191505060405180910390fd5b6000828152600b602090815260408083203384529091529020805460ff191660011790556121ea612bfe565b5033600090815260096020908152604080832081516060810183528154815260018201549381019390935260020154908201819052909190841061223357506020810151612237565b5080515b806122b95761225060036000338163ffffffff6128d616565b506000838152600760205260409020546122895760008481526007602052604090205461228490600163ffffffff61294c16565b6122a9565b6000838152600760205260409020546122a990600163ffffffff61294c16565b6000848152600760205260409020555b60006122cb828763ffffffff61294c16565b905060006122e4600d54846127bb90919063ffffffff16565b6040805160608101825285815260208082018681528284018a8152336000908152600990935293909120915182555160018201559051600290910155600c54909150612336908863ffffffff61294c16565b600c55600d5482101561237a5760405162461bcd60e51b815260040180806020018281038252602d815260200180612d2c602d913960400191505060405180910390fd5b6000612391600d54846127bb90919063ffffffff16565b905060006123a5828463ffffffff6124c816565b600088815260086020526040812054919250906123d0576000898152600860205260409020546123e0565b6000888152600860205260409020545b90506123f2818363ffffffff61294c16565b60009889526008602052604090982097909755505050505050505050565b600d5481565b6001546001600160a01b031681565b61242d611407565b6124685760405162461bcd60e51b8152600401808060200182810382526021815260200180612dc56021913960400191505060405180910390fd5b612471816129a1565b50565b60115481565b6002546001600160a01b031681565b600080808061249a85826001612a50565b90935091505b6001600160a01b038216156113ff576124bb85836001612a50565b90935091506001016124a0565b600082821115612514576040805162461bcd60e51b81526020600482015260126024820152715361666553756220756e646572666c6f772160701b604482015290519081900360640190fd5b508082035b92915050565b60006001850161252d612bfe565b506001600160a01b0385166000908152600960209081526040918290208251606081018452815481526001820154928101929092526002015491810191909152612575612bfe565b506001600160a01b038516600090815260096020908152604080832081516060810183528154815260018201549381019390935260020154828201528301519091908910156125c55782516125cb565b82602001515b9050600089836040015111156125e25782516125e8565b82602001515b9050600061260d6064612601858b63ffffffff612aa016565b9063ffffffff6127bb16565b9050600061262282600263ffffffff6127bb16565b9050600061263d8388602001516124c890919063ffffffff16565b9050600061265883886020015161294c90919063ffffffff16565b905060405180606001604052808781526020018381526020018a815250600960008f6001600160a01b03166001600160a01b0316815260200190815260200160002060008201518160000155602082015181600101556040820151816002015590505060405180606001604052808681526020018281526020018a815250600960008e6001600160a01b03166001600160a01b031681526020019081526020016000206000820151816000015560208201518160010155604082015181600201559050506127318360055461294c90919063ffffffff16565b6005819055507fb0f9aff79729f95cfd3c5a53434ea39810e21e8ad1cc3d50a22bd4a6aecb876e8e8e8e8e60405180858152602001846001600160a01b03166001600160a01b03168152602001836001600160a01b03166001600160a01b0316815260200182815260200194505050505060405180910390a1505050505050505050949350505050565b6000808211612811576040805162461bcd60e51b815260206004820152601b60248201527f536166654469762063616e6e6f74206469766964652062792030210000000000604482015290519081900360640190fd5b600082848161281c57fe5b04949350505050565b60006001600160a01b038216158061284457506128428383612b03565b155b1561285157506000612519565b6001600160a01b038281166000908152602085815260408083208380529091528082205460018084529190922054612890938793811692911690612ba1565b506001600160a01b03811660009081526020928352604080822082805290935282812080546001600160a01b031990811690915560018252929020805490921690915590565b60006128e28584612b03565b1580156128f457506128f48585612b03565b15612941576001600160a01b0380851660009081526020878152604080832086151584529091529020541661292b86868686612ba1565b61293786858386612ba1565b60019150506113ff565b506000949350505050565b60008282018381101561299a576040805162461bcd60e51b815260206004820152601160248201527053616665416464206f766572666c6f772160781b604482015290519081900360640190fd5b9392505050565b6001600160a01b0381166129f5576040805162461bcd60e51b81526020600482015260166024820152754e6577206f776e65722063616e6e6f7420626520302160501b604482015290519081900360640190fd5b600080546040516001600160a01b03808516939216917f8be0079c531659141344cd1fd0a4f28419497f9722a3daafe3b4186f6b6457e091a3600080546001600160a01b0319166001600160a01b0392909216919091179055565b600080612a5d8585612b03565b612a6c57506000905080612a98565b50506001600160a01b038083166000908152602085815260408083208515158452909152902054600191165b935093915050565b600082612aaf57506000612519565b82820282848281612abc57fe5b041461299a576040805162461bcd60e51b8152602060048201526011602482015270536166654d756c206f766572666c6f772160781b604482015290519081900360640190fd5b6001600160a01b03818116600090815260208481526040808320838052909152812054909116158015612b5857506001600160a01b038281166000908152602085815260408083206001845290915290205416155b15612b9957600080805260208481526040808320600184529091529020546001600160a01b0383811691161415612b9157506001612519565b506000612519565b506001612519565b6001600160a01b0391821660008181526020868152604080832094158084529482528083208054969097166001600160a01b0319968716811790975595825295865284812092158152919094529190912080549091169091179055565b60405180606001604052806000815260200160008152602001600081525090565b60405180604001604052806000815260200160008152509056fe596f7520646f6e2774206861766520656e6f756768207374616b6520746f20756e626f6e642154686520706173736564207573657220776173206e6f742064697373656e74656421596f75206d6179206f6e6c7920756e626f6e6420757020746f20746865206d696e696d756d20616c6c6f77616e6365206f7220616c6c207374616b6521546865206e6f64652068617320616c7265616479206265656e20736c617368656420666f7220616e20696e636f727265637420726573756c742154686520706173736564206e6f646520646964206e6f742064697373656e7420746f2074686520706173736564207573657221596f75206d75737420626f6e64206174206c6561737420746865206d696e696d756d20616c6c6f77616e636521546865206e6f64652068617320616c7265616479206265656e20736c617368656420666f7220616e20696e636f72726563742064697373656e742154686520706173736564206e6f646520646964206e6f74206769766520616e20696e636f727265637420726573756c74214f6e6c79206f776e65722063616e2075736520746869732066756e6374696f6e215468652064697373656e742066726f6d20706173736564206e6f64652077617320636f72726563742154686520706173736564206e6f646520776173206e6f742061737369676e656420746f207061737365642075736572214e6f7420656e6f75676820746f6b656e7320696e20626f6e64696e6720636f6e747261637420666f72207769746864726177616c214f6e6c79206a757269466f756e646174696f6e206d61792077697468647261772074686569722066756e64732154686520706173736564206e6f6465206861732072657665616c65642068697320636f6d6d69746d656e7421546865206e6f64652068617320616c7265616479206265656e20736c617368656420666f72206e6f742072657665616c696e6721596f75206d6179206f6e6c7920626f6e64206f7220756e626f6e64206f6e63652070657220726f756e6421546865206e6f64652068617320616c7265616479206265656e20736c617368656420666f72206265696e67206f66666c696e652150726f7879206d75737420626520696e20736c617368696e67207374616765214e6f7420656e6f7567682066756e647320746f2077697468647261772066726f6d206a7572466f756e646174696f6e46756e647321a265627a7a72305820bf8bf5f2f32083e193f3538fe7122aa04057a07fa57edf0b0fc30a41dee3eac164736f6c634300050a0032",
  "source": "pragma solidity 0.5.10;\r\n\r\nimport \"./lib/IERC20.sol\";\r\nimport \"./lib/Ownable.sol\";\r\nimport \"./lib/SafeMath.sol\";\r\n\r\nimport \"./JuriBonding.sol\";\r\nimport \"./lib/custom/MaxHeapLibrary.sol\";\r\nimport \"./lib/custom/SkaleFileStorageInterface.sol\";\r\n\r\ncontract JuriNetworkProxy is Ownable {\r\n    using SafeMath for uint256;\r\n    using MaxHeapLibrary for MaxHeapLibrary.heapStruct;\r\n\r\n    event RemovedMax(address user, address removedNode);\r\n    event AddedVerifierHash(address user, address node, bytes32 verifierHash);\r\n\r\n    event OLD_MAX(bytes32 maxVerifierHash);\r\n    event NEW_MAX(bytes32 maxVerifierHash);\r\n\r\n    enum Stages {\r\n        USER_ADDING_HEART_RATE_DATA,\r\n        NODES_ADDING_RESULT_COMMITMENTS,\r\n        NODES_ADDING_RESULT_REVEALS,\r\n        DISSENTING_PERIOD,\r\n        DISSENTS_NODES_ADDING_RESULT_COMMITMENTS,\r\n        DISSENTS_NODES_ADDING_RESULT_REVEALS,\r\n        SLASHING_PERIOD\r\n    }\r\n\r\n    struct UserState {\r\n        MaxHeapLibrary.heapStruct verifierHashesMaxHeap;\r\n        int256 complianceDataBeforeDissent;\r\n        int256 userComplianceData;\r\n        bytes32 userWorkoutSignature;\r\n        string userHeartRateDataStoragePath;\r\n        bool dissented;\r\n    }\r\n\r\n    struct NodeForUserState {\r\n        bytes32 complianceDataCommitment;\r\n        bool hasRevealed;\r\n        bool givenNodeResult;\r\n        bool hasDissented;\r\n        bool wasAssignedToUser;\r\n    }\r\n\r\n    struct NodeState {\r\n        mapping (address => NodeForUserState) nodeForUserStates;\r\n        bool hasRetrievedRewards;\r\n        uint256 activityCount;\r\n    }\r\n\r\n    struct JuriRound {\r\n        mapping (address => UserState) userStates;\r\n        mapping (address => NodeState) nodeStates;\r\n        uint256 totalActivityCount;\r\n    }\r\n\r\n    /**\r\n     * @dev Reverts if called in incorrect stage.\r\n     * @param _stage The allowed stage for the given function.\r\n     */\r\n    modifier atStage(Stages _stage) {\r\n        require(\r\n            currentStage == _stage,\r\n            \"Function cannot be called at this time!\"\r\n        );\r\n\r\n        _;\r\n    }\r\n\r\n    modifier checkIfNextStage() {\r\n        uint256 timeForStage = timesForStages[uint256(currentStage)];\r\n\r\n        if (currentStage == Stages.SLASHING_PERIOD) {\r\n            uint256 secondsSinceStart = now.sub(startTime);\r\n            uint256 secondsSinceStartNextPeriod = roundIndex.mul(timeForStage);\r\n\r\n            if (secondsSinceStart >= secondsSinceStartNextPeriod) {\r\n                _moveToNextStage();\r\n            }\r\n        } else if (now >= lastStageUpdate.add(timeForStage)) {\r\n            _moveToNextStage();\r\n        }\r\n\r\n        _;\r\n    }\r\n\r\n    JuriBonding public bonding;\r\n    IERC20 public juriFeesToken;\r\n    SkaleFileStorageInterface public skaleFileStorage;\r\n\r\n    Stages public currentStage;\r\n    uint256 public roundIndex;\r\n    uint256 public startTime;\r\n    uint256 public lastStageUpdate;\r\n    uint256 public nodeVerifierCount;\r\n    address[] public registeredJuriStakingPools;\r\n    address[] public dissentedUsers;\r\n\r\n    mapping (uint256 => mapping (address => uint256)) public totalJuriFeesAtWithdrawalTimes;\r\n    mapping (uint256 => uint256) public totalJuriFees;\r\n    mapping (uint256 => uint256) public timesForStages;\r\n    mapping (address => bool) public isRegisteredJuriStakingPool;\r\n    mapping (uint256 => JuriRound) internal stateForRound;\r\n\r\n    constructor(\r\n        IERC20 _juriFeesToken,\r\n        IERC20 _juriToken,\r\n        SkaleFileStorageInterface _skaleFileStorage,\r\n        address _juriFoundation,\r\n        uint256 _timeForAddingHeartRateData,\r\n        uint256 _timeForCommitmentStage,\r\n        uint256 _timeForRevealStage,\r\n        uint256 _timeForDissentStage,\r\n        uint256 _timeForDissentCommitmentStage,\r\n        uint256 _timeForDissentRevealStage,\r\n        uint256 _timeForSlashingStage,\r\n        uint256 _minStakePerNode,\r\n        uint256 _offlinePenalty,\r\n        uint256 _notRevealPenalty,\r\n        uint256 _incorrectResultPenalty,\r\n        uint256 _incorrectDissentPenalty\r\n    ) public {\r\n        timesForStages[uint256(Stages.USER_ADDING_HEART_RATE_DATA)] = _timeForAddingHeartRateData;\r\n        timesForStages[uint256(Stages.NODES_ADDING_RESULT_COMMITMENTS)] = _timeForCommitmentStage;\r\n        timesForStages[uint256(Stages.NODES_ADDING_RESULT_REVEALS)] = _timeForRevealStage;\r\n        timesForStages[uint256(Stages.DISSENTING_PERIOD)] = _timeForDissentStage;\r\n        timesForStages[uint256(Stages.DISSENTS_NODES_ADDING_RESULT_COMMITMENTS)] = _timeForDissentCommitmentStage;\r\n        timesForStages[uint256(Stages.DISSENTS_NODES_ADDING_RESULT_REVEALS)] = _timeForDissentRevealStage;\r\n        timesForStages[uint256(Stages.SLASHING_PERIOD)] = _timeForSlashingStage;\r\n\r\n        bonding = new JuriBonding(\r\n            this,\r\n            _juriToken,\r\n            _juriFoundation,\r\n            _minStakePerNode,\r\n            _offlinePenalty,\r\n            _notRevealPenalty,\r\n            _incorrectResultPenalty,\r\n            _incorrectDissentPenalty\r\n        );\r\n        isRegisteredJuriStakingPool[address(bonding)] = true;\r\n\r\n        skaleFileStorage = _skaleFileStorage;\r\n        juriFeesToken = _juriFeesToken;\r\n        currentStage = Stages.USER_ADDING_HEART_RATE_DATA;\r\n        roundIndex = 0;\r\n        startTime = now;\r\n        lastStageUpdate = now;\r\n        nodeVerifierCount = 1;\r\n    }\r\n\r\n    // PUBLIC METHODS\r\n\r\n    function registerJuriStakingPool(address _poolAddress) public onlyOwner {\r\n        isRegisteredJuriStakingPool[_poolAddress] = true;\r\n        registeredJuriStakingPools.push(_poolAddress);\r\n    }\r\n\r\n    function removeJuriStakingPool(address _poolAddress, uint256 _removalIndex) public onlyOwner {\r\n        require(\r\n            registeredJuriStakingPools.length > 0,\r\n            'Registered Juri Staking Pools list is empty!'\r\n        );\r\n        require(\r\n            registeredJuriStakingPools[_removalIndex] == _poolAddress,\r\n            'Removal index must match pool address!'\r\n        );\r\n\r\n        isRegisteredJuriStakingPool[_poolAddress] = false;\r\n        registeredJuriStakingPools[_removalIndex]\r\n            = registeredJuriStakingPools[registeredJuriStakingPools.length.sub(1)];\r\n        registeredJuriStakingPools.length--;\r\n    }\r\n\r\n    // TODO remove\r\n    function debugIncreaseRoundIndex() public onlyOwner {\r\n        roundIndex++;\r\n\r\n        bonding.moveToNextRound(roundIndex);\r\n\r\n        dissentedUsers = new address[](0);\r\n        // nodeVerifierCount = bonding.totalNodesCount(roundIndex).div(3); // TODO\r\n    \r\n        // maybe also count only active nodes\r\n        // https://juriproject.slack.com/archives/CHKB3D1GF/p1565926038000200\r\n        nodeVerifierCount = bonding.stakingNodesAddressCount(roundIndex).div(3);\r\n        currentStage = Stages.USER_ADDING_HEART_RATE_DATA;\r\n    }\r\n\r\n    // TODO remove\r\n    function moveToNextStage() public {\r\n        currentStage = Stages((uint256(currentStage) + 1) % 7);\r\n        lastStageUpdate = now;\r\n\r\n        if (currentStage == Stages.USER_ADDING_HEART_RATE_DATA) {\r\n            roundIndex++;\r\n\r\n            bonding.moveToNextRound(roundIndex);\r\n            dissentedUsers = new address[](0);\r\n            nodeVerifierCount = bonding.stakingNodesAddressCount(roundIndex).div(3);\r\n        }\r\n    }\r\n\r\n    // TODO remove\r\n    function moveToUserAddingHeartRateDataStage() public {\r\n        currentStage = Stages.USER_ADDING_HEART_RATE_DATA;\r\n        lastStageUpdate = now;\r\n    }\r\n\r\n    function moveToNextRound()\r\n        public\r\n        atStage(Stages.SLASHING_PERIOD)\r\n        checkIfNextStage {\r\n        roundIndex++;\r\n\r\n        bonding.moveToNextRound(roundIndex);\r\n    \r\n        dissentedUsers = new address[](0);\r\n        // nodeVerifierCount = bonding.totalNodesCount(roundIndex).div(3);\r\n        nodeVerifierCount = bonding.stakingNodesAddressCount(roundIndex).div(3);\r\n    }\r\n\r\n    function moveToDissentPeriod()\r\n        public\r\n        atStage(Stages.NODES_ADDING_RESULT_REVEALS)\r\n        checkIfNextStage {\r\n        // do nothing\r\n    }\r\n\r\n    function moveToSlashingPeriod()\r\n        public\r\n        atStage(Stages.DISSENTS_NODES_ADDING_RESULT_REVEALS)\r\n        checkIfNextStage {\r\n        // do nothing\r\n    }\r\n\r\n    function moveFromDissentToNextPeriod()\r\n        public\r\n        atStage(Stages.DISSENTING_PERIOD)\r\n        checkIfNextStage {\r\n        // do nothing\r\n    }\r\n\r\n    function addHeartRateDateForPoolUser(\r\n        bytes32 _userWorkoutSignature,\r\n        string memory _heartRateDataStoragePath\r\n    ) public checkIfNextStage atStage(Stages.USER_ADDING_HEART_RATE_DATA) {\r\n        // TODO verify signature, HOW ?\r\n\r\n        // TODO optional: enforce storage path fits msg.sender\r\n\r\n        uint8 fileStatus\r\n            = skaleFileStorage.getFileStatus(_heartRateDataStoragePath);\r\n        require(\r\n            fileStatus == 2, // => file exists\r\n            \"Invalid storage path passed\"\r\n        );\r\n\r\n        stateForRound[roundIndex]\r\n            .userStates[msg.sender]\r\n            .userWorkoutSignature = _userWorkoutSignature;\r\n        stateForRound[roundIndex]\r\n            .userStates[msg.sender]\r\n            .userHeartRateDataStoragePath = _heartRateDataStoragePath;\r\n    }\r\n\r\n    function addWasCompliantDataCommitmentsForUsers(\r\n        address[] memory _users,\r\n        bytes32[] memory _wasCompliantDataCommitments,\r\n        uint256[] memory _proofIndices\r\n    ) public checkIfNextStage atStage(Stages.NODES_ADDING_RESULT_COMMITMENTS) {\r\n        _addWasCompliantDataCommitmentsForUsers(\r\n            _users,\r\n            _wasCompliantDataCommitments,\r\n            _proofIndices\r\n        );\r\n    }\r\n\r\n    function addDissentWasCompliantDataCommitmentsForUsers(\r\n        address[] memory _users,\r\n        bytes32[] memory _wasCompliantDataCommitments\r\n        \r\n    ) public\r\n        checkIfNextStage\r\n        atStage(Stages.DISSENTS_NODES_ADDING_RESULT_COMMITMENTS) {\r\n        uint256[] memory _proofIndices = new uint256[](0);\r\n\r\n        _addWasCompliantDataCommitmentsForUsers(\r\n            _users,\r\n            _wasCompliantDataCommitments,\r\n            _proofIndices\r\n        );\r\n    }\r\n\r\n    function addWasCompliantDataForUsers(\r\n        address[] memory _users,\r\n        bool[] memory _wasCompliantData,\r\n        bytes32[] memory _randomNonces\r\n    ) public checkIfNextStage atStage(Stages.NODES_ADDING_RESULT_REVEALS) {\r\n        _addWasCompliantDataForUsers(\r\n            _users,\r\n            _wasCompliantData,\r\n            _randomNonces\r\n        );\r\n    }\r\n\r\n    function addDissentWasCompliantDataForUsers(\r\n        address[] memory _users,\r\n        bool[] memory _wasCompliantData,\r\n        bytes32[] memory _randomNonces\r\n    ) public\r\n        checkIfNextStage\r\n        atStage(Stages.DISSENTS_NODES_ADDING_RESULT_REVEALS) {\r\n        _addWasCompliantDataForUsers(\r\n            _users,\r\n            _wasCompliantData,\r\n            _randomNonces\r\n        );\r\n    }\r\n\r\n    function dissentToAcceptedAnswers(address[] memory _users)\r\n        public\r\n        checkIfNextStage\r\n        atStage(Stages.DISSENTING_PERIOD)\r\n    {\r\n        address node = msg.sender;\r\n        uint256 usersToDissentCount = 0;\r\n\r\n        require(_users.length > 0, 'Users array cannot be empty!');\r\n\r\n        for (uint256 i = 0; i < _users.length; i++) {\r\n            address user = _users[i];\r\n\r\n            require(\r\n                _getCurrentStateForNodeForUser(node, user).wasAssignedToUser,\r\n                'You were not assigned to the given user!'\r\n            );\r\n\r\n            if (!_getCurrentStateForUser(user).dissented) {\r\n                usersToDissentCount++;\r\n            }\r\n\r\n            // TODO only allow if node gave different previous result ?\r\n        }\r\n\r\n        require(\r\n            usersToDissentCount > 0,\r\n            \"Users were already dissented!\"\r\n        );\r\n        address[] memory usersToDissent = new address[](usersToDissentCount);\r\n        uint256 usersToDissentIndex = 0;\r\n\r\n        for (uint256 i = 0; i < _users.length; i++) {\r\n            if (!_getCurrentStateForUser(_users[i]).dissented) {\r\n                usersToDissent[usersToDissentIndex] = _users[i];\r\n                usersToDissentIndex++;\r\n            }\r\n        }\r\n\r\n        for (uint256 i = 0; i < usersToDissent.length; i++) {\r\n            address user = usersToDissent[i];\r\n\r\n            stateForRound[roundIndex].userStates[user].complianceDataBeforeDissent\r\n                = _getCurrentStateForUser(user).userComplianceData;\r\n            stateForRound[roundIndex]\r\n                .userStates[user]\r\n                .dissented = true;\r\n            stateForRound[roundIndex]\r\n                .nodeStates[node]\r\n                .nodeForUserStates[user]\r\n                .hasDissented = true;\r\n\r\n            dissentedUsers.push(user);\r\n        }\r\n    }\r\n\r\n    function retrieveRoundJuriFees(uint256 _roundIndex) public {\r\n        address node = msg.sender;\r\n        NodeState memory nodeState = stateForRound[_roundIndex].nodeStates[node];\r\n        uint256 activityCount = nodeState.activityCount;\r\n        uint256 totalJuriFeesForRound = totalJuriFees[_roundIndex];\r\n        uint256 alreadyWithdrawnJuriFees\r\n            = totalJuriFeesAtWithdrawalTimes[_roundIndex][msg.sender];\r\n        uint256 newFeesToWithdraw = totalJuriFeesForRound.sub(alreadyWithdrawnJuriFees);\r\n\r\n        require(_roundIndex < roundIndex, \"Round not yet finished!\");\r\n        require(activityCount > 0, \"Node did not participate this round!\");\r\n        require(newFeesToWithdraw > 0, \"Nothing available to withdraw!\");\r\n\r\n        uint256 multiplier = 1000000;\r\n        uint256 totalNodeActivityCount\r\n            = stateForRound[_roundIndex].totalActivityCount;\r\n        uint256 activityShare = activityCount.mul(multiplier).div(totalNodeActivityCount);\r\n        uint256 juriFeesTokenAmount = newFeesToWithdraw\r\n            .mul(activityShare)\r\n            .div(multiplier);\r\n\r\n        totalJuriFeesAtWithdrawalTimes[_roundIndex][msg.sender] = totalJuriFeesForRound;\r\n        stateForRound[_roundIndex].nodeStates[node].hasRetrievedRewards = true;\r\n        juriFeesToken.transfer(node, juriFeesTokenAmount);\r\n    }\r\n\r\n    /// INTERFACE METHODS\r\n\r\n    function handleJuriFees(\r\n        uint256 _roundIndex,\r\n        uint256 _juriFeesTokenAmount\r\n    ) external {\r\n        require(\r\n            juriFeesToken.transferFrom(msg.sender, address(this), _juriFeesTokenAmount),\r\n            'JuriStakingPool does not have sufficient Juri fee tokens!'\r\n        );\r\n\r\n        totalJuriFees[_roundIndex]\r\n            = totalJuriFees[_roundIndex].add(_juriFeesTokenAmount);\r\n    }\r\n\r\n    function getUserWorkAssignmentHashes(uint256 _roundIndex, address _user)\r\n        public\r\n        view\r\n        returns (uint256[] memory) {\r\n        return stateForRound[_roundIndex].userStates[_user].verifierHashesMaxHeap.getLowestHashes();\r\n    }\r\n\r\n    function getDissented(uint256 _roundIndex, address _user)\r\n        public\r\n        view\r\n        returns (bool) {\r\n        return stateForRound[_roundIndex].userStates[_user].dissented;\r\n    }\r\n\r\n    function getComplianceDataBeforeDissent(uint256 _roundIndex, address _user)\r\n        public\r\n        view\r\n        returns (int256) {\r\n        return stateForRound[_roundIndex].userStates[_user].complianceDataBeforeDissent;\r\n    }\r\n\r\n    function getHasRevealed(uint256 _roundIndex, address _node, address _user)\r\n        public\r\n        view\r\n        returns (bool) {\r\n        return stateForRound[_roundIndex].nodeStates[_node].nodeForUserStates[_user].hasRevealed;\r\n    }\r\n\r\n    function getNodeActivityCount(uint256 _roundIndex, address _node)\r\n        public\r\n        view\r\n        returns (uint256) {\r\n        return stateForRound[_roundIndex].nodeStates[_node].activityCount;\r\n    }\r\n\r\n    function getTotalActivityCount(uint256 _roundIndex)\r\n        public\r\n        view\r\n        returns (uint256) {\r\n        return stateForRound[_roundIndex].totalActivityCount;\r\n    }\r\n\r\n    function getUserComplianceDataCommitment(\r\n        uint256 _roundIndex,\r\n        address _node,\r\n        address _user\r\n    ) public view returns (bytes32) {\r\n        return stateForRound[_roundIndex].nodeStates[_node].nodeForUserStates[_user].complianceDataCommitment;\r\n    }\r\n\r\n    function getGivenNodeResult(\r\n        uint256 _roundIndex,\r\n        address _node,\r\n        address _user\r\n    ) public view returns (bool) {\r\n        return stateForRound[_roundIndex].nodeStates[_node].nodeForUserStates[_user].givenNodeResult;\r\n    }\r\n\r\n    function getWasAssignedToUser(\r\n        uint256 _roundIndex,\r\n        address _node,\r\n        address _user\r\n    ) public view returns (bool) {\r\n        return stateForRound[_roundIndex].nodeStates[_node].nodeForUserStates[_user].wasAssignedToUser;\r\n    }\r\n\r\n    function getHasDissented(uint256 _roundIndex, address _node, address _user)\r\n        public\r\n        view\r\n        returns (bool) {\r\n        return stateForRound[_roundIndex].nodeStates[_node].nodeForUserStates[_user].hasDissented;\r\n    }\r\n\r\n    function getUserComplianceData(uint256 _roundIndex, address _user)\r\n        public\r\n        view\r\n        returns (int256) {\r\n        require(\r\n            isRegisteredJuriStakingPool[msg.sender],\r\n            \"Pool is not registered to receive new data!\"\r\n        );\r\n\r\n        return stateForRound[_roundIndex].userStates[_user].userComplianceData;\r\n    }\r\n\r\n    function getUserWorkoutSignature(uint256 _roundIndex, address _user)\r\n        public\r\n        view\r\n        returns (bytes32) {\r\n        return stateForRound[_roundIndex].userStates[_user].userWorkoutSignature;\r\n    }\r\n\r\n    /**\r\n     * @dev Read registered staking pools.\r\n     * @return The registered staking pools.\r\n     */\r\n    function getRegisteredJuriStakingPools()\r\n        public\r\n        view\r\n        returns (address[] memory)\r\n    {\r\n        return registeredJuriStakingPools;\r\n    }\r\n\r\n    function getDissentedUsers()\r\n        public\r\n        view\r\n        returns (address[] memory)\r\n    {\r\n        return dissentedUsers;\r\n    }\r\n\r\n    function getCurrentHighestHashForUser(address _user)\r\n        public\r\n        view\r\n        returns (uint256) {\r\n        MaxHeapLibrary.heapStruct storage verifierHashesMaxHeap\r\n            = _getCurrentStateForUser(_user).verifierHashesMaxHeap;\r\n\r\n        uint256 hashesCount = verifierHashesMaxHeap.getLength();\r\n        uint256 highestHash = hashesCount > 0\r\n            ? verifierHashesMaxHeap.getMax().value\r\n            : 0;\r\n\r\n        return highestHash;\r\n    }\r\n\r\n    /// PRIVATE METHODS\r\n\r\n    function _increaseActivityCountForNode(\r\n        address _node,\r\n        uint256 _activityCount\r\n    ) internal {\r\n        stateForRound[roundIndex]\r\n            .nodeStates[_node]\r\n            .activityCount = _getCurrentStateForNode(_node)\r\n                .activityCount\r\n                .add(_activityCount);\r\n        stateForRound[roundIndex].totalActivityCount\r\n            = stateForRound[roundIndex].totalActivityCount.add(_activityCount);\r\n    }\r\n\r\n    function _decrementActivityCountForNode(address _node) internal {\r\n        stateForRound[roundIndex]\r\n            .nodeStates[_node]\r\n            .activityCount\r\n                = _getCurrentStateForNode(_node).activityCount.sub(1);\r\n        stateForRound[roundIndex].totalActivityCount\r\n            = stateForRound[roundIndex].totalActivityCount.sub(1);\r\n    }\r\n\r\n    function _moveToNextStage() internal {\r\n        if (currentStage == Stages.DISSENTING_PERIOD) {\r\n            currentStage = dissentedUsers.length > 0\r\n                ? Stages.DISSENTS_NODES_ADDING_RESULT_COMMITMENTS\r\n                : Stages.SLASHING_PERIOD;\r\n        } else {\r\n            currentStage = Stages((uint256(currentStage) + 1) % 7);\r\n        }\r\n\r\n        lastStageUpdate = now;\r\n    }\r\n\r\n    function _addWasCompliantDataCommitmentsForUsers(\r\n        address[] memory _users,\r\n        bytes32[] memory _wasCompliantDataCommitments,\r\n        uint256[] memory _proofIndices\r\n    ) internal {\r\n        address node = msg.sender;\r\n\r\n        require(\r\n            _users.length == _wasCompliantDataCommitments.length,\r\n            'Users length should match wasCompliantDataCommitments!'\r\n        );\r\n        require(\r\n            _users.length == _proofIndices.length\r\n            || currentStage == Stages.DISSENTS_NODES_ADDING_RESULT_COMMITMENTS,\r\n            'Users length should match proofIndices!'\r\n        );\r\n\r\n        uint256 validUserCount = 0;\r\n\r\n        for (uint256 i = 0; i < _users.length; i++) {\r\n            address user = _users[i];\r\n            bytes32 wasCompliantCommitment = _wasCompliantDataCommitments[i];\r\n\r\n            NodeForUserState memory nodeForUserState\r\n                = _getCurrentStateForNodeForUser(node, user);\r\n            require(\r\n                !nodeForUserState.hasRevealed,\r\n                \"You already added the complianceData!\"\r\n            );\r\n\r\n            if (_getCurrentStateForUser(user).dissented\r\n                || (_verifyValidComplianceAddition(user, node, _proofIndices[i])\r\n                && currentStage == Stages.NODES_ADDING_RESULT_COMMITMENTS)\r\n            ) {\r\n                validUserCount++;\r\n\r\n                if (nodeForUserState.complianceDataCommitment == 0x0) {\r\n                    stateForRound[roundIndex]\r\n                        .nodeStates[node]\r\n                        .nodeForUserStates[user]\r\n                        .complianceDataCommitment\r\n                            = wasCompliantCommitment;\r\n                }\r\n            }\r\n        }\r\n        \r\n        require(validUserCount > 0, 'No valid users to add!');\r\n\r\n        if (currentStage == Stages.NODES_ADDING_RESULT_COMMITMENTS) {\r\n            // dont count dissent rounds as activity\r\n            // because nodes have an incentive anyways to participate\r\n            // due to not getting offline slashed\r\n            _increaseActivityCountForNode(node, validUserCount);\r\n        }\r\n    }\r\n\r\n    function _addWasCompliantDataForUsers(\r\n        address[] memory _users,\r\n        bool[] memory _wasCompliantData,\r\n        bytes32[] memory _randomNonces\r\n    ) internal {\r\n        address node = msg.sender;\r\n\r\n        require(\r\n            _users.length == _wasCompliantData.length,\r\n            \"The users length must match the compliance data length!\"\r\n        );\r\n        require(\r\n            _users.length == _randomNonces.length,\r\n            \"The users length must match the randomNonces data length!\"\r\n        );\r\n\r\n        for (uint256 i = 0; i < _users.length; i++) {\r\n            address user = _users[i];\r\n            NodeForUserState memory nodeForUserState\r\n                = _getCurrentStateForNodeForUser(node, user);\r\n            bool wasCompliant = _wasCompliantData[i];\r\n            bytes32 commitment = nodeForUserState.complianceDataCommitment;\r\n            bytes32 randomNonce = _randomNonces[i];\r\n            bytes32 verifierNonceHash = keccak256(\r\n                abi.encodePacked(wasCompliant, randomNonce)\r\n            );\r\n\r\n            require(\r\n                _getCurrentStateForUser(user).dissented\r\n                    || nodeForUserState.wasAssignedToUser,\r\n                'You were not assigned to the user!'\r\n            );\r\n            require(\r\n                !nodeForUserState.hasRevealed,\r\n                \"You already added the complianceData!\"\r\n            );\r\n            stateForRound[roundIndex].nodeStates[msg.sender].nodeForUserStates[user].hasRevealed = true;\r\n    \r\n            require(\r\n                verifierNonceHash == commitment,\r\n                \"The passed random nonce does not match!\"\r\n            );\r\n\r\n            stateForRound[roundIndex]\r\n                .nodeStates[node]\r\n                .nodeForUserStates[user]\r\n                .givenNodeResult = wasCompliant;\r\n    \r\n            int256 currentCompliance = _getCurrentStateForUser(user)\r\n                .userComplianceData;\r\n            stateForRound[roundIndex].userStates[user].userComplianceData\r\n                = wasCompliant ? currentCompliance + 1 : currentCompliance - 1;\r\n        }\r\n    }\r\n\r\n    function _getStateForCurrentRound()\r\n        internal\r\n        view\r\n        returns (JuriRound storage) {\r\n        return stateForRound[roundIndex];\r\n    }\r\n\r\n    function _getCurrentStateForUser(address _user)\r\n        internal\r\n        view\r\n        returns (UserState storage) {\r\n        return stateForRound[roundIndex].userStates[_user];\r\n    }\r\n\r\n    function _getCurrentStateForNode(address _node)\r\n        internal\r\n        view\r\n        returns (NodeState storage) {\r\n        return stateForRound[roundIndex].nodeStates[_node];\r\n    }\r\n\r\n    function _getCurrentStateForNodeForUser(address _node, address _user)\r\n        internal\r\n        view\r\n        returns (NodeForUserState storage) {\r\n        return stateForRound[roundIndex].nodeStates[_node].nodeForUserStates[_user];\r\n    }\r\n\r\n    function _verifyValidComplianceAddition(\r\n        address _user,\r\n        address _node,\r\n        uint256 _proofIndex\r\n    ) internal returns (bool) {\r\n        UserState storage userState = _getCurrentStateForUser(_user);\r\n\r\n        uint256 currentHighestHash = _getCurrentHighestHashForUser(_user);\r\n        bytes32 userWorkoutSignature = userState.userWorkoutSignature;\r\n        uint256 bondedStake = bonding.getBondedStakeOfNode(_node);\r\n\r\n        require(\r\n            userWorkoutSignature != 0x0,\r\n            \"The user did not add any heart rate data!\"\r\n        );\r\n\r\n        require(\r\n            _proofIndex < bondedStake.div(1e18),\r\n            \"The proof index must be smaller than the bonded stake per 1e18!\"\r\n        );\r\n\r\n        uint256 verifierHash = uint256(\r\n            keccak256(abi.encodePacked(userWorkoutSignature, _node, _proofIndex))\r\n        );\r\n\r\n        MaxHeapLibrary.heapStruct storage verifierHashesMaxHeap\r\n            = userState.verifierHashesMaxHeap;\r\n\r\n        if (verifierHashesMaxHeap.getLength() < nodeVerifierCount // TODO count node quality ??\r\n            || verifierHash < currentHighestHash) {\r\n            _addNewVerifierHashForUser(_node, _user, verifierHash);\r\n\r\n            if (verifierHashesMaxHeap.getLength() > nodeVerifierCount) {\r\n                emit OLD_MAX(bytes32(_getCurrentHighestHashForUser(_user)));\r\n                _removeMaxVerifierHashForUser(_user);\r\n                emit NEW_MAX(bytes32(_getCurrentHighestHashForUser(_user)));\r\n            }\r\n\r\n            return true;\r\n        }\r\n\r\n        return false;\r\n    }\r\n\r\n    function _getCurrentHighestHashForUser(address _user)\r\n        internal\r\n        view\r\n        returns (uint256) {\r\n        MaxHeapLibrary.heapStruct storage verifierHashesMaxHeap\r\n            = _getCurrentStateForUser(_user).verifierHashesMaxHeap;\r\n\r\n        uint256 hashesCount = verifierHashesMaxHeap.getLength();\r\n        uint256 highestHash = hashesCount > 0\r\n            ? verifierHashesMaxHeap.getMax().value\r\n            : 0;\r\n\r\n        return highestHash;\r\n    }\r\n\r\n    function _removeMaxVerifierHashForUser(\r\n        address _user\r\n    ) internal {\r\n        MaxHeapLibrary.heapStruct storage verifierHashesMaxHeap\r\n            = _getCurrentStateForUser(_user).verifierHashesMaxHeap;\r\n        address removedNode = verifierHashesMaxHeap.removeMax();\r\n\r\n        emit RemovedMax(_user, removedNode);\r\n\r\n        stateForRound[roundIndex]\r\n            .nodeStates[removedNode]\r\n            .nodeForUserStates[_user]\r\n            .wasAssignedToUser = false;\r\n        stateForRound[roundIndex]\r\n            .nodeStates[removedNode]\r\n            .nodeForUserStates[_user]\r\n            .complianceDataCommitment = 0x0;\r\n\r\n        _decrementActivityCountForNode(removedNode);\r\n    }\r\n\r\n    function _addNewVerifierHashForUser(\r\n        address _node,\r\n        address _user,\r\n        uint256 _verifierHash\r\n    ) internal {        \r\n        MaxHeapLibrary.heapStruct storage verifierHashesMaxHeap\r\n            = _getCurrentStateForUser(_user).verifierHashesMaxHeap;\r\n        verifierHashesMaxHeap.insert(_node, _verifierHash);\r\n\r\n        emit AddedVerifierHash(_user, _node, bytes32(_verifierHash));\r\n\r\n        stateForRound[roundIndex]\r\n            .nodeStates[_node]\r\n            .nodeForUserStates[_user]\r\n            .wasAssignedToUser = true;\r\n    }\r\n}",
  "sourcePath": "C:\\Users\\mail\\Personal\\Juri\\JuriOracle\\contracts\\JuriNetworkProxy.sol",
  "compiler": {
    "name": "solc",
    "version": "0.5.10+commit.5a6ea5b1.Emscripten.clang"
  },
  "schemaVersion": "3.0.14",
  "updatedAt": "2019-09-10T03:17:58.680Z",
  "devdoc": {
    "methods": {
      "getRegisteredJuriStakingPools()": {
        "details": "Read registered staking pools.\r",
        "return": "The registered staking pools.\r"
      },
      "isOwner()": {
        "return": "true if `msg.sender` is the owner of the contract.\r"
      },
      "owner()": {
        "return": "the address of the owner.\r"
      },
      "renounceOwnership()": {
        "details": "Allows the current owner to relinquish control of the contract.\r It will not be possible to call the functions with the `onlyOwner`\r modifier anymore.\r"
      },
      "transferOwnership(address)": {
        "details": "Allows the current owner to transfer control of the contract to a newOwner.\r",
        "params": {
          "newOwner": "The address to transfer ownership to.\r"
        }
      }
    }
  },
  "userdoc": {
    "methods": {
      "handleJuriFees(uint256,uint256)": {
        "notice": "INTERFACE METHODS"
      },
      "renounceOwnership()": {
        "notice": "Renouncing ownership will leave the contract without an owner,\r thereby removing any functionality that is only available to the owner.\r"
      }
    }
  }
}