{
  "contractName": "JuriToken",
  "abi": [
    {
      "constant": false,
      "inputs": [
        {
          "name": "spender",
          "type": "address"
        },
        {
          "name": "value",
          "type": "uint256"
        }
      ],
      "name": "approve",
      "outputs": [
        {
          "name": "",
          "type": "bool"
        }
      ],
      "payable": false,
      "stateMutability": "nonpayable",
      "type": "function"
    },
    {
      "constant": true,
      "inputs": [],
      "name": "totalSupply",
      "outputs": [
        {
          "name": "",
          "type": "uint256"
        }
      ],
      "payable": false,
      "stateMutability": "view",
      "type": "function"
    },
    {
      "constant": false,
      "inputs": [
        {
          "name": "from",
          "type": "address"
        },
        {
          "name": "to",
          "type": "address"
        },
        {
          "name": "value",
          "type": "uint256"
        }
      ],
      "name": "transferFrom",
      "outputs": [
        {
          "name": "",
          "type": "bool"
        }
      ],
      "payable": false,
      "stateMutability": "nonpayable",
      "type": "function"
    },
    {
      "constant": true,
      "inputs": [],
      "name": "currentMintedTokens",
      "outputs": [
        {
          "name": "",
          "type": "uint256"
        }
      ],
      "payable": false,
      "stateMutability": "view",
      "type": "function"
    },
    {
      "constant": false,
      "inputs": [
        {
          "name": "spender",
          "type": "address"
        },
        {
          "name": "addedValue",
          "type": "uint256"
        }
      ],
      "name": "increaseAllowance",
      "outputs": [
        {
          "name": "",
          "type": "bool"
        }
      ],
      "payable": false,
      "stateMutability": "nonpayable",
      "type": "function"
    },
    {
      "constant": true,
      "inputs": [],
      "name": "targetBondingRatePer1000000",
      "outputs": [
        {
          "name": "",
          "type": "uint256"
        }
      ],
      "payable": false,
      "stateMutability": "view",
      "type": "function"
    },
    {
      "constant": true,
      "inputs": [],
      "name": "currentRoundIndex",
      "outputs": [
        {
          "name": "",
          "type": "uint256"
        }
      ],
      "payable": false,
      "stateMutability": "view",
      "type": "function"
    },
    {
      "constant": true,
      "inputs": [
        {
          "name": "owner",
          "type": "address"
        }
      ],
      "name": "balanceOf",
      "outputs": [
        {
          "name": "",
          "type": "uint256"
        }
      ],
      "payable": false,
      "stateMutability": "view",
      "type": "function"
    },
    {
      "constant": false,
      "inputs": [],
      "name": "renounceOwnership",
      "outputs": [],
      "payable": false,
      "stateMutability": "nonpayable",
      "type": "function"
    },
    {
      "constant": true,
      "inputs": [],
      "name": "owner",
      "outputs": [
        {
          "name": "",
          "type": "address"
        }
      ],
      "payable": false,
      "stateMutability": "view",
      "type": "function"
    },
    {
      "constant": true,
      "inputs": [],
      "name": "isOwner",
      "outputs": [
        {
          "name": "",
          "type": "bool"
        }
      ],
      "payable": false,
      "stateMutability": "view",
      "type": "function"
    },
    {
      "constant": true,
      "inputs": [
        {
          "name": "",
          "type": "uint256"
        },
        {
          "name": "",
          "type": "address"
        }
      ],
      "name": "haveRetrievedRewards",
      "outputs": [
        {
          "name": "",
          "type": "bool"
        }
      ],
      "payable": false,
      "stateMutability": "view",
      "type": "function"
    },
    {
      "constant": true,
      "inputs": [],
      "name": "bonding",
      "outputs": [
        {
          "name": "",
          "type": "address"
        }
      ],
      "payable": false,
      "stateMutability": "view",
      "type": "function"
    },
    {
      "constant": true,
      "inputs": [],
      "name": "currentMintableTokens",
      "outputs": [
        {
          "name": "",
          "type": "uint256"
        }
      ],
      "payable": false,
      "stateMutability": "view",
      "type": "function"
    },
    {
      "constant": false,
      "inputs": [
        {
          "name": "spender",
          "type": "address"
        },
        {
          "name": "subtractedValue",
          "type": "uint256"
        }
      ],
      "name": "decreaseAllowance",
      "outputs": [
        {
          "name": "",
          "type": "bool"
        }
      ],
      "payable": false,
      "stateMutability": "nonpayable",
      "type": "function"
    },
    {
      "constant": true,
      "inputs": [],
      "name": "inflationChange",
      "outputs": [
        {
          "name": "",
          "type": "uint256"
        }
      ],
      "payable": false,
      "stateMutability": "view",
      "type": "function"
    },
    {
      "constant": false,
      "inputs": [
        {
          "name": "to",
          "type": "address"
        },
        {
          "name": "value",
          "type": "uint256"
        }
      ],
      "name": "transfer",
      "outputs": [
        {
          "name": "",
          "type": "bool"
        }
      ],
      "payable": false,
      "stateMutability": "nonpayable",
      "type": "function"
    },
    {
      "constant": true,
      "inputs": [],
      "name": "inflation",
      "outputs": [
        {
          "name": "",
          "type": "uint256"
        }
      ],
      "payable": false,
      "stateMutability": "view",
      "type": "function"
    },
    {
      "constant": true,
      "inputs": [
        {
          "name": "owner",
          "type": "address"
        },
        {
          "name": "spender",
          "type": "address"
        }
      ],
      "name": "allowance",
      "outputs": [
        {
          "name": "",
          "type": "uint256"
        }
      ],
      "payable": false,
      "stateMutability": "view",
      "type": "function"
    },
    {
      "constant": true,
      "inputs": [],
      "name": "proxy",
      "outputs": [
        {
          "name": "",
          "type": "address"
        }
      ],
      "payable": false,
      "stateMutability": "view",
      "type": "function"
    },
    {
      "constant": false,
      "inputs": [
        {
          "name": "newOwner",
          "type": "address"
        }
      ],
      "name": "transferOwnership",
      "outputs": [],
      "payable": false,
      "stateMutability": "nonpayable",
      "type": "function"
    },
    {
      "anonymous": false,
      "inputs": [
        {
          "indexed": true,
          "name": "previousOwner",
          "type": "address"
        },
        {
          "indexed": true,
          "name": "newOwner",
          "type": "address"
        }
      ],
      "name": "OwnershipTransferred",
      "type": "event"
    },
    {
      "anonymous": false,
      "inputs": [
        {
          "indexed": true,
          "name": "from",
          "type": "address"
        },
        {
          "indexed": true,
          "name": "to",
          "type": "address"
        },
        {
          "indexed": false,
          "name": "value",
          "type": "uint256"
        }
      ],
      "name": "Transfer",
      "type": "event"
    },
    {
      "anonymous": false,
      "inputs": [
        {
          "indexed": true,
          "name": "owner",
          "type": "address"
        },
        {
          "indexed": true,
          "name": "spender",
          "type": "address"
        },
        {
          "indexed": false,
          "name": "value",
          "type": "uint256"
        }
      ],
      "name": "Approval",
      "type": "event"
    },
    {
      "constant": false,
      "inputs": [
        {
          "name": "_targetBondingRatePer1000000",
          "type": "uint256"
        }
      ],
      "name": "setTargetBondingRate",
      "outputs": [],
      "payable": false,
      "stateMutability": "nonpayable",
      "type": "function"
    },
    {
      "constant": false,
      "inputs": [
        {
          "name": "_inflationChange",
          "type": "uint256"
        }
      ],
      "name": "setInflationChange",
      "outputs": [],
      "payable": false,
      "stateMutability": "nonpayable",
      "type": "function"
    },
    {
      "constant": false,
      "inputs": [],
      "name": "setCurrentRewardTokens",
      "outputs": [],
      "payable": false,
      "stateMutability": "nonpayable",
      "type": "function"
    },
    {
      "constant": false,
      "inputs": [],
      "name": "retrieveRoundInflationRewards",
      "outputs": [],
      "payable": false,
      "stateMutability": "nonpayable",
      "type": "function"
    }
  ],
  "bytecode": "0x60806040819052600380546001600160a01b0319163317908190556001600160a01b0316906000907f8be0079c531659141344cd1fd0a4f28419497f9722a3daafe3b4186f6b6457e0908290a36111718061005b6000396000f3fe608060405234801561001057600080fd5b50600436106101735760003560e01c80638f32d59b116100de578063a9059cbb11610097578063dd62ed3e11610071578063dd62ed3e1461038e578063ec556889146103bc578063ece2064c146103c4578063f2fde38b146103cc57610173565b8063a9059cbb14610352578063b272d7b91461037e578063be0522e01461038657610173565b80638f32d59b146102da578063932b6b19146102e2578063984575591461030e5780639ae6309a14610316578063a457c2d71461031e578063a7c835141461034a57610173565b8063541d471511610130578063541d47151461025b5780636896ef4b1461026357806370a082311461026b578063715018a61461029157806377bde142146102995780638da5cb5b146102b657610173565b8063010e3c1c14610178578063095ea7b31461019757806318160ddd146101d757806323b872dd146101f15780632de22cdb14610227578063395093511461022f575b600080fd5b6101956004803603602081101561018e57600080fd5b50356103f2565b005b6101c3600480360360408110156101ad57600080fd5b506001600160a01b03813516906020013561043a565b604080519115158252519081900360200190f35b6101df610451565b60408051918252519081900360200190f35b6101c36004803603606081101561020757600080fd5b506001600160a01b03813581169160208101359091169060400135610457565b6101df61050e565b6101c36004803603604081101561024557600080fd5b506001600160a01b038135169060200135610514565b6101df610550565b6101df610556565b6101df6004803603602081101561028157600080fd5b50356001600160a01b031661055c565b610195610577565b610195600480360360208110156102af57600080fd5b5035610604565b6102be61064c565b604080516001600160a01b039092168252519081900360200190f35b6101c361065b565b6101c3600480360360408110156102f857600080fd5b50803590602001356001600160a01b031661066c565b6102be61068c565b6101df61069b565b6101c36004803603604081101561033457600080fd5b506001600160a01b0381351690602001356106a1565b6101df6106dd565b6101c36004803603604081101561036857600080fd5b506001600160a01b0381351690602001356106e3565b6101956106f0565b6101df610917565b6101df600480360360408110156103a457600080fd5b506001600160a01b038135811691602001351661091d565b6102be610948565b610195610957565b610195600480360360208110156103e257600080fd5b50356001600160a01b0316610a67565b6103fa61065b565b6104355760405162461bcd60e51b815260040180806020018281038252602181526020018061109e6021913960400191505060405180910390fd5b600755565b6000610447338484610ab6565b5060015b92915050565b60025490565b6001600160a01b03831660009081526001602090815260408083203384529091528120548211156104b95760405162461bcd60e51b81526004018080602001828103825260238152602001806110f66023913960400191505060405180910390fd5b6104c4848484610b98565b6001600160a01b0384166000908152600160209081526040808320338085529252909120546105049186916104ff908663ffffffff610cc916565b610ab6565b5060019392505050565b600a5481565b3360008181526001602090815260408083206001600160a01b038716845290915281205490916104479185906104ff908663ffffffff610d1b16565b60085481565b60065481565b6001600160a01b031660009081526020819052604090205490565b61057f61065b565b6105ba5760405162461bcd60e51b815260040180806020018281038252602181526020018061109e6021913960400191505060405180910390fd5b6003546040516000916001600160a01b0316907f8be0079c531659141344cd1fd0a4f28419497f9722a3daafe3b4186f6b6457e0908390a3600380546001600160a01b0319169055565b61060c61065b565b6106475760405162461bcd60e51b815260040180806020018281038252602181526020018061109e6021913960400191505060405180910390fd5b600855565b6003546001600160a01b031690565b6003546001600160a01b0316331490565b600c60209081526000928352604080842090915290825290205460ff1681565b6005546001600160a01b031681565b600b5481565b3360008181526001602090815260408083206001600160a01b038716845290915281205490916104479185906104ff908663ffffffff610cc916565b60075481565b6000610447338484610b98565b6006546000908152600c6020908152604080832033845290915290205460ff161561074c5760405162461bcd60e51b81526004018080602001828103825260378152602001806110bf6037913960400191505060405180910390fd5b6004546006546000916001600160a01b03169063e88160239061077690600163ffffffff610cc916565b336040518363ffffffff1660e01b815260040180838152602001826001600160a01b03166001600160a01b031681526020019250505060206040518083038186803b1580156107c457600080fd5b505afa1580156107d8573d6000803e3d6000fd5b505050506040513d60208110156107ee57600080fd5b50516004546006549192506000916001600160a01b0390911690633f94ce549061081f90600163ffffffff610cc916565b6040518263ffffffff1660e01b81526004018082815260200191505060206040518083038186803b15801561085357600080fd5b505afa158015610867573d6000803e3d6000fd5b505050506040513d602081101561087d57600080fd5b5051905060006108a68261089a85620f424063ffffffff610d7016565b9063ffffffff610dd316565b905060006108c6620f424061089a84600b54610d7090919063ffffffff16565b600a549091506108dc908263ffffffff610d1b16565b600a556006546000908152600c60209081526040808320338085529252909120805460ff191660011790556109119082610e3d565b50505050565b60095481565b6001600160a01b03918216600090815260016020908152604080832093909416825291909152205490565b6004546001600160a01b031681565b6000600460009054906101000a90046001600160a01b03166001600160a01b031663648036ae6040518163ffffffff1660e01b815260040160206040518083038186803b1580156109a757600080fd5b505afa1580156109bb573d6000803e3d6000fd5b505050506040513d60208110156109d157600080fd5b50516006549091508111610a2c576040805162461bcd60e51b815260206004820152601e60248201527f54686520726f756e64206973206e6f74207965742066696e6973686564210000604482015290519081900360640190fd5b600680546001019055610a3d610ef7565b610a5c606461089a600954610a50610451565b9063ffffffff610d7016565b600b55506000600a55565b610a6f61065b565b610aaa5760405162461bcd60e51b815260040180806020018281038252602181526020018061109e6021913960400191505060405180910390fd5b610ab381610fed565b50565b6001600160a01b038216610b11576040805162461bcd60e51b815260206004820152601c60248201527f43616e6e6f7420617070726f766520746f203020616464726573732100000000604482015290519081900360640190fd5b6001600160a01b038316610b6c576040805162461bcd60e51b815260206004820152601e60248201527f43616e6e6f7420617070726f76652066726f6d20302061646472657373210000604482015290519081900360640190fd5b6001600160a01b0392831660009081526001602090815260408083209490951682529290925291902055565b6001600160a01b038216610bf3576040805162461bcd60e51b815260206004820152601d60248201527f43616e6e6f74207472616e7366657220746f2030206164647265737321000000604482015290519081900360640190fd5b6001600160a01b038316600090815260208190526040902054811115610c4a5760405162461bcd60e51b81526004018080602001828103825260248152602001806111196024913960400191505060405180910390fd5b6001600160a01b038316600090815260208190526040902054610c73908263ffffffff610cc916565b6001600160a01b038085166000908152602081905260408082209390935590841681522054610ca8908263ffffffff610d1b16565b6001600160a01b039092166000908152602081905260409020919091555050565b600082821115610d15576040805162461bcd60e51b81526020600482015260126024820152715361666553756220756e646572666c6f772160701b604482015290519081900360640190fd5b50900390565b600082820183811015610d69576040805162461bcd60e51b815260206004820152601160248201527053616665416464206f766572666c6f772160781b604482015290519081900360640190fd5b9392505050565b600082610d7f5750600061044b565b82820282848281610d8c57fe5b0414610d69576040805162461bcd60e51b8152602060048201526011602482015270536166654d756c206f766572666c6f772160781b604482015290519081900360640190fd5b6000808211610e29576040805162461bcd60e51b815260206004820152601b60248201527f536166654469762063616e6e6f74206469766964652062792030210000000000604482015290519081900360640190fd5b6000828481610e3457fe5b04949350505050565b6001600160a01b038216610e98576040805162461bcd60e51b815260206004820152601960248201527f43616e6e6f74206d696e7420746f203020616464726573732100000000000000604482015290519081900360640190fd5b600254610eab908263ffffffff610d1b16565b6002556001600160a01b038216600090815260208190526040902054610ed7908263ffffffff610d1b16565b6001600160a01b0390921660009081526020819052604090209190915550565b600554604080516344d96e9560e01b815290516000926001600160a01b0316916344d96e95916004808301926020929190829003018186803b158015610f3c57600080fd5b505afa158015610f50573d6000803e3d6000fd5b505050506040513d6020811015610f6657600080fd5b505190506000610f8a610f77610451565b61089a84620f424063ffffffff610d7016565b9050600854811015610fb357600754600954610fab9163ffffffff610d1b16565b600955610fe9565b600854811115610fe95760095460075411610fe257600754600954610fdd9163ffffffff610cc916565b610fe5565b60005b6009555b5050565b6001600160a01b038116611041576040805162461bcd60e51b81526020600482015260166024820152754e6577206f776e65722063616e6e6f7420626520302160501b604482015290519081900360640190fd5b6003546040516001600160a01b038084169216907f8be0079c531659141344cd1fd0a4f28419497f9722a3daafe3b4186f6b6457e090600090a3600380546001600160a01b0319166001600160a01b039290921691909117905556fe4f6e6c79206f776e65722063616e2075736520746869732066756e6374696f6e21596f75206861766520616c72656164792072657472696576656420796f7572207265776172647320666f72207468697320726f756e642143616e6e6f74207472616e73666572206d6f7265207468616e20617070726f7665642143616e6e6f74207472616e73666572206d6f7265207468616e20617661696c61626c6521a265627a7a723058207e82dbd6053a84acc3a735cd5c09f9a72c65c37d62439cd73ca51d3fe051b7a764736f6c634300050a0032",
  "source": "pragma solidity 0.5.10;\r\n\r\nimport \"../lib/ERC20.sol\";\r\nimport \"../lib/Ownable.sol\";\r\nimport \"../lib/SafeMath.sol\";\r\n\r\nimport \"./JuriBonding.sol\";\r\nimport \"./JuriNetworkProxy.sol\";\r\n\r\ncontract JuriToken is ERC20, Ownable {\r\n    using SafeMath for uint256;\r\n\r\n    JuriNetworkProxy public proxy;\r\n    JuriBonding public bonding;\r\n\r\n    uint256 public currentRoundIndex;\r\n    uint256 public inflationChange;\r\n    uint256 public targetBondingRatePer1000000;\r\n    uint256 public inflation;\r\n    uint256 public currentMintedTokens;\r\n    uint256 public currentMintableTokens;\r\n\r\n    mapping (uint256 => mapping (address => bool)) public haveRetrievedRewards;\r\n\r\n    function setTargetBondingRate(uint256 _targetBondingRatePer1000000) public onlyOwner {\r\n        targetBondingRatePer1000000 = _targetBondingRatePer1000000;\r\n    }\r\n\r\n    function setInflationChange(uint256 _inflationChange)\r\n        public\r\n        onlyOwner {\r\n        inflationChange = _inflationChange;\r\n    }\r\n\r\n    function setCurrentRewardTokens() public {\r\n        uint256 roundIndex = proxy.roundIndex();\r\n        require(\r\n            roundIndex > currentRoundIndex,\r\n            \"The round is not yet finished!\"\r\n        );\r\n\r\n        currentRoundIndex++;\r\n\r\n        _setInflation();\r\n\r\n        currentMintableTokens = totalSupply().mul(inflation).div(100);\r\n        currentMintedTokens = 0;\r\n    }\r\n\r\n    function retrieveRoundInflationRewards() public {\r\n        require(\r\n            !haveRetrievedRewards[currentRoundIndex][msg.sender],\r\n            \"You have already retrieved your rewards for this round!\"\r\n        );\r\n\r\n        uint256 nodeActivityCount = proxy.getNodeActivityCount(currentRoundIndex.sub(1), msg.sender);\r\n        uint256 totalActivityCount = proxy.getTotalActivityCount(currentRoundIndex.sub(1));\r\n        uint256 activityShare = nodeActivityCount.mul(1000000).div(totalActivityCount);\r\n\r\n        uint256 mintAmount = currentMintableTokens.mul(activityShare).div(1000000);\r\n        currentMintedTokens = currentMintedTokens.add(mintAmount);\r\n\r\n        haveRetrievedRewards[currentRoundIndex][msg.sender] = true;\r\n        _mint(msg.sender, mintAmount);\r\n    }\r\n\r\n    function _setInflation() private {\r\n        uint256 totalBonded = bonding.totalBonded();\r\n        uint256 currentBondingRate = totalBonded.mul(1000000).div(totalSupply());\r\n\r\n        if (currentBondingRate < targetBondingRatePer1000000) {\r\n            inflation = inflation.add(inflationChange);\r\n        } else if (currentBondingRate > targetBondingRatePer1000000) {\r\n            inflation = inflationChange > inflation\r\n                ? 0 : inflation.sub(inflationChange);\r\n        }\r\n    }\r\n}",
  "sourcePath": "C:\\Users\\mail\\Personal\\Juri\\JuriStakingContract\\contracts\\research\\JuriToken.sol",
  "compiler": {
    "name": "solc",
    "version": "0.5.10+commit.5a6ea5b1.Emscripten.clang"
  },
  "schemaVersion": "3.0.11",
  "updatedAt": "2019-08-26T23:35:56.766Z",
  "devdoc": {
    "methods": {
      "allowance(address,address)": {
        "details": "Function to check the amount of tokens that an owner allowed to a spender.\r",
        "params": {
          "owner": "address The address which owns the funds.\r",
          "spender": "address The address which will spend the funds.\r"
        },
        "return": "A uint256 specifying the amount of tokens still available for the spender.\r"
      },
      "approve(address,uint256)": {
        "details": "Approve the passed address to spend the specified amount of tokens on behalf of msg.sender.\r Beware that changing an allowance with this method brings the risk that someone may use both the old\r and the new allowance by unfortunate transaction ordering. One possible solution to mitigate this\r race condition is to first reduce the spender's allowance to 0 and set the desired value afterwards:\r https://github.com/ethereum/EIPs/issues/20#issuecomment-263524729\r",
        "params": {
          "spender": "The address which will spend the funds.\r",
          "value": "The amount of tokens to be spent.\r"
        }
      },
      "balanceOf(address)": {
        "details": "Gets the balance of the specified address.\r",
        "params": {
          "owner": "The address to query the balance of.\r"
        },
        "return": "A uint256 representing the amount owned by the passed address.\r"
      },
      "decreaseAllowance(address,uint256)": {
        "details": "Decrease the amount of tokens that an owner allowed to a spender.\r approve should be called when _allowed[msg.sender][spender] == 0. To decrement\r allowed value is better to use this function to avoid 2 calls (and wait until\r the first transaction is mined)\r From MonolithDAO Token.sol\r Emits an Approval event.\r",
        "params": {
          "spender": "The address which will spend the funds.\r",
          "subtractedValue": "The amount of tokens to decrease the allowance by.\r"
        }
      },
      "increaseAllowance(address,uint256)": {
        "details": "Increase the amount of tokens that an owner allowed to a spender.\r approve should be called when _allowed[msg.sender][spender] == 0. To increment\r allowed value is better to use this function to avoid 2 calls (and wait until\r the first transaction is mined)\r From MonolithDAO Token.sol\r Emits an Approval event.\r",
        "params": {
          "addedValue": "The amount of tokens to increase the allowance by.\r",
          "spender": "The address which will spend the funds.\r"
        }
      },
      "isOwner()": {
        "return": "true if `msg.sender` is the owner of the contract.\r"
      },
      "owner()": {
        "return": "the address of the owner.\r"
      },
      "renounceOwnership()": {
        "details": "Allows the current owner to relinquish control of the contract.\r It will not be possible to call the functions with the `onlyOwner`\r modifier anymore.\r"
      },
      "totalSupply()": {
        "details": "Total number of tokens in existence\r"
      },
      "transfer(address,uint256)": {
        "details": "Transfer token to a specified address\r",
        "params": {
          "to": "The address to transfer to.\r",
          "value": "The amount to be transferred.\r"
        }
      },
      "transferFrom(address,address,uint256)": {
        "details": "Transfer tokens from one address to another.\r Note that while this function emits an Approval event, this is not required as per the specification,\r and other compliant implementations may not emit the event.\r",
        "params": {
          "from": "address The address which you want to send tokens from\r",
          "to": "address The address which you want to transfer to\r",
          "value": "uint256 the amount of tokens to be transferred\r"
        }
      },
      "transferOwnership(address)": {
        "details": "Allows the current owner to transfer control of the contract to a newOwner.\r",
        "params": {
          "newOwner": "The address to transfer ownership to.\r"
        }
      }
    }
  },
  "userdoc": {
    "methods": {
      "renounceOwnership()": {
        "notice": "Renouncing ownership will leave the contract without an owner,\r thereby removing any functionality that is only available to the owner.\r"
      }
    }
  }
}