{
  "contractName": "JuriStakingPoolWithOracle",
  "abi": [
    {
      "constant": true,
      "inputs": [],
      "name": "getUsers",
      "outputs": [
        {
          "name": "",
          "type": "address[]"
        }
      ],
      "payable": false,
      "stateMutability": "view",
      "type": "function"
    },
    {
      "constant": false,
      "inputs": [
        {
          "name": "_updateIterationCount",
          "type": "uint256"
        }
      ],
      "name": "firstUpdateStakeForNextXAmountOfUsers",
      "outputs": [],
      "payable": false,
      "stateMutability": "nonpayable",
      "type": "function"
    },
    {
      "constant": true,
      "inputs": [],
      "name": "nextStakingRound",
      "outputs": [
        {
          "name": "totalAddedStake",
          "type": "uint256"
        }
      ],
      "payable": false,
      "stateMutability": "view",
      "type": "function"
    },
    {
      "constant": true,
      "inputs": [
        {
          "name": "_user",
          "type": "address"
        }
      ],
      "name": "getAdditionalStakeForUserInNextPeriod",
      "outputs": [
        {
          "name": "",
          "type": "uint256"
        }
      ],
      "payable": false,
      "stateMutability": "view",
      "type": "function"
    },
    {
      "constant": true,
      "inputs": [],
      "name": "juriAddress",
      "outputs": [
        {
          "name": "",
          "type": "address"
        }
      ],
      "payable": false,
      "stateMutability": "view",
      "type": "function"
    },
    {
      "constant": false,
      "inputs": [
        {
          "name": "_amount",
          "type": "uint256"
        }
      ],
      "name": "withdraw",
      "outputs": [],
      "payable": false,
      "stateMutability": "nonpayable",
      "type": "function"
    },
    {
      "constant": true,
      "inputs": [
        {
          "name": "",
          "type": "uint256"
        }
      ],
      "name": "users",
      "outputs": [
        {
          "name": "",
          "type": "address"
        }
      ],
      "payable": false,
      "stateMutability": "view",
      "type": "function"
    },
    {
      "constant": true,
      "inputs": [],
      "name": "getIsCurrentRoundStaking",
      "outputs": [
        {
          "name": "",
          "type": "bool"
        }
      ],
      "payable": false,
      "stateMutability": "view",
      "type": "function"
    },
    {
      "constant": false,
      "inputs": [
        {
          "name": "_amount",
          "type": "uint256"
        }
      ],
      "name": "addOwnerFunds",
      "outputs": [],
      "payable": false,
      "stateMutability": "nonpayable",
      "type": "function"
    },
    {
      "constant": false,
      "inputs": [
        {
          "name": "_updateIterationCount",
          "type": "uint256"
        },
        {
          "name": "_wasCompliant",
          "type": "bool[]"
        }
      ],
      "name": "addWasCompliantDataForUsers",
      "outputs": [],
      "payable": false,
      "stateMutability": "nonpayable",
      "type": "function"
    },
    {
      "constant": true,
      "inputs": [
        {
          "name": "",
          "type": "uint256"
        },
        {
          "name": "",
          "type": "address"
        }
      ],
      "name": "complianceDataAtIndex",
      "outputs": [
        {
          "name": "",
          "type": "bool"
        }
      ],
      "payable": false,
      "stateMutability": "view",
      "type": "function"
    },
    {
      "constant": false,
      "inputs": [
        {
          "name": "_newJuriAddress",
          "type": "address"
        }
      ],
      "name": "setJuriAddress",
      "outputs": [],
      "payable": false,
      "stateMutability": "nonpayable",
      "type": "function"
    },
    {
      "constant": true,
      "inputs": [],
      "name": "currentStakingRound",
      "outputs": [
        {
          "name": "roundIndex",
          "type": "uint256"
        },
        {
          "name": "stage",
          "type": "uint8"
        },
        {
          "name": "addComplianceDataIndex",
          "type": "uint256"
        },
        {
          "name": "updateStaking1Index",
          "type": "uint256"
        },
        {
          "name": "updateStaking2Index",
          "type": "uint256"
        },
        {
          "name": "totalStakeToSlash",
          "type": "uint256"
        },
        {
          "name": "nonCompliancePenalty",
          "type": "uint256"
        },
        {
          "name": "totalPayout",
          "type": "uint256"
        },
        {
          "name": "juriFees",
          "type": "uint256"
        },
        {
          "name": "useMaxNonCompliancy",
          "type": "bool"
        }
      ],
      "payable": false,
      "stateMutability": "view",
      "type": "function"
    },
    {
      "constant": false,
      "inputs": [
        {
          "name": "_user",
          "type": "address"
        },
        {
          "name": "_amount",
          "type": "uint256"
        },
        {
          "name": "_canWithdrawAll",
          "type": "bool"
        }
      ],
      "name": "_withdrawForUser",
      "outputs": [],
      "payable": false,
      "stateMutability": "nonpayable",
      "type": "function"
    },
    {
      "constant": true,
      "inputs": [],
      "name": "complianceDataIndex",
      "outputs": [
        {
          "name": "",
          "type": "uint256"
        }
      ],
      "payable": false,
      "stateMutability": "view",
      "type": "function"
    },
    {
      "constant": true,
      "inputs": [],
      "name": "poolDefinition",
      "outputs": [
        {
          "name": "startTime",
          "type": "uint256"
        },
        {
          "name": "periodLength",
          "type": "uint256"
        },
        {
          "name": "feePercentage",
          "type": "uint256"
        },
        {
          "name": "compliantGainPercentage",
          "type": "uint256"
        },
        {
          "name": "maxNonCompliantPenaltyPercentage",
          "type": "uint256"
        },
        {
          "name": "maxNonCompliantFactor",
          "type": "uint256"
        },
        {
          "name": "minStakePerUser",
          "type": "uint256"
        },
        {
          "name": "maxStakePerUser",
          "type": "uint256"
        },
        {
          "name": "maxTotalStake",
          "type": "uint256"
        }
      ],
      "payable": false,
      "stateMutability": "view",
      "type": "function"
    },
    {
      "constant": false,
      "inputs": [],
      "name": "renounceOwnership",
      "outputs": [],
      "payable": false,
      "stateMutability": "nonpayable",
      "type": "function"
    },
    {
      "constant": true,
      "inputs": [
        {
          "name": "_user",
          "type": "address"
        }
      ],
      "name": "getStakeForUserAtRoundStart",
      "outputs": [
        {
          "name": "",
          "type": "uint256"
        }
      ],
      "payable": false,
      "stateMutability": "view",
      "type": "function"
    },
    {
      "constant": true,
      "inputs": [],
      "name": "getPoolUserCount",
      "outputs": [
        {
          "name": "",
          "type": "uint256"
        }
      ],
      "payable": false,
      "stateMutability": "view",
      "type": "function"
    },
    {
      "constant": false,
      "inputs": [
        {
          "name": "_amount",
          "type": "uint256"
        }
      ],
      "name": "addMoreStakeForNextPeriod",
      "outputs": [],
      "payable": false,
      "stateMutability": "nonpayable",
      "type": "function"
    },
    {
      "constant": false,
      "inputs": [
        {
          "name": "_updateIterationCount",
          "type": "uint256"
        }
      ],
      "name": "secondUpdateStakeForNextXAmountOfUsers",
      "outputs": [],
      "payable": false,
      "stateMutability": "nonpayable",
      "type": "function"
    },
    {
      "constant": true,
      "inputs": [],
      "name": "owner",
      "outputs": [
        {
          "name": "",
          "type": "address"
        }
      ],
      "payable": false,
      "stateMutability": "view",
      "type": "function"
    },
    {
      "constant": true,
      "inputs": [],
      "name": "isOwner",
      "outputs": [
        {
          "name": "",
          "type": "bool"
        }
      ],
      "payable": false,
      "stateMutability": "view",
      "type": "function"
    },
    {
      "constant": false,
      "inputs": [],
      "name": "optOutOfStakingForNextPeriod",
      "outputs": [],
      "payable": false,
      "stateMutability": "nonpayable",
      "type": "function"
    },
    {
      "constant": false,
      "inputs": [
        {
          "name": "_amount",
          "type": "uint256"
        }
      ],
      "name": "withdrawOwnerFunds",
      "outputs": [],
      "payable": false,
      "stateMutability": "nonpayable",
      "type": "function"
    },
    {
      "constant": false,
      "inputs": [],
      "name": "removeUserInNextPeriod",
      "outputs": [],
      "payable": false,
      "stateMutability": "nonpayable",
      "type": "function"
    },
    {
      "constant": true,
      "inputs": [],
      "name": "ownerFunds",
      "outputs": [
        {
          "name": "",
          "type": "uint256"
        }
      ],
      "payable": false,
      "stateMutability": "view",
      "type": "function"
    },
    {
      "constant": true,
      "inputs": [],
      "name": "totalUserStake",
      "outputs": [
        {
          "name": "",
          "type": "uint256"
        }
      ],
      "payable": false,
      "stateMutability": "view",
      "type": "function"
    },
    {
      "constant": true,
      "inputs": [],
      "name": "getIsNextRoundStaking",
      "outputs": [
        {
          "name": "",
          "type": "bool"
        }
      ],
      "payable": false,
      "stateMutability": "view",
      "type": "function"
    },
    {
      "constant": false,
      "inputs": [
        {
          "name": "_amount",
          "type": "uint256"
        }
      ],
      "name": "addUserInNextPeriod",
      "outputs": [],
      "payable": false,
      "stateMutability": "nonpayable",
      "type": "function"
    },
    {
      "constant": true,
      "inputs": [
        {
          "name": "_user",
          "type": "address"
        }
      ],
      "name": "getIsLeavingNextPeriodForUser",
      "outputs": [
        {
          "name": "",
          "type": "bool"
        }
      ],
      "payable": false,
      "stateMutability": "view",
      "type": "function"
    },
    {
      "constant": true,
      "inputs": [
        {
          "name": "_user",
          "type": "address"
        }
      ],
      "name": "getStakeForUserInCurrentPeriod",
      "outputs": [
        {
          "name": "",
          "type": "uint256"
        }
      ],
      "payable": false,
      "stateMutability": "view",
      "type": "function"
    },
    {
      "constant": true,
      "inputs": [],
      "name": "proxy",
      "outputs": [
        {
          "name": "",
          "type": "address"
        }
      ],
      "payable": false,
      "stateMutability": "view",
      "type": "function"
    },
    {
      "constant": false,
      "inputs": [],
      "name": "optInForStakingForNextPeriod",
      "outputs": [],
      "payable": false,
      "stateMutability": "nonpayable",
      "type": "function"
    },
    {
      "constant": false,
      "inputs": [
        {
          "name": "newOwner",
          "type": "address"
        }
      ],
      "name": "transferOwnership",
      "outputs": [],
      "payable": false,
      "stateMutability": "nonpayable",
      "type": "function"
    },
    {
      "constant": true,
      "inputs": [
        {
          "name": "_index",
          "type": "uint256"
        }
      ],
      "name": "getUserToBeAddedNextPeriod",
      "outputs": [
        {
          "name": "",
          "type": "address"
        }
      ],
      "payable": false,
      "stateMutability": "view",
      "type": "function"
    },
    {
      "constant": true,
      "inputs": [],
      "name": "token",
      "outputs": [
        {
          "name": "",
          "type": "address"
        }
      ],
      "payable": false,
      "stateMutability": "view",
      "type": "function"
    },
    {
      "inputs": [
        {
          "name": "_proxy",
          "type": "address"
        },
        {
          "name": "_token",
          "type": "address"
        },
        {
          "name": "_startTime",
          "type": "uint256"
        },
        {
          "name": "_periodLength",
          "type": "uint256"
        },
        {
          "name": "_feePercentage",
          "type": "uint256"
        },
        {
          "name": "_compliantGainPercentage",
          "type": "uint256"
        },
        {
          "name": "_maxNonCompliantPenaltyPercentage",
          "type": "uint256"
        },
        {
          "name": "_minStakePerUser",
          "type": "uint256"
        },
        {
          "name": "_maxStakePerUser",
          "type": "uint256"
        },
        {
          "name": "_maxTotalStake",
          "type": "uint256"
        },
        {
          "name": "_juriAddress",
          "type": "address"
        }
      ],
      "payable": false,
      "stateMutability": "nonpayable",
      "type": "constructor"
    },
    {
      "anonymous": false,
      "inputs": [
        {
          "indexed": false,
          "name": "user",
          "type": "address"
        },
        {
          "indexed": false,
          "name": "wasCompliant",
          "type": "bool"
        }
      ],
      "name": "AddedComplianceDataForUser",
      "type": "event"
    },
    {
      "anonymous": false,
      "inputs": [
        {
          "indexed": true,
          "name": "previousOwner",
          "type": "address"
        },
        {
          "indexed": true,
          "name": "newOwner",
          "type": "address"
        }
      ],
      "name": "OwnershipTransferred",
      "type": "event"
    },
    {
      "constant": false,
      "inputs": [
        {
          "name": "_updateIterationCount",
          "type": "uint256"
        }
      ],
      "name": "checkNewAddedComplianceData",
      "outputs": [],
      "payable": false,
      "stateMutability": "nonpayable",
      "type": "function"
    }
  ],
  "bytecode": "0x60806040523480156200001157600080fd5b5060405162003f5a38038062003f5a83398181016040526101608110156200003857600080fd5b50805160208201516040808401516060850151608086015160a087015160c088015160e08901516101008a01516101208b0151610140909b0151600080546001600160a01b031916331780825599519b9c9a9b989a9799969895979496939592949391928c928c928c928c928c928c928c928c928c928c926001600160a01b031691907f8be0079c531659141344cd1fd0a4f28419497f9722a3daafe3b4186f6b6457e0908290a36001600160a01b038a166200015657604080517f08c379a000000000000000000000000000000000000000000000000000000000815260206004820152601e60248201527f546f6b656e2061646472657373206d75737420626520646566696e6564210000604482015290519081900360640190fd5b428911620001b0576040517f08c379a000000000000000000000000000000000000000000000000000000000815260040180806020018281038252602181526020018062003f396021913960400191505060405180910390fd5b600088116200022057604080517f08c379a000000000000000000000000000000000000000000000000000000000815260206004820152601a60248201527f506572696f64206c656e6774682063616e6e6f74206265203021000000000000604482015290519081900360640190fd5b60648711156200027c576040517f08c379a000000000000000000000000000000000000000000000000000000000815260040180806020018281038252603281526020018062003e9f6032913960400191505060405180910390fd5b6064861115620002d8576040517f08c379a000000000000000000000000000000000000000000000000000000000815260040180806020018281038252603d81526020018062003e62603d913960400191505060405180910390fd5b606485111562000334576040517f08c379a000000000000000000000000000000000000000000000000000000000815260040180806020018281038252604881526020018062003ed16048913960600191505060405180910390fd5b60008411620003a457604080517f08c379a000000000000000000000000000000000000000000000000000000000815260206004820152601f60248201527f4d696e207374616b652070657220757365722063616e6e6f7420626520302100604482015290519081900360640190fd5b600083116200040357604080517f08c379a000000000000000000000000000000000000000000000000000000000815260206004820152601f602482015260008051602062003f19833981519152604482015290519081900360640190fd5b600082116200046257604080517f08c379a000000000000000000000000000000000000000000000000000000000815260206004820152601f602482015260008051602062003f19833981519152604482015290519081900360640190fd5b6001600160a01b038116620004d857604080517f08c379a000000000000000000000000000000000000000000000000000000000815260206004820152601960248201527f4a75726920616464726573732063616e6e6f7420626520302100000000000000604482015290519081900360640190fd5b6000601f81905560208190556021819055620004fd906001600160e01b036200062d16565b600180546001600160a01b03808d166001600160a01b031992831617909255600280549284169290911691909117905560408051610120810182528a815260208082018b905291810189905260608101889052608081018790529060a082019062000576906064908990620026e2620006fd821b17901c565b8152602001858152602001848152602001838152506003600082015181600001556020820151816001015560408201518160020155606082015181600301556080820151816004015560a0820151816005015560c0820151816006015560e082015181600701556101008201518160080155905050505050505050505050508a602360006101000a8154816001600160a01b0302191690836001600160a01b03160217905550505050505050505050505062000809565b60408051610140810182528281526000602080830182905282840182905260608084018390526080840183905260a0840183905260c0840183905260e084018390526101008401839052610120909301829052600f8590556010805460ff1990811690915560118390556012839055601383905560148390556015839055601683905560178390556018805490911690558351808501838152938101948590528381529081019190915290519091601991620006ec91601c9162000775565b506020820151816004015590505050565b6000828211156200076f57604080517f08c379a000000000000000000000000000000000000000000000000000000000815260206004820152601260248201527f5361666553756220756e646572666c6f77210000000000000000000000000000604482015290519081900360640190fd5b50900390565b828054828255906000526020600020908101928215620007cd579160200282015b82811115620007cd57825182546001600160a01b0319166001600160a01b0390911617825560209092019160019091019062000796565b50620007db929150620007df565b5090565b6200080691905b80821115620007db5780546001600160a01b0319168155600101620007e6565b90565b61364980620008196000396000f3fe608060405234801561001057600080fd5b50600436106102315760003560e01c8063837bee2011610130578063d1658d7f116100b8578063ec5568891161007c578063ec556889146106c4578063eed7dee9146106cc578063f2fde38b146106d4578063f9feab53146106fa578063fc0c546a1461071757610231565b8063d1658d7f1461064b578063d2bbbbbb14610653578063d3f6ca571461065b578063d8e98cbe14610678578063e434f13c1461069e57610231565b80638f32d59b116100ff5780638f32d59b1461060e578063962743cf14610616578063ad1211be1461061e578063bc5b91091461063b578063c12021311461064357610231565b8063837bee20146105c457806389356be1146105cc5780638ab96b02146105e95780638da5cb5b1461060657610231565b80634696f41a116101be5780636ccb2596116101825780636ccb25961461050b5780636fd2395f1461053f57806370360d3b14610547578063715018a61461059657806383321afb1461059e57610231565b80634696f41a1461038457806349d445d0146103a1578063533722cf1461044b578063573e57b71461047757806365c2dc7e1461049d57610231565b80632ada10b0116102055780632ada10b0146102ed5780632e1a7d4d14610311578063364afaea1461032e578063365b98b21461034b5780633ab125651461036857610231565b8062ce8e3e146102365780630315073b1461028e5780631bb4fec3146102ad5780631d3b32bc146102c7575b600080fd5b61023e61071f565b60408051602080825283518183015283519192839290830191858101910280838360005b8381101561027a578181015183820152602001610262565b505050509050019250505060405180910390f35b6102ab600480360360208110156102a457600080fd5b5035610782565b005b6102b561095e565b60408051918252519081900360200190f35b6102b5600480360360208110156102dd57600080fd5b50356001600160a01b0316610964565b6102f5610983565b604080516001600160a01b039092168252519081900360200190f35b6102ab6004803603602081101561032757600080fd5b5035610992565b6102ab6004803603602081101561034457600080fd5b5035610a93565b6102f56004803603602081101561036157600080fd5b5035610d90565b610370610db7565b604080519115158252519081900360200190f35b6102ab6004803603602081101561039a57600080fd5b5035610dcd565b6102ab600480360360408110156103b757600080fd5b813591908101906040810160208201356401000000008111156103d957600080fd5b8201836020820111156103eb57600080fd5b8035906020019184602083028401116401000000008311171561040d57600080fd5b919080806020026020016040519081016040528093929190818152602001838360200280828437600092019190915250929550610f89945050505050565b6103706004803603604081101561046157600080fd5b50803590602001356001600160a01b0316611269565b6102ab6004803603602081101561048d57600080fd5b50356001600160a01b0316611289565b6104a561134f565b604051808b81526020018a60028111156104bb57fe5b60ff1681526020810199909952506040808901979097526060880195909552608087019390935260a086019190915260c085015260e0840152151561010083015251908190036101200192509050f35b6102ab6004803603606081101561052157600080fd5b506001600160a01b0381351690602081013590604001351515611377565b6102b561147a565b61054f611480565b60408051998a5260208a0198909852888801969096526060880194909452608087019290925260a086015260c085015260e084015261010083015251908190036101200190f35b6102ab61149e565b6102b5600480360360208110156105b457600080fd5b50356001600160a01b031661152b565b6102b5611546565b6102ab600480360360208110156105e257600080fd5b503561154c565b6102ab600480360360208110156105ff57600080fd5b503561197e565b6102f5611c2f565b610370611c3e565b6102ab611c4f565b6102ab6004803603602081101561063457600080fd5b5035611dc1565b6102ab61204f565b6102b56121c6565b6102b56121cc565b6103706121d2565b6102ab6004803603602081101561067157600080fd5b50356121e8565b6103706004803603602081101561068e57600080fd5b50356001600160a01b031661240b565b6102b5600480360360208110156106b457600080fd5b50356001600160a01b0316612429565b6102f5612444565b6102ab612453565b6102ab600480360360208110156106ea57600080fd5b50356001600160a01b03166125c8565b6102f56004803603602081101561071057600080fd5b5035612614565b6102f5612641565b6060601e80548060200260200160405190810160405280929190818152602001828054801561077757602002820191906000526020600020905b81546001600160a01b03168152600190910190602001808311610759575b505050505090505b90565b61078a611c3e565b6107c55760405162461bcd60e51b81526004018080602001828103825260218152602001806133c76021913960400191505060405180910390fd5b60018060105460ff1660028111156107d957fe5b146108155760405162461bcd60e51b81526004018080602001828103825260278152602001806133e86027913960400191505060405180910390fd5b6012545b601e548110801561083b5750601254610838908463ffffffff61265016565b81105b1561092b576000601e828154811061084f57fe5b60009182526020808320909101546001600160a01b0316808352600c90915260409091205490915060ff166108845750610923565b600f5460009081526022602090815260408083206001600160a01b038516845290915281205460ff16906108b78361152b565b905081156109085760006108ca826126a7565b905060006108de828463ffffffff6126e216565b6016549091506108f4908263ffffffff61265016565b6016556109018583612734565b505061091f565b60145461091b908263ffffffff61265016565b6014555b5050505b600101610819565b5060125461093f908363ffffffff61265016565b6012819055601e541161095a576010805460ff191660021790555b5050565b601d5481565b6001600160a01b0381166000908152601a60205260409020545b919050565b6002546001600160a01b031681565b60008060105460ff1660028111156109a657fe5b146109e25760405162461bcd60e51b81526004018080602001828103825260278152602001806133e86027913960400191505060405180910390fd5b610a4633601e805480602002602001604051908101604052809291908181526020018280548015610a3c57602002820191906000526020600020905b81546001600160a01b03168152600190910190602001808311610a1e575b505050505061282b565b610a815760405162461bcd60e51b815260040180806020018281038252602c81526020018061356b602c913960400191505060405180910390fd5b6000610a8e338483611377565b505050565b610a9b611c3e565b610ad65760405162461bcd60e51b81526004018080602001828103825260218152602001806133c76021913960400191505060405180910390fd5b60008060105460ff166002811115610aea57fe5b14610b265760405162461bcd60e51b81526004018080602001828103825260278152602001806133e86027913960400191505060405180910390fd5b600454600f54600091610b5191610b429163ffffffff61287f16565b6003549063ffffffff61265016565b9050804211610b915760405162461bcd60e51b81526004018080602001828103825260308152602001806135e56030913960400191505060405180910390fd5b600f54602354604080516332401b5760e11b815290516001600160a01b039092169163648036ae91600480820192602092909190829003018186803b158015610bd957600080fd5b505afa158015610bed573d6000803e3d6000fd5b505050506040513d6020811015610c0357600080fd5b50511015610c425760405162461bcd60e51b81526004018080602001828103825260308152602001806134426030913960400191505060405180910390fd5b6011545b601e5481108015610c685750601154610c65908563ffffffff61265016565b81105b15610d51576000601e8281548110610c7c57fe5b600091825260208083209190910154602354600f54604080516339d519c560e21b815260048101929092526001600160a01b039384166024830181905290519096508594939092169263e754671492604480840193829003018186803b158015610ce557600080fd5b505afa158015610cf9573d6000803e3d6000fd5b505050506040513d6020811015610d0f57600080fd5b505160215460009081526022602090815260408083206001600160a01b03909716835295905293909320805460ff191691909312151790915550600101610c46565b50601154610d65908463ffffffff61265016565b6011819055601e5411610a8e5750506021805460019081019091556010805460ff1916909117905550565b601e8181548110610d9d57fe5b6000918252602090912001546001600160a01b0316905081565b336000908152600c602052604090205460ff1690565b610dd5611c3e565b610e105760405162461bcd60e51b81526004018080602001828103825260218152602001806133c76021913960400191505060405180910390fd5b60008060105460ff166002811115610e2457fe5b14610e605760405162461bcd60e51b81526004018080602001828103825260278152602001806133e86027913960400191505060405180910390fd5b60008211610e9f5760405162461bcd60e51b81526004018080602001828103825260248152602001806132a66024913960400191505060405180910390fd5b600154604080516323b872dd60e01b81523360048201523060248201526044810185905290516001600160a01b03909216916323b872dd916064808201926020929091908290030181600087803b158015610ef957600080fd5b505af1158015610f0d573d6000803e3d6000fd5b505050506040513d6020811015610f2357600080fd5b5051610f6f576040805162461bcd60e51b8152602060048201526016602482015275546f6b656e207472616e73666572206661696c65642160501b604482015290519081900360640190fd5b601f54610f82908363ffffffff61265016565b601f555050565b6002546001600160a01b03163314610fd25760405162461bcd60e51b81526004018080602001828103825260278152602001806135976027913960400191505060405180910390fd5b60008060105460ff166002811115610fe657fe5b146110225760405162461bcd60e51b81526004018080602001828103825260278152602001806133e86027913960400191505060405180910390fd5b600454600f5460009161103e91610b429163ffffffff61287f16565b905080421161107e5760405162461bcd60e51b81526004018080602001828103825260308152602001806135e56030913960400191505060405180910390fd5b601e54601154611094908663ffffffff61265016565b11156110ed57601e5483516011546110b19163ffffffff61265016565b146110ed5760405162461bcd60e51b815260040180806020018281038252603381526020018061340f6033913960400191505060405180910390fd5b60115460005b601e54821080156111155750601154611112908763ffffffff61265016565b82105b156112275784818151811061112657fe5b60200260200101516022600060215481526020019081526020016000206000601e858154811061115257fe5b6000918252602080832091909101546001600160a01b031683528201929092526040019020805460ff1916911515919091179055601e80547f69e514cdcec7511d4b905b7b81d960d84822e90a49c9ec4b9224c8f92a1378dc9190849081106111b757fe5b9060005260206000200160009054906101000a90046001600160a01b03168683815181106111e157fe5b602002602001015160405180836001600160a01b03166001600160a01b03168152602001821515151581526020019250505060405180910390a1600191820191016110f3565b505060115461123c908563ffffffff61265016565b6011819055601e5411611263576021805460019081019091556010805460ff191690911790555b50505050565b602260209081526000928352604080842090915290825290205460ff1681565b6002546001600160a01b031633146112d25760405162461bcd60e51b81526004018080602001828103825260278152602001806135976027913960400191505060405180910390fd5b6001600160a01b03811661132d576040805162461bcd60e51b815260206004820152601d60248201527f4e6577204a75726920616464726573732063616e6e6f74206265203021000000604482015290519081900360640190fd5b600280546001600160a01b0319166001600160a01b0392909216919091179055565b600f5460105460115460125460135460145460155460165460175460185460ff98891698168a565b600061138384846128e2565b9050828110156113ae57600061139f848363ffffffff6126e216565b90506113ac85828561294b565b505b6001546040805163a9059cbb60e01b81526001600160a01b038781166004830152602482018790529151919092169163a9059cbb9160448083019260209291908290030181600087803b15801561140457600080fd5b505af1158015611418573d6000803e3d6000fd5b505050506040513d602081101561142e57600080fd5b5051611263576040805162461bcd60e51b8152602060048201526016602482015275546f6b656e207472616e73666572206661696c65642160501b604482015290519081900360640190fd5b60215481565b600354600454600554600654600754600854600954600a54600b5489565b6114a6611c3e565b6114e15760405162461bcd60e51b81526004018080602001828103825260218152602001806133c76021913960400191505060405180910390fd5b600080546040516001600160a01b03909116907f8be0079c531659141344cd1fd0a4f28419497f9722a3daafe3b4186f6b6457e0908390a3600080546001600160a01b0319169055565b6001600160a01b03166000908152600e602052604090205490565b601e5490565b60008060105460ff16600281111561156057fe5b1461159c5760405162461bcd60e51b81526004018080602001828103825260278152602001806133e86027913960400191505060405180910390fd5b611601336019600301805480602002602001604051908101604052809291908181526020018280548015610a3c576020028201919060005260206000209081546001600160a01b03168152600190910190602001808311610a1e57505050505061282b565b80611669575061166933601e805480602002602001604051908101604052809291908181526020018280548015610a3c576020028201919060005260206000209081546001600160a01b03168152600190910190602001808311610a1e57505050505061282b565b6116a45760405162461bcd60e51b815260040180806020018281038252603c81526020018061338b603c913960400191505060405180910390fd5b336000908152600d6020908152604080832054601a90925290912054836116fc5760405162461bcd60e51b81526004018080602001828103825260248152602001806132a66024913960400191505060405180910390fd5b600a5461170f838363ffffffff61265016565b1061174b5760405162461bcd60e51b81526004018080602001828103825260448152602001806133226044913960600191505060405180910390fd5b600b54601d546020546117639163ffffffff61265016565b1061179f5760405162461bcd60e51b81526004018080602001828103825260428152602001806135296042913960600191505060405180910390fd5b60006117b1828663ffffffff61265016565b600a5490915085906117c9858463ffffffff61265016565b11156117f4576117f16117e2858563ffffffff61265016565b600a549063ffffffff6126e216565b90505b6000611806848363ffffffff61265016565b600b54601d5460205492935090916118359184916118299163ffffffff61265016565b9063ffffffff61265016565b111561186757601d5460205461186491611855919063ffffffff61265016565b600b549063ffffffff6126e216565b91505b600154604080516323b872dd60e01b81523360048201523060248201526044810185905290516001600160a01b03909216916323b872dd916064808201926020929091908290030181600087803b1580156118c157600080fd5b505af11580156118d5573d6000803e3d6000fd5b505050506040513d60208110156118eb57600080fd5b5051611937576040805162461bcd60e51b8152602060048201526016602482015275546f6b656e207472616e73666572206661696c65642160501b604482015290519081900360640190fd5b6000611949858463ffffffff61265016565b336000908152601a60205260409020819055601d54909150611971908463ffffffff61265016565b601d555050505050505050565b611986611c3e565b6119c15760405162461bcd60e51b81526004018080602001828103825260218152602001806133c76021913960400191505060405180910390fd5b60028060105460ff1660028111156119d557fe5b14611a115760405162461bcd60e51b81526004018080602001828103825260278152602001806133e86027913960400191505060405180910390fd5b601354611a3257611a206129b9565b6018805460ff19169115159190911790555b6013546000905b601e54611a4c828463ffffffff6126e216565b1080611a685750601c54611a66828463ffffffff6126e216565b105b8015611a855750601354611a82908563ffffffff61265016565b81105b15611bd2576000611a9c828463ffffffff6126e216565b601c54909150611ab390829063ffffffff61265016565b601e541115611ae657611ae6601e8281548110611acc57fe5b6000918252602090912001546001600160a01b03166129f4565b601e5481108015611b2f575060196002016000601e8381548110611b0657fe5b60009182526020808320909101546001600160a01b0316835282019290925260400190205460ff165b15611b9257600060196002016000601e8481548110611b4a57fe5b6000918252602080832091909101546001600160a01b031683528201929092526040019020805460ff1916911515919091179055611b8781612a78565b600190920191611bc9565b601c54811015611bc957611bc960196003018281548110611baf57fe5b6000918252602090912001546001600160a01b0316612b5a565b50600101611a39565b50601354611bf8908290611bec908663ffffffff61265016565b9063ffffffff6126e216565b6013819055601e5411801590611c125750601c5460135410155b15610a8e57611c1f612be7565b611c27612cc2565b610a8e612d11565b6000546001600160a01b031690565b6000546001600160a01b0316331490565b60008060105460ff166002811115611c6357fe5b14611c9f5760405162461bcd60e51b81526004018080602001828103825260278152602001806133e86027913960400191505060405180910390fd5b611d04336019600301805480602002602001604051908101604052809291908181526020018280548015610a3c576020028201919060005260206000209081546001600160a01b03168152600190910190602001808311610a1e57505050505061282b565b80611d6c5750611d6c33601e805480602002602001604051908101604052809291908181526020018280548015610a3c576020028201919060005260206000209081546001600160a01b03168152600190910190602001808311610a1e57505050505061282b565b611da75760405162461bcd60e51b815260040180806020018281038252603c81526020018061338b603c913960400191505060405180910390fd5b50336000908152601960205260409020805460ff19169055565b611dc9611c3e565b611e045760405162461bcd60e51b81526004018080602001828103825260218152602001806133c76021913960400191505060405180910390fd5b60008060105460ff166002811115611e1857fe5b14611e545760405162461bcd60e51b81526004018080602001828103825260278152602001806133e86027913960400191505060405180910390fd5b816000611e5f612d3a565b905060008211611ea05760405162461bcd60e51b81526004018080602001828103825260258152602001806133666025913960400191505060405180910390fd5b6000601f5411611ef7576040805162461bcd60e51b815260206004820152601f60248201527f4e6f2066756e647320617661696c61626c6520746f2077697468647261772100604482015290519081900360640190fd5b80600101601f5411611f3a5760405162461bcd60e51b81526004018080602001828103825260268152602001806134da6026913960400191505060405180910390fd5b611f4a818363ffffffff61265016565b601f541015611f6957601f54611f66908263ffffffff6126e216565b91505b6001546040805163a9059cbb60e01b81523360048201526024810185905290516001600160a01b039092169163a9059cbb916044808201926020929091908290030181600087803b158015611fbd57600080fd5b505af1158015611fd1573d6000803e3d6000fd5b505050506040513d6020811015611fe757600080fd5b5051612033576040805162461bcd60e51b8152602060048201526016602482015275546f6b656e207472616e73666572206661696c65642160501b604482015290519081900360640190fd5b601f54612046908363ffffffff6126e216565b601f5550505050565b6120b133601e805480602002602001604051908101604052809291908181526020018280548015610a3c576020028201919060005260206000209081546001600160a01b03168152600190910190602001808311610a1e57505050505061282b565b6120ec5760405162461bcd60e51b815260040180806020018281038252602c81526020018061356b602c913960400191505060405180910390fd5b60008060105460ff16600281111561210057fe5b1461213c5760405162461bcd60e51b81526004018080602001828103825260278152602001806133e86027913960400191505060405180910390fd5b336000908152601b602052604090205460ff16156121a1576040805162461bcd60e51b815260206004820181905260248201527f5573657220616c7265616479206d61726b656420666f722072656d6f76616c21604482015290519081900360640190fd5b336000908152601b60205260409020805460ff191660011790556121c3611c4f565b50565b601f5481565b60205481565b3360009081526019602052604090205460ff1690565b61224d336019600301805480602002602001604051908101604052809291908181526020018280548015610a3c576020028201919060005260206000209081546001600160a01b03168152600190910190602001808311610a1e57505050505061282b565b156122895760405162461bcd60e51b81526004018080602001828103825260328152602001806134a86032913960400191505060405180910390fd5b6122eb33601e805480602002602001604051908101604052809291908181526020018280548015610a3c576020028201919060005260206000209081546001600160a01b03168152600190910190602001808311610a1e57505050505061282b565b156123275760405162461bcd60e51b81526004018080602001828103825260278152602001806135be6027913960400191505060405180910390fd5b60008060105460ff16600281111561233b57fe5b146123775760405162461bcd60e51b81526004018080602001828103825260278152602001806133e86027913960400191505060405180910390fd5b6009548210156123b85760405162461bcd60e51b81526004018080602001828103825260368152602001806134726036913960400191505060405180910390fd5b601c80546001810182556000919091527f0e4562a10381dec21b205ed72637e6b1b523bdd0e4d4d50af5cd23dd4500a2110180546001600160a01b031916331790556124038261154c565b61095a612453565b6001600160a01b03166000908152601b602052604090205460ff1690565b6001600160a01b03166000908152600d602052604090205490565b6023546001600160a01b031681565b60008060105460ff16600281111561246757fe5b146124a35760405162461bcd60e51b81526004018080602001828103825260278152602001806133e86027913960400191505060405180910390fd5b612508336019600301805480602002602001604051908101604052809291908181526020018280548015610a3c576020028201919060005260206000209081546001600160a01b03168152600190910190602001808311610a1e57505050505061282b565b80612570575061257033601e805480602002602001604051908101604052809291908181526020018280548015610a3c576020028201919060005260206000209081546001600160a01b03168152600190910190602001808311610a1e57505050505061282b565b6125ab5760405162461bcd60e51b815260040180806020018281038252603c81526020018061338b603c913960400191505060405180910390fd5b50336000908152601960205260409020805460ff19166001179055565b6125d0611c3e565b61260b5760405162461bcd60e51b81526004018080602001828103825260218152602001806133c76021913960400191505060405180910390fd5b6121c381612d84565b60006019600301828154811061262657fe5b6000918252602090912001546001600160a01b031692915050565b6001546001600160a01b031681565b60008282018381101561269e576040805162461bcd60e51b815260206004820152601160248201527053616665416464206f766572666c6f772160781b604482015290519081900360640190fd5b90505b92915050565b60006126a160646126d66126c96003800154606461265090919063ffffffff16565b859063ffffffff61287f16565b9063ffffffff612e3316565b60008282111561272e576040805162461bcd60e51b81526020600482015260126024820152715361666553756220756e646572666c6f772160701b604482015290519081900360640190fd5b50900390565b6001600160a01b0382166000908152600d6020908152604080832054600e90925282205490919061276b908363ffffffff6126e216565b6001600160a01b0385166000908152601a60205260408120549192509061279f908390611bec90879063ffffffff61265016565b6001600160a01b0386166000908152600d60209081526040808320849055600e8252808320849055601a90915281205590508281116127ff576127fa6127eb848363ffffffff6126e216565b6020549063ffffffff6126e216565b612821565b612821612812828563ffffffff6126e216565b6020549063ffffffff61265016565b6020555050505050565b600080805b835181101561287757846001600160a01b031684828151811061284f57fe5b60200260200101516001600160a01b0316141561286f5760019150612877565b600101612830565b509392505050565b60008261288e575060006126a1565b8282028284828161289b57fe5b041461269e576040805162461bcd60e51b8152602060048201526011602482015270536166654d756c206f766572666c6f772160781b604482015290519081900360640190fd5b6000806128ee84610964565b90508083101561292a57612908818463ffffffff6126e216565b6001600160a01b0385166000908152601a6020526040902055508190506126a1565b6001600160a01b0384166000908152601a6020526040812055905092915050565b600061295684612429565b9050600061296a828563ffffffff6126e216565b9050821561298d57602054612985908563ffffffff6126e216565b602055612997565b6129978582612e9d565b6001600160a01b039094166000908152600d6020526040902093909355505050565b6014546000906129cb5750600161077f565b6014546016546000916129e9916126d690606463ffffffff61287f16565b600754111591505090565b600f5460009081526022602090815260408083206001600160a01b038516845290915290205460ff1680158015612a4357506001600160a01b0382166000908152600c602052604090205460ff165b15612a6f576000612a538361152b565b90506000612a6082612f4b565b9050612a6c8482612734565b50505b61095a82612f9b565b6000601e8281548110612a8757fe5b60009182526020822001546001600160a01b03169150612ab2612aa983610964565b61182984612429565b90506001612ac1838383611377565b601e5460011015612b4057601e8054612ae190600163ffffffff6126e216565b81548110612aeb57fe5b600091825260209091200154601e80546001600160a01b039092169186908110612b1157fe5b9060005260206000200160006101000a8154816001600160a01b0302191690836001600160a01b031602179055505b601e805490612b539060001983016131de565b5050505050565b601e805460018101825560009182527f50bb669a95c7b50b7e8a6f09454034b2b14cf2b85c730dca9a539ca82cb6e3500180546001600160a01b0319166001600160a01b038416179055612baf908290612734565b6001600160a01b0316600090815260196020908152604080832054600c909252909120805460ff191660ff9092161515919091179055565b6001546002546017546040805163a9059cbb60e01b81526001600160a01b039384166004820152602481019290925251919092169163a9059cbb9160448083019260209291908290030181600087803b158015612c4357600080fd5b505af1158015612c57573d6000803e3d6000fd5b505050506040513d6020811015612c6d57600080fd5b5051612cc0576040805162461bcd60e51b815260206004820181905260248201527f4a757269206665657320746f6b656e207472616e73666572206661696c656421604482015290519081900360640190fd5b565b60185460ff1615612cc057600854601454600091612ced916064916126d6919063ffffffff61287f16565b601454909150600090612d06908363ffffffff6126e216565b905061095a81613053565b600f54612d209060010161307f565b612d2861314d565b612d30613199565b6017819055601655565b600080612d67612d586003800154606461265090919063ffffffff16565b6020549063ffffffff61287f16565b9050612d7e602054826126e290919063ffffffff16565b91505090565b6001600160a01b038116612dd8576040805162461bcd60e51b81526020600482015260166024820152754e6577206f776e65722063616e6e6f7420626520302160501b604482015290519081900360640190fd5b600080546040516001600160a01b03808516939216917f8be0079c531659141344cd1fd0a4f28419497f9722a3daafe3b4186f6b6457e091a3600080546001600160a01b0319166001600160a01b0392909216919091179055565b6000808211612e89576040805162461bcd60e51b815260206004820152601b60248201527f536166654469762063616e6e6f74206469766964652062792030210000000000604482015290519081900360640190fd5b6000828481612e9457fe5b04949350505050565b6000612ea88361152b565b90506000612eb5826131bf565b90506000612ec9838363ffffffff6126e216565b905080841015612f0a5760405162461bcd60e51b815260040180806020018281038252602e8152602001806132ca602e913960400191505060405180910390fd5b600954841015612b535760405162461bcd60e51b815260040180806020018281038252602a8152602001806132f8602a913960400191505060405180910390fd5b60185460009060ff1615612f6957612f62826131bf565b905061097e565b601454601654612f93826126d6612f86828563ffffffff6126e216565b879063ffffffff61287f16565b949350505050565b6000612fa682612429565b6001600160a01b0383166000908152600c602052604090205490915060ff1661301a576001600160a01b0382166000908152601a6020526040902054612ff2908263ffffffff61265016565b6001600160a01b0383166000908152600d6020908152604080832093909355601a9052908120555b506001600160a01b0316600090815260196020908152604080832054600c909252909120805460ff191660ff9092161515919091179055565b601654600090613069908363ffffffff6126e216565b601f54909150610f82908263ffffffff6126e216565b60408051610140810182528281526000602080830182905282840182905260608084018390526080840183905260a0840183905260c0840183905260e084018390526101008401839052610120909301829052600f8590556010805460ff199081169091556011839055601283905560138390556014839055601583905560168390556017839055601880549091169055835180850183815293810194859052838152908101919091529051909160199161313c91601c91613202565b506020820151816004015590505050565b6000613157612d3a565b905080601f54116121c35760405162461bcd60e51b81526004018080602001828103825260298152602001806135006029913960400191505060405180910390fd5b60006131ba60646126d660036002015460205461287f90919063ffffffff16565b905090565b60006126a160646126d66003600501548561287f90919063ffffffff16565b815481835581811115610a8e57600083815260209020610a8e918101908301613267565b828054828255906000526020600020908101928215613257579160200282015b8281111561325757825182546001600160a01b0319166001600160a01b03909116178255602090920191600190910190613222565b50613263929150613281565b5090565b61077f91905b80821115613263576000815560010161326d565b61077f91905b808211156132635780546001600160a01b031916815560010161328756fe506c65617365207061737320616e20616d6f756e7420686967686572207468616e20302143616e6e6f74207769746864726177206d6f7265207468616e2073616665207374616b696e6720616d6f756e742143616e6e6f74207769746864726177206d6f7265207468616e206d696e5374616b65506572557365722143616e6e6f7420616464206d6f72652066756e647320666f7220757365722c206265636175736520746865206d6178207065722075736572206973207265616368656421506c65617365207061737320616e20616d6f756e7420686967686572207468616e203021214f6e6c7920706f6f6c207573657273206f722070656e64696e6720706f6f6c2075736572732063616e2075736520746869732066756e6374696f6e214f6e6c79206f776e65722063616e2075736520746869732066756e6374696f6e2146756e6374696f6e2063616e6e6f742062652063616c6c656420617420746869732074696d6521436f6d706c69616e63652064617461206c656e677468206d757374206d6174636820706f6f6c2075736572732061727261792154686520726573756c747320666f722074686520726f756e6420617265206e6f7420617661696c61626c652079657421506c656173652070617373206174206c6561737420746865206d696e207374616b6520706572207573657220617320616d6f756e74214f6e6c79206e6f6e2d70656e64696e6720706f6f6c2075736572732063616e2075736520746869732066756e6374696f6e2143616e6e6f742077697468647261772062656c6f77206d696e206f776e65722066756e647321506f6f6c206973206e6f742073756666696369656e746c792066756e646564206279206f776e65722143616e6e6f7420616464206d6f72652066756e647320746f20706f6f6c2c206265636175736520746865206d617820696e20706f6f6c2069732072656163686564214f6e6c7920616464656420706f6f6c2075736572732063616e2075736520746869732066756e6374696f6e214f6e6c79206a757269416464726573732063616e2075736520746869732066756e6374696f6e214f6e6c79206e6f6e2d6d656d626572732063616e2075736520746869732066756e6374696f6e2143616e206f6e6c7920616464206e6577206461746120616674657220656e64206f6620706572696f644c656e67746821a265627a7a7230582075826fb90fe2438c6d372628b1d7d0540897bc384b90ef1ba91715eb0a46e5bb64736f6c634300050a0032436f6d706c69616e74206761696e2070657263656e74616765206d7573742062652061206e756d626572206265747765656e203020616e6420313030214665652070657263656e74616765206d7573742062652061206e756d626572206265747765656e203020616e6420313030214d6178206e6f6e2d636f6d706c69616e742070656e616c74792070657263656e74616765206d7573742062652061206e756d626572206265747765656e203020616e6420313030214d6178207374616b652070657220757365722063616e6e6f742062652030210053746172742074696d65206d75737420626520696e207468652066757475726521",
  "source": "pragma solidity 0.5.10;\r\n\r\nimport \"./JuriNetworkProxy.sol\";\r\nimport \"../JuriStakingPool.sol\";\r\n\r\ncontract JuriStakingPoolWithOracle is JuriStakingPool {\r\n    JuriNetworkProxy public proxy;\r\n\r\n    constructor(\r\n        JuriNetworkProxy _proxy,\r\n        IERC20 _token,\r\n        uint256 _startTime,\r\n        uint256 _periodLength,\r\n        uint256 _feePercentage,\r\n        uint256 _compliantGainPercentage,\r\n        uint256 _maxNonCompliantPenaltyPercentage,\r\n        uint256 _minStakePerUser,\r\n        uint256 _maxStakePerUser,\r\n        uint256 _maxTotalStake,\r\n        address _juriAddress\r\n    ) JuriStakingPool(\r\n        _token,\r\n        _startTime,\r\n        _periodLength,\r\n        _feePercentage,\r\n        _compliantGainPercentage,\r\n        _maxNonCompliantPenaltyPercentage,\r\n        _minStakePerUser,\r\n        _maxStakePerUser,\r\n        _maxTotalStake,\r\n        _juriAddress\r\n    ) public {\r\n        proxy = _proxy;\r\n    }\r\n\r\n    /**\r\n     * @dev Add user's compliancy data for current or past periods.\r\n     * @param _updateIterationCount The number defining the max for how much compliance\r\n     * data will be passed in a single function call to prevent out-of-gas errors.\r\n     */\r\n    function checkNewAddedComplianceData(uint256 _updateIterationCount)\r\n        public\r\n        onlyOwner\r\n        atStage(Stages.AWAITING_COMPLIANCE_DATA)\r\n    {\r\n        uint256 nextStakingPeriodEndTime = poolDefinition.startTime.add(\r\n            currentStakingRound.roundIndex.mul(poolDefinition.periodLength)\r\n        );\r\n        require(\r\n            now > nextStakingPeriodEndTime,\r\n            \"Can only add new data after end of periodLength!\"\r\n        );\r\n\r\n        require(\r\n            proxy.roundIndex() >= currentStakingRound.roundIndex,\r\n            \"The results for the round are not available yet!\"\r\n        );\r\n\r\n        for (\r\n            uint256 i = currentStakingRound.addComplianceDataIndex;\r\n            i < users.length && i <\r\n                currentStakingRound.addComplianceDataIndex\r\n                    .add(_updateIterationCount);\r\n            i++\r\n        ) {\r\n            address user = users[i];\r\n            bool wasCompliant = proxy.getUserComplianceData(\r\n                currentStakingRound.roundIndex,\r\n                user\r\n            ) >= 0;\r\n\r\n            complianceDataAtIndex[complianceDataIndex][user] = wasCompliant;\r\n        }\r\n\r\n        currentStakingRound.addComplianceDataIndex\r\n            = currentStakingRound.addComplianceDataIndex\r\n                .add(_updateIterationCount);\r\n\r\n        if (currentStakingRound.addComplianceDataIndex >= users.length) {\r\n            complianceDataIndex++;\r\n            currentStakingRound.stage = Stages.AWAITING_FIRST_UPDATE;\r\n        }\r\n    }\r\n}",
  "sourcePath": "C:\\Users\\mail\\Personal\\Juri\\JuriStakingContract\\contracts\\research\\JuriStakingPoolWithOracle.sol",
  "compiler": {
    "name": "solc",
    "version": "0.5.10+commit.5a6ea5b1.Emscripten.clang"
  },
  "schemaVersion": "3.0.11",
  "updatedAt": "2019-08-26T23:35:56.755Z",
  "devdoc": {
    "methods": {
      "addMoreStakeForNextPeriod(uint256)": {
        "details": "Add more stake for user once next staking period starts.\r",
        "params": {
          "_amount": "The amount to be added as stake.\r"
        }
      },
      "addOwnerFunds(uint256)": {
        "details": "Add owner funds to pool.\r"
      },
      "addUserInNextPeriod(uint256)": {
        "details": "Add user to pool once next staking period starts.\r",
        "params": {
          "_amount": "The amount to be added as stake for the user.\r"
        }
      },
      "addWasCompliantDataForUsers(uint256,bool[])": {
        "details": "Add user's compliancy data for current or past periods.\r",
        "params": {
          "_updateIterationCount": "The number defining the max for how much compliance\r data will be passed in a single function call to prevent out-of-gas errors.\r",
          "_wasCompliant": "The boolean array to indicate compliancy.\r"
        }
      },
      "checkNewAddedComplianceData(uint256)": {
        "details": "Add user's compliancy data for current or past periods.\r",
        "params": {
          "_updateIterationCount": "The number defining the max for how much compliance\r data will be passed in a single function call to prevent out-of-gas errors.\r"
        }
      },
      "firstUpdateStakeForNextXAmountOfUsers(uint256)": {
        "details": "First part for updating stakes of users for next X users.\r",
        "params": {
          "_updateIterationCount": "The number defining how many users should\r be updated in a single function call to prevent out-of-gas errors.\r"
        }
      },
      "getAdditionalStakeForUserInNextPeriod(address)": {
        "details": "Get added stake for user.\r",
        "return": "The amount of stake added in the next round for user.\r"
      },
      "getIsCurrentRoundStaking()": {
        "details": "Read if calling user is staking in the current round.\r",
        "return": "The boolean indicator if user is staking in the current round.\r"
      },
      "getIsLeavingNextPeriodForUser(address)": {
        "details": "Read if user will be removed in the next round.\r",
        "params": {
          "_user": "The user to be checked.\r"
        },
        "return": "The boolean indicator showing if user is leaving next round.\r"
      },
      "getIsNextRoundStaking()": {
        "details": "Read if calling user is staking in the next round.\r",
        "return": "The boolean indicator if user will be staking next round.\r"
      },
      "getPoolUserCount()": {
        "details": "Get the total pool user count.\r"
      },
      "getStakeForUserAtRoundStart(address)": {
        "details": "Get stake for user that will be used in current staking round.\r",
        "return": "The amount of stake used in the current round for user.\r"
      },
      "getStakeForUserInCurrentPeriod(address)": {
        "details": "Get current stake for user.\r",
        "return": "The amount of stake in the current round for user.\r"
      },
      "getUserToBeAddedNextPeriod(uint256)": {
        "details": "Read users to be added in the next round.\r",
        "params": {
          "_index": "The index in the array of pending user additions.\r"
        },
        "return": "The user to be added.\r"
      },
      "getUsers()": {
        "details": "Read users in pool.\r",
        "return": "The users in the pool.\r"
      },
      "isOwner()": {
        "return": "true if `msg.sender` is the owner of the contract.\r"
      },
      "optInForStakingForNextPeriod()": {
        "details": "Opt in for staking for user once next staking period starts.\r"
      },
      "optOutOfStakingForNextPeriod()": {
        "details": "Opt out of staking for user once next staking period starts.\r"
      },
      "owner()": {
        "return": "the address of the owner.\r"
      },
      "removeUserInNextPeriod()": {
        "details": "Remove user from pool once next staking period starts.\r"
      },
      "renounceOwnership()": {
        "details": "Allows the current owner to relinquish control of the contract.\r It will not be possible to call the functions with the `onlyOwner`\r modifier anymore.\r"
      },
      "secondUpdateStakeForNextXAmountOfUsers(uint256)": {
        "details": "Second part for updating stakes of users for next X users.\r",
        "params": {
          "_updateIterationCount": "The number defining how many users should\r be updated in a single function call to prevent out-of-gas errors.\r"
        }
      },
      "setJuriAddress(address)": {
        "details": "Set new Juri address.\r",
        "params": {
          "_newJuriAddress": "The new Juri address to be stored.\r"
        }
      },
      "transferOwnership(address)": {
        "details": "Allows the current owner to transfer control of the contract to a newOwner.\r",
        "params": {
          "newOwner": "The address to transfer ownership to.\r"
        }
      },
      "withdraw(uint256)": {
        "details": "Withdraw user stake funds from pool. Use funds added for next period\r first. Keep enough funds to pay non-compliant penalty if required.\r"
      },
      "withdrawOwnerFunds(uint256)": {
        "details": "Withdraw owner funds from pool.\r",
        "params": {
          "_amount": "The amount to withdraw.\r"
        }
      }
    }
  },
  "userdoc": {
    "methods": {
      "renounceOwnership()": {
        "notice": "Renouncing ownership will leave the contract without an owner,\r thereby removing any functionality that is only available to the owner.\r"
      }
    }
  }
}