{
  "contractName": "JuriNetworkProxy",
  "abi": [
    {
      "constant": true,
      "inputs": [],
      "name": "skaleFileStorage",
      "outputs": [
        {
          "name": "",
          "type": "address"
        }
      ],
      "payable": false,
      "stateMutability": "view",
      "type": "function"
    },
    {
      "constant": true,
      "inputs": [],
      "name": "skaleMessageProxySide",
      "outputs": [
        {
          "name": "",
          "type": "address"
        }
      ],
      "payable": false,
      "stateMutability": "view",
      "type": "function"
    },
    {
      "constant": true,
      "inputs": [
        {
          "name": "",
          "type": "uint256"
        }
      ],
      "name": "totalJuriFees",
      "outputs": [
        {
          "name": "",
          "type": "uint256"
        }
      ],
      "payable": false,
      "stateMutability": "view",
      "type": "function"
    },
    {
      "constant": true,
      "inputs": [],
      "name": "currentStage",
      "outputs": [
        {
          "name": "",
          "type": "uint8"
        }
      ],
      "payable": false,
      "stateMutability": "view",
      "type": "function"
    },
    {
      "constant": true,
      "inputs": [],
      "name": "roundIndex",
      "outputs": [
        {
          "name": "",
          "type": "uint256"
        }
      ],
      "payable": false,
      "stateMutability": "view",
      "type": "function"
    },
    {
      "constant": false,
      "inputs": [],
      "name": "renounceOwnership",
      "outputs": [],
      "payable": false,
      "stateMutability": "nonpayable",
      "type": "function"
    },
    {
      "constant": true,
      "inputs": [
        {
          "name": "",
          "type": "uint256"
        }
      ],
      "name": "timesForStages",
      "outputs": [
        {
          "name": "",
          "type": "uint256"
        }
      ],
      "payable": false,
      "stateMutability": "view",
      "type": "function"
    },
    {
      "constant": true,
      "inputs": [],
      "name": "startTime",
      "outputs": [
        {
          "name": "",
          "type": "uint256"
        }
      ],
      "payable": false,
      "stateMutability": "view",
      "type": "function"
    },
    {
      "constant": true,
      "inputs": [
        {
          "name": "",
          "type": "uint256"
        }
      ],
      "name": "dissentedUsers",
      "outputs": [
        {
          "name": "",
          "type": "address"
        }
      ],
      "payable": false,
      "stateMutability": "view",
      "type": "function"
    },
    {
      "constant": true,
      "inputs": [],
      "name": "skaleMessageProxyAddressMain",
      "outputs": [
        {
          "name": "",
          "type": "address"
        }
      ],
      "payable": false,
      "stateMutability": "view",
      "type": "function"
    },
    {
      "constant": true,
      "inputs": [],
      "name": "owner",
      "outputs": [
        {
          "name": "",
          "type": "address"
        }
      ],
      "payable": false,
      "stateMutability": "view",
      "type": "function"
    },
    {
      "constant": true,
      "inputs": [],
      "name": "lastStageUpdate",
      "outputs": [
        {
          "name": "",
          "type": "uint256"
        }
      ],
      "payable": false,
      "stateMutability": "view",
      "type": "function"
    },
    {
      "constant": true,
      "inputs": [],
      "name": "isOwner",
      "outputs": [
        {
          "name": "",
          "type": "bool"
        }
      ],
      "payable": false,
      "stateMutability": "view",
      "type": "function"
    },
    {
      "constant": true,
      "inputs": [],
      "name": "nodeVerifierCount",
      "outputs": [
        {
          "name": "",
          "type": "uint256"
        }
      ],
      "payable": false,
      "stateMutability": "view",
      "type": "function"
    },
    {
      "constant": true,
      "inputs": [],
      "name": "bonding",
      "outputs": [
        {
          "name": "",
          "type": "address"
        }
      ],
      "payable": false,
      "stateMutability": "view",
      "type": "function"
    },
    {
      "constant": true,
      "inputs": [
        {
          "name": "",
          "type": "uint256"
        },
        {
          "name": "",
          "type": "address"
        }
      ],
      "name": "totalJuriFeesAtWithdrawalTimes",
      "outputs": [
        {
          "name": "",
          "type": "uint256"
        }
      ],
      "payable": false,
      "stateMutability": "view",
      "type": "function"
    },
    {
      "constant": true,
      "inputs": [
        {
          "name": "",
          "type": "uint256"
        }
      ],
      "name": "registeredJuriStakingPools",
      "outputs": [
        {
          "name": "",
          "type": "address"
        }
      ],
      "payable": false,
      "stateMutability": "view",
      "type": "function"
    },
    {
      "constant": true,
      "inputs": [],
      "name": "juriTokenMainAddress",
      "outputs": [
        {
          "name": "",
          "type": "address"
        }
      ],
      "payable": false,
      "stateMutability": "view",
      "type": "function"
    },
    {
      "constant": true,
      "inputs": [],
      "name": "juriFeesToken",
      "outputs": [
        {
          "name": "",
          "type": "address"
        }
      ],
      "payable": false,
      "stateMutability": "view",
      "type": "function"
    },
    {
      "constant": true,
      "inputs": [
        {
          "name": "",
          "type": "address"
        }
      ],
      "name": "isRegisteredJuriStakingPool",
      "outputs": [
        {
          "name": "",
          "type": "bool"
        }
      ],
      "payable": false,
      "stateMutability": "view",
      "type": "function"
    },
    {
      "constant": false,
      "inputs": [
        {
          "name": "newOwner",
          "type": "address"
        }
      ],
      "name": "transferOwnership",
      "outputs": [],
      "payable": false,
      "stateMutability": "nonpayable",
      "type": "function"
    },
    {
      "inputs": [
        {
          "name": "_juriFeesToken",
          "type": "address"
        },
        {
          "name": "_juriTokenSide",
          "type": "address"
        },
        {
          "name": "_juriTokenMain",
          "type": "address"
        },
        {
          "name": "_skaleMessageProxySide",
          "type": "address"
        },
        {
          "name": "_skaleMessageProxyAddressMain",
          "type": "address"
        },
        {
          "name": "_skaleFileStorage",
          "type": "address"
        },
        {
          "name": "_juriFoundation",
          "type": "address"
        },
        {
          "name": "_times",
          "type": "uint256[]"
        },
        {
          "name": "_penalties",
          "type": "uint256[]"
        },
        {
          "name": "_minStakePerNode",
          "type": "uint256"
        }
      ],
      "payable": false,
      "stateMutability": "nonpayable",
      "type": "constructor"
    },
    {
      "anonymous": false,
      "inputs": [
        {
          "indexed": false,
          "name": "user",
          "type": "address"
        },
        {
          "indexed": false,
          "name": "removedNode",
          "type": "address"
        }
      ],
      "name": "RemovedMax",
      "type": "event"
    },
    {
      "anonymous": false,
      "inputs": [
        {
          "indexed": false,
          "name": "user",
          "type": "address"
        },
        {
          "indexed": false,
          "name": "node",
          "type": "address"
        },
        {
          "indexed": false,
          "name": "verifierHash",
          "type": "bytes32"
        }
      ],
      "name": "AddedVerifierHash",
      "type": "event"
    },
    {
      "anonymous": false,
      "inputs": [
        {
          "indexed": false,
          "name": "maxVerifierHash",
          "type": "bytes32"
        }
      ],
      "name": "OLD_MAX",
      "type": "event"
    },
    {
      "anonymous": false,
      "inputs": [
        {
          "indexed": false,
          "name": "maxVerifierHash",
          "type": "bytes32"
        }
      ],
      "name": "NEW_MAX",
      "type": "event"
    },
    {
      "anonymous": false,
      "inputs": [
        {
          "indexed": true,
          "name": "previousOwner",
          "type": "address"
        },
        {
          "indexed": true,
          "name": "newOwner",
          "type": "address"
        }
      ],
      "name": "OwnershipTransferred",
      "type": "event"
    },
    {
      "constant": false,
      "inputs": [
        {
          "name": "_poolAddress",
          "type": "address"
        }
      ],
      "name": "registerJuriStakingPool",
      "outputs": [],
      "payable": false,
      "stateMutability": "nonpayable",
      "type": "function"
    },
    {
      "constant": false,
      "inputs": [
        {
          "name": "_poolAddress",
          "type": "address"
        },
        {
          "name": "_removalIndex",
          "type": "uint256"
        }
      ],
      "name": "removeJuriStakingPool",
      "outputs": [],
      "payable": false,
      "stateMutability": "nonpayable",
      "type": "function"
    },
    {
      "constant": false,
      "inputs": [],
      "name": "debugIncreaseRoundIndex",
      "outputs": [],
      "payable": false,
      "stateMutability": "nonpayable",
      "type": "function"
    },
    {
      "constant": false,
      "inputs": [],
      "name": "moveToNextStage",
      "outputs": [],
      "payable": false,
      "stateMutability": "nonpayable",
      "type": "function"
    },
    {
      "constant": false,
      "inputs": [],
      "name": "moveToUserAddingHeartRateDataStage",
      "outputs": [],
      "payable": false,
      "stateMutability": "nonpayable",
      "type": "function"
    },
    {
      "constant": true,
      "inputs": [],
      "name": "debugMoveToNextRound",
      "outputs": [
        {
          "name": "",
          "type": "bytes"
        }
      ],
      "payable": false,
      "stateMutability": "view",
      "type": "function"
    },
    {
      "constant": false,
      "inputs": [],
      "name": "moveToNextRound",
      "outputs": [],
      "payable": false,
      "stateMutability": "nonpayable",
      "type": "function"
    },
    {
      "constant": false,
      "inputs": [],
      "name": "moveToDissentPeriod",
      "outputs": [],
      "payable": false,
      "stateMutability": "nonpayable",
      "type": "function"
    },
    {
      "constant": false,
      "inputs": [],
      "name": "moveToSlashingPeriod",
      "outputs": [],
      "payable": false,
      "stateMutability": "nonpayable",
      "type": "function"
    },
    {
      "constant": false,
      "inputs": [],
      "name": "moveFromDissentToNextPeriod",
      "outputs": [],
      "payable": false,
      "stateMutability": "nonpayable",
      "type": "function"
    },
    {
      "constant": false,
      "inputs": [
        {
          "name": "_userWorkoutSignature",
          "type": "bytes32"
        },
        {
          "name": "_heartRateDataStoragePath",
          "type": "string"
        }
      ],
      "name": "addHeartRateDateForPoolUser",
      "outputs": [],
      "payable": false,
      "stateMutability": "nonpayable",
      "type": "function"
    },
    {
      "constant": false,
      "inputs": [
        {
          "name": "_users",
          "type": "address[]"
        },
        {
          "name": "_wasCompliantDataCommitments",
          "type": "bytes32[]"
        },
        {
          "name": "_proofIndices",
          "type": "uint256[]"
        }
      ],
      "name": "addWasCompliantDataCommitmentsForUsers",
      "outputs": [],
      "payable": false,
      "stateMutability": "nonpayable",
      "type": "function"
    },
    {
      "constant": false,
      "inputs": [
        {
          "name": "_users",
          "type": "address[]"
        },
        {
          "name": "_wasCompliantDataCommitments",
          "type": "bytes32[]"
        }
      ],
      "name": "addDissentWasCompliantDataCommitmentsForUsers",
      "outputs": [],
      "payable": false,
      "stateMutability": "nonpayable",
      "type": "function"
    },
    {
      "constant": false,
      "inputs": [
        {
          "name": "_users",
          "type": "address[]"
        },
        {
          "name": "_wasCompliantData",
          "type": "bool[]"
        },
        {
          "name": "_randomNonces",
          "type": "bytes32[]"
        }
      ],
      "name": "addWasCompliantDataForUsers",
      "outputs": [],
      "payable": false,
      "stateMutability": "nonpayable",
      "type": "function"
    },
    {
      "constant": false,
      "inputs": [
        {
          "name": "_users",
          "type": "address[]"
        },
        {
          "name": "_wasCompliantData",
          "type": "bool[]"
        },
        {
          "name": "_randomNonces",
          "type": "bytes32[]"
        }
      ],
      "name": "addDissentWasCompliantDataForUsers",
      "outputs": [],
      "payable": false,
      "stateMutability": "nonpayable",
      "type": "function"
    },
    {
      "constant": false,
      "inputs": [
        {
          "name": "_users",
          "type": "address[]"
        }
      ],
      "name": "dissentToAcceptedAnswers",
      "outputs": [],
      "payable": false,
      "stateMutability": "nonpayable",
      "type": "function"
    },
    {
      "constant": false,
      "inputs": [
        {
          "name": "_roundIndex",
          "type": "uint256"
        }
      ],
      "name": "retrieveRoundJuriFees",
      "outputs": [],
      "payable": false,
      "stateMutability": "nonpayable",
      "type": "function"
    },
    {
      "constant": false,
      "inputs": [
        {
          "name": "_roundIndex",
          "type": "uint256"
        },
        {
          "name": "_juriFeesTokenAmount",
          "type": "uint256"
        }
      ],
      "name": "handleJuriFees",
      "outputs": [],
      "payable": false,
      "stateMutability": "nonpayable",
      "type": "function"
    },
    {
      "constant": true,
      "inputs": [
        {
          "name": "_roundIndex",
          "type": "uint256"
        },
        {
          "name": "_user",
          "type": "address"
        }
      ],
      "name": "getUserWorkAssignmentHashes",
      "outputs": [
        {
          "name": "",
          "type": "uint256[]"
        }
      ],
      "payable": false,
      "stateMutability": "view",
      "type": "function"
    },
    {
      "constant": true,
      "inputs": [
        {
          "name": "_roundIndex",
          "type": "uint256"
        },
        {
          "name": "_user",
          "type": "address"
        }
      ],
      "name": "getDissented",
      "outputs": [
        {
          "name": "",
          "type": "bool"
        }
      ],
      "payable": false,
      "stateMutability": "view",
      "type": "function"
    },
    {
      "constant": true,
      "inputs": [
        {
          "name": "_roundIndex",
          "type": "uint256"
        },
        {
          "name": "_user",
          "type": "address"
        }
      ],
      "name": "getHeartRateDataStoragePath",
      "outputs": [
        {
          "name": "",
          "type": "string"
        }
      ],
      "payable": false,
      "stateMutability": "view",
      "type": "function"
    },
    {
      "constant": true,
      "inputs": [
        {
          "name": "_roundIndex",
          "type": "uint256"
        },
        {
          "name": "_user",
          "type": "address"
        }
      ],
      "name": "getComplianceDataBeforeDissent",
      "outputs": [
        {
          "name": "",
          "type": "int256"
        }
      ],
      "payable": false,
      "stateMutability": "view",
      "type": "function"
    },
    {
      "constant": true,
      "inputs": [
        {
          "name": "_roundIndex",
          "type": "uint256"
        },
        {
          "name": "_node",
          "type": "address"
        },
        {
          "name": "_user",
          "type": "address"
        }
      ],
      "name": "getHasRevealed",
      "outputs": [
        {
          "name": "",
          "type": "bool"
        }
      ],
      "payable": false,
      "stateMutability": "view",
      "type": "function"
    },
    {
      "constant": true,
      "inputs": [
        {
          "name": "_roundIndex",
          "type": "uint256"
        },
        {
          "name": "_node",
          "type": "address"
        }
      ],
      "name": "getNodeActivityCount",
      "outputs": [
        {
          "name": "",
          "type": "uint256"
        }
      ],
      "payable": false,
      "stateMutability": "view",
      "type": "function"
    },
    {
      "constant": true,
      "inputs": [
        {
          "name": "_roundIndex",
          "type": "uint256"
        }
      ],
      "name": "getTotalActivityCount",
      "outputs": [
        {
          "name": "",
          "type": "uint256"
        }
      ],
      "payable": false,
      "stateMutability": "view",
      "type": "function"
    },
    {
      "constant": true,
      "inputs": [
        {
          "name": "_roundIndex",
          "type": "uint256"
        },
        {
          "name": "_node",
          "type": "address"
        },
        {
          "name": "_user",
          "type": "address"
        }
      ],
      "name": "getUserComplianceDataCommitment",
      "outputs": [
        {
          "name": "",
          "type": "bytes32"
        }
      ],
      "payable": false,
      "stateMutability": "view",
      "type": "function"
    },
    {
      "constant": true,
      "inputs": [
        {
          "name": "_roundIndex",
          "type": "uint256"
        },
        {
          "name": "_node",
          "type": "address"
        },
        {
          "name": "_user",
          "type": "address"
        }
      ],
      "name": "getGivenNodeResult",
      "outputs": [
        {
          "name": "",
          "type": "bool"
        }
      ],
      "payable": false,
      "stateMutability": "view",
      "type": "function"
    },
    {
      "constant": true,
      "inputs": [
        {
          "name": "_roundIndex",
          "type": "uint256"
        },
        {
          "name": "_node",
          "type": "address"
        },
        {
          "name": "_user",
          "type": "address"
        }
      ],
      "name": "getWasAssignedToUser",
      "outputs": [
        {
          "name": "",
          "type": "bool"
        }
      ],
      "payable": false,
      "stateMutability": "view",
      "type": "function"
    },
    {
      "constant": true,
      "inputs": [
        {
          "name": "_roundIndex",
          "type": "uint256"
        },
        {
          "name": "_node",
          "type": "address"
        },
        {
          "name": "_user",
          "type": "address"
        }
      ],
      "name": "getHasDissented",
      "outputs": [
        {
          "name": "",
          "type": "bool"
        }
      ],
      "payable": false,
      "stateMutability": "view",
      "type": "function"
    },
    {
      "constant": true,
      "inputs": [
        {
          "name": "_roundIndex",
          "type": "uint256"
        },
        {
          "name": "_user",
          "type": "address"
        }
      ],
      "name": "getUserComplianceData",
      "outputs": [
        {
          "name": "",
          "type": "int256"
        }
      ],
      "payable": false,
      "stateMutability": "view",
      "type": "function"
    },
    {
      "constant": true,
      "inputs": [
        {
          "name": "_roundIndex",
          "type": "uint256"
        },
        {
          "name": "_user",
          "type": "address"
        }
      ],
      "name": "getUserWorkoutSignature",
      "outputs": [
        {
          "name": "",
          "type": "bytes32"
        }
      ],
      "payable": false,
      "stateMutability": "view",
      "type": "function"
    },
    {
      "constant": true,
      "inputs": [],
      "name": "getRegisteredJuriStakingPools",
      "outputs": [
        {
          "name": "",
          "type": "address[]"
        }
      ],
      "payable": false,
      "stateMutability": "view",
      "type": "function"
    },
    {
      "constant": true,
      "inputs": [],
      "name": "getDissentedUsers",
      "outputs": [
        {
          "name": "",
          "type": "address[]"
        }
      ],
      "payable": false,
      "stateMutability": "view",
      "type": "function"
    },
    {
      "constant": true,
      "inputs": [
        {
          "name": "_user",
          "type": "address"
        }
      ],
      "name": "getCurrentHighestHashForUser",
      "outputs": [
        {
          "name": "",
          "type": "uint256"
        }
      ],
      "payable": false,
      "stateMutability": "view",
      "type": "function"
    },
    {
      "constant": true,
      "inputs": [
        {
          "name": "_isFirstAddition",
          "type": "bool"
        },
        {
          "name": "_totalActivity",
          "type": "uint32"
        },
        {
          "name": "_totalBonded",
          "type": "uint256"
        },
        {
          "name": "_nodes",
          "type": "address[]"
        },
        {
          "name": "_nodeActivities",
          "type": "uint32[]"
        }
      ],
      "name": "_encodeIMABytes",
      "outputs": [
        {
          "name": "",
          "type": "bytes"
        }
      ],
      "payable": false,
      "stateMutability": "pure",
      "type": "function"
    }
  ],
  "bytecode": "0x60806040523480156200001157600080fd5b506040516200879b3803806200879b83398181016040526101408110156200003857600080fd5b8151602083015160408401516060850151608086015160a087015160c088015160e089018051979996989597949693959294919392830192916401000000008111156200008457600080fd5b820160208101848111156200009857600080fd5b8151856020820283011164010000000082111715620000b657600080fd5b50509291906020018051640100000000811115620000d357600080fd5b82016020810184811115620000e757600080fd5b81518560208202830111640100000000821117156200010557600080fd5b5050602090910151600080546001600160a01b03191633178082556040519395509193506001600160a01b0391909116917f8be0079c531659141344cd1fd0a4f28419497f9722a3daafe3b4186f6b6457e0908290a3826000815181106200016957fe5b6020026020010151600f60008060068111156200018257fe5b81526020019081526020016000208190555082600181518110620001a257fe5b6020026020010151600f600060016006811115620001bc57fe5b81526020019081526020016000208190555082600281518110620001dc57fe5b6020026020010151600f600060026006811115620001f657fe5b815260200190815260200160002081905550826003815181106200021657fe5b6020026020010151600f6000600360068111156200023057fe5b815260200190815260200160002081905550826004815181106200025057fe5b6020026020010151600f6000600460068111156200026a57fe5b815260200190815260200160002081905550826005815181106200028a57fe5b6020026020010151600f600060056006811115620002a457fe5b81526020019081526020016000208190555082600681518110620002c457fe5b6020026020010151600f6000600680811115620002dd57fe5b81526020019081526020016000208190555030898583856000815181106200030157fe5b6020026020010151866001815181106200031757fe5b6020026020010151876002815181106200032d57fe5b6020026020010151886003815181106200034357fe5b6020026020010151604051620003599062000544565b6001600160a01b0398891681529688166020880152949096166040808701919091526060860193909352608085019190915260a084015260c083019390935260e082015290519081900361010001906000f080158015620003be573d6000803e3d6000fd5b50600160006101000a8154816001600160a01b0302191690836001600160a01b03160217905550600160106000600160009054906101000a90046001600160a01b03166001600160a01b03166001600160a01b0316815260200190815260200160002060006101000a81548160ff02191690831515021790555086600360006101000a8154816001600160a01b0302191690836001600160a01b0316021790555085600460006101000a8154816001600160a01b0302191690836001600160a01b0316021790555084600560006101000a8154816001600160a01b0302191690836001600160a01b0316021790555087600660006101000a8154816001600160a01b0302191690836001600160a01b0316021790555089600260006101000a8154816001600160a01b0302191690836001600160a01b031602179055506000600660146101000a81548160ff021916908360068111156200051b57fe5b0217905550506000600755505042600881905560095550506001600a5550620005529350505050565b613375806200542683390190565b614ec480620005626000396000f3fe608060405234801561001057600080fd5b50600436106103785760003560e01c80638b2d5d24116101d3578063dcdd653a11610104578063e8816023116100a2578063eff4b6d91161007c578063eff4b6d91461114d578063f2268c0614611181578063f2fde38b146111ad578063f4a47edd146111d357610378565b8063e881602314610f56578063ecd8b0ff14610f82578063ed860dc514610fa857610378565b8063dfe42ee1116100de578063dfe42ee114610f12578063e57797d514610f1a578063e6d50d3714610f22578063e754671414610f2a57610378565b8063dcdd653a14610ece578063dd8a5f3f14610ed6578063dfe005fe14610ede57610378565b80639bfe963311610171578063b8793da91161014b578063b8793da914610e6d578063ca2f484514610e75578063ca35c13414610e7d578063cc200a0814610eb157610378565b80639bfe963314610c62578063b1055e8814610c8e578063b52765ac14610e4157610378565b80638f32d59b116101ad5780638f32d59b14610c1657806394a484d114610c1e57806396623d1914610c265780639845755914610c5a57610378565b80638b2d5d2414610bfe5780638da5cb5b14610c065780638e42332514610c0e57610378565b806343e23bf2116102ad578063658ed1741161024b57806371e5dda91161022557806371e5dda914610b8857806378e9792514610ba557806379c6966f14610bad5780637f1daea214610bca57610378565b8063658ed17414610ac25780636e51b2d414610adf578063715018a614610b8057610378565b806360239d371161028757806360239d3714610a6057806364147c4914610a68578063648036ae14610a8e57806364a5511f14610a9657610378565b806343e23bf21461090957806359ef88d414610a2c5780635bf5d54c14610a3457610378565b806326b158cd1161031a57806336281b00116102f457806336281b001461072257806339ba0e311461072a5780633f94ce541461074757806343c70cee1461076457610378565b806326b158cd146105335780633241d9ea1461055757806334b90e0a146106fc57610378565b80630a969906116103565780630a9699061461047057806310f407361461047857806312198604146104d057806319e00d68146104f357610378565b8063023628051461037d57806305732b70146103bb57806307a35f37146103c5575b600080fd5b6103a96004803603604081101561039357600080fd5b50803590602001356001600160a01b03166111ff565b60408051918252519081900360200190f35b6103c361122c565b005b6103c3600480360360408110156103db57600080fd5b81359190810190604081016020820135600160201b8111156103fc57600080fd5b82018360208201111561040e57600080fd5b803590602001918460018302840111600160201b8311171561042f57600080fd5b91908080601f016020809104026020016040519081016040528093929190818152602001838380828437600092019190915250929550611344945050505050565b6103c36115da565b61048061174a565b60408051602080825283518183015283519192839290830191858101910280838360005b838110156104bc5781810151838201526020016104a4565b505050509050019250505060405180910390f35b6103c3600480360360408110156104e657600080fd5b50803590602001356117ad565b61051f6004803603604081101561050957600080fd5b50803590602001356001600160a01b03166118a3565b604080519115158252519081900360200190f35b61053b6118d1565b604080516001600160a01b039092168252519081900360200190f35b6103c36004803603606081101561056d57600080fd5b810190602081018135600160201b81111561058757600080fd5b82018360208201111561059957600080fd5b803590602001918460208302840111600160201b831117156105ba57600080fd5b9190808060200260200160405190810160405280939291908181526020018383602002808284376000920191909152509295949360208101935035915050600160201b81111561060957600080fd5b82018360208201111561061b57600080fd5b803590602001918460208302840111600160201b8311171561063c57600080fd5b9190808060200260200160405190810160405280939291908181526020018383602002808284376000920191909152509295949360208101935035915050600160201b81111561068b57600080fd5b82018360208201111561069d57600080fd5b803590602001918460208302840111600160201b831117156106be57600080fd5b9190808060200260200160405190810160405280939291908181526020018383602002808284376000920191909152509295506118e0945050505050565b6103c36004803603602081101561071257600080fd5b50356001600160a01b0316611a05565b61053b611aae565b6103a96004803603602081101561074057600080fd5b5035611abd565b6103a96004803603602081101561075d57600080fd5b5035611acf565b6103c36004803603606081101561077a57600080fd5b810190602081018135600160201b81111561079457600080fd5b8201836020820111156107a657600080fd5b803590602001918460208302840111600160201b831117156107c757600080fd5b9190808060200260200160405190810160405280939291908181526020018383602002808284376000920191909152509295949360208101935035915050600160201b81111561081657600080fd5b82018360208201111561082857600080fd5b803590602001918460208302840111600160201b8311171561084957600080fd5b9190808060200260200160405190810160405280939291908181526020018383602002808284376000920191909152509295949360208101935035915050600160201b81111561089857600080fd5b8201836020820111156108aa57600080fd5b803590602001918460208302840111600160201b831117156108cb57600080fd5b919080806020026020016040519081016040528093929190818152602001838360200280828437600092019190915250929550611aea945050505050565b6103c36004803603604081101561091f57600080fd5b810190602081018135600160201b81111561093957600080fd5b82018360208201111561094b57600080fd5b803590602001918460208302840111600160201b8311171561096c57600080fd5b9190808060200260200160405190810160405280939291908181526020018383602002808284376000920191909152509295949360208101935035915050600160201b8111156109bb57600080fd5b8201836020820111156109cd57600080fd5b803590602001918460208302840111600160201b831117156109ee57600080fd5b919080806020026020016040519081016040528093929190818152602001838360200280828437600092019190915250929550611c09945050505050565b610480611d36565b610a3c611d96565b60405180826006811115610a4c57fe5b60ff16815260200191505060405180910390f35b6103c3611da6565b6103a960048036036020811015610a7e57600080fd5b50356001600160a01b0316611dae565b6103a9611ee8565b61048060048036036040811015610aac57600080fd5b50803590602001356001600160a01b0316611eee565b6103c360048036036020811015610ad857600080fd5b5035611ff1565b6103c360048036036020811015610af557600080fd5b810190602081018135600160201b811115610b0f57600080fd5b820183602082011115610b2157600080fd5b803590602001918460208302840111600160201b83111715610b4257600080fd5b91908080602002602001604051908101604052809392919081815260200183836020028082843760009201919091525092955061228b945050505050565b6103c3612696565b6103a960048036036020811015610b9e57600080fd5b5035612723565b6103a9612735565b61053b60048036036020811015610bc357600080fd5b503561273b565b61051f60048036036060811015610be057600080fd5b508035906001600160a01b0360208201358116916040013516612762565b61053b6127a9565b61053b6127b8565b6103a96127c7565b61051f6127cd565b6103a96127de565b6103a960048036036060811015610c3c57600080fd5b508035906001600160a01b03602082013581169160400135166127e4565b61053b612817565b6103c360048036036040811015610c7857600080fd5b506001600160a01b038135169060200135612826565b610dcc600480360360a0811015610ca457600080fd5b813515159163ffffffff6020820135169160408201359190810190608081016060820135600160201b811115610cd957600080fd5b820183602082011115610ceb57600080fd5b803590602001918460208302840111600160201b83111715610d0c57600080fd5b9190808060200260200160405190810160405280939291908181526020018383602002808284376000920191909152509295949360208101935035915050600160201b811115610d5b57600080fd5b820183602082011115610d6d57600080fd5b803590602001918460208302840111600160201b83111715610d8e57600080fd5b9190808060200260200160405190810160405280939291908181526020018383602002808284376000920191909152509295506129b5945050505050565b6040805160208082528351818301528351919283929083019185019080838360005b83811015610e06578181015183820152602001610dee565b50505050905090810190601f168015610e335780820380516001836020036101000a031916815260200191505b509250505060405180910390f35b6103a960048036036040811015610e5757600080fd5b50803590602001356001600160a01b0316612bc6565b6103c3612be3565b610dcc6131e7565b61051f60048036036060811015610e9357600080fd5b508035906001600160a01b03602082013581169160400135166134ff565b61053b60048036036020811015610ec757600080fd5b5035613541565b6103c361354e565b61053b6136ae565b61051f60048036036060811015610ef457600080fd5b508035906001600160a01b03602082013581169160400135166136bd565b6103c36136f9565b6103c3613701565b61053b613722565b6103a960048036036040811015610f4057600080fd5b50803590602001356001600160a01b0316613731565b6103a960048036036040811015610f6c57600080fd5b50803590602001356001600160a01b03166137ab565b61051f60048036036020811015610f9857600080fd5b50356001600160a01b03166137e5565b6103c360048036036060811015610fbe57600080fd5b810190602081018135600160201b811115610fd857600080fd5b820183602082011115610fea57600080fd5b803590602001918460208302840111600160201b8311171561100b57600080fd5b9190808060200260200160405190810160405280939291908181526020018383602002808284376000920191909152509295949360208101935035915050600160201b81111561105a57600080fd5b82018360208201111561106c57600080fd5b803590602001918460208302840111600160201b8311171561108d57600080fd5b9190808060200260200160405190810160405280939291908181526020018383602002808284376000920191909152509295949360208101935035915050600160201b8111156110dc57600080fd5b8201836020820111156110ee57600080fd5b803590602001918460208302840111600160201b8311171561110f57600080fd5b9190808060200260200160405190810160405280939291908181526020018383602002808284376000920191909152509295506137fa945050505050565b61051f6004803603606081101561116357600080fd5b508035906001600160a01b03602082013581169160400135166138be565b6103a96004803603604081101561119757600080fd5b50803590602001356001600160a01b03166138ff565b6103c3600480360360208110156111c357600080fd5b50356001600160a01b031661392a565b610dcc600480360360408110156111e957600080fd5b50803590602001356001600160a01b0316613979565b60008281526011602090815260408083206001600160a01b03851684529091529020600301545b92915050565b6003805b60068054600160a01b900460ff169081111561124857fe5b146112845760405162461bcd60e51b8152600401808060200182810382526027815260200180614ce76027913960400191505060405180910390fd5b6000600f6000600660149054906101000a900460ff1660068111156112a557fe5b815260208101919091526040016000205490506006808054600160a01b900460ff16908111156112d157fe5b141561131f5760006112ee60085442613a2f90919063ffffffff16565b9050600061130783600754613a8190919063ffffffff16565b905080821061131857611318613ae4565b5050611340565b600954611332908263ffffffff613b8e16565b421061134057611340613ae4565b5050565b6000600f6000600660149054906101000a900460ff16600681111561136557fe5b815260208101919091526040016000205490506006808054600160a01b900460ff169081111561139157fe5b14156113df5760006113ae60085442613a2f90919063ffffffff16565b905060006113c783600754613a8190919063ffffffff16565b90508082106113d8576113d8613ae4565b5050611400565b6009546113f2908263ffffffff613b8e16565b421061140057611400613ae4565b60008060068054600160a01b900460ff169081111561141b57fe5b146114575760405162461bcd60e51b8152600401808060200182810382526027815260200180614ce76027913960400191505060405180910390fd5b600554604051630917a7dd60e11b81526020600482018181528651602484015286516000946001600160a01b03169363122f4fba938993928392604401918501908083838b5b838110156114b557818101518382015260200161149d565b50505050905090810190601f1680156114e25780820380516001836020036101000a031916815260200191505b5092505050602060405180830381600087803b15801561150157600080fd5b505af1158015611515573d6000803e3d6000fd5b505050506040513d602081101561152b57600080fd5b50519050600260ff821614611587576040805162461bcd60e51b815260206004820152601b60248201527f496e76616c69642073746f726167652070617468207061737365640000000000604482015290519081900360640190fd5b600780546000908152601160208181526040808420338086529083528185206003018b905594548452918152818320938352928352902085516115d292600490920191870190614a20565b505050505050565b6115e26127cd565b61161d5760405162461bcd60e51b8152600401808060200182810382526021815260200180614cc66021913960400191505060405180910390fd5b60078054600190810191829055546040805163044c170760e41b81526004810193909352516001600160a01b03909116916344c1707091602480830192600092919082900301818387803b15801561167457600080fd5b505af1158015611688573d6000803e3d6000fd5b505060408051600081526020810191829052516116a99350600c9250614a9a565b5060015460075460408051636abb197560e11b8152600481019290925251611738926003926001600160a01b039091169163d57632ea91602480820192602092909190829003018186803b15801561170057600080fd5b505afa158015611714573d6000803e3d6000fd5b505050506040513d602081101561172a57600080fd5b50519063ffffffff613bdc16565b600a556006805460ff60a01b19169055565b6060600c8054806020026020016040519081016040528092919081815260200182805480156117a257602002820191906000526020600020905b81546001600160a01b03168152600190910190602001808311611784575b505050505090505b90565b600254604080516323b872dd60e01b81523360048201523060248201526044810184905290516001600160a01b03909216916323b872dd916064808201926020929091908290030181600087803b15801561180757600080fd5b505af115801561181b573d6000803e3d6000fd5b505050506040513d602081101561183157600080fd5b505161186e5760405162461bcd60e51b8152600401808060200182810382526039815260200180614e0a6039913960400191505060405180910390fd5b6000828152600e602052604090205461188d908263ffffffff613b8e16565b6000928352600e60205260409092209190915550565b60009182526011602090815260408084206001600160a01b0393909316845291905290206005015460ff1690565b6005546001600160a01b031681565b6000600f6000600660149054906101000a900460ff16600681111561190157fe5b815260208101919091526040016000205490506006808054600160a01b900460ff169081111561192d57fe5b141561197b57600061194a60085442613a2f90919063ffffffff16565b9050600061196383600754613a8190919063ffffffff16565b905080821061197457611974613ae4565b505061199c565b60095461198e908263ffffffff613b8e16565b421061199c5761199c613ae4565b60018060068054600160a01b900460ff16908111156119b757fe5b146119f35760405162461bcd60e51b8152600401808060200182810382526027815260200180614ce76027913960400191505060405180910390fd5b6119fe858585613c46565b5050505050565b611a0d6127cd565b611a485760405162461bcd60e51b8152600401808060200182810382526021815260200180614cc66021913960400191505060405180910390fd5b6001600160a01b03166000818152601060205260408120805460ff19166001908117909155600b805491820181559091527f0175b7a638427703f0dbe7bb9bbf987a2551717b34e79f33b5b1008d1fa01db90180546001600160a01b0319169091179055565b6003546001600160a01b031681565b600e6020526000908152604090205481565b60009081526011602052604090206003015463ffffffff1690565b6000600f6000600660149054906101000a900460ff166006811115611b0b57fe5b815260208101919091526040016000205490506006808054600160a01b900460ff1690811115611b3757fe5b1415611b85576000611b5460085442613a2f90919063ffffffff16565b90506000611b6d83600754613a8190919063ffffffff16565b9050808210611b7e57611b7e613ae4565b5050611ba6565b600954611b98908263ffffffff613b8e16565b4210611ba657611ba6613ae4565b6002805b60068054600160a01b900460ff1690811115611bc257fe5b14611bfe5760405162461bcd60e51b8152600401808060200182810382526027815260200180614ce76027913960400191505060405180910390fd5b6119fe858585613eec565b6000600f6000600660149054906101000a900460ff166006811115611c2a57fe5b815260208101919091526040016000205490506006808054600160a01b900460ff1690811115611c5657fe5b1415611ca4576000611c7360085442613a2f90919063ffffffff16565b90506000611c8c83600754613a8190919063ffffffff16565b9050808210611c9d57611c9d613ae4565b5050611cc5565b600954611cb7908263ffffffff613b8e16565b4210611cc557611cc5613ae4565b60048060068054600160a01b900460ff1690811115611ce057fe5b14611d1c5760405162461bcd60e51b8152600401808060200182810382526027815260200180614ce76027913960400191505060405180910390fd5b6040805160008152602081019091526119fe858583613c46565b6060600b8054806020026020016040519081016040528092919081815260200182805480156117a2576020028201919060005260206000209081546001600160a01b03168152600190910190602001808311611784575050505050905090565b600654600160a01b900460ff1681565b600280611230565b600080611dba8361422b565b600001905060008173__MaxHeapLibrary________________________634959698990916040518263ffffffff1660e01b81526004018082815260200191505060206040518083038186803b158015611e1257600080fd5b505af4158015611e26573d6000803e3d6000fd5b505050506040513d6020811015611e3c57600080fd5b50519050600081611e4e576000611edf565b8273__MaxHeapLibrary________________________63b9f7ccc990916040518263ffffffff1660e01b81526004018082815260200191505060206040518083038186803b158015611e9f57600080fd5b505af4158015611eb3573d6000803e3d6000fd5b505050506040513d601f19601f820116820180604052506020811015611ed857600080fd5b5051600101545b95945050505050565b60075481565b60008281526011602090815260408083206001600160a01b0385168452909152808220815163203df14760e01b81526004810191909152905160609273__MaxHeapLibrary________________________9263203df1479260248083019392829003018186803b158015611f6157600080fd5b505af4158015611f75573d6000803e3d6000fd5b505050506040513d6000823e601f3d908101601f191682016040526020811015611f9e57600080fd5b810190808051600160201b811115611fb557600080fd5b82016020810184811115611fc857600080fd5b81518560208202830111600160201b82111715611fe457600080fd5b5090979650505050505050565b33611ffa614afb565b5060008281526011602090815260408083206001600160a01b0385168452600190810183528184208251808401845291015460ff81161515825263ffffffff6101009091048116828501819052878652600e855283862054600d8652848720338852909552928520549194929392906120779084908490613a2f16565b905060075487106120cf576040805162461bcd60e51b815260206004820152601760248201527f526f756e64206e6f74207965742066696e697368656421000000000000000000604482015290519081900360640190fd5b6000841161210e5760405162461bcd60e51b8152600401808060200182810382526024815260200180614e436024913960400191505060405180910390fd5b60008111612163576040805162461bcd60e51b815260206004820152601e60248201527f4e6f7468696e6720617661696c61626c6520746f207769746864726177210000604482015290519081900360640190fd5b600087815260116020526040812060030154620f42409163ffffffff918216916121a3908390612197908a908790613a8116565b9063ffffffff613bdc16565b905060006121bb84612197878563ffffffff613a8116565b60008c8152600d6020908152604080832033845282528083208b90558e8352601182528083206001600160a01b038f8116808652600192830185528386208301805460ff1916909317909255600254835163a9059cbb60e01b81526004810193909352602483018790529251959650919091169363a9059cbb93604480840194938390030190829087803b15801561225257600080fd5b505af1158015612266573d6000803e3d6000fd5b505050506040513d602081101561227c57600080fd5b50505050505050505050505050565b6000600f6000600660149054906101000a900460ff1660068111156122ac57fe5b815260208101919091526040016000205490506006808054600160a01b900460ff16908111156122d857fe5b14156123265760006122f560085442613a2f90919063ffffffff16565b9050600061230e83600754613a8190919063ffffffff16565b905080821061231f5761231f613ae4565b5050612347565b600954612339908263ffffffff613b8e16565b421061234757612347613ae4565b60038060068054600160a01b900460ff169081111561236257fe5b1461239e5760405162461bcd60e51b8152600401808060200182810382526027815260200180614ce76027913960400191505060405180910390fd5b825133906000906123f6576040805162461bcd60e51b815260206004820152601c60248201527f55736572732061727261792063616e6e6f7420626520656d7074792100000000604482015290519081900360640190fd5b60005b855181101561249157600086828151811061241057fe5b602002602001015190506124248482614254565b600101546301000000900460ff1661246d5760405162461bcd60e51b8152600401808060200182810382526028815260200180614ba36028913960400191505060405180910390fd5b6124768161422b565b6005015460ff16612488576001909201915b506001016123f9565b50600081116124e7576040805162461bcd60e51b815260206004820152601d60248201527f5573657273207765726520616c72656164792064697373656e74656421000000604482015290519081900360640190fd5b606081604051908082528060200260200182016040528015612513578160200160208202803883390190505b5090506000805b87518110156125915761253f88828151811061253257fe5b602002602001015161422b565b6005015460ff166125895787818151811061255657fe5b602002602001015183838151811061256a57fe5b6001600160a01b03909216602092830291909101909101526001909101905b60010161251a565b5060005b825181101561268c5760008382815181106125ac57fe5b602002602001015190506125bf8161422b565b600201546007805460009081526011602081815260408084206001600160a01b03978816808652908352818520600190810197909755855485528383528185208186528352818520600501805460ff19168817905594548452918152818320958b16835294840185528082208383529094529283208201805462ff0000191662010000179055600c8054808401825593527fdf6966c971051c3d54ec59162606531493a51404a002842f56009d7e5cf4a8c790920180546001600160a01b03191690921790915501612595565b5050505050505050565b61269e6127cd565b6126d95760405162461bcd60e51b8152600401808060200182810382526021815260200180614cc66021913960400191505060405180910390fd5b600080546040516001600160a01b03909116907f8be0079c531659141344cd1fd0a4f28419497f9722a3daafe3b4186f6b6457e0908390a3600080546001600160a01b0319169055565b600f6020526000908152604090205481565b60085481565b600c818154811061274857fe5b6000918252602090912001546001600160a01b0316905081565b60008381526011602090815260408083206001600160a01b03868116855260019182018452828520908616855290925290912001546301000000900460ff165b9392505050565b6004546001600160a01b031681565b6000546001600160a01b031690565b60095481565b6000546001600160a01b0316331490565b600a5481565b60009283526011602090815260408085206001600160a01b03948516865260010182528085209290931684525290205490565b6001546001600160a01b031681565b61282e6127cd565b6128695760405162461bcd60e51b8152600401808060200182810382526021815260200180614cc66021913960400191505060405180910390fd5b600b546128a75760405162461bcd60e51b815260040180806020018281038252602c815260200180614d34602c913960400191505060405180910390fd5b816001600160a01b0316600b82815481106128be57fe5b6000918252602090912001546001600160a01b03161461290f5760405162461bcd60e51b8152600401808060200182810382526026815260200180614d0e6026913960400191505060405180910390fd5b6001600160a01b0382166000908152601060205260409020805460ff19169055600b805461294490600163ffffffff613a2f16565b8154811061294e57fe5b600091825260209091200154600b80546001600160a01b03909216918390811061297457fe5b600091825260209091200180546001600160a01b0319166001600160a01b0392909216919091179055600b8054906129b0906000198301614b12565b505050565b60606000866129c55760006129c8565b60015b84519091506025906018810260008a6129e25760016129e4565b835b820190506060816040519080825280601f01601f191660200182016040528015612a15576020820181803883390190505b509050602081018681538c15612a5157600181016005820160188e901c82538d60101c60018301538d60081c60028301538d60038301538c9052505b60008d612a615781600101612a65565b8682015b8b51909150601402810160005b8c51811015612b555760008d8281518110612a8957fe5b60200260200101519050600082601402850190508160981c81538160901c60018201538160881c60028201538160801c60038201538160781c60048201538160701c60058201538160681c60068201538160601c60078201538160581c60088201538160501c60098201538160481c600a8201538160401c600b8201538160381c600c8201538160301c600d8201538160281c600e8201538160201c600f8201538160181c60108201538160101c60118201538160081c60128201538160138201535050600101612a72565b5060005b8b51811015612bb25760008c8281518110612b7057fe5b602002602001015163ffffffff169050600082600402840190508160181c81538160101c60018201538160081c60028201538160038201535050600101612b59565b50929e9d5050505050505050505050505050565b600d60209081526000928352604080842090915290825290205481565b60068060068054600160a01b900460ff1690811115612bfe57fe5b14612c3a5760405162461bcd60e51b8152600401808060200182810382526027815260200180614ce76027913960400191505060405180910390fd5b6007546000908152601160209081526040808320600281015460039091015460015483516344d96e9560e01b81529351929563ffffffff9092169491936001600160a01b03909116926344d96e9592600480840193919291829003018186803b158015612ca657600080fd5b505afa158015612cba573d6000803e3d6000fd5b505050506040513d6020811015612cd057600080fd5b505160015460075460408051636abb197560e11b81526004810192909252519293506000926001600160a01b039092169163d57632ea91602480820192602092909190829003018186803b158015612d2757600080fd5b505afa158015612d3b573d6000803e3d6000fd5b505050506040513d6020811015612d5157600080fd5b50519050600060028211612d655781612d68565b60025b6001546040805163c070bd2b60e01b8152600481018990526002602482015290519293506060926001600160a01b039092169163c070bd2b91604480820192600092909190829003018186803b158015612dc157600080fd5b505afa158015612dd5573d6000803e3d6000fd5b505050506040513d6000823e601f3d908101601f191682016040526020811015612dfe57600080fd5b810190808051600160201b811115612e1557600080fd5b82016020810184811115612e2857600080fd5b81518560208202830111600160201b82111715612e4457600080fd5b50509291905050509050606082604051908082528060200260200182016040528015612e7a578160200160208202803883390190505b50905060005b83811015612ee157612ea4838281518110612e9757fe5b602002602001015161428b565b60010160019054906101000a900463ffffffff16828281518110612ec457fe5b63ffffffff90921660209283029190910190910152600101612e80565b5086156060612fa08280612ef6576000612f12565b60075460009081526011602052604090206003015463ffffffff165b84612f1e576000612f99565b600160009054906101000a90046001600160a01b03166001600160a01b03166344d96e956040518163ffffffff1660e01b815260040160206040518083038186803b158015612f6c57600080fd5b505afa158015612f80573d6000803e3d6000fd5b505050506040513d6020811015612f9657600080fd5b50515b87876129b5565b60035460048054600654604051631118b48f60e11b81526001600160a01b03928316602482018190526000604483018190529284166064830181905260a0958301958652600760a48401526652696e6b65627960c81b60c484015260e060848401908152885160e485015288519899509490961696632231691e969195939491938993909283929091610104019060208601908083838b5b83811015613050578181015183820152602001613038565b50505050905090810190601f16801561307d5780820380516001836020036101000a031916815260200191505b509650505050505050600060405180830381600087803b1580156130a057600080fd5b505af11580156130b4573d6000803e3d6000fd5b505050506130cb858a613b8e90919063ffffffff16565b600780546000908152601160205260408082206002908101949094559154815220015486116131db5760078054600190810191829055546040805163044c170760e41b81526004810193909352516001600160a01b03909116916344c1707091602480830192600092919082900301818387803b15801561314b57600080fd5b505af115801561315f573d6000803e3d6000fd5b505060408051600081526020810191829052516131809350600c9250614a9a565b5060015460075460408051636abb197560e11b81526004810192909252516131d7926003926001600160a01b039091169163d57632ea91602480820192602092909190829003018186803b15801561170057600080fd5b600a555b50505050505050505050565b606060068060068054600160a01b900460ff169081111561320457fe5b146132405760405162461bcd60e51b8152600401808060200182810382526027815260200180614ce76027913960400191505060405180910390fd5b6007546000908152601160209081526040808320600281015460039091015460015483516344d96e9560e01b81529351929563ffffffff9092169491936001600160a01b03909116926344d96e9592600480840193919291829003018186803b1580156132ac57600080fd5b505afa1580156132c0573d6000803e3d6000fd5b505050506040513d60208110156132d657600080fd5b505160015460075460408051636abb197560e11b81526004810192909252519293506000926001600160a01b039092169163d57632ea91602480820192602092909190829003018186803b15801561332d57600080fd5b505afa158015613341573d6000803e3d6000fd5b505050506040513d602081101561335757600080fd5b5051905060006002821161336b578161336e565b60025b6001546040805163c070bd2b60e01b8152600481018990526002602482015290519293506060926001600160a01b039092169163c070bd2b91604480820192600092909190829003018186803b1580156133c757600080fd5b505afa1580156133db573d6000803e3d6000fd5b505050506040513d6000823e601f3d908101601f19168201604052602081101561340457600080fd5b810190808051600160201b81111561341b57600080fd5b8201602081018481111561342e57600080fd5b81518560208202830111600160201b8211171561344a57600080fd5b50509291905050509050606082604051908082528060200260200182016040528015613480578160200160208202803883390190505b50905060005b838110156134da5761349d838281518110612e9757fe5b60010160019054906101000a900463ffffffff168282815181106134bd57fe5b63ffffffff90921660209283029190910190910152600101613486565b50861560606134ef8280612ef6576000612f12565b9a505050505050505050505b5090565b60009283526011602090815260408085206001600160a01b03948516865260019081018352818620939094168552919052909120015462010000900460ff1690565b600b818154811061274857fe5b6007600660149054906101000a900460ff16600681111561356b57fe5b6001018161357557fe5b06600681111561358157fe5b6006805460ff60a01b1916600160a01b838381111561359c57fe5b021790555042600955600060068054600160a01b900460ff16908111156135bf57fe5b14156136ac5760078054600190810191829055546040805163044c170760e41b81526004810193909352516001600160a01b03909116916344c1707091602480830192600092919082900301818387803b15801561361c57600080fd5b505af1158015613630573d6000803e3d6000fd5b505060408051600081526020810191829052516136519350600c9250614a9a565b5060015460075460408051636abb197560e11b81526004810192909252516136a8926003926001600160a01b039091169163d57632ea91602480820192602092909190829003018186803b15801561170057600080fd5b600a555b565b6006546001600160a01b031681565b60009283526011602090815260408085206001600160a01b03948516865260019081018352818620939094168552919052909120015460ff1690565b600580611230565b600680546000919060ff60a01b1916600160a01b835b021790555042600955565b6002546001600160a01b031681565b3360009081526010602052604081205460ff1661377f5760405162461bcd60e51b815260040180806020018281038252602b815260200180614c2c602b913960400191505060405180910390fd5b5060009182526011602090815260408084206001600160a01b0393909316845291905290206002015490565b60009182526011602090815260408084206001600160a01b0393909316845260019283019091529091200154610100900463ffffffff1690565b60106020526000908152604090205460ff1681565b6000600f6000600660149054906101000a900460ff16600681111561381b57fe5b815260208101919091526040016000205490506006808054600160a01b900460ff169081111561384757fe5b141561389557600061386460085442613a2f90919063ffffffff16565b9050600061387d83600754613a8190919063ffffffff16565b905080821061388e5761388e613ae4565b50506138b6565b6009546138a8908263ffffffff613b8e16565b42106138b6576138b6613ae4565b600580611baa565b60009283526011602090815260408085206001600160a01b039485168652600190810183528186209390941685529190529091200154610100900460ff1690565b60009182526011602090815260408084206001600160a01b0393909316845291905290206001015490565b6139326127cd565b61396d5760405162461bcd60e51b8152600401808060200182810382526021815260200180614cc66021913960400191505060405180910390fd5b613976816142b8565b50565b60008281526011602090815260408083206001600160a01b038516845282529182902060040180548351601f6002600019610100600186161502019093169290920491820184900484028101840190945280845260609392830182828015613a225780601f106139f757610100808354040283529160200191613a22565b820191906000526020600020905b815481529060010190602001808311613a0557829003601f168201915b5050505050905092915050565b600082821115613a7b576040805162461bcd60e51b81526020600482015260126024820152715361666553756220756e646572666c6f772160701b604482015290519081900360640190fd5b50900390565b600082613a9057506000611226565b82820282848281613a9d57fe5b04146127a2576040805162461bcd60e51b8152602060048201526011602482015270536166654d756c206f766572666c6f772160781b604482015290519081900360640190fd5b600360068054600160a01b900460ff1690811115613afe57fe5b1415613b3a57600c54613b12576006613b15565b60045b6006805460ff60a01b1916600160a01b8383811115613b3057fe5b0217905550613b88565b6007600660149054906101000a900460ff166006811115613b5757fe5b60010181613b6157fe5b066006811115613b6d57fe5b6006805460ff60a01b1916600160a01b838381111561371757fe5b42600955565b6000828201838110156127a2576040805162461bcd60e51b815260206004820152601160248201527053616665416464206f766572666c6f772160781b604482015290519081900360640190fd5b6000808211613c32576040805162461bcd60e51b815260206004820152601b60248201527f536166654469762063616e6e6f74206469766964652062792030210000000000604482015290519081900360640190fd5b6000828481613c3d57fe5b04949350505050565b81518351339114613c885760405162461bcd60e51b8152600401808060200182810382526036815260200180614c576036913960400191505060405180910390fd5b815184511480613caf5750600460068054600160a01b900460ff1690811115613cad57fe5b145b613cea5760405162461bcd60e51b8152600401808060200182810382526027815260200180614de36027913960400191505060405180910390fd5b6000805b8551811015613e73576000868281518110613d0557fe5b602002602001015190506000868381518110613d1d57fe5b60200260200101519050613d2f614b36565b613d398684614254565b6040805160a0810182528254815260019092015460ff80821615801560208601526101008304821615159385019390935262010000820481161515606085015263010000009091041615156080830152909150613dc75760405162461bcd60e51b8152600401808060200182810382526025815260200180614d606025913960400191505060405180910390fd5b613dd08361422b565b6005015460ff1680613e1e5750613dfb8387898781518110613dee57fe5b6020026020010151614367565b8015613e1e5750600160068054600160a01b900460ff1690811115613e1c57fe5b145b15613e68578051600190950194613e685760075460009081526011602090815260408083206001600160a01b03808b16855260019091018352818420908716845290915290208290555b505050600101613cee565b5060008111613ec2576040805162461bcd60e51b81526020600482015260166024820152754e6f2076616c696420757365727320746f206164642160501b604482015290519081900360640190fd5b600160068054600160a01b900460ff1690811115613edc57fe5b14156119fe576119fe828261469e565b81518351339114613f2e5760405162461bcd60e51b8152600401808060200182810382526037815260200180614d856037913960400191505060405180910390fd5b8151845114613f6e5760405162461bcd60e51b8152600401808060200182810382526039815260200180614c8d6039913960400191505060405180910390fd5b60005b84518110156119fe576000858281518110613f8857fe5b60200260200101519050613f9a614b36565b613fa48483614254565b6040805160a0810182528254815260019092015460ff8082161515602085015261010082048116151592840192909252620100008104821615156060840152630100000090041615156080820152865190915060009087908590811061400657fe5b60200260200101519050600082600001519050600087868151811061402757fe5b602002602001015190506000838260405160200180831515151560f81b8152600101828152602001925050506040516020818303038152906040528051906020012090506140748661422b565b6005015460ff1680614087575084608001515b6140c25760405162461bcd60e51b8152600401808060200182810382526022815260200180614bcb6022913960400191505060405180910390fd5b8460200151156141035760405162461bcd60e51b8152600401808060200182810382526025815260200180614d606025913960400191505060405180910390fd5b6007546000908152601160209081526040808320338452600190810183528184206001600160a01b038b1685529092529091208101805460ff191690911790558083146141815760405162461bcd60e51b8152600401808060200182810382526027815260200180614dbc6027913960400191505060405180910390fd5b60075460009081526011602090815260408083206001600160a01b038c8116855260019182018452828520908b168552909252822001805461ff001916610100871515021790556141d18761422b565b600201549050846141e557600181036141ea565b806001015b60075460009081526011602090815260408083206001600160a01b03909b1683529990529790972060020196909655505060019094019350613f7192505050565b60075460009081526011602090815260408083206001600160a01b039490941683529290522090565b60075460009081526011602090815260408083206001600160a01b0395861684526001018252808320939094168252919091522090565b60075460009081526011602090815260408083206001600160a01b03851684526001019091529020919050565b6001600160a01b03811661430c576040805162461bcd60e51b81526020600482015260166024820152754e6577206f776e65722063616e6e6f7420626520302160501b604482015290519081900360640190fd5b600080546040516001600160a01b03808516939216917f8be0079c531659141344cd1fd0a4f28419497f9722a3daafe3b4186f6b6457e091a3600080546001600160a01b0319166001600160a01b0392909216919091179055565b6000806143738561422b565b9050600061438086611dae565b600383015460015460408051638e4179db60e01b81526001600160a01b038a81166004830152915194955092936000939190921691638e4179db91602480820192602092909190829003018186803b1580156143db57600080fd5b505afa1580156143ef573d6000803e3d6000fd5b505050506040513d602081101561440557600080fd5b50519050816144455760405162461bcd60e51b8152600401808060200182810382526029815260200180614e676029913960400191505060405180910390fd5b61445d81670de0b6b3a764000063ffffffff613bdc16565b861061449a5760405162461bcd60e51b815260040180806020018281038252603f815260200180614bed603f913960400191505060405180910390fd5b6040805160208082018590526bffffffffffffffffffffffff1960608b901b168284015260548083018a90528351808403909101815260748301808552815191830191909120600a54634959698960e01b9092526078840189905293518893919273__MaxHeapLibrary________________________9263495969899260988083019392829003018186803b15801561453257600080fd5b505af4158015614546573d6000803e3d6000fd5b505050506040513d602081101561455c57600080fd5b5051108061456957508482105b1561468e57614579898b8461472b565b600a548173__MaxHeapLibrary________________________634959698990916040518263ffffffff1660e01b81526004018082815260200191505060206040518083038186803b1580156145cd57600080fd5b505af41580156145e1573d6000803e3d6000fd5b505050506040513d60208110156145f757600080fd5b5051111561467f577f81eb635ae266c3de79b5eb888447c4f47bb2bd3f7e8f15f68c43b706be02f8336146298b611dae565b60408051918252519081900360200190a16146438a614850565b7fd807f35ad23d587028eb2dcca5083429a910db54d00da39c3cee6df5d3e0a94761466d8b611dae565b60408051918252519081900360200190a15b600196505050505050506127a2565b5060009998505050505050505050565b806146a88361428b565b6001908101546007805460009081526011602081815260408084206001600160a01b03909a1684529886018152888320909501805463ffffffff61010096879004811698909801881690950264ffffffff00199095169490941790935590548152915292909220600301805480841690920190921663ffffffff19909116179055565b60006147368361422b565b604080516317651b2b60e21b8152600481018390526001600160a01b038716602482015260448101859052905191925073__MaxHeapLibrary________________________91635d946cac91606480820192600092909190829003018186803b1580156147a257600080fd5b505af41580156147b6573d6000803e3d6000fd5b5050604080516001600160a01b0380881682528816602082015280820186905290517f05181bb92216966bea512248cecd685c53838b1e3714f5cda3608b863854642e9350908190036060019150a1505060075460009081526011602090815260408083206001600160a01b039586168452600190810183528184209490951683529290522001805463ff00000019166301000000179055565b600061485b8261422b565b600001905060008173__MaxHeapLibrary________________________639a39c5c390916040518263ffffffff1660e01b81526004018082815260200191505060206040518083038186803b1580156148b357600080fd5b505af41580156148c7573d6000803e3d6000fd5b505050506040513d60208110156148dd57600080fd5b5051604080516001600160a01b0380871682528316602082015281519293507f3fa6100e640756fbdacaf4e089ef6fbc98de8b2d41a794f62801bd043e2f3aae929081900390910190a16007805460009081526011602081815260408084206001600160a01b0380881680875260019283018552838720918b168088529185528387208301805463ff000000191690559654865293835281852095855294909401815283832091835252908120556129b081600161499a8261428b565b6001908101546007805460009081526011602081815260408084206001600160a01b039990991684529786018152878320909501805464ffffffff0019166101009586900463ffffffff9081169890980388169095029490941790935590548152915291909120600301805463ffffffff19811690831660001901909216919091179055565b828054600181600116156101000203166002900490600052602060002090601f016020900481019282601f10614a6157805160ff1916838001178555614a8e565b82800160010185558215614a8e579182015b82811115614a8e578251825591602001919060010190614a73565b506134fb929150614b64565b828054828255906000526020600020908101928215614aef579160200282015b82811115614aef57825182546001600160a01b0319166001600160a01b03909116178255602090920191600190910190614aba565b506134fb929150614b7e565b604080518082019091526000808252602082015290565b8154818355818111156129b0576000838152602090206129b0918101908301614b64565b6040805160a08101825260008082526020820181905291810182905260608101829052608081019190915290565b6117aa91905b808211156134fb5760008155600101614b6a565b6117aa91905b808211156134fb5780546001600160a01b0319168155600101614b8456fe596f752077657265206e6f742061737369676e656420746f2074686520676976656e207573657221596f752077657265206e6f742061737369676e656420746f207468652075736572215468652070726f6f6620696e646578206d75737420626520736d616c6c6572207468616e2074686520626f6e646564207374616b6520706572203165313821506f6f6c206973206e6f74207265676973746572656420746f2072656365697665206e65772064617461215573657273206c656e6774682073686f756c64206d6174636820776173436f6d706c69616e7444617461436f6d6d69746d656e747321546865207573657273206c656e677468206d757374206d61746368207468652072616e646f6d4e6f6e6365732064617461206c656e677468214f6e6c79206f776e65722063616e2075736520746869732066756e6374696f6e2146756e6374696f6e2063616e6e6f742062652063616c6c656420617420746869732074696d652152656d6f76616c20696e646578206d757374206d6174636820706f6f6c20616464726573732152656769737465726564204a757269205374616b696e6720506f6f6c73206c69737420697320656d70747921596f7520616c72656164792061646465642074686520636f6d706c69616e63654461746121546865207573657273206c656e677468206d757374206d617463682074686520636f6d706c69616e63652064617461206c656e67746821546865207061737365642072616e646f6d206e6f6e636520646f6573206e6f74206d61746368215573657273206c656e6774682073686f756c64206d617463682070726f6f66496e6469636573214a7572695374616b696e67506f6f6c20646f6573206e6f7420686176652073756666696369656e74204a7572692066656520746f6b656e73214e6f646520646964206e6f74207061727469636970617465207468697320726f756e6421546865207573657220646964206e6f742061646420616e792068656172742072617465206461746121a265627a7a723058205e873e385841a1bad770dd9a0dcaa3168cc2025f401c769ec2fba9c89e725e9864736f6c634300050a0032608060405234801561001057600080fd5b50604051613375380380613375833981810160405261010081101561003457600080fd5b50805160208201516040808401516060850151608086015160a087015160c088015160e090980151600080546001600160a01b031916331780825596519899979895979496939592949391926001600160a01b0392909216917f8be0079c531659141344cd1fd0a4f28419497f9722a3daafe3b4186f6b6457e0908290a3600180546001600160a01b03199081166001600160a01b039a8b1617909155600280548216988a1698909817909755600480549097169590971694909417909455600d91909155600e55600f919091556010556011556000600581905561325690819061011f90396000f3fe608060405234801561001057600080fd5b50600436106101f05760003560e01c80638f32d59b1161010f578063d57632ea116100a2578063ec55688911610071578063ec55688914610579578063f2fde38b14610581578063f5dede21146105a7578063fc0c546a146105af576101f0565b8063d57632ea1461052f578063d815b4c61461054c578063dd95dd4b14610554578063e5f95a9914610571576101f0565b8063c070bd2b116100de578063c070bd2b146104ce578063c35da4be146104f1578063c745c5331461051f578063d42e9cee14610527576101f0565b80638f32d59b1461046f578063a2aadc0314610477578063a43fa4ab14610494578063b641dd5a146104b1576101f0565b80634d5e8f991161018757806379015f431161015657806379015f43146103c957806386ab6a54146103f75780638da5cb5b146104255780638e4179db14610449576101f0565b80634d5e8f991461038357806350d4074b1461038b57806364630e5f14610393578063715018a6146103c1576101f0565b80633be53609116101c35780633be53609146102d25780633ff368021461030457806344c170701461035c57806344d96e951461037b576101f0565b80630831756a146101f5578063097a389e146102395780630d0ce700146102795780632e95489714610293575b600080fd5b61021b6004803603602081101561020b57600080fd5b50356001600160a01b03166105b7565b60408051938452602084019290925282820152519081900360600190f35b6102656004803603604081101561024f57600080fd5b50803590602001356001600160a01b03166105d8565b604080519115158252519081900360200190f35b6102816105f8565b60408051918252519081900360200190f35b6102b9600480360360208110156102a957600080fd5b50356001600160a01b03166105fe565b6040805192835260208301919091528051918290030190f35b610265600480360360608110156102e857600080fd5b508035906001600160a01b036020820135169060400135610617565b61030c61063d565b60408051602080825283518183015283519192839290830191858101910280838360005b83811015610348578181015183820152602001610330565b505050509050019250505060405180910390f35b6103796004803603602081101561037257600080fd5b50356107d8565b005b6102816108d1565b6102816108d7565b6102816108dd565b610379600480360360408110156103a957600080fd5b506001600160a01b03813581169160200135166108e3565b610379610c5a565b610379600480360360408110156103df57600080fd5b506001600160a01b0381358116916020013516610ce7565b6103796004803603604081101561040d57600080fd5b506001600160a01b038135811691602001351661100e565b61042d61136f565b604080516001600160a01b039092168252519081900360200190f35b6102816004803603602081101561045f57600080fd5b50356001600160a01b031661137e565b610265611461565b6103796004803603602081101561048d57600080fd5b5035611472565b610281600480360360208110156104aa57600080fd5b50356118ca565b610379600480360360208110156104c757600080fd5b50356118dc565b61030c600480360360408110156104e457600080fd5b5080359060200135611a05565b6103796004803603604081101561050757600080fd5b506001600160a01b0381358116916020013516611bb1565b61042d611faa565b610281611fb9565b6102816004803603602081101561054557600080fd5b5035611fbf565b610379611fd1565b6103796004803603602081101561056a57600080fd5b50356121b4565b610281612625565b61042d61262b565b6103796004803603602081101561059757600080fd5b50356001600160a01b031661263a565b610281612689565b61042d61268f565b60096020526000908152604090208054600182015460029092015490919083565b600b60209081526000928352604080842090915290825290205460ff1681565b600f5481565b6006602052600090815260409020805460019091015482565b600a60209081526000938452604080852082529284528284209052825290205460ff1681565b6060600061064b600361269e565b905060008111610698576040805162461bcd60e51b81526020600482015260136024820152724e6f206e6f64657320617661696c61626c652160681b604482015290519081900360640190fd5b6060816040519080825280602002602001820160405280156106c4578160200160208202803883390190505b50600160009081527f3617319a054d772f909f7c479a2cebe5066e836a939412e32403c99029b92eff6020527ff5d2b9d7b7dcf31fafb527f48cb641b3e286ba85117ea973378ae75f2b0f27c95482519293506001600160a01b03169183919061072a57fe5b6001600160a01b039092166020928302919091019091015260015b828110156107d157600360008361076384600163ffffffff6126dd16565b8151811061076d57fe5b6020908102919091018101516001600160a01b039081168352828201939093526040918201600090812060018252909152205483519116908390839081106107b157fe5b6001600160a01b0390921660209283029190910190910152600101610745565b5091505090565b6107e0611461565b61081b5760405162461bcd60e51b81526004018080602001828103825260218152602001806130326021913960400191505060405180910390fd5b600081815260086020526040902054610857576008600061084383600163ffffffff6126dd16565b815260200190815260200160002054610867565b6000818152600860205260409020545b6000828152600860209081526040808320939093556007905220546108af576007600061089b83600163ffffffff6126dd16565b8152602001908152602001600020546108bf565b6000818152600760205260409020545b60009182526007602052604090912055565b600c5481565b60055481565b600e5481565b600154604080516316fd755360e21b815290516006926001600160a01b031691635bf5d54c916004808301926020929190829003018186803b15801561092857600080fd5b505afa15801561093c573d6000803e3d6000fd5b505050506040513d602081101561095257600080fd5b5051600681111561095f57fe5b1461099f576040805162461bcd60e51b815260206004820181905260248201526000805160206131cd833981519152604482015290519081900360640190fd5b600154604080516332401b5760e11b815290516000926001600160a01b03169163648036ae916004808301926020929190829003018186803b1580156109e457600080fd5b505afa1580156109f8573d6000803e3d6000fd5b505050506040513d6020811015610a0e57600080fd5b50516000818152600a602090815260408083206001600160a01b0387168452825280832083805290915290205490915060ff1615610a7d5760405162461bcd60e51b81526004018080602001828103825260348152602001806131996034913960400191505060405180910390fd5b6000818152600a602090815260408083206001600160a01b038087168086529184528285208580528452828520805460ff1916600190811790915554835163033c01ad60e31b815260048101889052602481019390935292519216926319e00d6892604480840193829003018186803b158015610af957600080fd5b505afa158015610b0d573d6000803e3d6000fd5b505050506040513d6020811015610b2357600080fd5b5051600154604080516396623d1960e01b8152600481018690526001600160a01b0388811660248301528781166044830152915193945060009391909216916396623d19916064808301926020929190829003018186803b158015610b8757600080fd5b505afa158015610b9b573d6000803e3d6000fd5b505050506040513d6020811015610bb157600080fd5b5051905081610bf15760405162461bcd60e51b8152600401808060200182810382526022815260200180612e9a6022913960400191505060405180910390fd5b8015610c44576040805162461bcd60e51b815260206004820181905260248201527f54686520706173736564206e6f646520776173206e6f74206f66666c696e6521604482015290519081900360640190fd5b610c52838633600e5461272f565b505050505050565b610c62611461565b610c9d5760405162461bcd60e51b81526004018080602001828103825260218152602001806130326021913960400191505060405180910390fd5b600080546040516001600160a01b03909116907f8be0079c531659141344cd1fd0a4f28419497f9722a3daafe3b4186f6b6457e0908390a3600080546001600160a01b0319169055565b600154604080516316fd755360e21b815290516006926001600160a01b031691635bf5d54c916004808301926020929190829003018186803b158015610d2c57600080fd5b505afa158015610d40573d6000803e3d6000fd5b505050506040513d6020811015610d5657600080fd5b50516006811115610d6357fe5b14610da3576040805162461bcd60e51b815260206004820181905260248201526000805160206131cd833981519152604482015290519081900360640190fd5b600154604080516332401b5760e11b815290516000926001600160a01b03169163648036ae916004808301926020929190829003018186803b158015610de857600080fd5b505afa158015610dfc573d6000803e3d6000fd5b505050506040513d6020811015610e1257600080fd5b50516000818152600a602090815260408083206001600160a01b038716845282528083206002845290915290205490915060ff1615610e825760405162461bcd60e51b815260040180806020018281038252603a815260200180612ef9603a913960400191505060405180910390fd5b6000818152600a602090815260408083206001600160a01b03808716808652918452828520600286528452828520805460ff1916600190811790915554835163eff4b6d960e01b81526004810188905289831660248201526044810193909352925192169263eff4b6d992606480840193829003018186803b158015610f0757600080fd5b505afa158015610f1b573d6000803e3d6000fd5b505050506040513d6020811015610f3157600080fd5b5051600154604080516339d519c560e21b8152600481018690526001600160a01b03878116602483015291519394506000938493929092169163e754671491604480820192602092909190829003018186803b158015610f9057600080fd5b505afa158015610fa4573d6000803e3d6000fd5b505050506040513d6020811015610fba57600080fd5b50511390508115158114156110005760405162461bcd60e51b81526004018080602001828103825260318152602001806130016031913960400191505060405180910390fd5b610c5283863360105461272f565b600154604080516316fd755360e21b815290516006926001600160a01b031691635bf5d54c916004808301926020929190829003018186803b15801561105357600080fd5b505afa158015611067573d6000803e3d6000fd5b505050506040513d602081101561107d57600080fd5b5051600681111561108a57fe5b146110ca576040805162461bcd60e51b815260206004820181905260248201526000805160206131cd833981519152604482015290519081900360640190fd5b600154604080516332401b5760e11b815290516000926001600160a01b03169163648036ae916004808301926020929190829003018186803b15801561110f57600080fd5b505afa158015611123573d6000803e3d6000fd5b505050506040513d602081101561113957600080fd5b50516000818152600a602090815260408083206001600160a01b038716845282528083206001845290915290205490915060ff16156111a95760405162461bcd60e51b815260040180806020018281038252603481526020018061313a6034913960400191505060405180910390fd5b6000818152600a602090815260408083206001600160a01b038087168086529184528285206001808752908552838620805460ff191682179055548351633f8ed75160e11b815260048101889052898316602482015260448101939093529251921692637f1daea292606480840193829003018186803b15801561122c57600080fd5b505afa158015611240573d6000803e3d6000fd5b505050506040513d602081101561125657600080fd5b50519050806112965760405162461bcd60e51b815260040180806020018281038252603081526020018061307c6030913960400191505060405180910390fd5b60015460408051636ff002ff60e11b8152600481018590526001600160a01b03878116602483015286811660448301529151919092169163dfe005fe916064808301926020929190829003018186803b1580156112f257600080fd5b505afa158015611306573d6000803e3d6000fd5b505050506040513d602081101561131c57600080fd5b50511561135a5760405162461bcd60e51b815260040180806020018281038252602c81526020018061310e602c913960400191505060405180910390fd5b611368828533600f5461272f565b5050505050565b6000546001600160a01b031690565b600080600160009054906101000a90046001600160a01b03166001600160a01b031663648036ae6040518163ffffffff1660e01b815260040160206040518083038186803b1580156113cf57600080fd5b505afa1580156113e3573d6000803e3d6000fd5b505050506040513d60208110156113f957600080fd5b50519050611405612e0e565b506001600160a01b0383166000908152600960209081526040918290208251606081018452815481526001820154928101929092526002015491810182905290821015611453578051611459565b80602001515b949350505050565b6000546001600160a01b0316331490565b600154604080516332401b5760e11b815290516000926001600160a01b03169163648036ae916004808301926020929190829003018186803b1580156114b757600080fd5b505afa1580156114cb573d6000803e3d6000fd5b505050506040513d60208110156114e157600080fd5b5051600154604080516332401b5760e11b815290519293506000926001600160a01b039092169163648036ae91600480820192602092909190829003018186803b15801561152e57600080fd5b505afa158015611542573d6000803e3d6000fd5b505050506040513d602081101561155857600080fd5b50516000838152600b602090815260408083203384529091529020546001909101915060ff16156115ba5760405162461bcd60e51b815260040180806020018281038252602b81526020018061316e602b913960400191505060405180910390fd5b6000828152600b602090815260408083203384529091529020805460ff191660011790556115e6612e0e565b5033600090815260096020908152604080832081516060810183528154815260018201549381019390935260020154908201819052909190841061162f57506020810151611633565b5080515b60008511611688576040805162461bcd60e51b815260206004820152601e60248201527f506c65617365207061737320616e20616d6f756e742061626f76652030210000604482015290519081900360640190fd5b848110156116c75760405162461bcd60e51b8152600401808060200182810382526026815260200180612e4a6026913960400191505060405180910390fd5b60006116d9828763ffffffff6126dd16565b905060006116f2600d54846129cb90919063ffffffff16565b9050600d5482101580611703575081155b61173e5760405162461bcd60e51b815260040180806020018281038252603d815260200180612ebc603d913960400191505060405180910390fd5b60408051808201825288815260208082018881523360008181526006845285812094518555915160019485015584516060810186528881528084018881528187018c81529284526009909452949091209351845590519183019190915551600290910155600c546117b5908863ffffffff6126dd16565b600c55600d546000906117cf90849063ffffffff6129cb16565b905060006117e3838363ffffffff6126dd16565b6000888152600860205260408120549192509061180e5760008981526008602052604090205461181e565b6000888152600860205260409020545b9050611830818363ffffffff6126dd16565b600089815260086020526040902055846118be5761185560033363ffffffff612a3516565b5060008881526007602052604090205461188e5760008981526007602052604090205461188990600163ffffffff6126dd16565b6118ae565b6000888152600760205260409020546118ae90600163ffffffff6126dd16565b6000898152600760205260409020555b50505050505050505050565b60086020526000908152604090205481565b6004546001600160a01b031633146119255760405162461bcd60e51b815260040180806020018281038252602d8152602001806130e1602d913960400191505060405180910390fd5b6005548111156119665760405162461bcd60e51b81526004018080602001828103825260358152602001806131ed6035913960400191505060405180910390fd5b600554611979908263ffffffff6126dd16565b600555600254600480546040805163a9059cbb60e01b81526001600160a01b0392831693810193909352602483018590525192169163a9059cbb916044808201926020929091908290030181600087803b1580156119d657600080fd5b505af11580156119ea573d6000803e3d6000fd5b505050506040513d6020811015611a0057600080fd5b505050565b606060008211611a465760405162461bcd60e51b815260040180806020018281038252602a815260200180612e70602a913960400191505060405180910390fd5b606082604051908082528060200260200182016040528015611a72578160200160208202803883390190505b50600160008190527f3617319a054d772f909f7c479a2cebe5066e836a939412e32403c99029b92eff6020527ff5d2b9d7b7dcf31fafb527f48cb641b3e286ba85117ea973378ae75f2b0f27c9549192506001600160a01b03909116905b8486018111611ba5576001600160a01b038216611b1e5760405162461bcd60e51b8152600401808060200182810382526033815260200180612fce6033913960400191505060405180910390fd5b85811115611b74578183611b496001611b3d858b63ffffffff6126dd16565b9063ffffffff6126dd16565b81518110611b5357fe5b60200260200101906001600160a01b031690816001600160a01b0316815250505b6001600160a01b03918216600090815260036020908152604080832060018085529252909120549092169101611ad0565b50909150505b92915050565b600154604080516316fd755360e21b815290516006926001600160a01b031691635bf5d54c916004808301926020929190829003018186803b158015611bf657600080fd5b505afa158015611c0a573d6000803e3d6000fd5b505050506040513d6020811015611c2057600080fd5b50516006811115611c2d57fe5b14611c6d576040805162461bcd60e51b815260206004820181905260248201526000805160206131cd833981519152604482015290519081900360640190fd5b600154604080516332401b5760e11b815290516000926001600160a01b03169163648036ae916004808301926020929190829003018186803b158015611cb257600080fd5b505afa158015611cc6573d6000803e3d6000fd5b505050506040513d6020811015611cdc57600080fd5b50516000818152600a602090815260408083206001600160a01b038716845282528083206003845290915290205490915060ff1615611d4c5760405162461bcd60e51b815260040180806020018281038252603b815260200180612f93603b913960400191505060405180910390fd5b6000818152600a602090815260408083206001600160a01b03808716808652918452828520600386528452828520805460ff1916600190811790915554835163328d704d60e21b81526004810188905289831660248201526044810193909352925192169263ca35c13492606480840193829003018186803b158015611dd157600080fd5b505afa158015611de5573d6000803e3d6000fd5b505050506040513d6020811015611dfb57600080fd5b505160015460408051637913460360e11b8152600481018690526001600160a01b03878116602483015291519394506000938493929092169163f2268c0691604480820192602092909190829003018186803b158015611e5a57600080fd5b505afa158015611e6e573d6000803e3d6000fd5b505050506040513d6020811015611e8457600080fd5b5051600154604080516339d519c560e21b8152600481018890526001600160a01b03898116602483015291519490931394506000938493919092169163e754671491604480820192602092909190829003018186803b158015611ee657600080fd5b505afa158015611efa573d6000803e3d6000fd5b505050506040513d6020811015611f1057600080fd5b505113905082611f515760405162461bcd60e51b8152600401808060200182810382526033815260200180612f336033913960400191505060405180910390fd5b80151582151514611f935760405162461bcd60e51b81526004018080602001828103825260298152602001806130536029913960400191505060405180910390fd5b611fa184873360115461272f565b50505050505050565b6004546001600160a01b031681565b60105481565b60076020526000908152604090205481565b600154604080516332401b5760e11b815290516000926001600160a01b03169163648036ae916004808301926020929190829003018186803b15801561201657600080fd5b505afa15801561202a573d6000803e3d6000fd5b505050506040513d602081101561204057600080fd5b5051905061204c612e2f565b5033600090815260066020908152604091829020825180840190935280548352600101549082018190528210156120ca576040805162461bcd60e51b815260206004820152601c60248201527f4e6f742079657420616c6c6f77656420746f2077697468647261772100000000604482015290519081900360640190fd5b6040805180820182526000808252602080830182815233808452600683528584209451855590516001909401939093556002548551855163a9059cbb60e01b81526004810195909552602485015293516001600160a01b039094169363a9059cbb93604480820194918390030190829087803b15801561214957600080fd5b505af115801561215d573d6000803e3d6000fd5b505050506040513d602081101561217357600080fd5b50516121b05760405162461bcd60e51b81526004018080602001828103825260358152602001806130ac6035913960400191505060405180910390fd5b5050565b600154604080516332401b5760e11b815290516000926001600160a01b03169163648036ae916004808301926020929190829003018186803b1580156121f957600080fd5b505afa15801561220d573d6000803e3d6000fd5b505050506040513d602081101561222357600080fd5b5051600154604080516332401b5760e11b815290519293506000926001600160a01b039092169163648036ae91600480820192602092909190829003018186803b15801561227057600080fd5b505afa158015612284573d6000803e3d6000fd5b505050506040513d602081101561229a57600080fd5b5051600254604080516323b872dd60e01b8152336004820152306024820152604481018790529051600190930193506001600160a01b03909116916323b872dd916064808201926020929091908290030181600087803b1580156122fd57600080fd5b505af1158015612311573d6000803e3d6000fd5b505050506040513d602081101561232757600080fd5b505161237a576040805162461bcd60e51b815260206004820152601e60248201527f4e6f7420656e6f75676820746f6b656e7320666f7220626f6e64696e67210000604482015290519081900360640190fd5b6000828152600b6020908152604080832033845290915290205460ff16156123d35760405162461bcd60e51b815260040180806020018281038252602b81526020018061316e602b913960400191505060405180910390fd5b6000828152600b602090815260408083203384529091529020805460ff191660011790556123ff612e0e565b503360009081526009602090815260408083208151606081018352815481526001820154938101939093526002015490820181905290919084106124485750602081015161244c565b5080515b806124ce5761246560036000338163ffffffff612ae616565b5060008381526007602052604090205461249e5760008481526007602052604090205461249990600163ffffffff612b5c16565b6124be565b6000838152600760205260409020546124be90600163ffffffff612b5c16565b6000848152600760205260409020555b60006124e0828763ffffffff612b5c16565b905060006124f9600d54846129cb90919063ffffffff16565b6040805160608101825285815260208082018681528284018a8152336000908152600990935293909120915182555160018201559051600290910155600c5490915061254b908863ffffffff612b5c16565b600c55600d5482101561258f5760405162461bcd60e51b815260040180806020018281038252602d815260200180612f66602d913960400191505060405180910390fd5b60006125a6600d54846129cb90919063ffffffff16565b905060006125ba828463ffffffff6126dd16565b600088815260086020526040812054919250906125e5576000898152600860205260409020546125f5565b6000888152600860205260409020545b9050612607818363ffffffff612b5c16565b60009889526008602052604090982097909755505050505050505050565b600d5481565b6001546001600160a01b031681565b612642611461565b61267d5760405162461bcd60e51b81526004018080602001828103825260218152602001806130326021913960400191505060405180910390fd5b61268681612bb1565b50565b60115481565b6002546001600160a01b031681565b60008080806126af85826001612c60565b90935091505b6001600160a01b03821615611459576126d085836001612c60565b90935091506001016126b5565b600082821115612729576040805162461bcd60e51b81526020600482015260126024820152715361666553756220756e646572666c6f772160701b604482015290519081900360640190fd5b50900390565b60006001850161273d612e0e565b506001600160a01b0385166000908152600960209081526040918290208251606081018452815481526001820154928101929092526002015491810191909152612785612e0e565b506001600160a01b038516600090815260096020908152604080832081516060810183528154815260018201549381019390935260020154828201528301519091908910156127d55782516127db565b82602001515b9050600089836040015111156127f25782516127f8565b82602001515b9050600061281d6064612811858b63ffffffff612cb016565b9063ffffffff6129cb16565b9050600061283282600263ffffffff6129cb16565b9050600061284d8388602001516126dd90919063ffffffff16565b90506000612868838860200151612b5c90919063ffffffff16565b905060405180606001604052808781526020018381526020018a815250600960008f6001600160a01b03166001600160a01b0316815260200190815260200160002060008201518160000155602082015181600101556040820151816002015590505060405180606001604052808681526020018281526020018a815250600960008e6001600160a01b03166001600160a01b0316815260200190815260200160002060008201518160000155602082015181600101556040820151816002015590505061294183600554612b5c90919063ffffffff16565b6005819055507fb0f9aff79729f95cfd3c5a53434ea39810e21e8ad1cc3d50a22bd4a6aecb876e8e8e8e8e60405180858152602001846001600160a01b03166001600160a01b03168152602001836001600160a01b03166001600160a01b0316815260200182815260200194505050505060405180910390a1505050505050505050949350505050565b6000808211612a21576040805162461bcd60e51b815260206004820152601b60248201527f536166654469762063616e6e6f74206469766964652062792030210000000000604482015290519081900360640190fd5b6000828481612a2c57fe5b04949350505050565b60006001600160a01b0382161580612a545750612a528383612d13565b155b15612a6157506000611bab565b6001600160a01b038281166000908152602085815260408083208380529091528082205460018084529190922054612aa0938793811692911690612db1565b506001600160a01b03811660009081526020928352604080822082805290935282812080546001600160a01b031990811690915560018252929020805490921690915590565b6000612af28584612d13565b158015612b045750612b048585612d13565b15612b51576001600160a01b03808516600090815260208781526040808320861515845290915290205416612b3b86868686612db1565b612b4786858386612db1565b6001915050611459565b506000949350505050565b600082820183811015612baa576040805162461bcd60e51b815260206004820152601160248201527053616665416464206f766572666c6f772160781b604482015290519081900360640190fd5b9392505050565b6001600160a01b038116612c05576040805162461bcd60e51b81526020600482015260166024820152754e6577206f776e65722063616e6e6f7420626520302160501b604482015290519081900360640190fd5b600080546040516001600160a01b03808516939216917f8be0079c531659141344cd1fd0a4f28419497f9722a3daafe3b4186f6b6457e091a3600080546001600160a01b0319166001600160a01b0392909216919091179055565b600080612c6d8585612d13565b612c7c57506000905080612ca8565b50506001600160a01b038083166000908152602085815260408083208515158452909152902054600191165b935093915050565b600082612cbf57506000611bab565b82820282848281612ccc57fe5b0414612baa576040805162461bcd60e51b8152602060048201526011602482015270536166654d756c206f766572666c6f772160781b604482015290519081900360640190fd5b6001600160a01b03818116600090815260208481526040808320838052909152812054909116158015612d6857506001600160a01b038281166000908152602085815260408083206001845290915290205416155b15612da957600080805260208481526040808320600184529091529020546001600160a01b0383811691161415612da157506001611bab565b506000611bab565b506001611bab565b6001600160a01b0391821660008181526020868152604080832094158084529482528083208054969097166001600160a01b0319968716811790975595825295865284812092158152919094529190912080549091169091179055565b60405180606001604052806000815260200160008152602001600081525090565b60405180604001604052806000815260200160008152509056fe596f7520646f6e2774206861766520656e6f756768207374616b6520746f20756e626f6e6421506173736564206e6f64657320636f756e74206d7573742062652067726561746572207468616e20302154686520706173736564207573657220776173206e6f742064697373656e74656421596f75206d6179206f6e6c7920756e626f6e6420757020746f20746865206d696e696d756d20616c6c6f77616e6365206f7220616c6c207374616b6521546865206e6f64652068617320616c7265616479206265656e20736c617368656420666f7220616e20696e636f727265637420726573756c742154686520706173736564206e6f646520646964206e6f742064697373656e7420746f2074686520706173736564207573657221596f75206d75737420626f6e64206174206c6561737420746865206d696e696d756d20616c6c6f77616e636521546865206e6f64652068617320616c7265616479206265656e20736c617368656420666f7220616e20696e636f72726563742064697373656e74214e6f646573206c69737420746f6f2073686f727420666f7220676976656e206e6f646520696e646578206f7220636f756e742154686520706173736564206e6f646520646964206e6f74206769766520616e20696e636f727265637420726573756c74214f6e6c79206f776e65722063616e2075736520746869732066756e6374696f6e215468652064697373656e742066726f6d20706173736564206e6f64652077617320636f72726563742154686520706173736564206e6f646520776173206e6f742061737369676e656420746f207061737365642075736572214e6f7420656e6f75676820746f6b656e7320696e20626f6e64696e6720636f6e747261637420666f72207769746864726177616c214f6e6c79206a757269466f756e646174696f6e206d61792077697468647261772074686569722066756e64732154686520706173736564206e6f6465206861732072657665616c65642068697320636f6d6d69746d656e7421546865206e6f64652068617320616c7265616479206265656e20736c617368656420666f72206e6f742072657665616c696e6721596f75206d6179206f6e6c7920626f6e64206f7220756e626f6e64206f6e63652070657220726f756e6421546865206e6f64652068617320616c7265616479206265656e20736c617368656420666f72206265696e67206f66666c696e652150726f7879206d75737420626520696e20736c617368696e67207374616765214e6f7420656e6f7567682066756e647320746f2077697468647261772066726f6d206a7572466f756e646174696f6e46756e647321a265627a7a723058204fdf0e9c5fffa0d2a0a8ce2e8065bffa3ca4ac5b2c8248ce0c4818fadc56f8d064736f6c634300050a0032",
  "source": "pragma solidity 0.5.10;\r\n\r\nimport \"./lib/IERC20.sol\";\r\nimport \"./lib/Ownable.sol\";\r\nimport \"./lib/SafeMath.sol\";\r\n\r\nimport \"./JuriBonding.sol\";\r\nimport \"./SkaleMessageProxyInterface.sol\";\r\nimport \"./lib/custom/MaxHeapLibrary.sol\";\r\nimport \"./lib/custom/SkaleFileStorageInterface.sol\";\r\n\r\ncontract JuriNetworkProxy is Ownable {\r\n    using SafeMath for uint256;\r\n    using MaxHeapLibrary for MaxHeapLibrary.heapStruct;\r\n\r\n    event RemovedMax(address user, address removedNode);\r\n    event AddedVerifierHash(address user, address node, bytes32 verifierHash);\r\n\r\n    event OLD_MAX(bytes32 maxVerifierHash);\r\n    event NEW_MAX(bytes32 maxVerifierHash);\r\n\r\n    uint256 constant MAX_NODES_PER_UPDATE = 2; // TODO\r\n\r\n    enum Stages {\r\n        USER_ADDING_HEART_RATE_DATA,\r\n        NODES_ADDING_RESULT_COMMITMENTS,\r\n        NODES_ADDING_RESULT_REVEALS,\r\n        DISSENTING_PERIOD,\r\n        DISSENTS_NODES_ADDING_RESULT_COMMITMENTS,\r\n        DISSENTS_NODES_ADDING_RESULT_REVEALS,\r\n        SLASHING_PERIOD\r\n    }\r\n\r\n    struct UserState {\r\n        MaxHeapLibrary.heapStruct verifierHashesMaxHeap;\r\n        int256 complianceDataBeforeDissent;\r\n        int256 userComplianceData;\r\n        bytes32 userWorkoutSignature;\r\n        string userHeartRateDataStoragePath;\r\n        bool dissented;\r\n    }\r\n\r\n    struct NodeForUserState {\r\n        bytes32 complianceDataCommitment;\r\n        bool hasRevealed;\r\n        bool givenNodeResult;\r\n        bool hasDissented;\r\n        bool wasAssignedToUser;\r\n    }\r\n\r\n    struct NodeState {\r\n        mapping (address => NodeForUserState) nodeForUserStates;\r\n        bool hasRetrievedRewards;\r\n        uint32 activityCount;\r\n    }\r\n\r\n    struct JuriRound {\r\n        mapping (address => UserState) userStates;\r\n        mapping (address => NodeState) nodeStates;\r\n        uint256 nodesUpdateIndex;\r\n        uint32 totalActivityCount;\r\n    }\r\n\r\n    /**\r\n     * @dev Reverts if called in incorrect stage.\r\n     * @param _stage The allowed stage for the given function.\r\n     */\r\n    modifier atStage(Stages _stage) {\r\n        require(\r\n            currentStage == _stage,\r\n            \"Function cannot be called at this time!\"\r\n        );\r\n\r\n        _;\r\n    }\r\n\r\n    modifier checkIfNextStage() {\r\n        uint256 timeForStage = timesForStages[uint256(currentStage)];\r\n\r\n        if (currentStage == Stages.SLASHING_PERIOD) {\r\n            uint256 secondsSinceStart = now.sub(startTime);\r\n            uint256 secondsSinceStartNextPeriod = roundIndex.mul(timeForStage);\r\n\r\n            if (secondsSinceStart >= secondsSinceStartNextPeriod) {\r\n                _moveToNextStage();\r\n            }\r\n        } else if (now >= lastStageUpdate.add(timeForStage)) {\r\n            _moveToNextStage();\r\n        }\r\n\r\n        _;\r\n    }\r\n\r\n    JuriBonding public bonding;\r\n    IERC20 public juriFeesToken;\r\n    SkaleMessageProxyInterface public skaleMessageProxySide;\r\n    address public skaleMessageProxyAddressMain;\r\n    SkaleFileStorageInterface public skaleFileStorage;\r\n    address public juriTokenMainAddress;\r\n\r\n    Stages public currentStage;\r\n    uint256 public roundIndex;\r\n    uint256 public startTime;\r\n    uint256 public lastStageUpdate;\r\n    uint256 public nodeVerifierCount;\r\n    address[] public registeredJuriStakingPools;\r\n    address[] public dissentedUsers;\r\n\r\n    mapping (uint256 => mapping (address => uint256)) public totalJuriFeesAtWithdrawalTimes;\r\n    mapping (uint256 => uint256) public totalJuriFees;\r\n    mapping (uint256 => uint256) public timesForStages;\r\n    mapping (address => bool) public isRegisteredJuriStakingPool;\r\n    mapping (uint256 => JuriRound) internal stateForRound;\r\n\r\n    constructor(\r\n        IERC20 _juriFeesToken,\r\n        IERC20 _juriTokenSide,\r\n        IERC20 _juriTokenMain,\r\n        SkaleMessageProxyInterface _skaleMessageProxySide,\r\n        address _skaleMessageProxyAddressMain,\r\n        SkaleFileStorageInterface _skaleFileStorage,\r\n        address _juriFoundation,\r\n        uint256[] memory _times,\r\n        uint256[] memory _penalties,\r\n        uint256 _minStakePerNode\r\n    ) public {\r\n        timesForStages[uint256(Stages.USER_ADDING_HEART_RATE_DATA)] = _times[0];\r\n        timesForStages[uint256(Stages.NODES_ADDING_RESULT_COMMITMENTS)] = _times[1];\r\n        timesForStages[uint256(Stages.NODES_ADDING_RESULT_REVEALS)] = _times[2];\r\n        timesForStages[uint256(Stages.DISSENTING_PERIOD)] = _times[3];\r\n        timesForStages[uint256(Stages.DISSENTS_NODES_ADDING_RESULT_COMMITMENTS)] = _times[4];\r\n        timesForStages[uint256(Stages.DISSENTS_NODES_ADDING_RESULT_REVEALS)] = _times[5];\r\n        timesForStages[uint256(Stages.SLASHING_PERIOD)] = _times[6];\r\n\r\n        bonding = new JuriBonding(\r\n            this,\r\n            _juriTokenSide,\r\n            _juriFoundation,\r\n            _minStakePerNode,\r\n            _penalties[0],\r\n            _penalties[1],\r\n            _penalties[2],\r\n            _penalties[3]\r\n        );\r\n        isRegisteredJuriStakingPool[address(bonding)] = true;\r\n\r\n        skaleMessageProxySide = _skaleMessageProxySide;\r\n        skaleMessageProxyAddressMain = _skaleMessageProxyAddressMain;\r\n        skaleFileStorage = _skaleFileStorage;\r\n        juriTokenMainAddress = address(_juriTokenMain);\r\n        juriFeesToken = _juriFeesToken;\r\n        currentStage = Stages.USER_ADDING_HEART_RATE_DATA;\r\n        roundIndex = 0;\r\n        startTime = now;\r\n        lastStageUpdate = now;\r\n        nodeVerifierCount = 1;\r\n    }\r\n\r\n    // PUBLIC METHODS\r\n\r\n    function registerJuriStakingPool(address _poolAddress) public onlyOwner {\r\n        isRegisteredJuriStakingPool[_poolAddress] = true;\r\n        registeredJuriStakingPools.push(_poolAddress);\r\n    }\r\n\r\n    function removeJuriStakingPool(address _poolAddress, uint256 _removalIndex) public onlyOwner {\r\n        require(\r\n            registeredJuriStakingPools.length > 0,\r\n            'Registered Juri Staking Pools list is empty!'\r\n        );\r\n        require(\r\n            registeredJuriStakingPools[_removalIndex] == _poolAddress,\r\n            'Removal index must match pool address!'\r\n        );\r\n\r\n        isRegisteredJuriStakingPool[_poolAddress] = false;\r\n        registeredJuriStakingPools[_removalIndex]\r\n            = registeredJuriStakingPools[registeredJuriStakingPools.length.sub(1)];\r\n        registeredJuriStakingPools.length--;\r\n    }\r\n\r\n    // TODO remove\r\n    function debugIncreaseRoundIndex() public onlyOwner {\r\n        roundIndex++;\r\n\r\n        bonding.moveToNextRound(roundIndex);\r\n\r\n        dissentedUsers = new address[](0);\r\n        // nodeVerifierCount = bonding.totalNodesCount(roundIndex).div(3); // TODO\r\n    \r\n        // maybe also count only active nodes\r\n        // https://juriproject.slack.com/archives/CHKB3D1GF/p1565926038000200\r\n        nodeVerifierCount = bonding.stakingNodesAddressCount(roundIndex).div(3);\r\n        currentStage = Stages.USER_ADDING_HEART_RATE_DATA;\r\n    }\r\n\r\n    // TODO remove\r\n    function moveToNextStage() public {\r\n        currentStage = Stages((uint256(currentStage) + 1) % 7);\r\n        lastStageUpdate = now;\r\n\r\n        if (currentStage == Stages.USER_ADDING_HEART_RATE_DATA) {\r\n            roundIndex++;\r\n\r\n            bonding.moveToNextRound(roundIndex);\r\n            dissentedUsers = new address[](0);\r\n            nodeVerifierCount = bonding.stakingNodesAddressCount(roundIndex).div(3);\r\n        }\r\n    }\r\n\r\n    // TODO remove\r\n    function moveToUserAddingHeartRateDataStage() public {\r\n        currentStage = Stages.USER_ADDING_HEART_RATE_DATA;\r\n        lastStageUpdate = now;\r\n    }\r\n\r\n    function debugMoveToNextRound()\r\n        public\r\n        view\r\n        atStage(Stages.SLASHING_PERIOD)\r\n        returns (bytes memory) {\r\n        uint256 nodesUpdateIndex = stateForRound[roundIndex].nodesUpdateIndex;\r\n        uint32 totalActivity\r\n            = stateForRound[roundIndex].totalActivityCount;\r\n        uint256 totalBonded = bonding.totalBonded();\r\n\r\n        uint256 totalNodesCount = bonding.stakingNodesAddressCount(roundIndex);\r\n        uint256 updateNodesCount = totalNodesCount > MAX_NODES_PER_UPDATE\r\n            ? MAX_NODES_PER_UPDATE\r\n            : totalNodesCount;\r\n\r\n        address[] memory nodesToUpdate\r\n            = bonding.receiveNodesAtIndex(nodesUpdateIndex, MAX_NODES_PER_UPDATE);\r\n        uint32[] memory nodesActivity = new uint32[](updateNodesCount);\r\n        \r\n        for (uint256 i = 0; i < updateNodesCount; i++) {\r\n            nodesActivity[i]\r\n                = _getCurrentStateForNode(nodesToUpdate[i]).activityCount;\r\n        }\r\n\r\n        bool isFirstAddition = nodesUpdateIndex == 0;\r\n\r\n        bytes memory data = _encodeIMABytes(\r\n            isFirstAddition,\r\n            isFirstAddition ? uint32(stateForRound[roundIndex].totalActivityCount) : 0,\r\n            isFirstAddition ? bonding.totalBonded() : 0,\r\n            nodesToUpdate,\r\n            nodesActivity\r\n        );\r\n\r\n        return data;\r\n    }\r\n\r\n    // TODO What if not called in time?\r\n    function moveToNextRound()\r\n        public\r\n        atStage(Stages.SLASHING_PERIOD) {\r\n        uint256 nodesUpdateIndex = stateForRound[roundIndex].nodesUpdateIndex;\r\n        uint32 totalActivity\r\n            = stateForRound[roundIndex].totalActivityCount;\r\n        uint256 totalBonded = bonding.totalBonded();\r\n\r\n        uint256 totalNodesCount = bonding.stakingNodesAddressCount(roundIndex);\r\n        uint256 updateNodesCount = totalNodesCount > MAX_NODES_PER_UPDATE\r\n            ? MAX_NODES_PER_UPDATE\r\n            : totalNodesCount;\r\n\r\n        address[] memory nodesToUpdate\r\n            = bonding.receiveNodesAtIndex(nodesUpdateIndex, MAX_NODES_PER_UPDATE);\r\n        uint32[] memory nodesActivity = new uint32[](updateNodesCount);\r\n        \r\n        for (uint256 i = 0; i < updateNodesCount; i++) {\r\n            nodesActivity[i]\r\n                = _getCurrentStateForNode(nodesToUpdate[i]).activityCount;\r\n        }\r\n\r\n        bool isFirstAddition = nodesUpdateIndex == 0;\r\n\r\n        bytes memory data = _encodeIMABytes(\r\n            isFirstAddition,\r\n            isFirstAddition ? uint32(stateForRound[roundIndex].totalActivityCount) : 0,\r\n            isFirstAddition ? bonding.totalBonded() : 0,\r\n            nodesToUpdate,\r\n            nodesActivity\r\n        );\r\n\r\n        skaleMessageProxySide.postOutgoingMessage(\r\n            'Rinkeby', \r\n            skaleMessageProxyAddressMain, // dstContract\r\n            0, // amount\r\n            juriTokenMainAddress, // to\r\n            data\r\n            // bytes calldata bls\r\n        );\r\n\r\n        stateForRound[roundIndex].nodesUpdateIndex\r\n            = nodesUpdateIndex.add(updateNodesCount);\r\n\r\n        if (stateForRound[roundIndex].nodesUpdateIndex >= totalNodesCount) {\r\n            roundIndex++;\r\n            bonding.moveToNextRound(roundIndex);\r\n            dissentedUsers = new address[](0);\r\n            // nodeVerifierCount = bonding.totalNodesCount(roundIndex).div(3);\r\n            nodeVerifierCount = bonding.stakingNodesAddressCount(roundIndex).div(3);\r\n        }\r\n    }\r\n\r\n    function moveToDissentPeriod()\r\n        public\r\n        atStage(Stages.NODES_ADDING_RESULT_REVEALS)\r\n        checkIfNextStage {\r\n        // do nothing\r\n    }\r\n\r\n    function moveToSlashingPeriod()\r\n        public\r\n        atStage(Stages.DISSENTS_NODES_ADDING_RESULT_REVEALS)\r\n        checkIfNextStage {\r\n        // do nothing\r\n    }\r\n\r\n    function moveFromDissentToNextPeriod()\r\n        public\r\n        atStage(Stages.DISSENTING_PERIOD)\r\n        checkIfNextStage {\r\n        // do nothing\r\n    }\r\n\r\n    function addHeartRateDateForPoolUser(\r\n        bytes32 _userWorkoutSignature,\r\n        string memory _heartRateDataStoragePath\r\n    ) public checkIfNextStage atStage(Stages.USER_ADDING_HEART_RATE_DATA) {\r\n        // TODO verify signature, HOW ?\r\n\r\n        // TODO optional: enforce storage path fits msg.sender\r\n\r\n        uint8 fileStatus\r\n            = skaleFileStorage.getFileStatus(_heartRateDataStoragePath);\r\n        require(\r\n            fileStatus == 2, // => file exists\r\n            \"Invalid storage path passed\"\r\n        );\r\n\r\n        stateForRound[roundIndex]\r\n            .userStates[msg.sender]\r\n            .userWorkoutSignature = _userWorkoutSignature;\r\n        stateForRound[roundIndex]\r\n            .userStates[msg.sender]\r\n            .userHeartRateDataStoragePath = _heartRateDataStoragePath;\r\n    }\r\n\r\n    function addWasCompliantDataCommitmentsForUsers(\r\n        address[] memory _users,\r\n        bytes32[] memory _wasCompliantDataCommitments,\r\n        uint256[] memory _proofIndices\r\n    ) public checkIfNextStage atStage(Stages.NODES_ADDING_RESULT_COMMITMENTS) {\r\n        _addWasCompliantDataCommitmentsForUsers(\r\n            _users,\r\n            _wasCompliantDataCommitments,\r\n            _proofIndices\r\n        );\r\n    }\r\n\r\n    function addDissentWasCompliantDataCommitmentsForUsers(\r\n        address[] memory _users,\r\n        bytes32[] memory _wasCompliantDataCommitments\r\n        \r\n    ) public\r\n        checkIfNextStage\r\n        atStage(Stages.DISSENTS_NODES_ADDING_RESULT_COMMITMENTS) {\r\n        uint256[] memory _proofIndices = new uint256[](0);\r\n\r\n        _addWasCompliantDataCommitmentsForUsers(\r\n            _users,\r\n            _wasCompliantDataCommitments,\r\n            _proofIndices\r\n        );\r\n    }\r\n\r\n    function addWasCompliantDataForUsers(\r\n        address[] memory _users,\r\n        bool[] memory _wasCompliantData,\r\n        bytes32[] memory _randomNonces\r\n    ) public checkIfNextStage atStage(Stages.NODES_ADDING_RESULT_REVEALS) {\r\n        _addWasCompliantDataForUsers(\r\n            _users,\r\n            _wasCompliantData,\r\n            _randomNonces\r\n        );\r\n    }\r\n\r\n    function addDissentWasCompliantDataForUsers(\r\n        address[] memory _users,\r\n        bool[] memory _wasCompliantData,\r\n        bytes32[] memory _randomNonces\r\n    ) public\r\n        checkIfNextStage\r\n        atStage(Stages.DISSENTS_NODES_ADDING_RESULT_REVEALS) {\r\n        _addWasCompliantDataForUsers(\r\n            _users,\r\n            _wasCompliantData,\r\n            _randomNonces\r\n        );\r\n    }\r\n\r\n    function dissentToAcceptedAnswers(address[] memory _users)\r\n        public\r\n        checkIfNextStage\r\n        atStage(Stages.DISSENTING_PERIOD)\r\n    {\r\n        address node = msg.sender;\r\n        uint256 usersToDissentCount = 0;\r\n\r\n        require(_users.length > 0, 'Users array cannot be empty!');\r\n\r\n        for (uint256 i = 0; i < _users.length; i++) {\r\n            address user = _users[i];\r\n\r\n            require(\r\n                _getCurrentStateForNodeForUser(node, user).wasAssignedToUser,\r\n                'You were not assigned to the given user!'\r\n            );\r\n\r\n            if (!_getCurrentStateForUser(user).dissented) {\r\n                usersToDissentCount++;\r\n            }\r\n\r\n            // TODO only allow if node gave different previous result ?\r\n        }\r\n\r\n        require(\r\n            usersToDissentCount > 0,\r\n            \"Users were already dissented!\"\r\n        );\r\n        address[] memory usersToDissent = new address[](usersToDissentCount);\r\n        uint256 usersToDissentIndex = 0;\r\n\r\n        for (uint256 i = 0; i < _users.length; i++) {\r\n            if (!_getCurrentStateForUser(_users[i]).dissented) {\r\n                usersToDissent[usersToDissentIndex] = _users[i];\r\n                usersToDissentIndex++;\r\n            }\r\n        }\r\n\r\n        for (uint256 i = 0; i < usersToDissent.length; i++) {\r\n            address user = usersToDissent[i];\r\n\r\n            stateForRound[roundIndex].userStates[user].complianceDataBeforeDissent\r\n                = _getCurrentStateForUser(user).userComplianceData;\r\n            stateForRound[roundIndex]\r\n                .userStates[user]\r\n                .dissented = true;\r\n            stateForRound[roundIndex]\r\n                .nodeStates[node]\r\n                .nodeForUserStates[user]\r\n                .hasDissented = true;\r\n\r\n            dissentedUsers.push(user);\r\n        }\r\n    }\r\n\r\n    function retrieveRoundJuriFees(uint256 _roundIndex) public {\r\n        address node = msg.sender;\r\n        NodeState memory nodeState = stateForRound[_roundIndex].nodeStates[node];\r\n        uint256 activityCount = uint256(nodeState.activityCount);\r\n        uint256 totalJuriFeesForRound = totalJuriFees[_roundIndex];\r\n        uint256 alreadyWithdrawnJuriFees\r\n            = totalJuriFeesAtWithdrawalTimes[_roundIndex][msg.sender];\r\n        uint256 newFeesToWithdraw = totalJuriFeesForRound.sub(alreadyWithdrawnJuriFees);\r\n\r\n        require(_roundIndex < roundIndex, \"Round not yet finished!\");\r\n        require(activityCount > 0, \"Node did not participate this round!\");\r\n        require(newFeesToWithdraw > 0, \"Nothing available to withdraw!\");\r\n\r\n        uint256 multiplier = 1000000;\r\n        uint256 totalNodeActivityCount\r\n            = uint256(stateForRound[_roundIndex].totalActivityCount);\r\n        uint256 activityShare = activityCount.mul(multiplier).div(totalNodeActivityCount);\r\n        uint256 juriFeesTokenAmount = newFeesToWithdraw\r\n            .mul(activityShare)\r\n            .div(multiplier);\r\n\r\n        totalJuriFeesAtWithdrawalTimes[_roundIndex][msg.sender] = totalJuriFeesForRound;\r\n        stateForRound[_roundIndex].nodeStates[node].hasRetrievedRewards = true;\r\n        juriFeesToken.transfer(node, juriFeesTokenAmount);\r\n    }\r\n\r\n    /// INTERFACE METHODS\r\n\r\n    function handleJuriFees(\r\n        uint256 _roundIndex,\r\n        uint256 _juriFeesTokenAmount\r\n    ) external {\r\n        require(\r\n            juriFeesToken.transferFrom(msg.sender, address(this), _juriFeesTokenAmount),\r\n            'JuriStakingPool does not have sufficient Juri fee tokens!'\r\n        );\r\n\r\n        totalJuriFees[_roundIndex]\r\n            = totalJuriFees[_roundIndex].add(_juriFeesTokenAmount);\r\n    }\r\n\r\n    function getUserWorkAssignmentHashes(uint256 _roundIndex, address _user)\r\n        public\r\n        view\r\n        returns (uint256[] memory) {\r\n        return stateForRound[_roundIndex].userStates[_user].verifierHashesMaxHeap.getLowestHashes();\r\n    }\r\n\r\n    function getDissented(uint256 _roundIndex, address _user)\r\n        public\r\n        view\r\n        returns (bool) {\r\n        return stateForRound[_roundIndex].userStates[_user].dissented;\r\n    }\r\n\r\n    function getHeartRateDataStoragePath(uint256 _roundIndex, address _user)\r\n        public\r\n        view\r\n        returns (string memory) {\r\n        return stateForRound[_roundIndex].userStates[_user].userHeartRateDataStoragePath;\r\n    }\r\n\r\n    function getComplianceDataBeforeDissent(uint256 _roundIndex, address _user)\r\n        public\r\n        view\r\n        returns (int256) {\r\n        return stateForRound[_roundIndex].userStates[_user].complianceDataBeforeDissent;\r\n    }\r\n\r\n    function getHasRevealed(uint256 _roundIndex, address _node, address _user)\r\n        public\r\n        view\r\n        returns (bool) {\r\n        return stateForRound[_roundIndex].nodeStates[_node].nodeForUserStates[_user].hasRevealed;\r\n    }\r\n\r\n    function getNodeActivityCount(uint256 _roundIndex, address _node)\r\n        public\r\n        view\r\n        returns (uint256) {\r\n        return stateForRound[_roundIndex].nodeStates[_node].activityCount;\r\n    }\r\n\r\n    function getTotalActivityCount(uint256 _roundIndex)\r\n        public\r\n        view\r\n        returns (uint256) {\r\n        return stateForRound[_roundIndex].totalActivityCount;\r\n    }\r\n\r\n    function getUserComplianceDataCommitment(\r\n        uint256 _roundIndex,\r\n        address _node,\r\n        address _user\r\n    ) public view returns (bytes32) {\r\n        return stateForRound[_roundIndex].nodeStates[_node].nodeForUserStates[_user].complianceDataCommitment;\r\n    }\r\n\r\n    function getGivenNodeResult(\r\n        uint256 _roundIndex,\r\n        address _node,\r\n        address _user\r\n    ) public view returns (bool) {\r\n        return stateForRound[_roundIndex].nodeStates[_node].nodeForUserStates[_user].givenNodeResult;\r\n    }\r\n\r\n    function getWasAssignedToUser(\r\n        uint256 _roundIndex,\r\n        address _node,\r\n        address _user\r\n    ) public view returns (bool) {\r\n        return stateForRound[_roundIndex].nodeStates[_node].nodeForUserStates[_user].wasAssignedToUser;\r\n    }\r\n\r\n    function getHasDissented(uint256 _roundIndex, address _node, address _user)\r\n        public\r\n        view\r\n        returns (bool) {\r\n        return stateForRound[_roundIndex].nodeStates[_node].nodeForUserStates[_user].hasDissented;\r\n    }\r\n\r\n    function getUserComplianceData(uint256 _roundIndex, address _user)\r\n        public\r\n        view\r\n        returns (int256) {\r\n        require(\r\n            isRegisteredJuriStakingPool[msg.sender],\r\n            \"Pool is not registered to receive new data!\"\r\n        );\r\n\r\n        return stateForRound[_roundIndex].userStates[_user].userComplianceData;\r\n    }\r\n\r\n    function getUserWorkoutSignature(uint256 _roundIndex, address _user)\r\n        public\r\n        view\r\n        returns (bytes32) {\r\n        return stateForRound[_roundIndex].userStates[_user].userWorkoutSignature;\r\n    }\r\n\r\n    /**\r\n     * @dev Read registered staking pools.\r\n     * @return The registered staking pools.\r\n     */\r\n    function getRegisteredJuriStakingPools()\r\n        public\r\n        view\r\n        returns (address[] memory)\r\n    {\r\n        return registeredJuriStakingPools;\r\n    }\r\n\r\n    function getDissentedUsers()\r\n        public\r\n        view\r\n        returns (address[] memory)\r\n    {\r\n        return dissentedUsers;\r\n    }\r\n\r\n    function getCurrentHighestHashForUser(address _user)\r\n        public\r\n        view\r\n        returns (uint256) {\r\n        MaxHeapLibrary.heapStruct storage verifierHashesMaxHeap\r\n            = _getCurrentStateForUser(_user).verifierHashesMaxHeap;\r\n\r\n        uint256 hashesCount = verifierHashesMaxHeap.getLength();\r\n        uint256 highestHash = hashesCount > 0\r\n            ? verifierHashesMaxHeap.getMax().value\r\n            : 0;\r\n\r\n        return highestHash;\r\n    }\r\n\r\n    /// PRIVATE METHODS\r\n    function _encodeIMABytes(\r\n        bool _isFirstAddition,\r\n        uint32 _totalActivity,\r\n        uint256 _totalBonded,\r\n        address[] memory _nodes,\r\n        uint32[] memory _nodeActivities\r\n    ) public pure returns (bytes memory) {\r\n        uint8 isFirstAddition = _isFirstAddition ? 1 : 0;\r\n        uint256 firstAdditionAddedDataLength = 37;\r\n        uint256 nodesCount = _nodes.length;\r\n        uint256 nodesDataLength = nodesCount * 24;\r\n        uint256 totalDataLength = nodesDataLength\r\n            + (_isFirstAddition ? firstAdditionAddedDataLength : 1);\r\n        bytes memory result = new bytes(totalDataLength);\r\n\r\n        uint256 beginningDest;\r\n        \r\n        assembly {\r\n            beginningDest := add(result, 32)\r\n            mstore8(beginningDest, isFirstAddition)\r\n        }\r\n\r\n        if (_isFirstAddition) {\r\n            uint256 totalActivityDest = beginningDest + 1;\r\n            uint256 totalBondedDest = totalActivityDest + 4;\r\n\r\n            assembly {\r\n                mstore8(totalActivityDest, shr(24, _totalActivity))\r\n                mstore8(add(totalActivityDest, 1), shr(16, _totalActivity))\r\n                mstore8(add(totalActivityDest, 2), shr(8, _totalActivity))\r\n                mstore8(add(totalActivityDest, 3), _totalActivity)\r\n                mstore(totalBondedDest, _totalBonded)\r\n            }\r\n        }\r\n\r\n        uint256 nodesDest = _isFirstAddition\r\n            ? beginningDest + firstAdditionAddedDataLength\r\n            : beginningDest + 1;\r\n        uint256 nodesActivityDest = nodesDest + 20 * _nodes.length;\r\n\r\n        for (uint256 i = 0; i < _nodes.length; i++) {\r\n            address node = _nodes[i];\r\n            uint256 nodeDest = nodesDest + 20 * i;\r\n            \r\n            assembly {\r\n                mstore8(nodeDest, shr(152, node))\r\n                mstore8(add(nodeDest, 1), shr(144, node))\r\n                mstore8(add(nodeDest, 2), shr(136, node))\r\n                mstore8(add(nodeDest, 3), shr(128, node))\r\n                mstore8(add(nodeDest, 4), shr(120, node))\r\n                mstore8(add(nodeDest, 5), shr(112, node))\r\n                mstore8(add(nodeDest, 6), shr(104, node))\r\n                mstore8(add(nodeDest, 7), shr(96, node))\r\n                mstore8(add(nodeDest, 8), shr(88, node))\r\n                mstore8(add(nodeDest, 9), shr(80, node))\r\n                mstore8(add(nodeDest, 10), shr(72, node))\r\n                mstore8(add(nodeDest, 11), shr(64, node))\r\n                mstore8(add(nodeDest, 12), shr(56, node))\r\n                mstore8(add(nodeDest, 13), shr(48, node))\r\n                mstore8(add(nodeDest, 14), shr(40, node))\r\n                mstore8(add(nodeDest, 15), shr(32, node))\r\n                mstore8(add(nodeDest, 16), shr(24, node))\r\n                mstore8(add(nodeDest, 17), shr(16, node))\r\n                mstore8(add(nodeDest, 18), shr(8, node))\r\n                mstore8(add(nodeDest, 19), node)\r\n            }\r\n        }\r\n        \r\n        for (uint256 i = 0; i < _nodeActivities.length; i++) {\r\n            uint256 nodeActivity = uint256(_nodeActivities[i]);\r\n            uint256 nodeActivityDest = nodesActivityDest + 4 * i;\r\n    \r\n            assembly {\r\n                mstore8(nodeActivityDest, shr(24, nodeActivity))\r\n                mstore8(add(nodeActivityDest, 1), shr(16, nodeActivity))\r\n                mstore8(add(nodeActivityDest, 2), shr(8, nodeActivity))\r\n                mstore8(add(nodeActivityDest, 3), nodeActivity)\r\n            }\r\n        }\r\n\r\n        return result;\r\n    }\r\n\r\n    function _increaseActivityCountForNode(\r\n        address _node,\r\n        uint32 _activityCount\r\n    ) internal {\r\n        stateForRound[roundIndex]\r\n            .nodeStates[_node]\r\n            .activityCount = _getCurrentStateForNode(_node)\r\n                .activityCount + _activityCount;\r\n        stateForRound[roundIndex].totalActivityCount\r\n            = stateForRound[roundIndex].totalActivityCount + _activityCount;\r\n    }\r\n\r\n    function _decrementActivityCountForNode(address _node) internal {\r\n        stateForRound[roundIndex]\r\n            .nodeStates[_node]\r\n            .activityCount\r\n                = _getCurrentStateForNode(_node).activityCount - 1;\r\n        stateForRound[roundIndex].totalActivityCount\r\n            = stateForRound[roundIndex].totalActivityCount - 1;\r\n    }\r\n\r\n    function _moveToNextStage() internal {\r\n        if (currentStage == Stages.DISSENTING_PERIOD) {\r\n            currentStage = dissentedUsers.length > 0\r\n                ? Stages.DISSENTS_NODES_ADDING_RESULT_COMMITMENTS\r\n                : Stages.SLASHING_PERIOD;\r\n        } else {\r\n            currentStage = Stages((uint256(currentStage) + 1) % 7);\r\n        }\r\n\r\n        lastStageUpdate = now;\r\n    }\r\n\r\n    function _addWasCompliantDataCommitmentsForUsers(\r\n        address[] memory _users,\r\n        bytes32[] memory _wasCompliantDataCommitments,\r\n        uint256[] memory _proofIndices\r\n    ) internal {\r\n        address node = msg.sender;\r\n\r\n        require(\r\n            _users.length == _wasCompliantDataCommitments.length,\r\n            'Users length should match wasCompliantDataCommitments!'\r\n        );\r\n        require(\r\n            _users.length == _proofIndices.length\r\n            || currentStage == Stages.DISSENTS_NODES_ADDING_RESULT_COMMITMENTS,\r\n            'Users length should match proofIndices!'\r\n        );\r\n\r\n        uint256 validUserCount = 0;\r\n\r\n        for (uint256 i = 0; i < _users.length; i++) {\r\n            address user = _users[i];\r\n            bytes32 wasCompliantCommitment = _wasCompliantDataCommitments[i];\r\n\r\n            NodeForUserState memory nodeForUserState\r\n                = _getCurrentStateForNodeForUser(node, user);\r\n            require(\r\n                !nodeForUserState.hasRevealed,\r\n                \"You already added the complianceData!\"\r\n            );\r\n\r\n            if (_getCurrentStateForUser(user).dissented\r\n                || (_verifyValidComplianceAddition(user, node, _proofIndices[i])\r\n                && currentStage == Stages.NODES_ADDING_RESULT_COMMITMENTS)\r\n            ) {\r\n                validUserCount++;\r\n\r\n                if (nodeForUserState.complianceDataCommitment == 0x0) {\r\n                    stateForRound[roundIndex]\r\n                        .nodeStates[node]\r\n                        .nodeForUserStates[user]\r\n                        .complianceDataCommitment\r\n                            = wasCompliantCommitment;\r\n                }\r\n            }\r\n        }\r\n        \r\n        require(validUserCount > 0, 'No valid users to add!');\r\n\r\n        if (currentStage == Stages.NODES_ADDING_RESULT_COMMITMENTS) {\r\n            // dont count dissent rounds as activity\r\n            // because nodes have an incentive anyways to participate\r\n            // due to not getting offline slashed\r\n            _increaseActivityCountForNode(node, uint32(validUserCount));\r\n        }\r\n    }\r\n\r\n    function _addWasCompliantDataForUsers(\r\n        address[] memory _users,\r\n        bool[] memory _wasCompliantData,\r\n        bytes32[] memory _randomNonces\r\n    ) internal {\r\n        address node = msg.sender;\r\n\r\n        require(\r\n            _users.length == _wasCompliantData.length,\r\n            \"The users length must match the compliance data length!\"\r\n        );\r\n        require(\r\n            _users.length == _randomNonces.length,\r\n            \"The users length must match the randomNonces data length!\"\r\n        );\r\n\r\n        for (uint256 i = 0; i < _users.length; i++) {\r\n            address user = _users[i];\r\n            NodeForUserState memory nodeForUserState\r\n                = _getCurrentStateForNodeForUser(node, user);\r\n            bool wasCompliant = _wasCompliantData[i];\r\n            bytes32 commitment = nodeForUserState.complianceDataCommitment;\r\n            bytes32 randomNonce = _randomNonces[i];\r\n            bytes32 verifierNonceHash = keccak256(\r\n                abi.encodePacked(wasCompliant, randomNonce)\r\n            );\r\n\r\n            require(\r\n                _getCurrentStateForUser(user).dissented\r\n                    || nodeForUserState.wasAssignedToUser,\r\n                'You were not assigned to the user!'\r\n            );\r\n            require(\r\n                !nodeForUserState.hasRevealed,\r\n                \"You already added the complianceData!\"\r\n            );\r\n            stateForRound[roundIndex].nodeStates[msg.sender].nodeForUserStates[user].hasRevealed = true;\r\n    \r\n            require(\r\n                verifierNonceHash == commitment,\r\n                \"The passed random nonce does not match!\"\r\n            );\r\n\r\n            stateForRound[roundIndex]\r\n                .nodeStates[node]\r\n                .nodeForUserStates[user]\r\n                .givenNodeResult = wasCompliant;\r\n    \r\n            int256 currentCompliance = _getCurrentStateForUser(user)\r\n                .userComplianceData;\r\n            stateForRound[roundIndex].userStates[user].userComplianceData\r\n                = wasCompliant ? currentCompliance + 1 : currentCompliance - 1;\r\n        }\r\n    }\r\n\r\n    function _getStateForCurrentRound()\r\n        internal\r\n        view\r\n        returns (JuriRound storage) {\r\n        return stateForRound[roundIndex];\r\n    }\r\n\r\n    function _getCurrentStateForUser(address _user)\r\n        internal\r\n        view\r\n        returns (UserState storage) {\r\n        return stateForRound[roundIndex].userStates[_user];\r\n    }\r\n\r\n    function _getCurrentStateForNode(address _node)\r\n        internal\r\n        view\r\n        returns (NodeState storage) {\r\n        return stateForRound[roundIndex].nodeStates[_node];\r\n    }\r\n\r\n    function _getCurrentStateForNodeForUser(address _node, address _user)\r\n        internal\r\n        view\r\n        returns (NodeForUserState storage) {\r\n        return stateForRound[roundIndex].nodeStates[_node].nodeForUserStates[_user];\r\n    }\r\n\r\n    function _verifyValidComplianceAddition(\r\n        address _user,\r\n        address _node,\r\n        uint256 _proofIndex\r\n    ) internal returns (bool) {\r\n        UserState storage userState = _getCurrentStateForUser(_user);\r\n\r\n        uint256 currentHighestHash = _getCurrentHighestHashForUser(_user);\r\n        bytes32 userWorkoutSignature = userState.userWorkoutSignature;\r\n        uint256 bondedStake = bonding.getBondedStakeOfNode(_node);\r\n\r\n        require(\r\n            userWorkoutSignature != 0x0,\r\n            \"The user did not add any heart rate data!\"\r\n        );\r\n\r\n        require(\r\n            _proofIndex < bondedStake.div(1e18),\r\n            \"The proof index must be smaller than the bonded stake per 1e18!\"\r\n        );\r\n\r\n        uint256 verifierHash = uint256(\r\n            keccak256(abi.encodePacked(userWorkoutSignature, _node, _proofIndex))\r\n        );\r\n\r\n        MaxHeapLibrary.heapStruct storage verifierHashesMaxHeap\r\n            = userState.verifierHashesMaxHeap;\r\n\r\n        if (verifierHashesMaxHeap.getLength() < nodeVerifierCount // TODO count node quality ??\r\n            || verifierHash < currentHighestHash) {\r\n            _addNewVerifierHashForUser(_node, _user, verifierHash);\r\n\r\n            if (verifierHashesMaxHeap.getLength() > nodeVerifierCount) {\r\n                emit OLD_MAX(bytes32(_getCurrentHighestHashForUser(_user)));\r\n                _removeMaxVerifierHashForUser(_user);\r\n                emit NEW_MAX(bytes32(_getCurrentHighestHashForUser(_user)));\r\n            }\r\n\r\n            return true;\r\n        }\r\n\r\n        return false;\r\n    }\r\n\r\n    function _getCurrentHighestHashForUser(address _user)\r\n        internal\r\n        view\r\n        returns (uint256) {\r\n        MaxHeapLibrary.heapStruct storage verifierHashesMaxHeap\r\n            = _getCurrentStateForUser(_user).verifierHashesMaxHeap;\r\n\r\n        uint256 hashesCount = verifierHashesMaxHeap.getLength();\r\n        uint256 highestHash = hashesCount > 0\r\n            ? verifierHashesMaxHeap.getMax().value\r\n            : 0;\r\n\r\n        return highestHash;\r\n    }\r\n\r\n    function _removeMaxVerifierHashForUser(\r\n        address _user\r\n    ) internal {\r\n        MaxHeapLibrary.heapStruct storage verifierHashesMaxHeap\r\n            = _getCurrentStateForUser(_user).verifierHashesMaxHeap;\r\n        address removedNode = verifierHashesMaxHeap.removeMax();\r\n\r\n        emit RemovedMax(_user, removedNode);\r\n\r\n        stateForRound[roundIndex]\r\n            .nodeStates[removedNode]\r\n            .nodeForUserStates[_user]\r\n            .wasAssignedToUser = false;\r\n        stateForRound[roundIndex]\r\n            .nodeStates[removedNode]\r\n            .nodeForUserStates[_user]\r\n            .complianceDataCommitment = 0x0;\r\n\r\n        _decrementActivityCountForNode(removedNode);\r\n    }\r\n\r\n    function _addNewVerifierHashForUser(\r\n        address _node,\r\n        address _user,\r\n        uint256 _verifierHash\r\n    ) internal {        \r\n        MaxHeapLibrary.heapStruct storage verifierHashesMaxHeap\r\n            = _getCurrentStateForUser(_user).verifierHashesMaxHeap;\r\n        verifierHashesMaxHeap.insert(_node, _verifierHash);\r\n\r\n        emit AddedVerifierHash(_user, _node, bytes32(_verifierHash));\r\n\r\n        stateForRound[roundIndex]\r\n            .nodeStates[_node]\r\n            .nodeForUserStates[_user]\r\n            .wasAssignedToUser = true;\r\n    }\r\n}",
  "sourcePath": "C:\\Users\\mail\\Personal\\Juri\\JuriOracle\\contracts\\JuriNetworkProxy.sol",
  "compiler": {
    "name": "solc",
    "version": "0.5.10+commit.5a6ea5b1.Emscripten.clang"
  },
  "schemaVersion": "3.0.14",
  "updatedAt": "2019-09-24T01:07:28.020Z",
  "devdoc": {
    "methods": {
      "getRegisteredJuriStakingPools()": {
        "details": "Read registered staking pools.\r",
        "return": "The registered staking pools.\r"
      },
      "isOwner()": {
        "return": "true if `msg.sender` is the owner of the contract.\r"
      },
      "owner()": {
        "return": "the address of the owner.\r"
      },
      "renounceOwnership()": {
        "details": "Allows the current owner to relinquish control of the contract.\r It will not be possible to call the functions with the `onlyOwner`\r modifier anymore.\r"
      },
      "transferOwnership(address)": {
        "details": "Allows the current owner to transfer control of the contract to a newOwner.\r",
        "params": {
          "newOwner": "The address to transfer ownership to.\r"
        }
      }
    }
  },
  "userdoc": {
    "methods": {
      "_encodeIMABytes(bool,uint32,uint256,address[],uint32[])": {
        "notice": "PRIVATE METHODS"
      },
      "handleJuriFees(uint256,uint256)": {
        "notice": "INTERFACE METHODS"
      },
      "renounceOwnership()": {
        "notice": "Renouncing ownership will leave the contract without an owner,\r thereby removing any functionality that is only available to the owner.\r"
      }
    }
  }
}