{
  "contractName": "SkaleFileStorageMock",
  "abi": [
    {
      "constant": false,
      "inputs": [
        {
          "name": "storagePath",
          "type": "string"
        }
      ],
      "name": "getFileStatus",
      "outputs": [
        {
          "name": "",
          "type": "uint8"
        }
      ],
      "payable": false,
      "stateMutability": "nonpayable",
      "type": "function"
    }
  ],
  "bytecode": "0x608060405234801561001057600080fd5b5060ea8061001f6000396000f3fe6080604052348015600f57600080fd5b506004361060285760003560e01c8063122f4fba14602d575b600080fd5b609760048036036020811015604157600080fd5b810190602081018135640100000000811115605b57600080fd5b820183602082011115606c57600080fd5b80359060200191846001830284011164010000000083111715608d57600080fd5b50909250905060ad565b6040805160ff9092168252519081900360200190f35b60029291505056fea265627a7a723058207ff64c28edff0ce668007fcf13480a3817d2cc3373f1a935a165bd924be4664464736f6c634300050a0032",
  "source": "pragma solidity 0.5.10;\r\n\r\nimport \"./SkaleFileStorageInterface.sol\";\r\n\r\ncontract SkaleFileStorageMock is SkaleFileStorageInterface {\r\n    function getFileStatus(string calldata storagePath) external returns (uint8) {\r\n        return 2;\r\n    }\r\n}",
  "sourcePath": "C:/Users/mail/Personal/Juri/JuriStakingContract/contracts/research/lib/SkaleFileStorageMock.sol",
  "compiler": {
    "name": "solc",
    "version": "0.5.10+commit.5a6ea5b1.Emscripten.clang"
  },
  "schemaVersion": "3.0.11",
  "updatedAt": "2019-08-26T23:41:04.910Z",
  "devdoc": {
    "methods": {}
  },
  "userdoc": {
    "methods": {}
  }
}